:100000000C94F0050C9418060C9418060C94180621
:100010000C9418060C9418060C9418060C941806E8
:100020000C9418060C9418060C94BA1F0C942920F2
:100030000C9418060C9418060C9418060C941806C8
:100040000C9418060C9418060C9418060C941806B8
:100050000C9418060C9418060C9418060C945B2249
:100060000C9418060C9418060C9418060C94180698
:100070000C9418060C9418060C9418060C94180688
:100080000C94A5220C9418060C9418060C941806CF
:100090000C9418060C9418060C9418060C94180668
:1000A0000C9418060C9418060C9418062A2D252773
:1000B0003230252423002A232E232A3211002A231A
:1000C0002E232A3210002A232E232A320F00EF007B
:1000D0000000000000F0000000000000F10000EF50
:1000E0000000000000F00000000000F1000000002F
:1000F000EF00000000F000000000F1000000000030
:1001000000EF000000F0000000F10000000000001F
:100110000000EF0000F00000F1000000000000000F
:10012000000000EFDFF0E1F100000000000000003F
:10013000000000EEEFF0F1F2000000000000FFFF11
:10014000FFFFFFFFFF0001010101010101000000AD
:100150000000000E0F10111200000000000000004F
:100160000000000F1F10211100000000000000001F
:1001700000000F000010000011000000000000004F
:10018000000F00000010000000110000000000003F
:100190000F00000000100000000011000000000F20
:1001A00000000000001000000000001100000F001F
:1001B00000000000001000000000000011041F02F9
:1001C000041F031F150A031F051A030E191E031F20
:1001D000041B0308141C031F1408030C1212030849
:1001E000141F030C1A14021E050312150F031F041B
:1001F00018030E110E03121F100319151203111507
:100200000A0307041F03171509030E150803011934
:1002100007030A150A0302150E0204040314081446
:1002200003040E04050A1F0A1F0A05190D0C0D19F7
:10023000051109080911050111101109050911100D
:100240001109050D1918190D030E1111031F041FB3
:10025000031F1511051F0204021F031E051E0301C3
:100260001F01031F110E050F100E100F03121509A9
:10027000031F1010031F050203111F11040E11119B
:100280000E03071807040F10100F040E11151D019F
:100290000A020000222F242501002926252A2324D2
:1002A00025262324252623032C252A03232B232636
:1002B0002C262C2D01130E32242D2E232927032525
:1002C00028312122232105242526230102030405A8
:1002D000E602AC009402C600BE00B600022A252148
:1002E0000528222C26230123283230252423000030
:1002F000687C7C7C680000001400140000181C4A14
:100300007E7E7C70204C7E377E4C20467C7E7C7EC0
:100310007C4643647D7E7D644344687A7F7A68448A
:100320000068544454680018144A72424C70204CBF
:100330007221724C20467C4644467C4643645D46AE
:100340005D644344685A4F5A68440000000001024B
:100350000305070A0C1013161A1E22262A2D303404
:1003600036393B3D3E3F4040404030252423322B30
:10037000252F2923270000000000000000000000B6
:10038000000000000000000000000000000000006D
:1003900050F0F080000000000000000000000000AD
:1003A00000000000800000C42212CA3C00008060EF
:1003B00040808040000080402020C038060000803F
:1003C00060000080600000C030080404022224188D
:1003D000000080603826C0000000804020A060003F
:1003E000000080702040800000008070204080006D
:1003F00000000000000000000000000000000000FD
:100400000000000000000000000000800100EA7110
:100410001AFF7E87838380808080000000000000B8
:1004200000102020908D838181818F90908E81801B
:100430008C939088848E9190888E919088848E91F0
:1004400090888E9190888798A0A0A0A0A090908876
:10045000948E8180808E91908884878A91909088F4
:10046000848A959888949388848A959888949388A8
:1004700040402418000000000000000000000000C0
:1004800000000000000000001005421825D748B702
:100490007FC9F7FEBFEB7F1F0F03000000000000C5
:1004A0000C1201010000000040A0F058E84040E0BC
:1004B00040000000000000000000000000000000FC
:1004C000000000000000000000000000000000002C
:1004D000000000000000000000000000000000001C
:1004E0000000000040E04040E858F0A0400000005C
:1004F00000000000000000000000000000000000FC
:10050000000000000000004000809002A1BC4BAB46
:10051000BEEFBBFEFF9FF9F0C0C0800000000000EE
:1005200000000000000000000000010302000000C5
:10053000000000008000008080008000800000003B
:10054000800000800000808000008040008000006B
:10055000C00000C00000800000C00000400080001B
:100560000080400080000040020341008040000005
:10057000400080000000002A00500500B000045137
:10058000200880210890224008801240010A69DB7F
:10059000BAFDFFFEFFC101158904A208441348A457
:1005A000126C813248A01A6088523144A8116852F6
:1005B0008134688132888016AA0896AB041AC7284D
:1005C000168BA41A87A80E92AD0A46B94E72D12C8A
:1005D00052F10876E118D46330CC5132E44930D678
:1005E00021E894032E548B158EA51906AE510E9555
:1005F000228D1EA00B000050001400801400088003
:10060000020440020940060100124500806813EE12
:10061000FD37FFFFBFFFF8E0C318A44118A04AA8A8
:1006200000DA20886A9008E2300CE0110C50008556
:100630000822870802AB04820906AA01068D23025C
:100640008D22078C2207C9AE73915864B1906C510A
:10065000B0D429B0C83AE0115CE01174C81075C874
:1006600010F0060D238C0B220C4B02AD0A01AE02DA
:1006700009A60A1186000009000228000A100204D7
:10068000100904002B0008030030C02C92E91DF66D
:10069000ABDF7FEBFFDFF77FFFEEFCFCFAA0006231
:1006A0008048224008A21008972208952A118658EF
:1006B000052A114E8932049D22095688132E900B6B
:1006C00014926D8A01608A44A01241A44840952288
:1006D00048806A00D22448836014C16802D0258013
:1006E0006806398B1416A91517A8132E81182F82A6
:1006F00019244B12140000A00000500000108000CC
:1007000000200000801000802200045A0015564D81
:1007100015565D9F572DFFAF2BDFAE37CF6F10966D
:10072000611188601288708218604298502294503B
:1007300040B5006A9020CA30856810A268148220F3
:100740000C83540986290A84258B04A90A86218DE5
:100750000AA10D9205288B45140AA10E022946080C
:10076000937004897004D122885025D00228D002C9
:10077000A950049160D5F08D14A1C881CFD9F1AFF3
:1007800020009BCEFCB9AAAAAAAA00000000000083
:100790000000000000000000000022222222134678
:1007A0007431080B0002020200000904000001027B
:1007B00002000005240010010524010101042402A7
:1007C0000605240600010705810310004009040105
:1007D00000020A000000070502024000000705832E
:1007E000024000000403090412010002EF0201406C
:1007F0004123368000010102030141726475696E74
:100800006F204C4C430041726475626F79000000A8
:1008100000000000000000000000000000000000D8
:1008200000000000000000000000000000000000C8
:1008300002000000000000010000000000000200B3
:1008400000020000000000010000000000020000A3
:100850000000020000000001000000000200000093
:100860000000000200000001000000020000000083
:100870000000000002000001000002000000000073
:10088000000000000002040104020000000000005B
:100890000000000000042010200400000000000000
:1008A000010101010101080008010101010101002C
:1008B00000000000000480408004000000000000F0
:1008C000000000000002040104020000000000001B
:1008D0000000000002000001000002000000000013
:1008E0000000000200000001000000020000000003
:1008F00000000200000000010000000002000000F3
:1009000000020000000000010000000000020000E2
:10091000020000000000000100000000000002EFE3
:10092000F10F11F010FF01DFE11F21EE0EF21200B6
:10093000208004A259FBF80004040C0D1424FDFFD0
:10094000FFFFBDFFFFBFFFFFFFFFFFFFFFFFFFFF39
:10095000FFFFFFFFFFFFFFFFFFFFFFFFFFFFFFFFA7
:10096000FFFFFFFFFFFFFFFFFFFFFFFFFFFFFFFF97
:10097000FFFFFFFFFFFFFFFFFFFFFFFFFFFFFFFF87
:10098000FFFFFFFFFFFFFFFFFFFFFFFFFFFFFFFF77
:10099000FFFFFFFFFFFFFFFFFFFFFFFFFFFFFFFF67
:1009A000FFFFFFFFFFFFFFFFFFFFFFFFFFFFFEFF58
:1009B000FFFFDEFFFFDFEFF0F1FF010F101100007E
:1009C000000000000000DC00DB00D000CF0086004B
:1009D0008F008700850054005800550056004200E3
:1009E000470048004F003E004500450042004100DE
:1009F0004E004C003A000000000000000000BE0065
:100A0000EB00F9000501F5000A0120011D010201BA
:100A100023012F01320111012301300133010801AB
:100A20001C0126012901FD0013011A012201FA000F
:100A300001010F011301EA00FD00FB0000010C01A0
:100A400010010C0114011101270124011F011C01D7
:100A50002A012E012C011F012601310138011B0141
:100A600026012D0136011D0127013001300115013C
:100A70002B01240124010B01170110011701E001D2
:100A8000E201E901EE01E101E601EE01EA01D60130
:100A9000E001E501E401D301D601E501E101C9016D
:100AA000D401DB01DB01C101CF01D401D401BA01C2
:100AB000CB01D401D601C701CB01D901DD0164030B
:100AC000750389038903700371038E038E037C030E
:100AD00082038F03970376037803890388037003E7
:100AE0007A037F0380036E0376037E037A03580341
:100AF00066037D0377035F035D0364037703DEFF13
:100B0000F8FFF2FFEBFF00000D00110009000300E9
:100B1000190018000900F5FF0E0012000E00EBFF8F
:100B2000FEFF0B000C00F0FF010007000800F0FFC3
:100B3000FFFFFFFFFDFFE0FFF8FFECFFEDFF0C0004
:100B400011000D000E0007000A000A000A001B0039
:100B500016000E000F001E001200090003001A000C
:100B600017000D0007000400FFFF040009000F003C
:100B7000060007003500A0FFD5FFF7FFFBFF0700C9
:100B800005000D000A000D0009000A000300000026
:100B9000FFFF010001005FFFC9FFDFFFEEFFF5FF70
:100BA000F9FFFEFFFEFF030007000A00100014001B
:100BB00020001E002B0011000700E7FF04001900B1
:100BC00013000D00070004000300F8FFFAFFF3FF15
:100BD000F2FFF2FFEEFF00010103030509006B289D
:100BE00011241FBECFEFDAE0DEBFCDBF11E0A0E0E1
:100BF000B1E0EEE6FAE502C005900D92AE32B10723
:100C0000D9F728E0AEE2B1E001C01D92AE3BB207D9
:100C1000E1F715E0C0EFD5E004C02197FE010E9486
:100C20002F2DCF3ED107C9F70E9480280C94352D77
:100C30000C9400008F929F92BF92CF92DF92EF921E
:100C4000FF920F931F93CF93DF93EC01DC0108E831
:100C500015E091E09617D8F51296BC90129713966E
:100C60007C911397F80181918F01292F422F50E039
:100C7000FA01EA57FA4F7F01FA01EE0FFF1F4F0109
:100C80008C0E9D1E49575A4FF7013081381784F456
:100C90006401F2E0CF1AD108F601C080D180F401DE
:100CA000D182C082F7013081FA0130832150F1F600
:100CB00030E0F901EE0FFF1FEC0FFD1FB0827183D2
:100CC00029573A4FF90180839F5F1296C3CFDF9176
:100CD000CF911F910F91FF90EF90DF90CF90BF9039
:100CE0009F908F900895E5E4F2E0A0E0B4E00080EA
:100CF0000EBC8111012C1197A0FDFDCF0192B9F717
:100D00000DB408956F927F928F929F92AF92BF928F
:100D1000CF92DF92EF92FF920F931F93CF93DF93C7
:100D2000CDB7DEB7C054D1090FB6F894DEBF0FBE01
:100D3000CDBFE091E60545E0E49FF0011124E252C9
:100D4000FB4FE48054E080E05E1508F0D3C0FE0164
:100D50003196DF01BE016F5B7F4F1192E617F707F7
:100D6000E1F730E020E0F12C80E005E0C02E922F8A
:100D7000D22E2E150CF064C04091E60524170CF01D
:100D800092C050E0421B530BC49EF001C59EF00D73
:100D90001124E252FB4FB080E1818E2E8B18F80CAB
:100DA000F0E0AF014B5B5B4F3A01FA019080492DB7
:100DB00050E08A01005211090A0F1B1FF801A080A0
:100DC000A80CA0820B2D10E00B5B1B4FF80190824A
:100DD000F30110824A575A4FFA01B082F11076C0DF
:100DE0008D0145E454E0F801B1908F01BB20B9F0CA
:100DF000FA01EF59FE4FE081EB0DE7FD65C0F0E031
:100E0000EB5BFB4FE081EE2309F45EC0F0E0EB5DAD
:100E1000FA4FB080FA01F395E081BE1255C04F5FE2
:100E20005F4F60177107F9F641E090FF4FC0442310
:100E300009F44CC08F5F813009F448C091E09D0DEA
:100E4000915030E020E0492F092E000C550B75E041
:100E5000F72E97FD4FC06091E6059617D4F570E028
:100E6000FA01E21BF30B6E1B7F0BF69EF001F79E5F
:100E7000F00D1124E252FB4F60817181E62FF0E00A
:100E8000EB5BFB4F6081072F10E00B5B1B4FD80122
:100E90006C931082E62FF0E0EA57FA4F70832F5FD1
:100EA0003F4F9150D6CFE22FE41B4E2FE091BD086B
:100EB0004E1740F0ED59E41BF0E0EE0FFF1FEB5032
:100EC000F84F69CFE150F7CF40E0AFCF2F5F3F4FF2
:100ED0004ECFF92FF61B6F2FE091BD08FE1740F0A3
:100EE000ED59E61BF0E0EE0FFF1FEB50F84FC4CFBB
:100EF000E150F7CFC05CDF4F0FB6F894DEBF0FBEF6
:100F0000CDBFDF91CF911F910F91FF90EF90DF90B8
:100F1000CF90BF90AF909F908F907F906F900895EB
:100F2000E0E6E827F0E0EA57FA4F9081911115C00A
:100F3000282F30E0F901EA57FA4F4081442331F17C
:100F400092E0980F865F891751F0E92FF0E0EA5799
:100F5000FA4F50819F5F57FDF6CF80E008954530EE
:100F6000A8F04630D1F7295C3A4FF901208180E0A2
:100F7000921799F3E92FF0E0EA57FA4F308137FDE5
:100F800003C08111EBCF81E09F5FF2CF81E0089534
:100F900080912B010E949007811104C080912C0147
:100FA0000C9490070895DF92EF92FF920F931F9396
:100FB000CF93DF93E091E70730E63E273093E707D2
:100FC000682F6777592F5777A52FB0E0AB5BBB4FE2
:100FD0004C91C091E6052FEF2C0F2093E60505E01C
:100FE000C09FE0011124C252DB4F2A81C22FD0E002
:100FF000782F7078F92FF8787F2B09F448C097FF85
:1010000062C0842F90E08C010B5D1A4FF801708153
:10101000E72FE770F0E0EA52F44FD490E32EF12C82
:10102000F701EA57FA4F70817F5F7D197083F801ED
:1010300010828A579A4F3FEFFC0130838091E70777
:1010400090E0FC01E95CFA4F3081FC014317A0F508
:10105000E95CFA4F832F815080838091E70792E00B
:10106000980F3AE0380F391791F0092F0052110B01
:101070000B5B1A4FF8017081711123C031E0380FFA
:101080008295869586958370830F8083492F2223CE
:1010900089F1CB5DDA4FE881E770F0E0EA52F44F76
:1010A000E491C091E70780E6C827D0E0CA57DA4F3D
:1010B0008881E80FE8831EC0E85CFA4F80818F5F6B
:1010C000CBCF9F5FD0CF8E010A571A4F93FF3AC004
:1010D000561740F58CEF860FE82FF0E0EB5BFB4FE7
:1010E0002083EFEFE60FF0E0EB5BFB4F1082E801AF
:1010F000888320E0E62FF0E0EB5BFB4F4083E42F9A
:10110000F0E0EA57FA4F60832C93E22FF0E0EA57C1
:10111000FA4F5083DF91CF911F910F91FF90EF9085
:10112000DF90089583E0860FE82FF0E0EB5BFB4F44
:101130002083E1E0E60FF0E0EB5BFB4F1082F8016B
:101140008083D7CF87FFA3CF80E3850F831BC82F72
:10115000D0E0CB5BDB4F2883E8018883F0E0EA57DF
:10116000FA4F80818F5FECCF962F282F22952F701A
:10117000362F32953F70321337C0242F861708F56B
:101180008F5FE82FF0E0EB5BFB4F90819923C1F379
:1011900068132AC02F5FE22FF0E0EB5BFB4FE0818A
:1011A000EE23C1F38091E7078E23F1F4F0E0EB5DCD
:1011B000FA4FE081E770F0E0E15DF64F80818170E9
:1011C00008958150E82FF0E0EB5BFB4F2081222354
:1011D000C1F3841309C09150E92FF0E0EB5BFB4FA2
:1011E000E081EE23C1F3DECF80E00895FC01809121
:1011F0004402882311F13FB7F89482E08093E9001C
:101200002091F200822F90E01816190614F481E064
:1012100090E0882339F0289844E6409343024091B7
:10122000F1004083222339F02091F200211103C004
:101230002BE62093E8003FBF08958FEF9FEF0895BE
:101240002FB7F89483E08093E9009091E800892F0C
:10125000807295FF04C09091F20080E4891B2FBF3B
:10126000089580913B0281110DC082E08093370286
:1012700084E08093380210923A021092390281E0A1
:1012800080933B0287E392E00895CF93DF931F9210
:10129000CDB7DEB76983DC01ED91FC910280F3816B
:1012A000E02D41E050E0BE016F5F7F4F09950F9048
:1012B000DF91CF91089583E08093E9008091F2005F
:1012C000882319F08AE38093E80008950E9420099A
:1012D00090E00895CF93DF931F92CDB7DEB7FC0166
:1012E0008485958597FD08C02FEF3FEF35872487CC
:1012F0000F90DF91CF910895CE0101960E94F608DC
:10130000019719F4898190E0F3CF8FEF9FEFF0CF31
:101310000F931F93CF93DF931F92CDB7DEB78C014E
:10132000FC018485958597FF0BC0CE0101960E9434
:10133000F608019771F4898190E0F8019587848718
:10134000F801848595850F90DF91CF911F910F91C2
:1013500008958FEF9FEFF1CFFC018485958597FD70
:101360000BC09FB7F89482E08093E9008091F2006F
:101370009FBF90E0019608959FB7F89482E0809314
:10138000E9008091F2009FBF90E008954091E10153
:101390005091E2012091DF013091E00142175307A3
:1013A000B4F49091E8009570E1F39091E80092FD1B
:1013B00019C08093F1008091E1019091E2010196C2
:1013C0008F739927892B19F48EEF8093E800809111
:1013D000E1019091E20101969093E2018093E10195
:1013E00081E0089580E00895EF92FF920F931F939C
:1013F000CF93DF93F82E192FE62E042F81E0860F6E
:10140000880F0E94C60983E00E94C609CF2DD12F04
:10141000EC0EFD2EF11CCE15DF05B9F007FF13C051
:10142000FE0184910E94C609182F80E00E94C6091F
:10143000812321968111EFCFDF91CF911F910F91E1
:10144000FF90EF9008958881EDCF81E0F5CFDF9296
:10145000EF92FF920F931F93CF93DF93D82E8A01C1
:10146000EB017B01E40EF51ECE15DF0559F0D7FE2A
:1014700012C0FE0184910E94C60921968111F4CF09
:101480000FEF1FEFC801DF91CF911F910F91FF90D8
:10149000EF90DF9008958881EECF0F931F93CF9345
:1014A000DF931F92CDB7DEB782E0898342E450E03C
:1014B00062EA77E080E80E94270A0E943109DC0195
:1014C00012960D911C910115110589F0D801ED912D
:1014D000FC910280F381E02DBE016F5F7F4FC80158
:1014E000099597FD04C0F80100851185ECCF89812D
:1014F0000F90DF91CF911F910F910895615030F0BF
:101500002091F100FC0120830196F8CF289884E611
:101510008093430208953FB7F894809134019091ED
:101520003501A0913601B091370126B5A89B05C0C1
:101530002F3F19F00196A11DB11D3FBFBA2FA92F52
:10154000982F8827BC01CD01620F711D811D911D4F
:1015500042E0660F771F881F991F4A95D1F70895BB
:101560008F929F92AF92BF92CF92DF92EF92FF92B3
:101570006B017C010E948B0A4B015C01C114D104F8
:10158000E104F104B9F00E948B0A681979098A090B
:101590009B09683E73408105910580F321E0C21AE2
:1015A000D108E108F10888EE880E83E0981EA11C9E
:1015B000B11CE4CFFF90EF90DF90CF90BF90AF9041
:1015C0009F908F90089565E070E080E090E00C942B
:1015D000B00A8F929F92AF92BF92CF92DF92EF921A
:1015E000FF920F931F93CF93DF936C017B018A01CE
:1015F00080910B01882309F45CC080914402882308
:1016000009F457C08091E60180FF05C08091E00099
:1016100082608093E000E801B12C8AEFA82E93E06D
:10162000892E2AE3922E209711F4BB20D9F10E9433
:10163000200981110AC0AA94AA20D9F161E070E0C2
:1016400080E090E00E94B00AEECF8C171D0611F0EA
:101650000CF08C2F9FB7F8948092E9002091E8005D
:1016600025FD02C09FBFDFCF282F30E0C21BD30B68
:10167000F701815020F041914093F100FACFE20E42
:10168000F31EBB2021F09092E800B12CEBCF8091AB
:10169000E80085FDE7CF9092E800BB24B394209743
:1016A00009F3F3CF5D9884E68093E50110161106E7
:1016B0003CF081E090E0F6019383828310E000E04B
:1016C000C801DF91CF911F910F91FF90EF90DF90B4
:1016D000CF90BF90AF909F908F9008958FB18095DD
:1016E000807F669B88601C9B846008958EBD00008F
:1016F0000DB407FEFDCF08955C9808955C9A089597
:1017000090E1699FB001112480FD03C0719561953E
:101710007109CB010895282F30E083FB882780F9D9
:1017200096E0359527959A95E1F72270822B8D5F8B
:1017300008958F929F92AF92BF92CF92DF92EF92D5
:10174000FF920F931F93CF93DF93A091E60525E0BF
:10175000A29FF0011124E252FB4FAF5FA093E60578
:10176000A29FD0011124A252BB4F238113962C9328
:101770001397248114962C9314978C9311969C9311
:101780001197382F392B387899F4E82FF0E0EB5B7C
:10179000FB4F4091E7073EEF341B4081340F383058
:1017A00038F0E92FF0E0EB5BFB4F30812F5F311118
:1017B00020E014962C931497382F3777292F27770A
:1017C000D22E432F50E08A010B5B1B4FF801208182
:1017D0006D2D70E0FB01EB5BFB4F7F01C080CC2DDA
:1017E000D0E0CC20A1F0FE01EB5DFA4FE081E77084
:1017F000F0E0EA52F44F9490A090E707F0E6AF26AD
:10180000B12CF501EA57FA4F808089188082129630
:10181000CC921297425C564FFA014491FB01E25C74
:10182000F64FE491E42313964C911397E423139617
:10183000EC931397592F5878482F4078452BA1F1F6
:1018400097FF61C0A22EB12C0E948B0BF501EB5BC0
:10185000FB4FDF01A052BF4F1C92EF5BFE4F9FEF8B
:1018600090834091E707A42FB0E0833009F43CC097
:10187000A85CBA4FEC912FEF2E0F2C93E22FF0E0E3
:10188000EB5DFA4F9091E707980F9083E82FF0E017
:10189000EA52F44FE491A091E707B0E0AA57BA4F9B
:1018A0008C918150E80FEC93F7012083F8011082AE
:1018B000E22FF0E0EA57FA4FD082CA57DA4F8FEFA3
:1018C00088838091E70790E689278093E707DF9177
:1018D000CF911F910F91FF90EF90DF90CF90BF902D
:1018E000AF909F908F900895FD01E95CFA4F2081A1
:1018F000922F9F5F9083E22FF0E0EB5DFA4F909183
:10190000E7079D5FC2CF93FF2AC0D316D8F4ECEF50
:10191000E30FF0E0BF016B5B7B4FFB014081129650
:101920004C9312973150832F90E08B5B9B4FFC01BF
:101930004083FB0110821296EC91F0E0EA57FA4FD7
:101940003083B2CFE3E0E30FF0E0BF016B5B7B4F8E
:10195000FB01408112964C9312973F5FE4CF87FFC3
:10196000A3CF4091E7078D2D841B805D90E08B5BBA
:101970009B4FFC01308112963C931082A32FB0E064
:10198000AA57BA4F8FEF8C9380E6E42FE827F0E058
:10199000EA57FA4F80818150808386CFCF93DF93BF
:1019A00082E991E045E454E0DA0130E020E0ED9195
:1019B000EE23B9F0F0E0EB5DFA4FEC01C20FD31F5C
:1019C000608168832F5F3F4F2830310581F708968B
:1019D000405F5F4F21E0823D920731F7DF91CF9169
:1019E0000895ECE0F1E0E9CFCF93C82F0E947C0B83
:1019F00081E20E94760B80E40E94760B8FE70E94C2
:101A0000760B0E947E0B8C2FCF910C947306CF9394
:101A1000C82F0E947C0B81E20E94760B80E00E941E
:101A2000760B8FE30E94760B0E947E0B8C2FCF915A
:101A30000C94730698E0899F90011124260F311DA4
:101A40008830E8F0683030F0F901EC5FFD4F9081AC
:101A500090689083F901EB5FFD4F97E04191DF01C2
:101A6000119740684C939150C9F79091D3019833E6
:101A700030F4F901E45FFD4F908190689083683005
:101A800048F4F901E45BFD4F90819F6790838833B0
:101A900060F00895F901EC5BFD4F90819F679083A2
:101AA000683378F3883318F00895683030F0F9011E
:101AB000EC5BFD4F808180688083F901EB5BFD4F1B
:101AC00087E09191DF01119790689C938150C9F74D
:101AD000683350F7F901E45BFD4F808180688083B3
:101AE0000895DB01FC0124912C933196E491119629
:101AF000EC931197FC013296E4911296EC931297B5
:101B0000FC013396E4911396EC931397FC01349601
:101B1000E4911496EC931497FC013596E491159694
:101B2000EC9315970696FC01849116968C93089574
:101B3000CF92DF92EF92FF920F931F93CF93DF9399
:101B400087E0E82E05E412E097E0D92ECD2CCE18E0
:101B5000E801F12C8091D2018823A1F1ED2DEF193C
:101B60008E2D28E0829FC0011124E80FF92FF11D6E
:101B7000EE56FE4F2081222351F1822F877090E094
:101B800025FF23C00197D89E9001D99E300D1124C6
:101B9000C90181519D4FBE010E94710D2896F39499
:101BA00088E0F812D7CF005C1F4FEA942FEFE212C3
:101BB000CDCFDF91CF911F910F91FF90EF90DF90EC
:101BC000CF9008958C2DEF2DCCCF0596DCCF8C2DAA
:101BD0008F0D80FDE3CFBE0186EF92E0DDCF98E070
:101BE000899FF0011124E07CF770E40FF11DEB5B9D
:101BF000FD4F982F97702FEF30E001C0220F9A957C
:101C0000EAF79081922B9083E05CFF4F887F885F9A
:101C100070E06F5F7F4F9FEF885F8617170609F0B0
:101C200024F49083E05CFF4FF7CF6770772781E063
:101C300090E001C0880F6A95EAF781509081892B66
:101C400080830895282F277091E001C0990F2A956D
:101C5000EAF728E0829FF0011124E07CF770E60F9C
:101C6000F11DEB5BFD4F461738F08191DF011197B5
:101C7000892B8C936F5FF7CF089598E0899FF001CF
:101C80001124E07CF770E60FF11DEB5BFD4F8770D0
:101C900021E030E001C0220F8A95EAF78081822B93
:101CA00080830895CF92DF92EF92FF920F931F935C
:101CB000CF93DF93D82F062FC42F122FFF24FA942F
:101CC000F20EEE24E394E60E4F2D6E2D0E94220EAE
:101CD0004F2D6E2D8C2F0E94220EDD24DA94DC0E07
:101CE000CC24C394CD0E402F6D2D8C2D0E94EF0D72
:101CF000412F6D2D8C2D0E94EF0D0E5F602F8C2DCE
:101D00000E943D0E1250612F8C2D0E943D0E602FBF
:101D10008D2D0E943D0E612F8D2D0E943D0EDE5FA8
:101D20006E2D8D2F0E943D0E6F2D8D2F0E943D0E2A
:101D3000C2506E2D8C2F0E943D0E6F2D8C2FDF9187
:101D4000CF911F910F91FF90EF90DF90CF900C9467
:101D50003D0EAF92BF92CF92DF92EF92FF920F9320
:101D60001F93CF93DF9338E0439FF0011124E07C71
:101D7000F7702E0F3F2F311D2B5B3D4F4770042F07
:101D8000EFE1F0E0DF01042E01C0AA0F0A94EAF7A8
:101D900058E0541BC52F02C0F595E7955A95E2F718
:101DA0007C01BA2EB0949E2F9095662309F43FC013
:101DB000F70141917F01442309F439C08DEBC82E0E
:101DC00081E0D82E4150F601141634F4A491B0E00D
:101DD0001196CA0EDB1EF6CF7491A22ED901319650
:101DE0008A2F8A19871740F0472F50E04F5F5F4FC7
:101DF000240F351F6150D9CF449150E08C918B2135
:101E00006A01002E01C0CC0C0A94EAF78C298D934C
:101E1000DF968C91DF9789230C2E02C0559547954C
:101E20000A94E2F7482BDF964C93DF97D8CFDF91E7
:101E3000CF911F910F91FF90EF90DF90CF90BF90C7
:101E4000AF900895CF93DF93CDB7DEB760970FB60D
:101E5000F894DEBF0FBECDBF613108F060E1FC0138
:101E6000CE010196DC0134913D9331963A2F381B17
:101E70003617C8F30E94A90E60960FB6F894DEBF1D
:101E80000FBECDBFDF91CF910895DF92EF92FF9209
:101E90000F931F93CF93DF9300D000D0CDB7DEB761
:101EA000F82E162F4CE0460F2EE360E0812F0E94A3
:101EB000520E8091DD019091DE010D9721F180910C
:101EC0009101F81220C032E0D32ED10E03E04AE097
:101ED000E42EE10E602F8D2D0E943D0E602F8E2D81
:101EE0000E943D0E0E5F0D33A9F703E0E02EE10ED8
:101EF00062E08E2D0E943D0E6CE38E2D0E943D0E01
:101F00000E5F0B3099F78F2D90E026E09595879521
:101F10002A95E1F7FC01E852FE4F00811C5F002387
:101F200061F181579E4FFC018081845E8C8324E0A7
:101F3000412F61E0CE0104960E94A90E8AE28983B6
:101F40008EE28A83025F0B832BE0412F63E0CE0198
:101F500001960E94A90E8091DD019091DE01089703
:101F600099F40F900F900F900F90DF91CF911F91E8
:101F70000F91FF90EF90DF90089524E0412F65E0EE
:101F800084E992E00E94220F81EE92E0F5FC02C00B
:101F90008CED92E023E2412F65E00E94220FE1CF19
:101FA000DC019C91992319F1EDEBF1E0915098F44B
:101FB0001196952F6150D9F08D918823C1F0EDEBEA
:101FC000F1E0815080F04491242F30E02F5F3F4FAB
:101FD000E20FF31FF6CF5491252F30E02F5F3F4FD4
:101FE000E20FF31FE3CF81E0840F980FE3CF892F37
:101FF00008955F926F927F928F929F92AF92BF925D
:10200000CF92DF92EF92FF920F931F93CF93DF93C4
:1020100000D0CDB7DEB71091D20160E0111101C040
:1020200062E380912B010E94450F62E3111101C010
:1020300060E080912C010E94450F00918E01E0909C
:10204000DD01F090DE01063008F04CC046E050E0C3
:10205000401B5109842F880F880F142F181B110F54
:10206000145D25E0D22E3EE0C32E48E1742E52E3EB
:10207000652E60E4562E1E30E8F1DC9C50011124E0
:10208000C501865C9E4F4C0167E00E94D00F86958B
:102090008F3008F08EE0272D281B412F67E0C40108
:1020A0000E94A90EC5018F5B9E4F5C0167E00E94F4
:1020B000D00F482F50E09A012F5F3F4F359527955D
:1020C000962D921B292F490F511D4134510514F0B3
:1020D000252D281B412F67E0C5010E94A90E16502F
:1020E000DA94C9CF16E28DE0E816F10409F4B9CF0D
:1020F0001CE2B7CF8DE0E816F104E9F410912E014F
:10210000163041F420E04CE269E082EC92E00E945B
:10211000220F11C0123078F020E04CE265E08DEB28
:1021200092E00E94220F133009F45CC008F049C00D
:10213000123009F451C0002391F1802F6AE00E940F
:10214000232D925F9A83825F8983063008F056C000
:1021500046E050E0401B5109842F880F880F142F50
:10216000181B110F145D07E189818E3009F04EC0F4
:102170008A818E30A1F024E0412F61E0CE010296E9
:102180000E94A90E8A818E3009F049C00A83898194
:102190008E3009F041C0098316501E3028F70F9089
:1021A0000F90DF91CF911F910F91FF90EF90DF90F3
:1021B000CF90BF90AF909F908F907F906F905F90E7
:1021C00008951430A9F0153009F0B5CF26E14CE29E
:1021D00069E08AE992E09BCF26E14CE268E085EB7A
:1021E00092E095CF26E14CE26AE08BEA92E08FCF55
:1021F00026E14CE268E083EA92E089CF1CE29DE0B0
:10220000E916F10409F0AFCF16E2ADCF20E0412F7F
:1022100062E0CE010196B4CF81508983BDCF815059
:102220008A83BACF28E045E452E0DA01BC01605C61
:102230007F4FFC0134913D933196E617F707D1F7B4
:10224000405C5F4F215080589F4F2111EECF089581
:10225000DC012D913C9111971296EC91E20FF32F36
:10226000F11DED50FF4F80810895AF92BF92CF9244
:10227000DF92EF92FF920F931F93CF93DF9300D0E3
:102280001F92CDB7DEB7E0E6C82ECE26AC2DB0E06B
:10229000AA57BA4F9C91911130C08B01E82E282F7C
:1022A00030E0F901EA57FA4FF080F11018C0609160
:1022B000F4078091E6050E94800BF80191838083EA
:1022C00081E00F900F900F90DF91CF911F910F91B0
:1022D000FF90EF90DF90CF90BF90AF90089592E085
:1022E000980F8AE08E0D891751F0E92FF0E0EA5738
:1022F000FA4F40819F5F47FDF6CF80E0E2CFF3E0E9
:10230000FF15A8F694E0F916C1F3295C3A4FF901DC
:102310009081D12C891749F0E82FF0E0EA57FA4F65
:10232000208127FFD3948F5FF5CF85E494E09A83D3
:102330008983EB82CE0101960E9428119B81905ED9
:10234000A0E09817E9F0282F30E0F901EA57FA4F9A
:10235000408147FD13C02B5D3A4FF9012081277062
:10236000243061F4242F22952F70242720FBAA24E7
:10237000A0F8B12C95012F5F3F4FA22B8F5FE1CFCB
:10238000F6E0FF1204C082E0D81609F490CFE3947F
:10239000EE2DF0E0EA57FA4F9081C394EC2DF0E077
:1023A000EA57FA4F2081622F70E044E075956795F7
:1023B0004A95E1F72770492F50E0E4E0559547959D
:1023C000EA95E1F7461B570B57FF03C0519541951E
:1023D00051099770E92FE21BFF0BCF01F7FF03C0F4
:1023E000919581959109480FF6E0FF1223C081E095
:1023F000D81220C0A0FD18C08EE0821B260F861BBD
:10240000281708F4822F94E0F99E90011124820F7E
:10241000932F911D880F991F841B910934E0880F19
:10242000991F3A95E1F749CF862F821B295F261B1A
:10243000895FE6CF362F330F87E090E0831B910949
:1024400097FF03C0919581959109220F67E070E095
:10245000621B710977FF03C0719561957109860F41
:10246000D2CF635070E09B0143E0220F331F4A95A7
:10247000E1F7287056E0660F771F5A95E1F760780C
:10248000622BFC0120812777622B608308950F93D4
:102490001F93CF93DF9300D0CDB7DEB7FC017A83D3
:1024A00069839A81892F877782958F70841759F075
:1024B000CF010296718360830F900F90DF91CF91CF
:1024C0001F910F9108958F0190689A836091270161
:1024D000CE0101960E943112FC0180819181F801A8
:1024E0009183808360912901CE0101960E9431126F
:1024F000FC0180819181F8019383828360912A019C
:10250000CE0101960E943112FC0180819181F80177
:102510009583848360912801CE0101960E94311237
:10252000FC01C801089620813181F8013783268398
:10253000C3CFDC01EC91F0E0E15DF64F8491E62F32
:10254000660FFF0BE955F74FE491E82381E009F4AA
:1025500080E00895FC0180818770843018F097E056
:10256000981B892F0895CF93FC01208130E044E02F
:10257000359527954A95E1F7C7E0C21B611101C067
:10258000C22FCC0FCC0F0E94AA128C0FCF910895AE
:102590002F923F924F925F926F927F928F929F9273
:1025A000AF92BF92CF92DF92EF92FF920F931F9361
:1025B000CF93DF93CDB7DEB764970FB6F894DEBF45
:1025C0000FBECDBFC82E81E06C2C6826A0E4DA2EA9
:1025D00080E0CC2019F0F0E2DF2E87E0FE0131969A
:1025E0005E012BE0A20EB11C4F018193EA15FB05A1
:1025F000E1F780E65D2C582642E0450D5AE0550D86
:10260000E12C541709F1E42FF0E0EA57FA4F8081EA
:1026100087FD18C0E394282F30E0E4E03595279536
:10262000EA95E1F7877090E00196F401E80FF91F51
:102630008081CC2021F0821720F4282F02C0281797
:10264000E0F320834F5FDDCF30ED3D0D388B62E04E
:10265000762E7D0C7AE0372E3D0C10E000E08EEFF8
:10266000482E4D18371409F48AC0E72DF0E0EA57D8
:10267000FA4FF080FB86F7FC53C0E394662DC5014A
:102680000E94B312E82FF0E0EE0FFF1FE254F64F66
:1026900085919491080F191FC5010E94AA12EF2D70
:1026A0006889E61BAFEFAE0FB0E0AB5BBB4F9C9110
:1026B000940D983048F0EF5FF0E0EB5BFB4F9081BA
:1026C000940D40E0983058F4E82FF0E0EE0FFF1F33
:1026D000E25CF44F25913491020F131F41E09F2DCE
:1026E00092959F702F2D277030E0F401E20FF31FB9
:1026F0005081C11017C0951798F0E2E0F0E0EC0FA0
:10270000FD1FE20FF31F5081951750F0E3E0F0E05A
:10271000EC0FFD1F2E0F3F1FF90120819217B8F417
:102720007394A0CF5917E0F3E2E0F0E0EC0FFD1F47
:10273000E20FF31F5081591798F363E070E06C0FBC
:102740007D1F260F371FF9012081291748F3E82F35
:10275000F0E0E053FF4FCF01880F991FFC01E254D6
:10276000F64F25913491020F131F4423C9F2FC0147
:10277000EA53F64F85919491080F191FD1CFFEE0CF
:10278000FE1510F42FE0E22EED2DF0E0E95CFA4F9B
:1027900020812C8BF12C3CEEE30EF11CEE0CFF1C87
:1027A000B7016254764F1B01198A8EEF482E4D18DF
:1027B00098EB892E9BE0992E7C89771609F448C006
:1027C000E72DF0E0EA57FA4FC080CB86C7FC3EC049
:1027D000662DC5010E94B312E82FF0E0EE0FFF1F37
:1027E000E250F64F85919491080F191F8889C81AF5
:1027F000EFEFEC0DF0E0EB5BFB4F8081840D883058
:1028000048F0C394EC2DF0E0EB5BFB4F8081840D2E
:10281000883068F4C5010E94AA12E82FF0E0EE0F9C
:10282000FF1FEA5BF44F85919491080F191FF10186
:1028300085919491080F191F9989992329F0F40122
:1028400085919491080F191FE1E0E98B7394B4CF3F
:10285000E1E0E50DF0E0EA57FA4F408085E494E0CE
:102860009C878B87DD86C5010E942811C82E8D8527
:10287000805E888B97012256364F1901812C712C6E
:102880007AEBA72E7BE0B72E38893C1509F491C06E
:102890008C2D90E0BC016B5B7B4F7B01FB01EF5B00
:1028A000FE4F90809F8697FC75C0662DCE010F96D7
:1028B0000E94B312F701E052FF4FE081E770EE870C
:1028C000E450EE2EF12CF70155E0EE0FFF1F5A9564
:1028D000E1F7E05CFF4FE80FF11DEE0FFF1FE25440
:1028E000F64F85919491080F191F642D6919CE0137
:1028F0000E960E949912882349F0F701EE0FFF1FF0
:10290000E259F44F85919491080F191F8E85982FE5
:10291000937009F441C0853061F4F101859194917F
:10292000080F191F772059F1F50185919491080F2F
:10293000191F892D8F708F8728E0FF24F3949F85BE
:10294000E92FF0E0EB5BFB4F80818250382F3D197F
:10295000383000F18519883008F4F12C905F9F879A
:10296000215069F7CE010F960E94AA12E82FF0E0DD
:10297000F11008C0EE0FFF1FEA5AF44F07C077248A
:102980007394D7CFEE0FFF1FE25BF44F85919491C4
:10299000080F191FC39478CF892D82958F709826C0
:1029A000792D71707A8B1B8A8A899B890196882A76
:1029B000F1CF83E0881206C0E4E7FBE085919491B3
:1029C000080F191FE1E0ED0DF0E0EA57FA4FF08033
:1029D000FE86662DCE010E960E94B312E82FF0E01F
:1029E000EE0FFF1FE250F54F85919491080F191FCC
:1029F000E6EBF9E04EEB59E090E034918F2D830F38
:102A0000A82FB0E0AB5BBB4F2C912D2111F49F5F41
:102A1000F6CF31964E175F0781F79C3008F09CE0A7
:102A2000E92FF0E0EE0FFF1FE454F44F85919491ED
:102A3000800F911F64960FB6F894DEBF0FBECDBF16
:102A4000DF91CF911F910F91FF90EF90DF90CF908A
:102A5000BF90AF909F908F907F906F905F904F90BE
:102A60003F902F9008950F931F93CF93DF9300D043
:102A7000CDB7DEB78091E9079091EA070196909370
:102A8000EA078093E907BE016F5F7F4F8091E707F8
:102A90000E943511811128C09091E707BE016F5F38
:102AA0007F4F80E689270E943511811116C081E091
:102AB0000E94C8128C0180E00E94C8129801281B55
:102AC000390BC901E6EBFBE02091E70725FF15C0B4
:102AD00025913491820F931F05C089819A81919528
:102AE000819591099A83898389819A810F900F90AA
:102AF000DF91CF911F910F91089525913491281B5B
:102B0000390B3A832983F0CFDC01EC910E2E000CB7
:102B1000FF0BEB5BFE4F84910895DF92EF92FF92E3
:102B20000F931F93CF93DF93CDB7DEB72A970FB6DE
:102B3000F894DEBF0FBECDBFF82E8091E70720E6E8
:102B40002827E0EDEF0DE20FAFEFAE0FB0E0AB5B8B
:102B5000BB4F1C919EEF981B312F390F383088F5F1
:102B600080E2821B8295869587709F2D92959F703B
:102B7000891709F4FDC080E01123A9F0EF2DF0E0E2
:102B8000EB5BFB4FE081F0E0EB5DFA4FE081E7703B
:102B9000F0E0E95CF64F0491080F8091E6058C3077
:102BA00009F0E8C0802F2A960FB6F894DEBF0FBE5A
:102BB000CDBFDF91CF911F910F91FF90EF90DF90EC
:102BC0000895EF5FF0E0EB5BFB4F1081910F9830C1
:102BD00038F21AE0180FE82FF0E0E95CFA4F0081B4
:102BE000101789F0E12FF0E0EA57FA4F808187FD56
:102BF00008C06F2D681B89E291E00E949912811133
:102C0000BACF1F5FEDCF8091E70725E434E03A8328
:102C100029838B83CE0101960E942811182F8B8166
:102C200030E2E32EE80EE11651F1812F90E0FC0135
:102C3000EA57FA4F008107FD20C08B5D9A4FFC01D7
:102C4000808187708430C9F4DF2CD01A6D2D88E222
:102C500091E00E949912882381F0DC82CE010496D3
:102C60000E948415080FE02FF0E0EB5BFB4F908192
:102C70009923C1F30F1509F47ECF1F5FD4CF809144
:102C8000E70725E434E03D832C838E83CE01049650
:102C90000E942811182F8E8120E2E22EE80EE11604
:102CA00051F1812F90E0FC01EA57FA4F008107FDB6
:102CB00020C08B5D9A4FFC01808187708530C9F4FC
:102CC000DF2CD01A6D2D8AE291E00E9499128823A0
:102CD00081F0DF82CE0107960E948415080FE02F55
:102CE000F0E0EB5BFB4F90819923C1F30F1509F4E2
:102CF00042CF1F5FD4CF8091E70725E434E03887C7
:102D00002F838987CE0107960E942811182F898565
:102D100090E2E92EE80EE11609F441C0812F90E01F
:102D2000FC01EA57FA4F008107FD20C08B5D9A4FE6
:102D3000FC01808187708630C9F4DF2CD01A6D2D9C
:102D400087E291E00E949912882381F0DA86CE0111
:102D50000A960E948415080FE02FF0E0EB5BFB4F12
:102D600090819923C1F30F1509F405CF1F5FD3CFCD
:102D700080E202CFA12FB0E0AA57BA4F1C91812F59
:102D80009F2D0E94990B8F2D0E948D15E82E812F6B
:102D90009F2D0E94D307802F8E1987FF04CF80E0DC
:102DA00002CFCF93DF930E943315EC01E091E6054B
:102DB00085E0E89FF0011124E252FB4F82818823D5
:102DC00049F0818187770E948D1599E18902C00DB4
:102DD000D11D1124CE01DF91CF9108952F923F9202
:102DE0004F925F926F927F928F929F92AF92BF921B
:102DF000CF92DF92EF92FF920F931F93CF93DF93C7
:102E000000D000D01F92CDB7DEB78C016C01DC0181
:102E1000612C412C6616F9F011968C91119787FD63
:102E200008C0E82FE777F0E0EB5BFB4F9081992338
:102E300079F0E42DF0E0EE0FFF1FE00FF11F9C9101
:102E40002081318111963C932E939083818343940A
:102E500063941296DFCF2EE1241510F47FE1472E04
:102E600067E8262E65E0362E78015101712C741426
:102E700009F43CC0D7018D909C9011971196BC919C
:102E8000BB83B7FF23C0F70180810E948B0BE82F23
:102E9000F0E0E95CF64FE4915CEF552E5E0E809118
:102EA000E6058C3059F0C4010E94990B8B8187771D
:102EB0000E948D15581AC4010E94D307D5015D9256
:102EC0005D017394B2E0EB0EF11CD1CFEB81E7779B
:102ED000F0E0EB5BFB4FE081F0E0EB5DFA4FE0816F
:102EE000E770F0E0E95CF64F5490D9CF672DC80148
:102EF0000E941A0627E835E0962C90E080E0B12C7D
:102F00004DEB5EEFFA01E554F4407F01B714D8F5BC
:102F1000D9014D919D0147FF33C0962C9718D801D8
:102F2000A80FB91FF701E20FF31FE90DF11DEE0F16
:102F3000FF1FAF01400F511F5D834C83AB2CBC01C1
:102F4000615071098C9011965C901197EC81FD8114
:102F500041915191FD83EC834D935D93AF014250BC
:102F60005109FA0180824C815D81481B590B460F43
:102F7000571FFA015082A3947A10E4CF9B0C7B2C4C
:102F8000B3940296C3CF711064C0FEE1792CF91599
:102F900010F42FE1722E812C871409F456C0609032
:102FA000E70766FA662460F8D601EC91E777EA83D2
:102FB000F0E0EB5BFB4FE081F0E0EB5DFA4FA080CF
:102FC000BA2DB770AB2EAA94AA94E5E0EA1508F4DE
:102FD000A12CD60111968C9187778983662DCE011D
:102FE00001960E94B312B0E2AB9E50011124F5018C
:102FF000E80FF11DEE0FFF1FE254F64FE590F4903D
:10300000662DCE0102960E94B312F501E80FF11D64
:10301000EE0FFF1FE254F64F85919491F701E81BE4
:10302000F90BCF018138FFEF9F0714F481E89FEF80
:103030008038910514F08FE790E0D1018D931D0148
:103040008394B2E0CB0ED11CA7CF682DC8010E949B
:103050001A06892D0F900F900F900F900F90DF910F
:10306000CF911F910F91FF90EF90DF90CF90BF9085
:10307000AF909F908F907F906F905F904F903F9018
:103080002F9008959F92AF92BF92CF92DF92EF92CE
:10309000FF920F931F93CF93DF9300D000D01F9226
:1030A000CDB7DEB7A0E3A60FA81B9EEF981B2FEFAE
:1030B0002A0FE22FF0E0EB5BFB4F2081290F283035
:1030C00008F48CC0AF5FB0E0AB5BBB4F2C91920FAC
:1030D000983008F483C0062F182F2AE0E22EE80E5D
:1030E000E82FF0E0E95CFA4FD080ED1489F0EE2D86
:1030F000F0E0EA57FA4F608167FD08C0601B89E283
:1031000091E00E949912F82E811146C0E394EDCF10
:10311000802F90E09C012B5B3B4F6901F90190806F
:1031200080E6808385E494E09A8389831B83CE01C3
:1031300001960E942811B82E8B8190E2A92EA80E2C
:10314000AB14E1F18B2D90E0FC01EA57FA4FE080DF
:10315000E7FE02C0B394F4CF8B5D9A4FFC018081EF
:10316000602F6E196D8387708C83CE0104960E9448
:103170009912F82E882371F3CE0105960E948415CA
:10318000E80EEE2DF0E0EB5BFB4F90819923C1F34D
:103190000E11E0CFF60190828F2D0F900F900F90BF
:1031A0000F900F90DF91CF911F910F91FF90EF90B3
:1031B000DF90CF90BF90AF909F900895F6019082DE
:1031C0001F5FE12FF0E0EA57FA4F8081602F681B04
:1031D00086E291E00E949912F82EDECFFF24F3944C
:1031E000DBCF2F923F924F925F926F927F928F929E
:1031F0009F92AF92BF92CF92DF92EF92FF920F9386
:103200001F93CF93DF93CDB7DEB7AC970FB6F8948B
:10321000DEBF0FBECDBF1C01F090E70780E65F2C3C
:10322000582610ED612E6F0C80E28F1990E09C0102
:1032300005E0359527950A95E1F73CA32BA34BA014
:1032400086E028272BA731E03F0D3DA3832F90E098
:10325000AC014A575A4F5FA34EA3DA01EC9010928B
:10326000E80785E494E09A8F898F5B8ECE014996BA
:103270000E942811982E8B8D805E8CA78101DD2401
:10328000DA94C12CBCA5B91509F4CEC0892D90E003
:10329000FC01EA57FA4FA080A7FC2EC08B5D9A4F25
:1032A000DC01EC91E7709A2D9E199F8FF0E0E15DB3
:1032B000F64F8491E92F990FFF0BE955F74FE491F1
:1032C000E823E370C9F0CE014F960E948415782E52
:1032D000BE2CB70CEB2DF0E0F9A7E8A7EB5BFB4F9A
:1032E00090819923B1F3AB1009C08091E8078E5FFC
:1032F0008093E8077AA6DA2C9394C4CF492F50E044
:10330000FA01EB5DFA4F8081282F20762F11F4CF40
:10331000F7E0073D1F0708F0C3C38B2C870CE82D8F
:10332000F0E0EB5BFB4F20812223C1F3A810E4CF38
:103330002C2D30E0EDE0F0E0EC0FFD1FE20FF31F6D
:10334000B0824A575A4FEFEFDA01EC93C39441E051
:1033500050E04C0F5D1F240F351FD9019C938770DF
:10336000833008F043C0A62CAB0C872D877041F545
:10337000EA2DF0E0EB5BFB4F80818111BDCF442D46
:103380006B2D7A2DC8010E9447128C01A60CEA2DE4
:10339000F0E0EB5BFB4F80818111AECF88A599A552
:1033A000B4E095958795BA95E1F7BBA5B813A4CF7E
:1033B0008B2D8860F8018083A1820E5F1F4F9CCF08
:1033C0008FEF8A0D881207C0442D6B2D782DC80110
:1033D0000E9447128C01A3948A108ECF442D6B2D2E
:1033E000782DC8010E9447128C0186CF8C8F6F8D7B
:1033F000CE014C960E949912882309F47DCFD80102
:103400009B2D970DFD013296BC9211969C93DF0186
:103410008912F7CF8B2D8F018719E81609F46CCF2D
:10342000B08281833296F7CFE091E60525E0E29FF6
:10343000F0011124E252FB4F81818777B82E9E2D37
:10344000981BE82FF0E0EB5BFB4FE081F0E0EB5DD9
:10345000FA4FE081E770F0E0E15DF64F8491E92FEB
:10346000092E000CFF0BE955F74FE491E823EC7FA0
:1034700069F08091E8078F5F8093E80791959C8FB2
:10348000CE014C960E9484158AA7DB2C8091E80718
:10349000882309F46FC0833008F092C2E091E605FA
:1034A00035E0E39FF0011124E252FB4F81818777E1
:1034B00081018D1509F4C7C08091E80780FF69C1BB
:1034C000BD2CB6186FEF6B0DE62FF0E0EB5BFB4FFA
:1034D000E0818EEFE82EEF188E2F8E0D883060F48D
:1034E000F0E0EA57FA4F808187FD06C04BA17D2DA1
:1034F000C8010E9447128C0161E06B0DE62FF0E0DD
:10350000EB5BFB4FE0818E2F8E0D883060F4F0E096
:10351000EA57FA4F808187FD06C04BA17D2DC80177
:103520000E9447128C01F7E0073D1F0708F0B8C260
:10353000EAE0EE2EEF0CEF2DF0E0E95CFA4FA08010
:10354000AE1409F4E2C0EE2DF0E0EA57FA4FB08075
:10355000B7FC0EC06D2D6B1989E291E00E949912A3
:10356000882331F0D801BC921196DC920E5F1F4F78
:10357000E394E6CF47E0073D140708F091C2E091DD
:10358000E60555E0E59FF0011124E252FB4FA380D0
:103590008F2D8295869587708A2171F16FEF6E0D60
:1035A000E62FF0E0EB5BFB4F8081811125C0AEEF91
:1035B000BA2EBE0CEB2DF0E0EB5BFB4F808181114E
:1035C0001BC0EDEFEE0DF0E0EB5BFB4F8081811156
:1035D00013C0852D0E94421881110EC06B2D852DC0
:1035E0000E944218811108C0D801EC928B2D88608E
:1035F00011968C930E5F1F4FAF2029F161E06E0D85
:10360000E62FF0E0EB5BFB4F808181111CC0F2E004
:10361000BF2EBE0CEB2DF0E0EB5BFB4F80818111E8
:1036200012C0852D0E94421881110DC06B2D852D71
:103630000E944218811107C0F801E0828B2D88603A
:1036400081830E5F1F4FF7E0073D1F0708F028C278
:10365000E091E60525E0E29FF0011124E252FB4FE4
:10366000808183FF29CF81818777B82E8091E807F9
:10367000882311F0DB1020CF88248A948B0CE82D4E
:10368000F0E0EB5BFB4FE0818EEFA82EAF188E2FA2
:103690008A0D8830B8F4F0E0EA57FA4F808187FD50
:1036A00011C04B2D682D8E2D0E94B40881110AC0C7
:1036B000882D8068D8018C93862D8B0D11968C9364
:1036C0000E5F1F4F882483948B0CE82DF0E0EB5B9A
:1036D000FB4FE0818E2F8A0D883008F0EDCEF0E0B0
:1036E000EA57FA4F808187FDE7CE482D6B2D8E2D4E
:1036F0000E94B4088111E0CE882D8068F801808393
:10370000B60CB1820E5F1F4FD7CEB7E0073D1B0747
:1037100008F0C6C185E494E09D8F8C8FFE8ECE01AB
:103720004C960E942811E82E8E8D70E2A72EA80ECE
:10373000AE1409F446C18E2D90E0FC01EA57FA4F11
:10374000B080B7FC24C08B5D9A4FFC0180816D2D49
:103750006B196AA387708F8FCE014F960E949912C2
:103760008823A9F0CE0182960E9484159B2D980F84
:10377000E92FF0E0EB5BFB4F20812223C1F3D9124C
:1037800006C0D801BC921196DC920E5F1F4FE394E5
:10379000CFCFB7E00F3A1B0708F082C152E0A52E49
:1037A000AF0C6AE0762E7F0C7A1409F44FC0EA2D34
:1037B000F0E0EA57FA4FB080B7FC46C0862C8B0C7D
:1037C0007FEF780DE72FF0E0EB5BFB4F8081807699
:1037D000581206C0442D6B2DC8010E9447128C015F
:1037E00071E0780DE72FF0E0EB5BFB4F8081807696
:1037F000581206C0442D6B2DC8010E9447128C013F
:10380000E82DF0E0EB5BFB4F808181111DC0442D62
:103810006B2D782DC8010E9447128C01860CE82D73
:10382000F0E0EB5BFB4F808181110EC08B2D829508
:103830008F70EBA58E1308C08B2D8860D8018C93F8
:1038400011968C920E5F1F4FA394AECFEF2DF0E038
:10385000E95CFA4F40812FE239E04A1519F1EA2D6F
:10386000F0E0EA57FA4F908197FD1AC0B7E0073DA4
:103870001B0708F015C1E7E2F9E08491890FA82F32
:10388000B0E0AB5BBB4F5C915F2131F4D8019C93FE
:1038900011968C930E5F1F4F31962E173F0769F7D5
:1038A000A394DBCF85E494E098A38F8FF9A2CE0197
:1038B0004F960E94281169A1605E23E239E047E239
:1038C00059E0681709F451C0E82FF0E0DF01AA576A
:1038D000BA4F9C9197FD47C0B7E00F3A1B0708F01D
:1038E000DFC0EB5DFA4F7081E72FE370E9F0E3E2B0
:1038F000F9E0A4903801B92E8301BA0CAB2DB0E0E9
:10390000AB5BBB4F8C90A82DAF2151F4A2E06A0EA7
:10391000711CD8019C931196BC92882069F3830195
:1039200031964E175F0729F770FD1DC0EFE1F9E0F2
:10393000B4904801792F84017B0DA72FB0E0AB5BD9
:10394000BB4FAC90AA2DAF2151F4B2E08B0E911C6D
:10395000D8019C9311967C93AA2069F38401319637
:103960002E173F0729F78F5FACCF8091E807882398
:1039700041F15101A016B10620F5F501818187774B
:10398000882E8E198C8FCE014C960E948415FAA534
:103990008F1779F0F80192918291D5018D939C93C4
:1039A00095012250310959018F0132E0A30EB11C5B
:1039B000E1CF9E2D980F8916C1F3D912FBCFEACF24
:1039C000810147ED241647E0340608F069C0AEA136
:1039D000BFA1DC90AD2CB12CF501EB5BFB4F10824D
:1039E00036EB832E39E0932E4EEB642E49E0742E95
:1039F000F401E490ED0CEE2DF0E0EB5BFB4F8081E9
:103A00008F2161F46E2D852D0E944218811106C010
:103A1000D801DC921196EC920E5F1F4FBFEF8B1A0C
:103A20009B0A6814790421F7F501EB5BFB4F2DA18C
:103A30002083CC20B9F0CA948C2D90E0E1E0F0E036
:103A4000EC0FFD1FE80FF91FE081F0E0EA57FA4F95
:103A50004DE050E04C0F5D1F840F951FDC018C91F1
:103A60008083E7CFC8018219930995958795AC9615
:103A70000FB6F894DEBF0FBECDBFDF91CF911F917F
:103A80000F91FF90EF90DF90CF90BF90AF909F90FD
:103A90008F907F906F905F904F903F902F90089500
:103AA000CC20B9F0CA948C2D90E0E1E0F0E0EC0F6E
:103AB000FD1FE80FF91FE081F0E0EA57FA4F2DE013
:103AC00030E02C0F3D1F820F931FDC018C9180830F
:103AD000E7CF8FEFCCCFCF9387EE95E00E94F11820
:103AE000C82FE091E60585E0E89FF0011124E2523D
:103AF000FB4F84818436B8F40E94C807811115C039
:103B00000E948206823098F49091E807CC2331F02D
:103B100081E0911101C080E0CF91089586E091117C
:103B2000FBCF85E0F9CF82E0F7CF84E0F5CF83E0EB
:103B3000F3CFCF93C091E707C09391010E946B1D13
:103B400080932E01823040F08DE090E09093DE0172
:103B50008093DD01CF9108952C2F30E056E035950C
:103B600027955A95E1F7F901E852FE4F80818823A5
:103B700061F141E050E0222311F050E040E0485272
:103B80005E4FFA019081911105C0C5FBCC27C0F9A9
:103B9000C093D20198E09093F00790E0880F991FAE
:103BA000079641E050E002C0440F551F8A95E2F7A6
:103BB0005093EC074093EB072A523E4FF901808166
:103BC0008093F40788E090E0C1CFC6FBCC27C0F912
:103BD000C093D20184E090E0B9CF5F926F927F9260
:103BE0008F929F92AF92BF92CF92DF92EF92FF920D
:103BF0000F931F93CF93DF938C017B016A01622E99
:103C00000E94F118782E8FEF781211C0DF91CF91BA
:103C10001F910F91FF90EF90DF90CF90BF90AF90EA
:103C20009F908F907F906F905F900C94D116711041
:103C30002DC08091E8078823A1F0C62DD0E0DD5784
:103C4000CE01DF91CF911F910F91FF90EF90DF9008
:103C5000CF90BF90AF909F908F907F906F905F902C
:103C600008956091F4078091E605DF91CF911F914F
:103C70000F91FF90EF90DF90CF90BF90AF909F900B
:103C80008F907F906F905F900C94800B0E94331503
:103C90008C159D050CF079C0EC018E159F050CF478
:103CA000E70190E0E92FF0E0EE0FFF1FE00FF11FBA
:103CB0008181A82FA777B0E0AB5BBB4F2C9121117E
:103CC00011C087FD0FC0808187FD0CC07A94915090
:103CD000A72DB0E0AA0FBB1FA00FB11F2D913C91E3
:103CE000318320839F5F9715E8F2672DC8010E94FA
:103CF000EE16E72CF12CEE0CFF1CE00EF11E512C01
:103D0000A12C93E8B92E6394882499248C189D08DB
:103D1000571409F495CFF801808191810E94990B85
:103D20008091E6058C30C9F40E94331591958195F8
:103D30009109A816B9060CF45C01F8018081918103
:103D40000E94D307CA15DB050CF4E5010E5F1F4F77
:103D5000CC15DD05D4F45394DBCF2091E9073091E5
:103D6000EA078091EB079091EC078217930750F0D8
:103D7000442755274C1B5D0B262DB401C7010E941B
:103D8000ED1DD4CF90E080E0D1CFE60159CF3F9236
:103D90004F925F926F927F928F929F92AF92BF925B
:103DA000CF92DF92EF92FF920F931F93CF93DF9307
:103DB000EC016B015A01422E502E1091E60585E070
:103DC000189FF0011124E252FB4F84818436B0F039
:103DD0006091F407812FDF91CF911F910F91FF9098
:103DE000EF90DF90CF90BF90AF909F908F907F909B
:103DF0006F905F904F903F900C94800B0E94C8078B
:103E00008111E6CF0E948206823028F06091F4078B
:103E10008091E605E0CF2091E9073091EA07809193
:103E2000EB079091EC078217930708F4A0C04016A7
:103E300070F18091E6058C3099F4DF91CF911F915C
:103E40000F91FF90EF90DF90CF90BF90AF909F9039
:103E50008F907F906F905F904F903F900C943315B0
:103E6000242DA501B601CE01DF91CF911F910F91B5
:103E7000FF90EF90DF90CF90BF90AF909F908F908A
:103E80007F906F905F904F903F900C94ED1DCE010E
:103E90000E94F118182F8F3F99F4DF91CF911F9155
:103EA0000F91FF90EF90DF90CF90BF90AF909F90D9
:103EB0008F907F906F905F904F903F900C94D116B1
:103EC00081111CC08091E807882309F49FCF642CDE
:103ED000712C8DE7781AC301DF91CF911F910F915B
:103EE000FF90EF90DF90CF90BF90AF909F908F901A
:103EF0007F906F905F904F903F900895682FCE0114
:103F00000E94EE16E12EF12CEE0CFF1CEC0EFD1EB5
:103F1000612C93E8792E312C4394882499248A18B3
:103F20009B08888199810E94990B442755274C1939
:103F30005D09052D242DB401C7010E94C71E91956E
:103F400081959109681679060CF43C018881998164
:103F50000E94D307C614D7040CF46301CA14DB040F
:103F60000CF0B9CF339422961311DBCFB4CF712C60
:103F7000612CB1CF1F920F920FB60F9211248F9325
:103F80009F938091E1009091E100937F9093E100F5
:103F900083FF0FC01092E90091E09093EB00109224
:103FA000EC0092E39093ED001092440298E090931D
:103FB000F00082FF22C093E09093E9009091F2001C
:103FC000992319F09AE39093E8009091E5019923E1
:103FD00041F09091E50191509093E501911101C05C
:103FE0005D9A90914302992341F090914302915040
:103FF00090934302911101C0289A84FF18C08091C8
:10400000E2008E7E81608093E2008091E1008F7EED
:104010008093E1008091E6018E7E80618093E601CD
:104020009F918F910F900FBE0F901F90189580FF5A
:10403000F7CF8091E2008E7E80618093E2008091D4
:10404000E1008E7E8093E1008091E6018E7E8160AA
:10405000E5CF1F920F920FB60F921124CF92DF92ED
:10406000EF92FF920F931F932F933F934F935F9382
:104070006F937F938F939F93AF93BF93EF93FF9330
:10408000CF93DF93CDB7DEB76C97DEBFCDBF109275
:10409000E9008091E80083FF25C068E0CE014596E5
:1040A0000E947E0A82EF8093E8008D8987FF39C0E5
:1040B0009091E80090FFFCCF982F907609F034C1E2
:1040C0009E894F89588D2F89F88C911131C0803885
:1040D00061F58091E4018093F1001092F1008EEF80
:1040E0008093E8006C960FB6F894DEBF0FBECDBF8C
:1040F000DF91CF91FF91EF91BF91AF919F918F9100
:104100007F916F915F914F913F912F911F910F91EF
:10411000FF90EF90DF90CF900F900FBE0F901F9009
:1041200018959EEF9093E800C7CF1092F100D5CF7D
:10413000913059F48111D3CF4130510581F68091EE
:10414000E4018D7F8093E401CACF933049F481115B
:10415000C6CF4130510519F68091E4018260F2CF5B
:10416000953041F48091E80080FFFCCF20682093D7
:10417000E300B5CF963009F0A9C00B8D1C8D22E06D
:104180001092E9001092E2011092E101F2122EC0A9
:104190001092E0011092DF010E944D0A1F8299E007
:1041A0009983FA8291E09E8390EA98879AEF9987A3
:1041B0002091E1013091E201275F3F4F3C832B8347
:1041C0008D831092E9001092E2011092E1011093A8
:1041D000E0010093DF0149E050E0BE016F5F7F4FD7
:1041E00080E00E94270A0E944D0A79CF1093E001D7
:1041F0000093DF010E943109DC0112960D911C91A0
:104200000115110509F451C1D801ED91FC9104800B
:10421000F581E02DBE016B5E7F4FC80109950097C7
:1042200009F03EC1F80100851185EACFF3E0FF12E5
:104230000EC08F89882309F440C0823061F440E8C1
:1042400067E086E098E00E94F409811148CF81E29E
:104250008093EB0047CF813029F440E86BE08AEF90
:1042600097E0F1CF833099F70E943109DC01129673
:10427000ED90FC908E010F5F1F4F6801E114F10477
:1042800079F0D701ED91FC910680F781E02DB8011E
:10429000C7010995080F111DF701E084F184EECFE5
:1042A000D8011C92F60101900020E9F73197BF0177
:1042B0006C197D0940E0C601C6CF64EE77E0FB01D2
:1042C000449150E080E80E94270A09CF973009F412
:1042D000BECF983021F481E08093F10000CF993077
:1042E00009F0FDCE837009F0B2CFEEE0F1E081E09D
:1042F00031E096E32191222371F08093E90030931D
:10430000EB00DF0111972C912093EC009093ED00CE
:104310008F5F873079F78EE78093EA001092EA008A
:104320008F8980934402DBCE8B8D9C8D1092E900A7
:104330001092E2011092E1019093E0018093DF017D
:10434000898D811192C08E899D89913A49F481327B
:1043500009F07DCF47E050E064E071E080E0B3CF4A
:10436000913209F074CF833269F48F89988DB0E06F
:10437000A0E08093000190930101A0930201B0930B
:104380000301ADCE803269F48091E80082FFFCCF5A
:1043900067E084E091E00E947E0A8BEF8093E80062
:1043A0009ECE823209F09BCE8F8980930B01EEEF77
:1043B000FFE7859194918B3F9C4D51F1E0E0F8E04F
:1043C0008091040190910501A0910601B09107012F
:1043D000803B9440A105B105F1F480910B0180FD73
:1043E0001AC0EE3F8AE0F80789F587E797E79183DF
:1043F0008083809160008093E30188E19BE00FB6A9
:10440000F894A895809360000FBE9093600067CEEB
:10441000EEEFFAE0D5CF808191818737974709F099
:104420005ECEA89580916000886180936000809145
:10443000E30180936000EE3F2AE0F20789F080916B
:10444000FE0A9091FF0A9183808349CE80819181F9
:104450008737980751F29093FF0A8093FE0AC5CFE1
:104460001092FF0A1092FE0A3ACE0E943109DC0136
:1044700012960D911C910115110509F4E8CED80191
:10448000ED91FC910190F081E02DBE016B5E7F4FBC
:10449000C8010995811123CEF80100851185EBCF64
:1044A000181619060CF41BCED2CEF1E0FF12BECEC8
:1044B00068EE77E004CF1F920F920FB60F9211248F
:1044C0002F933F938F939F93AF93BF93809130012E
:1044D00090913101A0913201B091330130912F01BF
:1044E00023E0230F2D3758F50196A11DB11D209310
:1044F0002F018093300190933101A0933201B0934A
:1045000033018091340190913501A0913601B09131
:1045100037010196A11DB11D80933401909335019F
:10452000A0933601B0933701BF91AF919F918F91C6
:104530003F912F910F900FBE0F901F90189526E876
:10454000230F0296A11DB11DD2CF1F920F920FB65D
:104550000F9211248F929F92AF92BF92CF92DF92CF
:10456000EF92FF920F931F932F933F934F935F937D
:104570006F937F938F939F93AF93BF93EF93FF932B
:10458000CF93DF93CDB7DEB76097DEBFCDBF10917D
:10459000D501E091DD01F091DE01EE30F10508F08A
:1045A000B9C0EB52FD4D0C942F2DE322F2221C23B7
:1045B0002E23F5230024002429247A23B2238224E5
:1045C000A725B225BE2585E793E00E94121180E061
:1045D0000E94070D1092DC0181E090E09093DE01D3
:1045E0008093DD0185EB93E00E941211E091DC01E4
:1045F000F0E0EE0FFF1FE053FD4F05911491CE0147
:1046000001969E012F5E3F4FDC01A801481B590B0C
:10461000FA01EA0FFB1FE491ED932A173B07C1F75C
:1046200060E10E94D00F869524E1281B44E16FEFE2
:10463000C8010E94220F5CC00E94980D81E00E9478
:10464000070D1092DC011092DB0182E08093DA0109
:1046500083E090E09093DE018093DD012FE34FE053
:1046600060E080E00E94520E2FE045E068E086EEB8
:1046700092E00E94220F24E042E165E081EE92E0A8
:104680000E94220F24E04AE165E08CED92E00E9456
:10469000220FE091DB01F0E0EE0FFF1FEC52FD4F27
:1046A0008591949123E242E16FEF0E94220FE09105
:1046B000DA01F0E0EE0FFF1FEC52FD4F859194916F
:1046C00023E24AE16FEF0E94220FE091DC0120E437
:1046D000E29FF0011124EB53FD4F9F01245E3F4FF9
:1046E0009EEF82A1892782A331962E173F07C9F733
:1046F00081E078C00E94980D81E00E94070D0E9421
:10470000F90F80E00E94F40C89E090E09093DE01C4
:104710008093DD018091D5018F5F8093D5016096F4
:104720000FB6F894DEBF0FBECDBFDF91CF91FF91E2
:10473000EF91BF91AF919F918F917F916F915F9119
:104740004F913F912F911F910F91FF90EF90DF902C
:10475000CF90BF90AF909F908F900F900FBE0F9013
:104760001F90189590919101E92FF0E0A6E0F59542
:10477000E795AA95E1F7E852FE4F80818F5F880F99
:104780004091E9075091EA0702C0569547958A95EE
:10479000E2F717E395FF15E0F12C09E1040F402F34
:1047A00069E1812F8F0D0E94220EF39433E0F31202
:1047B000F6CF49E369E18FEF810F0E94220E49E3B2
:1047C00069E183E0810F0E94220E02E0010F48E1BF
:1047D000602F812F0E94EF0D4AE3602F812F0E94EE
:1047E000EF0D80E00E94F40C95CF0E94F90F81E05C
:1047F0000E94F40C85E090E09093DE018093DD014F
:104800000E94980D8091DD019091DE010697A9F438
:104810006091DC01862F869588776770660F660F3A
:10482000660F9091D201992331F098E3492F481BEC
:10483000842F961B692F0E941A0D13FD06C06091EC
:10484000D3018091D4010E941A0D81E00E94070DCE
:1048500061CF0E94980DE1EDF2E028EF32E0808117
:104860008F7081932E173F07D1F7E1E1F3E088E3E2
:1048700093E011928E179F07E1F7E1E5F3E028E757
:1048800033E08081887F81932E173F07D1F722E3A1
:1048900042E26CE084E10E94520E8091E70785FFBE
:1048A0002FC080E090E0029627E0289F7001299FAA
:1048B000F00C112465E173E0C70181519D4F0E9406
:1048C000710D6DE173E0C7018A509D4F0E94710D1B
:1048D00065E273E0C70183509D4F0E94710D6DE248
:1048E00073E0C7018C5F9C4F0E94710D13FDADCF2B
:1048F0006091DA016E5F660F660F660F88E1A3CFE5
:1049000086E0D0CF1111D1C0E5E4F2E0119284E04D
:10491000E534F807D9F70E94F90F81E00E94F40C02
:104920000E94980D1F3108F08DC08091DC01B82FD6
:10493000B770BB0FBB0FBB0F4091DB01742F7770BB
:10494000770F770F770F8695887750E09A01F4E01C
:1049500035952795FA95E1F7220F220F220F9091B6
:10496000D201992361F098E3E92FEB1BBE2FF92FB9
:10497000F71B7F2F392F381B832F921B292FE12FF5
:10498000F0E0E65BFC4FE491F0E0281B330B2E9F38
:1049900070012F9FF00C3E9FF00C11249701205EB8
:1049A0003F4F66E0369527956A95E1F7A82FA20F4D
:1049B000872F8B1B990B8E9FB0018F9F700D9E9F31
:1049C000700D1124605E7F4FE6E076956795EA955D
:1049D000E1F76B0F4B5B5B4FFA018081E82FF0E052
:1049E000EB5DFA4F8081E091E60525E0E29FF00162
:1049F0001124E252FB4F218127FF05C08091E70778
:104A000085FD59C081E2282F277030E085FF55C011
:104A10002150310987E0829FF001839FF00D11241E
:104A2000E151FD4F2A2F277038E0A39FD0011124B8
:104A300070E0211145C06A0F7B1F6B5B7D4FCF017A
:104A40000E94710D81E00E94070D1F3109F062CEB6
:104A50008091910190E026E0959587952A95E1F760
:104A6000FC01E852FE4F20812223E1F02091ED0766
:104A70003091EE072E3AECEF3E070CF460C0263082
:104A8000FFEF3F070CF45DC0233543E034070CF023
:104A90005AC02B3F31050CF058C022E081579E4F81
:104AA000FC0120830E94991D35CE1F3109F038CFBB
:104AB0000E94CE0C35CF82E4A6CF2B5F3F4FAACF0A
:104AC000422F8EEF90E05C01022E01C0AA0C0A94E6
:104AD000EAF788E0821B282FCC24CA94D12C02C08C
:104AE000D594C7948A95E2F7A07CB770A60FB71F3C
:104AF000AB5BBD4F7F0187E0E80EF11CA094C09432
:104B0000849190E06C916A214C01042E01C0880CC4
:104B10000A94EAF768296D93DF966C91DF976C2110
:104B2000022E02C0959587950A94E2F7862BDF96B0
:104B30008C93DF973196EE15FF0511F783CF20E0B8
:104B4000ADCF21E0ABCF24E0A9CF23E0A7CF0E94D7
:104B5000980D81E00E94070D8CE090E09093DE01BB
:104B60008093DD012FE34FE060E080E00E94520E71
:104B700029E045E06BE08AE693E05BCD0E94F90F07
:104B8000B7CDCF93DF9390E463FF90E2677063301B
:104B900009F455C068F4613009F473C0623009F15A
:104BA000E82FF0E0EB5BFB4F1082DF91CF9108958F
:104BB000282F30E0673008F499C0673089F761E04A
:104BC000690F462F50E0FA01EB5DFA4F995F908331
:104BD0004A575A4FFA0180832B5B3B4FF9016083A0
:104BE000E4CF492F50E0FA01EA57FA4F20812F5FB6
:104BF000208322E0290F3AE0390F3217B1F2622FF9
:104C000070E0FB01B097DF01AB5BBA4FAC91A11133
:104C100014C0EB5BFA4F9F5FA6E055954795AA95A8
:104C2000E1F7490F40836A577A4FFB018083E82FF1
:104C3000F0E0EB5BFB4F2083B8CF2F5FDECF292F57
:104C400030E0F901EA57FA4F40814D5F40832E5022
:104C50003109F901EB5BFA4F408151E0540F508369
:104C6000242F30E0F901EB5DFA4F9D5F90832A57C6
:104C70003A4FF9018083E82FF0E0EB5BFB4F408374
:104C800094CFE091E60525E0E29FF0011124E25285
:104C9000FB4F2381492F50E0382F377029F5BA0197
:104CA00035E0759567953A95E1F7262B2383FA0150
:104CB000E85CFA4F208121502083622F70E0FB01D5
:104CC000EB5DFA4F9B5F90836A577A4FFB018083BD
:104CD000E82FF0E0EB5BFB4F2083FA01EA57FA4F35
:104CE00080818B5F808361CF292BE0CFA92FB0E03B
:104CF000FD01E85CFA4F408141504083E42FF0E031
:104D0000EF01CB5DDA4F960F9883EA57FA4F808315
:104D10002B5B3B4FF9014083E62FF0E0EA52F44F62
:104D2000E491AA57BA4F6C91E60FEC933ECF2091D5
:104D3000380130E0209530954091390150E024232E
:104D4000352390E02823392381E0232B09F480E0E8
:104D500008952F923F924F925F926F927F928F921F
:104D60009F92AF92BF92CF92DF92EF92FF920F93FA
:104D70001F93CF93DF93CDB7DEB72A970FB6F89482
:104D8000DEBF0FBECDBF782E092F282F2777522EDA
:104D9000C22ED12CE4E0D594C794EA95E1F7C886F9
:104DA000382F3770632EA32EB12C7601F3E0EE0C72
:104DB000FF1CFA95E1F7C7018A0D9B1DFC01EE5619
:104DC000FE4F1F01F701EE56FE4FEA0DFB1DE0817D
:104DD000E77010E0E33038F0E350FF0BE553FD4F90
:104DE000E491E98311E087EE95E00E94F118A7EEC7
:104DF000B5E040E060E090E0F02FF7774F2E4817E5
:104E000069F111962C9111972777241124C05C9198
:104E1000252F27772515F9F030E0F901EB5BFB4FE3
:104E20007081E72FF0E0EB5DFA4FFA87E987F10137
:104E30007081E985FA85F0817F130DC074E03595A6
:104E400027957A95E1F77885721301C061E0577074
:104E5000651201C091E04F5F1296D1CF242D30E052
:104E6000F901EB5BFB4F808181111EC180E007FDE2
:104E700004C0872D881F8827881F61110CC0F70187
:104E8000EE56FE4FEA0DFB1D40814770433068F43B
:104E9000882309F41DC1E1E0F0E0EC0FFD1FE10FF4
:104EA000F11D46E0460D40831F5F992351F0E1E07C
:104EB000F0E0EC0FFD1FE10FF11D96E19C199083CE
:104EC0001F5F882349F0E1E0F0E0EC0FFD1FE10FE8
:104ED000F11D89E180831F5F802F8770C82EE1E07C
:104EE000F0E0EC0FFD1FE10FF11D86E08C0D8083DB
:104EF00042E0D42ED10EE1E0E10F81E090E08C0F92
:104F00009D1F8E0F911DFC0154E0359527955A95F4
:104F1000E1F786E1821B808307FF12C01D5F872DAA
:104F20000E948B0B8350990B85539D4FFC018491FC
:104F3000E1E0F0E0EC0FFD1FED0DF11D8083D12EBF
:104F400003FF0DC08EE0898398E19A838B8323E071
:104F5000D22EC61420F49C838D8335E0D32E80910D
:104F6000E70785FF05C080918E018F5F80938E01DA
:104F70005092DC014092DB0197012E563E4FA20E6B
:104F8000B31EF50110828091BD08E82FF0E0EE0F0E
:104F9000FF1FEB50F84F708201838F5F843608F05B
:104FA00085C08093BD08872D902F0E94990BE091BA
:104FB000E60585E0E89FF0011124E252FB4F1092D4
:104FC000E605AEEDB4E001900D928A95E1F70E94FE
:104FD0006B1D863009F06DC0E1E0F0E0EC0FFD1FC5
:104FE000ED0DF11D8BE18083D394F6E0FD1538F0D3
:104FF000E1E0F0E0EC0FFD1FED0DF11D108280915E
:10500000E707382F3074FE01319685FB882480F83D
:10501000912C87E0889DA001899D500D112490E07E
:1050200080E0332391F0DC01A65CBE4F20E01E96A9
:105030006C911E976C9355966C91559717966C933F
:1050400017972F5F1E96253091F72191DA01A80F4F
:10505000B91FA058BE4F2C9301968730910509F7D0
:105060003111109287011092D5018AE090E090935F
:10507000DE018093DD012A960FB6F894DEBF0FBEE5
:10508000CDBFDF91CF911F910F91FF90EF90DF90F7
:10509000CF90BF90AF909F908F907F906F905F90D8
:1050A0004F903F902F90089581E0E7CE1092BD0879
:1050B0007ACF813029F08091E807882309F495CFD1
:1050C000E1E0F0E0EC0FFD1FED0DF11D8AE18BCF6B
:1050D0009111EDCE01CFE7EEF1E01382128288EE5E
:1050E00093E0A0E0B0E084839583A683B78388E152
:1050F00091E0918380838FEF9FEF95878487089558
:10510000CF93DF9300D000D0CDB7DEB7789484B5CD
:10511000826084BD84B5816084BD85B5826085BDB3
:1051200085B5816085BD80916E00816080936E0041
:105130001092810080918100826080938100809133
:1051400081008160809381008091800081608093E4
:105150008000809191008260809391008091910005
:105160008160809391008091900081608093900095
:105170008091C10084608093C1008091C1008260F1
:105180008093C1008091C10081608093C1008091B3
:10519000C30081608093C3008091C00082608093CF
:1051A000C0008091C20081608093C20080917A002B
:1051B000846080937A0080917A00826080937A0084
:1051C00080917A00816080937A0080917A00806873
:1051D00080937A00109244021092E4011092E6014A
:1051E0008091D70081608093D70080EA8093D800B7
:1051F00089B5806189BD89B5826089BD09B400FE29
:10520000FDCF61E070E080E090E00E94B00A809104
:10521000D8008F7C80618093D8008091E000807FEF
:105220008093E0008091E1008E7E8093E1008DE02C
:105230008093E200559A209A81EC80937C0085B19E
:10524000806F85B984B1877E84B984B1876E84B953
:105250005E9A5F988AB1806D8AB9769A6E9881B3AA
:10526000806F81BB899880B38D7080BB80E58CBDD9
:1052700081E08DBD0E94E30A5F9A0E94E30A5E9876
:105280000E947C0B25E737E03A832983E981FA8184
:1052900084910E94760B29813A812F5F3F4F3A8398
:1052A00029832258374091F70E947E0B81E8809332
:1052B0006400809165008160809365008091390170
:1052C000809338010E946E0B8093390187FF0CC0D8
:1052D0000E947C0B85EA0E94760B0E947E0B2E9822
:1052E0002F982D982E98FFCF1092D5011092DE01A5
:1052F0001092DD01109290008CE08093910088EE76
:1053000093E090939900809398008091710082605F
:1053100080937100A6E08A2E912CF5E06F2E80918B
:10532000600083FF07C0F89487E7809300088093AC
:105330000108FFCF80913901809338010E946E0BE4
:10534000809339018091DD019091DE019A838983F8
:10535000FC013197EC30F105F8F4EF54F64D0C9464
:105360002F2DBD29CC29CD2ACC298D2B8D2B412B3E
:10537000CC29402CCC29CC291C2D80E20E949726D8
:105380008823B1F08091DC0181508093DC01823070
:1053900018F081E08093DC0181E083BF889513BE23
:1053A00080E090E0892B09F4BACF0E940000B5CFCD
:1053B00080E40E949726882351F08091DC018F5F62
:1053C0008093DC01823040F31092DC01E5CF88E06D
:1053D0000E949726882301F38091DC018111DCCFA4
:1053E0001092BD08E5E4F4E080E6819395E0E534B1
:1053F000F907D9F7E5E4F5E0119225E0E638F20780
:10540000D9F7E6E8F5E08FEF819335E0E63EF30764
:10541000D9F780E6809385059AE29093570590E44A
:10542000909358059AE490937705809378051092AD
:10543000E6051092E1041092E20480E28093E7070F
:105440001092A6051092C6051A821982198113704E
:10545000110F89819A819595879595958795829564
:10546000807F180FE981FA81EE57F84F0491602F81
:1054700070E0E4E075956795EA95E1F7812F0E9469
:10548000C125602F6F7081E0810F0E94C125498185
:105490005A814F5F5F4F5A83498340325105B1F6BD
:1054A0008091E707E0E6E827EF5FF0E0EA57FA4F80
:1054B0009081E091E605E69DF0011124E252FB4F58
:1054C000108291838F5FE82FF0E0EA57FA4F9081C6
:1054D00026EB39E0F9015491492F451BE42FF0E008
:1054E000EB5BFB4FE081EE2301F16091E7078E2F2C
:1054F00080766817D1F0F0E0EB5DFA4FE081E7705D
:10550000F0E0E15DF64F8491E52F550FFF0BE95573
:10551000F74FE491E823EC7F41F0E091E605E69D4A
:10552000F0011124E252FB4F41832F5F3F4F4EEBBE
:1055300059E04217530771F6E7E2F9E08491292F09
:10554000281BA22FB0E0AB5BBB4FAC91AA23B1F0FC
:105550003091E7078A2F8076381781F0B0E0AB5D95
:10556000BA4F8C918770833049F4A091E605A69DCF
:10557000D0011124A252BB4F11962C9331962FE2E9
:1055800039E02E173F07D1F60E94CE0C42E050E0E2
:105590005093DE014093DD01FFCE80E20E9497260A
:1055A0008823A9F08091DC0181110CC08091DB017E
:1055B000EBEDF1E081508083843008F4EDCE83E0A0
:1055C0008083EACE8091DA01EAEDF1E0F3CF80E466
:1055D0000E9497268823A1F08091DC0181110BC0E5
:1055E0008091DB01EBEDF1E08F5F8083843008F484
:1055F000D3CE1082D1CE8091DA01EAEDF1E0F4CF82
:1056000080E80E9497268111BDCE80E10E949726F6
:105610008111D3CE88E00E949726882339F18091AA
:10562000DB018093D8018091DA018093D901109237
:10563000D6011092D70180E28093D30180E380935A
:10564000D40182E08093900180938F0110928E01AB
:10565000EAE3F1E0178210823E9651E0EE38F5075A
:10566000C9F71092D2010E94991D96CE84E00E9443
:105670009726882309F490CE1092DE011092DD0166
:105680008BCE80E20E9497269091DA01882329F040
:105690001092D50191509093DA0180E40E949726F0
:1056A0009091DA01882329F01092D5019F5F9093A1
:1056B000DA018091DA01837089838093DA0188E0CE
:1056C0000E9497268823F1F089818D5F8093DA010B
:1056D0008091DC019091DB01E9812E2F30E0A9015E
:1056E00003E0440F551F0A95E1F7487056E0220F7A
:1056F000331F5A95E1F72078242B822B90680E9463
:10570000A9264ACE84E00E949726882309F444CE35
:105710009092DE018092DD013FCE84E00E949726C8
:10572000882339F02BE030E03093DE012093DD0157
:1057300033CE80E80E9497269091D401882329F0E7
:105740001092D50198509093D40180E10E94972641
:105750009091D401882329F01092D501985F9093FD
:10576000D40180E20E9497269091D301882329F0EA
:105770001092D50198509093D30180E40E9497260F
:105780009091D301882329F01092D501985F9093CE
:10579000D3010091D40108730093D4011091D30177
:1057A00018731093D30188E00E949726882309F488
:1057B000F3CD402F50E0B3E055954795BA95E1F70A
:1057C000842F212F30E013E0359527951A95E1F7C6
:1057D000E22F9091D201992321F0E7E08E2F841BD4
:1057E000E21B182F1295107F1E0F38E0839FC00117
:1057F00011248E569E4FE80FF92FF11D808180767F
:105800009091910149815A814530510549F489139C
:10581000C3CD9092DE018092DD011093DC01BCCDFE
:105820008917D9F31093DB015091DC01598387EE7E
:1058300095E00E94F1182FEF280F2F3F09F4ACCD0F
:10584000E22FF0E0EE0FFF1FE951FA4F8081982F11
:105850009777398139130DC09181392F3777131319
:1058600008C097FF08C083E08093DA0147E050E06A
:105870008FCE2150E2CF811142CF911140CF8CCDFC
:105880001092EE071092ED071092EA071092E907C6
:105890001092EF071092F1071092F2075090F00764
:1058A00011E03090F107511608F4B4C02091E907D7
:1058B0003091EA078091EB079091EC0728173907A0
:1058C00008F0A8C04090F2071093F00787EE95E02B
:1058D0000E94F118782E1092F1071092F2078111B0
:1058E00030C08091E807811188C06091F4078091F1
:1058F000E6050E94800B9C838B838091E907909141
:10590000EA074091EB075091EC078417950708F0E0
:1059100079C01093EF072B813C813093EE072093E1
:10592000ED0721E0210F251550F49695982F882733
:10593000979587954817590710F022E0210F122FED
:10594000B0CF682F87EE95E00E94EE16872D90E08D
:10595000880F991FFC01E951FA4FFA83E983D12C92
:10596000C12C20E033E83C832B83A12CE3E8BE2E3E
:10597000C71418F6760131EDE30EF11CF701EE0FB6
:10598000FF1FEB5BFB4F808191810E94990B4427A5
:1059900055274A195B090091F00721E060E073E8A0
:1059A00089819A810E94C71E9195819591094B81A9
:1059B0005C814817590714F49C838B83F701EE0F21
:1059C000FF1FEB5BFB4F808191810E94D3078B818E
:1059D0009C81A816B9066CF4F601EE0FFF1FE95181
:1059E000FA4F808191819093F2078093F107AB8009
:1059F000BC809FEFC91AD90ABBCFE0E0F3E8FC8373
:105A0000EB837BCF232D242929F03092F10740929C
:105A1000F20787CF5092F0078091F107811107C0FC
:105A20008091F207811103C04DE050E0B1CD80912B
:105A3000F1079091F20763CE84E00E9497268823B5
:105A400009F4AACC10CE991B79E004C0991F9617CF
:105A500008F0961B881F7A95C9F780950895EE0F78
:0E5A6000FF1F0590F491E02D0994F894FFCFFC
:105A6E00FFFFFFFF00E10000000000000000C1800A
:105A7E0081000000000000004509E90A66095B0983
:0E5A8E00AC096A0988090706040305204000D8
:00000001FF
