:100000000C9440080C9468080C9468080C946808D8
:100010000C9468080C9468080C9468080C946808A0
:100020000C9468080C9468080C947E260C94ED26B9
:100030000C9468080C9468080C9468080C94680880
:100040000C9468080C9468080C9468080C94680870
:100050000C9468080C9468080C9468080C941F2988
:100060000C9468080C9468080C9468080C94680850
:100070000C9468080C9468080C9468080C94680840
:100080000C9469290C9468080C9468080C9468080E
:100090000C9468080C9468080C9468080C94680820
:1000A0000C9468080C9468080C9468082503032DC8
:1000B0003025012600212D01312C2723012600297E
:1000C00026250127250327002A232E232A34110061
:1000D0002A232E232A3410002A232E232A340F0009
:1000E0002F01272D34242D2E2300EF0000000000C7
:1000F00000F0000000000000F10000EF0000000030
:1001000000F00000000000F100000000EF0000001F
:1001100000F000000000F1000000000000EF00000F
:1001200000F0000000F10000000000000000EF00FF
:1001300000F00000F100000000000000000000EFEF
:10014000DFF0E1F10000000000000000000000EE20
:10015000EFF0F1F2000000000000FFFFFFFFFFFFE3
:10016000FF00010101010101010000000000000E7B
:100170000F10111200000000000000000000000F2E
:100180001F102111000000000000000000000F00FF
:10019000001000001100000000000000000F00002F
:1001A0000010000000110000000000000F0000001F
:1001B00000100000000011000000000F000000000F
:1001C000001000000000001100000F0000000000FF
:1001D000001000000000000011041F02041F031F94
:1001E000150A031F051A030E191E031F041B03081B
:1001F000141C031F1408030C12120308141F030C11
:100200001A14021E050312150F031F0418030E1102
:100210000E03121F10031915120311150A03070408
:100220001F03171509030E150803011907030A1503
:100230000A0302150E0204040314081403040E0436
:10024000050A1F0A1F0A05190D0C0D1905110908C9
:100250000911050111101109050911101109050DE8
:100260001918190D030E1111031F041F031F151177
:10027000051F0204021F031E051E03011F01031FA9
:10028000110E050F100E100F03121509031F101089
:10029000031F050203111F11040E11110E0307188D
:1002A00007040F10100F040E11151D031F05010187
:1002B0000A03011502020000030000000404080400
:1002C00002FFFFFFFFFFFFFFFFFF00010203040526
:1002D00006070707070707070707060504030201C4
:1002E00000222F242501002926252A232425262320
:1002F00024252623032C252A03232B23262C262CD6
:100300002D01130E34242D2E2329270325283221D5
:1003100022232105242526232A2D25273430252490
:100320002300001040010203040552031803BF001C
:10033000B500AC00E102D800D000C800022A252197
:10034000053228222C26233229262503263430255F
:10035000242301232834302524230000687C7C7C5E
:10036000680000001400140000181C4A7E7E7C7097
:10037000204C7E377A4C20467C7E7C7E7C464364D3
:100380007D7E7D644344687A7F7A68440068544483
:1003900054680018144A72424C70204C7221724CFE
:1003A00020467C4644467C4643645D465D64434447
:1003B000685A4F5A68440000000001020305070A0A
:1003C0000C1013161A1E22262A2D303436393B3DC6
:1003D0003E3F404040401104E000F2032404302539
:1003E0002423342B252F29232730252423342D2E75
:1003F000230329252E233430252423002125012100
:10040000232A2D2E230328032C26233429252E23AB
:1004100033022521050029252E2C013033282C26D6
:10042000222D2F2624252C01342423012F002A23BA
:10043000252E2334262D00000000000000000000BF
:1004400000000000000000000000000000000000AC
:100450000050F0F0800000000000000000000000EC
:100460000000000000800000C42212CA3C0000808E
:100470006040808040000080402020C0380600009E
:100480008060000080600000C03008040402222464
:1004900018000080603826C0000000804020A06066
:1004A00000000080702040800000008070204080AC
:1004B000000000000000000000000000000000003C
:1004C000000000000000000000000000800100EAC1
:1004D000711AFF7E87838380808080000000000087
:1004E0000000102020908D838181818F90908E81DB
:1004F000808C939088848E9190888E919088848E41
:100500009190888E9190888798A0A0A0A0A09090AC
:1005100088948E8180808E91908884878A91909033
:1005200088848A959888949388848A9598889493E7
:100530008840402418000000000000000000000077
:100540000000000000000000001005421825D748F8
:10055000B77FC9F7FEBFEB7F1F0F0300000000004D
:10056000000C1201010000000040A0F058E84040DB
:10057000E04000000000000000000000000000005B
:10058000000000000000000000000000000000006B
:10059000000000000000000000000000000000005B
:1005A000000000000040E04040E858F0A04000009B
:1005B000000000000000000000000000000000003B
:1005C00000000000000000004000809002A1BC4B31
:1005D000ABBEEFBBFEFF9FF9F0C0C0800000000083
:1005E0000000000000000000000000010302000005
:1005F000000000000080000080800080008000007B
:1006000000800000800000808000008040008000AA
:1006100000C00000C00000800000C000004000805A
:100620000000804000800000400203410080400044
:1006300000400080000000002A00500500B00004C7
:1006400051200880210890224008801240010A6948
:10065000DBBAFDFFFEFFC101158904A2084413485F
:10066000A4126C813248A01A6088523144A81168E3
:10067000528134688132888016AA0896AB041AC762
:1006800028168BA41A87A80E92AD0A46B94E72D1CD
:100690002C52F10876E118D46330CC5132E4493061
:1006A000D621E894032E548B158EA51906AE510E53
:1006B00095228D1EA00B000050001400801400082D
:1006C00080020440020940060100124500806813C0
:1006D000EEFD37FFFFBFFFF8E0C318A44118A04AA2
:1006E000A800DA20886A9008E2300CE0110C500073
:1006F000850822870802AB04820906AA01068D2319
:10070000028D22078C2207C9AE73915864B1906C98
:1007100051B0D429B0C83AE0115CE01174C810752A
:10072000C810F0060D238C0B220C4B02AD0A01AE53
:100730000209A60A1186000009000228000A100218
:1007400004100904002B0008030030C02C92E91D9E
:10075000F6ABDF7FEBFFDFF77FFFEEFCFCFAA000DC
:10076000628048224008A21008972208952A118624
:1007700058052A114E8932049D22095688132E905D
:100780000B14926D8A01608A44A01241A4484095DE
:100790002248806A00D22448836014C16802D025B0
:1007A000806806398B1416A91517A8132E81182FE7
:1007B0008219244B12140000A00000500000108089
:1007C0000000200000801000802200045A0015560E
:1007D0004D15565D9F572DFFAF2BDFAE37CF6F10F6
:1007E0009661118860128870821860429850229435
:1007F0005040B5006A9020CA30856810A268148203
:10080000200C83540986290A84258B04A90A862191
:100810008D0AA10D9205288B45140AA10E022946C6
:1008200008937004897004D122885025D00228D002
:1008300002A950049160D5F08D14A1C881CFD9F1DF
:10084000AF2000080B0002020200000904000001B2
:100850000202000005240010010524010101042406
:100860000206052406000107058103100040090463
:100870000100020A0000000705020240000007050F
:1008800083024000000403090412010002EF020188
:100890004041233680000101020301417264756901
:1008A0006E6F204C4C430041726475626F79009109
:1008B00005C78551479211920285828E5586474918
:1008C000858D0D454804888E184706C9000247CA21
:1008D0008E1547C95587084A88C745CA83D55582AA
:1008E000D55587D5040749CAC25582CAD355850252
:1008F00004858F0DC544D04D09CA90554B84C5461B
:1009000087829954D255858402C85187C349C8CA81
:100910005206879119C5044705C44588D245CA992E
:10092000D411044792D544855584951A5045CBD5AA
:100930005386C7D8488885024787D15B4A8BC75101
:10094000CC855307498292530587D39909CC5B1212
:10095000C54786D348C9D3D0C7528307C9D3D7D494
:100960005085119290855387C45389944ECB5888F3
:100970009418478658C80547CACB559104C849867C
:1009800048CB04C9528290D348C653858F8FCA4A38
:1009900090474A908F4DD0CD0546CACAD151849117
:1009A000C688514A86C65188464B86468990978F9D
:1009B000164113CA5A9094124807CB4991944ECBD2
:1009C0001857C65491D04E05CB905291D2474488C7
:1009D0009017C7C7519111C74A86C74FCBC7D312CB
:1009E000460BCC90934B11C5CA511186D34F8893B7
:1009F000C646860FC648C9C650CBD3D24587914557
:100A000092984A99909905471D4D85D84B879646EF
:100A10009045C64586D747C8914A4890C7589282A4
:100A2000498505870346C8478785044706488649A0
:100A3000889A429B054A8518024507C943CA9A55B8
:100A40009B548555C955858FD14682D147859144A0
:100A5000C503054784D14687CF49868F0F48518902
:100A6000C50F50888F1847911802050447CA18050A
:100A700047CA8F154791558848CA15054488C64FFF
:100A8000CB4585C7C7C9458492C69A4A458546481D
:100A9000879791C645C547989056044B8F519191C1
:100AA00099458544C64585C7518459C6458598D121
:100AB0004790D15992D1448544848F1005469110B6
:100AC000468444C650869012408545C6101205489B
:100AD00088C647C78F17141100054491110446C4F6
:100AE00046C6D1C5448692984592C5494B85C89063
:100AF00047D248C8D2CF4988921105074A859780C6
:100B000041834A4291CF58824F874FCACA5088C703
:100B10008F571007C6464B8B990B4C9091D947477E
:100B200092D14985D10FCA4888CACE51CBD1D306BC
:100B3000084BCC92135185934F51C8D34F899110D4
:100B4000519290878752C6530649C8D21085528762
:100B500046CB4682C7D355850F9090985012140803
:100B6000C94B0085925148C7124893905091D04587
:100B7000459190981304064A8E0508074B0406C752
:100B80004491CE458044859800034297508E114091
:100B9000845187124449878E0F4082428446854E95
:100BA000864F8744C94FCBC7530082D05C8491C71E
:100BB0005182C65486C754C70FC647865087C4C4DF
:100BC000448AC5504B8490C6D31B4593C64991C6F1
:100BD000CF5B85C64886C6D1084BC7868F459045F2
:100BE0008717448644C8464B879104C750C891472D
:100BF000D58F1B135550861011C79295488F040846
:100C000049C848CBCF53899595CF4E0FD00EC50D0F
:100C1000448F8FC856D08747C856908F97150D10B0
:100C200012000306479616518D171148841145C7C7
:100C300046908D174D8E46C7508616C7474987C8C0
:100C4000109A4F44C996D04590509CC06187C846C1
:100C5000C8941147CF13121007064B8890C74591CF
:100C6000471986C7D152C70205C78F170F11469083
:100C7000140F11000546870245C646CC1105C793DF
:100C80008F0446914644C68F40911351C8518B92B0
:100C9000518551875189CAC6D246CC91C7CB4449A8
:100CA000CC12879352518913C5C4C6484C0000002A
:100CB0000000000000000000000000000000000034
:100CC0000000000000000000000000000000000222
:100CD0000000000000000100000000000002000011
:100CE00002000000000001000000000002000000FF
:100CF00000020000000001000000000200000000EF
:100D000000000200000001000000020000000000DE
:100D100000000002000001000002000000000000CE
:100D200000000000020401040200000000000000B6
:100D3000000000000420102004000000000000015A
:100D40000101010101080008010101010101000088
:100D5000000000000480408004000000000000004B
:100D60000000000002040104020000000000000076
:100D7000000000020000010000020000000000006E
:100D8000000002000000010000000200000000005E
:100D9000000200000000010000000002000000004E
:100DA000020000000000010000000000020000023C
:100DB0000000000000000100000000000002EFF150
:100DC0000F11F010FF01DFE11F21EE0EF2120020E3
:100DD0008004A259FBF80004040C0D1424FDFFFF4D
:100DE000FFBDFFFFBFFFFFFFFFFFFFFFFFFFFFFF95
:100DF000FFFFFFFFFFFFFFFFFFFFFFFFFFFFFFFF03
:100E0000FFFFFFFFFFFFFFFFFFFFFFFFFFFFFFFFF2
:100E1000FFFFFFFFFFFFFFFFFFFFFFFFFFFFFFFFE2
:100E2000FFFFFFFFFFFFFFFFFFFFFFFFFFFFFFFFD2
:100E3000FFFFFFFFFFFFFFFFFFFFFFFFFFFFFFFFC2
:100E4000FFFFFFFFFFFFFFFFFFFFFFFFFFFEFFFFB3
:100E5000FFDEFFFFDF0001010303050900EFF0F1F2
:100E6000FF010F10110000000000000000DC00DB9B
:100E700000D000CF0086008F008700850054005806
:100E800000550056004200470048004F003E004514
:100E9000004500420041004E004C003A00000000B6
:100EA0000000000000BE00EB00F9000501F5000A9B
:100EB0000120011D01020123012F01320111012333
:100EC000013001330108011C0126012901FD001335
:100ED000011A012201FA0001010F011301EA00FDCC
:100EE00000FB0000010C0110010C0114011101278D
:100EF0000124011F011C012A012E012C011F0126C2
:100F000001310138011B0126012D0136011D012788
:100F1000013001300115012B01240124010B0117BF
:100F20000110011701E001E201E901EE01E101E632
:100F300001EE01EA01D601E001E501E401D301D6A9
:100F400001E501E101C901D401DB01DB01C101CFF0
:100F500001D401D401BA01CB01D401D601C701CB20
:100F600001D901DD016403750389038903700371ED
:100F7000038E038E037C0382038F0397037603782B
:100F8000038903880370037A037F0380036E03766B
:100F9000037E037A03580366037D0377035F035DD3
:100FA0000364037703DEFFF8FFF2FFEBFF00000DA1
:100FB00000110009000300190018000900F5FF0ED8
:100FC0000012000E00EBFFFEFF0B000C00F0FF0113
:100FD0000007000800F0FFFFFFFFFFFDFFE0FFF844
:100FE000FFECFFEDFF0C0011000D000E0007000AE2
:100FF000000A000A001B0016000E000F001E00125F
:1010000000090003001A0017000D0007000400FF8C
:10101000FF040009000F00060007003500A0FFD5FF
:10102000FFF7FFFBFF070005000D000A000D000998
:10103000000A0003000000FFFF010001005FFFC97C
:10104000FFDFFFEEFFF5FFF9FFFEFFFEFF030007E6
:10105000000A001000140020001E002B00110007E1
:1010600000E7FF0400190013000D0007000400034F
:1010700000F8FFFAFFF3FFF2FFF2FFEEFF00D430BB
:1010800011241FBECFEFDAE0DEBFCDBF11E0A0E03C
:10109000B1E0E0EAFEE602C005900D92A033B10790
:1010A000D9F728E0A0E3B1E001C01D92A13EB2074C
:1010B000E1F718E0C0E4D8E004C02197FE010E94E7
:1010C0004837CF33D107C9F70E94E9300C944E3727
:1010D0000C9400008F929F92BF92CF92DF92EF927A
:1010E000FF920F931F93CF93DF93EC01DC010CE889
:1010F00015E091E09617D8F51296BC9012971396CA
:101100007C911397F80181918F01292F422F50E094
:10111000FA01E657FA4F7F01FA01EE0FFF1F4F0168
:101120008C0E9D1E45575A4FF7013081381784F4B5
:101130006401F2E0CF1AD108F601C080D180F40139
:10114000D182C082F7013081FA0130832150F1F65B
:1011500030E0F901EE0FFF1FEC0FFD1FB08271832D
:1011600025573A4FF90180839F5F1296C3CFDF91D5
:10117000CF911F910F91FF90EF90DF90CF90BF9094
:101180009F908F900895E9E4F2E0A0E0B4E0008041
:101190000EBC8111012C1197A0FDFDCF0192B9F772
:1011A0000DB4089592E0960F4AE0460F4917E9F012
:1011B000292F30E0F901E657FA4F508157FF13C04D
:1011C000275D3A4F462F42954695469543706F5F8F
:1011D000640FD9016C938083E82FF0E0E75BFB4F4D
:1011E0009083892F08959F5FE1CF80E00895E62FD7
:1011F000F0E0E45CFA4F908191509083292F30E029
:10120000F901E75DFA4F460F408326573A4FF9013F
:101210008083E82FF0E0E75BFB4F9083892F0895F0
:101220006F927F928F929F92AF92BF92CF92DF92F6
:10123000EF92FF920F931F93CF93DF93CDB7DEB75B
:10124000C054D1090FB6F894DEBF0FBECDBFE091F8
:10125000EE0545E0E49FF0011124EE51FB4FE480E0
:1012600054E080E05E1508F0C1C0FE013196DF0158
:10127000BE016F5B7F4F1192E617F707E1F730E091
:1012800020E0F12C80E055E0C52E922FD22E2E15B5
:101290000CF064C04091EE0524170CF092C050E0B1
:1012A000421B530BC49EF001C59EF00D1124EE515C
:1012B000FB4FB080E1818E2E8B18F80CF0E0AF016F
:1012C000475B5B4F3A01FA019080492D50E08A015B
:1012D000005211090A0F1B1FF801A080A80CA08260
:1012E0000B2D10E0075B1B4FF8019082F301108279
:1012F00046575A4FFA01B082F1106DC08D0149E492
:1013000054E0F801B1908F01BB20B9F0FA01EF5918
:10131000FE4FE081EB0DE7FD5CC0F0E0E75BFB4FCB
:10132000E081EE2309F455C0F0E0E75DFA4FB080AC
:10133000FA01F395E081BE124CC04F5F5F4F60171A
:101340007107F9F641E090FF46C0442309F443C019
:101350008F5F813009F43FC091E09D0D915050E0C6
:1013600040E0692F092E000C770B35E0F32E97FD36
:101370003DC02091EE0592178CF530E0FB01E41B97
:10138000F50B2E1B3F0BF29EF001F39EF00D112486
:10139000EE51FB4F20813181E22FF0E0E75BFB4F04
:1013A0002081032F10E0075B1B4FD8012C93108284
:1013B000E22FF0E0E657FA4F30834F5F5F4F9150D6
:1013C000D6CFE22FE41BF0E0EE0FFF1FEF5FF74FE9
:1013D00070CF40E0B8CF2F5F3F4F57CFE92FE21BD0
:1013E000F0E0EE0FFF1FEF5FF74FD4CFC05CDF4F91
:1013F0000FB6F894DEBF0FBECDBFDF91CF911F9126
:101400000F91FF90EF90DF90CF90BF90AF909F90A3
:101410008F907F906F900895E0E6E827F0E0E65720
:10142000FA4F9081911115C0282F30E0F901E6574D
:10143000FA4F4081442331F192E0980F865F89177B
:1014400051F0E92FF0E0E657FA4F50819F5F57FDCA
:10145000F6CF80E008954530A8F04630D1F7255CFE
:101460003A4FF901208180E0921799F3E92FF0E0DB
:10147000E657FA4F308137FD03C08111EBCF81E091
:101480009F5FF2CF81E0089580912E010E940C0AA7
:10149000811104C080912D010C940C0A0895DF92F3
:1014A000EF92FF920F931F93CF93DF93E091FC078E
:1014B00030E63E273093FC07682F6777592F577720
:1014C000A52FB0E0A75BBB4F4C91C091EE052FEF6D
:1014D0002C0F2093EE0505E0C09FE0011124CE51B2
:1014E000DB4F2A81C22FD0E0782F7078F92FF8785F
:1014F0007F2B09F448C097FF62C0842F90E08C01D5
:10150000075D1A4FF8017081E72FE770F0E0EB5AA2
:10151000F14FD490E32EF12CF701E657FA4F70818A
:101520007F5F7D197083F801108286579A4F3FEFD5
:10153000FC0130838091FC0790E0FC01E55CFA4FF0
:101540003081FC014317A0F5E55CFA4F832F8150F1
:1015500080838091FC0792E0980F3AE0380F3917AA
:1015600091F0092F0052110B075B1A4FF80170819F
:10157000711123C031E0380F82958695869583706E
:10158000830F8083492F222389F1C75DDA4FE881D9
:10159000E770F0E0EB5AF14FE491C091FC0780E670
:1015A000C827D0E0C657DA4F8881E80FE8831EC00D
:1015B000E45CFA4F80818F5FCBCF9F5FD0CF8E01ED
:1015C00006571A4F93FF3AC0561740F58CEF860F17
:1015D000E82FF0E0E75BFB4F2083EFEFE60FF0E052
:1015E000E75BFB4F1082E801888320E0E62FF0E004
:1015F000E75BFB4F4083E42FF0E0E657FA4F608350
:101600002C93E22FF0E0E657FA4F5083DF91CF9111
:101610001F910F91FF90EF90DF90089583E0860F68
:10162000E82FF0E0E75BFB4F2083E1E0E60FF0E01E
:10163000E75BFB4F1082F8018083D7CF87FFA3CFF2
:1016400080E3850F831BC82FD0E0C75BDB4F288367
:10165000E8018883F0E0E657FA4F80818F5FECCF96
:1016600080E0E82FF0E0982F9878A7E2B1E011F041
:10167000A8E2B1E0E75BFB4F9C9190838F3F11F0B4
:101680008F5FEFCFE9E4F5E0119285E0EA38F807E3
:10169000D9F7EAE8F5E08FEF819395E0EA3EF907A4
:1016A000D9F780E6809389059AE290935B0590E4F0
:1016B00090935C059AE490937B0580937C0510924F
:1016C000EE051092E5041092E6041092E2041092E6
:1016D000E3041092E40480E28093FC071092AA05D0
:1016E0001092CA0508954F925F926F927F928F92E7
:1016F0009F92AF92BF92CF92DF92EF92FF920F93A1
:101700001F93CF93DF930E94300B81E090E0909382
:1017100000088093FF071092FE071092FD07C0E6B5
:1017200010912E01D0912D01612F8C2F0E94D20893
:101730006D2F80EB8C0F0E94D208CF5FC836A1F7C7
:1017400009E414E0C0E0D12C50902E0190902A01C1
:10175000C0902B01609029017C2C892CD0912D0107
:10176000492D6D2F8C2F0E94F7088D2F90E09C0142
:10177000255C3A4F5901F901208181E0820F808375
:1017800083E0482E4D0E822F90E0FC01E75DFA4F7A
:10179000408286579A4F31E03C0FFC013083F801BC
:1017A00021834C2D6D2F82E08C0F0E94F708462D6F
:1017B0006D2F83E08C0F0E94F70821E02D0F822F00
:1017C00090E0FC01E75DFA4F37E03D0F308386572C
:1017D0009A4F34E03C0FFC013083F8012483472DFD
:1017E0006D2F85E08C0F0E94F708F501208181E0C4
:1017F000820F8083822F90E0FC01E75DFA4F4082E8
:1018000086579A4F36E03C0FFC013083F80126835F
:10181000482D6D2F87E08C0F0E94F708C0590059A2
:101820001F4FF1E0DF1222C087E28093CA05809348
:10183000AA05E091EE0525E0E29FF0011124EE51AA
:10184000FB4F83E6838384E08183DF91CF911F91F7
:101850000F91FF90EF90DF90CF90BF90AF909F904F
:101860008F907F906F905F904F900895DD24D39478
:10187000D52D76CF482F862F642F60764770433062
:10188000D9F020F4413078F480E008954730B8F181
:101890004730D1F791E0960F292F30E0F901E75D4D
:1018A000FA4F695F20C0E62FF0E0E657FA4F9081CB
:1018B0009F5F90830C94D208262F30E0F901E65701
:1018C000FA4F90819D5F90832E503109F901E75BBB
:1018D000FA4F908141E0490F4083292F30E0F90110
:1018E000E75DFA4F6D5F608326573A4FF9018083B9
:1018F000E82FF0E0E75BFB4F9083892F0895E42FFA
:10190000F0E0EB5AF14FE491A62FB0E0A657BA4FA2
:101910009C91E90FEC930C94F708962F282F2295B1
:101920002F70362F32953F70321337C0242F861711
:1019300008F58F5FE82FF0E0E75BFB4F908199237C
:10194000C1F368132AC02F5FE22FF0E0E75BFB4F83
:10195000E081EE23C1F38091FC078E23F1F4F0E0E7
:10196000E75DFA4FE081E770F0E0E253F24F8081EB
:10197000817008958150E82FF0E0E75BFB4F2081F4
:101980002223C1F3841309C09150E92FF0E0E75BF3
:10199000FB4FE081EE23C1F3DECF80E00895FC0130
:1019A00080914802882311F13FB7F89482E0809338
:1019B000E9002091F200822F90E01816190614F425
:1019C00081E090E0882339F0289844E6409347026C
:1019D0004091F1004083222339F02091F20021113F
:1019E00003C02BE62093E8003FBF08958FEF9FEFE1
:1019F00008952FB7F89483E08093E9009091E80070
:101A0000892F807295FF04C09091F20080E4891BB9
:101A10002FBF089580913F0281110DC082E0809315
:101A20003B0284E080933C0210923E0210923D0201
:101A300081E080933F028BE392E00895CF93DF93A0
:101A40001F92CDB7DEB76983DC01ED91FC91028076
:101A5000F381E02D41E050E0BE016F5F7F4F0995BB
:101A60000F90DF91CF91089583E08093E9008091FA
:101A7000F200882319F08AE38093E80008950E9419
:101A8000F90C90E00895CF93DF931F92CDB7DEB7A6
:101A9000FC018485958597FD08C02FEF3FEF3587C2
:101AA00024870F90DF91CF910895CE0101960E9477
:101AB000CF0C019719F4898190E0F3CF8FEF9FEF5E
:101AC000F0CF0F931F93CF93DF931F92CDB7DEB765
:101AD0008C01FC018485958597FF0BC0CE01019692
:101AE0000E94CF0C019771F4898190E0F8019587ED
:101AF0008487F801848595850F90DF91CF911F91A0
:101B00000F9108958FEF9FEFF1CFFC0184859585AC
:101B100097FD0BC09FB7F89482E08093E900809115
:101B2000F2009FBF90E0019608959FB7F89482E07D
:101B30008093E9008091F2009FBF90E0089540916A
:101B4000E5015091E6012091E3013091E401421753
:101B50005307B4F49091E8009570E1F39091E80098
:101B600092FD19C08093F1008091E5019091E6010A
:101B700001968F739927892B19F48EEF8093E800D3
:101B80008091E5019091E60101969093E6018093A2
:101B9000E50181E0089580E00895EF92FF920F93B0
:101BA0001F93CF93DF93F82E192FE62E042F81E099
:101BB000860F880F0E949F0D83E00E949F0DCF2DFE
:101BC000D12FEC0EFD2EF11CCE15DF05B9F007FF6D
:101BD00013C0FE0184910E949F0D182F80E00E9487
:101BE0009F0D812321968111EFCFDF91CF911F911E
:101BF0000F91FF90EF9008958881EDCF81E0F5CFB0
:101C0000DF92EF92FF920F931F93CF93DF93D82E23
:101C10008A01EB017B01E40EF51ECE15DF0559F0BC
:101C2000D7FE12C0FE0184910E949F0D2196811162
:101C3000F4CF0FEF1FEFC801DF91CF911F910F91EC
:101C4000FF90EF90DF9008958881EECF0F931F9360
:101C5000CF93DF931F92CDB7DEB782E0898342E452
:101C600050E063E478E080E80E94000E0E940A0DD4
:101C7000DC0112960D911C910115110589F0D80116
:101C8000ED91FC910280F381E02DBE016F5F7F4FEB
:101C9000C801099597FD04C0F80100851185ECCFB6
:101CA00089810F90DF91CF911F910F91089561501D
:101CB00030F02091F100FC0120830196F8CF2898A4
:101CC00084E68093470208953FB7F89480914501D8
:101CD00090914601A0914701B091480126B5A89B7B
:101CE00005C02F3F19F00196A11DB11D3FBFBA2FAE
:101CF000A92F982F8827BC01CD01620F711D811D6E
:101D0000911D42E0660F771F881F991F4A95D1F7F2
:101D100008958F929F92AF92BF92CF92DF92EF92EF
:101D2000FF926B017C010E94640E4B015C01C114A7
:101D3000D104E104F104B9F00E94640E6819790934
:101D40008A099B09683E73408105910580F321E073
:101D5000C21AD108E108F10888EE880E83E0981EC7
:101D6000A11CB11CE4CFFF90EF90DF90CF90BF900B
:101D7000AF909F908F90089565E070E080E090E0D4
:101D80000C94890E8F929F92AF92BF92CF92DF9266
:101D9000EF92FF920F931F93CF93DF936C017B0120
:101DA0008A0180910B01882309F45CC0809148026C
:101DB000882309F457C08091EA0180FF05C0809113
:101DC000E00082608093E000E801B12C8AEFA82E49
:101DD00093E0892E2AE3922E209711F4BB20D9F1AB
:101DE0000E94F90C81110AC0AA94AA20D9F161E0DD
:101DF00070E080E090E00E94890EEECF8C171D0607
:101E000011F00CF08C2F9FB7F8948092E90020918C
:101E1000E80025FD02C09FBFDFCF282F30E0C21BA6
:101E2000D30BF701815020F041914093F100FACF9C
:101E3000E20EF31EBB2021F09092E800B12CEBCF14
:101E40008091E80085FDE7CF9092E800BB24B39431
:101E5000209709F3F3CF5D9884E68093E90110168B
:101E600011063CF081E090E0F6019383828310E05C
:101E700000E0C801DF91CF911F910F91FF90EF908B
:101E8000DF90CF90BF90AF909F908F9008958FB1CB
:101E90008095807F669B88601C9B846008958EBDC2
:101EA00000000DB407FEFDCF08955C9808955C9A7C
:101EB000089590E1699FB001112480FD03C07195E0
:101EC00061957109CB010895282F30E083FB8827A5
:101ED00080F996E0359527959A95E1F72270822B47
:101EE0008D5F08958F929F92AF92BF92CF92DF92B3
:101EF000EF92FF920F931F93CF93DF93A091EE0584
:101F000025E0A29FF0011124EE51FB4FAF5FA0939B
:101F1000EE05A29FD0011124AE51BB4F2381139631
:101F20002C931397248114962C9314978C931196C9
:101F30009C931197382F392B387899F4E82FF0E0DB
:101F4000E75BFB4F4091FC073EEF341B4081340FB1
:101F5000383038F0E92FF0E0E75BFB4F30812F5F3E
:101F6000311120E014962C931497382F3777292FAE
:101F70002777D22E432F50E08A01075B1B4FF801D1
:101F800020816D2D70E0FB01E75BFB4F7F01C0807E
:101F9000CC2DD0E0CC20A1F0FE01E75DFA4FE0812E
:101FA000E770F0E0EB5AF14F9490A090FC07F0E658
:101FB000AF26B12CF501E657FA4F80808918808250
:101FC0001296CC9212974352524FFA014491FB0160
:101FD000E352F24FE491E42313964C911397E423D8
:101FE0001396EC931397592F5878482F4078452B28
:101FF000A1F197FF61C0A22EB12C0E94640FF501E0
:10200000E75BFB4FDF01A052BF4F1C92EF5BFE4F1F
:102010009FEF90834091FC07A42FB0E0833009F438
:102020003CC0A45CBA4FEC912FEF2E0F2C93E22F03
:10203000F0E0E75DFA4F9091FC07980F9083E82F4E
:10204000F0E0EB5AF14FE491A091FC07B0E0A65705
:10205000BA4F8C918150E80FEC93F7012083F8017F
:102060001082E22FF0E0E657FA4FD082C657DA4FDF
:102070008FEF88838091FC0790E689278093FC0787
:10208000DF91CF911F910F91FF90EF90DF90CF9054
:10209000BF90AF909F908F900895FD01E55CFA4F3F
:1020A0002081922F9F5F9083E22FF0E0E75DFA4F4F
:1020B0009091FC079D5FC2CF93FF2AC0D316D8F43E
:1020C000ECEFE30FF0E0BF01675B7B4FFB0140816A
:1020D00012964C9312973150832F90E0875B9B4F61
:1020E000FC014083FB0110821296EC91F0E0E65770
:1020F000FA4F3083B2CFE3E0E30FF0E0BF01675B5C
:102100007B4FFB01408112964C9312973F5FE4CFC7
:1021100087FFA3CF4091FC078D2D841B805D90E04D
:10212000875B9B4FFC01308112963C931082A32F5A
:10213000B0E0A657BA4F8FEF8C9380E6E42FE827E4
:10214000F0E0E657FA4F80818150808386CF20915E
:10215000400130E0209530954091410150E024232A
:10216000352390E02823392381E0232B09F480E0F4
:102170000895CF93C82F0E94470F209141018227D5
:10218000E8E3F1E050E040E031E090E074E6682FF1
:10219000632359F160816F5F6C1700F56083330F23
:1021A0004F5F5F4F31964830510589F792279093E2
:1021B0004101E0E3F1E081E042E3392F382321F0EF
:1021C00030813150A1F03083880F319631E0E8330F
:1021D000F30799F720934001CF9108951082932B34
:1021E000DA01A05DBE4F7C93DACF1082D8CF408356
:1021F000382F30953F602323E7CFCF93DF9380E5DF
:1022000091E049E454E0DA0130E020E0ED91EE2382
:10221000B9F0F0E0E75DFA4FEC01C20FD31F608127
:1022200068832F5F3F4F2830310581F70896405F64
:102230005F4F21E08039920731F7DF91CF91089508
:10224000ECE0F1E0E9CFCF93C82F0E94550F81E277
:102250000E944F0F80E40E944F0F8FE70E944F0FA4
:102260000E94570F8C2FCF910C94C308CF93C82F87
:102270000E94550F81E20E944F0F80E00E944F0F95
:102280008FE30E944F0F0E94570F8C2FCF910C9419
:10229000C308DB01FC0124912C933196E491119643
:1022A000EC931197FC013296E4911296EC931297FD
:1022B000FC013396E4911396EC931397FC0134964A
:1022C000E4911496EC931497FC013596E4911596DD
:1022D000EC9315970696FC01849116968C930895BD
:1022E000CF92DF92EF92FF920F931F93CF93DF93E2
:1022F00087E0E82E09E412E097E0D92ECD2CCE1825
:10230000E801F12C809190018823A1F1ED2DEF19C6
:102310008E2D28E0829FC0011124E80FF92FF11DB6
:10232000E05BFE4F2081222351F1822F877090E0E5
:1023300025FF23C00197D89E9001D99E300D11240E
:10234000C901855A9C4FBE010E9449112896F394F9
:1023500088E0F812D7CF005C1F4FEA942FEFE2120B
:10236000CDCFDF91CF911F910F91FF90EF90DF9034
:10237000CF9008958C2DEF2DCCCF0596DCCF8C2DF2
:102380008F0D80FDE3CFBE0182E693E0DDCF98E0C4
:10239000899FF0011124E07CF770E40FF11DE75BE9
:1023A000FD4F982F97702FEF30E001C0220F9A95C4
:1023B000EAF79081922B9083E05CFF4F887F885FE3
:1023C00070E06F5F7F4F9FEF885F8617170609F0F9
:1023D00024F49083E05CFF4FF7CF6770772781E0AC
:1023E00090E001C0880F6A95EAF781509081892BAF
:1023F00080830895282F277091E001C0990F2A95B6
:10240000EAF728E0829FF0011124E07CF770E60FE4
:10241000F11DE75BFD4F461738F08191DF01119701
:10242000892B8C936F5FF7CF089598E0899FF00117
:102430001124E07CF770E60FF11DE75BFD4F87701C
:1024400021E030E001C0220F8A95EAF78081822BDB
:1024500080830895CF92DF92EF92FF920F931F93A4
:10246000CF93DF93D82F062FC42F122FFF24FA9477
:10247000F20EEE24E394E60E4F2D6E2D0E94FA111B
:102480004F2D6E2D8C2F0E94FA11DD24DA94DC0E74
:10249000CC24C394CD0E402F6D2D8C2D0E94C711DE
:1024A000412F6D2D8C2D0E94C7110E5F602F8C2D3A
:1024B0000E9415121250612F8C2D0E941512602F50
:1024C0008D2D0E941512612F8D2D0E941512DE5F39
:1024D0006E2D8D2F0E9415126F2D8D2F0E941512BB
:1024E000C2506E2D8C2F0E9415126F2D8C2FDF91F4
:1024F000CF911F910F91FF90EF90DF90CF900C94B0
:102500001512FF920F931F93CF93DF93182F062F6F
:10251000F42ED0E0C0E0FE01EF53FD4F8491810F17
:10252000FE013896EF71FF27EF53FD4F64918F3313
:1025300060F4600F6F3348F4F11005C090914301CF
:1025400096959C0F92FD0E9415122196C032D105DE
:1025500011F7DF91CF911F910F91FF900895AF92E6
:10256000BF92CF92DF92EF92FF920F931F93CF9380
:10257000DF9338E0439FF0011124E07CF7702E0FC9
:102580003F2F311D275B3D4F4770042FEFE1F0E0F7
:10259000DF01042E01C0AA0F0A94EAF758E0541B89
:1025A000C52F02C0F595E7955A95E2F77C01BA2E42
:1025B000B0949E2F9095662309F43FC0F701419196
:1025C0007F01442309F439C089EDC82E81E0D82E5B
:1025D0004150F601141634F4A491B0E01196CA0EDD
:1025E000DB1EF6CF7491A22ED90131968A2F8A195B
:1025F000871740F0472F50E04F5F5F4F240F351F84
:102600006150D9CF449150E08C918B216A01002E0A
:1026100001C0CC0C0A94EAF78C298D93DF968C913B
:10262000DF9789230C2E02C0559547950A94E2F74F
:10263000482BDF964C93DF97D8CFDF91CF911F9136
:102640000F91FF90EF90DF90CF90BF90AF900895E3
:10265000CF93DF93CDB7DEB760970FB6F894DEBFA8
:102660000FBECDBF613108F060E1FC01CE010196E3
:10267000DC0134913D9331963A2F381B3617C8F35D
:102680000E94AF1260960FB6F894DEBF0FBECDBFAA
:10269000DF91CF9108952EE34EE060E080E00E944C
:1026A0002A128091D901811107C082EF93E02CE0BA
:1026B00045E069E00C94281388E193E0F8CFAF92ED
:1026C000BF92CF92DF92EF92FF920F931F93CF931F
:1026D000DF9300D000D0CDB7DEB7F62E082F10E084
:1026E00046E0159507954A95E1F7D02E4CE0460F48
:1026F0002EE360E08F2D0E942A12C0904901809144
:10270000DF019091E001459741F10C1126C092E064
:10271000A92EAF0C23E0E22E3AE0B32EBF0C6E2DB3
:102720008A2D0E9415126E2D8B2D0E941512E39496
:10273000E3948DE3E812F3CF83E0E82EBE2CBF0CC8
:1027400062E08B2D0E9415126CE38B2D0E941512F6
:10275000E394E394EBE0EE12F1CFF4E0FF0E0A56BF
:102760001E4FF8018281882309F43FC08081845E76
:102770008C8324E04F2D61E0CE0104960E94AF12BD
:102780008AE289838EE28A83F8018281825F8B8369
:102790002BE04F2D63E0CE0101960E94AF12DC10BA
:1027A0000AC0F8018281882331F08091DF01909185
:1027B000E001089759F08CE393E0D11002C082E465
:1027C00093E023E24F2D65E00E9428130F900F90B5
:1027D0000F900F90DF91CF911F910F91FF90EF908D
:1027E000DF90CF90BF90AF90089524E04F2D65E02B
:1027F00081EE92E00E942813D2CFDC019C919923B4
:1028000019F1E9EDF1E0915098F41196952F61508E
:10281000D9F08D918823C1F0E9EDF1E0815080F08D
:102820004491242F30E02F5F3F4FE20FF31FF6CF8C
:102830005491252F30E02F5F3F4FE20FF31FE3CF7E
:1028400081E0840F980FE3CF892F08952F923F9254
:102850004F925F926F927F928F929F92AF92BF92B0
:10286000CF92DF92EF92FF920F931F93CF93DF935C
:10287000CDB7DEB728970FB6F894DEBF0FBECDBF39
:102880001091900160E0111101C062E380912E016E
:102890000E945F1362E3111101C060E080912D017D
:1028A0000E945F13A090FD07B090FE073FEFA31AB0
:1028B000B30A6501D694C79446E0C416D10408F063
:1028C00054C086E090E08C199D09982F990F990FBC
:1028D000891B880F9CE2592E580E312CBEE02B2EFE
:1028E0008DE0851508F0BAC0E32CF12C6090FD074F
:1028F0007090FE07E614F70408F0B0C0F701EA563E
:10290000FE4F42A4F701EE0FFF1FEF5FF74F8081EC
:10291000918119821A821B821C821D821E821F8253
:102920001886292F277093FF2CC0298298E19A835B
:102930002B82243010F49C832D82E62467E0CE01A4
:102940000196E0FE71C00E94FD1386958D3008F05F
:102950008CE02AE1281B452D67E0CE0101960E94FC
:10296000AF12FAEF5F0E3394BBCF8091DF019091ED
:10297000E0010CE2502E459709F0AFCF16E2512E40
:10298000ACCF342D37708E010F5F1F4F332321F0F2
:1029900039838E010E5F1F4F44FE07C0382F3770FA
:1029A0003A5FD8013C930F5F1F4F45FE0AC0382F96
:1029B000377732953F70B6E1B31BF801B0830F5FF4
:1029C0001F4F43FE05C0E9E1D801EC930F5F1F4F95
:1029D0002A5FD8012C93292F277722952F70B6E1F3
:1029E000B21BF801B183480197FD09C0F2E08F0ED8
:1029F000911C46FE13C03AE1F40130839ECF33E0D0
:102A0000830E911C0E94640F8350990BFC01EB5DB7
:102A1000FC4FE491D8011296EC93EBCF47FE8DCF9B
:102A2000EBE1D401EC9389CF0E94FD13482F50E0D5
:102A30009A012F5F3F4F3595279594E3921B292FDD
:102A4000490F511D4134510514F020E4281B452D38
:102A500067E0CE0101960E94AF1285CF8090DF0122
:102A60009090E001A5E18A169104E9F410914201E9
:102A7000163041F420E04CE269E08FE093E00E94E0
:102A8000281311C0123078F020E04CE265E08AE0B3
:102A900093E00E942813133009F46CC008F059C069
:102AA000123009F461C08091FD079091FE07892BD7
:102AB00009F480C02AE030E0C601B9010E94343731
:102AC0005EE0F52EF80EC50164E170E00E94343737
:102AD000CB01B9010E9434370EE0080FC50168EC44
:102AE00070E00E9434377EE0E72EE60EB6E0CB16AB
:102AF000D10408F04BC046E050E04C195D09842F2A
:102B0000880F880F142F181B110F145D45E3D42E66
:102B10001E3008F44FC0E9820A83FB82FEE0EF1208
:102B200004C0D9820E3009F4DA8220E0412F63E03C
:102B3000CE0101960E94AF123EE0F31233C00E3078
:102B400069F5E31689F1EA9437E1F32E07E11650AF
:102B5000DFCF1430A9F0153009F0A5CF26E14CE203
:102B600069E087EE92E08BCF26E14CE268E082E0FC
:102B700093E085CF26E14CE26AE088EF92E07FCFD8
:102B800026E14CE268E080EF92E079CF1CE2E5E1DB
:102B90008E16910409F0BACF16E2B8CF015027E1A2
:102BA000F22ED5CFFA94D3CF87E1F82E07E197E143
:102BB000E92ECDCF28960FB6F894DEBF0FBECDBF5D
:102BC000DF91CF911F910F91FF90EF90DF90CF9009
:102BD000BF90AF909F908F907F906F905F904F903D
:102BE0003F902F90089528E049E452E0DA01BC01BB
:102BF000605C7F4FFC0134913D933196E617F707F7
:102C0000D1F7405C5F4F215080589F4F2111EECF8C
:102C100008950F931F93CF938C01FC0180819181C4
:102C2000FC01E255F74FC4910196F801918380832E
:102C3000C7FF05C0C8010E9409168111FBCFC6FB62
:102C4000CC27C0F981E08C27CF911F910F91089577
:102C5000DC012D913C9111971296EC91E20FF32F2C
:102C6000F11DED50FF4F80810895AF92BF92CF923A
:102C7000DF92EF92FF920F931F93CF93DF9300D0D9
:102C80001F92CDB7DEB7E0E6C82ECE26AC2DB0E061
:102C9000A657BA4F9C91911130C08B01E82E282F76
:102CA00030E0F901E657FA4FF080F11018C060915A
:102CB000FB078091EE050E94590FF80191838083F4
:102CC00081E00F900F900F90DF91CF911F910F91A6
:102CD000FF90EF90DF90CF90BF90AF90089592E07B
:102CE000980F8AE08E0D891751F0E92FF0E0E65732
:102CF000FA4F40819F5F47FDF6CF80E0E2CFF3E0DF
:102D0000FF15A8F694E0F916C1F3255C3A4FF901D6
:102D10009081D12C981749F0E82FF0E0E657FA4F50
:102D2000208127FFD3948F5FF5CF89E494E09A83C5
:102D30008983EB82CE0101960E9428169B81905ECA
:102D400030E09817E9F0482F50E0FA01E657FA4FC3
:102D5000608167FD13C0475D5A4FFA0120812770DB
:102D6000243061F4262F22952F70262720FBAA24D9
:102D7000A0F8B12CA5014F5F5F4F342B8F5FE1CFDF
:102D8000F6E0FF1204C082E0D81609F490CFE39475
:102D9000EE2DF0E0E657FA4F8081C394EC2DF0E081
:102DA000E657FA4F2081422F50E064E05595479551
:102DB0006A95E1F72770682F62956F70641B062E85
:102DC000000C770B77FF03C07195619571098770CF
:102DD000821B082E000C990B97FF03C091958195DB
:102DE0009109680FF6E0FF1223C081E0D81220C0DD
:102DF00030FD18C08EE0821B240F841B281708F4B6
:102E0000822F94E0F99E90011124820F932F911D3F
:102E1000880F991F861B910934E0880F991F3A95F6
:102E2000E1F74BCF842F821B295F241B895FE6CFFC
:102E3000440F87E090E0841B910997FF03C09195B0
:102E400081959109220F47E050E0421B510957FF3D
:102E500003C0519541955109840FD3CF635070E061
:102E60009B0143E0220F331F4A95E1F7287056E09B
:102E7000660F771F5A95E1F76078622BFC0120817D
:102E80002777622B608308950F931F93CF93DF936F
:102E900000D0CDB7DEB7FC017A8369839A81892F90
:102EA000877782958F70841759F0CF0102967183CE
:102EB00060830F900F90DF91CF911F910F91089534
:102EC0008F0190689A8360912901CE0101960E943A
:102ED0002E17FC0180819181F8019183808360919C
:102EE0002C01CE0101960E942E17FC018081918158
:102EF000F8019383828360912A01CE0101960E949A
:102F00002E17FC0180819181F80195838483609163
:102F10002B01CE0101960E942E17FC01C8010896D4
:102F200020813181F80137832683C3CF882329F09C
:102F300090E483FF90E28770890F0895DC01EC91A3
:102F4000F0E0E253F24F8491E62F660FFF0BEA5B4D
:102F5000F24FE491E82381E009F480E00895FC0158
:102F600080818770843018F097E0981B892F08952E
:102F7000CF93FC01208130E044E0359527954A95B8
:102F8000E1F7C7E0C21B611101C0C22FCC0FCC0F0B
:102F90000E94AF178C0FCF9108952F923F924F92BE
:102FA0005F926F927F928F929F92AF92BF92CF92D9
:102FB000DF92EF92FF920F931F93CF93DF93CDB7E2
:102FC000DEB764970FB6F894DEBF0FBECDBFC82E34
:102FD00081E06C2C6826A0E4DA2E80E0CC2019F089
:102FE000F0E2DF2E87E0FE0131965E012BE0A20EBB
:102FF000B11C4F018193EA15FB05E1F780E65D2CDA
:10300000582642E0450D5AE0550DE12C541709F1C0
:10301000E42FF0E0E657FA4F808187FD18C0E39473
:10302000282F30E0E4E035952795EA95E1F78770A1
:1030300090E00196F401E80FF91F8081CC2021F087
:10304000821720F4282F02C02817E0F320834F5F57
:10305000DDCF30ED3D0D388B62E0762E7D0C7AE0D1
:10306000372E3D0C10E000E08EEF482E4D1837143F
:1030700009F48AC0E72DF0E0E657FA4FF080FB86AE
:10308000F7FC53C0E394662DC5010E94B817E82FE2
:10309000F0E0EE0FFF1FEB59F14F85919491080F6F
:1030A000191FC5010E94AF17EF2D6889E61BAFEF0E
:1030B000AE0FB0E0A75BBB4F9C91940D983048F0E9
:1030C000EF5FF0E0E75BFB4F9081940D40E09830BC
:1030D00058F4E82FF0E0EE0FFF1FEB51F04F259171
:1030E0003491020F131F41E09F2D92959F702F2D59
:1030F000277030E0F401E20FF31F5081C11017C0B8
:10310000951798F0E2E0F0E0EC0FFD1FE20FF31FDF
:103110005081951750F0E3E0F0E0EC0FFD1F2E0F0B
:103120003F1FF90120819217B8F47394A0CF59176B
:10313000E0F3E2E0F0E0EC0FFD1FE20FF31F50813F
:10314000591798F363E070E06C0F7D1F260F371F4F
:10315000F9012081291748F3E82FF0E0E053FF4FF1
:10316000CF01880F991FFC01EB59F14F2591349144
:10317000020F131F4423C9F2FC01E359F14F85915B
:103180009491080F191FD1CFFEE0FE1510F42FE027
:10319000E22EED2DF0E0E55CFA4F20812C8BF12C36
:1031A0003CEEE30EF11CEE0CFF1CB7016B59714FA6
:1031B0001B01198A8EEF482E4D189FE5892E90E14C
:1031C000992E7C89771609F448C0E72DF0E0E65780
:1031D000FA4FC080CB86C7FC3EC0662DC5010E9459
:1031E000B817E82FF0E0EE0FFF1FEB55F14F859178
:1031F0009491080F191F8889C81AEFEFEC0DF0E0C1
:10320000E75BFB4F8081840D883048F0C394EC2D40
:10321000F0E0E75BFB4F8081840D883068F4C501E6
:103220000E94AF17E82FF0E0EE0FFF1FE351F04FC1
:1032300085919491080F191FF10185919491080FC0
:10324000191F9989992329F0F40185919491080F08
:10325000191FE1E0E98B7394B4CFE1E0E50DF0E0F4
:10326000E657FA4F408089E494E09C878B87DD869F
:10327000C5010E942816C82E8D85805E888B970117
:103280002B5B314F1901812C712C71E6A72E70E157
:10329000B72E38893C1509F491C08C2D90E0BC0103
:1032A000675B7B4F7B01FB01EF5BFE4F90809F864E
:1032B00097FC75C0662DCE010F960E94B817F701D6
:1032C000E052FF4FE081E770EE87E450EE2EF12CE4
:1032D000F70155E0EE0FFF1F5A95E1F7E05CFF4F55
:1032E000E80FF11DEE0FFF1FEB59F14F85919491FF
:1032F000080F191F642D6919CE010E960E949E17A2
:10330000882349F0F701EE0FFF1FEB5EFF4E85911A
:103310009491080F191F8E85982F937009F441C05E
:10332000853061F4F10185919491080F191F772080
:1033300059F1F50185919491080F191F892D8F700E
:103340008F8728E0FF24F3949F85E92FF0E0E75B67
:10335000FB4F80818250382F3D19383000F185199C
:10336000883008F4F12C905F9F87215069F7CE01D7
:103370000F960E94AF17E82FF0E0F11008C0EE0F93
:10338000FF1FE350F04F07C077247394D7CFEE0FA1
:10339000FF1FEB50F04F85919491080F191FC394B4
:1033A00078CF892D82958F709826792D71707A8BC0
:1033B0001B8A8A899B890196882AF1CF83E088122B
:1033C00006C0EBE1F0E185919491080F191FE1E04F
:1033D000ED0DF0E0E657FA4FF080FE86662DCE0147
:1033E0000E960E94B817E82FF0E0EE0FFF1FEB5586
:1033F000F04F85919491080F191FEDE5FEE045E629
:103400005EE090E034918F2D830FA82FB0E0A75B92
:10341000BB4F2C912D2111F49F5FF6CF31964E17A3
:103420005F0781F79C3008F09CE0E92FF0E0EE0F99
:10343000FF1FED59FF4E85919491800F911F649667
:103440000FB6F894DEBF0FBECDBFDF91CF911F91B5
:103450000F91FF90EF90DF90CF90BF90AF909F9033
:103460008F907F906F905F904F903F902F90089536
:103470000F931F93CF93DF9300D0CDB7DEB780912A
:10348000F0079091F10701969093F1078093F00770
:10349000BE016F5F7F4F8091FC070E94351681113E
:1034A00028C09091FC07BE016F5F7F4F80E689279F
:1034B0000E943516811116C081E00E94CD178C0143
:1034C00080E00E94CD179801281B390BC901EDE55A
:1034D000F0E12091FC0725FF15C025913491820F62
:1034E000931F05C089819A819195819591099A834D
:1034F000898389819A810F900F90DF91CF911F91DD
:103500000F91089525913491281B390B3A83298313
:10351000F0CFDC01EC910E2E000CFF0BEF59FE4FAB
:1035200084910895DF92EF92FF920F931F93CF93B0
:10353000DF93CDB7DEB72A970FB6F894DEBF0FBE84
:10354000CDBFF82E8091FC0720E62827E0EDEF0D97
:10355000E20FAFEFAE0FB0E0A75BBB4F1C919EEF49
:10356000981B312F390F383088F580E2821B829505
:10357000869587709F2D92959F70891709F4FDC0DD
:1035800080E01123A9F0EF2DF0E0E75BFB4FE08135
:10359000F0E0E75DFA4FE081E770F0E0EA52F24FC9
:1035A0000491080F8091EE058C3009F0E8C0802F5F
:1035B0002A960FB6F894DEBF0FBECDBFDF91CF9134
:1035C0001F910F91FF90EF90DF900895EF5FF0E073
:1035D000E75BFB4F1081910F983038F21AE0180F1B
:1035E000E82FF0E0E55CFA4F0081101789F0E12F39
:1035F000F0E0E657FA4F808187FD08C06F2D681B09
:103600008CE291E00E949E178111BACF1F5FEDCF2F
:103610008091FC0729E434E03A8329838B83CE012F
:1036200001960E942816182F8B8130E2E32EE80EB7
:10363000E11651F1812F90E0FC01E657FA4F00812D
:1036400007FD20C0875D9A4FFC0180818770843020
:10365000C9F4DF2CD01A6D2D8BE291E00E949E17E9
:10366000882381F0DC82CE0104960E94891A080F1B
:10367000E02FF0E0E75BFB4F90819923C1F30F153A
:1036800009F47ECF1F5FD4CF8091FC0729E434E09A
:103690003D832C838E83CE0104960E942816182F1A
:1036A0008E8120E2E22EE80EE11651F1812F90E0AA
:1036B000FC01E657FA4F008107FD20C0875D9A4F55
:1036C000FC01808187708530C9F4DF2CD01A6D2D04
:1036D0008AE291E00E949E17882381F0DF82CE016A
:1036E00007960E94891A080FE02FF0E0E75BFB4F76
:1036F00090819923C1F30F1509F442CF1F5FD4CFF6
:103700008091FC0729E434E038872F838987CE0134
:1037100007960E942816182F898590E2E92EE80E58
:10372000E11609F441C0812F90E0FC01E657FA4F01
:10373000008107FD20C0875D9A4FFC018081877062
:103740008630C9F4DF2CD01A6D2D89E291E00E94F9
:103750009E17882381F0DA86CE010A960E94891A84
:10376000080FE02FF0E0E75BFB4F90819923C1F356
:103770000F1509F405CF1F5FD3CF80E202CFA12F31
:10378000B0E0A657BA4F1C91812F9F2D0E94720F57
:103790008F2D0E94921AE82E812F9F2D0E944F0A92
:1037A000802F8E1987FF04CF80E002CFCF93DF9365
:1037B0000E94381AEC01E091EE0585E0E89FF001E7
:1037C0001124EE51FB4F8281882349F08181877754
:1037D0000E94921A99E18902C00DD11D1124CE01D7
:1037E000DF91CF9108952F923F924F925F926F9207
:1037F0007F928F929F92AF92BF92CF92DF92EF9281
:10380000FF920F931F93CF93DF9300D000D01F92AE
:10381000CDB7DEB78C016C01DC01612C412C661642
:10382000F9F011968C91119787FD08C0E82FE77782
:10383000F0E0E75BFB4F9081992379F0E42DF0E015
:10384000EE0FFF1FE00FF11F9C9120813181119637
:103850003C932E9390838183439463941296DFCF9D
:103860002EE1241510F47FE1472E6BE8262E65E04B
:10387000362E78015101712C741409F43CC0D70123
:103880008D909C9011971196BC91BB83B7FF23C07C
:10389000F70180810E94640FE82FF0E0EA52F24FB6
:1038A000E4915CEF552E5E0E8091EE058C3059F060
:1038B000C4010E94720F8B8187770E94921A581A56
:1038C000C4010E944F0AD5015D925D017394B2E07C
:1038D000EB0EF11CD1CFEB81E777F0E0E75BFB4F1C
:1038E000E081F0E0E75DFA4FE081E770F0E0EA5256
:1038F000F24F5490D9CF672DC8010E946A082BE877
:1039000035E0962C90E080E0B12C4DEB5EEFFA01B3
:10391000E954F4407F01B714D8F5D9014D919D01C8
:1039200047FF33C0962C9718D801A80FB91FF7018D
:10393000E20FF31FE90DF11DEE0FFF1FAF01400F66
:10394000511F5D834C83AB2CBC01615071098C907D
:1039500011965C901197EC81FD8141915191FD830D
:10396000EC834D935D93AF0142505109FA0180827F
:103970004C815D81481B590B460F571FFA0150823D
:10398000A3947A10E4CF9B0C7B2CB3940296C3CF04
:10399000711064C0FEE1792CF91510F42FE1722E3C
:1039A000812C871409F456C06090FC0766FA6624DF
:1039B00060F8D601EC91E777EA83F0E0E75BFB4F34
:1039C000E081F0E0E75DFA4FA080BA2DB770AB2E32
:1039D000AA94AA94E5E0EA1508F4A12CD601119660
:1039E0008C9187778983662DCE0101960E94B81746
:1039F000B0E2AB9E50011124F501E80FF11DEE0F6E
:103A0000FF1FEB59F14FE590F490662DCE01029621
:103A10000E94B817F501E80FF11DEE0FFF1FEB59DB
:103A2000F14F85919491F701E81BF90BCF01813893
:103A3000FFEF9F0714F481E89FEF8038910514F0A1
:103A40008FE790E0D1018D931D018394B2E0CB0EFE
:103A5000D11CA7CF682DC8010E946A08892D0F903C
:103A60000F900F900F900F90DF91CF911F910F91BA
:103A7000FF90EF90DF90CF90BF90AF909F908F908E
:103A80007F906F905F904F903F902F9008959F92FE
:103A9000AF92BF92CF92DF92EF92FF920F931F935C
:103AA000CF93DF9300D000D01F92CDB7DEB7A0E355
:103AB000A60FA81B9EEF981B2FEF2A0FE22FF0E016
:103AC000E75BFB4F2081290F283008F48CC0AF5FE3
:103AD000B0E0A75BBB4F2C91920F983008F483C0E5
:103AE000062F182F2AE0E22EE80EE82FF0E0E55C22
:103AF000FA4FD080ED1489F0EE2DF0E0E657FA4F42
:103B0000608167FD08C0601B8CE291E00E949E17F7
:103B1000F82E811146C0E394EDCF802F90E09C01F8
:103B2000275B3B4F6901F901908080E6808389E43F
:103B300094E09A8389831B83CE0101960E94281604
:103B4000B82E8B8190E2A92EA80EAB14E1F18B2D3B
:103B500090E0FC01E657FA4FE080E7FE02C0B39424
:103B6000F4CF875D9A4FFC018081602F6E196D83C1
:103B700087708C83CE0104960E949E17F82E8823AE
:103B800071F3CE0105960E94891AE80EEE2DF0E041
:103B9000E75BFB4F90819923C1F30E11E0CFF60153
:103BA00090828F2D0F900F900F900F900F90DF91BC
:103BB000CF911F910F91FF90EF90DF90CF90BF902A
:103BC000AF909F900895F60190821F5FE12FF0E083
:103BD000E657FA4F8081602F681B86E291E00E94D1
:103BE0009E17F82EDECFFF24F394DBCF2F923F9267
:103BF0004F925F926F927F928F929F92AF92BF92FD
:103C0000CF92DF92EF92FF920F931F93CF93DF93A8
:103C1000CDB7DEB7AC970FB6F894DEBF0FBECDBF01
:103C20001C01F090FC0780E65F2C582610ED612EF9
:103C30006F0C80E28F1990E09C0105E03595279587
:103C40000A95E1F73CA32BA34BA086E028272BA7DE
:103C500031E03F0D3DA3832F90E0AC0146575A4F12
:103C60005FA34EA3DA01EC901092EF0789E494E091
:103C70009A8F898F5B8ECE0149960E942816982EC6
:103C80008B8D805E8CA78101DD24DA94C12CBCA5CC
:103C9000B91509F4CEC0892D90E0FC01E657FA4F22
:103CA000A080A7FC2EC0875D9A4FDC01EC91E770E5
:103CB0009A2D9E199F8FF0E0E253F24F8491E92FE5
:103CC000990FFF0BEA5BF24FE491E823E370C9F030
:103CD000CE014F960E94891A782EBE2CB70CEB2D80
:103CE000F0E0F9A7E8A7E75BFB4F90819923B1F3D8
:103CF000AB1009C08091EF078E5F8093EF077AA623
:103D0000DA2C9394C4CF492F50E0FA01E75DFA4FC3
:103D10008081282F20762F11F4CFF7E00F3D1F0769
:103D200008F0C3C38B2C870CE82DF0E0E75BFB4F5A
:103D300020812223C1F3A810E4CF2C2D30E0EDE048
:103D4000F0E0EC0FFD1FE20FF31FB08246575A4F11
:103D5000EFEFDA01EC93C39441E050E04C0F5D1FAC
:103D6000240F351FD9019C938770833008F043C01E
:103D7000A62CAB0C872D877041F5EA2DF0E0E75BB0
:103D8000FB4F80818111BDCF442D6B2D7A2DC80151
:103D90000E9444178C01A60CEA2DF0E0E75BFB4F74
:103DA00080818111AECF88A599A5B4E095958795BE
:103DB000BA95E1F7BBA5B813A4CF8B2D8860F801A5
:103DC0008083A1820E5F1F4F9CCF8FEF8A0D8812D8
:103DD00007C0442D6B2D782DC8010E9444178C011B
:103DE000A3948A108ECF442D6B2D782DC8010E948C
:103DF00044178C0186CF8C8F6F8DCE014C960E941C
:103E00009E17882309F47DCFD8019B2D970DFD01C6
:103E10003296BC9211969C93DF018912F7CF8B2DBD
:103E20008F018719E81609F46CCFB082818332962E
:103E3000F7CFE091EE0525E0E29FF0011124EE516D
:103E4000FB4F81818777B82E9E2D981BE82FF0E0DD
:103E5000E75BFB4FE081F0E0E75DFA4FE081E77060
:103E6000F0E0E253F24F8491E92F092E000CFF0B92
:103E7000EA5BF24FE491E823EC7F69F08091EF0771
:103E80008F5F8093EF0791959C8FCE014C960E9497
:103E9000891A8AA7DB2C8091EF07882309F46FC069
:103EA000833008F092C2E091EE0535E0E39FF00127
:103EB0001124EE51FB4F8181877781018D1509F423
:103EC000C7C08091EF0780FF69C1BD2CB6186FEFA6
:103ED0006B0DE62FF0E0E75BFB4FE0818EEFE82E05
:103EE000EF188E2F8E0D883060F4F0E0E657FA4F11
:103EF000808187FD06C04BA17D2DC8010E9444171B
:103F00008C0161E06B0DE62FF0E0E75BFB4FE08199
:103F10008E2F8E0D883060F4F0E0E657FA4F8081E6
:103F200087FD06C04BA17D2DC8010E9444178C015E
:103F3000F7E00F3D1F0708F0B8C2EAE0EE2EEF0CE5
:103F4000EF2DF0E0E55CFA4FA080AE1409F4E2C07A
:103F5000EE2DF0E0E657FA4FB080B7FC0EC06D2DA5
:103F60006B198CE291E00E949E17882331F0D801F2
:103F7000BC921196DC920E5F1F4FE394E6CF47E0B0
:103F80000F3D140708F091C2E091EE0555E0E59F62
:103F9000F0011124EE51FB4FA3808F2D8295869561
:103FA00087708A2171F16FEF6E0DE62FF0E0E75B0D
:103FB000FB4F8081811125C0AEEFBA2EBE0CEB2DD8
:103FC000F0E0E75BFB4F808181111BC0EDEFEE0D50
:103FD000F0E0E75BFB4F8081811113C0852D0E94CB
:103FE000471D81110EC06B2D852D0E94471D81112B
:103FF00008C0D801EC928B2D886011968C930E5FCF
:104000001F4FAF2029F161E06E0DE62FF0E0E75B76
:10401000FB4F808181111CC0F2E0BF2EBE0CEB2D46
:10402000F0E0E75BFB4F8081811112C0852D0E947B
:10403000471D81110DC06B2D852D0E94471D8111DB
:1040400007C0F801E0828B2D886081830E5F1F4FCF
:10405000F7E00F3D1F0708F028C2E091EE0525E0CC
:10406000E29FF0011124EE51FB4F808183FF29CFA5
:1040700081818777B82E8091EF07882311F0DB10BC
:1040800020CF88248A948B0CE82DF0E0E75BFB4F6F
:10409000E0818EEFA82EAF188E2F8A0D8830B8F4ED
:1040A000F0E0E657FA4F808187FD11C04B2D682D57
:1040B0008E2D0E948D0C81110AC0882D8068D80138
:1040C0008C93862D8B0D11968C930E5F1F4F882439
:1040D00083948B0CE82DF0E0E75BFB4FE0818E2FA3
:1040E0008A0D883008F0EDCEF0E0E657FA4F808177
:1040F00087FDE7CE482D6B2D8E2D0E948D0C8111F2
:10410000E0CE882D8068F8018083B60CB1820E5F06
:104110001F4FD7CEB7E00F3D1B0708F0C6C189E49B
:1041200094E09D8F8C8FFE8ECE014C960E942816B7
:10413000E82E8E8D70E2A72EA80EAE1409F446C1AB
:104140008E2D90E0FC01E657FA4FB080B7FC24C0FA
:10415000875D9A4FFC0180816D2D6B196AA3877072
:104160008F8FCE014F960E949E178823A9F0CE0113
:1041700082960E94891A9B2D980FE92FF0E0E75B49
:10418000FB4F20812223C1F3D91206C0D801BC9273
:104190001196DC920E5F1F4FE394CFCFB7E0073B41
:1041A0001B0708F082C152E0A52EAF0C6AE0762E04
:1041B0007F0C7A1409F44FC0EA2DF0E0E657FA4F6D
:1041C000B080B7FC46C0862C8B0C7FEF780DE72FB4
:1041D000F0E0E75BFB4F80818076581206C0442DEB
:1041E0006B2DC8010E9444178C0171E0780DE72FF8
:1041F000F0E0E75BFB4F80818076581206C0442DCB
:104200006B2DC8010E9444178C01E82DF0E0E75B9C
:10421000FB4F808181111DC0442D6B2D782DC8016D
:104220000E9444178C01860CE82DF0E0E75BFB4F01
:10423000808181110EC08B2D82958F70EBA58E131E
:1042400008C08B2D8860D8018C9311968C920E5FDC
:104250001F4FA394AECFEF2DF0E0E55CFA4F408105
:104260002EEC3DE04A1519F1EA2DF0E0E657FA4F41
:10427000908197FD1AC0B7E00F3D1B0708F015C1EC
:10428000E6ECFDE08491890FA82FB0E0A75BBB4F5F
:104290005C915F2131F4D8019C9311968C930E5F51
:1042A0001F4F31962E173F0769F7A394DBCF89E4A0
:1042B00094E098A38F8FF9A2CE014F960E94281602
:1042C00069A1605E22EC3DE046EC5DE0681709F410
:1042D00051C0E82FF0E0DF01A657BA4F9C9197FD3F
:1042E00047C0B7E0073B1B0708F0DFC0E75DFA4FA8
:1042F0007081E72FE370E9F0E2ECFDE0A490380173
:10430000B92E8301BA0CAB2DB0E0A75BBB4F8C90EC
:10431000A82DAF2151F4A2E06A0E711CD8019C9324
:104320001196BC92882069F3830131964E175F077E
:1043300029F770FD1DC0EEEBFDE0B4904801792F28
:1043400084017B0DA72FB0E0A75BBB4FAC90AA2DDB
:10435000AF2151F4B2E08B0E911CD8019C931196C1
:104360007C93AA2069F3840131962E173F0729F721
:104370008F5FACCF8091EF07882341F15101A016E8
:10438000B10620F5F50181818777882E8E198C8FF3
:10439000CE014C960E94891AFAA58F1779F0F80180
:1043A00092918291D5018D939C9395012250310970
:1043B00059018F0132E0A30EB11CE1CF9E2D980F61
:1043C0008916C1F3D912FBCFEACF81014FED241634
:1043D00047E0340608F069C0AEA1BFA1DC90AD2C67
:1043E000B12CF501E75BFB4F10823DE5832E3EE0EB
:1043F000932E45E6642E4EE0742EF401E490ED0C0D
:10440000EE2DF0E0E75BFB4F80818F2161F46E2D94
:10441000852D0E94471D811106C0D801DC9211969E
:10442000EC920E5F1F4FBFEF8B1A9B0A6814790442
:1044300021F7F501E75BFB4F2DA12083CC20B9F0DC
:10444000CA948C2D90E0E1E0F0E0EC0FFD1FE80F46
:10445000F91FE081F0E0E657FA4F4DE050E04C0FD5
:104460005D1F840F951FDC018C918083E7CFC8010D
:104470008219930995958795AC960FB6F894DEBF8F
:104480000FBECDBFDF91CF911F910F91FF90EF90A5
:10449000DF90CF90BF90AF909F908F907F906F9064
:1044A0005F904F903F902F900895CC20B9F0CA9420
:1044B0008C2D90E0E1E0F0E0EC0FFD1FE80FF91F1C
:1044C000E081F0E0E657FA4F2DE030E02C0F3D1F81
:1044D000820F931FDC018C918083E7CF8FEFCCCFCD
:1044E000CF938FEE95E00E94F61DC82FE091EE0568
:1044F00085E0E89FF0011124EE51FB4F8481843662
:10450000B8F40E94440A811115C00E94100982303B
:1045100098F49091EF07CC2331F081E0911101C024
:1045200080E0CF91089586E09111FBCF85E0F9CF2F
:1045300082E0F7CF84E0F5CF83E0F3CF8091FC07F2
:1045400090E026E0959587952A95E1F780934901BB
:104550000E9470228093420108950E949E228091C1
:104560004201823038F085E190E09093E001809341
:10457000DF01089590914901E92FF0E0EA56FE4FDE
:104580008281882349F121E0911120E0A22FB0E03F
:10459000AA56BE4F12969C91911102C02093900191
:1045A00098E09093F70790E0880F991F079621E015
:1045B00030E002C0220F331F8A95E2F73093F307F1
:1045C0002093F207E481F0E0EE5DFC4FE491E0938C
:1045D000FB0788E090E0C9CF81E0911101C080E045
:1045E0008093900184E090E0C0CF1F93CF93DF933E
:1045F000182FD92F8091FD079091FE070196909377
:10460000FE078093FD078091FF0790910008892B9A
:1046100069F18FEE95E00E94F61DC82FC1508C2FD6
:1046200090E0FC01EE0FFF1FE151FA4F20812113B2
:10463000F5CF880F991FFC01E051FA4F8081D81304
:10464000EDCF8091FF0790910008FC01E255F74FF4
:10465000E4912E2F2F73C2132FC00196E7FD02C0E5
:1046600090E080E0909300088093FF07EFEDF8E082
:10467000929182919383828388E0E130F807C1F7B9
:1046800010930108D0930208812F9D2F0E94720F72
:10469000E091EE0585E0E89FF0011124EE51FB4F1B
:1046A0001092EE05A2EEB4E001900D928A95E1F72A
:1046B000DF91CF911F9108958FEF97E00E94091627
:1046C0008111BFCF109200081092FF07CFCF0F9338
:1046D0001F93CF93DF93109200081092FF07C091B1
:1046E000FD07D091FE07C730D10580F40C2F0E9442
:1046F000730B10E0CC0FDD1FC150D84F101730F4F2
:10470000888199810E94F5221F5FF8CFDF91CF91B8
:104710001F910F9108958F929F92AF92BF92CF9267
:10472000DF92EF92FF920F931F93CF93DF938091CD
:10473000FD079091FE07892B09F4B4C08091D80140
:10474000882309F4AFC090900108F0900208292D49
:104750002777C22ECF2DC777E12CF7FC04C0E92CB8
:10476000EE1CEE24EE1C3F2D3770D32E0C2D10E0E6
:10477000F3FEA5C083E0E1E0831708F4EFEFEC0F50
:10478000F0E0E75BFB4F8081D0E0B0909E01A0900D
:104790009D012091FD073091FE0721503109309392
:1047A000FE072093FD07E1E0F8E0228133812193A9
:1047B000319328E0EF3DF207C1F78093E90481E0EF
:1047C0008093EE05892D9F2D0E944F0AA092E5044B
:1047D000B092E604F7FC12C097FE10C0C80164E076
:1047E000959587956A95E1F78295807F8D0D8093E9
:1047F000E3048091E20488608093E2040E946723CE
:104800008091D80181508093D801ECE9F1E0838157
:104810009481A58181939193A19331E0ED3BF307BE
:10482000B1F7E0ECF1E087ED91E0218121938E1763
:104830009F07D9F710924F01C093DE01C0929501F6
:10484000F801E75BFB4FE081F0E0E75DFA4F808124
:104850008093D9018D2D90E0EE2089F0D80144E0BD
:10486000B595A7954A95E1F753E0AA0FBB1F5A9556
:10487000E1F7A80FB91FA05BBE4FDC93D0E0EC2F8F
:10488000F0E024E0F595E7952A95E1F733E0EE0FA7
:10489000FF1F3A95E1F7E80FF91FE05BFE4FD08369
:1048A00010924301DF91CF911F910F91FF90EF90F4
:1048B000DF90CF90BF90AF909F908F900895D09150
:1048C0009C016C2FEE2091F0B801E4E0759567959E
:1048D000EA95E1F76295607F630F8091FC07D82F1E
:1048E000D295D695D695D3708F5FD80F862F90E04E
:1048F000FC01E75BFB4F5F0180808D2F0E943A0C2B
:10490000E82FF0E0E657FA4F9FEF9083F5018082A1
:104910003CCF6F927F928F929F92AF92BF92CF9235
:10492000DF92EF92FF920F931F93CF93DF938C014F
:104930006B017A010E94F61D782E8FEF781210C05D
:10494000DF91CF911F910F91FF90EF90DF90CF906B
:10495000BF90AF909F908F907F906F900C94D61BDC
:1049600071102BC08091EE059091EF07992399F07B
:10497000C82FD0E0DD57CE01DF91CF911F910F916D
:10498000FF90EF90DF90CF90BF90AF909F908F906F
:104990007F906F9008956091FB07DF91CF911F91F9
:1049A0000F91FF90EF90DF90CF90BF90AF909F90CE
:1049B0008F907F906F900C94590F0E94381A8E152B
:1049C0009F050CF07BC0EC018C159D050CF4E601F5
:1049D00080E0E82FF0E0EE0FFF1FE00FF11F918164
:1049E000A92FA777B0E0A75BBB4F2C91211111C075
:1049F00097FD0FC0908197FD0CC07A948150A72D30
:104A0000B0E0AA0FBB1FA00FB11F2D913C913183C5
:104A100020838F5F8715E8F2672DC8010E94F31B82
:104A2000872C912C880C991C800E911E612CC12C16
:104A300093E8D92EAA24BB24AE18BF08671409F442
:104A40009ACFF801808191810E94720F8091EE05CA
:104A50008C30C9F40E94381A919581959109C81635
:104A6000D9060CF46C01F801808191810E944F0AF3
:104A7000CC15DD050CF4E6010E5F1F4FCE15DF05EA
:104A8000ECF46394DBCF8091FA07811114C020917C
:104A9000F0073091F1078091F2079091F3078217A8
:104AA000930748F0442755274C1B5D0BB501C40103
:104AB0000E948924D1CF90E080E0CECFE7015BCF88
:104AC0005F926F927F928F929F92AF92BF92CF929E
:104AD000DF92EF92FF920F931F93CF93DF938C019E
:104AE0006B015A01522EC091EE0585E0C89FF0017E
:104AF0001124EE51FB4F84818436A0F06091FB07B6
:104B00008C2FDF91CF911F910F91FF90EF90DF904D
:104B1000CF90BF90AF909F908F907F906F905F905D
:104B20000C94590F0E94440A8111E8CF0E94100989
:104B3000823028F06091FB078091EE05E2CF8091F2
:104B4000FA078111A7C02091F0073091F1078091F9
:104B5000F2079091F3078217930708F49BC08091A6
:104B6000EE05851538F18C3089F4DF91CF911F91D6
:104B70000F91FF90EF90DF90CF90BF90AF909F90FC
:104B80008F907F906F905F900C94381AA501B601BA
:104B9000C801DF91CF911F910F91FF90EF90DF90AF
:104BA000CF90BF90AF909F908F907F906F905F90CD
:104BB0000C948924C8010E94F61D782EEFEF8E1305
:104BC00011C0DF91CF911F910F91FF90EF90DF9077
:104BD000CF90BF90AF909F908F907F906F905F909D
:104BE0000C94D61B81111DC08091EE059091EF07AA
:104BF0009923A1F0C82FD0E0DD57CE01DF91CF91EE
:104C00001F910F91FF90EF90DF90CF90BF90AF90EA
:104C10009F908F907F906F905F9008956091FB07B9
:104C200070CF682FC8010E94F31BE72CF12CEE0C0B
:104C3000FF1CE00EF11EC0E0D3E8612C882499240B
:104C40008A189B08F801808191810E94720F442785
:104C500055274C195D09252DB401C7010E94602517
:104C6000919581959109C817D9070CF4EC01F801C9
:104C7000808191810E944F0ACC16DD060CF46E01F2
:104C8000CA14DB040CF0B9CF63940E5F1F4F76108B
:104C9000D9CFB3CFD0E0C0E0B0CF0C941E370F9384
:104CA0001F93CF93DF930AE110E0CFEFDFEFC8014E
:104CB0000E944D269D2F9827892F82958F708927D6
:104CC000282F30E09C2FA901542F44275295507F64
:104CD00084279527E90175E0CC0FDD1F7A95E1F770
:104CE000C827D9270F5F1F4F0E3F83E01807F9F63B
:104CF000CE01DF91CF911F910F9108951F920F92D6
:104D00000FB60F9211248F939F938091E1009091A1
:104D1000E100937F9093E10083FF0FC01092E900C0
:104D200091E09093EB001092EC0092E39093ED00F1
:104D30001092480298E09093F00082FF22C093E026
:104D40009093E9009091F200992319F09AE39093DF
:104D5000E8009091E901992341F09091E901915087
:104D60009093E901911101C05D9A909147029923B6
:104D700041F090914702915090934702911101C0E8
:104D8000289A84FF18C08091E2008E7E8160809313
:104D9000E2008091E1008F7E8093E1008091EA0142
:104DA0008E7E80618093EA019F918F910F900FBE5C
:104DB0000F901F90189580FFF7CF8091E2008E7EB4
:104DC00080618093E2008091E1008E7E8093E1001B
:104DD0008091EA018E7E8160E5CF1F920F920FB61F
:104DE0000F921124CF92DF92EF92FF920F931F93B5
:104DF0002F933F934F935F936F937F938F939F93E3
:104E0000AF93BF93EF93FF93CF93DF93CDB7DEB70D
:104E10006C97DEBFCDBF1092E9008091E80083FF60
:104E200025C068E0CE0145960E94570E82EF809320
:104E3000E8008D8987FF39C09091E80090FFFCCF92
:104E4000982F907609F034C19E894F89588D2F890B
:104E5000F88C911131C0803861F58091E801809320
:104E6000F1001092F1008EEF8093E8006C960FB67F
:104E7000F894DEBF0FBECDBFDF91CF91FF91EF91D0
:104E8000BF91AF919F918F917F916F915F914F9162
:104E90003F912F911F910F91FF90EF90DF90CF9056
:104EA0000F900FBE0F901F9018959EEF9093E80003
:104EB000C7CF1092F100D5CF913059F48111D3CFE3
:104EC0004130510581F68091E8018D7F8093E801A2
:104ED000CACF933049F48111C6CF4130510519F63C
:104EE0008091E8018260F2CF953041F48091E80032
:104EF00080FFFCCF20682093E300B5CF963009F007
:104F0000A9C00B8D1C8D22E01092E9001092E601E1
:104F10001092E501F2122EC01092E4011092E3010A
:104F20000E94260E1F8299E09983FA8291E09E8367
:104F300090EA98879AEF99872091E5013091E601F0
:104F4000275F3F4F3C832B838D831092E9001092A3
:104F5000E6011092E5011093E4010093E30149E0BA
:104F600050E0BE016F5F7F4F80E00E94000E0E9404
:104F7000260E79CF1093E4010093E3010E940A0DFD
:104F8000DC0112960D911C910115110509F451C116
:104F9000D801ED91FC910480F581E02DBE016B5E9E
:104FA0007F4FC8010995009709F03EC1F8010085BF
:104FB0001185EACFF3E0FF120EC08F89882309F430
:104FC00040C0823061F440E867E087EA98E00E94E0
:104FD000CD0D811148CF81E28093EB0047CF813026
:104FE00029F440E86BE08BE998E0F1CF833099F742
:104FF0000E940A0DDC011296ED90FC908E010F5F6D
:105000001F4F6801E114F10479F0D701ED91FC9193
:105010000680F781E02DB801C7010995080F111D21
:10502000F701E084F184EECFD8011C92F6010190E3
:105030000020E9F73197BF016C197D0940E0C601F6
:10504000C6CF65E878E0FB01449150E080E80E941B
:10505000000E09CF973009F4BECF983021F481E0DB
:105060008093F10000CF993009F0FDCE837009F0F4
:10507000B2CFEEE0F1E081E031E096E3219122232E
:1050800071F08093E9003093EB00DF0111972C91D0
:105090002093EC009093ED008F5F873079F78EE7D7
:1050A0008093EA001092EA008F8980934802DBCE59
:1050B0008B8D9C8D1092E9001092E6011092E50113
:1050C0009093E4018093E301898D811192C08E89D0
:1050D0009D89913A49F4813209F07DCF47E050E053
:1050E00064E071E080E0B3CF913209F074CF833295
:1050F00069F48F89988DB0E0A0E0809300019093CF
:105100000101A0930201B0930301ADCE803269F496
:105110008091E80082FFFCCF67E084E091E00E948C
:10512000570E8BEF8093E8009ECE823209F09BCE23
:105130008F8980930B01EEEFFFE7859194918B3F70
:105140009C4D51F1E0E0F8E080910401909105015F
:10515000A0910601B0910701803B9440A105B105E3
:10516000F1F480910B0180FD1AC0EE3F8AE0F80750
:1051700089F587E797E7918380838091600080932A
:10518000E70188E19BE00FB6F894A8958093600052
:105190000FBE9093600067CEEEEFFAE0D5CF80812E
:1051A00091818737974709F05ECEA895809160007E
:1051B0008861809360008091E70180936000EE3FFA
:1051C0002AE0F20789F08091FE0A9091FF0A91830C
:1051D000808349CE808191818737980751F29093DF
:1051E000FF0A8093FE0AC5CF1092FF0A1092FE0AB2
:1051F0003ACE0E940A0DDC0112960D911C91011508
:10520000110509F4E8CED801ED91FC910190F081EF
:10521000E02DBE016B5E7F4FC8010995811123CE41
:10522000F80100851185EBCF181619060CF41BCE7A
:10523000D2CEF1E0FF12BECE69E878E004CF1F9233
:105240000F920FB60F9211242F933F938F939F933A
:10525000AF93BF9380914B0190914C01A0914D0170
:10526000B0914E013091440123E0230F2D3758F5C2
:105270000196A11DB11D2093440180934B01909391
:105280004C01A0934D01B0934E0180914501909146
:105290004601A0914701B09148010196A11DB11DA1
:1052A0008093450190934601A0934701B093480134
:1052B000BF91AF919F918F913F912F910F900FBE12
:1052C0000F901F90189526E8230F0296A11DB11D7F
:1052D000D2CF1F920F920FB60F9211243F924F928E
:1052E0005F926F927F928F929F92AF92BF92CF9276
:1052F000DF92EF92FF920F931F932F933F934F9361
:105300005F936F937F938F939F93AF93BF93EF932D
:10531000FF93CF93DF93CDB7DEB76197DEBFCDBFED
:105320000091DF011091E0010631110508F0DAC1AA
:10533000F801E356F64D0C944837B329C229ED29FC
:10534000FF29142B1F2B1F2B9F2BAF2AC02A0D2C9C
:105350000D2C0D2C162D232D612DBF2D132E722BF0
:10536000722B3E2E822E86E394E00E94F31580E09D
:105370000E9436111092DE0181E090E09093E001EE
:105380008093DF0186E794E00E94F315E091DE014F
:10539000F0E0EE0FFF1FE65DFC4F05911491CE018A
:1053A00001969E012F5E3F4FDC01A801481B590B5F
:1053B000FA01EA0FFB1FE491ED932A173B07C1F7AF
:1053C00060E10E94FD13869524E1281B44E16FEF04
:1053D000C8010E94281381E024C10E94701181E05D
:1053E0000E9436111092DE011092980181E08093A4
:1053F000990183E090E09093E0018093DF012EE338
:105400004EE060E080E00E942A122FE045E068E074
:1054100082E593E00E94281323E042E164E081E109
:1054200094E00E94281323E04AE16AE088E493E0D4
:105430000E94281323E042E266E082E493E00E94A7
:10544000281323E042E366E08CE393E00E942813F4
:1054500008E911E029E4E22E22E0F22E32E2532E96
:105460009E012F5F3F4F69014E0131E1830E911C78
:105470004CE3442E3801D801EC91F0E0EE0FFF1F11
:10548000EC5CFC4F8591949122E2452D6FEF0E94D8
:105490002813D8011296EC91F0E0EE0FFF1FE25DA9
:1054A000FC4FA590B490D601C5018C199D09FC0153
:1054B000EA0FFB1FE491ED938A169B06C1F760E1AA
:1054C000C6010E94FD13242D281B48E0450D6FEFF7
:1054D000C5010E9428130F5F1F4FF30180818111C6
:1054E0000DC0F701E05CFE4F970129593E4F8689B8
:1054F0008575868B31962E173F07C9F7F0E15F0E51
:1055000020E8E20EF11C32E45312B4CF8091DE01A8
:10551000E82FF0E03296B6E0EE0FFF1FBA95E1F704
:105520008823C1F09DE28130B1F09DE38330A9F082
:10553000853099F081E2E80FF11DE75BFD4F3EEF0A
:10554000891708F048CF2191DF01119723272C9369
:105550008F5FF6CF93E182E0EECF85E1ECCF0E9442
:10556000701181E00E9436110E94261480E00E9492
:10557000231189E090E09093E0018093DF01B2C0B5
:1055800080E00E94B91084E00E94A710882319F0DF
:1055900081E08093FA0790914901E92FF0E0EA5603
:1055A000FE4F82818F5F880F4091F0075091F10785
:1055B00002C0569547958A95E2F781E0911180E007
:1055C0009091900117E3891301C015E0F12C09E1D6
:1055D000040F402F69E1812F8F0D0E94FA11F3947F
:1055E00083E0F812F6CF49E369E18FEF810F0E9463
:1055F000FA1149E369E183E0810F0E94FA1102E0A8
:10560000010F48E1602F812F0E94C7114AE3602FEC
:10561000812F0E94C71181E09091FA07911101C07A
:1056200080E00E9423115EC00E94261481E00E9447
:10563000231185E090E09093E0018093DF010E94C8
:1056400070118091DF019091E0010697B1F46091B3
:10565000DE01862F869588776770660F660F660F66
:1056600090919001992331F098E3A92FA81B8A2FDC
:10567000961B692F41E00E948112009193011091C5
:10568000910140E0602F812F0E948112602F70E015
:1056900080919401282F30E0A9014F5F5F4F64177C
:1056A000750739F0620F731F6F5F7F4F75956795B0
:1056B000862F80939301812F90E020919201422FB9
:1056C00050E0BA016F5F7F4F8617970731F0840F64
:1056D000951F019695958795282F2093910181E03C
:1056E0000E943611809143018F5F80934301619640
:1056F0000FB6F894DEBF0FBECDBFDF91CF91FF9103
:10570000EF91BF91AF919F918F917F916F915F9139
:105710004F913F912F911F910F91FF90EF90DF904C
:10572000CF90BF90AF909F908F907F906F905F9041
:105730004F903F900F900FBE0F901F9018950E94B2
:105740007011E5EDF2E02CEF32E080818F708193F3
:105750002E173F07D1F7E5E1F3E08CE393E01192D8
:105760008E179F07E1F7E5E5F3E02CE733E0808152
:10577000887F81932E173F07D1F722E342E26CE046
:1057800084E10E942A128091FC0785FF44C080E0DA
:1057900090E0029627E0289F8001299F100D112498
:1057A00069E173E0C801855A9C4F0E94491161E28A
:1057B00073E0C8018E599C4F0E94491169E273E061
:1057C000C80187599C4F0E94491161E373E0C801E9
:1057D00080599C4F0E9449116091D9016E5F660FFC
:1057E000660F660F8091930190E0262F30E0A901AB
:1057F0004F5F5F4F8417950739F0BC01620F731F2D
:105800006F5F7F4F759567956093930140E088E1E6
:105810000E94811264CF86E0BBCFF0904301F1106B
:10582000ACC0E9E4F2E01192B4E0E934FB07D9F747
:105830000E94261481E00E9423110E947011FEE153
:10584000FF1508F46CC06091DE01A62FA770AA0FA7
:10585000AA0FAA0F80919501282F2770220F220FDF
:10586000220F6695687786958877909190019923A5
:1058700061F098E3392F3A1BA32FB92FB21B2B2FBE
:10588000E92FE61B6E2F981B892FEF2DF0E0EA54CD
:10589000FC4FE491F0E0861B990B8E9FA0018F9F37
:1058A000500D9E9F500D1124CA01809646E096959A
:1058B00087954A95E1F7680F2A1B330B2E9F40010D
:1058C0002F9F900C3E9F900C1124F0E28F0E911CA4
:1058D00056E0969487945A95E1F7A80D2091D90146
:1058E000822F877090E025FF4EC0019727E0289F08
:1058F000F001299FF00D1124CF01855A9C4F262FCE
:10590000277038E0639FB00111248A2E912C211159
:105910003CC0680D791D675B7D4F0E94491181E095
:105920000E9436118FE1F812DDCE0A30110509F020
:1059300074C0E0914901F0E0EA56FE4F828188236D
:10594000C9F08091F4079091F5078E3AACEF9A0771
:105950000CF45BC08630BFEF9B070CF458C0833556
:1059600023E092070CF055C08B3F91050CF053C01B
:1059700082E080830E94AD22B5CEEFE1FE125DCFC2
:105980000E94FD105ACF0596B1CF422FEEEFF0E006
:105990005F01022E01C0AA0C0A94EAF7E8E0E21BBC
:1059A0002E2FAFEFB0E06D0102C0D594C794EA95F9
:1059B000E2F7FC01DB01A07CB770A80DB91DA75B65
:1059C000BD4FBC01695F7F4FA094C094849190E06B
:1059D000EC90EA204C01042E01C0880C0A94EAF7EE
:1059E000E828ED92DF96EC90DF97EC20022E02C0C3
:1059F000959587950A94E2F78E29DF968C93DF9729
:105A00003196E617F70711F78ACF80E0B2CF81E031
:105A1000B0CF84E0AECF83E0ACCF0C30110509F0FD
:105A2000A9CF0E948B238BE090E0A5CD0E9470113E
:105A300081E00E9436111092DE018EE090E090939A
:105A4000E0018093DF012EE34EE060E080E00E9401
:105A50002A1280914201823070F12CE045E069E029
:105A600089EE93E00E94281336EDE32E33E0F32E07
:105A700012E1F701859194912BE0412F6FEF0E9485
:105A80002813185F32E0E30EF11C123391F7E09116
:105A9000DE0180E4E89FF0011124E753FD4F9F01F0
:105AA000255D3F4F9EEF8285892782873196E217D9
:105AB000F307C9F790CC29E045E06BE08EED93E069
:105AC000D1CF8091DE01882309F4A4C090914A01CE
:105AD000992309F49FC081502CE431E0829F30016A
