:100000000C940B060C9433060C9433060C943306B4
:100010000C9433060C9433060C9433060C9433067C
:100020000C9433060C9433060C9488220C94F7221B
:100030000C9433060C9433060C9433060C9433065C
:100040000C9433060C9433060C9433060C9433064C
:100050000C9433060C9433060C9433060C94292527
:100060000C9433060C9433060C9433060C9433062C
:100070000C9433060C9433060C9433060C9433061C
:100080000C9473250C9433060C9433060C943306AD
:100090000C9433060C9433060C9433060C943306FC
:1000A0000C9433060C9433060C9433062A232E2327
:1000B0002A3311002A232E232A3310002A232E2329
:1000C0002A330F0024252C01332423012F002F0174
:1000D000272D33242D2E2300EF000000000000F018
:1000E000000000000000F10000EF0000000000F040
:1000F0000000000000F100000000EF00000000F030
:1001000000000000F1000000000000EF000000F01F
:10011000000000F10000000000000000EF0000F00F
:100120000000F100000000000000000000EFDFF020
:10013000E1F10000000000000000000000EEEFF020
:10014000F1F2000000000000FFFFFFFFFFFFFF00D3
:10015000010101010101010000000000000E0F106B
:10016000111200000000000000000000000F1F102E
:100170002111000000000000000000000F0000102E
:1001800000001100000000000000000F000000103F
:10019000000000110000000000000F00000000102F
:1001A0000000000011000000000F0000000000101F
:1001B00000000000001100000F000000000000100F
:1001C00000000000000011041F02041F031F150A95
:1001D000031F051A030E191E031F041B0308141C1A
:1001E000031F1408030C12120308141F030C1A1423
:1001F000021E050312150F031F0418030E110E0330
:10020000121F10031915120311150A0307041F0307
:10021000171509030E150803011907030A150A0328
:1002200002150E0204040314081403040E04050A44
:100230001F0A1F0A05190D0C0D19051109080911CE
:10024000050111101109050911101109050D1918E1
:10025000190D030E1111031F041F031F1511051F94
:100260000204021F031E051E03011F01031F110EBE
:10027000050F100E100F03121509031F1010031F96
:10028000050203111F11040E11110E0307180704B4
:100290000F10100F040E11151D010A0301150202A3
:1002A0000000030000000404080402222F2425019A
:1002B000002926252A232425262324252623032C2A
:1002C000252A03232B23262C262C2D01130E332421
:1002D0002D2E2329270325283121222321052425FA
:1002E00026232A2D25273330252423000102030449
:1002F000050703E202AB02BC00B400AC00022A25F1
:10030000210528222C2623012328333025242300ED
:1003100000687C7C7C680000001400140000181C3D
:100320004A7E7E7C70204C7E377E4C20467C7E7CD4
:100330007E7C4643647D7E7D644344687A7F7A6830
:10034000440068544454680018144A72424C7020A7
:100350004C7221724C20467C4644467C4643645D88
:10036000465D644344685A4F5A68440000000001E7
:10037000020305070A0C1013161A1E22262A2D3016
:100380003436393B3D3E3F40404040B103CE00A7AC
:1003900003C40030252423332B252F292327302580
:1003A0002423332D2E230329252E233330252423E4
:1003B00000022521050021250121232A2D2E2303BA
:1003C00028032C26233329252E2332000000000089
:1003D000000000000000000000000000000000001D
:1003E00000000000000050F0F0800000000000005D
:1003F00000000000000000000000800000C4221285
:10040000CA3C000080604080804000008040202086
:10041000C0380600008060000080600000C0300826
:10042000040402222418000080603826C000000066
:10043000804020A06000000080702040800000000C
:1004400080702040800000000000000000000000DC
:10045000000000000000000000000000000000009C
:1004600000800100EA711AFF7E878383808080808C
:1004700000000000000000102020908D8381818109
:100480008F90908E81808C939088848E9190888EAE
:10049000919088848E9190888E9190888798A0A062
:1004A000A0A0A0909088948E8180808E9190888466
:1004B000878A91909088848A959888949388848A72
:1004C000959888949388404024180000000000000C
:1004D0000000000000000000000000000000100507
:1004E000421825D748B77FC9F7FEBFEB7F1F0F0320
:1004F0000000000000000C1201010000000040A0FC
:10050000F058E84040E0400000000000000000001B
:1005100000000000000000000000000000000000DB
:1005200000000000000000000000000000000000CB
:100530000000000000000000000040E04040E858DB
:10054000F0A04000000000000000000000000000DB
:1005500000000000000000000000000000400080DB
:100560009002A1BC4BABBEEFBBFEFF9FF9F0C0C039
:1005700080000000000000000000000000000000FB
:1005800001030200000000000000800000808000E5
:10059000800080000000800000800000808000005B
:1005A000804000800000C00000C00000800000C04B
:1005B00000004000800000804000800000400203F6
:1005C000410080400000400080000000002A0050F0
:1005D0000500B000045120088021089022400880C6
:1005E0001240010A69DBBAFDFFFEFFC10115890453
:1005F000A208441348A4126C813248A01A608852A1
:100600003144A81168528134688132888016AA0862
:1006100096AB041AC728168BA41A87A80E92AD0AA7
:1006200046B94E72D12C52F10876E118D46330CC21
:100630005132E44930D621E894032E548B158EA50F
:100640001906AE510E95228D1EA00B00005000140D
:1006500000801400088002044002094006010012D4
:100660004500806813EEFD37FFFFBFFFF8E0C318B9
:10067000A44118A04AA800DA20886A9008E2300C49
:10068000E0110C5000850822870802AB048209069D
:10069000AA01068D23028D22078C2207C9AE739111
:1006A0005864B1906C51B0D429B0C83AE0115CE004
:1006B0001174C81075C810F0060D238C0B220C4B5A
:1006C00002AD0A01AE0209A60A1186000009000265
:1006D00028000A100204100904002B00080300304F
:1006E000C02C92E91DF6ABDF7FEBFFDFF77FFFEE5B
:1006F000FCFCFAA000628048224008A21008972261
:1007000008952A118658052A114E8932049D22091E
:100710005688132E900B14926D8A01608A44A012A1
:1007200041A44840952248806A00D224488360143E
:10073000C16802D025806806398B1416A91517A840
:10074000132E81182F8219244B12140000A00000D0
:100750005000001080000020000080100080220067
:10076000045A0015564D15565D9F572DFFAF2BDFD0
:10077000AE37CF6F10966111886012887082186052
:1007800042985022945040B5006A9020CA30856843
:1007900010A2681482200C83540986290A84258BB0
:1007A00004A90A86218D0AA10D9205288B45140AF9
:1007B000A10E02294608937004897004D122885042
:1007C00025D00228D002A950049160D5F08D14A143
:1007D000C881CFD9F1AF2000080B0002020200004F
:1007E0000904000001020200000524001001052494
:1007F0000101010424020605240600010705810306
:1008000010004009040100020A000000070502026E
:1008100040000007058302400000040309041201A0
:100820000002EF0201404123368000010102030172
:1008300041726475696E6F204C4C4300417264755F
:10084000626F79000000000000000000000000005E
:100850000000000000000000000000000000000098
:100860000000000000000200000000000001000085
:100870000000000002000002000000000001000073
:100880000000000200000000020000000001000063
:100890000000020000000000000200000001000053
:1008A0000002000000000000000002000001000043
:1008B0000200000000000000000000020401040229
:1008C00000000000000000000000000420102004D0
:1008D0000000000000000101010101010800080101
:1008E00001010101010000000000000480408004BB
:1008F00000000000000000000000000204010402EB
:1009000000000000000000000000020000010000E4
:1009100002000000000000000002000000010000D2
:1009200000020000000000000200000000010000C2
:1009300000000200000000020000000000010000B2
:1009400000000002000002000000000000010000A2
:100950000000000002EFF10F11F010FF01DFE11FB6
:1009600021EE0EF21200208004A259FBF8000404CC
:100970000C0D1424FDFFFFFFBDFFFFBFFFFFFFFFB6
:10098000FFFFFFFFFFFFFFFFFFFFFFFFFFFFFFFF77
:10099000FFFFFFFFFFFFFFFFFFFFFFFFFFFFFFFF67
:1009A000FFFFFFFFFFFFFFFFFFFFFFFFFFFFFFFF57
:1009B000FFFFFFFFFFFFFFFFFFFFFFFFFFFFFFFF47
:1009C000FFFFFFFFFFFFFFFFFFFFFFFFFFFFFFFF37
:1009D000FFFFFFFFFFFFFFFFFFFFFFFFFFFFFFFF27
:1009E000FFFFFFFFFEFFFFFFDEFFFFDF0001010350
:1009F00003050900EFF0F1FF010F101100000000E6
:100A000000000000DC00DB00D000CF0086008F007B
:100A100087008500540058005500560042004700EA
:100A200048004F003E0045004500420041004E0096
:100A30004C003A000000000000000000BE00EB0087
:100A4000F9000501F5000A0120011D010201230141
:100A50002F013201110123013001330108011C0172
:100A600026012901FD0013011A012201FA000101EA
:100A70000F011301EA00FD00FB0000010C01100151
:100A80000C0114011101270124011F011C012A017D
:100A90002E012C011F012601310138011B01260105
:100AA0002D0136011D0127013001300115012B01F7
:100AB000240124010B01170110011701E001E201DB
:100AC000E901EE01E101E601EE01EA01D601E001F2
:100AD000E501E401D301D601E501E101C901D40139
:100AE000DB01DB01C101CF01D401D401BA01CB018B
:100AF000D401D601C701CB01D901DD01640375031F
:100B000089038903700371038E038E037C038203C0
:100B10008F039703760378038903880370037A03AE
:100B20007F0380036E0376037E037A035803660314
:100B30007D0377035F035D0364037703DEFFF8FF44
:100B4000F2FFEBFF00000D00110009000300190087
:100B500018000900F5FF0E0012000E00EBFFFEFF6B
:100B60000B000C00F0FF010007000800F0FFFFFF82
:100B7000FFFFFDFFE0FFF8FFECFFEDFF0C001100B1
:100B80000D000E0007000A000A000A001B001600F4
:100B90000E000F001E001200090003001A001700CB
:100BA0000D0007000400FFFF040009000F0006000D
:100BB00007003500A0FFD5FFF7FFFBFF070005008A
:100BC0000D000A000D0009000A0003000000FFFFED
:100BD000010001005FFFC9FFDFFFEEFFF5FFF9FF36
:100BE000FEFFFEFF030007000A00100014002000B3
:100BF0001E002B0011000700E7FF0400190013007E
:100C00000D00070004000300F8FFFAFFF3FFF2FFF6
:100C1000F2FFEEFFE32C11241FBECFEFDAE0DEBFC0
:100C2000CDBF11E0A0E0B1E0E4EDF6E602C0059032
:100C30000D92A033B107D9F728E0A0E3B1E001C0DD
:100C40001D92AA3CB207E1F716E0CBE0D6E004C063
:100C50002197FE010E946233CA30D107C9F70E9472
:100C6000F82C0C9468330C9400008F929F92BF92E2
:100C7000CF92DF92EF92FF920F931F93CF93DF9368
:100C8000EC01DC010DE715E091E09617D8F512961E
:100C9000BC90129713967C911397F80181918F0164
:100CA000292F422F50E0FA01E558FA4F7F01FA014F
:100CB000EE0FFF1F4F018C0E9D1E44585A4FF70137
:100CC0003081381784F46401F2E0CF1AD108F601BC
:100CD000C080D180F401D182C082F7013081FA0155
:100CE00030832150F1F630E0F901EE0FFF1FEC0FD9
:100CF000FD1FB082718324583A4FF90180839F5FB2
:100D00001296C3CFDF91CF911F910F91FF90EF907B
:100D1000DF90CF90BF909F908F900895EAE3F2E02C
:100D2000A0E0B4E000800EBC8111012C1197A0FD61
:100D3000FDCF0192B9F70DB4089592E0960F4AE005
:100D4000460F4917E9F0292F30E0F901E558FA4F2D
:100D5000508157FF13C0265E3A4F462F4295469565
:100D6000469543706F5F640FD9016C938083E82FC1
:100D7000F0E0E65CFB4F9083892F08959F5FE1CF01
:100D800080E00895E62FF0E0E35DFA4F9081915006
:100D90009083292F30E0F901E65EFA4F460F408339
:100DA00025583A4FF9018083E82FF0E0E65CFB4FCD
:100DB0009083892F08956F927F928F929F92AF9226
:100DC000BF92CF92DF92EF92FF920F931F93CF9338
:100DD000DF93CDB7DEB7C054D1090FB6F894DEBFAC
:100DE0000FBECDBFE091DB0545E0E49FF00111248B
:100DF000ED52FB4FE48054E080E05E1508F0C1C086
:100E0000FE013196DF01BE016F5B7F4F1192E61745
:100E1000F707E1F730E020E0F12C80E055E0C52E47
:100E2000922FD22E2E150CF064C04091DB052417B2
:100E30000CF092C050E0421B530BC49EF001C59EC3
:100E4000F00D1124ED52FB4FB080E1818E2E8B18F6
:100E5000F80CF0E0AF01465C5B4F3A01FA0190807C
:100E6000492D50E08A01005211090A0F1B1FF80199
:100E7000A080A80CA0820B2D10E0065C1B4FF8018F
:100E80009082F301108245585A4FFA01B082F11056
:100E90006DC08D014AE354E0F801B1908F01BB2091
:100EA000B9F0FA01EF59FE4FE081EB0DE7FD5CC0B0
:100EB000F0E0E65CFB4FE081EE2309F455C0F0E082
:100EC000E65EFA4FB080FA01F395E081BE124CC0A5
:100ED0004F5F5F4F60177107F9F641E090FF46C022
:100EE000442309F443C08F5F813009F43FC091E08F
:100EF0009D0D915050E040E0692F092E000C770BBA
:100F000035E0F32E97FD3DC02091DB0592178CF55F
:100F100030E0FB01E41BF50B2E1B3F0BF29EF001B2
:100F2000F39EF00D1124ED52FB4F20813181E22F11
:100F3000F0E0E65CFB4F2081032F10E0065C1B4FC6
:100F4000D8012C931082E22FF0E0E558FA4F30835D
:100F50004F5F5F4F9150D6CFE22FE41BF0E0EE0FD2
:100F6000FF1FE651F84F70CF40E0B8CF2F5F3F4FE3
:100F700057CFE92FE21BF0E0EE0FFF1FE651F84FCD
:100F8000D4CFC05CDF4F0FB6F894DEBF0FBECDBF2D
:100F9000DF91CF911F910F91FF90EF90DF90CF9055
:100FA000BF90AF909F908F907F906F900895E0E6F4
:100FB000E827F0E0E558FA4F9081911115C0282FED
:100FC00030E0F901E558FA4F4081442331F192E0D5
:100FD000980F865F891751F0E92FF0E0E558FA4F36
:100FE00050819F5F57FDF6CF80E008954530A8F00F
:100FF0004630D1F7245D3A4FF901208180E0921705
:1010000099F3E92FF0E0E558FA4F308137FD03C03E
:101010008111EBCF81E09F5FF2CF81E00895809155
:101020002E010E94D707811104C080912D010C94DC
:10103000D7070895DF92EF92FF920F931F93CF93FC
:10104000DF93E091DC0730E63E273093DC07682F22
:101050006777592F5777A52FB0E0A65CBB4F4C910F
:10106000C091DB052FEF2C0F2093DB0505E0C09F1F
:10107000E0011124CD52DB4F2A81C22FD0E0782F1E
:101080007078F92FF8787F2B09F448C097FF62C079
:10109000842F90E08C01065E1A4FF8017081E72FD3
:1010A000E770F0E0E451F64FD490E32EF12CF70115
:1010B000E558FA4F70817F5F7D197083F8011082C7
:1010C00085589A4F3FEFFC0130838091DC0790E018
:1010D000FC01E45DFA4F3081FC014317A0F5E45DAB
:1010E000FA4F832F815080838091DC0792E0980F24
:1010F0003AE0380F391791F0092F0052110B065CB6
:101100001A4FF8017081711123C031E0380F8295B8
:10111000869586958370830F8083492F222389F1DA
:10112000C65EDA4FE881E770F0E0E451F64FE491F3
:10113000C091DC0780E6C827D0E0C558DA4F888127
:10114000E80FE8831EC0E35DFA4F80818F5FCBCF4D
:101150009F5FD0CF8E0105581A4F93FF3AC05617A4
:1011600040F58CEF860FE82FF0E0E65CFB4F208324
:10117000EFEFE60FF0E0E65CFB4F1082E8018883BA
:1011800020E0E62FF0E0E65CFB4F4083E42FF0E048
:10119000E558FA4F60832C93E22FF0E0E558FA4FC0
:1011A0005083DF91CF911F910F91FF90EF90DF90CF
:1011B000089583E0860FE82FF0E0E65CFB4F208384
:1011C000E1E0E60FF0E0E65CFB4F1082F80180837F
:1011D000D7CF87FFA3CF80E3850F831BC82FD0E035
:1011E000C65CDB4F2883E8018883F0E0E558FA4FBE
:1011F00080818F5FECCF482F862F642F60764770F9
:101200004330D9F020F4413078F480E0089547303D
:10121000B8F14730D1F791E0960F292F30E0F9016E
:10122000E65EFA4F695F20C0E62FF0E0E558FA4F1E
:1012300090819F5F90830C949D06262F30E0F901EA
:10124000E558FA4F90819D5F90832E503109F90146
:10125000E65CFA4F908141E0490F4083292F30E04E
:10126000F901E65EFA4F6D5F608325583A4FF90148
:101270008083E82FF0E0E65CFB4F9083892F089590
:10128000E42FF0E0E451F64FE491A62FB0E0A5582A
:10129000BA4F9C91E90FEC930C94C206962F282F1D
:1012A00022952F70362F32953F70321337C0242F7E
:1012B000861708F58F5FE82FF0E0E65CFB4F908122
:1012C0009923C1F368132AC02F5FE22FF0E0E65C98
:1012D000FB4FE081EE23C1F38091DC078E23F1F414
:1012E000F0E0E65EFA4FE081E770F0E0EB59F64F90
:1012F0008081817008958150E82FF0E0E65CFB4F1B
:1013000020812223C1F3841309C09150E92FF0E01A
:10131000E65CFB4FE081EE23C1F3DECF80E0089571
:10132000FC0180913902882311F13FB7F89482E0E3
:101330008093E9002091F200822F90E018161906A0
:1013400014F481E090E0882339F0289844E6409333
:1013500038024091F1004083222339F02091F200BD
:10136000211103C02BE62093E8003FBF08958FEFC3
:101370009FEF08952FB7F89483E08093E900909150
:10138000E800892F807295FF04C09091F20080E4FC
:10139000891B2FBF08958091300281110DC082E01A
:1013A00080932C0284E080932D0210922F021092E1
:1013B0002E0281E0809330028CE292E00895CF9378
:1013C000DF931F92CDB7DEB76983DC01ED91FC910D
:1013D0000280F381E02D41E050E0BE016F5F7F4F5E
:1013E00009950F90DF91CF91089583E08093E900F4
:1013F0008091F200882319F08AE38093E800089531
:101400000E94BA0990E00895CF93DF931F92CDB761
:10141000DEB7FC018485958597FD08C02FEF3FEF6F
:10142000358724870F90DF91CF910895CE010196E3
:101430000E949009019719F4898190E0F3CF8FEF12
:101440009FEFF0CF0F931F93CF93DF931F92CDB7F2
:10145000DEB78C01FC018485958597FF0BC0CE011A
:1014600001960E949009019771F4898190E0F8013A
:1014700095878487F801848595850F90DF91CF91BA
:101480001F910F9108958FEF9FEFF1CFFC0184859D
:10149000958597FD0BC09FB7F89482E08093E90093
:1014A0008091F2009FBF90E0019608959FB7F89455
:1014B00082E08093E9008091F2009FBF90E0089560
:1014C0004091D6015091D7012091D4013091D5019E
:1014D00042175307B4F49091E8009570E1F39091AE
:1014E000E80092FD19C08093F1008091D60190919F
:1014F000D70101968F739927892B19F48EEF80936A
:10150000E8008091D6019091D70101969093D70180
:101510008093D60181E0089580E00895EF92FF92D4
:101520000F931F93CF93DF93F82E192FE62E042FDE
:1015300081E0860F880F0E94600A83E00E94600AA3
:10154000CF2DD12FEC0EFD2EF11CCE15DF05B9F0FD
:1015500007FF13C0FE0184910E94600A182F80E0EB
:101560000E94600A812321968111EFCFDF91CF91F4
:101570001F910F91FF90EF9008958881EDCF81E04A
:10158000F5CFDF92EF92FF920F931F93CF93DF93EC
:10159000D82E8A01EB017B01E40EF51ECE15DF0586
:1015A00059F0D7FE12C0FE0184910E94600A219674
:1015B0008111F4CF0FEF1FEFC801DF91CF911F9181
:1015C0000F91FF90EF90DF9008958881EECF0F93F9
:1015D0001F93CF93DF931F92CDB7DEB782E089834D
:1015E00042E450E068ED77E080E80E94C10A0E9482
:1015F000CB09DC0112960D911C910115110589F0A2
:10160000D801ED91FC910280F381E02DBE016F5F66
:101610007F4FC801099597FD04C0F8010085118529
:10162000ECCF89810F90DF91CF911F910F91089599
:10163000615030F02091F100FC0120830196F8CF39
:10164000289884E68093380208953FB7F8948091F3
:101650003F0190914001A0914101B091420126B516
:10166000A89B05C02F3F19F00196A11DB11D3FBFDA
:10167000BA2FA92F982F8827BC01CD01620F711DA9
:10168000811D911D42E0660F771F881F991F4A95A3
:10169000D1F708958F929F92AF92BF92CF92DF922F
:1016A000EF92FF926B017C010E94250B4B015C01C4
:1016B000C114D104E104F104B9F00E94250B6819AA
:1016C00079098A099B09683E73408105910580F379
:1016D00021E0C21AD108E108F10888EE880E83E003
:1016E000981EA11CB11CE4CFFF90EF90DF90CF902B
:1016F000BF90AF909F908F90089565E070E080E07C
:1017000090E00C944A0B8F929F92AF92BF92CF922F
:10171000DF92EF92FF920F931F93CF93DF936C01B1
:101720007B018A0180910B01882309F45CC08091C0
:101730003902882309F457C08091DB0180FF05C07E
:101740008091E00082608093E000E801B12C8AEF94
:10175000A82E93E0892E2AE3922E209711F4BB2025
:10176000D9F10E94BA0981110AC0AA94AA20D9F11C
:1017700061E070E080E090E00E944A0BEECF8C17B1
:101780001D0611F00CF08C2F9FB7F8948092E900A1
:101790002091E80025FD02C09FBFDFCF282F30E059
:1017A000C21BD30BF701815020F041914093F1000F
:1017B000FACFE20EF31EBB2021F09092E800B12C8C
:1017C000EBCF8091E80085FDE7CF9092E800BB2445
:1017D000B394209709F3F3CF5D9884E68093DA0100
:1017E000101611063CF081E090E0F60193838283AD
:1017F00010E000E0C801DF91CF911F910F91FF90A1
:10180000EF90DF90CF90BF90AF909F908F90089512
:101810008EBD00000DB407FEFDCF08955C980895BD
:101820005C9A089590E1699FB001112480FD03C086
:10183000719561957109CB010895282F30E083FBE4
:10184000882780F996E0359527959A95E1F72270DB
:10185000822B8D5F08958F929F92AF92BF92CF920D
:10186000DF92EF92FF920F931F93CF93DF93A0919C
:10187000DB0525E0A29FF0011124ED52FB4FAF5F85
:10188000A093DB05A29FD0011124AD52BB4F238151
:1018900013962C931397248114962C9314978C935E
:1018A00011969C931197382F392B387899F4E82F9B
:1018B000F0E0E65CFB4F4091DC073EEF341B4081DB
:1018C000340F383038F0E92FF0E0E65CFB4F308120
:1018D0002F5F311120E014962C931497382F37770F
:1018E000292F2777D22E432F50E08A01065C1B4F09
:1018F000F80120816D2D70E0FB01E65CFB4F7F015C
:10190000C080CC2DD0E0CC20A1F0FE01E65EFA4FE5
:10191000E081E770F0E0E451F64F9490A090DC078E
:10192000F0E6AF26B12CF501E558FA4F8080891812
:1019300080821296CC9212974C58564FFA014491DD
:10194000FB01EC58F64FE491E42313964C91139766
:10195000E4231396EC931397592F5878482F407827
:10196000452BA1F197FF61C0A22EB12C0E941D0C46
:10197000F501E65CFB4FDF01A052BF4F1C92EF5B0D
:10198000FE4F9FEF90834091DC07A42FB0E083309F
:1019900009F43CC0A35DBA4FEC912FEF2E0F2C93AE
:1019A000E22FF0E0E65EFA4F9091DC07980F90830B
:1019B000E82FF0E0E451F64FE491A091DC07B0E0AD
:1019C000A558BA4F8C918150E80FEC93F701208312
:1019D000F8011082E22FF0E0E558FA4FD082C558A6
:1019E000DA4F8FEF88838091DC0790E68927809318
:1019F000DC07DF91CF911F910F91FF90EF90DF9067
:101A0000CF90BF90AF909F908F900895FD01E45DBF
:101A1000FA4F2081922F9F5F9083E22FF0E0E65EE5
:101A2000FA4F9091DC079D5FC2CF93FF2AC0D31677
:101A3000D8F4ECEFE30FF0E0BF01665C7B4FFB01F5
:101A4000408112964C9312973150832F90E0865C20
:101A50009B4FFC014083FB0110821296EC91F0E059
:101A6000E558FA4F3083B2CFE3E0E30FF0E0BF0177
:101A7000665C7B4FFB01408112964C9312973F5F4F
:101A8000E4CF87FFA3CF4091DC078D2D841B805DC1
:101A900090E0865C9B4FFC01308112963C93108253
:101AA000A32FB0E0A558BA4F8FEF8C9380E6E42FB8
:101AB000E827F0E0E558FA4F80818150808386CF97
:101AC0005F926F927F928F929F92AF92BF92CF92CE
:101AD000DF92EF92FF920F931F93CF93DF93E090EB
:101AE0004501F0904601E114F10409F4ACC0809086
:101AF0004701882009F4A7C06090EA07D090EB075F
:101B0000262D2777722ECD2DC777C12CD7FC04C088
:101B1000C62CCC1CCC24CC1C3D2D3770932E072D0D
:101B200010E0D3FEA0C083E0E1E0831708F4EFEFFC
:101B3000EC0FF0E0E65CFB4F8081D0E0B0906201FA
:101B4000A0906101EAEEF7E0228133812193319385
:101B500028E0E83CF207C1F78093DA0481E0809343
:101B6000DB05862D9D2D0E941A08A092D604B09206
:101B7000D704D7FC12C067FE10C0C80164E0959579
:101B800087956A95E1F78295807F890D8093D404CB
:101B90008091D30488608093D30431E0E31AF10884
:101BA000F0924601E09245018A9480924701E0E676
:101BB000F1E081E891E023813481458121933193E3
:101BC00041938E179F07B9F7E8E4F1E08FE591E0C4
:101BD000218121938E179F07D9F7C093D10170926D
:101BE000CF01F801E65CFB4FE081F0E0E65EFA4FE2
:101BF00080818093D001892D90E0CC2089F0D8019C
:101C000044E0B595A7954A95E1F753E0AA0FBB1FAD
:101C10005A95E1F7A80FB91FA957BE4FDC93D0E042
:101C2000EC2FF0E024E0F595E7952A95E1F733E015
:101C3000EE0FFF1F3A95E1F7E80FF91FE957FE4F46
:101C4000D0831092CA01DF91CF911F910F91FF9025
:101C5000EF90DF90CF90BF90AF909F908F907F904C
:101C60006F905F900895D09160016C2FCC2091F01F
:101C7000B801E4E075956795EA95E1F76295607FB4
:101C8000630F8091DC07D82FD295D695D695D37067
:101C90008F5FD80F862F90E0FC01E65CFB4F5F0161
:101CA00050808D2F0E94FB08E82FF0E0E558FA4F96
:101CB0009FEF9083F501508241CF2091380130E0B1
:101CC000209530954091430150E02423352390E046
:101CD0002823392381E0232B09F480E008959FB164
:101CE0009095907F669B98601C9B94602091430127
:101CF0009227E0E3F1E031E060E050E0492F432338
:101D000099F040814F5F481760F44083330F6F5F55
:101D10003196683099F720933801252720934301A5
:101D200008951082532BF2CF1082F0CFCF93DF9320
:101D300087E891E04AE354E0DA0130E020E0ED91F9
:101D4000EE23B9F0F0E0E65EFA4FEC01C20FD31FCC
:101D5000608168832F5F3F4F2830310581F70896F7
:101D6000405F5F4F21E0873C920731F7DF91CF91D1
:101D70000895ECE0F1E0E9CFCF93C82F0E940E0C5C
:101D800081E20E94080C80E40E94080C8FE70E9408
:101D9000080C0E94100C8C2FCF910C948E06CF93C0
:101DA000C82F0E940E0C81E20E94080C80E00E9465
:101DB000080C8FE30E94080C0E94100C8C2FCF910E
:101DC0000C948E0698E0899F90011124260F311DF6
:101DD0008830E8F0683030F0F901E750FE4F90812C
:101DE00090689083F901E650FE4F97E04191DF0142
:101DF000119740684C939150C9F79091C80198335E
:101E000030F4F901EF5FFD4F908190689083683066
:101E100048F4F901EF5BFD4F90819F679083883311
:101E200060F00895F901E75CFD4F90819F67908312
:101E3000683378F3883318F00895683030F0F9018A
:101E4000E75CFD4F808180688083F901E65CFD4F8F
:101E500087E09191DF01119790689C938150C9F7B9
:101E6000683350F7F901EF5BFD4F80818068808314
:101E70000895DB01FC0124912C933196E491119695
:101E8000EC931197FC013296E4911296EC93129721
:101E9000FC013396E4911396EC931397FC0134966E
:101EA000E4911496EC931497FC013596E491159601
:101EB000EC9315970696FC01849116968C930895E1
:101EC000CF92DF92EF92FF920F931F93CF93DF9306
:101ED00087E0E82E0AE312E097E0D92ECD2CCE1849
:101EE000E801F12C8091C7018823A1F1ED2DEF19B4
:101EF0008E2D28E0829FC0011124E80FF92FF11DDB
:101F0000E957FE4F2081222351F1822F877090E004
:101F100025FF23C00197D89E9001D99E300D112432
:101F2000C901805F9C4FBE010E94390F2896F3942F
:101F300088E0F812D7CF005C1F4FEA942FEFE2122F
:101F4000CDCFDF91CF911F910F91FF90EF90DF9058
:101F5000CF9008958C2DEF2DCCCF0596DCCF8C2D16
:101F60008F0D80FDE3CFBE0187E193E0DDCF98E0E8
:101F7000899FF0011124E07CF770E40FF11DE65C0D
:101F8000FD4F982F97702FEF30E001C0220F9A95E8
:101F9000EAF79081922B9083E05CFF4F887F885F07
:101FA00070E06F5F7F4F9FEF885F8617170609F01D
:101FB00024F49083E05CFF4FF7CF6770772781E0D0
:101FC00090E001C0880F6A95EAF781509081892BD3
:101FD00080830895282F277091E001C0990F2A95DA
:101FE000EAF728E0829FF0011124E07CF770E60F09
:101FF000F11DE65CFD4F461738F08191DF01119726
:10200000892B8C936F5FF7CF089598E0899FF0013B
:102010001124E07CF770E60FF11DE65CFD4F877040
:1020200021E030E001C0220F8A95EAF78081822BFF
:1020300080830895CF92DF92EF92FF920F931F93C8
:10204000CF93DF93D82F062FC42F122FFF24FA949B
:10205000F20EEE24E394E60E4F2D6E2D0E94EA0F51
:102060004F2D6E2D8C2F0E94EA0FDD24DA94DC0EAA
:10207000CC24C394CD0E402F6D2D8C2D0E94B70F14
:10208000412F6D2D8C2D0E94B70F0E5F602F8C2D70
:102090000E9405101250612F8C2D0E940510602F98
:1020A0008D2D0E940510612F8D2D0E940510DE5F81
:1020B0006E2D8D2F0E9405106F2D8D2F0E94051003
:1020C000C2506E2D8C2F0E9405106F2D8C2FDF912A
:1020D000CF911F910F91FF90EF90DF90CF900C94D4
:1020E0000510AF92BF92CF92DF92EF92FF920F93C3
:1020F0001F93CF93DF9338E0439FF0011124E07CDE
:10210000F7702E0F3F2F311D265C3D4F4770042F77
:10211000EFE1F0E0DF01042E01C0AA0F0A94EAF714
:1021200058E0541BC52F02C0F595E7955A95E2F784
:102130007C01BA2EB0949E2F9095662309F43FC07F
:10214000F70141917F01442309F439C087ECC82E7F
:1021500081E0D82E4150F601141634F4A491B0E079
:102160001196CA0EDB1EF6CF7491A22ED9013196BC
:102170008A2F8A19871740F0472F50E04F5F5F4F33
:10218000240F351F6150D9CF449150E08C918B21A1
:102190006A01002E01C0CC0C0A94EAF78C298D93B9
:1021A000DF968C91DF9789230C2E02C055954795B9
:1021B0000A94E2F7482BDF964C93DF97D8CFDF9154
:1021C000CF911F910F91FF90EF90DF90CF90BF9034
:1021D000AF900895CF93DF93CDB7DEB760970FB67A
:1021E000F894DEBF0FBECDBF613108F060E1FC01A5
:1021F000CE010196DC0134913D9331963A2F381B84
:102200003617C8F30E94711060960FB6F894DEBFBF
:102210000FBECDBFDF91CF9108952EE34EE060E079
:1022200080E00E941A108091D001811107C087EAD6
:1022300093E02CE045E069E00C94EA1082EE92E035
:10224000F8CFCF92DF92EF92FF920F931F93CF932D
:10225000DF9300D000D0CDB7DEB7F82E162F4CE0BC
:10226000460F2EE360E0812F0E941A10E090860155
:102270008091D2019091D301449711F1FE1020C0BA
:1022800092E0C92EC10E03E02AE0D22ED10E602FBB
:102290008C2D0E940510602F8D2D0E9405100E5F61
:1022A0000D33A9F703E0D02ED10E62E08D2D0E94F0
:1022B00005106CE38D2D0E9405100E5F0B3099F711
:1022C0002F2D30E086E0359527958A95E1F7F901C5
:1022D000E353FE4F00811C5F002319F12C573E4F42
:1022E000F9018081845E8C8324E0412F61E0CE017E
:1022F00004960E9471108AE289838EE28A83025FCB
:102300000B832BE0412F63E0CE0101960E947110F8
:10231000FE100EC08091D2019091D301089741F434
:1023200012C024E0412F65E08BEA92E00E94EA109F
:1023300082E093E0F5FC02C08DEF92E023E2412FB2
:1023400065E00E94EA100F900F900F900F90DF91C0
:10235000CF911F910F91FF90EF90DF90CF90089554
:10236000DC019C91992319F1E7ECF1E0915098F48C
:102370001196952F6150D9F08D918823C1F0E7EC2B
:10238000F1E0815080F04491242F30E02F5F3F4FE7
:10239000E20FF31FF6CF5491252F30E02F5F3F4F10
:1023A000E20FF31FE3CF81E0840F980FE3CF892F73
:1023B00008952F923F924F925F926F927F928F92E9
:1023C0009F92AF92BF92CF92DF92EF92FF920F93C4
:1023D0001F93CF93DF93CDB7DEB728970FB6F8944E
:1023E000DEBF0FBECDBF1091C70160E0111101C06B
:1023F00062E380912E010E94211162E3111101C05C
:1024000060E080912D010E942111A0904501B090C3
:1024100046013FEFA31AB30A6501D694C79446E07C
:10242000C416D10408F054C086E090E08C199D09D0
:10243000982F990F990F891B880F9CE2592E580EDF
:10244000312CBEE02B2E80904501909046018DE00E
:10245000851508F0B6C0E32CF12CE814F90408F057
:10246000B0C0F701E85BFE4F4080F701EE0FFF1FA1
:10247000E651F84F8081918119821A821B821C8259
:102480001D821E821F821886292F277093FF2CC061
:10249000298298E19A832B82243010F49C832D8228
:1024A000E82467E0CE010196E0FE71C00E94B01101
:1024B00086958D3008F08CE02AE1281B452D67E0D9
:1024C000CE0101960E947110FAEF5F0E3394BBCFDC
:1024D0008091D2019091D3010CE2502E449709F0E3
:1024E000AFCF16E2512EACCF342D37708E010F5F77
:1024F0001F4F332321F039838E010E5F1F4F44FE9F
:1025000007C0382F37703A5FD8013C930F5F1F4FD9
:1025100045FE0AC0382F377732953F70B6E1B31BBE
:10252000F801B0830F5F1F4F43FE05C0E9E1D801FA
:10253000EC930F5F1F4F2A5FD8012C93292F277729
:1025400022952F70B6E1B21BF801B183380197FDD7
:1025500009C0F2E06F0E711C46FE13C03AE1F301B0
:1025600030839ECF33E0630E711C0E941D0C83509C
:10257000990BFC01E451FD4FE491D8011296EC93C4
:10258000EBCF47FE8DCFEBE1D301EC9389CF0E94D7
:10259000B011482F50E09A012F5F3F4F3595279596
:1025A00094E3921B292F490F511D4134510514F01A
:1025B00020E4281B452D67E0CE0101960E94711092
:1025C00085CF6090D2017090D301A4E16A167104A6
:1025D000E9F410913901163041F420E04CE269E051
:1025E00089ED92E00E94EA1011C0123078F020E0EC
:1025F0004CE265E084ED92E00E94EA10133009F4A9
:1026000068C008F055C0123009F45DC0892809F48B
:1026100080C02AE030E0C601B9010E944E335EE07E
:10262000F52EF80EC50164E170E00E944E33CB0137
:10263000B9010E944E330EE0080FC50168EC70E04E
:102640000E944E337EE0E72EE60EB6E0CB16D104B4
:1026500008F04BC046E050E04C195D09842F880F0C
:10266000880F142F181B110F145D44E3D42E1E3055
:1026700008F44FC0E9820A83FB82FEE0EF1204C037
:10268000D9820E3009F4DA8220E0412F63E0CE01D6
:1026900001960E9471103EE0F31233C00E3069F5CE
:1026A000E31689F1EA9437E1F32E07E11650DFCF04
:1026B0001430A9F0153009F0A9CF26E14CE269E009
:1026C00081EB92E08FCF26E14CE268E08CEC92E067
:1026D00089CF26E14CE26AE082EC92E083CF26E1EA
:1026E0004CE268E08AEB92E07DCF1CE2E4E16E16FA
:1026F000710409F0BACF16E2B8CF015027E1F22EEB
:10270000D5CFFA94D3CF87E1F82E07E197E1E92EF0
:10271000CDCF28960FB6F894DEBF0FBECDBFDF91A8
:10272000CF911F910F91FF90EF90DF90CF90BF90CE
:10273000AF909F908F907F906F905F904F903F9061
:102740002F90089528E04AE352E0DA01BC01605C72
:102750007F4FFC0134913D933196E617F707D1F78F
:10276000405C5F4F215080589F4F2111EECF08955C
:10277000DC012D913C9111971296EC91E20FF32F11
:10278000F11DED50FF4F80810895AF92BF92CF921F
:10279000DF92EF92FF920F931F93CF93DF9300D0BE
:1027A0001F92CDB7DEB7E0E6C82ECE26AC2DB0E046
:1027B000A558BA4F9C91911130C08B01E82E282F5B
:1027C00030E0F901E558FA4FF080F11018C060913F
:1027D000E9078091DB050E94120CF8019183808348
:1027E00081E00F900F900F90DF91CF911F910F918B
:1027F000FF90EF90DF90CF90BF90AF90089592E060
:10280000980F8AE08E0D891751F0E92FF0E0E55816
:10281000FA4F40819F5F47FDF6CF80E0E2CFF3E0C3
:10282000FF15A8F694E0F916C1F3245D3A4FF901BB
:102830009081D12C981749F0E82FF0E0E558FA4F35
:10284000208127FFD3948F5FF5CF8AE394E09A83AA
:102850008983EB82CE0101960E94B8139B81905E22
:1028600030E09817E9F0482F50E0FA01E558FA4FA8
:10287000608167FD13C0465E5A4FFA0120812770C0
:10288000243061F4262F22952F70262720FBAA24BE
:10289000A0F8B12CA5014F5F5F4F342B8F5FE1CFC4
:1028A000F6E0FF1204C082E0D81609F490CFE3945A
:1028B000EE2DF0E0E558FA4F8081C394EC2DF0E066
:1028C000E558FA4F2081422F50E064E05595479536
:1028D0006A95E1F72770682F62956F70641B062E6A
:1028E000000C770B77FF03C07195619571098770B4
:1028F000821B082E000C990B97FF03C091958195C0
:102900009109680FF6E0FF1223C081E0D81220C0C1
:1029100030FD18C08EE0821B240F841B281708F49A
:10292000822F94E0F99E90011124820F932F911D24
:10293000880F991F861B910934E0880F991F3A95DB
:10294000E1F74BCF842F821B295F241B895FE6CFE1
:10295000440F87E090E0841B910997FF03C0919595
:1029600081959109220F47E050E0421B510957FF22
:1029700003C0519541955109840FD3CF635070E046
:102980009B0143E0220F331F4A95E1F7287056E080
:10299000660F771F5A95E1F76078622BFC01208162
:1029A0002777622B608308950F931F93CF93DF9354
:1029B00000D0CDB7DEB7FC017A8369839A81892F75
:1029C000877782958F70841759F0CF0102967183B3
:1029D00060830F900F90DF91CF911F910F91089519
:1029E0008F0190689A8360912901CE0101960E941F
:1029F000BE14FC0180819181F801918380836091F4
:102A00002C01CE0101960E94BE14FC0180819181AF
:102A1000F8019383828360912A01CE0101960E947E
:102A2000BE14FC0180819181F801958384836091BB
:102A30002B01CE0101960E94BE14FC01C80108962C
:102A400020813181F80137832683C3CF882329F081
:102A500090E483FF90E28770890F0895DC01EC9188
:102A6000F0E0EB59F64F8491E62F660FFF0BE3522F
:102A7000F74FE491E82381E009F480E00895FC0138
:102A800080818770843018F097E0981B892F089513
:102A9000CF93FC01208130E044E0359527954A959D
:102AA000E1F7C7E0C21B611101C0C22FCC0FCC0FF0
:102AB0000E943F158C0FCF9108952F923F924F9215
:102AC0005F926F927F928F929F92AF92BF92CF92BE
:102AD000DF92EF92FF920F931F93CF93DF93CDB7C7
:102AE000DEB764970FB6F894DEBF0FBECDBFC82E19
:102AF00081E06C2C6826A0E4DA2E80E0CC2019F06E
:102B0000F0E2DF2E87E0FE0131965E012BE0A20E9F
:102B1000B11C4F018193EA15FB05E1F780E65D2CBE
:102B2000582642E0450D5AE0550DE12C541709F1A5
:102B3000E42FF0E0E558FA4F808187FD18C0E39458
:102B4000282F30E0E4E035952795EA95E1F7877086
:102B500090E00196F401E80FF91F8081CC2021F06C
:102B6000821720F4282F02C02817E0F320834F5F3C
:102B7000DDCF30ED3D0D388B62E0762E7D0C7AE0B6
:102B8000372E3D0C10E000E08EEF482E4D18371424
:102B900009F48AC0E72DF0E0E558FA4FF080FB8693
:102BA000F7FC53C0E394662DC5010E944815E82F39
:102BB000F0E0EE0FFF1FE450F64F85919491080F5F
:102BC000191FC5010E943F15EF2D6889E61BAFEF65
:102BD000AE0FB0E0A65CBB4F9C91940D983048F0CE
:102BE000EF5FF0E0E65CFB4F9081940D40E09830A1
:102BF00058F4E82FF0E0EE0FFF1FE458F44F259152
:102C00003491020F131F41E09F2D92959F702F2D3D
:102C1000277030E0F401E20FF31F5081C11017C09C
:102C2000951798F0E2E0F0E0EC0FFD1FE20FF31FC4
:102C30005081951750F0E3E0F0E0EC0FFD1F2E0FF0
:102C40003F1FF90120819217B8F47394A0CF591750
:102C5000E0F3E2E0F0E0EC0FFD1FE20FF31F508124
:102C6000591798F363E070E06C0F7D1F260F371F34
:102C7000F9012081291748F3E82FF0E0E053FF4FD6
:102C8000CF01880F991FFC01E450F64F2591349134
:102C9000020F131F4423C9F2FC01EC5FF54F85912D
:102CA0009491080F191FD1CFFEE0FE1510F42FE00C
:102CB000E22EED2DF0E0E45DFA4F20812C8BF12C1B
:102CC0003CEEE30EF11CEE0CFF1CB7016450764F96
:102CD0001B01198A8EEF482E4D1896EF892E9BE026
:102CE000992E7C89771609F448C0E72DF0E0E55865
:102CF000FA4FC080CB86C7FC3EC0662DC5010E943E
:102D00004815E82FF0E0EE0FFF1FE45CF54F8591CA
:102D10009491080F191F8889C81AEFEFEC0DF0E0A5
:102D2000E65CFB4F8081840D883048F0C394EC2D25
:102D3000F0E0E65CFB4F8081840D883068F4C501CB
:102D40000E943F15E82FF0E0EE0FFF1FEC57F44F05
:102D500085919491080F191FF10185919491080FA5
:102D6000191F9989992329F0F40185919491080FED
:102D7000191FE1E0E98B7394B4CFE1E0E50DF0E0D9
:102D8000E558FA4F40808AE394E09C878B87DD8684
:102D9000C5010E94B813C82E8D85805E888B97016F
:102DA0002452364F1901812C712C78EFA72E7BE02D
:102DB000B72E38893C1509F491C08C2D90E0BC01E8
:102DC000665C7B4F7B01FB01EF5BFE4F90809F8633
:102DD00097FC75C0662DCE010F960E944815F7012D
:102DE000E052FF4FE081E770EE87E450EE2EF12CC9
:102DF000F70155E0EE0FFF1F5A95E1F7E05CFF4F3A
:102E0000E80FF11DEE0FFF1FE450F64F85919491EE
:102E1000080F191F642D6919CE010E960E942E15F8
:102E2000882349F0F701EE0FFF1FE455F44F859119
:102E30009491080F191F8E85982F937009F441C043
:102E4000853061F4F10185919491080F191F772065
:102E500059F1F50185919491080F191F892D8F70F3
:102E60008F8728E0FF24F3949F85E92FF0E0E65C4C
:102E7000FB4F80818250382F3D19383000F1851981
:102E8000883008F4F12C905F9F87215069F7CE01BC
:102E90000F960E943F15E82FF0E0F11008C0EE0FEA
:102EA000FF1FEC56F44F07C077247394D7CFEE0F73
:102EB000FF1FE457F44F85919491080F191FC39495
:102EC00078CF892D82958F709826792D71707A8BA5
:102ED0001B8A8A899B890196882AF1CF83E0881210
:102EE00006C0E2EBFBE085919491080F191FE1E029
:102EF000ED0DF0E0E558FA4FF080FE86662DCE012C
:102F00000E960E944815E82FF0E0EE0FFF1FE45CDC
:102F1000F44F85919491080F191FE4EFF9E04CEFFD
:102F200059E090E034918F2D830FA82FB0E0A65C7C
:102F3000BB4F2C912D2111F49F5FF6CF31964E1788
:102F40005F0781F79C3008F09CE0E92FF0E0EE0F7E
:102F5000FF1FE650F44F85919491800F911F649666
:102F60000FB6F894DEBF0FBECDBFDF91CF911F919A
:102F70000F91FF90EF90DF90CF90BF90AF909F9018
:102F80008F907F906F905F904F903F902F9008951B
:102F90000F931F93CF93DF9300D0CDB7DEB780910F
:102FA000DE079091DF0701969093DF078093DE079D
:102FB000BE016F5F7F4F8091DC070E94C5138111B6
:102FC00028C09091DC07BE016F5F7F4F80E68927A4
:102FD0000E94C513811116C081E00E945D158C010D
:102FE00080E00E945D159801281B390BC901E4EFB0
:102FF000FBE02091DC0725FF15C025913491820F5D
:10300000931F05C089819A819195819591099A8331
:10301000898389819A810F900F90DF91CF911F91C1
:103020000F91089525913491281B390B3A832983F8
:10303000F0CFDC01EC910E2E000CFF0BE15BFE4F9C
:1030400084910895DF92EF92FF920F931F93CF9395
:10305000DF93CDB7DEB72A970FB6F894DEBF0FBE69
:10306000CDBFF82E8091DC0720E62827E0EDEF0D9C
:10307000E20FAFEFAE0FB0E0A65CBB4F1C919EEF2E
:10308000981B312F390F383088F580E2821B8295EA
:10309000869587709F2D92959F70891709F4FDC0C2
:1030A00080E01123A9F0EF2DF0E0E65CFB4FE0811A
:1030B000F0E0E65EFA4FE081E770F0E0E359F64FAA
:1030C0000491080F8091DB058C3009F0E8C0802F57
:1030D0002A960FB6F894DEBF0FBECDBFDF91CF9119
:1030E0001F910F91FF90EF90DF900895EF5FF0E058
:1030F000E65CFB4F1081910F983038F21AE0180F00
:10310000E82FF0E0E45DFA4F0081101789F0E12F1D
:10311000F0E0E558FA4F808187FD08C06F2D681BED
:103120008CE291E00E942E158111BACF1F5FEDCF86
:103130008091DC072AE334E03A8329838B83CE0134
:1031400001960E94B813182F8B8130E2E32EE80E0F
:10315000E11651F1812F90E0FC01E558FA4F008112
:1031600007FD20C0865E9A4FFC0180818770843005
:10317000C9F4DF2CD01A6D2D8BE291E00E942E1540
:10318000882381F0DC82CE0104960E941918080F72
:10319000E02FF0E0E65CFB4F90819923C1F30F151F
:1031A00009F47ECF1F5FD4CF8091DC072AE334E09F
:1031B0003D832C838E83CE0104960E94B813182F72
:1031C0008E8120E2E22EE80EE11651F1812F90E08F
:1031D000FC01E558FA4F008107FD20C0865E9A4F3A
:1031E000FC01808187708530C9F4DF2CD01A6D2DE9
:1031F0008AE291E00E942E15882381F0DF82CE01C1
:1032000007960E941918080FE02FF0E0E65CFB4FCC
:1032100090819923C1F30F1509F442CF1F5FD4CFDA
:103220008091DC072AE334E038872F838987CE0139
:1032300007960E94B813182F898590E2E92EE80EB0
:10324000E11609F441C0812F90E0FC01E558FA4FE6
:10325000008107FD20C0865E9A4FFC018081877047
:103260008630C9F4DF2CD01A6D2D89E291E00E94DE
:103270002E15882381F0DA86CE010A960E9419184D
:10328000080FE02FF0E0E65CFB4F90819923C1F33B
:103290000F1509F405CF1F5FD3CF80E202CFA12F16
:1032A000B0E0A558BA4F1C91812F9F2D0E942B0C86
:1032B0008F2D0E942218E82E812F9F2D0E941A0820
:1032C000802F8E1987FF04CF80E002CFCF93DF934A
:1032D0000E94C817EC01E091DB0585E0E89FF00152
:1032E0001124ED52FB4F8281882349F08181877739
:1032F0000E94221899E18902C00DD11D1124CE012E
:10330000DF91CF9108952F923F924F925F926F92EB
:103310007F928F929F92AF92BF92CF92DF92EF9265
:10332000FF920F931F93CF93DF9300D000D01F9293
:10333000CDB7DEB78C016C01DC01612C412C661627
:10334000F9F011968C91119787FD08C0E82FE77767
:10335000F0E0E65CFB4F9081992379F0E42DF0E0FA
:10336000EE0FFF1FE00FF11F9C912081318111961C
:103370003C932E9390838183439463941296DFCF82
:103380002EE1241510F47FE1472E6CE7262E65E030
:10339000362E78015101712C741409F43CC0D70108
:1033A0008D909C9011971196BC91BB83B7FF23C061
:1033B000F70180810E941D0CE82FF0E0E359F64FE1
:1033C000E4915CEF552E5E0E8091DB058C3059F058
:1033D000C4010E942B0C8B8187770E942218581AF7
:1033E000C4010E941A08D5015D925D017394B2E098
:1033F000EB0EF11CD1CFEB81E777F0E0E65CFB4F01
:10340000E081F0E0E65EFA4FE081E770F0E0E3593A
:10341000F64F5490D9CF672DC8010E9435062CE78E
:1034200035E0962C90E080E0B12C4DEB5EEFFA0198
:10343000EA53F4407F01B714D8F5D9014D919D01AD
:1034400047FF33C0962C9718D801A80FB91FF70172
:10345000E20FF31FE90DF11DEE0FFF1FAF01400F4B
:10346000511F5D834C83AB2CBC01615071098C9062
:1034700011965C901197EC81FD8141915191FD83F2
:10348000EC834D935D93AF0142505109FA01808264
:103490004C815D81481B590B460F571FFA01508222
:1034A000A3947A10E4CF9B0C7B2CB3940296C3CFE9
:1034B000711064C0FEE1792CF91510F42FE1722E21
:1034C000812C871409F456C06090DC0766FA6624E4
:1034D00060F8D601EC91E777EA83F0E0E65CFB4F19
:1034E000E081F0E0E65EFA4FA080BA2DB770AB2E17
:1034F000AA94AA94E5E0EA1508F4A12CD601119645
:103500008C9187778983662DCE0101960E9448159C
:10351000B0E2AB9E50011124F501E80FF11DEE0F52
:10352000FF1FE450F64FE590F490662DCE01029611
:103530000E944815F501E80FF11DEE0FFF1FE45042
:10354000F64F85919491F701E81BF90BCF01813873
:10355000FFEF9F0714F481E89FEF8038910514F086
:103560008FE790E0D1018D931D018394B2E0CB0EE3
:10357000D11CA7CF682DC8010E943506892D0F9058
:103580000F900F900F900F90DF91CF911F910F919F
:10359000FF90EF90DF90CF90BF90AF909F908F9073
:1035A0007F906F905F904F903F902F9008959F92E3
:1035B000AF92BF92CF92DF92EF92FF920F931F9341
:1035C000CF93DF9300D000D01F92CDB7DEB7A0E33A
:1035D000A60FA81B9EEF981B2FEF2A0FE22FF0E0FB
:1035E000E65CFB4F2081290F283008F48CC0AF5FC8
:1035F000B0E0A65CBB4F2C91920F983008F483C0CA
:10360000062F182F2AE0E22EE80EE82FF0E0E45D06
:10361000FA4FD080ED1489F0EE2DF0E0E558FA4F26
:10362000608167FD08C0601B8CE291E00E942E154E
:10363000F82E811146C0E394EDCF802F90E09C01DD
:10364000265C3B4F6901F901908080E680838AE324
:1036500094E09A8389831B83CE0101960E94B8135C
:10366000B82E8B8190E2A92EA80EAB14E1F18B2D20
:1036700090E0FC01E558FA4FE080E7FE02C0B39409
:10368000F4CF865E9A4FFC018081602F6E196D83A6
:1036900087708C83CE0104960E942E15F82E882305
:1036A00071F3CE0105960E941918E80EEE2DF0E098
:1036B000E65CFB4F90819923C1F30E11E0CFF60138
:1036C00090828F2D0F900F900F900F900F90DF91A1
:1036D000CF911F910F91FF90EF90DF90CF90BF900F
:1036E000AF909F900895F60190821F5FE12FF0E068
:1036F000E558FA4F8081602F681B86E291E00E94B6
:103700002E15F82EDECFFF24F394DBCF2F923F92BD
:103710004F925F926F927F928F929F92AF92BF92E1
:10372000CF92DF92EF92FF920F931F93CF93DF938D
:10373000CDB7DEB7AC970FB6F894DEBF0FBECDBFE6
:103740001C01F090DC0780E65F2C582610ED612EFE
:103750006F0C80E28F1990E09C0105E0359527956C
:103760000A95E1F73CA32BA34BA086E028272BA7C3
:1037700031E03F0D3DA3832F90E0AC0145585A4FF7
:103780005FA34EA3DA01EC901092DD078AE394E088
:103790009A8F898F5B8ECE0149960E94B813982E1E
:1037A0008B8D805E8CA78101DD24DA94C12CBCA5B1
:1037B000B91509F4CEC0892D90E0FC01E558FA4F07
:1037C000A080A7FC2EC0865E9A4FDC01EC91E770CA
:1037D0009A2D9E199F8FF0E0EB59F64F8491E92FB7
:1037E000990FFF0BE352F74FE491E823E370C9F020
:1037F000CE014F960E941918782EBE2CB70CEB2DD7
:10380000F0E0F9A7E8A7E65CFB4F90819923B1F3BC
:10381000AB1009C08091DD078E5F8093DD077AA62B
:10382000DA2C9394C4CF492F50E0FA01E65EFA4FA8
:103830008081282F20762F11F4CFF7E00C3C1F0752
:1038400008F0C3C38B2C870CE82DF0E0E65CFB4F3F
:1038500020812223C1F3A810E4CF2C2D30E0EDE02D
:10386000F0E0EC0FFD1FE20FF31FB08245585A4FF6
:10387000EFEFDA01EC93C39441E050E04C0F5D1F91
:10388000240F351FD9019C938770833008F043C003
:10389000A62CAB0C872D877041F5EA2DF0E0E65C95
:1038A000FB4F80818111BDCF442D6B2D7A2DC80136
:1038B0000E94D4148C01A60CEA2DF0E0E65CFB4FCC
:1038C00080818111AECF88A599A5B4E095958795A3
:1038D000BA95E1F7BBA5B813A4CF8B2D8860F8018A
:1038E0008083A1820E5F1F4F9CCF8FEF8A0D8812BD
:1038F00007C0442D6B2D782DC8010E94D4148C0173
:10390000A3948A108ECF442D6B2D782DC8010E9470
:10391000D4148C0186CF8C8F6F8DCE014C960E9473
:103920002E15882309F47DCFD8019B2D970DFD011D
:103930003296BC9211969C93DF018912F7CF8B2DA2
:103940008F018719E81609F46CCFB0828183329613
:10395000F7CFE091DB0525E0E29FF0011124ED5265
:10396000FB4F81818777B82E9E2D981BE82FF0E0C2
:10397000E65CFB4FE081F0E0E65EFA4FE081E77045
:10398000F0E0EB59F64F8491E92F092E000CFF0B64
:10399000E352F74FE491E823EC7F69F08091DD0773
:1039A0008F5F8093DD0791959C8FCE014C960E948E
:1039B00019188AA7DB2C8091DD07882309F46FC0D2
:1039C000833008F092C2E091DB0535E0E39FF0011F
:1039D0001124ED52FB4F8181877781018D1509F408
:1039E000C7C08091DD0780FF69C1BD2CB6186FEF9D
:1039F0006B0DE62FF0E0E65CFB4FE0818EEFE82EEA
:103A0000EF188E2F8E0D883060F4F0E0E558FA4FF5
:103A1000808187FD06C04BA17D2DC8010E94D41472
:103A20008C0161E06B0DE62FF0E0E65CFB4FE0817E
:103A30008E2F8E0D883060F4F0E0E558FA4F8081CB
:103A400087FD06C04BA17D2DC8010E94D4148C01B6
:103A5000F7E00C3C1F0708F0B8C2EAE0EE2EEF0CCE
:103A6000EF2DF0E0E45DFA4FA080AE1409F4E2C05F
:103A7000EE2DF0E0E558FA4FB080B7FC0EC06D2D8A
:103A80006B198CE291E00E942E15882331F0D80149
:103A9000BC921196DC920E5F1F4FE394E6CF47E095
:103AA0000C3C140708F091C2E091DB0555E0E59F5E
:103AB000F0011124ED52FB4FA3808F2D8295869546
:103AC00087708A2171F16FEF6E0DE62FF0E0E65CF2
:103AD000FB4F8081811125C0AEEFBA2EBE0CEB2DBD
:103AE000F0E0E65CFB4F808181111BC0EDEFEE0D35
:103AF000F0E0E65CFB4F8081811113C0852D0E94B0
:103B0000D71A81110EC06B2D852D0E94D71A8111F5
:103B100008C0D801EC928B2D886011968C930E5FB3
:103B20001F4FAF2029F161E06E0DE62FF0E0E65C5B
:103B3000FB4F808181111CC0F2E0BF2EBE0CEB2D2B
:103B4000F0E0E65CFB4F8081811112C0852D0E9460
:103B5000D71A81110DC06B2D852D0E94D71A8111A6
:103B600007C0F801E0828B2D886081830E5F1F4FB4
:103B7000F7E00C3C1F0708F028C2E091DB0525E0C8
:103B8000E29FF0011124ED52FB4F808183FF29CF8A
:103B900081818777B82E8091DD07882311F0DB10B3
:103BA00020CF88248A948B0CE82DF0E0E65CFB4F54
:103BB000E0818EEFA82EAF188E2F8A0D8830B8F4D2
:103BC000F0E0E558FA4F808187FD11C04B2D682D3C
:103BD0008E2D0E944E0981110AC0882D8068D8015F
:103BE0008C93862D8B0D11968C930E5F1F4F88241E
:103BF00083948B0CE82DF0E0E65CFB4FE0818E2F88
:103C00008A0D883008F0EDCEF0E0E558FA4F80815B
:103C100087FDE7CE482D6B2D8E2D0E944E09811118
:103C2000E0CE882D8068F8018083B60CB1820E5FEB
:103C30001F4FD7CEB7E00C3C1B0708F0C6C18AE384
:103C400094E09D8F8C8FFE8ECE014C960E94B8130F
:103C5000E82E8E8D70E2A72EA80EAE1409F446C190
:103C60008E2D90E0FC01E558FA4FB080B7FC24C0DF
:103C7000865E9A4FFC0180816D2D6B196AA3877057
:103C80008F8FCE014F960E942E158823A9F0CE016A
:103C900082960E9419189B2D980FE92FF0E0E65CA0
:103CA000FB4F20812223C1F3D91206C0D801BC9258
:103CB0001196DC920E5F1F4FE394CFCFB7E0043A2A
:103CC0001B0708F082C152E0A52EAF0C6AE0762EE9
:103CD0007F0C7A1409F44FC0EA2DF0E0E558FA4F52
:103CE000B080B7FC46C0862C8B0C7FEF780DE72F99
:103CF000F0E0E65CFB4F80818076581206C0442DD0
:103D00006B2DC8010E94D4148C0171E0780DE72F4F
:103D1000F0E0E65CFB4F80818076581206C0442DAF
:103D20006B2DC8010E94D4148C01E82DF0E0E65CF4
:103D3000FB4F808181111DC0442D6B2D782DC80152
:103D40000E94D4148C01860CE82DF0E0E65CFB4F59
:103D5000808181110EC08B2D82958F70EBA58E1303
:103D600008C08B2D8860D8018C9311968C920E5FC1
:103D70001F4FA394AECFEF2DF0E0E45DFA4F4081EA
:103D800025E639E04A1519F1EA2DF0E0E558FA4F39
:103D9000908197FD1AC0B7E00C3C1B0708F015C1D5
:103DA000EDE5F9E08491890FA82FB0E0A65CBB4F48
:103DB0005C915F2131F4D8019C9311968C930E5F36
:103DC0001F4F31962E173F0769F7A394DBCF8AE385
:103DD00094E098A38F8FF9A2CE014F960E94B8135A
:103DE00069A1605E29E539E04DE559E0681709F4FD
:103DF00051C0E82FF0E0DF01A558BA4F9C9197FD24
:103E000047C0B7E0043A1B0708F0DFC0E65EFA4F90
:103E10007081E72FE370E9F0E9E5F9E0A49038015B
:103E2000B92E8301BA0CAB2DB0E0A65CBB4F8C90D1
:103E3000A82DAF2151F4A2E06A0E711CD8019C9309
:103E40001196BC92882069F3830131964E175F0763
:103E500029F770FD1DC0E5E5F9E0B4904801792F20
:103E600084017B0DA72FB0E0A65CBB4FAC90AA2DC0
:103E7000AF2151F4B2E08B0E911CD8019C931196A6
:103E80007C93AA2069F3840131962E173F0729F706
:103E90008F5FACCF8091DD07882341F15101A016DF
:103EA000B10620F5F50181818777882E8E198C8FD8
:103EB000CE014C960E941918FAA58F1779F0F801D7
:103EC00092918291D5018D939C9395012250310955
:103ED00059018F0132E0A30EB11CE1CF9E2D980F46
:103EE0008916C1F3D912FBCFEACF81014CEC24161D
:103EF00047E0340608F069C0AEA1BFA1DC90AD2C4C
:103F0000B12CF501E65CFB4F108234EF832E39E0D3
:103F1000932E4CEF642E49E0742EF401E490ED0CE6
:103F2000EE2DF0E0E65CFB4F80818F2161F46E2D79
:103F3000852D0E94D71A811106C0D801DC921196F6
:103F4000EC920E5F1F4FBFEF8B1A9B0A6814790427
:103F500021F7F501E65CFB4F2DA12083CC20B9F0C1
:103F6000CA948C2D90E0E1E0F0E0EC0FFD1FE80F2B
:103F7000F91FE081F0E0E558FA4F4DE050E04C0FBA
:103F80005D1F840F951FDC018C918083E7CFC801F2
:103F90008219930995958795AC960FB6F894DEBF74
:103FA0000FBECDBFDF91CF911F910F91FF90EF908A
:103FB000DF90CF90BF90AF909F908F907F906F9049
:103FC0005F904F903F902F900895CC20B9F0CA9405
:103FD0008C2D90E0E1E0F0E0EC0FFD1FE80FF91F01
:103FE000E081F0E0E558FA4F2DE030E02C0F3D1F66
:103FF000820F931FDC018C918083E7CF8FEFCCCFB2
:10400000CF938CED95E00E94861BC82FE091DB05D5
:1040100085E0E89FF0011124ED52FB4F8481843646
:10402000B8F40E940F08811115C00E94DB0682308F
:1040300098F49091DD07CC2331F081E0911101C01B
:1040400080E0CF91089586E09111FBCF85E0F9CF14
:1040500082E0F7CF84E0F5CF83E0F3CFCF93C09138
:10406000DC07C09386010E940020809339018230D2
:1040700040F084E190E09093D3018093D201CF91FE
:1040800008952C2F30E056E0359527955A95E1F7A5
:10409000F901E353FE4F8081882361F141E050E054
:1040A000222311F050E040E043535E4FFA0190812B
:1040B000911105C0C5FBCC27C0F9C093C70198E09A
:1040C0009093E50790E0880F991F079641E050E034
:1040D00002C0440F551F8A95E2F75093E1074093C1
:1040E000E00725533E4FF90180818093E90788E07E
:1040F00090E0C1CFC6FBCC27C0F9C093C70184E0D4
:1041000090E0B9CF5F926F927F928F929F92AF9221
:10411000BF92CF92DF92EF92FF920F931F93CF93B4
:10412000DF938C017B016A01622E0E94861B782E30
:104130008FEF781211C0DF91CF911F910F91FF90F7
:10414000EF90DF90CF90BF90AF909F908F907F9037
:104150006F905F900C94661971102DC08091DD07EF
:104160008823A1F0C62DD0E0DD57CE01DF91CF919D
:104170001F910F91FF90EF90DF90CF90BF90AF9085
:104180009F908F907F906F905F9008956091E90766
:104190008091DB05DF91CF911F910F91FF90EF9000
:1041A000DF90CF90BF90AF909F908F907F906F9057
:1041B0005F900C94120C0E94C8178C159D050CF092
:1041C0007DC0EC018E159F050CF4E70190E0E92F0E
:1041D000F0E0EE0FFF1FE00FF11F8181A82FA777FE
:1041E000B0E0A65CBB4F2C91211111C087FD0FC020
:1041F000808187FD0CC07A949150A72DB0E0AA0F62
:10420000BB1FA00FB11F2D913C91318320839F5F75
:104210009715E8F2672DC8010E948319E72CF12C4D
:10422000EE0CFF1CE00EF11E512CA12C93E8B92ED0
:104230006394882499248C189D08571409F495CF09
:10424000F801808191810E942B0C8091DB058C30DC
:10425000C9F40E94C817919581959109A816B906CD
:104260000CF45C01F801808191810E941A08CA1542
:10427000DB050CF4E5010E5F1F4FCC15DD05F4F4F2
:104280005394DBCF8091E807811115C02091DE07A0
:104290003091DF078091E0079091E1078217930743
:1042A00050F0442755274C1B5D0B262DB401C70148
:1042B0000E948220D0CF90E080E0CDCFE60155CFA4
:1042C0003F924F925F926F927F928F929F92AF92A6
:1042D000BF92CF92DF92EF92FF920F931F93CF93F3
:1042E000DF93EC016B015A01422E502E1091DB0539
:1042F00085E0189FF0011124ED52FB4F8481843634
:10430000B0F06091E907812FDF91CF911F910F915C
:10431000FF90EF90DF90CF90BF90AF909F908F90E5
:104320007F906F905F904F903F900C94120C0E9482
:104330000F088111E6CF0E94DB06823028F06091E1
:10434000E9078091DB05E0CF8091E8078111ACC0DF
:104350002091DE073091DF078091E0079091E1071F
:104360008217930708F4A0C0401670F18091DB0516
:104370008C3099F4DF91CF911F910F91FF90EF90C6
:10438000DF90CF90BF90AF909F908F907F906F9075
:104390005F904F903F900C94C817242DA501B60153
:1043A000CE01DF91CF911F910F91FF90EF90DF90A1
:1043B000CF90BF90AF909F908F907F906F905F90C5
:1043C0004F903F900C948220CE010E94861B182FA4
:1043D0008F3F99F4DF91CF911F910F91FF90EF9054
:1043E000DF90CF90BF90AF909F908F907F906F9015
:1043F0005F904F903F900C94661981111CC0809182
:10440000DD07882309F49BCF642C712C8DE7781A83
:10441000C301DF91CF911F910F91FF90EF90DF903B
:10442000CF90BF90AF909F908F907F906F905F9054
:104430004F903F900895682FCE010E948319E12E7E
:10444000F12CEE0CFF1CEC0EFD1E612C93E8792E76
:10445000312C4394882499248A189B088881998157
:104460000E942B0C442755274C195D09052D242D3E
:10447000B401C7010E946021919581959109681648
:1044800079060CF43C01888199810E941A08C614AF
:10449000D7040CF46301CA14DB040CF0B9CF3394D5
:1044A00022961311DBCFB4CF712C612CB1CF0C94B9
:1044B00038330F931F93CF93DF9300E210E0CFEFD9
:1044C000DFEFC8010E9457229D2F9827892F8295E0
:1044D0008F708927282F30E09C2FA901542F442763
:1044E0005295507F84279527E90175E0CC0FDD1F99
:1044F0007A95E1F7C827D9270F5F1F4F0E3F83E05A
:104500001807F9F6CE01DF91CF911F910F91089511
:104510001F920F920FB60F9211248F939F93809149
:10452000E1009091E100937F9093E10083FF0FC041
:104530001092E90091E09093EB001092EC0092E36E
:104540009093ED001092390298E09093F00082FF72
:1045500022C093E09093E9009091F200992319F022
:104560009AE39093E8009091DA01992341F09091B9
:10457000DA0191509093DA01911101C05D9A909106
:104580003802992341F0909138029150909338026B
:10459000911101C0289A84FF18C08091E2008E7E9C
:1045A00081608093E2008091E1008F7E8093E10042
:1045B0008091DB018E7E80618093DB019F918F91E2
:1045C0000F900FBE0F901F90189580FFF7CF80912E
:1045D000E2008E7E80618093E2008091E1008E7E19
:1045E0008093E1008091DB018E7E8160E5CF1F9298
:1045F0000F920FB60F921124CF92DF92EF92FF929B
:104600000F931F932F933F934F935F936F937F93DA
:104610008F939F93AF93BF93EF93FF93CF93DF93CA
:10462000CDB7DEB76C97DEBFCDBF1092E9008091A9
:10463000E80083FF25C068E0CE0145960E94180B74
:1046400082EF8093E8008D8987FF39C09091E80060
:1046500090FFFCCF982F907609F034C19E894F8946
:10466000588D2F89F88C911131C0803861F5809177
:10467000D9018093F1001092F1008EEF8093E80051
:104680006C960FB6F894DEBF0FBECDBFDF91CF9111
:10469000FF91EF91BF91AF919F918F917F916F911A
:1046A0005F914F913F912F911F910F91FF90EF904C
:1046B000DF90CF900F900FBE0F901F9018959EEF38
:1046C0009093E800C7CF1092F100D5CF913059F404
:1046D0008111D3CF4130510581F68091D9018D7F71
:1046E0008093D901CACF933049F48111C6CF4130AC
:1046F000510519F68091D9018260F2CF953041F4CD
:104700008091E80080FFFCCF20682093E300B5CFC4
:10471000963009F0A9C00B8D1C8D22E01092E900A3
:104720001092D7011092D601F2122EC01092D5012C
:104730001092D4010E94E70A1F8299E09983FA82BD
:1047400091E09E8390EA98879AEF99872091D6010D
:104750003091D701275F3F4F3C832B838D8310928D
:10476000E9001092D7011092D6011093D501009361
:10477000D40149E050E0BE016F5F7F4F80E00E94AE
:10478000C10A0E94E70A79CF1093D5010093D401A2
:104790000E94CB09DC0112960D911C9101151105A7
:1047A00009F451C1D801ED91FC910480F581E02D0F
:1047B000BE016B5E7F4FC8010995009709F03EC1AD
:1047C000F80100851185EACFF3E0FF120EC08F8952
:1047D000882309F440C0823061F440E867E08CE34C
:1047E00098E00E948E0A811148CF81E28093EB000D
:1047F00047CF813029F440E86BE080E398E0F1CFC7
:10480000833099F70E94CB09DC011296ED90FC9061
:104810008E010F5F1F4F6801E114F10479F0D70199
:10482000ED91FC910680F781E02DB801C701099553
:10483000080F111DF701E084F184EECFD8011C921E
:10484000F60101900020E9F73197BF016C197D094D
:1048500040E0C601C6CF6AE178E0FB01449150E038
:1048600080E80E94C10A09CF973009F4BECF983082
:1048700021F481E08093F10000CF993009F0FDCE62
:10488000837009F0B2CFEEE0F1E081E031E096E331
:104890002191222371F08093E9003093EB00DF0136
:1048A00011972C912093EC009093ED008F5F87304F
:1048B00079F78EE78093EA001092EA008F8980935F
:1048C0003902DBCE8B8D9C8D1092E9001092D701BE
:1048D0001092D6019093D5018093D401898D8111D6
:1048E00092C08E899D89913A49F4813209F07DCF39
:1048F00047E050E064E071E080E0B3CF913209F02E
:1049000074CF833269F48F89988DB0E0A0E08093F2
:10491000000190930101A0930201B0930301ADCE79
:10492000803269F48091E80082FFFCCF67E084E088
:1049300091E00E94180B8BEF8093E8009ECE8232AC
:1049400009F09BCE8F8980930B01EEEFFFE78591F5
:1049500094918B3F9C4D51F1E0E0F8E0809104018F
:1049600090910501A0910601B0910701803B944010
:10497000A105B105F1F480910B0180FD1AC0EE3F55
:104980008AE0F80789F587E797E79183808380912C
:1049900060008093D80188E19BE00FB6F894A89559
:1049A000809360000FBE9093600067CEEEEFFAE058
:1049B000D5CF808191818737974709F05ECEA89542
:1049C000809160008861809360008091D80180931D
:1049D0006000EE3F2AE0F20789F08091FE0A909194
:1049E000FF0A9183808349CE808191818737980720
:1049F00051F29093FF0A8093FE0AC5CF1092FF0AEE
:104A00001092FE0A3ACE0E94CB09DC0112960D915B
:104A10001C910115110509F4E8CED801ED91FC9126
:104A20000190F081E02DBE016B5E7F4FC8010995BA
:104A3000811123CEF80100851185EBCF18161906D8
:104A40000CF41BCED2CEF1E0FF12BECE6EE178E0C8
:104A500004CF1F920F920FB60F9211242F933F9302
:104A60008F939F93AF93BF9380913B0190913C01B3
:104A7000A0913D01B0913E0130913A0123E0230F16
:104A80002D3758F50196A11DB11D20933A01809351
:104A90003B0190933C01A0933D01B0933E01809176
:104AA0003F0190914001A0914101B09142010196D6
:104AB000A11DB11D80933F0190934001A09341013E
:104AC000B0934201BF91AF919F918F913F912F91F0
:104AD0000F900FBE0F901F90189526E8230F029697
:104AE000A11DB11DD2CF1F920F920FB60F921124AC
:104AF0003F924F925F926F927F928F929F92AF926E
:104B0000BF92CF92DF92EF92FF920F931F932F935A
:104B10003F934F935F936F937F938F939F93AF9345
:104B2000BF93EF93FF93CF93DF93CDB7DEB761973A
:104B3000DEBFCDBF0091D2011091D3010531110527
:104B400008F04AC1F801E955FA4D0C946233BC25CE
:104B5000CB25F6250826B726C226C22619275326B6
:104B600064267427742774279F28AC28EA284829CC
:104B70009B29EC26EC26C6298BEC93E00E94A2131D
:104B800080E00E94CF0E1092D10181E090E09093DE
:104B9000D3018093D2018BE094E00E94A213E091B4
:104BA000D101F0E0EE0FFF1FEF50FD4F0591149182
:104BB000CE0101969E012F5E3F4FDC01A801481BEC
:104BC000590BFA01EA0FFB1FE491ED932A173B07FB
:104BD000C1F760E10E94B011869524E1281B44E1F1
:104BE0006FEFC8010E94EA1081E0BEC00E94600F12
:104BF00081E00E94CF0E1092D1011092CF0182E08D
:104C00008093D00183E090E09093D3018093D20110
:104C10002EE34EE060E080E00E941A102FE045E0B5
:104C200068E087E093E00E94EA1023E042E165E05B
:104C300082E093E00E94EA1023E04AE165E08DEF14
:104C400092E00E94EA10E091CF01F0E0EE0FFF1F2A
:104C5000EB50FD4F8591949122E242E16FEF0E946B
:104C6000EA10E091D001F0E0EE0FFF1FEB50FD4F96
:104C70008591949122E24AE16FEF0E94EA10E0915F
:104C8000D10120E4E29FF0011124E654FD4F9F0181
:104C9000245E3F4F9EEF81A1892781A331962E1775
:104CA0003F07C9F7A1CF0E94600F81E00E94CF0E9D
:104CB0000E94D91180E00E94BC0E89E090E09093A0
:104CC000D3018093D20188C080E00E946F0E84E0FF
:104CD0000E945D0E882319F081E08093E80790918F
:104CE0008601E92FF0E0A6E0F595E795AA95E1F7B2
:104CF000E353FE4F80818F5F880F4091DE07509114
:104D0000DF0702C0569547958A95E2F717E395FFAE
:104D100015E0F12C09E1040F402F69E1812F8F0D7F
:104D20000E94EA0FF39433E0F312F6CF49E369E10E
:104D30008FEF810F0E94EA0F49E369E183E0810F61
:104D40000E94EA0F02E0010F48E1602F812F0E94CC
:104D5000B70F4AE3602F812F0E94B70F81E0909137
:104D6000E807911101C080E00E94BC0E35C00E948E
:104D7000D91181E00E94BC0E85E090E09093D301B0
:104D80008093D2010E94600F8091D2019091D30153
:104D90000697A9F46091D101862F86958877677070
:104DA000660F660F660F9091C701992331F098E363
:104DB000492F481B842F961B692F0E94E20E809179
:104DC000CA0183FD06C06091C8018091C9010E949B
:104DD000E20E81E00E94CF0E8091CA018F5F809326
:104DE000CA0161960FB6F894DEBF0FBECDBFDF914A
:104DF000CF91FF91EF91BF91AF919F918F917F9153
:104E00006F915F914F913F912F911F910F91FF9063
:104E1000EF90DF90CF90BF90AF909F908F907F905A
:104E20006F905F904F903F900F900FBE0F901F902C
:104E300018950E94600FE6ECF2E02DEE32E08081E2
:104E40008F7081932E173F07D1F7E6E0F3E08DE2F4
:104E500093E011928E179F07E1F7E6E4F3E02DE669
:104E600033E08081887F81932E173F07D1F722E3BB
:104E700042E26CE084E10E941A108091DC0785FF19
:104E800031C080E090E0029627E0289F8001299FB2
:104E9000100D11246AE073E0C801805F9C4F0E94EE
:104EA000390F62E173E0C801895E9C4F0E94390F9F
:104EB0006AE173E0C801825E9C4F0E94390F62E292
:104EC00073E0C8018B5D9C4F0E94390F8091CA012D
:104ED00083FD7FCF6091D0016E5F660F660F660F16
:104EE00088E175CF86E0CECFF090CA01F110CAC03C
:104EF000EAE3F2E0119284E0EA33F807D9F70E947E
:104F0000D91181E00E94BC0E0E94600FFEE1FF15E6
:104F100008F46CC06091D101A62FA770AA0FAA0F48
:104F2000AA0F8091CF01282F2770220F220F220F66
:104F300066956877869588779091C701992361F087
:104F400098E3392F3A1BA32F492F421B242FE92F17
:104F5000E61B6E2F981B892FEF2DF0E0E559FC4FD3
:104F6000E491F0E0861B990B8E9FA0018F9F500D5E
:104F70009E9F500D1124CA01809656E09695879504
:104F80005A95E1F7680F2A1B330B2E9F40012F9F84
:104F9000900C3E9F900C1124F0E28F0E911C76E055
:104FA000969487947A95E1F7A80D2091D001822FED
:104FB000877090E025FF6CC0019727E0289FF001E3
:104FC000299FF00D1124CF01805F9C4F262F277061
:104FD00038E0639FB00111248A2E912C21115AC010
:104FE000680D791D665C7D4F0E94390F81E00E943B
:104FF000CF0E4FE1F41230C00A30110509F092C013
:105000008091860190E046E0959587954A95E1F775
:10501000FC01E353FE4F20812223E1F02091E207BF
:105020003091E3072E3AECEF3E070CF473C02630C4
:10503000FFEF3F070CF470C0233543E034070CF05A
:105040006DC02B3F31050CF06BC022E08C579E4F9A
:10505000FC0120830E942E2080E00E946F0E84E0DD
:105060000E945D0E882309F4B7CE8091D201909101
:10507000D3010C9711F40E94600D0E94960E8DE0F2
:1050800090E01DCEEFE1FE123FCF0E94960E3CCF86
:10509000059693CF422FEEEFF0E05F01022E01C0A4
:1050A000AA0C0A94EAF7E8E0E21B2E2FAFEFB0E07B
:1050B0006D0102C0D594C794EA95E2F7FC01DB01CB
:1050C000A07CB770A80DB91DA65CBD4FBC01695F7F
:1050D0007F4FA094C094849190E0EC90EA204C0122
:1050E000042E01C0880C0A94EAF7E828ED92DF96B6
:1050F000EC90DF97EC20022E02C0959587950A94DC
:10510000E2F78E29DF968C93DF9731966E177F0733
:1051100011F76CCF20E09ACF21E098CF24E096CF12
:1051200023E094CF0C30110509F094CF0E94600D5C
:105130008BE090E09093D3018093D2018DCF0E94B9
:10514000600F81E00E94CF0E1092D1018EE090E0BE
:105150009093D3018093D2012EE34EE060E080E093
:105160000E941A1080913901823070F12CE045E0E4
:1051700069E08EE993E00E94EA103BE8E32E33E019
:10518000F32E12E1F701859194912BE0412F6FEFFF
:105190000E94EA10185FF2E0EF0EF11C123391F753
:1051A000E091D10120E4E29FF0011124E654FD4F8B
:1051B0009F01255D3F4F9EEF82858927828731962B
:1051C0002E173F07C9F710CD29E045E06BE083E9D2
:1051D00093E0D1CF8091D101882309F4A4C09091AC
:1051E0004401992309F49FC081502AE431E0829F51
:1051F0003001839F700C1124C30180960E945722B6
:10520000853C09F090C0F12CE12C512C31E2630E69
:10521000711C452C01E010E0C70123E0880F991FA5
:105220002A95E1F7FC01E957FE4F6F01C301840D98
:10523000911D0E945722382E5601A00EB11E450125
:10524000F1E08F1A910882958F700E942615F40163
:105250008083832D8F700E942615F50180834394EF
:105260000E5F1F4F0930110509F7F4E05F0E2FEFB5
:10527000E21AF20A30E25312CCCF0E94600F81E0B2
:105280000E94CF0E80E190E09093D3018093D201F1
:105290000E940D1185E3898B24E142E164E081EBFA
:1052A00093E00E94EA1080E2E82EF12C0FE01AE170
:1052B00024E1412F64E087EA93E00E94EA10098329
:1052C00026E2412F61E0CE0101960E94711080918B
:1052D0004401882361F0C7010E945722853C39F4BC
:1052E0002EE0412F61E0CE0141960E947110185FBF
:1052F0000F5F86EBE81A8EEFF80A1233C9F6E091D9
:10530000D10120E4E29FF0011124E654FD4F9F01FA
:10531000295E3F4F9EEF83898927838B31962E1715
:105320003F07C9F761CCE7E8F1E0119241E0E73CC3
:10533000F407D9F7A2CF0E940D1121E042E16FE0FE
:105340008CEB93E00E94EA102CE04AE169E08CEBE0
:1053500093E00E94EA102CE042E266E086EB93E0E4
:105360000E94EA10E091CF0130E4E39FF0011124A4
:10537000E650FD4F9F01285D3F4F9EEF83858927B3
:1053800083873196E217F307C9F72ECC0E94D91113
:105390002BCC80E0E82FF0E0982F9878A7E2B1E0DE
:1053A00011F0A8E2B1E0E65CFB4F9C9190838F3F47
:1053B00011F08F5FEFCFEAE3F5E0119285E0EB3774
:1053C000F807D9F7EBE7F5E08FEF819395E0EB3D38
:1053D000F907D9F780E680937A059AE290934C0515
:1053E00090E490934D059AE490936C0580936D053D
:1053F0001092DB051092D6041092D7041092D304B9
:105400001092D4041092D50480E28093DC071092AD
:105410009B051092BB05089580E28093C80180E34C
:105420008093C901E4E8F1E082E0818380831092F7
:10543000460110924501109247011092C70108954C
:105440006F927F928F929F92AF92BF92CF92DF9294
:10545000EF92FF920F931F93CF93DF93F82EE92ED5
:10546000282F2777C22EC22FD0E0E4E0D595C7952C
:10547000EA95E1F78C2E382F3770932E032F10E02A
:10548000F3E0CC0FDD1FFA95E1F7CE01800F911FFD
:10549000FC01E957FE4F5F018CED95E00E94861BF1
:1054A000ACEDB5E060E090E040E0FE2DF777DF2E58
:1054B000681739F111962C91119727772D111EC07D
:1054C0005C91252F2777C216C9F030E0F901E65C20
:1054D000FB4FE081F0E0E65EFA4F7080F5017081ED
:1054E00077120CC074E0359527957A95E1F7821212
:1054F00001C091E05770951201C041E06F5F1296B4
:10550000D7CFED2DF0E0E65CFB4FA08181E0A1114B
:1055100007C080E0E7FC04C08F2D881F8827881F04
:10552000FE01E957FE4FE00FF11FE0816E2F67701B
:10553000633010F48111982F20914501309146017C
:105540002F5F3F4F309346012093450121E831E022
:10555000F9018290729062909F01638274828582C9
:10556000F1E020363F07A1F72FE531E0F901529134
:105570009F015183F1E028343F07C1F720E0AA23BF
:1055800021F0B0E0A65EBA4F2C91209360012091EB
:10559000D604209361012091D704209362016330E7
:1055A00008F06DC010924801882329F080914801CD
:1055B000886080934801442329F0809148018062EB
:1055C00080934801992329F080914801806180935C
:1055D0004801809147018F5F8D3008F05AC0809359
:1055E0004701E8ECF8E0929182919383828337E05F
:1055F000EA3EF307C1F7F092EA07E092EB078F2D3E
:105600009E2D0E942B0CE091DB0585E0E89FF001C8
:105610001124ED52FB4F1092DB05A3EDB4E0019095
:105620000D928A95E1F70E9400208630A1F58091C5
:105630004801806880934801C092D101D092CF0187
:10564000C957DE4FC00FD11F88818093D0011882C7
:105650001092CA018AE090E09093D3018093D20126
:10566000DF91CF911F910F91FF90EF90DF90CF903E
:10567000BF90AF909F908F907F906F900895262F4E
:105680002350330BF901E451FD4FE491E0934801BD
:105690008BCF8CE0A4CF813021F08091DD0788236F
:1056A00059F2809148018064C5CF1F93CF93DF9357
:1056B000EC01162F0E943833181739F0612FCE01F4
:1056C000DF91CF911F910C944033DF91CF911F91C7
:1056D00008959C0120523109203E334008F0FFCF4D
:1056E0000C94552B2F923F924F925F926F927F9224
:1056F0008F929F92AF92BF92CF92DF92EF92FF92E2
:105700000F931F93CF93DF9300D01F92CDB7DEB7D7
:10571000182F8091440181110AC0111146C160E027
:105720008AE691E00E94692B123009F046C18AE4B2
:1057300091E0189F9001199F300D11243B832A831B
:10574000190130E2230E311C0A811B810F5D1F4FAE
:105750004090DB0585E0489E20011124D201AD5226
:10576000BB4F2D01580166246394712CF12CE12C60
:105770004501F701E65CFB4F6F01F4E0F983D601C8
:10578000EC9160E0EE2359F0F0E0E65EFA4F8081A4
:10579000682F66956695669568708770682B629528
:1057A000607FF601EE19FF09E60DF71DE081EE239B
:1057B00061F0F0E0E65EFA4F9081892F869586953C
:1057C000869588709770892B682BC4010E94552B91
:1057D000B981B150B983EFEF8E1A9E0AF2E0CF0E75
:1057E000D11CB111CCCF24E0A20EB11C30E1E30EEC
:1057F000F11C80E1680E711C90E8E916F10409F0D3
:10580000B7CFD2016C91C80180960E94552BF2014E
:105810006181C80181960E94552B7801F3E2EF0E59
:10582000F11CD20114966C91C80182960E94552BEE
:105830005AEEC52E57E0D52E0D5F1E4FF601608142
:10584000C7010E94552BC701F2E0EF0EF11CD601F3
:1058500011966C9101960E94552BB2E0CB0ED11C93
:10586000E016F10659F76091DC07C7010E94552B3D
:1058700024E8A22E21E0B22E0A811B810B5D1E4F6F
:105880003DECC32E31E0D32E4BECE42E41E0F42E60
:105890008A809B80E9ED8E1AEEEF9E0AD5016D910C
:1058A0005D01C8010E94692BF60161916F01C80179
:1058B00002960E94692BD7016D917D01C801049663
:1058C0000E94692B0F5F1F4F8016910639F794E8ED
:1058D000E92E91E0F92E00E611E0EA81FB81E65322
:1058E000F0406F01D8016D918D01C6018A0F9B1F99
:1058F0000E94692BE016F106A9F780E6E82E81E008
:10590000F82E08E411E0EA81FB81EA5FFF4F6F01A6
:10591000D8016D918D01C6018A0F9B1F0E94692BD2
:10592000E016F106A9F7609147018A819B818959A8
:105930009E4F0E94692B609145018A819B81885905
:105940009E4F0E94692B609146018A819B818759F5
:105950009E4F0E94692B65ECC1010E94692B0E9439
:1059600059229983682F8EEF93E00E94552B69810D
:105970008FEF93E00E94552B81E0809344010F90BC
:105980000F900F90DF91CF911F910F91FF90EF90AB
:10599000DF90CF90BF90AF909F908F907F906F904F
:1059A0005F904F903F902F90089560E080E290E0EC
:1059B0000E94692B113009F0B2CE60E084EB92E0D6
:1059C0000E94692BB4CEECEDF1E01382128288EED6
:1059D00093E0A0E0B0E084839583A683B78388E159
:1059E00091E0918380838FEF9FEF9587848708955F
:1059F000CF93DF93CDB7DEB729970FB6F894DEBF0C
:105A00000FBECDBF789484B5826084BD84B58160BB
:105A100084BD85B5826085BD85B5816085BD809179
:105A20006E00816080936E001092810080918100F1
:105A300082608093810080918100816080938100E9
:105A400080918000816080938000809191008260CD
:105A5000809391008091910081608093910080916A
:105A600090008160809390008091C1008460809359
:105A7000C1008091C10082608093C1008091C1000B
:105A800081608093C1008091C30081608093C300D6
:105A90008091C00082608093C0008091C2008160CC
:105AA0008093C20080917A00846080937A00809114
:105AB0007A00826080937A0080917A00816080937E
:105AC0007A0080917A00806880937A00109239027F
:105AD0001092D9011092DB018091D70081608093F0
