:100000000C9445080C946D080C946D080C946D08C4
:100010000C946D080C946D080C946D080C946D088C
:100020000C946D080C946D080C94BF260C942E272C
:100030000C946D080C946D080C946D080C946D086C
:100040000C946D080C946D080C946D080C946D085C
:100050000C946D080C946D080C946D080C94602938
:100060000C946D080C946D080C946D080C946D083C
:100070000C946D080C946D080C946D080C946D082C
:100080000C94AA290C946D080C946D080C946D08BE
:100090000C946D080C946D080C946D080C946D080C
:1000A0000C946D080C946D080C946D0815133700B2
:1000B000130E3700101337000F0E3700012D0123E8
:1000C000002A232E232A3411002A232E232A341017
:1000D000002A232E232A340F002F01272D34242D0C
:1000E0002E2300EF000000000000F00000000000E0
:1000F00000F10000EF0000000000F0000000000030
:10010000F100000000EF00000000F000000000F12E
:10011000000000000000EF000000F0000000F1000F
:1001200000000000000000EF0000F00000F10000FF
:100130000000000000000000EFDFF0E1F10000002F
:100140000000000000000000EEEFF0F1F2000000FF
:10015000000000FFFFFFFFFFFFFF000101010101A1
:1001600001010000000000000E0F1011120000003D
:1001700000000000000000000F1F1021110000000F
:10018000000000000000000F00001000001100003F
:100190000000000000000F0000001000000011002F
:1001A00000000000000F000000001000000000111F
:1001B000000000000F000000000010000000000020
:1001C0001100000F000000000000100000000000FF
:1001D0000011041F02041F031F150A031F051A0341
:1001E0000E191E031F041B0308141C031F1408030D
:1001F0000C12120308141F030C1A14021E0503121A
:10020000150F031F0418030E110E03121F100319FC
:1002100015120311150A0307041F03171509030E0E
:10022000150803011907030A150A0302150E020433
:10023000040314081403040E04050A1F0A1F0A0508
:10024000190D0C0D190511090809110501111011DD
:1002500009050911101109050D1918190D030E11C1
:1002600011031F041F031F1511051F0204021F03A2
:100270001E051E03011F01031F110E050F100E1096
:100280000F03121509031F1010031F050203111F8E
:1002900011040E11110E03071807040F10100F049C
:1002A0000E11151D031F0501010A030115020200AD
:1002B0000003000000040408040203190413FFFFF4
:1002C000FFFFFFFFFFFFFF00010203040506070712
:1002D0000707070707070706050403020100222F87
:1002E000242501002926252A232425262324252602
:1002F00023032C252A03232B23262C262C2D011304
:100300000E34242D2E2329270325283221222321B0
:1003100005242526232A2D252734302524230001D2
:100320000203040558031503BC00B800B400B00074
:10033000AC00022A2F0127230332DE02D100C900BC
:10034000C100022A2521053228222C262332292603
:100350002503263430252423012328343025242363
:100360000000687C7C7C6800000014001400001809
:100370001C4A7E7E7C70204C7E377A4C20467C7EE8
:100380007C7E7C4643647D7E7D644344687A7F7ACC
:1003900068440068544454680018144A72424C700F
:1003A000204C7221724C20467C4644467C46436475
:1003B0005D465D644344685A4F5A68440000010337
:1003C000070C131A222A30363B3E40400000000042
:1003D0000000000000000000000000001704D90029
:1003E000F8032A0430252423342B252F29232730F2
:1003F000252423342D2E230329252E233430252490
:10040000230021250121232A2D2E230328032C2616
:10041000233429252E2333022521050029252E2CBE
:10042000013033282C26222D2F2624252C0134247C
:1004300023012F002A23252E2334262D000000001F
:1004400000000000000000000000000000000000AC
:100450000000000000000050F0F0800000000000EC
:100460000000000000000000000000800000C42226
:1004700012CA3C0000806040808040000080402024
:1004800020C0380600008060000080600000C0309E
:1004900008040402222418000080603826C00000EE
:1004A00000804020A060000000807020408000009C
:1004B000008070204080000000000000000000006C
:1004C000000000000000000000000000000000002C
:1004D0000000800100EA711AFF7E8783838080809C
:1004E0008000000000000000102020908D8381819A
:1004F000818F90908E81808C939088848E9190884B
:100500008E919088848E9190888E9190888798A003
:10051000A0A0A0A0909088948E8180808E919088D9
:1005200084878A91909088848A9598889493888407
:100530008A95988894938840402418000000000011
:10054000000000000000000000000000000000109B
:1005500005421825D748B77FC9F7FEBFEB7F1F0FAD
:10056000030000000000000C120101000000004028
:10057000A0F058E84040E04000000000000000000B
:10058000000000000000000000000000000000006B
:10059000000000000000000000000000000000005B
:1005A000000000000000000000000040E04040E8C3
:1005B00058F0A04000000000000000000000000013
:1005C00000000000000000000000000000004000EB
:1005D000809002A1BC4BABBEEFBBFEFF9FF9F0C009
:1005E000C0800000000000000000000000000000CB
:1005F0000001030200000000000000800000808075
:1006000000800080000000800000800000808000EA
:1006100000804000800000C00000C000008000009A
:10062000C0000040008000008040008000004002C8
:1006300003410080400000400080000000002A00CC
:10064000500500B000045120088021089022400885
:10065000801240010A69DBBAFDFFFEFFC101158966
:1006600004A208441348A4126C813248A01A60887E
:10067000523144A81168528134688132888016AAA8
:100680000896AB041AC728168BA41A87A80E92AD39
:100690000A46B94E72D12C52F10876E118D4633073
:1006A000CC5132E44930D621E894032E548B158E78
:1006B000A51906AE510E95228D1EA00B000050000C
:1006C0001400801400088002044002094006010062
:1006D000124500806813EEFD37FFFFBFFFF8E0C34F
:1006E00018A44118A04AA800DA20886A9008E230CD
:1006F0000CE0110C5000850822870802AB04820927
:1007000006AA01068D23028D22078C2207C9AE732B
:10071000915864B1906C51B0D429B0C83AE0115CE2
:10072000E01174C81075C810F0060D238C0B220C54
:100730004B02AD0A01AE0209A60A118600000900AB
:100740000228000A100204100904002B000803000C
:1007500030C02C92E91DF6ABDF7FEBFFDFF77FFFA8
:10076000EEFCFCFAA000628048224008A210089724
:100770002208952A118658052A114E8932049D2295
:10078000095688132E900B14926D8A01608A44A03A
:100790001241A44840952248806A00D224488360D0
:1007A00014C16802D025806806398B1416A9151764
:1007B000A8132E81182F8219244B12140000A000B8
:1007C00000500000108000002000008010008022F7
:1007D00000045A0015564D15565D9F572DFFAF2B3F
:1007E000DFAE37CF6F109661118860128870821863
:1007F0006042985022945040B5006A9020CA3085DB
:100800006810A2681482200C83540986290A842562
:100810008B04A90A86218D0AA10D9205288B451407
:100820000AA10E02294608937004897004D1228817
:100830005025D00228D002A950049160D5F08D1423
:10084000A1C881CFD9F1AF2000001A4080C0080BA9
:10085000000202020000090400000102020000057B
:1008600024001001052401010104240206052406C8
:1008700000010705810310004009040100020A007D
:100880000000070502024000000705830240000047
:100890000403090412010002EF02014041233680E3
:1008A00000010102030141726475696E6F204C4CB6
:1008B000430041726475626F79009105C7855147A5
:1008C0009211920285828E55864749858D0D454845
:1008D00004888E184706C9000247CA8E1547C955B5
:1008E00087084A88C745CA83D55582D55587D50418
:1008F0000749CAC25582CAD355850204858F0DC5E2
:1009000044D04D09CA90554B84C54687829954D22C
:1009100055858402C85187C349C8CA5206879119B0
:10092000C5044705C44588D245CA99D411044792E5
:10093000D544855584951A5045CBD55386C7D8489C
:100940008885024787D15B4A8BC751CC85530749BD
:100950008292530587D39909CC5B12C54786D34849
:10096000C9D3D0C7528307C9D3D7D4508511929029
:10097000855387C45389944ECB588894184786581A
:10098000C80547CACB559104C8498648CB04C9520B
:100990008290D348C653858F8FCA4A90474A908F1A
:1009A0004DD0CD0546CACAD1518491C688514A86D8
:1009B000C65188464B86468990978F164113CA5A6E
:1009C0009094124807CB4991944ECB1857C6549136
:1009D000D04E05CB905291D24744889017C7C7514B
:1009E0009111C74A86C74FCBC7D312460BCC909301
:1009F0004B11C5CA511186D34F8893C646860FC680
:100A000048C9C650CBD3D24587914592984A999010
:100A10009905471D4D85D84B8796469045C6458616
:100A2000D747C8914A4890C758928249850587039D
:100A300046C8478785044706488649889A429B05E9
:100A40004A8518024507C943CA9A559B548555C91A
:100A500055858FD14682D147859144C5030547848A
:100A6000D14687CF49868F0F485189C50F50888F4F
:100A70001847911802050447CA180547CA8F154739
:100A800091558848CA15054488C64FCB4585C7C7C8
:100A9000C9458492C69A4A45854648879791C64576
:100AA000C547989056044B8F51919199458544C6FE
:100AB0004585C7518459C6458598D14790D15992EB
:100AC000D1448544848F1005469110468444C65015
:100AD000869012408545C61012054888C647C78FC4
:100AE00017141100054491110446C446C6D1C544EB
:100AF0008692984592C5494B85C89047D248C8D23E
:100B0000CF4988921105074A85978041834A4291CF
:100B1000CF58824F874FCACA5088C78F571007C611
:100B2000464B8B990B4C9091D9474792D14985D12F
:100B30000FCA4888CACE51CBD1D306084BCC9213EA
:100B40005185934F51C8D34F899110519290878707
:100B500052C6530649C8D21085528746CB4682C733
:100B6000D355850F90909850121408C94B00859268
:100B70005148C7124893905091D045459190981391
:100B800004064A8E0508074B0406C74491CE4580EB
:100B900044859800034297508E1140845187124437
:100BA00049878E0F4082428446854E864F8744C9CE
:100BB0004FCBC7530082D05C8491C75182C6548604
:100BC000C754C70FC647865087C4C4448AC5504B14
:100BD0008490C6D31B4593C64991C6CF5B85C64852
:100BE00086C6D1084BC7868F4590458717448644F3
:100BF000C8464B879104C750C89147D58F1B1355E2
:100C000050861011C79295488F040849C848CBCF29
:100C100053899595CF4E0FD00EC50D448F8FC85672
:100C2000D08747C856908F97150D101200030647BE
:100C30009616518D171148841145C746908D174D52
:100C40008E46C7508616C7474987C8109A4F44C971
:100C500096D04590509CC06187C846C8941147CF34
:100C600013121007064B8890C74591471986C7D1C4
:100C700052C70205C78F170F114690140F110005B8
:100C800046870245C646CC1105C7938F0446914658
:100C900044C68F40911351C8518B92518551875151
:100CA00089CAC6D246CC91C7CB4449CC128793524D
:100CB000518913C5C4C6484C000000000000000064
:100CC0000000000000000000000000000000000024
:100CD0000000000000000000000002000000000012
:100CE00000010000000000000200000200000000FF
:100CF00000010000000000020000000002000000EF
:100D000000010000000002000000000000020000DE
:100D100000010000000200000000000000000200CE
:100D200000010000020000000000000000000002BE
:100D300004010402000000000000000000000004A4
:100D40002010200400000000000001010101010149
:100D50000800080101010101010000000000000479
:100D6000804080040000000000000000000000023D
:100D70000401040200000000000000000000020066
:100D8000000100000200000000000000000200005E
:100D9000000100000002000000000000020000004E
:100DA000000100000000020000000002000000003E
:100DB000000100000000000200000200000000002E
:100DC000000100000000000002EFF10F11F010FF21
:100DD00001DFE11F21EE0EF21200208004A259FB78
:100DE000F80004040C0D1424FDFFFFFFBDFFFFBF3E
:100DF000FFFFFFFFFFFFFFFFFFFFFFFFFFFFFFFF03
:100E0000FFFFFFFFFFFFFFFFFFFFFFFFFFFFFFFFF2
:100E1000FFFFFFFFFFFFFFFFFFFFFFFFFFFFFFFFE2
:100E2000FFFFFFFFFFFFFFFFFFFFFFFFFFFFFFFFD2
:100E3000FFFFFFFFFFFFFFFFFFFFFFFFFFFFFFFFC2
:100E4000FFFFFFFFFFFFFFFFFFFFFFFFFFFFFFFFB2
:100E5000FFFFFFFFFFFFFFFFFEFFFFFFDEFFFFDFE4
:100E60000001010303050900EFF0F1FF010F10116C
:100E70000000000000000000DC00DB00D000CF001C
:100E800086008F00870085005400580055005600EA
:100E90004200470048004F003E0045004500420028
:100EA00041004E004C003A0000000000000000002D
:100EB000BE00EB00F9000501F5000A0120011D014B
:100EC000020123012F0132011101230130013301FD
:100ED00008011C0126012901FD0013011A0122014C
:100EE000FA0001010F011301EA00FD00FB000001FF
:100EF0000C0110010C0114011101270124011F0133
:100F00001C012A012E012C011F012601310138018B
:100F10001B0126012D0136011D0127013001300181
:100F200015012B01240124010B01170110011701E8
:100F3000E001E201E901EE01E101E601EE01EA0171
:100F4000D601E001E501E401D301D601E501E101AB
:100F5000C901D401DB01DB01C101CF01D401D401FE
:100F6000BA01CB01D401D601C701CB01D901DD0102
:100F70006403750389038903700371038E038E0371
:100F80007C0382038F039703760378038903880326
:100F900070037A037F0380036E0376037E037A0374
:100FA000580366037D0377035F035D0364037703E0
:100FB000DEFFF8FFF2FFEBFF00000D00110009005B
:100FC0000300190018000900F5FF0E0012000E00C2
:100FD000EBFFFEFF0B000C00F0FF01000700080014
:100FE000F0FFFFFFFFFFFDFFE0FFF8FFECFFEDFF6D
:100FF0000C0011000D000E0007000A000A000A0094
:101000001B0016000E000F001E0012000900030056
:101010001A0017000D0007000400FFFF040009007C
:101020000F00060007003500A0FFD5FFF7FFFBFF0C
:10103000070005000D000A000D0009000A0003006A
:101040000000FFFF010001005FFFC9FFDFFFEEFFAF
:10105000F5FFF9FFFEFFFEFF030007000A00100086
:10106000140020001E002B0011000700E7FF040001
:10107000190013000D00070004000300F8FFFAFF39
:10108000F3FFF2FFF2FFEEFF403111241FBECFEF5E
:10109000DAE0DEBFCDBF11E0A0E0B1E0E4E8FFE6BA
:1010A00002C005900D92A033B107D9F728E0A0E364
:1010B000B1E001C01D92A13EB207E1F718E0C5E41E
:1010C000D8E004C02197FE010E94BA37C434D1078A
:1010D000C9F70E9455310C94C0370C9400008F92D0
:1010E0009F92BF92CF92DF92EF92FF920F931F9346
:1010F000CF93DF93EC01DC010CE815E091E096174B
:10110000D8F51296BC90129713967C911397F8011C
:1011100081918F01292F422F50E0FA01E657FA4FB3
:101120007F01FA01EE0FFF1F4F018C0E9D1E4557E8
:101130005A4FF7013081381784F46401F2E0CF1A76
:10114000D108F601C080D180F401D182C082F701BC
:101150003081FA0130832150F1F630E0F901EE0FD1
:10116000FF1FEC0FFD1FB082718325573A4FF90125
:1011700080839F5F1296C3CFDF91CF911F910F9114
:10118000FF90EF90DF90CF90BF909F908F90089549
:10119000E9E4F2E0A0E0B4E000800EBC8111012C93
:1011A0001197A0FDFDCF0192B9F70DB4089592E01B
:1011B000960F4AE0460F4917E9F0292F30E0F90170
:1011C000E657FA4F508157FF13C0275D3A4F462F1D
:1011D00042954695469543706F5F640FD9016C93B5
:1011E0008083E82FF0E0E75BFB4F9083892F089521
:1011F0009F5FE1CF80E00895E62FF0E0E45CFA4FD6
:10120000908191509083292F30E0F901E75DFA4FEA
:10121000460F408326573A4FF9018083E82FF0E0CC
:10122000E75BFB4F9083892F08956F927F928F9297
:101230009F92AF92BF92CF92DF92EF92FF920F9365
:101240001F93CF93DF93CDB7DEB7C054D1090FB64C
:10125000F894DEBF0FBECDBFE091EE0545E0E49F00
:10126000F0011124EE51FB4FE48054E080E05E1564
:1012700008F0C1C0FE013196DF01BE016F5B7F4FF8
:101280001192E617F707E1F730E020E0F12C80E05B
:1012900055E0C52E922FD22E2E150CF064C0409131
:1012A000EE0524170CF092C050E0421B530BC49E75
:1012B000F001C59EF00D1124EE51FB4FB080E1818D
:1012C0008E2E8B18F80CF0E0AF01475B5B4F3A01B4
:1012D000FA019080492D50E08A01005211090A0F4D
:1012E0001B1FF801A080A80CA0820B2D10E0075B4B
:1012F0001B4FF8019082F301108246575A4FFA01B2
:10130000B082F1106DC08D0149E454E0F801B19054
:101310008F01BB20B9F0FA01EF59FE4FE081EB0DD0
:10132000E7FD5CC0F0E0E75BFB4FE081EE2309F4F2
:1013300055C0F0E0E75DFA4FB080FA01F395E08127
:10134000BE124CC04F5F5F4F60177107F9F641E066
:1013500090FF46C0442309F443C08F5F813009F4F5
:101360003FC091E09D0D915050E040E0692F092E63
:10137000000C770B35E0F32E97FD3DC02091EE0574
:1013800092178CF530E0FB01E41BF50B2E1B3F0B95
:10139000F29EF001F39EF00D1124EE51FB4F2081DF
:1013A0003181E22FF0E0E75BFB4F2081032F10E05B
:1013B000075B1B4FD8012C931082E22FF0E0E65719
:1013C000FA4F30834F5F5F4F9150D6CFE22FE41B2F
:1013D000F0E0EE0FFF1FEF5FF74F70CF40E0B8CFA8
:1013E0002F5F3F4F57CFE92FE21BF0E0EE0FFF1FBB
:1013F000EF5FF74FD4CFC05CDF4F0FB6F894DEBF7E
:101400000FBECDBFDF91CF911F910F91FF90EF9055
:10141000DF90CF90BF90AF909F908F907F906F9014
:101420000895DF92EF92FF920F931F93CF93DF9374
:10143000E091FC0730E63E273093FC07682F677782
:10144000592F5777A52FB0E0A75BBB4F4C91C091A8
:10145000EE052FEF2C0F2093EE0505E0C09FE00175
:101460001124CE51DB4F2A81C22FD0E0782F707823
:10147000F92FF8787F2B09F448C097FF62C0842FBA
:1014800090E08C01075D1A4FF8017081E72FE7703B
:10149000F0E0E05AF14FD490E32EF12CF701E6573B
:1014A000FA4F70817F5F7D197083F8011082865733
:1014B0009A4F3FEFFC0130838091FC0790E0FC01E4
:1014C000E55CFA4F3081FC014317A0F5E55CFA4F6B
:1014D000832F815080838091FC0792E0980F3AE03F
:1014E000380F391791F0092F0052110B075B1A4F73
:1014F000F8017081711123C031E0380F8295869513
:1015000086958370830F8083492F222389F1C75DDD
:10151000DA4FE881E770F0E0E05AF14FE491C091D2
:10152000FC0780E6C827D0E0C657DA4F8881E80F6D
:10153000E8831EC0E45CFA4F80818F5FCBCF9F5F52
:10154000D0CF8E0106571A4F93FF3AC0561740F579
:101550008CEF860FE82FF0E0E75BFB4F2083EFEF87
:10156000E60FF0E0E75BFB4F1082E801888320E0A4
:10157000E62FF0E0E75BFB4F4083E42FF0E0E65717
:10158000FA4F60832C93E22FF0E0E657FA4F508336
:10159000DF91CF911F910F91FF90EF90DF90089511
:1015A00083E0860FE82FF0E0E75BFB4F2083E1E06C
:1015B000E60FF0E0E75BFB4F1082F8018083D7CFA6
:1015C00087FFA3CF80E3850F831BC82FD0E0C75BC5
:1015D000DB4F2883E8018883F0E0E657FA4F8081EB
:1015E0008F5FECCF80E0E82FF0E0982F9878A7E2AB
:1015F000B1E011F0A8E2B1E0E75BFB4F9C91908372
:101600008F3F11F08F5FEFCFE9E4F5E0119285E0B5
:10161000EA38F807D9F7EAE8F5E08FEF819395E02B
:10162000EA3EF907D9F780E6809389059AE290931C
:101630005B0590E490935C059AE490937B0580931E
:101640007C051092EE051092E5041092E6041092CB
:10165000E2041092E3041092E40480E28093FC0719
:101660001092AA051092CA0508954F925F926F9248
:101670007F928F929F92AF92BF92CF92DF92EF9222
:10168000FF920F931F93CF93DF930E94F20A81E0A2
:1016900090E0909300088093FF071092FE0710924D
:1016A000FD07C0E610912E01D0912D01612F8C2FE6
:1016B0000E94D7086D2F80EB8C0F0E94D708CF5F58
:1016C000C836A1F709E414E0C0E0D12C50902E01F7
:1016D00090902A01C0902B01609029017C2C892CCC
:1016E000D0912D01492D6D2F8C2F0E94FC088D2F3C
:1016F00090E09C01255C3A4F5901F901208181E07D
:10170000820F808383E0482E4D0E822F90E0FC01F3
:10171000E75DFA4F408286579A4F31E03C0FFC015B
:101720003083F80121834C2D6D2F82E08C0F0E94B5
:10173000FC08462D6D2F83E08C0F0E94FC0821E0F1
:101740002D0F822F90E0FC01E75DFA4F37E03D0F4F
:10175000308386579A4F34E03C0FFC013083F80108
:101760002483472D6D2F85E08C0F0E94FC08F50126
:10177000208181E0820F8083822F90E0FC01E75D71
:10178000FA4F408286579A4F36E03C0FFC01308377
:10179000F8012683482D6D2F87E08C0F0E94FC08EE
:1017A000C05900591F4FF1E0DF1222C087E2809339
:1017B000CA058093AA05E091EE0525E0E29FF001BD
:1017C0001124EE51FB4F83E6838384E08183DF9114
:1017D000CF911F910F91FF90EF90DF90CF90BF902E
:1017E000AF909F908F907F906F905F904F900895F3
:1017F000DD24D394D52D76CF482F862F642F6076A5
:1018000047704330D9F020F4413078F480E00895F7
:101810004730B8F14730D1F791E0960F292F30E0EB
:10182000F901E75DFA4F695F20C0E62FF0E0E65767
:10183000FA4F90819F5F90830C94D708262F30E059
:10184000F901E657FA4F90819D5F90832E50310940
:10185000F901E75BFA4F908141E0490F4083292F5E
:1018600030E0F901E75DFA4F6D5F608326573A4F2C
:10187000F9018083E82FF0E0E75BFB4F9083892F2D
:101880000895E42FF0E0E05AF14FE491A62FB0E084
:10189000A657BA4F9C91E90FEC930C94FC08962F35
:1018A000282F22952F70362F32953F70321337C074
:1018B000242F861708F58F5FE82FF0E0E75BFB4FDA
:1018C00090819923C1F368132AC02F5FE22FF0E0C3
:1018D000E75BFB4FE081EE23C1F38091FC078E2391
:1018E000F1F4F0E0E75DFA4FE081E770F0E0E752F5
:1018F000F24F8081817008958150E82FF0E0E75B1E
:10190000FB4F20812223C1F3841309C09150E92F9A
:10191000F0E0E75BFB4FE081EE23C1F3DECF80E038
:101920000895FC0180914802882311F13FB7F89493
:1019300082E08093E9002091F200822F90E0181657
:10194000190614F481E090E0882339F0289844E6E1
:10195000409347024091F1004083222339F02091C7
:10196000F200211103C02BE62093E8003FBF089549
:101970008FEF9FEF08952FB7F89483E08093E900ED
:101980009091E800892F807295FF04C09091F20039
:1019900080E4891B2FBF089580913F0281110DC003
:1019A00082E080933B0284E080933C0210923E02EE
:1019B00010923D0281E080933F028BE392E0089514
:1019C000CF93DF931F92CDB7DEB76983DC01ED9132
:1019D000FC910280F381E02D41E050E0BE016F5F99
:1019E0007F4F09950F90DF91CF91089583E0809309
:1019F000E9008091F200882319F08AE38093E800DF
:101A000008950E94BB0C90E00895CF93DF931F923E
:101A1000CDB7DEB7FC018485958597FD08C02FEF13
:101A20003FEF358724870F90DF91CF910895CE0146
:101A300001960E94910C019719F4898190E0F3CFEF
:101A40008FEF9FEFF0CF0F931F93CF93DF931F92F2
:101A5000CDB7DEB78C01FC018485958597FF0BC05F
:101A6000CE0101960E94910C019771F4898190E05A
:101A7000F80195878487F801848595850F90DF911B
:101A8000CF911F910F9108958FEF9FEFF1CFFC0140
:101A90008485958597FD0BC09FB7F89482E080936D
:101AA000E9008091F2009FBF90E0019608959FB7F2
:101AB000F89482E08093E9008091F2009FBF90E06B
:101AC00008954091E5015091E6012091E3013091A4
:101AD000E40142175307B4F49091E8009570E1F3E4
:101AE0009091E80092FD19C08093F1008091E5018A
:101AF0009091E60101968F739927892B19F48EEF47
:101B00008093E8008091E5019091E6010196909321
:101B1000E6018093E50181E0089580E00895EF9269
:101B2000FF920F931F93CF93DF93F82E192FE62E7A
:101B3000042F81E0860F880F0E94610D83E00E94D0
:101B4000610DCF2DD12FEC0EFD2EF11CCE15DF0532
:101B5000B9F007FF13C0FE0184910E94610D182F98
:101B600080E00E94610D812321968111EFCFDF91EA
:101B7000CF911F910F91FF90EF9008958881EDCF45
:101B800081E0F5CFDF92EF92FF920F931F93CF93F7
:101B9000DF93D82E8A01EB017B01E40EF51ECE15F2
:101BA000DF0559F0D7FE12C0FE0184910E94610D3D
:101BB00021968111F4CF0FEF1FEFC801DF91CF9174
:101BC0001F910F91FF90EF90DF9008958881EECFE5
:101BD0000F931F93CF93DF931F92CDB7DEB782E0B1
:101BE000898342E450E06EE478E080E80E94C20D10
:101BF0000E94CC0CDC0112960D911C91011511056F
:101C000089F0D801ED91FC910280F381E02DBE01B5
:101C10006F5F7F4FC801099597FD04C0F8010085EB
:101C20001185ECCF89810F90DF91CF911F910F919A
:101C30000895615030F02091F100FC01208301965D
:101C4000F8CF289884E68093470208953FB7F89428
:101C50008091450190914601A0914701B0914801C2
:101C600026B5A89B05C02F3F19F00196A11DB11DF7
:101C70003FBFBA2FA92F982F8827BC01CD01620F33
:101C8000711D811D911D42E0660F771F881F991FEE
:101C90004A95D1F708958F929F92AF92BF92CF92BB
:101CA000DF92EF92FF926B017C010E94260E4B01A6
:101CB0005C01C114D104E104F104B9F00E94260EC4
:101CC000681979098A099B09683E73408105910565
:101CD00080F321E0C21AD108E108F10888EE880EED
:101CE00083E0981EA11CB11CE4CFFF90EF90DF9021
:101CF000CF90BF90AF909F908F90089565E070E077
:101D000080E090E00C944B0E8F929F92AF92BF9226
:101D1000CF92DF92EF92FF920F931F93CF93DF93B7
:101D20006C017B018A0180910B01882309F45CC05E
:101D300080914802882309F457C08091EA0180FF0E
:101D400005C08091E00082608093E000E801B12C42
:101D50008AEFA82E93E0892E2AE3922E209711F481
:101D6000BB20D9F10E94BB0C81110AC0AA94AA2001
:101D7000D9F161E070E080E090E00E944B0EEECF80
:101D80008C171D0611F00CF08C2F9FB7F8948092E1
:101D9000E9002091E80025FD02C09FBFDFCF282F7A
:101DA00030E0C21BD30BF701815020F041914093EA
:101DB000F100FACFE20EF31EBB2021F09092E80072
:101DC000B12CEBCF8091E80085FDE7CF9092E80041
:101DD000BB24B394209709F3F3CF5D9884E68093F6
:101DE000E901101611063CF081E090E0F6019383C2
:101DF000828310E000E0C801DF91CF911F910F9125
:101E0000FF90EF90DF90CF90BF90AF909F908F901A
:101E100008958FB18095807F669B88601C9B84604D
:101E200008958EBD00000DB407FEFDCF08955C98A7
:101E300008955C9A089590E1699FB001112480FD96
:101E400003C0719561957109CB010895282F30E089
:101E500083FB882780F996E0359527959A95E1F7D9
:101E60002270822B8D5F08958F929F92AF92BF92C6
:101E7000CF92DF92EF92FF920F931F93CF93DF9356
:101E8000A091EE0525E0A29FF0011124EE51FB4F39
:101E9000AF5FA093EE05A29FD0011124AE51BB4FBE
:101EA000238113962C931397248114962C931497C3
:101EB0008C9311969C931197382F392B387899F47D
:101EC000E82FF0E0E75BFB4F4091FC073EEF341B4F
:101ED0004081340F383038F0E92FF0E0E75BFB4FFA
:101EE00030812F5F311120E014962C931497382FF6
:101EF0003777292F2777D22E432F50E08A01075BAF
:101F00001B4FF80120816D2D70E0FB01E75BFB4F5B
:101F10007F01C080CC2DD0E0CC20A1F0FE01E75D98
:101F2000FA4FE081E770F0E0E05AF14F9490A09012
:101F3000FC07F0E6AF26B12CF501E657FA4F80809A
:101F4000891880821296CC9212974851524FFA010A
:101F50004491FB01E851F24FE491E42313964C9134
:101F60001397E4231396EC931397592F5878482F1F
:101F70004078452BA1F197FF61C0A22EB12C0E94A1
:101F8000260FF501E75BFB4FDF01A052BF4F1C920C
:101F9000EF5BFE4F9FEF90834091FC07A42FB0E0D2
:101FA000833009F43CC0A45CBA4FEC912FEF2E0FA4
:101FB0002C93E22FF0E0E75DFA4F9091FC07980F29
:101FC0009083E82FF0E0E05AF14FE491A091FC07F4
:101FD000B0E0A657BA4F8C918150E80FEC93F7010F
:101FE0002083F8011082E22FF0E0E657FA4FD0820A
:101FF000C657DA4F8FEF88838091FC0790E68927D8
:102000008093FC07DF91CF911F910F91FF90EF908C
:10201000DF90CF90BF90AF909F908F900895FD017B
:10202000E55CFA4F2081922F9F5F9083E22FF0E0D2
:10203000E75DFA4F9091FC079D5FC2CF93FF2AC0E6
:10204000D316D8F4ECEFE30FF0E0BF01675B7B4FF2
:10205000FB01408112964C9312973150832F90E0F0
:10206000875B9B4FFC014083FB0110821296EC9131
:10207000F0E0E657FA4F3083B2CFE3E0E30FF0E051
:10208000BF01675B7B4FFB01408112964C93129717
:102090003F5FE4CF87FFA3CF4091FC078D2D841BCA
:1020A000805D90E0875B9B4FFC01308112963C93F2
:1020B0001082A32FB0E0A657BA4F8FEF8C9380E623
:1020C000E42FE827F0E0E657FA4F808181508083C3
:1020D00086CF2091400130E020953095409141011C
:1020E00050E02423352390E02823392381E0232B5B
:1020F00009F480E00895CF93C82F0E94090F209122
:1021000041018227E8E3F1E050E040E031E090E077
:1021100070E5682F632359F160816F5F6C1700F5DC
:102120006083330F4F5F5F4F31964830510589F719
:10213000922790934101E0E3F1E081E048E2392FFA
:10214000382321F030813150A1F03083880F31964F
:1021500031E0E833F30799F720934001CF910895D8
:102160001082932BDA01A05DBE4F7C93DACF1082F0
:10217000D8CF4083382F30953F602323E7CFCF93CC
:10218000DF9380E591E049E454E0DA0130E020E0BB
:10219000ED91EE23B9F0F0E0E75DFA4FEC01C20FEC
:1021A000D31F608168832F5F3F4F2830310581F74F
:1021B0000896405F5F4F21E08039920731F7DF9149
:1021C000CF910895ECE0F1E0E9CFCF93C82F0E94C2
:1021D000170F81E20E94110F80E40E94110F8FE718
:1021E0000E94110F0E94190F8C2FCF910C94C808D8
:1021F000CF93C82F0E94170F81E20E94110F80E039
:102200000E94110F8FE30E94110F0E94190F8C2F53
:10221000CF910C94C808DB01FC0124912C933196DA
:10222000E4911196EC931197FC013296E491129689
:10223000EC931297FC013396E4911396EC93139769
:10224000FC013496E4911496EC931497FC013596B6
:10225000E4911596EC9315970696FC0184911696D9
:102260008C930895CF92DF92EF92FF920F931F937A
:10227000CF93DF9387E0E82E09E412E097E0D92EB0
:10228000CD2CCE18E801F12C809190018823A1F18A
:10229000ED2DEF198E2D28E0829FC0011124E80F4B
:1022A000F92FF11DE05BFE4F2081222351F1822F97
:1022B000877090E025FF23C00197D89E9001D99E9A
:1022C000300D1124C9018F599C4FBE010E940B1182
:1022D0002896F39488E0F812D7CF005C1F4FEA9459
:1022E0002FEFE212CDCFDF91CF911F910F91FF9091
:1022F000EF90DF90CF9008958C2DEF2DCCCF0596E9
:10230000DCCF8C2D8F0D80FDE3CFBE0188E693E0FE
:10231000DDCF98E0899FF0011124E07CF770E40F95
:10232000F11DE75BFD4F982F97702FEF30E001C054
:10233000220F9A95EAF79081922B9083E05CFF4FF1
:10234000887F885F70E06F5F7F4F9FEF885F8617A1
:10235000170609F024F49083E05CFF4FF7CF677015
:10236000772781E090E001C0880F6A95EAF78150F5
:102370009081892B80830895282F277091E001C0D8
:10238000990F2A95EAF728E0829FF0011124E07C5A
:10239000F770E60FF11DE75BFD4F461738F08191AE
:1023A000DF011197892B8C936F5FF7CF089598E029
:1023B000899FF0011124E07CF770E60FF11DE75BC7
:1023C000FD4F877021E030E001C0220F8A95EAF7C7
:1023D0008081822B80830895CF92DF92EF92FF92CB
:1023E0000F931F93CF93DF93D82F062FC42F122F55
:1023F000FF24FA94F20EEE24E394E60E4F2D6E2D98
:102400000E94BC114F2D6E2D8C2F0E94BC11DD241B
:10241000DA94DC0ECC24C394CD0E402F6D2D8C2D80
:102420000E948911412F6D2D8C2D0E9489110E5F04
:10243000602F8C2D0E94D7111250612F8C2D0E947D
:10244000D711602F8D2D0E94D711612F8D2D0E94E5
:10245000D711DE5F6E2D8D2F0E94D7116F2D8D2F1E
:102460000E94D711C2506E2D8C2F0E94D7116F2D54
:102470008C2FDF91CF911F910F91FF90EF90DF9004
:10248000CF900C94D711FF920F931F93CF93DF93AC
:10249000182F062FF42ED0E0C0E09C2FFE01E2544E
:1024A000FD4F8491810FFE013896EF71FF27E254B2
:1024B000FD4F64918F3358F4600F6F3340F4F11087
:1024C00004C020914301920F92FD0E94D7112196E2
:1024D000C032D10511F7DF91CF911F910F91FF907D
:1024E0000895AF92BF92CF92DF92EF92FF920F9337
:1024F0001F93CF93DF9338E0439FF0011124E07CDA
:10250000F7702E0F3F2F311D275B3D4F4770042F73
:10251000EFE1F0E0DF01042E01C0AA0F0A94EAF710
:1025200058E0541BC52F02C0F595E7955A95E2F780
:102530007C01BA2EB0949E2F9095662309F43FC07B
:10254000F70141917F01442309F439C082EDC82E7F
:1025500081E0D82E4150F601141634F4A491B0E075
:102560001196CA0EDB1EF6CF7491A22ED9013196B8
:102570008A2F8A19871740F0472F50E04F5F5F4F2F
:10258000240F351F6150D9CF449150E08C918B219D
:102590006A01002E01C0CC0C0A94EAF78C298D93B5
:1025A000DF968C91DF9789230C2E02C055954795B5
:1025B0000A94E2F7482BDF964C93DF97D8CFDF9150
:1025C000CF911F910F91FF90EF90DF90CF90BF9030
:1025D000AF900895CF93DF93CDB7DEB760970FB676
:1025E000F894DEBF0FBECDBF613108F060E1FC01A1
:1025F000CE010196DC0134913D9331963A2F381B80
:102600003617C8F30E94711260960FB6F894DEBFB9
:102610000FBECDBFDF91CF9108952EE34EE060E075
:1026200080E00E94EC118091D901811107C088EFF0
:1026300093E02CE045E069E00C94EA1285E193E038
:10264000F8CFAF92BF92CF92DF92EF92FF920F93AB
:102650001F93CF93DF9300D000D0CDB7DEB7F62E17
:10266000082F10E046E0159507954A95E1F7D02E22
:102670004CE0460F2EE360E08F2D0E94EC11C090DD
:102680004F018091DF019091E001459741F10C11DC
:1026900026C092E0A92EAF0C23E0E22E3AE0B32E42
:1026A000BF0C6E2D8A2D0E94D7116E2D8B2D0E948E
:1026B000D711E394E3948DE3E812F3CF83E0E82E9F
:1026C000BE2CBF0C62E08B2D0E94D7116CE38B2DCA
:1026D0000E94D711E394E394EBE0EE12F1CFF4E023
:1026E000FF0E0A561E4FF8018281882309F43FC06D
:1026F0008081845E8C8324E04F2D61E0CE010496BE
:102700000E9471128AE289838EE28A83F8018281B3
:10271000825F8B832BE04F2D63E0CE0101960E94F8
:102720007112DC100AC0F8018281882331F0809197
:10273000DF019091E001089759F082E493E0D11015
:1027400002C088E493E023E24F2D65E00E94EA1284
:102750000F900F900F900F90DF91CF911F910F91DD
:10276000FF90EF90DF90CF90BF90AF90089524E05E
:102770004F2D65E08EED92E00E94EA12D2CFDC018F
:102780009C91992319F1E2EDF1E0915098F41196A2
:10279000952F6150D9F08D918823C1F0E2EDF1E0E1
:1027A000815080F04491242F30E02F5F3F4FE20FA3
:1027B000F31FF6CF5491252F30E02F5F3F4FE20FEC
:1027C000F31FE3CF81E0840F980FE3CF892F0895A3
:1027D0002F923F924F925F926F927F928F929F9231
:1027E000AF92BF92CF92DF92EF92FF920F931F931F
:1027F000CF93DF93CDB7DEB728970FB6F894DEBF3F
:102800000FBECDBF1091900160E0111101C062E3D5
:1028100080912E010E94211362E3111101C060E03A
:1028200080912D010E942113A090FD07B090FE071A
:102830003FEFA31AB30A6501D694C79446E0C416C5
:10284000D10408F054C086E090E08C199D09982FBF
:10285000990F990F891B880F9CE2592E580E312C25
:10286000BEE02B2E8DE0851508F0BAC0E32CF12CCC
:102870006090FD077090FE07E614F70408F0B0C002
:10288000F701EA56FE4F42A4F701EE0FFF1FEF5F7C
:10289000F74F8081918119821A821B821C821D82CE
:1028A0001E821F821886292F277093FF2CC0298231
:1028B00098E19A832B82243010F49C832D82E624A5
:1028C00067E0CE010196E0FE71C00E94BF138695BD
:1028D0008D3008F08CE02AE1281B452D67E0CE0101
:1028E00001960E947112FAEF5F0E3394BBCF809174
:1028F000DF019091E0010CE2502E459709F0AFCF37
:1029000016E2512EACCF342D37708E010F5F1F4F62
:10291000332321F039838E010E5F1F4F44FE07C021
:10292000382F37703A5FD8013C930F5F1F4F45FE39
:102930000AC0382F377732953F70B6E1B31BF801E4
:10294000B0830F5F1F4F43FE05C0E9E1D801EC9350
:102950000F5F1F4F2A5FD8012C93292F27772295CD
:102960002F70B6E1B21BF801B183480197FD09C091
:10297000F2E08F0E911C46FE13C03AE1F401308361
:102980009ECF33E0830E911C0E94260F8350990B3B
:10299000FC01E15EFC4FE491D8011296EC93EBCF81
:1029A00047FE8DCFEBE1D401EC9389CF0E94BF139A
:1029B000482F50E09A012F5F3F4F3595279594E3BC
:1029C000921B292F490F511D4134510514F020E469
:1029D000281B452D67E0CE0101960E94711285CF1C
:1029E0008090DF019090E001A5E18A169104E9F45E
:1029F00010914201163041F420E04CE269E08CE095
:102A000093E00E94EA1211C0123078F020E04CE20C
:102A100065E087E093E00E94EA12133009F46CC08D
:102A200008F059C0123009F461C08091FD079091FF
:102A3000FE07892B09F480C02AE030E0C601B90105
:102A40000E94A6375EE0F52EF80EC50164E170E045
:102A50000E94A637CB01B9010E94A6370EE0080FED
:102A6000C50168EC70E00E94A6377EE0E72EE60E16
:102A7000B6E0CB16D10408F04BC046E050E04C194C
:102A80005D09842F880F880F142F181B110F145DF8
:102A900045E3D42E1E3008F44FC0E9820A83FB823E
:102AA000FEE0EF1204C0D9820E3009F4DA8220E091
:102AB000412F63E0CE0101960E9471123EE0F312B5
:102AC00033C00E3069F5E31689F1EA9437E1F32E4D
:102AD00007E11650DFCF1430A9F0153009F0A5CF6B
:102AE00026E14CE269E084EE92E08BCF26E14CE2F5
:102AF00068E08FEF92E085CF26E14CE26AE085EF57
:102B000092E07FCF26E14CE268E08DEE92E079CF53
:102B10001CE2E5E18E16910409F0BACF16E2B8CFB7
:102B2000015027E1F22ED5CFFA94D3CF87E1F82ECA
:102B300007E197E1E92ECDCF28960FB6F894DEBFD6
:102B40000FBECDBFDF91CF911F910F91FF90EF90FE
:102B5000DF90CF90BF90AF909F908F907F906F90BD
:102B60005F904F903F902F90089528E049E452E005
:102B7000DA01BC01605C7F4FFC0134913D933196DA
:102B8000E617F707D1F7405C5F4F215080589F4F01
:102B90002111EECF08950F931F93CF938C01FC0169
:102BA00080819181FC01E754F74FC4910196F801AF
:102BB00091838083C7FF05C0C8010E94CB15811196
:102BC000FBCFC6FBCC27C0F981E08C27CF911F91AA
:102BD0000F910895DC012D913C9111971296EC9183
:102BE000E20FF32FF11DED50FF4F80810895CF9339
:102BF000DF9300D01F92CDB7DEB7E0E6E827F0E024
:102C0000E657FA4F9081911140C0E82FF0E0E65767
:102C1000FA4F2081211107C081E00F900F900F9093
:102C2000DF91CF91089592E0980F3AE0380F39176D
:102C300049F0E92FF0E0E657FA4F408147FF25C001
:102C40009F5FF5CF253040F32630F9F429E434E0D6
:102C50003A8329838B83CE0101960E94EA152B814A
:102C6000205E4FEF281789F0E82FF0E0E657FA4F83
:102C7000308137FD08C0932F92959F7093279170F4
:102C8000491751F2492F8F5FEDCF80E0C6CF0F93E8
:102C90001F93CF93DF9300D000D000D0CDB7DEB725
:102CA00009E414E08091AA05833001F58091CA05FA
:102CB0008330E1F41A83098380E28B83CE0101968D
:102CC0000E94EA151D830C8380E48E83CE01049656
:102CD0000E94EA1581E026960FB6F894DEBF0FBE7B
:102CE000CDBFDF91CF911F910F91089580912E015B
:102CF0000E94F7158111EFCF80912D010E94F715E9
:102D0000EACFAF92BF92CF92DF92EF92FF920F93F2
:102D10001F93CF93DF9300D01F92CDB7DEB7E0E6CD
:102D2000C82ECE26AC2DB0E0A657BA4F9C9191117B
:102D300030C08B01E82E282F30E0F901E657FA4F1A
:102D4000F080F11018C06091FB078091EE050E94A1
:102D50001B0FF8019183808381E00F900F900F90FB
:102D6000DF91CF911F910F91FF90EF90DF90CF9067
:102D7000BF90AF90089592E0980F8AE08E0D89176A
:102D800051F0E92FF0E0E657FA4F40819F5F47FD91
:102D9000F6CF80E0E2CFF3E0FF15A8F694E0F91655
:102DA000C1F3255C3A4FF9019081D12C981749F075
:102DB000E82FF0E0E657FA4F208127FFD3948F5F8A
:102DC000F5CF89E494E09A838983EB82CE01019662
:102DD0000E94EA159B81905E30E09817E9F0482F39
:102DE00050E0FA01E657FA4F608167FD13C0475D76
:102DF0005A4FFA0120812770243061F4262F229542
:102E00002F70262720FBAA24A0F8B12CA5014F5F24
:102E10005F4F342B8F5FE1CFF6E0FF1204C082E0FA
:102E2000D81609F490CFE394EE2DF0E0E657FA4F70
:102E30008081C394EC2DF0E0E657FA4F2081422FB9
:102E400050E064E0559547956A95E1F72770682F43
:102E500062956F70641B062E000C770B77FF03C022
:102E60007195619571098770821B082E000C990B72
:102E700097FF03C0919581959109680FF6E0FF12C5
:102E800023C081E0D81220C030FD18C08EE0821B24
:102E9000240F841B281708F4822F94E0F99E9001D8
:102EA0001124820F932F911D880F991F861B910962
:102EB00034E0880F991F3A95E1F74BCF842F821B9E
:102EC000295F241B895FE6CF440F87E090E0841BD5
:102ED000910997FF03C0919581959109220F47E0D1
:102EE00050E0421B510957FF03C0519541955109CC
:102EF000840FD3CF635070E09B0143E0220F331F58
:102F00004A95E1F7287056E0660F771F5A95E1F76A
:102F10006078622BFC0120812777622B6083089503
:102F20000F931F93CF93DF9300D0CDB7DEB7FC0193
:102F30007A8369839A81892F877782958F70841726
:102F400059F0CF010296718360830F900F90DF914B
:102F5000CF911F910F9108958F0190689A8360918E
:102F60002901CE0101960E947A17FC01808191818E
:102F7000F8019183808360912C01CE0101960E941B
:102F80007A17FC0180819181F8019383828360919B
:102F90002A01CE0101960E947A17FC01808191815D
:102FA000F8019583848360912B01CE0101960E94E4
:102FB0007A17FC01C801089620813181F801378316
:102FC0002683C3CF882329F090E483FF90E28770A3
:102FD000890F0895DC01EC91F0E0E752F24F849103
:102FE000E62F660FFF0BEF5AF24FE491E82381E0E2
:102FF00009F480E00895FC0180818770843018F026
:1030000097E0981B892F0895CF93FC01208130E031
:1030100044E0359527954A95E1F7C7E0C21B611159
:1030200001C0C22FCC0FCC0F0E94FB178C0FCF9189
:1030300008952F923F924F925F926F927F928F925C
:103040009F92AF92BF92CF92DF92EF92FF920F9337
:103050001F93CF93DF93CDB7DEB764970FB6F89485
:10306000DEBF0FBECDBFC82E81E06C2C6826A0E469
:10307000DA2E80E0CC2019F0F0E2DF2E87E0FE01AE
:1030800031965E012BE0A20EB11C4F018193EA152F
:10309000FB05E1F780E65D2C582642E0450D5AE03D
:1030A000550DE12C541709F1E42FF0E0E657FA4FE3
:1030B000808187FD18C0E394282F30E0E4E0359547
:1030C0002795EA95E1F7877090E00196F401E80F03
:1030D000F91F8081CC2021F0821720F4282F02C014
:1030E0002817E0F320834F5FDDCF30ED3D0D388BA7
:1030F00062E0762E7D0C7AE0372E3D0C10E000E089
:103100008EEF482E4D18371409F48AC0E72DF0E0F1
:10311000E657FA4FF080FB86F7FC53C0E394662D28
:10312000C5010E940418E82FF0E0EE0FFF1FE059E0
:10313000F14F85919491080F191FC5010E94FB174B
:10314000EF2D6889E61BAFEFAE0FB0E0A75BBB4F7A
:103150009C91940D983048F0EF5FF0E0E75BFB4FF7
:103160009081940D40E0983058F4E82FF0E0EE0F95
:10317000FF1FE051F04F25913491020F131F41E0E2
:103180009F2D92959F702F2D277030E0F401E20F54
:10319000F31F5081C11017C0951798F0E2E0F0E0DE
:1031A000EC0FFD1FE20FF31F5081951750F0E3E085
:1031B000F0E0EC0FFD1F2E0F3F1FF9012081921749
:1031C000B8F47394A0CF5917E0F3E2E0F0E0EC0F0D
:1031D000FD1FE20FF31F5081591798F363E070E071
:1031E0006C0F7D1F260F371FF9012081291748F327
:1031F000E82FF0E0E053FF4FCF01880F991FFC014B
:10320000E059F14F25913491020F131F4423C9F265
:10321000FC01E858F14F85919491080F191FD1CF07
:10322000FEE0FE1510F42FE0E22EED2DF0E0E55C5F
:10323000FA4F20812C8BF12C3CEEE30EF11CEE0CAE
:10324000FF1CB7016059714F1B01198A8EEF482E80
:103250004D189AE6892E90E1992E7C89771609F40B
:1032600048C0E72DF0E0E657FA4FC080CB86C7FC98
:103270003EC0662DC5010E940418E82FF0E0EE0F55
:10328000FF1FE055F14F85919491080F191F888910
:10329000C81AEFEFEC0DF0E0E75BFB4F8081840D87
:1032A000883048F0C394EC2DF0E0E75BFB4F808161
:1032B000840D883068F4C5010E94FB17E82FF0E008
:1032C000EE0FFF1FE850F04F85919491080F191FE2
:1032D000F10185919491080F191F9989992329F07B
:1032E000F40185919491080F191FE1E0E98B739423
:1032F000B4CFE1E0E50DF0E0E657FA4F408089E415
:1033000094E09C878B87DD86C5010E94EA15C82E54
:103310008D85805E888B9701205B314F1901812C50
:10332000712C7CE6A72E70E1B72E38893C1509F484
:1033300091C08C2D90E0BC01675B7B4F7B01FB0152
:10334000EF5BFE4F90809F8697FC75C0662DCE0187
:103350000F960E940418F701E052FF4FE081E770DA
:10336000EE87E450EE2EF12CF70155E0EE0FFF1F33
:103370005A95E1F7E05CFF4FE80FF11DEE0FFF1FDC
:10338000E059F14F85919491080F191F642D691927
:10339000CE010E960E94EA17882349F0F701EE0F3E
:1033A000FF1FE05EFF4E85919491080F191F8E85D7
:1033B000982F937009F441C0853061F4F101859133
:1033C0009491080F191F772059F1F5018591949177
:1033D000080F191F892D8F708F8728E0FF24F39421
:1033E0009F85E92FF0E0E75BFB4F80818250382F0B
:1033F0003D19383000F18519883008F4F12C905FC0
:103400009F87215069F7CE010F960E94FB17E82F86
:10341000F0E0F11008C0EE0FFF1FE85FFF4E07C09D
:1034200077247394D7CFEE0FFF1FE050F04F8591B4
:103430009491080F191FC39478CF892D82958F70AE
:103440009826792D71707A8B1B8A8A899B890196BF
:10345000882AF1CF83E0881206C0E6E2F0E1859188
:103460009491080F191FE1E0ED0DF0E0E657FA4FD7
:10347000F080FE86662DCE010E960E940418E82F7D
:10348000F0E0EE0FFF1FE055F04F85919491080F8B
:10349000191FE8E6FEE040E75EE090E034918F2DF2
:1034A000830FA82FB0E0A75BBB4F2C912D2111F407
:1034B0009F5FF6CF31964E175F0781F79C3008F07B
:1034C0009CE0E92FF0E0EE0FFF1FE259FF4E8591DF
:1034D0009491800F911F64960FB6F894DEBF0FBED3
:1034E000CDBFDF91CF911F910F91FF90EF90DF90B3
:1034F000CF90BF90AF909F908F907F906F905F9094
:103500004F903F902F9008950F931F93CF93DF9389
:1035100000D0CDB7DEB78091F0079091F10701960A
:103520009093F1078093F007BE016F5F7F4F80910A
:10353000FC070E948116811128C09091FC07BE01F2
:103540006F5F7F4F80E689270E948116811116C028
:1035500081E00E9419188C0180E00E9419189801DE
:10356000281B390BC901E8E6F0E12091FC0725FF93
:1035700015C025913491820F931F05C089819A81CE
:103580009195819591099A83898389819A810F9078
:103590000F90DF91CF911F910F9108952591349154
:1035A000281B390B3A832983F0CFDC01EC910E2ED6
:1035B000000CFF0BE65AFE4F84910895DF92EF92C4
:1035C000FF920F931F93CF93DF93CDB7DEB72A9768
:1035D0000FB6F894DEBF0FBECDBFF82E8091FC076A
:1035E00020E62827E0EDEF0DE20FAFEFAE0FB0E0E1
:1035F000A75BBB4F1C919EEF981B312F390F3830C2
:1036000088F580E2821B8295869587709F2D929522
:103610009F70891709F4FDC080E01123A9F0EF2DF8
:10362000F0E0E75BFB4FE081F0E0E75DFA4FE0811F
:10363000E770F0E0EF51F24F0491080F8091EE0532
:103640008C3009F0E8C0802F2A960FB6F894DEBFC0
:103650000FBECDBFDF91CF911F910F91FF90EF90E3
:10366000DF900895EF5FF0E0E75BFB4F1081910F73
:10367000983038F21AE0180FE82FF0E0E55CFA4FC6
:103680000081101789F0E12FF0E0E657FA4F8081B2
:1036900087FD08C06F2D681B8CE291E00E94EA173D
:1036A0008111BACF1F5FEDCF8091FC0729E434E090
:1036B0003A8329838B83CE0101960E94EA15182F45
:1036C0008B8130E2E32EE80EE11651F1812F90E07C
:1036D000FC01E657FA4F008107FD20C0875D9A4F35
:1036E000FC01808187708430C9F4DF2CD01A6D2DE5
:1036F0008BE291E00E94EA17882381F0DC82CE0100
:1037000004960E94D51A080FE02FF0E0E75BFB4F0C
:1037100090819923C1F30F1509F47ECF1F5FD4CF99
:103720008091FC0729E434E03D832C838E83CE0115
:1037300004960E94EA15182F8E8120E2E22EE80EF0
:10374000E11651F1812F90E0FC01E657FA4F00811C
:1037500007FD20C0875D9A4FFC018081877085300E
:10376000C9F4DF2CD01A6D2D8AE291E00E94EA178D
:10377000882381F0DF82CE0107960E94D51A080FB8
:10378000E02FF0E0E75BFB4F90819923C1F30F1529
:1037900009F442CF1F5FD4CF8091FC0729E434E0C5
:1037A00038872F838987CE0107960E94EA15182F44
:1037B000898590E2E92EE80EE11609F441C0812FD7
:1037C00090E0FC01E657FA4F008107FD20C0875DBD
:1037D0009A4FFC01808187708630C9F4DF2CD01AA3
:1037E0006D2D89E291E00E94EA17882381F0DA8644
:1037F000CE010A960E94D51A080FE02FF0E0E75B91
:10380000FB4F90819923C1F30F1509F405CF1F5F7A
:10381000D3CF80E202CFA12FB0E0A657BA4F1C91C0
:10382000812F9F2D0E94340F8F2D0E94DE1AE82ECB
:10383000812F9F2D0E94110A802F8E1987FF04CFA0
:1038400080E002CFCF93DF930E94841AEC01E091D5
:10385000EE0585E0E89FF0011124EE51FB4F8281D7
:10386000882349F0818187770E94DE1A99E18902D5
:10387000C00DD11D1124CE01DF91CF9108952F925B
:103880003F924F925F926F927F928F929F92AF92F0
:10389000BF92CF92DF92EF92FF920F931F93CF933D
:1038A000DF9300D000D01F92CDB7DEB78C016C0142
:1038B000DC01612C412C6616F9F011968C91119760
:1038C00087FD08C0E82FE777F0E0E75BFB4F9081CA
:1038D000992379F0E42DF0E0EE0FFF1FE00FF11FC8
:1038E0009C912081318111963C932E93908381830A
:1038F000439463941296DFCF2EE1241510F47FE1F8
:10390000472E6BE8262E65E0362E78015101712C8A
:10391000741409F43CC0D7018D909C9011971196B6
:10392000BC91BB83B7FF23C0F70180810E94260FA3
:10393000E82FF0E0EF51F24FE4915CEF552E5E0E70
:103940008091EE058C3059F0C4010E94340F8B81B8
:1039500087770E94DE1A581AC4010E94110AD50105
:103960005D925D017394B2E0EB0EF11CD1CFEB815F
:10397000E777F0E0E75BFB4FE081F0E0E75DFA4FCF
:10398000E081E770F0E0EF51F24F5490D9CF672D0E
:10399000C8010E946F082BE835E0962C90E080E08B
:1039A000B12C4DEB5EEFFA01E954F4407F01B714FE
:1039B000D8F5D9014D919D0147FF33C0962C97183A
:1039C000D801A80FB91FF701E20FF31FE90DF11D90
:1039D000EE0FFF1FAF01400F511F5D834C83AB2CD7
:1039E000BC01615071098C9011965C901197EC812B
:1039F000FD8141915191FD83EC834D935D93AF0126
:103A000042505109FA0180824C815D81481B590B5B
:103A1000460F571FFA015082A3947A10E4CF9B0CF3
:103A20007B2CB3940296C3CF711064C0FEE1792C55
:103A3000F91510F42FE1722E812C871409F456C069
:103A40006090FC0766FA662460F8D601EC91E7778F
:103A5000EA83F0E0E75BFB4FE081F0E0E75DFA4FDF
:103A6000A080BA2DB770AB2EAA94AA94E5E0EA150F
:103A700008F4A12CD60111968C9187778983662D45
:103A8000CE0101960E940418B0E2AB9E50011124B1
:103A9000F501E80FF11DEE0FFF1FE059F14FE59022
:103AA000F490662DCE0102960E940418F501E80FED
:103AB000F11DEE0FFF1FE059F14F85919491F70131
:103AC000E81BF90BCF018138FFEF9F0714F481E861
:103AD0009FEF8038910514F08FE790E0D1018D932E
:103AE0001D018394B2E0CB0ED11CA7CF682DC80175
:103AF0000E946F08892D0F900F900F900F900F90DC
:103B0000DF91CF911F910F91FF90EF90DF90CF90B9
:103B1000BF90AF909F908F907F906F905F904F90ED
:103B20003F902F9008959F92AF92BF92CF92DF92D5
:103B3000EF92FF920F931F93CF93DF9300D000D0AB
:103B40001F92CDB7DEB7A0E3A60FA81B9EEF981B70
:103B50002FEF2A0FE22FF0E0E75BFB4F2081290FC8
:103B6000283008F48CC0AF5FB0E0A75BBB4F2C914E
:103B7000920F983008F483C0062F182F2AE0E22E07
:103B8000E80EE82FF0E0E55CFA4FD080ED1489F004
:103B9000EE2DF0E0E657FA4F608167FD08C0601B2C
:103BA0008CE291E00E94EA17F82E811146C0E3945E
:103BB000EDCF802F90E09C01275B3B4F6901F9011D
:103BC000908080E6808389E494E09A8389831B83D4
:103BD000CE0101960E94EA15B82E8B8190E2A92EA3
:103BE000A80EAB14E1F18B2D90E0FC01E657FA4FE3
:103BF000E080E7FE02C0B394F4CF875D9A4FFC01EA
:103C00008081602F6E196D8387708C83CE0104963E
:103C10000E94EA17F82E882371F3CE0105960E94C0
:103C2000D51AE80EEE2DF0E0E75BFB4F908199236B
:103C3000C1F30E11E0CFF60190828F2D0F900F90FF
:103C40000F900F900F90DF91CF911F910F91FF90E8
:103C5000EF90DF90CF90BF90AF909F900895F601C6
:103C600090821F5FE12FF0E0E657FA4F8081602FCE
:103C7000681B86E291E00E94EA17F82EDECFFF244F
:103C8000F394DBCF2F923F924F925F926F927F928D
:103C90008F929F92AF92BF92CF92DF92EF92FF925C
:103CA0000F931F93CF93DF93CDB7DEB7AC970FB6CB
:103CB000F894DEBF0FBECDBF1C01F090FC0780E67C
:103CC0005F2C582610ED612E6F0C80E28F1990E06A
:103CD0009C0105E0359527950A95E1F73CA32BA3B8
:103CE0004BA086E028272BA731E03F0D3DA3832F73
:103CF00090E0AC0146575A4F5FA34EA3DA01EC9017
:103D00001092EF0789E494E09A8F898F5B8ECE0141
:103D100049960E94EA15982E8B8D805E8CA78101B2
:103D2000DD24DA94C12CBCA5B91509F4CEC0892DC7
:103D300090E0FC01E657FA4FA080A7FC2EC0875DFB
:103D40009A4FDC01EC91E7709A2D9E199F8FF0E05D
:103D5000E752F24F8491E92F990FFF0BEF5AF24F80
:103D6000E491E823E370C9F0CE014F960E94D51A82
:103D7000782EBE2CB70CEB2DF0E0F9A7E8A7E75B97
:103D8000FB4F90819923B1F3AB1009C08091EF07ED
:103D90008E5F8093EF077AA6DA2C9394C4CF492FD5
:103DA00050E0FA01E75DFA4F8081282F20762F112D
:103DB000F4CFF7E00F3D1F0708F0C3C38B2C870C2F
:103DC000E82DF0E0E75BFB4F20812223C1F3A81030
:103DD000E4CF2C2D30E0EDE0F0E0EC0FFD1FE20F22
:103DE000F31FB08246575A4FEFEFDA01EC93C394BA
:103DF00041E050E04C0F5D1F240F351FD9019C930B
:103E00008770833008F043C0A62CAB0C872D8770D9
:103E100041F5EA2DF0E0E75BFB4F80818111BDCFDA
:103E2000442D6B2D7A2DC8010E9490178C01A60C91
:103E3000EA2DF0E0E75BFB4F80818111AECF88A5D2
:103E400099A5B4E095958795BA95E1F7BBA5B81308
:103E5000A4CF8B2D8860F8018083A1820E5F1F4F55
:103E60009CCF8FEF8A0D881207C0442D6B2D782DC3
:103E7000C8010E9490178C01A3948A108ECF442D04
:103E80006B2D782DC8010E9490178C0186CF8C8FE6
:103E90006F8DCE014C960E94EA17882309F47DCFDE
:103EA000D8019B2D970DFD013296BC9211969C93E3
:103EB000DF018912F7CF8B2D8F018719E81609F4DE
:103EC0006CCFB08281833296F7CFE091EE0525E08A
:103ED000E29FF0011124EE51FB4F81818777B82ECC
:103EE0009E2D981BE82FF0E0E75BFB4FE081F0E0B0
:103EF000E75DFA4FE081E770F0E0E752F24F84911E
:103F0000E92F092E000CFF0BEF5AF24FE491E82342
:103F1000EC7F69F08091EF078F5F8093EF079195B9
:103F20009C8FCE014C960E94D51A8AA7DB2C8091DB
:103F3000EF07882309F46FC0833008F092C2E09144
:103F4000EE0535E0E39FF0011124EE51FB4F818136
:103F5000877781018D1509F4C7C08091EF0780FF35
:103F600069C1BD2CB6186FEF6B0DE62FF0E0E75B73
:103F7000FB4FE0818EEFE82EEF188E2F8E0D8830EC
:103F800060F4F0E0E657FA4F808187FD06C04BA150
:103F90007D2DC8010E9490178C0161E06B0DE62F0A
:103FA000F0E0E75BFB4FE0818E2F8E0D883060F4F0
:103FB000F0E0E657FA4F808187FD06C04BA17D2DCA
:103FC000C8010E9490178C01F7E00F3D1F0708F011
:103FD000B8C2EAE0EE2EEF0CEF2DF0E0E55CFA4F10
:103FE000A080AE1409F4E2C0EE2DF0E0E657FA4FDF
:103FF000B080B7FC0EC06D2D6B198CE291E00E9471
:10400000EA17882331F0D801BC921196DC920E5F3A
:104010001F4FE394E6CF47E00F3D140708F091C22D
:10402000E091EE0555E0E59FF0011124EE51FB4FC4
:10403000A3808F2D8295869587708A2171F16FEF0D
:104040006E0DE62FF0E0E75BFB4F8081811125C00C
:10405000AEEFBA2EBE0CEB2DF0E0E75BFB4F80819C
:1040600081111BC0EDEFEE0DF0E0E75BFB4F8081AF
:10407000811113C0852D0E94931D81110EC06B2DDF
:10408000852D0E94931D811108C0D801EC928B2DC3
:10409000886011968C930E5F1F4FAF2029F161E06D
:1040A0006E0DE62FF0E0E75BFB4F808181111CC0B5
:1040B000F2E0BF2EBE0CEB2DF0E0E75BFB4F808102
:1040C000811112C0852D0E94931D81110DC06B2D91
:1040D000852D0E94931D811107C0F801E0828B2D70
:1040E000886081830E5F1F4FF7E00F3D1F0708F0C8
:1040F00028C2E091EE0525E0E29FF0011124EE5187
:10410000FB4F808183FF29CF81818777B82E8091F3
:10411000EF07882311F0DB1020CF88248A948B0CC2
:10412000E82DF0E0E75BFB4FE0818EEFA82EAF18A3
:104130008E2F8A0D8830B8F4F0E0E657FA4F808170
:1041400087FD11C04B2D682D8E2D0E944F0C8111C3
:104150000AC0882D8068D8018C93862D8B0D11960E
:104160008C930E5F1F4F882483948B0CE82DF0E016
:10417000E75BFB4FE0818E2F8A0D883008F0EDCE93
:10418000F0E0E657FA4F808187FDE7CE482D6B2D92
:104190008E2D0E944F0C8111E0CE882D8068F80191
:1041A0008083B60CB1820E5F1F4FD7CEB7E00F3DB4
:1041B0001B0708F0C6C189E494E09D8F8C8FFE8EAA
:1041C000CE014C960E94EA15E82E8E8D70E2A72E45
:1041D000A80EAE1409F446C18E2D90E0FC01E657FE
:1041E000FA4FB080B7FC24C0875D9A4FFC018081F4
:1041F0006D2D6B196AA387708F8FCE014F960E9429
:10420000EA178823A9F0CE0182960E94D51A9B2D29
:10421000980FE92FF0E0E75BFB4F20812223C1F3E9
:10422000D91206C0D801BC921196DC920E5F1F4FC6
:10423000E394CFCFB7E0073B1B0708F082C152E001
:10424000A52EAF0C6AE0762E7F0C7A1409F44FC0CD
:10425000EA2DF0E0E657FA4FB080B7FC46C0862C56
:104260008B0C7FEF780DE72FF0E0E75BFB4F808151
:104270008076581206C0442D6B2DC8010E949017FD
:104280008C0171E0780DE72FF0E0E75BFB4F808158
:104290008076581206C0442D6B2DC8010E949017DD
:1042A0008C01E82DF0E0E75BFB4F808181111DC0A0
:1042B000442D6B2D782DC8010E9490178C01860C1F
:1042C000E82DF0E0E75BFB4F808181110EC08B2D64
:1042D00082958F70EBA58E1308C08B2D8860D80156
:1042E0008C9311968C920E5F1F4FA394AECFEF2D3F
:1042F000F0E0E55CFA4F408129ED3DE04A1519F107
:10430000EA2DF0E0E657FA4F908197FD1AC0B7E02A
:104310000F3D1B0708F015C1E1EDFDE08491890F09
:10432000A82FB0E0A75BBB4F5C915F2131F4D801AF
:104330009C9311968C930E5F1F4F31962E173F075B
:1043400069F7A394DBCF89E494E098A38F8FF9A257
:10435000CE014F960E94EA1569A1605E2DEC3DE00A
:1043600041ED5DE0681709F451C0E82FF0E0DF018E
:10437000A657BA4F9C9197FD47C0B7E0073B1B0774
:1043800008F0DFC0E75DFA4F7081E72FE370E9F0D6
:10439000EDECFDE0A4903801B92E8301BA0CAB2DF1
:1043A000B0E0A75BBB4F8C90A82DAF2151F4A2E0E9
:1043B0006A0E711CD8019C931196BC92882069F3F7
:1043C000830131964E175F0729F770FD1DC0E9EC98
:1043D000FDE0B4904801792F84017B0DA72FB0E058
:1043E000A75BBB4FAC90AA2DAF2151F4B2E08B0E6E
:1043F000911CD8019C9311967C93AA2069F38401A7
:1044000031962E173F0729F78F5FACCF8091EF07CA
:10441000882341F15101A016B10620F5F5018181F3
:104420008777882E8E198C8FCE014C960E94D51AD4
:10443000FAA58F1779F0F80192918291D5018D93A9
:104440009C9395012250310959018F0132E0A30E4E
:10445000B11CE1CF9E2D980F8916C1F3D912FBCF65
:10446000EACF81014FED241647E0340608F069C019
:10447000AEA1BFA1DC90AD2CB12CF501E75BFB4FE9
:10448000108238E6832E3EE0932E40E7642E4EE005
:10449000742EF401E490ED0CEE2DF0E0E75BFB4FA1
:1044A00080818F2161F46E2D852D0E94931D8111D5
:1044B00006C0D801DC921196EC920E5F1F4FBFEF41
:1044C0008B1A9B0A6814790421F7F501E75BFB4F0F
:1044D0002DA12083CC20B9F0CA948C2D90E0E1E08E
:1044E000F0E0EC0FFD1FE80FF91FE081F0E0E65768
:1044F000FA4F4DE050E04C0F5D1F840F951FDC011B
:104500008C918083E7CFC80182199309959587958F
:10451000AC960FB6F894DEBF0FBECDBFDF91CF9142
:104520001F910F91FF90EF90DF90CF90BF90AF90D1
:104530009F908F907F906F905F904F903F902F90C3
:104540000895CC20B9F0CA948C2D90E0E1E0F0E021
:10455000EC0FFD1FE80FF91FE081F0E0E657FA4F7E
:104560002DE030E02C0F3D1F820F931FDC018C915A
:104570008083E7CF8FEFCCCFCF938FEE95E00E9473
:10458000421EC82FE091EE0585E0E89FF00111245E
:10459000EE51FB4F84818436B8F40E944716811196
:1045A00015C00E941509823098F49091EF07CC2332
:1045B00031F081E0911101C080E0CF91089586E053
:1045C0009111FBCF85E0F9CF82E0F7CF84E0F5CF02
:1045D00083E0F3CF8091FC0790E026E095958795E6
:1045E0002A95E1F780934F010E94BC2280934201FB
:1045F00008950E94EA2280914201823038F085E1DC
:1046000090E09093E0018093DF01089590914F0135
:10461000E92FF0E0EA56FE4F8281882309F121E07C
:10462000911120E0E22FF0E0EA56FE4F92819111C5
:1046300002C02093900198E09093F70790E0880FD4
:10464000991F079621E030E002C0220F331F8A95A0
:10465000E2F73093F3072093F20788E090E0D1CFA0
:1046600081E0911101C080E08093900184E090E0AE
:10467000C8CF1F93CF93DF93182FD92F8091FD07B9
:104680009091FE0701969093FE078093FD0780911D
:10469000FF0790910008892B69F18FEE95E00E9449
:1046A000421EC82FC1508C2F90E0FC01EE0FFF1F5F
:1046B000E151FA4F20812113F5CF880F991FFC019A
:1046C000E051FA4F8081D813EDCF8091FF07909190
:1046D0000008FC01E754F74FE4912E2F2F73C2130B
:1046E0002FC00196E7FD02C090E080E090930008A3
:1046F0008093FF07EFEDF8E092918291938382839C
:1047000088E0E130F807C1F710930108D093020860
:10471000812F9D2F0E94340FE091EE0585E0E89FE8
:10472000F0011124EE51FB4F1092EE05A2EEB4E021
:1047300001900D928A95E1F7DF91CF911F91089535
:104740008FEF97E00E94CB158111BFCF1092000828
:104750001092FF07CFCF0F931F93CF93DF93109249
:1047600000081092FF07C091FD07D091FE07C730E7
:10477000D10580F40C2F0E94350B10E0CC0FDD1F0B
:10478000C150D84F101730F4888199810E94392385
:104790001F5FF8CFDF91CF911F910F9108958F92F6
:1047A0009F92AF92BF92CF92DF92EF92FF920F93C0
:1047B0001F93CF93DF938091FD079091FE07892B84
:1047C00009F4B4C08091D801882309F4AFC0909057
:1047D0000108F0900208292D2777C22ECF2DC77728
:1047E000E12CF7FC04C0E92CEE1CEE24EE1C3F2D5E
:1047F0003770D32E0C2D10E0F3FEA5C083E0E1E06E
:10480000831708F4EFEFEC0FF0E0E75BFB4F8081DC
:10481000D0E0B0909E01A0909D012091FD073091C5
:10482000FE07215031093093FE072093FD07E1E098
:10483000F8E0228133812193319328E0EF3DF207A4
:10484000C1F78093E90481E08093EE05892D9F2DC7
:104850000E94110AA092E504B092E604F7FC12C08F
:1048600097FE10C0C80164E0959587956A95E1F7B9
:104870008295807F8D0D8093E3048091E2048860AF
:104880008093E2040E94AB238091D80181508093F1
:10489000D801ECE9F1E083819481A5818193919322
:1048A000A19331E0ED3BF307B1F7E0ECF1E087EDE8
:1048B00091E0218121938E179F07D9F710924E0125
:1048C000C093DE01C0929501F801E75BFB4FE081E8
:1048D000F0E0E75DFA4F80818093D9018D2D90E063
:1048E000EE2089F0D80144E0B595A7954A95E1F707
:1048F00053E0AA0FBB1F5A95E1F7A80FB91FA05BA1
:10490000BE4FDC93D0E0EC2FF0E024E0F595E79586
:104910002A95E1F733E0EE0FFF1F3A95E1F7E80F34
:10492000F91FE05BFE4FD08310924301DF91CF91DE
:104930001F910F91FF90EF90DF90CF90BF90AF90BD
:104940009F908F900895D0919C016C2FEE2091F054
:10495000B801E4E075956795EA95E1F76295607FA7
:10496000630F8091FC07D82FD295D695D695D3703A
:104970008F5FD80F862F90E0FC01E75BFB4F5F0154
:1049800080808D2F0E94FC0BE82FF0E0E657FA4F55
:104990009FEF9083F50180823CCF6F927F928F9240
:1049A0009F92AF92BF92CF92DF92EF92FF920F93BE
:1049B0001F93CF93DF938C016B017A010E94421EFB
:1049C000782E8FEF781210C0DF91CF911F910F9149
:1049D000FF90EF90DF90CF90BF90AF909F908F901F
:1049E0007F906F900C94221C71102BC08091EE056B
:1049F0009091EF07992399F0C82FD0E0DD57CE01B1
:104A0000DF91CF911F910F91FF90EF90DF90CF90AA
:104A1000BF90AF909F908F907F906F90089560911E
:104A2000FB07DF91CF911F910F91FF90EF90DF90E7
:104A3000CF90BF90AF909F908F907F906F900C948D
:104A40001B0F0E94841A8E159F050CF07BC0EC0191
:104A50008C159D050CF4E60180E0E82FF0E0EE0FE8
:104A6000FF1FE00FF11F9181A92FA777B0E0A75B8F
:104A7000BB4F2C91211111C097FD0FC0908197FD64
:104A80000CC07A948150A72DB0E0AA0FBB1FA00FD5
:104A9000B11F2D913C91318320838F5F8715E8F200
:104AA000672DC8010E943F1C872C912C880C991CF3
:104AB000800E911E612CC12C93E8D92EAA24BB2410
:104AC000AE18BF08671409F49ACFF801808191816C
:104AD0000E94340F8091EE058C30C9F40E94841A34
:104AE000919581959109C816D9060CF46C01F801CD
:104AF000808191810E94110ACC15DD050CF4E6013C
:104B00000E5F1F4FCE15DF05ECF46394DBCF809171
:104B1000FA07811114C02091F0073091F1078091BC
:104B2000F2079091F3078217930748F0442755271F
:104B30004C1B5D0BB501C4010E94CD24D1CF90E088
:104B400080E0CECFE7015BCF5F926F927F928F9232
:104B50009F92AF92BF92CF92DF92EF92FF920F930C
:104B60001F93CF93DF938C016B015A01522E8091DA
:104B7000EE0595E0899FF0011124EE51FB4F9481E1
:104B8000943618F06091FB0708C00E9447168823EE
:104B9000A9F06091FB078091EE05DF91CF911F9105
:104BA0000F91FF90EF90DF90CF90BF90AF909F90CC
:104BB0008F907F906F905F900C941B0F0E9415094F
:104BC000823038F78091FA078111A5C02091F00753
:104BD0003091F1078091F2079091F30782179307C4
:104BE00008F499C08091EE05851538F18C3089F470
:104BF000DF91CF911F910F91FF90EF90DF90CF90B9
:104C0000BF90AF909F908F907F906F905F900C942B
:104C1000841AA501B601C801DF91CF911F910F91B0
:104C2000FF90EF90DF90CF90BF90AF909F908F90CC
:104C30007F906F905F900C94CD24C8010E94421E1B
:104C4000782EEFEF8E1311C0DF91CF911F910F914E
:104C5000FF90EF90DF90CF90BF90AF909F908F909C
:104C60007F906F905F900C94221C81111BC08091EB
:104C7000EE059091EF07992309F484CFC82FD0E077
:104C8000DD57CE01DF91CF911F910F91FF90EF90F3
:104C9000DF90CF90BF90AF909F908F907F906F905C
:104CA0005F900895682FC8010E943F1CE72CF12CEB
:104CB000EE0CFF1CE00EF11EC0E0D3E8612C88244E
:104CC00099248A189B08F801808191810E94340FF1
:104CD000442755274C195D09252DB401C7010E94B1
:104CE000A425919581959109C817D9070CF4EC0179
:104CF000F801808191810E94110ACC16DD060CF426
:104D00006E01CA14DB040CF0BCCF63940E5F1F4F1E
:104D10007610D9CFB6CFD0E0C0E0B3CF0C949037A7
:104D20000F931F93CF93DF930AE110E0CFEFDFEFF4
:104D3000C8010E948E269D2F9827892F82958F70FB
:104D40008927282F30E09C2FA901542F4427529502
:104D5000507F84279527E90175E0CC0FDD1F7A95F8
:104D6000E1F7C827D9270F5F1F4F0E3F83E01807D1
:104D7000F9F6CE01DF91CF911F910F9108951F9207
:104D80000F920FB60F9211248F939F938091E100A1
:104D90009091E100937F9093E10083FF0FC0109208
:104DA000E90091E09093EB001092EC0092E3909375
:104DB000ED001092480298E09093F00082FF22C02C
:104DC00093E09093E9009091F200992319F09AE30F
:104DD0009093E8009091E901992341F09091E901C5
:104DE00091509093E901911101C05D9A9091470211
:104DF000992341F09091470291509093470291116D
:104E000001C0289A84FF18C08091E2008E7E8160E4
:104E10008093E2008091E1008F7E8093E100809199
:104E2000EA018E7E80618093EA019F918F910F90BD
:104E30000FBE0F901F90189580FFF7CF8091E20072
:104E40008E7E80618093E2008091E1008E7E80936F
:104E5000E1008091EA018E7E8160E5CF1F920F9282
:104E60000FB60F921124CF92DF92EF92FF920F9321
:104E70001F932F933F934F935F936F937F938F93E2
:104E80009F93AF93BF93EF93FF93CF93DF93CDB7F0
:104E9000DEB76C97DEBFCDBF1092E9008091E800CD
:104EA00083FF25C068E0CE0145960E94190E82EF6F
:104EB0008093E8008D8987FF39C09091E80090FFCA
:104EC000FCCF982F907609F034C19E894F89588D78
:104ED0002F89F88C911131C0803861F58091E801FB
:104EE0008093F1001092F1008EEF8093E8006C96B1
:104EF0000FB6F894DEBF0FBECDBFDF91CF91FF910B
:104F0000EF91BF91AF919F918F917F916F915F9141
:104F10004F913F912F911F910F91FF90EF90DF9054
:104F2000CF900F900FBE0F901F9018959EEF90930B
:104F3000E800C7CF1092F100D5CF913059F481111C
:104F4000D3CF4130510581F68091E8018D7F809368
:104F5000E801CACF933049F48111C6CF41305105E1
:104F600019F68091E8018260F2CF953041F480918A
:104F7000E80080FFFCCF20682093E300B5CF963097
:104F800009F0A9C00B8D1C8D22E01092E90010924F
:104F9000E6011092E501F2122EC01092E401109287
:104FA000E3010E94E80D1F8299E09983FA8291E063
:104FB0009E8390EA98879AEF99872091E501309136
:104FC000E601275F3F4F3C832B838D831092E900DE
:104FD0001092E6011092E5011093E4010093E301C1
:104FE00049E050E0BE016F5F7F4F80E00E94C20D3C
:104FF0000E94E80D79CF1093E4010093E3010E9431
:10500000CC0CDC0112960D911C910115110509F4CF
:1050100051C1D801ED91FC910480F581E02DBE01D4
:105020006B5E7F4FC8010995009709F03EC1F801FA
:1050300000851185EACFF3E0FF120EC08F89882327
:1050400009F440C0823061F440E867E082EB98E008
:105050000E948F0D811148CF81E28093EB0047CFF2
:10506000813029F440E86BE086EA98E0F1CF8330A4
:1050700099F70E94CC0CDC011296ED90FC908E0109
:105080000F5F1F4F6801E114F10479F0D701ED9132
:10509000FC910680F781E02DB801C7010995080F42
:1050A000111DF701E084F184EECFD8011C92F601C6
:1050B00001900020E9F73197BF016C197D0940E0AC
:1050C000C601C6CF60E978E0FB01449150E080E87A
:1050D0000E94C20D09CF973009F4BECF983021F459
:1050E00081E08093F10000CF993009F0FDCE83700C
:1050F00009F0B2CFEEE0F1E081E031E096E32191FA
:10510000222371F08093E9003093EB00DF011197C7
:105110002C912093EC009093ED008F5F873079F70E
:105120008EE78093EA001092EA008F89809348020C
:10513000DBCE8B8D9C8D1092E9001092E6011092CF
:10514000E5019093E4018093E301898D811192C080
:105150008E899D89913A49F4813209F07DCF47E0EB
:1051600050E064E071E080E0B3CF913209F074CF99
:10517000833269F48F89988DB0E0A0E080930001BC
:1051800090930101A0930201B0930301ADCE803250
:1051900069F48091E80082FFFCCF67E084E091E051
:1051A0000E94190E8BEF8093E8009ECE823209F0A8
:1051B0009BCE8F8980930B01EEEFFFE78591949151
:1051C0008B3F9C4D51F1E0E0F8E08091040190911B
:1051D0000501A0910601B0910701803B9440A10513
:1051E000B105F1F480910B0180FD1AC0EE3F8AE019
:1051F000F80789F587E797E79183808380916000BE
:105200008093E70188E19BE00FB6F894A89580931E
:1052100060000FBE9093600067CEEEEFFAE0D5CF4E
:10522000808191818737974709F05ECEA89580915C
:1052300060008861809360008091E7018093600046
:10524000EE3F2AE0F20789F08091FE0A9091FF0A72
:105250009183808349CE808191818737980751F26D
:105260009093FF0A8093FE0AC5CF1092FF0A109216
:10527000FE0A3ACE0E94CC0CDC0112960D911C91D4
:105280000115110509F4E8CED801ED91FC910190CA
:10529000F081E02DBE016B5E7F4FC8010995811141
:1052A00023CEF80100851185EBCF181619060CF4F2
:1052B0001BCED2CEF1E0FF12BECE64E978E004CF7F
:1052C0001F920F920FB60F9211242F933F938F933B
:1052D0009F93AF93BF9380914A0190914B01A0910E
:1052E0004C01B0914D013091440123E0230F2D3743
:1052F00058F50196A11DB11D2093440180934A01E8
:1053000090934B01A0934C01B0934D0180914501C6
:1053100090914601A0914701B09148010196A11DCD
:10532000B11D8093450190934601A0934701B0932E
:105330004801BF91AF919F918F913F912F910F9015
:105340000FBE0F901F90189526E8230F0296A11DFF
:10535000B11DD2CF1F920F920FB60F9211243F9220
:105360004F925F926F927F928F929F92AF92BF9275
:10537000CF92DF92EF92FF920F931F932F933F9361
:105380004F935F936F937F938F939F93AF93BF934D
:10539000EF93FF93CF93DF93CDB7DEB76197DEBF77
:1053A000CDBF0091DF011091E0010631110508F039
:1053B000E0C1F801E252F64D0C94BA37F429032A01
:1053C0002E2A402A5B2B662B662BE62BF62A072B10
:1053D000532C532C532C5C2D692DA72D052E582EA4
:1053E000B92BB92B832EC72E8CE394E00E94B51500
:1053F00080E00E94F8101092DE0181E090E090932E
:10540000E0018093DF018CE794E00E94B515E09104
:10541000DE01F0E0EE0FFF1FEC5DFC4F05911491F3
:10542000CE0101969E012F5E3F4FDC01A801481B73
:10543000590BFA01EA0FFB1FE491ED932A173B0782
:10544000C1F760E10E94BF13869525E1281B44E166
:105450006FEFC8010E94EA1281E02AC10E94321156
:1054600081E00E94F8101092DE011092980181E014
:105470008093990183E090E09093E0018093DF01B5
:105480002EE34EE060E080E00E94EC112FE045E06A
:1054900068E088E593E00E94EA1223E042E164E0DC
:1054A00087E194E00E94EA1223E04AE16AE08EE498
:1054B00093E00E94EA1223E042E266E088E493E08F
:1054C0000E94EA1223E042E366E082E493E00E9455
:1054D000EA12E0919801F0E0EE0FFF1FE65CFC4F4E
:1054E0008591949122E242E26FEF0E94EA1227E056
:1054F0004AE268E082E393E00E94EA12E0919A01B6
:10550000F0E0EE0FFF1FE85DFC4F859194912AE2D9
:105510004AE26FEF0E94EA128091980181110BC05C
:10552000E9E8F3E02FEB33E08781857587833196D7
:105530002E173F07C9F7E0919901F0E0EE0FFF1F2A
:10554000E65CFC4F8591949122E242E36FEF0E946A
:10555000EA1227E04AE368E082E393E00E94EA125D
:10556000E0919B01F0E0EE0FFF1FE85DFC4F85919D
:1055700094912AE24AE36FEF0E94EA128091990126
:1055800081110BC0E9E0F4E02FE334E087818575F9
:10559000878331962E173F07C9F78091DE01E82FE8
:1055A000F0E03296B6E0EE0FFF1FBA95E1F78823E0
:1055B000C1F09DE28130B1F09DE38330A9F08530E8
:1055C00099F081E2E80FF11DE75BFD4F3EEF89178F
:1055D00008F042CF2191DF01119723272C938F5F91
:1055E000F6CF93E182E0EECF89E2ECCF0E94321158
:1055F00081E00E94F8100E94E81380E00E94E5100C
:1056000089E090E09093E0018093DF01B2C080E0F8
:105610000E947B1084E00E946910882319F081E0C9
:105620008093FA0790914F01E92FF0E0EA56FE4F80
:1056300082818F5F880F4091F0075091F10702C07F
:10564000569547958A95E2F781E0911180E0909117
:10565000900117E3891301C015E0F12C09E1040F53
:10566000402F69E1812F8F0D0E94BC11F39423E03C
:10567000F212F6CF49E369E18FEF810F0E94BC116E
:1056800049E369E183E0810F0E94BC1102E0010F50
:1056900048E1602F812F0E9489114AE3602F812FFA
:1056A0000E94891181E09091FA07911101C080E078
:1056B0000E94E5105EC00E94E81381E00E94E510A0
:1056C00085E090E09093E0018093DF010E94321129
:1056D0008091DF019091E0010697B1F46091DE01C5
:1056E000862F869588776770660F660F660F909194
:1056F0009001992331F098E3392F381B832F961BA3
:10570000692F41E00E944312009193011091910191
:1057100040E0602F812F0E944312602F70E0809143
:105720009401282F30E0A9014F5F5F4F6417750780
:1057300039F0620F731F6F5F7F4F75956795862FE6
:1057400080939301812F90E020919201422F50E0AD
:10575000BA016F5F7F4F8617970731F0840F951F4F
:10576000019695958795282F2093910181E00E94BD
:10577000F810809143018F5F8093430161960FB6CB
:10578000F894DEBF0FBECDBFDF91CF91FF91EF91B7
:10579000BF91AF919F918F917F916F915F914F9149
:1057A0003F912F911F910F91FF90EF90DF90CF903D
:1057B000BF90AF909F908F907F906F905F904F9031
:1057C0003F900F900FBE0F901F9018950E943211BE
:1057D000E5EDF2E02CEF32E080818F7081932E179F
:1057E0003F07D1F7E5E1F3E08CE393E011928E17E8
:1057F0009F07E1F7E5E5F3E08081887F819383E00F
:10580000EC37F807C9F722E342E26CE084E10E943A
:10581000EC118091FC0785FF44C080E090E0029687
:1058200027E0289F8001299F100D112469E173E072
:10583000C8018F599C4F0E940B1161E273E0C801AF
:1058400088599C4F0E940B1169E273E0C80181598D
:105850009C4F0E940B1161E373E0C8018A589C4F72
:105860000E940B116091D9016E5F660F660F660F83
:105870008091930190E0262F30E0A9014F5F5F4FA8
:105880008417950739F0BC01620F731F6F5F7F4F5C
:10589000759567956093930140E088E10E944312FB
:1058A00065CF86E0BBCFF0904301F110ACC0E9E4D6
:1058B000F2E0119224E0E934F207D9F70E94E813EC
:1058C00081E00E94E5100E9432118EE08F1508F4ED
:1058D0006CC06091DE01A62FA770AA0FAA0FAA0FB5
:1058E00080919501282F2770220F220F220F669595
:1058F00068778695887790919001992361F098E375
:10590000E92FEA1BAE2FF92FF21B2F2F392F361B51
:10591000632F981B892FEF2DF0E0E454FC4FE491A6
:10592000F0E0861B990B8E9FA0018F9F500D9E9FCC
:10593000500D1124CA01809646E0969587954A95A8
:10594000E1F7680F2A1B330B2E9F40012F9F900C0D
:105950003E9F900C112480E2880E911C56E0969494
:1059600087945A95E1F7A80D2091D901822F87706D
:1059700090E025FF4EC0019727E0289FF001299F66
:10598000F00D1124CF018F599C4F262F2770E8E08E
:105990006E9FB00111248A2E912C21113CC0680DFC
:1059A000791D675B7D4F0E940B1181E00E94F8100A
:1059B000FFE0FF12DECE0A30110509F074C0E0915D
:1059C0004F01F0E0EA56FE4F82818823C9F08091B2
:1059D000F4079091F5078E3A2CEF92070CF45BC018
:1059E00086303FEF93070CF458C0833523E09207CD
:1059F0000CF055C08B3F91050CF053C082E08083C2
:105A00000E94F922B6CE3FE0F3125DCF0E94BF1094
:105A10005ACF0596B1CF422FEEEFF0E05F01022E94
:105A200001C0AA0C0A94EAF7E8E0E21B2E2FAFEFC0
:105A3000B0E06D0102C0D594C794EA95E2F7FC018D
:105A4000DB01A07CB770A80DB91DA75BBD4FBC01E1
:105A5000695F7F4FA094C094849190E0EC90EA201D
:105A60004C01042E01C0880C0A94EAF7E828ED9254
:105A7000DF96EC90DF97EC20022E02C0959587957B
:105A80000A94E2F78E29DF968C93DF9731966E1792
:105A90007F0711F78ACF80E0B2CF81E0B0CF84E0FA
:105AA000AECF83E0ACCF0C30110509F0A9CF0E9436
:105AB000CF238BE090E0A6CD0E94321181E00E94BE
:105AC000F8101092DE018EE090E09093E001809358
:105AD000DF012EE34EE060E080E00E94EC11809157
