:100000000C9431060C9459060C9459060C9459061C
:100010000C9459060C9459060C9459060C945906E4
:100020000C9459060C9459060C94BD220C942C2364
:100030000C9459060C9459060C9459060C945906C4
:100040000C9459060C9459060C9459060C945906B4
:100050000C9459060C9459060C9459060C945E2580
:100060000C9459060C9459060C9459060C94590694
:100070000C9459060C9459060C9459060C94590684
:100080000C94A8250C9459060C9459060C94590606
:100090000C9459060C9459060C9459060C94590664
:1000A0000C9459060C9459060C9459062503032DFB
:1000B0003025012600212D01312C2723012600297E
:1000C00026250127250327002A232E232A34110061
:1000D0002A232E232A3410002A232E232A340F0009
:1000E0002F01272D34242D2E2300EF0000000000C7
:1000F00000F0000000000000F10000EF0000000030
:1001000000F00000000000F100000000EF0000001F
:1001100000F000000000F1000000000000EF00000F
:1001200000F0000000F10000000000000000EF00FF
:1001300000F00000F100000000000000000000EFEF
:10014000DFF0E1F10000000000000000000000EE20
:10015000EFF0F1F2000000000000FFFFFFFFFFFFE3
:10016000FF00010101010101010000000000000E7B
:100170000F10111200000000000000000000000F2E
:100180001F102111000000000000000000000F00FF
:10019000001000001100000000000000000F00002F
:1001A0000010000000110000000000000F0000001F
:1001B00000100000000011000000000F000000000F
:1001C000001000000000001100000F0000000000FF
:1001D000001000000000000011041F02041F031F94
:1001E000150A031F051A030E191E031F041B03081B
:1001F000141C031F1408030C12120308141F030C11
:100200001A14021E050312150F031F0418030E1102
:100210000E03121F10031915120311150A03070408
:100220001F03171509030E150803011907030A1503
:100230000A0302150E0204040314081403040E0436
:10024000050A1F0A1F0A05190D0C0D1905110908C9
:100250000911050111101109050911101109050DE8
:100260001918190D030E1111031F041F031F151177
:10027000051F0204021F031E051E03011F01031FA9
:10028000110E050F100E100F03121509031F101089
:10029000031F050203111F11040E11110E0307188D
:1002A00007040F10100F040E11151D031F05010187
:1002B0000A03011502020000030000000404080400
:1002C00002222F242501002926252A23242526233E
:1002D00024252623032C252A03232B23262C262CF6
:1002E0002D01130E34242D2E2329270325283221F6
:1002F00022232105242526232A2D252734302524B1
:10030000230000104001020304053203F802BF007D
:10031000B500AC00C102D800D000C800022A2521D7
:10032000053228222C26233229262503263430257F
:10033000242301232834302524230000687C7C7C7E
:10034000680000001400140000181C4A7E7E7C70B7
:10035000204C7E377A4C20467C7E7C7E7C464364F3
:100360007D7E7D644344687A7F7A684400685444A3
:1003700054680018144A72424C70204C7221724C1E
:1003800020467C4644467C4643645D465D64434467
:10039000685A4F5A68440000000001020305070A2A
:1003A0000C1013161A1E22262A2D303436393B3DE6
:1003B0003E3F40404040F103E000D20304043025BA
:1003C0002423342B252F29232730252423342D2E95
:1003D000230329252E233430252423002125012120
:1003E000232A2D2E230328032C26233429252E23CC
:1003F00033022521050029252E2C013033282C26F7
:10040000222D2F2624252C01342423012F002A23DA
:10041000252E2334262D00000000000000000000DF
:1004200000000000000000000000000000000000CC
:100430000050F0F08000000000000000000000000C
:100440000000000000800000C42212CA3C000080AE
:100450006040808040000080402020C038060000BE
:100460008060000080600000C03008040402222484
:1004700018000080603826C0000000804020A06086
:1004800000000080702040800000008070204080CC
:10049000000000000000000000000000000000005C
:1004A000000000000000000000000000800100EAE1
:1004B000711AFF7E878383808080800000000000A7
:1004C0000000102020908D838181818F90908E81FB
:1004D000808C939088848E9190888E919088848E61
:1004E0009190888E9190888798A0A0A0A0A09090CD
:1004F00088948E8180808E91908884878A91909054
:1005000088848A959888949388848A959888949307
:100510008840402418000000000000000000000097
:100520000000000000000000001005421825D74818
:10053000B77FC9F7FEBFEB7F1F0F0300000000006D
:10054000000C1201010000000040A0F058E84040FB
:10055000E04000000000000000000000000000007B
:10056000000000000000000000000000000000008B
:10057000000000000000000000000000000000007B
:10058000000000000040E04040E858F0A0400000BB
:10059000000000000000000000000000000000005B
:1005A00000000000000000004000809002A1BC4B51
:1005B000ABBEEFBBFEFF9FF9F0C0C08000000000A3
:1005C0000000000000000000000000010302000025
:1005D000000000000080000080800080008000009B
:1005E00000800000800000808000008040008000CB
:1005F00000C00000C00000800000C000004000807B
:100600000000804000800000400203410080400064
:1006100000400080000000002A00500500B00004E7
:1006200051200880210890224008801240010A6968
:10063000DBBAFDFFFEFFC101158904A2084413487F
:10064000A4126C813248A01A6088523144A8116803
:10065000528134688132888016AA0896AB041AC782
:1006600028168BA41A87A80E92AD0A46B94E72D1ED
:100670002C52F10876E118D46330CC5132E4493081
:10068000D621E894032E548B158EA51906AE510E73
:1006900095228D1EA00B000050001400801400084D
:1006A00080020440020940060100124500806813E0
:1006B000EEFD37FFFFBFFFF8E0C318A44118A04AC2
:1006C000A800DA20886A9008E2300CE0110C500093
:1006D000850822870802AB04820906AA01068D2339
:1006E000028D22078C2207C9AE73915864B1906CB9
:1006F00051B0D429B0C83AE0115CE01174C810754B
:10070000C810F0060D238C0B220C4B02AD0A01AE73
:100710000209A60A1186000009000228000A100238
:1007200004100904002B0008030030C02C92E91DBE
:10073000F6ABDF7FEBFFDFF77FFFEEFCFCFAA000FC
:10074000628048224008A21008972208952A118644
:1007500058052A114E8932049D22095688132E907D
:100760000B14926D8A01608A44A01241A4484095FE
:100770002248806A00D22448836014C16802D025D0
:10078000806806398B1416A91517A8132E81182F07
:100790008219244B12140000A000005000001080A9
:1007A0000000200000801000802200045A0015562E
:1007B0004D15565D9F572DFFAF2BDFAE37CF6F1016
:1007C0009661118860128870821860429850229455
:1007D0005040B5006A9020CA30856810A268148223
:1007E000200C83540986290A84258B04A90A8621B2
:1007F0008D0AA10D9205288B45140AA10E022946E7
:1008000008937004897004D122885025D00228D022
:1008100002A950049160D5F08D14A1C881CFD9F1FF
:10082000AF2000080B0002020200000904000001D2
:100830000202000005240010010524010101042426
:100840000206052406000107058103100040090483
:100850000100020A0000000705020240000007052F
:1008600083024000000403090412010002EF0201A8
:100870004041233680000101020301417264756921
:100880006E6F204C4C430041726475626F790000BA
:100890000000000000000000000000000000000058
:1008A0000000000000000000000000000000000048
:1008B0000002000000000000010000000000000233
:1008C0000000020000000000010000000000020023
:1008D0000000000200000000010000000002000013
:1008E0000000000002000000010000000200000003
:1008F00000000000000200000100000200000000F3
:1009000000000000000002040104020000000000DA
:10091000000000000000042010200400000000007F
:1009200000010101010101080008010101010101AB
:10093000000000000000048040800400000000006F
:10094000000000000000020401040200000000009A
:100950000000000000020000010000020000000092
:100960000000000002000000010000000200000082
:100970000000000200000000010000000002000072
:100980000000020000000000010000000000020062
:100990000002000000000000010000000000000252
:1009A000EFF10F11F010FF01DFE11F21EE0EF21247
:1009B00000208004A259FBF80004040C0D1424FD4F
:1009C000FFFFFFBDFFFFBFFFFFFFFFFFFFFFFFFFB9
:1009D000FFFFFFFFFFFFFFFFFFFFFFFFFFFFFFFF27
:1009E000FFFFFFFFFFFFFFFFFFFFFFFFFFFFFFFF17
:1009F000FFFFFFFFFFFFFFFFFFFFFFFFFFFFFFFF07
:100A0000FFFFFFFFFFFFFFFFFFFFFFFFFFFFFFFFF6
:100A1000FFFFFFFFFFFFFFFFFFFFFFFFFFFFFFFFE6
:100A2000FFFFFFFFFFFFFFFFFFFFFFFFFFFFFFFED7
:100A3000FFFFFFDEFFFFDF0001010303050900EFF9
:100A4000F0F1FF010F10110000000000000000DCB9
:100A500000DB00D000CF0086008F008700850054A7
:100A6000005800550056004200470048004F003E25
:100A70000045004500420041004E004C003A000095
:100A800000000000000000BE00EB00F9000501F5C9
:100A9000000A0120011D01020123012F0132011171
:100AA0000123013001330108011C0126012901FD48
:100AB0000013011A012201FA0001010F011301EADA
:100AC00000FD00FB0000010C0110010C01140111DC
:100AD00001270124011F011C012A012E012C011FE5
:100AE000012601310138011B0126012D0136011DAE
:100AF0000127013001300115012B01240124010BD4
:100B000001170110011701E001E201E901EE01E125
:100B100001E601EE01EA01D601E001E501E401D3BD
:100B200001D601E501E101C901D401DB01DB01C10D
:100B300001CF01D401D401BA01CB01D401D601C740
:100B400001CB01D901DD01640375038903890370B9
:100B50000371038E038E037C0382038F0397037656
:100B60000378038903880370037A037F0380036E8D
:100B70000376037E037A03580366037D0377035FDE
:100B8000035D0364037703DEFFF8FFF2FFEBFF0072
:100B9000000D00110009000300190018000900F5FC
:100BA000FF0E0012000E00EBFFFEFF0B000C00F02A
:100BB000FF010007000800F0FFFFFFFFFFFDFFE05F
:100BC000FFF8FFECFFEDFF0C0011000D000E000719
:100BD000000A000A000A001B0016000E000F001E8B
:100BE000001200090003001A0017000D000700049E
:100BF00000FFFF040009000F00060007003500A0F9
:100C0000FFD5FFF7FFFBFF070005000D000A000DF1
:100C10000009000A0003000000FFFF010001005F5F
:100C2000FFC9FFDFFFEEFFF5FFF9FFFEFFFEFF0349
:100C30000007000A001000140020001E002B001105
:100C4000000700E7FF0400190013000D000700046F
:100C5000000300F8FFFAFFF3FFF2FFF2FFEEFF00E0
:100C6000DB2D11241FBECFEFDAE0DEBFCDBF11E0D8
:100C7000A0E0B1E0E0E8F9E602C005900D92A033F3
:100C8000B107D9F728E0A0E3B1E001C01D92AB3C69
:100C9000B207E1F716E0C1E3D6E004C02197FE01F8
:100CA0000E94B834C033D107C9F70E94F02D0C94CC
:100CB000BE340C9400008F929F92BF92CF92DF922D
:100CC000EF92FF920F931F93CF93DF93EC01DC0120
:100CD0000EE715E091E09617D8F51296BC901297A2
:100CE00013967C911397F80181918F01292F422F40
:100CF00050E0FA01E458FA4F7F01FA01EE0FFF1FAE
:100D00004F018C0E9D1E43585A4FF7013081381702
:100D100084F46401F2E0CF1AD108F601C080D180DA
:100D2000F401D182C082F7013081FA013083215071
:100D3000F1F630E0F901EE0FFF1FEC0FFD1FB0825E
:100D4000718323583A4FF90180839F5F1296C3CF76
:100D5000DF91CF911F910F91FF90EF90DF90CF9097
:100D6000BF909F908F900895EBE3F2E0A0E0B4E095
:100D700000800EBC8111012C1197A0FDFDCF0192C6
:100D8000B9F70DB4089592E0960F4AE0460F49175F
:100D9000E9F0292F30E0F901E458FA4F508157FF6C
:100DA00013C0255E3A4F462F4295469546954370AF
:100DB0006F5F640FD9016C938083E82FF0E0E55CEE
:100DC000FB4F9083892F08959F5FE1CF80E00895C6
:100DD000E62FF0E0E25DFA4F908191509083292F49
:100DE00030E0F901E55EFA4F460F408324583A4F50
:100DF000F9018083E82FF0E0E55CFB4F9083892FB9
:100E000008956F927F928F929F92AF92BF92CF92EE
:100E1000DF92EF92FF920F931F93CF93DF93CDB7A3
:100E2000DEB7C054D1090FB6F894DEBF0FBECDBFF8
:100E3000E091DC0545E0E49FF0011124EC52FB4F0A
:100E4000E48054E080E05E1508F0C1C0FE013196F8
:100E5000DF01BE016F5B7F4F1192E617F707E1F7E5
:100E600030E020E0F12C80E055E0C52E922FD22E0C
:100E70002E150CF064C04091DC0524170CF092C0D4
:100E800050E0421B530BC49EF001C59EF00D11248F
:100E9000EC52FB4FB080E1818E2E8B18F80CF0E005
:100EA000AF01455C5B4F3A01FA019080492D50E05B
:100EB0008A01005211090A0F1B1FF801A080A80C1B
:100EC000A0820B2D10E0055C1B4FF8019082F3010E
:100ED000108244585A4FFA01B082F1106DC08D0152
:100EE0004BE354E0F801B1908F01BB20B9F0FA0157
:100EF000EF59FE4FE081EB0DE7FD5CC0F0E0E55CF3
:100F0000FB4FE081EE2309F455C0F0E0E55EFA4FB7
:100F1000B080FA01F395E081BE124CC04F5F5F4F85
:100F200060177107F9F641E090FF46C0442309F4C9
:100F300043C08F5F813009F43FC091E09D0D915017
:100F400050E040E0692F092E000C770B35E0F32EBE
:100F500097FD3DC02091DC0592178CF530E0FB0138
:100F6000E41BF50B2E1B3F0BF29EF001F39EF00DE0
:100F70001124EC52FB4F20813181E22FF0E0E55C3F
:100F8000FB4F2081032F10E0055C1B4FD8012C93F1
:100F90001082E22FF0E0E458FA4F30834F5F5F4F4A
:100FA0009150D6CFE22FE41BF0E0EE0FFF1FE5518A
:100FB000F84F70CF40E0B8CF2F5F3F4F57CFE92FAA
:100FC000E21BF0E0EE0FFF1FE551F84FD4CFC05CFD
:100FD000DF4F0FB6F894DEBF0FBECDBFDF91CF91CC
:100FE0001F910F91FF90EF90DF90CF90BF90AF9047
:100FF0009F908F907F906F900895E0E6E827F0E053
:10100000E458FA4F9081911115C0282F30E0F90172
:10101000E458FA4F4081442331F192E0980F865F03
:10102000891751F0E92FF0E0E458FA4F50819F5FA3
:1010300057FDF6CF80E008954530A8F04630D1F74F
:10104000235D3A4FF901208180E0921799F3E92F4F
:10105000F0E0E458FA4F308137FD03C08111EBCF47
:1010600081E09F5FF2CF81E0089580912E010E9480
:10107000FD07811104C080912D010C94FD07089596
:10108000DF92EF92FF920F931F93CF93DF93E09144
:10109000DD0730E63E273093DD07682F6777592F4D
:1010A0005777A52FB0E0A55CBB4F4C91C091DC05F4
:1010B0002FEF2C0F2093DC0505E0C09FE0011124E9
:1010C000CC52DB4F2A81C22FD0E0782F7078F92FD5
:1010D000F8787F2B09F448C097FF62C0842F90E016
:1010E0008C01055E1A4FF8017081E72FE770F0E080
:1010F000E95CF54FD490E32EF12CF701E458FA4F58
:1011000070817F5F7D197083F801108284589A4F37
:101110003FEFFC0130838091DD0790E0FC01E35D4F
:10112000FA4F3081FC014317A0F5E35DFA4F832F9E
:10113000815080838091DD0792E0980F3AE0380F6C
:10114000391791F0092F0052110B055C1A4FF80165
:101150007081711123C031E0380F82958695869594
:101160008370830F8083492F222389F1C55EDA4F74
:10117000E881E770F0E0E95CF54FE491C091DD07AC
:1011800080E6C827D0E0C458DA4F8881E80FE883AA
:101190001EC0E25DFA4F80818F5FCBCF9F5FD0CFC3
:1011A0008E0104581A4F93FF3AC0561740F58CEF42
:1011B000860FE82FF0E0E55CFB4F2083EFEFE60FB2
:1011C000F0E0E55CFB4F1082E801888320E0E62F29
:1011D000F0E0E55CFB4F4083E42FF0E0E458FA4F89
:1011E00060832C93E22FF0E0E458FA4F5083DF91B4
:1011F000CF911F910F91FF90EF90DF90089583E0C2
:10120000860FE82FF0E0E55CFB4F2083E1E0E60F7E
:10121000F0E0E55CFB4F1082F8018083D7CF87FFB9
:10122000A3CF80E3850F831BC82FD0E0C55CDB4FC5
:101230002883E8018883F0E0E458FA4F80818F5FCB
:10124000ECCF482F862F642F607647704330D9F05B
:1012500020F4413078F480E008954730B8F1473009
:10126000D1F791E0960F292F30E0F901E55EFA4FB2
:10127000695F20C0E62FF0E0E458FA4F90819F5F4D
:1012800090830C94C306262F30E0F901E458FA4FFE
:1012900090819D5F90832E503109F901E55CFA4FF2
:1012A000908141E0490F4083292F30E0F901E55E4C
:1012B000FA4F6D5F608324583A4FF9018083E82F1D
:1012C000F0E0E55CFB4F9083892F0895E42FF0E078
:1012D000E95CF54FE491A62FB0E0A458BA4F9C9179
:1012E000E90FEC930C94E806962F282F22952F7087
:1012F000362F32953F70321337C0242F861708F5EA
:101300008F5FE82FF0E0E55CFB4F90819923C1F3FC
:1013100068132AC02F5FE22FF0E0E55CFB4FE0810D
:10132000EE23C1F38091DD078E23F1F4F0E0E55E5A
:10133000FA4FE081E770F0E0E055F64F8081817070
:1013400008958150E82FF0E0E55CFB4F20812223D7
:10135000C1F3841309C09150E92FF0E0E55CFB4F25
:10136000E081EE23C1F3DECF80E00895FC0180919F
:101370003A02882311F13FB7F89482E08093E900A4
:101380002091F200822F90E01816190614F481E0E3
:1013900090E0882339F0289844E640933902409140
:1013A000F1004083222339F02091F200211103C083
:1013B0002BE62093E8003FBF08958FEF9FEF08953D
:1013C0002FB7F89483E08093E9009091E800892F8B
:1013D000807295FF04C09091F20080E4891B2FBFBA
:1013E00008958091310281110DC082E080932D0219
:1013F00084E080932E021092300210922F0281E03E
:10140000809331028DE292E00895CF93DF931F9293
:10141000CDB7DEB76983DC01ED91FC910280F381E9
:10142000E02D41E050E0BE016F5F7F4F09950F90C6
:10143000DF91CF91089583E08093E9008091F200DD
:10144000882319F08AE38093E80008950E94E00958
:1014500090E00895CF93DF931F92CDB7DEB7FC01E4
:101460008485958597FD08C02FEF3FEF358724874A
:101470000F90DF91CF910895CE0101960E94B60999
:10148000019719F4898190E0F3CF8FEF9FEFF0CFB0
:101490000F931F93CF93DF931F92CDB7DEB78C01CD
:1014A000FC018485958597FF0BC0CE0101960E94B3
:1014B000B609019771F4898190E0F80195878487D6
:1014C000F801848595850F90DF91CF911F910F9141
:1014D00008958FEF9FEFF1CFFC018485958597FDEF
:1014E0000BC09FB7F89482E08093E9008091F200EE
:1014F0009FBF90E0019608959FB7F89482E0809393
:10150000E9008091F2009FBF90E008954091D701DB
:101510005091D8012091D5013091D601421753073F
:10152000B4F49091E8009570E1F39091E80092FD99
:1015300019C08093F1008091D7019091D801019654
:101540008F739927892B19F48EEF8093E80080918F
:10155000D7019091D80101969093D8018093D7013B
:1015600081E0089580E00895EF92FF920F931F931A
:10157000CF93DF93F82E192FE62E042F81E0860FEC
:10158000880F0E94860A83E00E94860ACF2DD12F01
:10159000EC0EFD2EF11CCE15DF05B9F007FF13C0D0
:1015A000FE0184910E94860A182F80E00E94860A1C
:1015B000812321968111EFCFDF91CF911F910F9160
:1015C000FF90EF9008958881EDCF81E0F5CFDF9215
:1015D000EF92FF920F931F93CF93DF93D82E8A0140
:1015E000EB017B01E40EF51ECE15DF0559F0D7FEA9
:1015F00012C0FE0184910E94860A21968111F4CFC7
:101600000FEF1FEFC801DF91CF911F910F91FF9056
:10161000EF90DF9008958881EECF0F931F93CF93C3
:10162000DF931F92CDB7DEB782E0898342E450E0BA
:1016300063E278E080E80E94E70A0E94F109DC0199
:1016400012960D911C910115110589F0D801ED91AB
:10165000FC910280F381E02DBE016F5F7F4FC801D6
:10166000099597FD04C0F80100851185ECCF8981AB
:101670000F90DF91CF911F910F910895615030F03D
:101680002091F100FC0120830196F8CF289884E690
:101690008093390208953FB7F89480913F0190916B
:1016A0004001A0914101B091420126B5A89B05C01F
:1016B0002F3F19F00196A11DB11D3FBFBA2FA92FD1
:1016C000982F8827BC01CD01620F711D811D911DCE
:1016D00042E0660F771F881F991F4A95D1F708953A
:1016E0008F929F92AF92BF92CF92DF92EF92FF9232
:1016F0006B017C010E944B0B4B015C01C114D104B6
:10170000E104F104B9F00E944B0B681979098A09C8
:101710009B09683E73408105910580F321E0C21A60
:10172000D108E108F10888EE880E83E0981EA11C1C
:10173000B11CE4CFFF90EF90DF90CF90BF90AF90BF
:101740009F908F90089565E070E080E090E00C94A9
:10175000700B8F929F92AF92BF92CF92DF92EF92D7
:10176000FF920F931F93CF93DF936C017B018A014C
:1017700080910B01882309F45CC080913A02882390
:1017800009F457C08091DC0180FF05C08091E00022
:1017900082608093E000E801B12C8AEFA82E93E0EC
:1017A000892E2AE3922E209711F4BB20D9F10E94B2
:1017B000E00981110AC0AA94AA20D9F161E070E081
:1017C00080E090E00E94700BEECF8C171D0611F0A8
:1017D0000CF08C2F9FB7F8948092E9002091E800DC
:1017E00025FD02C09FBFDFCF282F30E0C21BD30BE7
:1017F000F701815020F041914093F100FACFE20EC1
:10180000F31EBB2021F09092E800B12CEBCF809129
:10181000E80085FDE7CF9092E800BB24B3942097C1
:1018200009F3F3CF5D9884E68093DB01101611066F
:101830003CF081E090E0F6019383828310E000E0C9
:10184000C801DF91CF911F910F91FF90EF90DF9032
:10185000CF90BF90AF909F908F9008958EBD000065
:101860000DB407FEFDCF08955C9808955C9A089525
:1018700090E1699FB001112480FD03C071956195CD
:101880007109CB010895282F30E083FB882780F968
:1018900096E0359527959A95E1F72270822B8D5F1A
:1018A00008958F929F92AF92BF92CF92DF92EF9264
:1018B000FF920F931F93CF93DF93A091DC0525E058
:1018C000A29FF0011124EC52FB4FAF5FA093DC0507
:1018D000A29FD0011124AC52BB4F238113962C93AD
:1018E0001397248114962C9314978C9311969C93A0
:1018F0001197382F392B387899F4E82FF0E0E55C10
:10190000FB4F4091DD073EEF341B4081340F3830F0
:1019100038F0E92FF0E0E55CFB4F30812F5F3111AB
:1019200020E014962C931497382F3777292F277798
:10193000D22E432F50E08A01055C1B4FF801208115
:101940006D2D70E0FB01E55CFB4F7F01C080CC2D6D
:10195000D0E0CC20A1F0FE01E55EFA4FE081E77017
:10196000F0E0E95CF54F9490A090DD07F0E6AF263B
:10197000B12CF501E458FA4F8080891880821296C4
:10198000CC9212974154564FFA014491FB01E15415
:10199000F64FE491E42313964C911397E4231396A6
:1019A000EC931397592F5878482F4078452BA1F185
:1019B00097FF61C0A22EB12C0E94430CF501E55C9B
:1019C000FB4FDF01A052BF4F1C92EF5BFE4F9FEF1A
:1019D00090834091DD07A42FB0E0833009F43CC030
:1019E000A25DBA4FEC912FEF2E0F2C93E22FF0E077
:1019F000E55EFA4F9091DD07980F9083E82FF0E0B5
:101A0000E95CF54FE491A091DD07B0E0A458BA4F2E
:101A10008C918150E80FEC93F7012083F80110823C
:101A2000E22FF0E0E458FA4FD082C458DA4F8FEF3B
:101A300088838091DD0790E689278093DD07DF9119
:101A4000CF911F910F91FF90EF90DF90CF90BF90BB
:101A5000AF909F908F900895FD01E35DFA4F208134
:101A6000922F9F5F9083E22FF0E0E55EFA4F909116
:101A7000DD079D5FC2CF93FF2AC0D316D8F4ECEFE9
:101A8000E30FF0E0BF01655C7B4FFB0140811296E4
:101A90004C9312973150832F90E0855C9B4FFC0153
:101AA0004083FB0110821296EC91F0E0E458FA4F6B
:101AB0003083B2CFE3E0E30FF0E0BF01655C7B4F22
:101AC000FB01408112964C9312973F5FE4CF87FF52
:101AD000A3CF4091DD078D2D841B805D90E0855C58
:101AE0009B4FFC01308112963C931082A32FB0E0F3
:101AF000A458BA4F8FEF8C9380E6E42FE827F0E0EC
:101B0000E458FA4F80818150808386CF5F926F9234
:101B10007F928F929F92AF92BF92CF92DF92EF927D
:101B2000FF920F931F93CF93DF93E0904501F090C6
:101B30004601E114F10409F4AEC080904701882009
:101B400009F4A9C06090EB07D090EC07262D277709
:101B5000722ECD2DC777C12CD7FC04C0C62CCC1C4F
:101B6000CC24CC1C3D2D3770932E072D10E0D3FED6
:101B7000A2C083E0E1E0831708F4EFEFEC0FF0E0A0
:101B8000E55CFB4F8081D0E0B0906201A0906101E4
:101B9000EBEEF7E0228133812193319328E0E93C99
:101BA000F207C1F78093DB0481E08093DC05862D8A
:101BB0009D2D0E944008A092D704B092D804D7FC73
:101BC00012C067FE10C0C80164E0959587956A95BC
:101BD000E1F78295807F890D8093D5048091D404AC
:101BE00088608093D40431E0E31AF108F092460152
:101BF000E09245018A9480924701E0E6F1E081E8B5
:101C000091E02381348145812193319341938E1753
:101C10009F07B9F7E8E4F1E08FE591E02181219396
:101C20008E179F07D9F710928801C093D201709246
:101C3000CD01F801E55CFB4FE081F0E0E55EFA4F95
:101C400080818093D101892D90E0CC2089F0D8014A
:101C500044E0B595A7954A95E1F753E0AA0FBB1F5D
:101C60005A95E1F7A80FB91FA657BE4FDC93D0E0F5
:101C7000EC2FF0E024E0F595E7952A95E1F733E0C5
:101C8000EE0FFF1F3A95E1F7E80FF91FE657FE4FF9
:101C9000D0831092CE01DF91CF911F910F91FF90D1
:101CA000EF90DF90CF90BF90AF909F908F907F90FC
:101CB0006F905F900895D09160016C2FCC2091F0CF
:101CC000B801E4E075956795EA95E1F76295607F64
:101CD000630F8091DD07D82FD295D695D695D37016
:101CE0008F5FD80F862F90E0FC01E55CFB4F5F0112
:101CF00050808D2F0E942109E82FF0E0E458FA4F20
:101D00009FEF9083F50150823FCF2091380130E062
:101D1000209530954091430150E02423352390E0F5
:101D20002823392381E0232B09F480E008959FB113
:101D30009095907F669B98601C9B946020914301D6
:101D40009227E0E3F1E031E060E050E0492F4323E7
:101D500099F040814F5F481760F44083330F6F5F05
:101D60003196683099F72093380125272093430155
:101D700008951082532BF2CF1082F0CFCF93DF93D0
:101D80008AE891E04BE354E0DA0130E020E0ED91A5
:101D9000EE23B9F0F0E0E55EFA4FEC01C20FD31F7D
:101DA000608168832F5F3F4F2830310581F70896A7
:101DB000405F5F4F21E08A3C920731F7DF91CF917E
:101DC0000895ECE0F1E0E9CFCF93C82F0E94340CE6
:101DD00081E20E942E0C80E40E942E0C8FE70E946C
:101DE0002E0C0E94360C8C2FCF910C94B406CF93FE
:101DF000C82F0E94340C81E20E942E0C80E00E94C9
:101E00002E0C8FE30E942E0C0E94360C8C2FCF914B
:101E10000C94B40698E0899F90011124260F311D7F
:101E20008830E8F0683030F0F901E650FE4F9081DC
:101E300090689083F901E550FE4F97E04191DF01F2
:101E4000119740684C939150C9F79091CB0198330A
:101E500030F4F901EE5FFD4F908190689083683017
:101E600048F4F901EE5BFD4F90819F6790838833C2
:101E700060F00895F901E65CFD4F90819F679083C3
:101E8000683378F3883318F00895683030F0F9013A
:101E9000E65CFD4F808180688083F901E55CFD4F41
:101EA00087E09191DF01119790689C938150C9F769
:101EB000683350F7F901EE5BFD4F808180688083C5
:101EC0000895DB01FC0124912C933196E491119645
:101ED000EC931197FC013296E4911296EC931297D1
:101EE000FC013396E4911396EC931397FC0134961E
:101EF000E4911496EC931497FC013596E4911596B1
:101F0000EC9315970696FC01849116968C93089590
:101F1000CF92DF92EF92FF920F931F93CF93DF93B5
:101F200087E0E82E0BE312E097E0D92ECD2CCE18F7
:101F3000E801F12C8091CA018823A1F1ED2DEF1960
:101F40008E2D28E0829FC0011124E80FF92FF11D8A
:101F5000E657FE4F2081222351F1822F877090E0B7
:101F600025FF23C00197D89E9001D99E300D1124E2
:101F7000C901855C9C4FBE010E94610F2896F394B5
:101F800088E0F812D7CF005C1F4FEA942FEFE212DF
:101F9000CDCFDF91CF911F910F91FF90EF90DF9008
:101FA000CF9008958C2DEF2DCCCF0596DCCF8C2DC6
:101FB0008F0D80FDE3CFBE0182E493E0DDCF98E09A
:101FC000899FF0011124E07CF770E40FF11DE55CBE
:101FD000FD4F982F97702FEF30E001C0220F9A9598
:101FE000EAF79081922B9083E05CFF4F887F885FB7
:101FF00070E06F5F7F4F9FEF885F8617170609F0CD
:1020000024F49083E05CFF4FF7CF6770772781E07F
:1020100090E001C0880F6A95EAF781509081892B82
:1020200080830895282F277091E001C0990F2A9589
:10203000EAF728E0829FF0011124E07CF770E60FB8
:10204000F11DE55CFD4F461738F08191DF011197D6
:10205000892B8C936F5FF7CF089598E0899FF001EB
:102060001124E07CF770E60FF11DE55CFD4F8770F1
:1020700021E030E001C0220F8A95EAF78081822BAF
:1020800080830895CF92DF92EF92FF920F931F9378
:10209000CF93DF93D82F062FC42F122FFF24FA944B
:1020A000F20EEE24E394E60E4F2D6E2D0E941210D8
:1020B0004F2D6E2D8C2F0E941210DD24DA94DC0E31
:1020C000CC24C394CD0E402F6D2D8C2D0E94DF0F9C
:1020D000412F6D2D8C2D0E94DF0F0E5F602F8C2DF8
:1020E0000E942D101250612F8C2D0E942D10602FF8
:1020F0008D2D0E942D10612F8D2D0E942D10DE5FE1
:102100006E2D8D2F0E942D106F2D8D2F0E942D1062
:10211000C2506E2D8C2F0E942D106F2D8C2FDF91B1
:10212000CF911F910F91FF90EF90DF90CF900C9483
:102130002D10AF92BF92CF92DF92EF92FF920F934A
:102140001F93CF93DF9338E0439FF0011124E07C8D
:10215000F7702E0F3F2F311D255C3D4F4770042F28
:10216000EFE1F0E0DF01042E01C0AA0F0A94EAF7C4
:1021700058E0541BC52F02C0F595E7955A95E2F734
:102180007C01BA2EB0949E2F9095662309F43FC02F
:10219000F70141917F01442309F439C089EDC82E2C
:1021A00081E0D82E4150F601141634F4A491B0E029
:1021B0001196CA0EDB1EF6CF7491A22ED90131966C
:1021C0008A2F8A19871740F0472F50E04F5F5F4FE3
:1021D000240F351F6150D9CF449150E08C918B2151
:1021E0006A01002E01C0CC0C0A94EAF78C298D9369
:1021F000DF968C91DF9789230C2E02C05595479569
:102200000A94E2F7482BDF964C93DF97D8CFDF9103
:10221000CF911F910F91FF90EF90DF90CF90BF90E3
:10222000AF900895CF93DF93CDB7DEB760970FB629
:10223000F894DEBF0FBECDBF613108F060E1FC0154
:10224000CE010196DC0134913D9331963A2F381B33
:102250003617C8F30E94991060960FB6F894DEBF47
:102260000FBECDBFDF91CF9108952EE34EE060E029
:1022700080E00E9442108091D101811107C082ED5F
:1022800093E02CE045E069E00C94121188EF92E0B5
:10229000F8CFCF92DF92EF92FF920F931F93CF93DD
:1022A000DF9300D000D0CDB7DEB7F82E162F4CE06C
:1022B000460F2EE360E0812F0E944210E0908901DA
:1022C0008091D3019091D401459711F1FE1020C067
:1022D00092E0C92EC10E03E02AE0D22ED10E602F6B
:1022E0008C2D0E942D10602F8D2D0E942D100E5FC1
:1022F0000D33A9F703E0D02ED10E62E08D2D0E94A0
:102300002D106CE38D2D0E942D100E5F0B3099F770
:102310002F2D30E086E0359527958A95E1F71C5FF3
:10232000C90181539E4F6C01FC018081882309F40F
:1023300040C02A573E4FF9018081845E8C8324E09F
:10234000412F61E0CE0104960E9499108AE28983B0
:102350008EE28A83F6018081825F8B832BE0412F9E
:1023600063E0CE0101960E949910FE100AC0F601AA
:102370008081882331F08091D3019091D401089716
:1023800059F082E293E0F5FC02C08CE193E023E295
:10239000412F65E00E9412110F900F900F900F9047
:1023A000DF91CF911F910F91FF90EF90DF90CF9031
:1023B000089524E0412F65E081EC92E00E94121123
:1023C000D4CFDC019C91992319F1E9EDF1E0915012
:1023D00098F41196952F6150D9F08D918823C1F012
:1023E000E9EDF1E0815080F04491242F30E02F5F3F
:1023F0003F4FE20FF31FF6CF5491252F30E02F5FB0
:102400003F4FE20FF31FE3CF81E0840F980FE3CF3C
:10241000892F08952F923F924F925F926F927F92F1
:102420008F929F92AF92BF92CF92DF92EF92FF92E4
:102430000F931F93CF93DF93CDB7DEB728970FB6D7
:10244000F894DEBF0FBECDBF1091CA0160E011113C
:1024500001C062E380912E010E94491162E31111D3
:1024600001C060E080912D010E944911A0904501BA
:10247000B09046013FEFA31AB30A6501D694C79402
:1024800046E0C416D10408F054C086E090E08C19F0
:102490009D09982F990F990F891B880F9CE2592E3F
:1024A000580E312CBEE02B2E8090450190904601B5
:1024B0008DE0851508F0B6C0E32CF12CE814F90482
:1024C00008F0B0C0F701E85BFE4F4080F701EE0F67
:1024D000FF1FE551F84F8081918119821A821B827A
:1024E0001C821D821E821F821886292F277093FF4F
:1024F0002CC0298298E19A832B82243010F49C838B
:102500002D82E82467E0CE010196E0FE71C00E94B2
:10251000E11186958D3008F08CE02AE1281B452DCD
:1025200067E0CE0101960E949910FAEF5F0E339496
:10253000BBCF8091D3019091D4010CE2502E4597EE
:1025400009F0AFCF16E2512EACCF342D37708E018B
:102550000F5F1F4F332321F039838E010E5F1F4F12
:1025600044FE07C0382F37703A5FD8013C930F5FA5
:102570001F4F45FE0AC0382F377732953F70B6E1BE
:10258000B31BF801B0830F5F1F4F43FE05C0E9E1A5
:10259000D801EC930F5F1F4F2A5FD8012C93292F8E
:1025A000277722952F70B6E1B21BF801B18338016D
:1025B00097FD09C0F2E06F0E711C46FE13C03AE1B0
:1025C000F30130839ECF33E0630E711C0E94430CF5
:1025D0008350990BFC01EB5FFC4FE491D8011296FC
:1025E000EC93EBCF47FE8DCFEBE1D301EC9389CF9A
:1025F0000E94E111482F50E09A012F5F3F4F35951F
:10260000279594E3921B292F490F511D4134510501
:1026100014F020E4281B452D67E0CE0101960E94AE
:10262000991085CF6090D3017090D401A5E16A160E
:102630007104E9F410913901163041F420E04CE2C4
:1026400069E08FEE92E00E94121111C0123078F012
:1026500020E04CE265E08AEE92E00E941211133015
:1026600009F468C008F055C0123009F45DC089282B
:1026700009F480C02AE030E0C601B9010E94A43408
:102680005EE0F52EF80EC50164E170E00E94A4340E
:10269000CB01B9010E94A4340EE0080FC50168EC1B
:1026A00070E00E94A4347EE0E72EE60EB6E0CB1682
:1026B000D10408F04BC046E050E04C195D09842F6E
:1026C000880F880F142F181B110F145D45E3D42EAB
:1026D0001E3008F44FC0E9820A83FB82FEE0EF124D
:1026E00004C0D9820E3009F4DA8220E0412F63E081
:1026F000CE0101960E9499103EE0F31233C00E30D5
:1027000069F5E31689F1EA9437E1F32E07E11650F3
:10271000DFCF1430A9F0153009F0A9CF26E14CE243
:1027200069E087EC92E08FCF26E14CE268E082EE30
:1027300092E089CF26E14CE26AE088ED92E083CF17
:1027400026E14CE268E080ED92E07DCF1CE2E5E11D
:102750006E16710409F0BACF16E2B8CF015027E126
:10276000F22ED5CFFA94D3CF87E1F82E07E197E187
:10277000E92ECDCF28960FB6F894DEBF0FBECDBFA1
:10278000DF91CF911F910F91FF90EF90DF90CF904D
:10279000BF90AF909F908F907F906F905F904F9081
:1027A0003F902F90089528E04BE352E0DA01BC01FE
:1027B000605C7F4FFC0134913D933196E617F7073B
:1027C000D1F7405C5F4F215080589F4F2111EECFD1
:1027D0000895DC012D913C9111971296EC91E20F36
:1027E000F32FF11DED50FF4F80810895AF92BF92FE
:1027F000CF92DF92EF92FF920F931F93CF93DF93CD
:1028000000D01F92CDB7DEB7E0E6C82ECE26AC2DA5
:10281000B0E0A458BA4F9C91911130C08B01E82EC2
:10282000282F30E0F901E458FA4FF080F11018C079
:102830006091EA078091DC050E94380CF8019183D1
:10284000808381E00F900F900F90DF91CF911F91C7
:102850000F91FF90EF90DF90CF90BF90AF900895D1
:1028600092E0980F8AE08E0D891751F0E92FF0E081
:10287000E458FA4F40819F5F47FDF6CF80E0E2CFFA
:10288000F3E0FF15A8F694E0F916C1F3235D3A4F83
:10289000F9019081D12C981749F0E82FF0E0E45825
:1028A000FA4F208127FFD3948F5FF5CF8BE394E01D
:1028B0009A838983EB82CE0101960E94E9139B8162
:1028C000905E30E09817E9F0482F50E0FA01E458A4
:1028D000FA4F608167FD13C0455E5A4FFA012081AF
:1028E0002770243061F4262F22952F70262720FB95
:1028F000AA24A0F8B12CA5014F5F5F4F342B8F5F46
:10290000E1CFF6E0FF1204C082E0D81609F490CFC0
:10291000E394EE2DF0E0E458FA4F8081C394EC2D5F
:10292000F0E0E458FA4F2081422F50E064E05595E2
:1029300047956A95E1F72770682F62956F70641B61
:10294000062E000C770B77FF03C071956195710916
:102950008770821B082E000C990B97FF03C091957E
:1029600081959109680FF6E0FF1223C081E0D8122B
:1029700020C030FD18C08EE0821B240F841B281756
:1029800008F4822F94E0F99E90011124820F932F76
:10299000911D880F991F861B910934E0880F991F9C
:1029A0003A95E1F74BCF842F821B295F241B895F67
:1029B000E6CF440F87E090E0841B910997FF03C0A6
:1029C000919581959109220F47E050E0421B5109F2
:1029D00057FF03C0519541955109840FD3CF6350E0
:1029E00070E09B0143E0220F331F4A95E1F7287006
:1029F00056E0660F771F5A95E1F76078622BFC016D
:102A000020812777622B608308950F931F93CF93C4
:102A1000DF9300D0CDB7DEB7FC017A8369839A815A
:102A2000892F877782958F70841759F0CF0102968E
:102A3000718360830F900F90DF91CF911F910F9161
:102A400008958F0190689A8360912901CE010196C3
:102A50000E94EF14FC0180819181F80191838083B1
:102A600060912C01CE0101960E94EF14FC0180813F
:102A70009181F8019383828360912A01CE010196AE
:102A80000E94EF14FC0180819181F8019583848379
:102A900060912B01CE0101960E94EF14FC01C80148
:102AA000089620813181F80137832683C3CF88239C
:102AB00029F090E483FF90E28770890F0895DC018C
:102AC000EC91F0E0E055F64F8491E62F660FFF0B96
:102AD000E85DF64FE491E82381E009F480E0089591
:102AE000FC0180818770843018F097E0981B892F53
:102AF0000895CF93FC01208130E044E0359527957F
:102B00004A95E1F7C7E0C21B611101C0C22FCC0F8B
:102B1000CC0F0E9470158C0FCF9108952F923F9289
:102B20004F925F926F927F928F929F92AF92BF92DD
:102B3000CF92DF92EF92FF920F931F93CF93DF9389
:102B4000CDB7DEB764970FB6F894DEBF0FBECDBF2A
:102B5000C82E81E06C2C6826A0E4DA2E80E0CC2020
:102B600019F0F0E2DF2E87E0FE0131965E012BE0E6
:102B7000A20EB11C4F018193EA15FB05E1F780E637
:102B80005D2C582642E0450D5AE0550DE12C5417B6
:102B900009F1E42FF0E0E458FA4F808187FD18C076
:102BA000E394282F30E0E4E035952795EA95E1F7A6
:102BB000877090E00196F401E80FF91F8081CC2026
:102BC00021F0821720F4282F02C02817E0F3208379
:102BD0004F5FDDCF30ED3D0D388B62E0762E7D0C02
:102BE0007AE0372E3D0C10E000E08EEF482E4D18B5
:102BF000371409F48AC0E72DF0E0E458FA4FF0806A
:102C0000FB86F7FC53C0E394662DC5010E9479153D
:102C1000E82FF0E0EE0FFF1FE95BF54F85919491EF
:102C2000080F191FC5010E947015EF2D6889E61B5A
:102C3000AFEFAE0FB0E0A55CBB4F9C91940D983008
:102C400048F0EF5FF0E0E55CFB4F9081940D40E0D1
:102C5000983058F4E82FF0E0EE0FFF1FE953F44FDF
:102C600025913491020F131F41E09F2D92959F7083
:102C70002F2D277030E0F401E20FF31F5081C110B7
:102C800017C0951798F0E2E0F0E0EC0FFD1FE20F9F
:102C9000F31F5081951750F0E3E0F0E0EC0FFD1FBB
:102CA0002E0F3F1FF90120819217B8F47394A0CF23
:102CB0005917E0F3E2E0F0E0EC0FFD1FE20FF31F25
:102CC0005081591798F363E070E06C0F7D1F260F59
:102CD000371FF9012081291748F3E82FF0E0E0536E
:102CE000FF4FCF01880F991FFC01E95BF54F25913C
:102CF0003491020F131F4423C9F2FC01E15BF54F2D
:102D000085919491080F191FD1CFFEE0FE1510F4A4
:102D10002FE0E22EED2DF0E0E35DFA4F20812C8BC9
:102D2000F12C3CEEE30EF11CEE0CFF1CB701695BCD
:102D3000754F1B01198A8EEF482E4D1891E4892E8C
:102D40009CE0992E7C89771609F448C0E72DF0E0C5
:102D5000E458FA4FC080CB86C7FC3EC0662DC50143
:102D60000E947915E82FF0E0EE0FFF1FE957F54FAD
:102D700085919491080F191F8889C81AEFEFEC0DFF
:102D8000F0E0E55CFB4F8081840D883048F0C3940F
:102D9000EC2DF0E0E55CFB4F8081840D883068F419
:102DA000C5010E947015E82FF0E0EE0FFF1FE15300
:102DB000F44F85919491080F191FF1018591949119
:102DC000080F191F9989992329F0F401859194918D
:102DD000080F191FE1E0E98B7394B4CFE1E0E50D32
:102DE000F0E0E458FA4F40808BE394E09C878B87B7
:102DF000DD86C5010E94E913C82E8D85805E888B13
:102E00009701295D354F1901812C712C73E4A72E90
:102E10007CE0B72E38893C1509F491C08C2D90E0E8
:102E2000BC01655C7B4F7B01FB01EF5BFE4F90803B
:102E30009F8697FC75C0662DCE010F960E9479156E
:102E4000F701E052FF4FE081E770EE87E450EE2E8D
:102E5000F12CF70155E0EE0FFF1F5A95E1F7E05C0A
:102E6000FF4FE80FF11DEE0FFF1FE95BF54F859156
:102E70009491080F191F642D6919CE010E960E94B6
:102E80005F15882349F0F701EE0FFF1FE950F44F5B
:102E900085919491080F191F8E85982F937009F4CE
:102EA00041C0853061F4F10185919491080F191F9B
:102EB000772059F1F50185919491080F191F892DFB
:102EC0008F708F8728E0FF24F3949F85E92FF0E02F
:102ED000E55CFB4F80818250382F3D19383000F17E
:102EE0008519883008F4F12C905F9F87215069F78D
:102EF000CE010F960E947015E82FF0E0F11008C087
:102F0000EE0FFF1FE152F44F07C077247394D7CF21
:102F1000EE0FFF1FE952F44F85919491080F191F8E
:102F2000C39478CF892D82958F709826792D7170F2
:102F30007A8B1B8A8A899B890196882AF1CF83E044
:102F4000881206C0EDEFFBE085919491080F191FE0
:102F5000E1E0ED0DF0E0E458FA4FF080FE86662DDA
:102F6000CE010E960E947915E82FF0E0EE0FFF1FBC
:102F7000E957F44F85919491080F191FEFE3FAE098
:102F800047E45AE090E034918F2D830FA82FB0E0F2
:102F9000A55CBB4F2C912D2111F49F5FF6CF31968C
:102FA0004E175F0781F79C3008F09CE0E92FF0E0B6
:102FB000EE0FFF1FEB5BF34F85919491800F911FF4
:102FC00064960FB6F894DEBF0FBECDBFDF91CF91F0
:102FD0001F910F91FF90EF90DF90CF90BF90AF9037
:102FE0009F908F907F906F905F904F903F902F9029
:102FF00008950F931F93CF93DF9300D0CDB7DEB723
:103000008091DF079091E00701969093E00780930D
:10301000DF07BE016F5F7F4F8091DD070E94F613CF
:10302000811128C09091DD07BE016F5F7F4F80E660
:1030300089270E94F613811116C081E00E948E1527
:103040008C0180E00E948E159801281B390BC90164
:10305000EFE3FCE02091DD0725FF15C025913491B9
:10306000820F931F05C089819A819195819591095D
:103070009A83898389819A810F900F90DF91CF91F4
:103080001F910F91089525913491281B390B3A8394
:103090002983F0CFDC01EC910E2E000CFF0BEF59D1
:1030A000FE4F84910895DF92EF92FF920F931F934A
:1030B000CF93DF93CDB7DEB72A970FB6F894DEBF74
:1030C0000FBECDBFF82E8091DD0720E62827E0ED6A
:1030D000EF0DE20FAFEFAE0FB0E0A55CBB4F1C9160
:1030E0009EEF981B312F390F383088F580E2821B14
:1030F0008295869587709F2D92959F70891709F408
:10310000FDC080E01123A9F0EF2DF0E0E55CFB4F5E
:10311000E081F0E0E55EFA4FE081E770F0E0E8542E
:10312000F64F0491080F8091DC058C3009F0E8C05F
:10313000802F2A960FB6F894DEBF0FBECDBFDF9169
:10314000CF911F910F91FF90EF90DF900895EF5F67
:10315000F0E0E55CFB4F1081910F983038F21AE0F7
:10316000180FE82FF0E0E35DFA4F0081101789F0A7
:10317000E12FF0E0E458FA4F808187FD08C06F2D01
:10318000681B8CE291E00E945F158111BACF1F5F2E
:10319000EDCF8091DD072BE334E03A8329838B83E5
:1031A000CE0101960E94E913182F8B8130E2E32EA5
:1031B000E80EE11651F1812F90E0FC01E458FA4F3E
:1031C000008107FD20C0855E9A4FFC0180818770D9
:1031D0008430C9F4DF2CD01A6D2D8BE291E00E946F
:1031E0005F15882381F0DC82CE0104960E944A1884
:1031F000080FE02FF0E0E55CFB4F90819923C1F3CD
:103200000F1509F47ECF1F5FD4CF8091DD072BE32C
:1032100034E03D832C838E83CE0104960E94E91313
:10322000182F8E8120E2E22EE80EE11651F1812F57
:1032300090E0FC01E458FA4F008107FD20C0855E54
:103240009A4FFC01808187708530C9F4DF2CD01A39
:103250006D2D8AE291E00E945F15882381F0DF8264
:10326000CE0107960E944A18080FE02FF0E0E55CB7
:10327000FB4F90819923C1F30F1509F442CF1F5FD3
:10328000D4CF8091DD072BE334E038872F83898703
:10329000CE0107960E94E913182F898590E2E92E46
:1032A000E80EE11609F441C0812F90E0FC01E458DA
:1032B000FA4F008107FD20C0855E9A4FFC01808196
:1032C00087708630C9F4DF2CD01A6D2D89E291E029
:1032D0000E945F15882381F0DA86CE010A960E944B
:1032E0004A18080FE02FF0E0E55CFB4F908199232E
:1032F000C1F30F1509F405CF1F5FD3CF80E202CFD2
:10330000A12FB0E0A458BA4F1C91812F9F2D0E948D
:10331000510C8F2D0E945318E82E812F9F2D0E9453
:103320004008802F8E1987FF04CF80E002CFCF9313
:10333000DF930E94F917EC01E091DC0585E0E89F3E
:10334000F0011124EC52FB4F8281882349F08181E6
:1033500087770E94531899E18902C00DD11D11246D
:10336000CE01DF91CF9108952F923F924F925F92BD
:103370006F927F928F929F92AF92BF92CF92DF9285
:10338000EF92FF920F931F93CF93DF9300D000D063
:103390001F92CDB7DEB78C016C01DC01612C412C92
:1033A0006616F9F011968C91119787FD08C0E82FE9
:1033B000E777F0E0E55CFB4F9081992379F0E42D0D
:1033C000F0E0EE0FFF1FE00FF11F9C912081318193
:1033D00011963C932E939083818343946394129629
:1033E000DFCF2EE1241510F47FE1472E6DE7262E66
:1033F00065E0362E78015101712C741409F43CC03B
:10340000D7018D909C9011971196BC91BB83B7FF0B
:1034100023C0F70180810E94430CE82FF0E0E854BC
:10342000F64FE4915CEF552E5E0E8091DC058C30FA
:1034300059F0C4010E94510C8B8187770E94531868
:10344000581AC4010E944008D5015D925D01739431
:10345000B2E0EB0EF11CD1CFEB81E777F0E0E55C59
:10346000FB4FE081F0E0E55EFA4FE081E770F0E0CD
:10347000E854F64F5490D9CF672DC8010E945B06DF
:103480002DE735E0962C90E080E0B12C4DEB5EEF1F
:10349000FA01EB53F4407F01B714D8F5D9014D91EF
:1034A0009D0147FF33C0962C9718D801A80FB91F6C
:1034B000F701E20FF31FE90DF11DEE0FFF1FAF0142
:1034C000400F511F5D834C83AB2CBC0161507109CF
:1034D0008C9011965C901197EC81FD8141915191F6
:1034E000FD83EC834D935D93AF0142505109FA0186
:1034F00080824C815D81481B590B460F571FFA0192
:103500005082A3947A10E4CF9B0C7B2CB394029648
:10351000C3CF711064C0FEE1792CF91510F42FE1CE
:10352000722E812C871409F456C06090DD0766FA6C
:10353000662460F8D601EC91E777EA83F0E0E55C79
:10354000FB4FE081F0E0E55EFA4FA080BA2DB77046
:10355000AB2EAA94AA94E5E0EA1508F4A12CD601B2
:1035600011968C9187778983662DCE0101960E94F2
:103570007915B0E2AB9E50011124F501E80FF11D61
:10358000EE0FFF1FE95BF54FE590F490662DCE013D
:1035900002960E947915F501E80FF11DEE0FFF1F4D
:1035A000E95BF54F85919491F701E81BF90BCF0189
:1035B0008138FFEF9F0714F481E89FEF8038910571
:1035C00014F08FE790E0D1018D931D018394B2E058
:1035D000CB0ED11CA7CF682DC8010E945B06892D98
:1035E0000F900F900F900F900F90DF91CF911F9140
:1035F0000F91FF90EF90DF90CF90BF90AF909F9092
:103600008F907F906F905F904F903F902F90089594
:103610009F92AF92BF92CF92DF92EF92FF920F9361
:103620001F93CF93DF9300D000D01F92CDB7DEB7AA
:10363000A0E3A60FA81B9EEF981B2FEF2A0FE22FE7
:10364000F0E0E55CFB4F2081290F283008F48CC0A6
:10365000AF5FB0E0A55CBB4F2C91920F983008F49F
:1036600083C0062F182F2AE0E22EE80EE82FF0E0A4
:10367000E35DFA4FD080ED1489F0EE2DF0E0E458D0
:10368000FA4F608167FD08C0601B8CE291E00E94E8
:103690005F15F82E811146C0E394EDCF802F90E0A6
:1036A0009C01255C3B4F6901F901908080E6808395
:1036B0008BE394E09A8389831B83CE0101960E9459
:1036C000E913B82E8B8190E2A92EA80EAB14E1F17C
:1036D0008B2D90E0FC01E458FA4FE080E7FE02C039
:1036E000B394F4CF855E9A4FFC018081602F6E19F0
:1036F0006D8387708C83CE0104960E945F15F82E2F
:10370000882371F3CE0105960E944A18E80EEE2D2B
:10371000F0E0E55CFB4F90819923C1F30E11E0CFFF
:10372000F60190828F2D0F900F900F900F900F90B9
:10373000DF91CF911F910F91FF90EF90DF90CF908D
:10374000BF90AF909F900895F60190821F5FE12F88
:10375000F0E0E458FA4F8081602F681B86E291E028
:103760000E945F15F82EDECFFF24F394DBCF2F925B
:103770003F924F925F926F927F928F929F92AF9201
:10378000BF92CF92DF92EF92FF920F931F93CF934E
:10379000DF93CDB7DEB7AC970FB6F894DEBF0FBEA0
:1037A000CDBF1C01F090DD0780E65F2C582610EDA0
:1037B000612E6F0C80E28F1990E09C0105E0359539
:1037C00027950A95E1F73CA32BA34BA086E0282779
:1037D0002BA731E03F0D3DA3832F90E0AC0144586F
:1037E0005A4F5FA34EA3DA01EC901092DE078BE3F1
:1037F00094E09A8F898F5B8ECE0149960E94E913DF
:10380000982E8B8D805E8CA78101DD24DA94C12CEB
:10381000BCA5B91509F4CEC0892D90E0FC01E4588F
:10382000FA4FA080A7FC2EC0855E9A4FDC01EC9178
:10383000E7709A2D9E199F8FF0E0E055F64F849126
:10384000E92F990FFF0BE85DF64FE491E823E37051
:10385000C9F0CE014F960E944A18782EBE2CB70CA4
:10386000EB2DF0E0F9A7E8A7E55CFB4F90819923E9
:10387000B1F3AB1009C08091DE078E5F8093DE0745
:103880007AA6DA2C9394C4CF492F50E0FA01E55E72
:10389000FA4F8081282F20762F11F4CFF7E00D3CCE
:1038A0001F0708F0C3C38B2C870CE82DF0E0E55C04
:1038B000FB4F20812223C1F3A810E4CF2C2D30E050
:1038C000EDE0F0E0EC0FFD1FE20FF31FB082445873
:1038D0005A4FEFEFDA01EC93C39441E050E04C0F04
:1038E0005D1F240F351FD9019C938770833008F02A
:1038F00043C0A62CAB0C872D877041F5EA2DF0E074
:10390000E55CFB4F80818111BDCF442D6B2D7A2D5D
:10391000C8010E9405158C01A60CEA2DF0E0E55CBB
:10392000FB4F80818111AECF88A599A5B4E0959514
:103930008795BA95E1F7BBA5B813A4CF8B2D886006
:10394000F8018083A1820E5F1F4F9CCF8FEF8A0DFD
:10395000881207C0442D6B2D782DC8010E940515D3
:103960008C01A3948A108ECF442D6B2D782DC80125
:103970000E9405158C0186CF8C8F6F8DCE014C96E1
:103980000E945F15882309F47DCFD8019B2D970DE8
:10399000FD013296BC9211969C93DF018912F7CFFC
:1039A0008B2D8F018719E81609F46CCFB0828183C3
:1039B0003296F7CFE091DC0525E0E29FF00111247B
:1039C000EC52FB4F81818777B82E9E2D981BE82FF4
:1039D000F0E0E55CFB4FE081F0E0E55EFA4FE0816E
:1039E000E770F0E0E055F64F8491E92F092E000CC6
:1039F000FF0BE85DF64FE491E823EC7F69F08091DE
:103A0000DE078F5F8093DE0791959C8FCE014C96E9
:103A10000E944A188AA7DB2C8091DE07882309F4CC
:103A20006FC0833008F092C2E091DC0535E0E39F7F
:103A3000F0011124EC52FB4F8181877781018D15B4
:103A400009F4C7C08091DE0780FF69C1BD2CB6189C
:103A50006FEF6B0DE62FF0E0E55CFB4FE0818EEF42
:103A6000E82EEF188E2F8E0D883060F4F0E0E458C9
:103A7000FA4F808187FD06C04BA17D2DC8010E94B1
:103A800005158C0161E06B0DE62FF0E0E55CFB4F66
:103A9000E0818E2F8E0D883060F4F0E0E458FA4F0C
:103AA000808187FD06C04BA17D2DC8010E940515B0
:103AB0008C01F7E00D3C1F0708F0B8C2EAE0EE2EDB
:103AC000EF0CEF2DF0E0E35DFA4FA080AE1409F4A7
:103AD000E2C0EE2DF0E0E458FA4FB080B7FC0EC023
:103AE0006D2D6B198CE291E00E945F15882331F0F7
:103AF000D801BC921196DC920E5F1F4FE394E6CF83
:103B000047E00D3C140708F091C2E091DC0555E058
:103B1000E59FF0011124EC52FB4FA3808F2D82957D
:103B2000869587708A2171F16FEF6E0DE62FF0E0B8
:103B3000E55CFB4F8081811125C0AEEFBA2EBE0C33
:103B4000EB2DF0E0E55CFB4F808181111BC0EDEFB8
:103B5000EE0DF0E0E55CFB4F8081811113C0852DF7
:103B60000E94081B81110EC06B2D852D0E94081B21
:103B7000811108C0D801EC928B2D886011968C932E
:103B80000E5F1F4FAF2029F161E06E0DE62FF0E0D0
:103B9000E55CFB4F808181111CC0F2E0BF2EBE0CA2
:103BA000EB2DF0E0E55CFB4F8081811112C0852D8B
:103BB0000E94081B81110DC06B2D852D0E94081BD2
:103BC000811107C0F801E0828B2D886081830E5F30
:103BD0001F4FF7E00D3C1F0708F028C2E091DC05FD
:103BE00025E0E29FF0011124EC52FB4F808183FF1E
:103BF00029CF81818777B82E8091DE07882311F045
:103C0000DB1020CF88248A948B0CE82DF0E0E55C53
:103C1000FB4FE0818EEFA82EAF188E2F8A0D8830D3
:103C2000B8F4F0E0E458FA4F808187FD11C04B2DC5
:103C3000682D8E2D0E94740981110AC0882D80681C
:103C4000D8018C93862D8B0D11968C930E5F1F4F90
:103C5000882483948B0CE82DF0E0E55CFB4FE08139
:103C60008E2F8A0D883008F0EDCEF0E0E458FA4F40
:103C7000808187FDE7CE482D6B2D8E2D0E94740923
:103C80008111E0CE882D8068F8018083B60CB18266
:103C90000E5F1F4FD7CEB7E00D3C1B0708F0C6C123
:103CA0008BE394E09D8F8C8FFE8ECE014C960E940C
:103CB000E913E82E8E8D70E2A72EA80EAE1409F43B
:103CC00046C18E2D90E0FC01E458FA4FB080B7FC5D
:103CD00024C0855E9A4FFC0180816D2D6B196AA30B
:103CE00087708F8FCE014F960E945F158823A9F0B1
:103CF000CE0182960E944A189B2D980FE92FF0E082
:103D0000E55CFB4F20812223C1F3D91206C0D80104
:103D1000BC921196DC920E5F1F4FE394CFCFB7E0B9
:103D2000053A1B0708F082C152E0A52EAF0C6AE0ED
:103D3000762E7F0C7A1409F44FC0EA2DF0E0E45897
:103D4000FA4FB080B7FC46C0862C8B0C7FEF780D05
:103D5000E72FF0E0E55CFB4F80818076581206C0CB
:103D6000442D6B2DC8010E9405158C0171E0780D62
:103D7000E72FF0E0E55CFB4F80818076581206C0AB
:103D8000442D6B2DC8010E9405158C01E82DF0E033
:103D9000E55CFB4F808181111DC0442D6B2D782D7A
:103DA000C8010E9405158C01860CE82DF0E0E55C49
:103DB000FB4F808181110EC08B2D82958F70EBA5FA
:103DC0008E1308C08B2D8860D8018C9311968C922D
:103DD0000E5F1F4FA394AECFEF2DF0E0E35DFA4FDF
:103DE000408120EB39E04A1519F1EA2DF0E0E45862
:103DF000FA4F908197FD1AC0B7E00D3C1B0708F001
:103E000015C1E8EAF9E08491890FA82FB0E0A55C1C
:103E1000BB4F5C915F2131F4D8019C9311968C9338
:103E20000E5F1F4F31962E173F0769F7A394DBCF24
:103E30008BE394E098A38F8FF9A2CE014F960E9456
:103E4000E91369A1605E24EA39E048EA59E068179D
:103E500009F451C0E82FF0E0DF01A458BA4F9C915B
:103E600097FD47C0B7E0053A1B0708F0DFC0E55EE5
:103E7000FA4F7081E72FE370E9F0E4EAF9E0A490EB
:103E80003801B92E8301BA0CAB2DB0E0A55CBB4F55
:103E90008C90A82DAF2151F4A2E06A0E711CD801BC
:103EA0009C931196BC92882069F3830131964E173A
:103EB0005F0729F770FD1DC0E0EAF9E0B490480102
:103EC000792F84017B0DA72FB0E0A55CBB4FAC9090
:103ED000AA2DAF2151F4B2E08B0E911CD8019C9316
:103EE00011967C93AA2069F3840131962E173F071F
:103EF00029F78F5FACCF8091DE07882341F1510114
:103F0000A016B10620F5F50181818777882E8E19DC
:103F10008C8FCE014C960E944A18FAA58F1779F023
:103F2000F80192918291D5018D939C939501225035
:103F3000310959018F0132E0A30EB11CE1CF9E2D52
:103F4000980F8916C1F3D912FBCFEACF81014DEC4E
:103F5000241647E0340608F069C0AEA1BFA1DC908A
:103F6000AD2CB12CF501E55CFB4F10823FE3832EB5
:103F70003AE0932E47E4642E4AE0742EF401E49074
:103F8000ED0CEE2DF0E0E55CFB4F80818F2161F4BC
:103F90006E2D852D0E94081B811106C0D801DC9270
:103FA0001196EC920E5F1F4FBFEF8B1A9B0A68149D
:103FB000790421F7F501E55CFB4F2DA12083CC208E
:103FC000B9F0CA948C2D90E0E1E0F0E0EC0FFD1F19
:103FD000E80FF91FE081F0E0E458FA4F4DE050E0BF
:103FE0004C0F5D1F840F951FDC018C918083E7CF00
:103FF000C8018219930995958795AC960FB6F894E8
:10400000DEBF0FBECDBFDF91CF911F910F91FF900B
:10401000EF90DF90CF90BF90AF909F908F907F9068
:104020006F905F904F903F902F900895CC20B9F003
:10403000CA948C2D90E0E1E0F0E0EC0FFD1FE80F5A
:10404000F91FE081F0E0E458FA4F2DE030E02C0F4A
:104050003D1F820F931FDC018C918083E7CF8FEF90
:10406000CCCFCF938DED95E00E94B71BC82FE09188
:10407000DC0585E0E89FF0011124EC52FB4F8481C0
:104080008436B8F40E943508811115C00E940107DA
:10409000823098F49091DE07CC2331F081E09111C9
:1040A00001C080E0CF91089586E09111FBCF85E0BB
:1040B000F9CF82E0F7CF84E0F5CF83E0F3CFCF9361
:1040C000C091DD07C09389010E943120809339019E
:1040D000823040F085E190E09093D4018093D30149
:1040E000CF9108952C2F30E056E0359527955A95BD
:1040F000E1F7F901E153FE4F8081882381F141E02E
:1041000050E0222311F050E040E041535E4FDA01CD
:104110009C91911105C0C5FBCC27C0F9C093CA0181
:1041200098E09093E60790E0880F991F079641E08A
:1041300050E002C0440F551F8A95E2F75093E20702
:104140004093E1072C573E4FD901EC91F0E0EE5F30
:10415000FC4FE491E093EA0788E090E0BDCFC6FB16
:10416000CC27C0F9C093CA0184E090E0B5CF5F923C
:104170006F927F928F929F92AF92BF92CF92DF9277
:10418000EF92FF920F931F93CF93DF938C017B01EC
:104190006A01622E0E94B71B782E8FEF781211C031
:1041A000DF91CF911F910F91FF90EF90DF90CF9013
:1041B000BF90AF909F908F907F906F905F900C9486
:1041C000971971102DC08091DE078823A1F0C62DAC
:1041D000D0E0DD57CE01DF91CF911F910F91FF907D
:1041E000EF90DF90CF90BF90AF909F908F907F9097
:1041F0006F905F9008956091EA078091DC05DF91F0
:10420000CF911F910F91FF90EF90DF90CF90BF90D3
:10421000AF909F908F907F906F905F900C94380C30
:104220000E94F9178C159D050CF07DC0EC018E15D0
:104230009F050CF4E70190E0E92FF0E0EE0FFF1F7F
:10424000E00FF11F8181A82FA777B0E0A55CBB4FDD
:104250002C91211111C087FD0FC0808187FD0CC0FA
:104260007A949150A72DB0E0AA0FBB1FA00FB11FE9
:104270002D913C91318320839F5F9715E8F2672D44
:10428000C8010E94B419E72CF12CEE0CFF1CE00EC3
:10429000F11E512CA12C93E8B92E63948824992403
:1042A0008C189D08571409F495CFF80180819181ED
:1042B0000E94510C8091DC058C30C9F40E94F917E2
:1042C000919581959109A816B9060CF45C01F80145
:1042D000808191810E944008CA15DB050CF4E5013C
:1042E0000E5F1F4FCC15DD05F4F45394DBCF8091A6
:1042F000E907811115C02091DF073091E007809117
:10430000E1079091E2078217930750F04427552761
:104310004C1B5D0B262DB401C7010E94B720D0CFE6
:1043200090E080E0CDCFE60155CF3F924F925F9273
:104330006F927F928F929F92AF92BF92CF92DF92B5
:10434000EF92FF920F931F93CF93DF93EC016B01DA
:104350005A01422E502E1091DC0585E0189FF00185
:104360001124EC52FB4F84818436B0F06091EA074F
:10437000812FDF91CF911F910F91FF90EF90DF90F0
:10438000CF90BF90AF909F908F907F906F905F90F5
:104390004F903F900C94380C0E9435088111E6CF65
:1043A0000E940107823028F06091EA078091DC05C5
:1043B000E0CF8091E9078111ACC02091DF073091F7
:1043C000E0078091E1079091E2078217930708F4D4
:1043D000A0C0401670F18091DC058C3099F4DF911B
:1043E000CF911F910F91FF90EF90DF90CF90BF90F2
:1043F000AF909F908F907F906F905F904F903F9085
:104400000C94F917242DA501B601CE01DF91CF91AF
:104410001F910F91FF90EF90DF90CF90BF90AF90E2
:104420009F908F907F906F905F904F903F900C94F3
:10443000B720CE010E94B71B182F8F3F99F4DF9150
:10444000CF911F910F91FF90EF90DF90CF90BF9091
:10445000AF909F908F907F906F905F904F903F9024
:104460000C94971981111CC08091DE07882309F4F0
:104470009BCF642C712C8DE7781AC301DF91CF910B
:104480001F910F91FF90EF90DF90CF90BF90AF9072
:104490009F908F907F906F905F904F903F90089586
:1044A000682FCE010E94B419E12EF12CEE0CFF1CF6
:1044B000EC0EFD1E612C93E8792E312C4394882458
:1044C00099248A189B08888199810E94510C44275D
:1044D00055274C195D09052D242DB401C7010E94F3
:1044E0009521919581959109681679060CF43C0106
:1044F000888199810E944008C614D7040CF4630196
:10450000CA14DB040CF0B9CF339422961311DBCF1D
:10451000B4CF712C612CB1CF0C948E340F931F93B8
:10452000CF93DF9300E210E0CFEFDFEFC8010E94EE
:104530008C229D2F9827892F82958F708927282F6D
:1045400030E09C2FA901542F44275295507F842797
:104550009527E90175E0CC0FDD1F7A95E1F7C827B3
:10456000D9270F5F1F4F0E3F83E01807F9F6CE01E2
:10457000DF91CF911F910F9108951F920F920FB667
:104580000F9211248F939F938091E1009091E1000D
:10459000937F9093E10083FF0FC01092E90091E0B8
:1045A0009093EB001092EC0092E39093ED00109248
:1045B0003A0298E09093F00082FF22C093E090933B
:1045C000E9009091F200992319F09AE39093E800A2
:1045D0009091DB01992341F09091DB0191509093F0
:1045E000DB01911101C05D9A90913902992341F04C
:1045F00090913902915090933902911101C0289AFB
:1046000084FF18C08091E2008E7E81608093E2007A
:104610008091E1008F7E8093E1008091DC018E7EAD
:1046200080618093DC019F918F910F900FBE0F905E
:104630001F90189580FFF7CF8091E2008E7E8061F9
:104640008093E2008091E1008E7E8093E100809172
:10465000DC018E7E8160E5CF1F920F920FB60F9224
:104660001124CF92DF92EF92FF920F931F932F931B
:104670003F934F935F936F937F938F939F93AF93EA
:10468000BF93EF93FF93CF93DF93CDB7DEB76C97D4
:10469000DEBFCDBF1092E9008091E80083FF25C006
:1046A00068E0CE0145960E943E0B82EF8093E800C1
:1046B0008D8987FF39C09091E80090FFFCCF982F3B
:1046C000907609F034C19E894F89588D2F89F88CD6
:1046D000911131C0803861F58091DA018093F10049
:1046E0001092F1008EEF8093E8006C960FB6F8946C
:1046F000DEBF0FBECDBFDF91CF91FF91EF91BF9194
:10470000AF919F918F917F916F915F914F913F9169
:104710002F911F910F91FF90EF90DF90CF900F900E
:104720000FBE0F901F9018959EEF9093E800C7CF93
:104730001092F100D5CF913059F48111D3CF41308F
:10474000510581F68091DA018D7F8093DA01CACF1D
:10475000933049F48111C6CF4130510519F680914B
:10476000DA018260F2CF953041F48091E80080FF59
:10477000FCCF20682093E300B5CF963009F0A9C0A4
:104780000B8D1C8D22E01092E9001092D80110923E
:10479000D701F2122EC01092D6011092D5010E94BC
:1047A0000D0B1F8299E09983FA8291E09E8390EA33
:1047B00098879AEF99872091D7013091D801275F88
:1047C0003F4F3C832B838D831092E9001092D801D8
:1047D0001092D7011093D6010093D50149E050E023
:1047E000BE016F5F7F4F80E00E94E70A0E940D0BC1
:1047F00079CF1093D6010093D5010E94F109DC0115
:1048000012960D911C910115110509F451C1D801A1
:10481000ED91FC910480F581E02DBE016B5E7F4F30
:10482000C8010995009709F03EC1F801008511857E
:10483000EACFF3E0FF120EC08F89882309F440C04D
:10484000823061F440E867E087E898E00E94B40AAB
:10485000811148CF81E28093EB0047CF813029F46A
:1048600040E86BE08BE798E0F1CF833099F70E9446
:10487000F109DC011296ED90FC908E010F5F1F4F45
:104880006801E114F10479F0D701ED91FC91068003
:10489000F781E02DB801C7010995080F111DF70137
:1048A000E084F184EECFD8011C92F6010190002043
:1048B000E9F73197BF016C197D0940E0C601C6CF09
:1048C00065E678E0FB01449150E080E80E94E70A49
:1048D00009CF973009F4BECF983021F481E080935E
:1048E000F10000CF993009F0FDCE837009F0B2CF0E
:1048F000EEE0F1E081E031E096E32191222371F0D6
:104900008093E9003093EB00DF0111972C91209305
:10491000EC009093ED008F5F873079F78EE78093FE
:10492000EA001092EA008F8980933A02DBCE8B8DE9
:104930009C8D1092E9001092D8011092D7019093AB
:10494000D6018093D501898D811192C08E899D8970
:10495000913A49F4813209F07DCF47E050E064E0BC
:1049600071E080E0B3CF913209F074CF833269F403
:104970008F89988DB0E0A0E08093000190930101B1
:10498000A0930201B0930301ADCE803269F480910F
:10499000E80082FFFCCF67E084E091E00E943E0BDC
:1049A0008BEF8093E8009ECE823209F09BCE8F89F8
:1049B00080930B01EEEFFFE7859194918B3F9C4D27
:1049C00051F1E0E0F8E08091040190910501A0919F
:1049D0000601B0910701803B9440A105B105F1F4B7
:1049E00080910B0180FD1AC0EE3F8AE0F80789F53F
:1049F00087E797E791838083809160008093D90156
:104A000088E19BE00FB6F894A895809360000FBEF4
:104A10009093600067CEEEEFFAE0D5CF8081918170
:104A20008737974709F05ECEA8958091600088612E
:104A3000809360008091D90180936000EE3F2AE06E
:104A4000F20789F08091FE0A9091FF0A918380839A
:104A500049CE808191818737980751F29093FF0A60
:104A60008093FE0AC5CF1092FF0A1092FE0A3ACE3A
:104A70000E94F109DC0112960D911C91011511059E
:104A800009F4E8CED801ED91FC910190F081E02D80
:104A9000BE016B5E7F4FC8010995811123CEF801DD
:104AA00000851185EBCF181619060CF41BCED2CE5B
:104AB000F1E0FF12BECE69E678E004CF1F920F92BC
:104AC0000FB60F9211242F933F938F939F93AF9321
:104AD000BF9380913B0190913C01A0913D01B09129
:104AE0003E0130913A0123E0230F2D3758F501960E
:104AF000A11DB11D20933A0180933B0190933C018D
:104B0000A0933D01B0933E0180913F0190914001FF
:104B1000A0914101B09142010196A11DB11D809368
:104B20003F0190934001A0934101B0934201BF9196
:104B3000AF919F918F913F912F910F900FBE0F904A
:104B40001F90189526E8230F0296A11DB11DD2CF04
:104B50001F920F920FB60F9211243F924F925F92C5
:104B60006F927F928F929F92AF92BF92CF92DF927D
:104B7000EF92FF920F931F932F933F934F935F9367
:104B80006F937F938F939F93AF93BF93EF93FF9315
:104B9000CF93DF93CDB7DEB76197DEBFCDBF009176
:104BA000D3011091D4010631110508F0B8C1F80104
:104BB000E452FA4D0C94B834F22501262C263E26F8
:104BC0005A2765276527BC27F026012717281728AD
:104BD0001728292936297429D229252A8F278F2792
:104BE000502A942A86E194E00E94D31380E00E9428
:104BF000F70E1092D20181E090E09093D40180935F
:104C0000D30186E594E00E94D313E091D201F0E055
:104C1000EE0FFF1FE65FFC4F05911491CE01019648
:104C20009E012F5E3F4FDC01A801481B590BFA0182
:104C3000EA0FFB1FE491ED932A173B07C1F760E1F0
:104C40000E94E111869524E1281B44E16FEFC80121
:104C50000E94121181E02BC10E94880F81E00E9406
:104C6000F70E1092D2011092CF0181E08093D00113
:104C700083E090E09093D4018093D3012EE34EE043
:104C800060E080E00E9442102FE045E068E082E3AF
:104C900093E00E94121123E042E164E081EF93E08F
:104CA0000E94121123E04AE16AE088E293E00E9448
:104CB000121123E042E266E082E293E00E941211C8
:104CC00023E042E366E08CE193E00E9412112FECB6
:104CD000E22E21E0F22E34E8632E31E0732E0BE356
:104CE00012E042E2542E9E012F5F3F4F69014E01B8
:104CF00031E1830E911C5CE3452ED701ED917D01DE
:104D0000F0E0EE0FFF1FEC5EFC4F8591949122E2E4
:104D1000452D6FEF0E941211D301ED913D01F0E09E
:104D2000EE0FFF1FE25FFC4FA590B490D601C501C6
:104D30008C199D09FC01EA0FFB1FE491ED938A1683
:104D40009B06C1F760E1C6010E94E111242D281BDA
:104D500048E0450D6FEFC5010E941211F701319730
:104D6000808181110DC0F801E05CFE4F9801295946
:104D70003E4F86898575868B31962E173F07C9F77A
:104D8000B0E15B0E00581F4FE2E45E12B6CF809197
:104D9000D201E82FF0E03296B6E0EE0FFF1FBA9591
:104DA000E1F78823C1F09DE28130B1F09DE38330CB
:104DB000A9F0853099F081E2E80FF11DE55CFD4F27
:104DC0003EEF891708F046CF2191DF011197232785
:104DD0002C938F5FF6CF93E182E0EECF85E1ECCFAD
:104DE0000E94880F81E00E94F70E0E940A1280E064
:104DF0000E94E40E89E090E09093D4018093D30167
:104E00008EC080E00E94970E84E00E94850E882369
:104E100019F081E08093E90790918901E92FF0E092
:104E2000A6E0F595E795AA95E1F7E153FE4F80815D
:104E30008F5F880F4091DF075091E00702C05695C1
:104E400047958A95E2F795FB992790F98091CA01D9
:104E500017E3981301C015E0F12C09E1040F402F6E
:104E600069E1812F8F0D0E941210F394F3E0FF127D
:104E7000F6CF49E369E18FEF810F0E94121049E3F9
:104E800069E183E0810F0E94121002E0010F48E106
:104E9000602F812F0E94DF0F4AE3602F812F0E9435
:104EA000DF0F81E09091E907911101C080E00E943D
:104EB000E40E35C00E940A1281E00E94E40E85E0F3
:104EC00090E09093D4018093D3010E94880F809149
:104ED000D3019091D4010697A9F46091D201862F55
:104EE000869588776770660F660F660F9091CA0186
:104EF000992331F098E3292F281B822F961B692FC5
:104F00000E940A0F8091CE0183FD06C06091CB0103
:104F10008091CC010E940A0F81E00E94F70E8091DF
:104F2000CE018F5F8093CE0161960FB6F894DEBFFD
:104F30000FBECDBFDF91CF91FF91EF91BF91AF91A8
:104F40009F918F917F916F915F914F913F912F91A1
:104F50001F910F91FF90EF90DF90CF90BF90AF9097
:104F60009F908F907F906F905F904F903F900F90A9
:104F70000FBE0F901F9018950E94880FE7ECF2E08B
:104F80002EEE32E080818F7081932E173F07D1F78C
:104F9000E7E0F3E08EE293E011928E179F07E1F7CE
:104FA000E7E4F3E02EE633E08081887F81932E17DB
:104FB0003F07D1F722E342E26CE084E10E94421015
:104FC0008091DD0785FF31C080E090E0029627E008
:104FD000289F8001299F100D11246BE073E0C80108
:104FE000855C9C4F0E94610F63E173E0C8018E5B9A
:104FF0009C4F0E94610F6BE173E0C801875B9C4F7F
:105000000E94610F63E273E0C801805B9C4F0E94C5
:10501000610F8091CE0183FD7FCF6091D1016E5FE2
:10502000660F660F660F88E175CF86E0CECFF090F1
:10503000CE01F110B5C0EBE3F2E0119234E0EB33B6
:10504000F307D9F70E940A1281E00E94E40E0E9441
:10505000880F8EE18F1508F46CC06091D201A62FE5
:10506000A770AA0FAA0FAA0F8091CD01282F277031
:10507000220F220F220F6695687786958877909188
:10508000CA01992361F098E3B92FBA1BAB2FE92F1E
:10509000E21B2E2FF92FF61B6F2F981B892FEF2D58
:1050A000F0E0EA56FC4FE491F0E0861B990B8E9FEE
:1050B000A0018F9F500D9E9F500D1124CA01809614
:1050C00056E0969587955A95E1F7680F2A1B330BA2
:1050D0002E9F40012F9F900C3E9F900C112420E2A8
:1050E000820E911C76E0969487947A95E1F7A80D4C
:1050F0002091D101822F877090E025FF57C0019742
:1051000027E0289FF001299FF00D1124CF01855C35
:105110009C4F262F277038E0639FB00111248A2E00
:10512000912C211145C0680D791D655C7D4F0E9451
:10513000610F81E00E94F70E4FE1F412F0CE0A30C9
:10514000110509F07DC08091890190E046E09595B8
:1051500087954A95E1F7FC01E153FE4F2081222318
:10516000E1F02091E3073091E4072E3AACEF3A07E3
:105170000CF45EC02630BFEF3B070CF45BC0233558
:10518000E3E03E070CF058C02B3F31050CF056C051
:1051900022E08A579E4FDC012C930E945F20BFCEF5
:1051A0004FE1F41254CF0E94BE0E51CF0596A8CF06
:1051B000422FEEEFF0E05F01022E01C0AA0C0A942C
:1051C000EAF7E8E0E21B2E2FAFEFB0E06D0102C07E
:1051D000D594C794EA95E2F7FC01DB01A07CB77097
:1051E000A80DB91DA55CBD4FBC01695F7F4FA094A0
:1051F000C094849190E0EC90EA204C01042E01C010
:10520000880C0A94EAF7E828ED92DF96EC90DF9795
:10521000EC20022E02C0959587950A94E2F78E291C
:10522000DF968C93DF973196E617F70711F781CF5A
:1052300020E0AFCF21E0ADCF24E0ABCF23E0A9CF7A
:105240000C30110509F0A9CF0E94860D8BE090E08B
:10525000D3CD0E94880F81E00E94F70E1092D201F8
:105260008EE090E09093D4018093D3012EE34EE042
:1052700060E080E00E94421080913901823070F13C
:105280002CE045E069E089EC93E00E94121136EBD6
:10529000E32E33E0F32E12E1F701859194912BE098
:1052A000412F6FEF0E941211185FB2E0EB0EF11C5C
:1052B000123391F7E091D20120E4E29FF001112432
:1052C000E554FD4F9F01255D3F4F9EEF8285892765
:1052D00082873196E217F307C9F7BCCC29E045E095
:1052E0006BE08EEB93E0D1CF8091D201882309F45B
:1052F000A4C090914401992309F49FC081502AE4ED
:1053000031E0829F3001839F700C1124C30180968D
:105310000E948C22853C09F090C0F12CE12C512C8C
:1053200031E2630E711C452C01E010E0C70123E05F
:10533000880F991F2A95E1F7DC01A657BE4F6D0132
:10534000C301840D911D0E948C22382E5601A00E9F
:10535000B11E4501B1E08B1A910882958F700E94B1
:105360005715F4018083832D8F700E945715D50146
:105370008C9343940E5F1F4F0930110509F7B4E079
:105380005B0EEFEFEE1AFE0AF0E25F12CCCF0E9446
:10539000880F81E00E94F70E80E190E09093D401A5
:1053A0008093D3010E94351186E3898B24E142E189
:1053B00064E081EF93E00E94121180E2E82EF12C6C
:1053C0000FE01AE124E1412F64E082ED93E00E94B6
:1053D0001211098326E2412F61E0CE0101960E945D
:1053E000991080914401882361F0C7010E948C22AA
:1053F000853C39F42EE0412F61E0CE0141960E94B8
:105400009910185F0F5F36EBE31A3EEFF30A123381
:10541000C9F6E091D20140E4E49FF0011124E55483
:10542000FD4F9F01295E3F4F9EEF83898927838B24
:105430003196E217F307C9F70DCCEAE8F1E01192D3
:1054400021E0EA3CF207D9F7A2CF0E94351121E012
:1054500042E16FE082EE93E00E9412112CE04AE1FB
:1054600069E082EE93E00E9412112CE042E266E0D5
:105470008CED93E00E941211E091CD0180E4E89F51
:10548000F0011124E550FD4F9F01285D3F4F9EEF35
:105490008385892783873196E217F307C9F7DACB2B
:1054A0002EE34EE160E080E00E94421020E144E003
:1054B00068E08EE094E00E9412112BE04AE069E07F
:1054C00084E094E00E94121120E140E167E08DEF5A
:1054D00093E00E94121121E146E167E086EF93E03C
:1054E0000E9412112BE042E264E081EF93E00E94FF
:1054F00012112BE04AE269E084E094E00E9412116C
:10550000E091D20190E4E99FF0011124E55CFC4FA9
:105510009F01255D3F4F9EEF8285892782873196C7
:10552000E217F307C9F796CB0E940A1293CB80E0EB
:10553000E82FF0E0982F9878A7E2B1E011F0A8E208
:10554000B1E0E55CFB4F9C9190838F3F11F08F5F42
:10555000EFCFEBE3F5E0119285E0EC37F807D9F7F0
:10556000ECE7F5E08FEF819395E0EC3DF907D9F793
:1055700080E680937B059AE290934D0590E49093AA
:105580004E059AE490936D0580936E051092DC05AC
:105590001092D7041092D8041092D4041092D5041B
:1055A0001092D60480E28093DD0710929C05109241
:1055B000BC0508959091D201923088F0E92FE695CC
:1055C000E150F0E090FF0CC0EC57FE4F23E09081DB
:1055D000882369F08FEF890F821730F48083089554
:1055E000E153FE4F24E0F3CF21502083089581E062
:1055F000890F821798F31082089580E28093CB017F
:1056000080E38093CC01E6E8F1E082E0818380834F
:105610001092460110924501109247011092CA0162
:1056200081E08093880108956F927F928F929F927C
:10563000AF92BF92CF92DF92EF92FF920F931F93A0
:10564000CF93DF93F82EE92E282F2777C22EC22F73
:10565000D0E0E4E0D595C795EA95E1F78C2E382F98
:105660003770932E032F10E0F3E0CC0FDD1FFA9577
:10567000E1F7CE01800F911FFC01E657FE4F5F015D
:105680008DED95E00E94B71BADEDB5E060E090E0D8
:1056900040E0FE2DF777DF2E681739F111962C9137
:1056A000119727772D111EC05C91252F2777C216E1
:1056B000C9F030E0F901E55CFB4FE081F0E0E55E28
:1056C000FA4F7080F501708177120CC074E0359547
:1056D00027957A95E1F7821201C091E057709512F3
:1056E00001C041E06F5F1296D7CFED2DF0E0E55C91
:1056F000FB4FA08181E0A11107C080E0E7FC04C05E
:105700008F2D881F8827881FFE01E657FE4FE00F68
:10571000F11FE0816E2F6770633010F48111982FB4
:1057200020914501309146012F5F3F4F3093460154
:105730002093450121E831E0F90182907290629056
:105740009F01638274828582F1E020363F07A1F7D2
:105750002FE531E0F90152919F015183F1E02834A6
:105760003F07C1F720E0AA2321F0B0E0A55EBA4FC1
:105770002C91209360012091D70420936101209106
:10578000D80420936201633008F06FC01092480182
:10579000882329F080914801886080934801442340
:1057A00029F080914801806280934801992329F073
:1057B00080914801806180934801809147018F5F0B
:1057C0008D3008F05CC080934701E9ECF8E09291DD
:1057D00082919383828337E0EB3EF307C1F7F09227
:1057E000EB07E092EC078F2D9E2D0E94510CE0916B
:1057F000DC0585E0E89FF0011124EC52FB4F10928C
:10580000DC05A4EDB4E001900D928A95E1F70E94C9
:1058100031208630B1F5809148018068809348013D
:1058200010928801C092D201D092CD01C657DE4FAE
:10583000C00FD11F88818093D10118821092CE01B0
:105840008AE090E09093D4018093D301DF91CF91CF
:105850001F910F91FF90EF90DF90CF90BF90AF908E
:105860009F908F907F906F900895262F2350330B39
:10587000F901EB5FFC4FE491E093480189CF8CE0A4
:10588000A2CF813021F08091DE07882349F28091F8
:1058900048018064C3CF1F93CF93DF93EC01162F91
:1058A0000E948E34181739F0612FCE01DF91CF910D
:1058B0001F910C949634DF91CF911F9108959C0114
:1058C00020523109203E334008F0FFCF0C944B2C7E
:1058D0002F923F924F925F926F927F928F929F9200
:1058E000AF92BF92CF92DF92EF92FF920F931F93EE
:1058F000CF93DF9300D01F92CDB7DEB7182F8091E2
:10590000440181110AC0111148C160E08AE691E0AA
:105910000E945F2C123009F048C18AE491E0189F80
:105920009001199F300D11243B832A83190130E225
:10593000230E311C0A811B810F5D1F4F4090DC0537
:1059400085E0489E20011124D201AC52BB4F2D01AD
:10595000580166246394712CF12CE12C4501F70168
:10596000E55CFB4F6F01F4E0F983D601EC9160E058
:10597000EE2359F0F0E0E55EFA4F8081682F6695DE
:105980006695669568708770682B6295607FF601F2
:10599000EE19FF09E60DF71DE081EE2361F0F0E05E
:1059A000E55EFA4F9081892F869586958695887059
:1059B0009770892B682BC4010E944B2CB981B15080
:1059C000B983EFEF8E1A9E0AF2E0CF0ED11CB1110F
:1059D000CCCF24E0A20EB11C30E1E30EF11C80E13B
:1059E000680E711C90E8E916F10409F0B7CFD201F6
:1059F0006C91C80180960E944B2CF2016181C80114
:105A000081960E944B2C7801F3E2EF0EF11CD2013B
:105A100014966C91C80182960E944B2C5BEEC52EA9
:105A200057E0D52E0D5F1E4FF6016081C7010E9421
:105A30004B2CC701F2E0EF0EF11CD60111966C91D0
:105A400001960E944B2CB2E0CB0ED11CE016F10661
:105A500059F76091DD07C7010E944B2C26E8A22E62
:105A600021E0B22E0A811B810B5D1E4F3FECC32E3D
:105A700031E0D32E44E8E42E41E0F42E8A809B806E
:105A8000E9ED8E1AEEEF9E0AD5016D915D01C80118
:105A90000E945F2CF60161916F01C80102960E947D
:105AA0005F2CD7016D917D01C80104960E945F2C87
:105AB0000F5F1F4F8016910639F794E8E92E91E0A9
:105AC000F92E00E611E0EA81FB81E653F0406F0118
:105AD000D8016D918D01C6018A0F9B1F0E945F2C1A
