:100000000C9412090C943A090C943A090C943A098C
:100010000C943A090C943A090C943A090C943A0954
:100020000C943A090C943A090C942B270C949A27B7
:100030000C943A090C943A090C943A090C943A0934
:100040000C943A090C943A090C943A090C943A0924
:100050000C943A090C943A090C943A090C94CC2962
:100060000C943A090C943A090C943A090C943A0904
:100070000C943A090C943A090C943A090C943A09F4
:100080000C94162A0C943A090C943A090C943A09E7
:100090000C943A090C943A090C943A090C943A09D4
:1000A0000C943A090C943A090C943A092503032D4F
:1000B0003025012600212D01312C2723012600297E
:1000C00026250127250327002A232E232A34110061
:1000D0002A232E232A3410002A232E232A340F0009
:1000E0002F01272D34242D2E2300EF0000000000C7
:1000F00000F0000000000000F10000EF0000000030
:1001000000F00000000000F100000000EF0000001F
:1001100000F000000000F1000000000000EF00000F
:1001200000F0000000F10000000000000000EF00FF
:1001300000F00000F100000000000000000000EFEF
:10014000DFF0E1F10000000000000000000000EE20
:10015000EFF0F1F2000000000000FFFFFFFFFFFFE3
:10016000FF00010101010101010000000000000E7B
:100170000F10111200000000000000000000000F2E
:100180001F102111000000000000000000000F00FF
:10019000001000001100000000000000000F00002F
:1001A0000010000000110000000000000F0000001F
:1001B00000100000000011000000000F000000000F
:1001C000001000000000001100000F0000000000FF
:1001D000001000000000000011041F02041F031F94
:1001E000150A031F051A030E191E031F041B03081B
:1001F000141C031F1408030C12120308141F030C11
:100200001A14021E050312150F031F0418030E1102
:100210000E03121F10031915120311150A03070408
:100220001F03171509030E150803011907030A1503
:100230000A0302150E0204040314081403040E0436
:10024000050A1F0A1F0A05190D0C0D1905110908C9
:100250000911050111101109050911101109050DE8
:100260001918190D030E1111031F041F031F151177
:10027000051F0204021F031E051E03011F01031FA9
:10028000110E050F100E100F03121509031F101089
:10029000031F050203111F11040E11110E0307188D
:1002A00007040F10100F040E11151D031F05010187
:1002B0000A03011502020000030000000404080400
:1002C00002FFFFFFFFFFFFFFFFFF00010203040526
:1002D00006070707070707070707060504030201C4
:1002E00000222F242501002926252A232425262320
:1002F00024252623032C252A03232B23262C262CD6
:100300002D01130E34242D2E2329270325283221D5
:1003100022232105242526232A2D25273430252490
:100320002300001040010203040552031803BF001C
:10033000B500AC00E102D800D000C800022A252197
:10034000053228222C26233229262503263430255F
:10035000242301232834302524230000687C7C7C5E
:10036000680000001400140000181C4A7E7E7C7097
:10037000204C7E377A4C20467C7E7C7E7C464364D3
:100380007D7E7D644344687A7F7A68440068544483
:1003900054680018144A72424C70204C7221724CFE
:1003A00020467C4644467C4643645D465D64434447
:1003B000685A4F5A68440000000001020305070A0A
:1003C0000C1013161A1E22262A2D303436393B3DC6
:1003D0003E3F404040401104E000F2032404302539
:1003E0002423342B252F29232730252423342D2E75
:1003F000230329252E233430252423002125012100
:10040000232A2D2E230328032C26233429252E23AB
:1004100033022521050029252E2C013033282C26D6
:10042000222D2F2624252C01342423012F002A23BA
:10043000252E2334262D00000000000000000000BF
:1004400000000000000000000000000000000000AC
:100450000050F0F0800000000000000000000000EC
:100460000000000000800000C42212CA3C0000808E
:100470006040808040000080402020C0380600009E
:100480008060000080600000C03008040402222464
:1004900018000080603826C0000000804020A06066
:1004A00000000080702040800000008070204080AC
:1004B000000000000000000000000000000000003C
:1004C000000000000000000000000000800100EAC1
:1004D000711AFF7E87838380808080000000000087
:1004E0000000102020908D838181818F90908E81DB
:1004F000808C939088848E9190888E919088848E41
:100500009190888E9190888798A0A0A0A0A09090AC
:1005100088948E8180808E91908884878A91909033
:1005200088848A959888949388848A9598889493E7
:100530008840402418000000000000000000000077
:100540000000000000000000001005421825D748F8
:10055000B77FC9F7FEBFEB7F1F0F0300000000004D
:10056000000C1201010000000040A0F058E84040DB
:10057000E04000000000000000000000000000005B
:10058000000000000000000000000000000000006B
:10059000000000000000000000000000000000005B
:1005A000000000000040E04040E858F0A04000009B
:1005B000000000000000000000000000000000003B
:1005C00000000000000000004000809002A1BC4B31
:1005D000ABBEEFBBFEFF9FF9F0C0C0800000000083
:1005E0000000000000000000000000010302000005
:1005F000000000000080000080800080008000007B
:1006000000800000800000808000008040008000AA
:1006100000C00000C00000800000C000004000805A
:100620000000804000800000400203410080400044
:1006300000400080000000002A00500500B00004C7
:1006400051200880210890224008801240010A6948
:10065000DBBAFDFFFEFFC101158904A2084413485F
:10066000A4126C813248A01A6088523144A81168E3
:10067000528134688132888016AA0896AB041AC762
:1006800028168BA41A87A80E92AD0A46B94E72D1CD
:100690002C52F10876E118D46330CC5132E4493061
:1006A000D621E894032E548B158EA51906AE510E53
:1006B00095228D1EA00B000050001400801400082D
:1006C00080020440020940060100124500806813C0
:1006D000EEFD37FFFFBFFFF8E0C318A44118A04AA2
:1006E000A800DA20886A9008E2300CE0110C500073
:1006F000850822870802AB04820906AA01068D2319
:10070000028D22078C2207C9AE73915864B1906C98
:1007100051B0D429B0C83AE0115CE01174C810752A
:10072000C810F0060D238C0B220C4B02AD0A01AE53
:100730000209A60A1186000009000228000A100218
:1007400004100904002B0008030030C02C92E91D9E
:10075000F6ABDF7FEBFFDFF77FFFEEFCFCFAA000DC
:10076000628048224008A21008972208952A118624
:1007700058052A114E8932049D22095688132E905D
:100780000B14926D8A01608A44A01241A4484095DE
:100790002248806A00D22448836014C16802D025B0
:1007A000806806398B1416A91517A8132E81182FE7
:1007B0008219244B12140000A00000500000108089
:1007C0000000200000801000802200045A0015560E
:1007D0004D15565D9F572DFFAF2BDFAE37CF6F10F6
:1007E0009661118860128870821860429850229435
:1007F0005040B5006A9020CA30856810A268148203
:10080000200C83540986290A84258B04A90A862191
:100810008D0AA10D9205288B45140AA10E022946C6
:1008200008937004897004D122885025D00228D002
:1008300002A950049160D5F08D14A1C881CFD9F1DF
:10084000AF2000080B0002020200000904000001B2
:100850000202000005240010010524010101042406
:100860000206052406000107058103100040090463
:100870000100020A0000000705020240000007050F
:1008800083024000000403090412010002EF020188
:100890004041233680000101020301417264756901
:1008A0006E6F204C4C430041726475626F79009109
:1008B000C7054792119285828ED5C6C7C0C69F5381
:1008C000C352C6C780DACB46C8D7C0DDC25885CD73
:1008D0000DC5C45204888ED857C90082D4DA40C7E7
:1008E00055CA8EC7C452C9D5D44087084A08CA839E
:1008F000D55582D55587D5040749CAC2D5D6C05427
:10090000028502858F4DD04D09CA5084C546878225
:1009100019528584C8D14E8743C84A068791C58439
:100920004DC74D448852CA99D49146C74692D5C402
:10093000C0DB4684D5DAC04FCBD5D34086C75888B4
:100940000587514A8B47CC054982925387D31912A8
:10095000C54706C9D3D0C7D2568307C9538511925C
:10096000900587C4538994CE494B8894C74706C8DD
:1009700085C64CC749CACBD5D54091488648CB04DB
:1009800049829053C653858F8FCACAD454104A9057
:100990008F4DD0CD46CACAD1D1CECE408491C68823
:1009A000514A86464B068990970F134A909412C875
:1009B000C6C7D151CBC9D5D95E9194CE87D959C973
:1009C00059CBD8D44046915005CB9052915244888F
:1009D0009017C7C7519111C74A8647CBC7D39251C9
:1009E000C6DAC2DC450BCC90934B4586538886C64D
:1009F0004849CBD352871192984A99909905475DFF
:100A0000058796C646104686D747C85190C7589264
:100A1000028587434887850447064806881A9B85D0
:100A2000484A85184207C943CA9A559BD44F8555F1
:100A3000C9D5D5C0C046858FD14682518591C45154
:100A4000C58311C4C044C5CFC54484D14607868F31
:100A5000485189C50FD0D0D9C54F888F9897C644C3
:100A60008D0386474892C642918F4D800DC0DAC3F0
:100A70004286434880DDC14685809005C74C4E8341
:100A80004EC6104E874649C71D5391988002468333
:100A90004044828D175A801BDACB4606C89B0DC294
:100AA000D4C05617DAD454854584CD46C71D8D1859
:100AB00095DE400E844646C8C653CA98408510C588
:100AC000C544C7924650CA8F951D138700C79540ED
:100AD00092C0D64894C05287C05C084B4AC79AD58A
:100AE000C4D3459C551D93D54B98C6D9D5C64084D3
:100AF000D218C5D042C65591D58D48C8C05408CA31
:100B0000955205C4D24688464B85C7C7C9C54D8492
:100B100092C69ACA5E45C546879791C64545989044
:100B200056448F51919199C5478544C6C5420504E5
:100B300046851092D14405848F909340C680D3425D
:100B4000464691908D80014685C15DC61FC6CC5B2F
:100B50001817C69BCCC6551C0046C64684C4D84D43
:100B6000C65086909245C04505C61012C84F88C62B
:100B7000C7D14EC78F1794C4C65A919DD446D3157A
:100B80004405C40647D1919DD7C4CAD75D8D44069C
:100B9000480446468692984592454B85C890C7566C
:100BA000D2C8CF49C8D2CF49889211054A859780CB
:100BB000C151C34A914F0207CACAD052C8C74F8B0E
:100BC000990B4C9091D9C7C4C65147925185D1CA4F
:100BD000C85288CACE51CBD1D308CBD1D6C0C045DC
:100BE000CC9253851351C853899151929087C75223
:100BF00049C8D21085D2C450C7C6919C53C64EC5B1
:100C00005385909098501208C9CBD9D5C44500851A
:100C10009251484793905091D04545919098130434
:100C2000869843C0D554CA98C047C0D414448E8512
:100C3000C5C451C8D754C7C4D193CE84E6454787AD
:100C4000D243C64E914E80448598809900C1464655
:100C500003C200C8C361178E5184D153C792CEC45A
:100C600051C491D0CE8CE645809A449845A4054461
:100C7000A644054905C7A45446DC8E5740878E4FCD
:100C8000028446854E864F87C4D18ECE1B408FCEC0
:100C900044C019CE55C94FCBC753028491C7518266
:100CA000C65486C7D4C6D1CE67C7C6478650074A42
:100CB0008490C6D3DBC9DE5993C64991C64F0586D9
:100CC000C6D14BC7C68FC5CF9AD35B0ECF4E90C54A
:100CD000CE4E87978E450F90C5D28B40CE40CC49E3
:100CE000C44686C493CD44C5D04D488711C89147AA
:100CF000D58F9BC5D04BD3C55150861011C7929547
:100D0000488F0488D14EC9209156C7D6D0C0D74C41
:100D100048CB4F899595CF4E0FD00EC58D4FC4CF80
:100D2000C65A8F0FD087C7C7D05148908F9795006C
:100D3000458DD1C5409080CF93D0CE54C7D1D640F9
:100D4000C7969840C5C0C043C34092408098944025
:100D50009180959243C54390C642C2D45AC68257E9
:100D60004313C3805344D7C04083480647969680B8
:100D7000D1C54584D8C3D344C591C5455DD18FC580
:100D800048C697C545558D974A91985746C8D75834
:100D900084D146C7C6D197A4DD44D05B52908D174D
:100DA000CDD8578EC6D3CF8DD4C551C7C6D44DC765
:100DB000D096C7CF4EC6C74E8616C7C7D1D04E49AC
:100DC00087C8109ACF6844C996D0C544109CC061AA
:100DD00087C8C64FC894914DC747CF935787C84F10
:100DE0004B8890471986C7D1D253C7C78F97C41174
:100DF00002C5C0D4C15191A2C6CF94634CC5D0C521
:100E0000C5D04DC6CFCFD4D2CC419094C7450F9119
:100E1000C75000C513C7C65287C5C4CD4EC646CC01
:100E2000C7938F04C660914644C60F91D1D656C869
:100E3000D1C5568B12875189CAC6D2C649CC91C733
:100E4000CBC4D65149CC128713518913C5C4C6C827
:100E5000454C000000000000000000000000000001
:100E60000000000000000000000000000000000082
:100E7000000000000200000000000001000000006F
:100E8000000002000002000000000001000000005D
:100E9000000200000000020000000001000000004D
:100EA000020000000000000200000001000000023B
:100EB000000000000000000002000001000002002D
:100EC0000000000000000000000204010402000015
:100ED00000000000000000000004201020040000BA
:100EE00000000000010101010101080008010101E9
:100EF00001010100000000000004804080040000A7
:100F000000000000000000000002040104020000D4
:100F100000000000000000000200000100000200CC
:100F200000000000000000020000000100000002BC
:100F300000000000000002000000000100000000AE
:100F4000020000000002000000000001000000009C
:100F5000000200000200000000000001000000008C
:100F6000000002EFF10F11F010FF01DFE11F21EE91
:100F70000EF21200208004A259FBF80004040C0DAC
:100F80001424FDFFFFFFBDFFFFBFFFFFFFFFFFFFBB
:100F9000FFFFFFFFFFFFFFFFFFFFFFFFFFFFFFFF61
:100FA000FFFFFFFFFFFFFFFFFFFFFFFFFFFFFFFF51
:100FB000FFFFFFFFFFFFFFFFFFFFFFFFFFFFFFFF41
:100FC000FFFFFFFFFFFFFFFFFFFFFFFFFFFFFFFF31
:100FD000FFFFFFFFFFFFFFFFFFFFFFFFFFFFFFFF21
:100FE000FFFFFFFFFFFFFFFFFFFFFFFFFFFFFFFF11
:100FF000FFFFFEFFFFFFDEFFFFDF00010103030530
:101000000900EFF0F1FF010F1011000000000000D7
:101010000000DC00DB00D000CF0086008F008700DE
:101020008500540058005500560042004700480013
:101030004F003E0045004500420041004E004C007C
:101040003A000000000000000000BE00EB00F900C4
:101050000501F5000A0120011D01020123012F01F4
:101060003201110123013001330108011C01260165
:101070002901FD0013011A012201FA0001010F01EB
:101080001301EA00FD00FB0000010C0110010C013E
:1010900014011101270124011F011C012A012E0145
:1010A0002C011F012601310138011B0126012D01F0
:1010B00036011D0127013001300115012B012401EA
:1010C00024010B01170110011701E001E201E90100
:1010D000EE01E101E601EE01EA01D601E001E501E0
:1010E000E401D301D601E501E101C901D401DB012D
:1010F000DB01C101CF01D401D401BA01CB01D4017C
:10110000D601C701CB01D901DD0164037503890351
:101110008903700371038E038E037C0382038F03A4
:101120009703760378038903880370037A037F03A8
:1011300080036E0376037E037A03580366037D0300
:1011400077035F035D0364037703DEFFF8FFF2FFBD
:10115000EBFF00000D00110009000300190018004A
:101160000900F5FF0E0012000E00EBFFFEFF0B0062
:101170000C00F0FF010007000800F0FFFFFFFFFF79
:10118000FDFFE0FFF8FFECFFEDFF0C0011000D008C
:101190000E0007000A000A000A001B0016000E00DD
:1011A0000F001E001200090003001A0017000D00B6
:1011B00007000400FFFF040009000F0006000700FD
:1011C0003500A0FFD5FFF7FFFBFF070005000D006E
:1011D0000A000D0009000A0003000000FFFF0100E3
:1011E00001005FFFC9FFDFFFEEFFF5FFF9FFFEFF24
:1011F000FEFF030007000A001000140020001E007C
:101200002B0011000700E7FF0400190013000D0078
:10121000070004000300F8FFFAFFF3FFF2FFF2FFFC
:10122000EEFF813111241FBECFEFDAE0DEBFCDBF6C
:1012300011E0A0E0B1E0EAEBFFE602C005900D92FC
:10124000A033B107D9F728E0A0E3B1E001C01D92B7
:10125000A73DB207E1F719E0C2E1D9E004C0219748
:10126000FE010E94D537C131D107C9F70E949631DE
:101270000C94DB370C9400008F929F92BF92CF9218
:10128000DF92EF92FF920F931F93CF93DF93EC01C6
:10129000DC0102E815E091E09617D8F51296BC90B3
:1012A000129713967C911397F80181918F01292F42
:1012B000422F50E0FA01E058FA4F7F01FA01EE0F99
:1012C000FF1F4F018C0E9D1E4F575A4FF701308163
:1012D000381784F46401F2E0CF1AD108F601C08017
:1012E000D180F401D182C082F7013081FA013083CC
:1012F0002150F1F630E0F901EE0FFF1FEC0FFD1F5A
:10130000B08271832F573A4FF90180839F5F129605
:10131000C3CFDF91CF911F910F91FF90EF90DF909E
:10132000CF90BF909F908F900895EFE3F2E0A0E000
:10133000B4E000800EBC8111012C1197A0FDFDCFFF
:101340000192B9F70DB4089592E0960F4AE0460F66
:101350004917E9F0292F30E0F901E058FA4F5081A0
:1013600057FF13C0215E3A4F462F4295469546954A
:1013700043706F5F640FD9016C938083E82FF0E0B6
:10138000E15CFB4F9083892F08959F5FE1CF80E060
:101390000895E62FF0E0EE5CFA4F90819150908333
:1013A000292F30E0F901E15EFA4F460F40832058C3
:1013B0003A4FF9018083E82FF0E0E15CFB4F908326
:1013C000892F08956F927F928F929F92AF92BF92D2
:1013D000CF92DF92EF92FF920F931F93CF93DF9301
:1013E000CDB7DEB7C054D1090FB6F894DEBF0FBE3B
:1013F000CDBFE091E40545E0E49FF0011124E852FF
:10140000FB4FE48054E080E05E1508F0C1C0FE01AF
:101410003196DF01BE016F5B7F4F1192E617F70730
:10142000E1F730E020E0F12C80E055E0C52E922F6E
:10143000D22E2E150CF064C04091E40524170CF058
:1014400092C050E0421B530BC49EF001C59EF00DAC
:101450001124E852FB4FB080E1818E2E8B18F80CDE
:10146000F0E0AF01415C5B4F3A01FA019080492DF9
:1014700050E08A01005211090A0F1B1FF801A080D9
:10148000A80CA0820B2D10E0015C1B4FF80190828C
:10149000F301108240585A4FFA01B082F1106DC02A
:1014A0008D014FE354E0F801B1908F01BB20B9F0FA
:1014B000FA01EF59FE4FE081EB0DE7FD5CC0F0E073
:1014C000E15CFB4FE081EE2309F455C0F0E0E15E02
:1014D000FA4FB080FA01F395E081BE124CC04F5F25
:1014E0005F4F60177107F9F641E090FF46C0442353
:1014F00009F443C08F5F813009F43FC091E09D0D36
:10150000915050E040E0692F092E000C770B35E038
:10151000F32E97FD3DC02091E40592178CF530E045
:10152000FB01E41BF50B2E1B3F0BF29EF001F39E1B
:10153000F00D1124E852FB4F20813181E22FF0E0C1
:10154000E15CFB4F2081032F10E0015C1B4FD801B1
:101550002C931082E22FF0E0E058FA4F30834F5F77
:101560005F4F9150D6CFE22FE41BF0E0EE0FFF1F4C
:10157000E950F84F70CF40E0B8CF2F5F3F4F57CFC3
:10158000E92FE21BF0E0EE0FFF1FE950F84FD4CF38
:10159000C05CDF4F0FB6F894DEBF0FBECDBFDF914A
:1015A000CF911F910F91FF90EF90DF90CF90BF9060
:1015B000AF909F908F907F906F900895E0E6E8271E
:1015C000F0E0E058FA4F9081911115C0282F30E0DB
:1015D000F901E058FA4F4081442331F192E0980F2D
:1015E000865F891751F0E92FF0E0E058FA4F5081FB
:1015F0009F5F57FDF6CF80E008954530A8F0463054
:10160000D1F72F5C3A4FF901208180E0921799F3CE
:10161000E92FF0E0E058FA4F308137FD03C0811127
:10162000EBCF81E09F5FF2CF81E0089580912E01A2
:101630000E94DE0A811104C080912D010C94DE0A03
:101640000895DF92EF92FF920F931F93CF93DF9352
:10165000E091F20730E63E273093F207682F677774
:10166000592F5777A52FB0E0A15CBB4F4C91C0918B
:10167000E4052FEF2C0F2093E40505E0C09FE00167
:101680001124C852DB4F2A81C22FD0E0782F707806
:10169000F92FF8787F2B09F448C097FF62C0842F98
:1016A00090E08C01015E1A4FF8017081E72FE7701E
:1016B000F0E0E650F04FD490E32EF12CF701E05823
:1016C000FA4F70817F5F7D197083F8011082805816
:1016D0009A4F3FEFFC0130838091F20790E0FC01CC
:1016E000EF5CFA4F3081FC014317A0F5EF5CFA4F35
:1016F000832F815080838091F20792E0980F3AE027
:10170000380F391791F0092F0052110B015C1A4F55
:10171000F8017081711123C031E0380F82958695F0
:1017200086958370830F8083492F222389F1C15EC0
:10173000DA4FE881E770F0E0E650F04FE491C091B5
:10174000F20780E6C827D0E0C058DA4F8881E80F5A
:10175000E8831EC0EE5CFA4F80818F5FCBCF9F5F26
:10176000D0CF8E0100581A4F93FF3AC0561740F55C
:101770008CEF860FE82FF0E0E15CFB4F2083EFEF6A
:10178000E60FF0E0E15CFB4F1082E801888320E087
:10179000E62FF0E0E15CFB4F4083E42FF0E0E058FF
:1017A000FA4F60832C93E22FF0E0E058FA4F508319
:1017B000DF91CF911F910F91FF90EF90DF900895EF
:1017C00083E0860FE82FF0E0E15CFB4F2083E1E04F
:1017D000E60FF0E0E15CFB4F1082F8018083D7CF89
:1017E00087FFA3CF80E3850F831BC82FD0E0C15CA8
:1017F000DB4F2883E8018883F0E0E058FA4F8081CE
:101800008F5FECCF80E0E82FF0E0982F9878A7E288
:10181000B1E011F0A8E2B1E0E15CFB4F9C91908354
:101820008F3F11F08F5FEFCFEFE3F5E0119285E08E
:10183000E038F807D9F7E0E8F5E08FEF819395E01D
:10184000E03EF907D9F780E680937F059AE290930E
:10185000510590E4909352059AE49093710580931A
:1018600072051092E4051092DB041092DC041092D1
:10187000D8041092D9041092DA0480E28093F2071F
:101880001092A0051092C00508954F925F926F923A
:101890007F928F929F92AF92BF92CF92DF92EF9200
:1018A000FF920F931F93CF93DF930E94020C81E06E
:1018B00090E09093F6078093F5071092F40710924A
:1018C000F307C0E610912E01D0912D01612F8C2FCE
:1018D0000E94A4096D2F80EB8C0F0E94A409CF5F9A
:1018E000C836A1F70FE314E0C0E0D12C50902E01D0
:1018F00090902A01C0902B01609029017C2C892CAA
:10190000D0912D01492D6D2F8C2F0E94C9098D2F4B
:1019100090E09C012F5C3A4F5901F901208181E050
:10192000820F808383E0482E4D0E822F90E0FC01D1
:10193000E15EFA4F408280589A4F31E03C0FFC0143
:101940003083F80121834C2D6D2F82E08C0F0E9493
:10195000C909462D6D2F83E08C0F0E94C90921E033
:101960002D0F822F90E0FC01E15EFA4F37E03D0F32
:10197000308380589A4F34E03C0FFC013083F801EB
:101980002483472D6D2F85E08C0F0E94C909F50136
:10199000208181E0820F8083822F90E0FC01E15E54
:1019A000FA4F408280589A4F36E03C0FFC0130835A
:1019B000F8012683482D6D2F87E08C0F0E94C909FE
:1019C000C05900591F4FF1E0DF1222C087E2809317
:1019D000C0058093A005E091E40525E0E29FF001B9
:1019E0001124E852FB4F83E6838384E08183DF91F7
:1019F000CF911F910F91FF90EF90DF90CF90BF900C
:101A0000AF909F908F907F906F905F904F900895D0
:101A1000DD24D394D52D76CF482F862F642F607682
:101A200047704330D9F020F4413078F480E00895D5
:101A30004730B8F14730D1F791E0960F292F30E0C9
:101A4000F901E15EFA4F695F20C0E62FF0E0E0584F
:101A5000FA4F90819F5F90830C94A409262F30E069
:101A6000F901E058FA4F90819D5F90832E50310923
:101A7000F901E15CFA4F908141E0490F4083292F41
:101A800030E0F901E15EFA4F6D5F608320583A4F14
:101A9000F9018083E82FF0E0E15CFB4F9083892F10
:101AA0000895E42FF0E0E650F04FE491A62FB0E067
:101AB000A058BA4F9C91E90FEC930C94C909962F4A
:101AC000282F22952F70362F32953F70321337C052
:101AD000242F861708F58F5FE82FF0E0E15CFB4FBD
:101AE00090819923C1F368132AC02F5FE22FF0E0A1
:101AF000E15CFB4FE081EE23C1F38091F2078E237E
:101B0000F1F4F0E0E15EFA4FE081E770F0E0ED58CB
:101B1000F04F8081817008958150E82FF0E0E15C02
:101B2000FB4F20812223C1F3841309C09150E92F78
:101B3000F0E0E15CFB4FE081EE23C1F3DECF80E01B
:101B40000895FC0180913E02882311F13FB7F8947B
:101B500082E08093E9002091F200822F90E0181635
:101B6000190614F481E090E0882339F0289844E6BF
:101B700040933D024091F1004083222339F02091AF
:101B8000F200211103C02BE62093E8003FBF089527
:101B90008FEF9FEF08952FB7F89483E08093E900CB
:101BA0009091E800892F807295FF04C09091F20017
:101BB00080E4891B2FBF08958091350281110DC0EB
:101BC00082E08093310284E08093320210923402EA
:101BD0001092330281E08093350281E392E0089510
:101BE000CF93DF931F92CDB7DEB76983DC01ED9110
:101BF000FC910280F381E02D41E050E0BE016F5F77
:101C00007F4F09950F90DF91CF91089583E08093E6
:101C1000E9008091F200882319F08AE38093E800BC
:101C200008950E94CB0D90E00895CF93DF931F920B
:101C3000CDB7DEB7FC018485958597FD08C02FEFF1
:101C40003FEF358724870F90DF91CF910895CE0124
:101C500001960E94A10D019719F4898190E0F3CFBC
:101C60008FEF9FEFF0CF0F931F93CF93DF931F92D0
:101C7000CDB7DEB78C01FC018485958597FF0BC03D
:101C8000CE0101960E94A10D019771F4898190E027
:101C9000F80195878487F801848595850F90DF91F9
:101CA000CF911F910F9108958FEF9FEFF1CFFC011E
:101CB0008485958597FD0BC09FB7F89482E080934B
:101CC000E9008091F2009FBF90E0019608959FB7D0
:101CD000F89482E08093E9008091F2009FBF90E049
:101CE00008954091DB015091DC012091D9013091A0
:101CF000DA0142175307B4F49091E8009570E1F3CC
:101D00009091E80092FD19C08093F1008091DB0171
:101D10009091DC0101968F739927892B19F48EEF2E
:101D20008093E8008091DB019091DC010196909313
:101D3000DC018093DB0181E0089580E00895EF925B
:101D4000FF920F931F93CF93DF93F82E192FE62E58
:101D5000042F81E0860F880F0E94710E83E00E949D
:101D6000710ECF2DD12FEC0EFD2EF11CCE15DF05FF
:101D7000B9F007FF13C0FE0184910E94710E182F65
:101D800080E00E94710E812321968111EFCFDF91B7
:101D9000CF911F910F91FF90EF9008958881EDCF23
:101DA00081E0F5CFDF92EF92FF920F931F93CF93D5
:101DB000DF93D82E8A01EB017B01E40EF51ECE15D0
:101DC000DF0559F0D7FE12C0FE0184910E94710E0A
:101DD00021968111F4CF0FEF1FEFC801DF91CF9152
:101DE0001F910F91FF90EF90DF9008958881EECFC3
:101DF0000F931F93CF93DF931F92CDB7DEB782E08F
:101E0000898342E450E063E478E080E80E94D20EE7
:101E10000E94DC0DDC0112960D911C91011511053B
:101E200089F0D801ED91FC910280F381E02DBE0193
:101E30006F5F7F4FC801099597FD04C0F8010085C9
:101E40001185ECCF89810F90DF91CF911F910F9178
:101E50000895615030F02091F100FC01208301963B
:101E6000F8CF289884E680933D0208953FB7F89410
:101E700080913F0190914001A0914101B0914201B8
:101E800026B5A89B05C02F3F19F00196A11DB11DD5
:101E90003FBFBA2FA92F982F8827BC01CD01620F11
:101EA000711D811D911D42E0660F771F881F991FCC
:101EB0004A95D1F708958F929F92AF92BF92CF9299
:101EC000DF92EF92FF926B017C010E94360F4B0173
:101ED0005C01C114D104E104F104B9F00E94360F91
:101EE000681979098A099B09683E73408105910543
:101EF00080F321E0C21AD108E108F10888EE880ECB
:101F000083E0981EA11CB11CE4CFFF90EF90DF90FE
:101F1000CF90BF90AF909F908F90089565E070E054
:101F200080E090E00C945B0F8F929F92AF92BF92F3
:101F3000CF92DF92EF92FF920F931F93CF93DF9395
:101F40006C017B018A0180910B01882309F45CC03C
:101F500080913E02882309F457C08091E00180FF00
:101F600005C08091E00082608093E000E801B12C20
:101F70008AEFA82E93E0892E2AE3922E209711F45F
:101F8000BB20D9F10E94CB0D81110AC0AA94AA20CE
:101F9000D9F161E070E080E090E00E945B0FEECF4D
:101FA0008C171D0611F00CF08C2F9FB7F8948092BF
:101FB000E9002091E80025FD02C09FBFDFCF282F58
:101FC00030E0C21BD30BF701815020F041914093C8
:101FD000F100FACFE20EF31EBB2021F09092E80050
:101FE000B12CEBCF8091E80085FDE7CF9092E8001F
:101FF000BB24B394209709F3F3CF5D9884E68093D4
:10200000DF01101611063CF081E090E0F6019383A9
:10201000828310E000E0C801DF91CF911F910F9102
:10202000FF90EF90DF90CF90BF90AF909F908F90F8
:1020300008958EBD00000DB407FEFDCF08955C9895
:1020400008955C9A089590E1699FB001112480FD84
:1020500003C0719561957109CB010895282F30E077
:1020600083FB882780F996E0359527959A95E1F7C7
:102070002270822B8D5F08958F929F92AF92BF92B4
:10208000CF92DF92EF92FF920F931F93CF93DF9344
:10209000A091E40525E0A29FF0011124E852FB4F36
:1020A000AF5FA093E405A29FD0011124A852BB4FBB
:1020B000238113962C931397248114962C931497B1
:1020C0008C9311969C931197382F392B387899F46B
:1020D000E82FF0E0E15CFB4F4091F2073EEF341B4C
:1020E0004081340F383038F0E92FF0E0E15CFB4FED
:1020F00030812F5F311120E014962C931497382FE4
:102100003777292F2777D22E432F50E08A01015CA1
:102110001B4FF80120816D2D70E0FB01E15CFB4F4E
:102120007F01C080CC2DD0E0CC20A1F0FE01E15E8B
:10213000FA4FE081E770F0E0E650F04F9490A09005
:10214000F207F0E6AF26B12CF501E058FA4F808097
:10215000891880821296CC9212974E57504FFA01EE
:102160004491FB01EE57F04FE491E42313964C9118
:102170001397E4231396EC931397592F5878482F0D
:102180004078452BA1F197FF61C0A22EB12C0E948F
:102190002E10F501E15CFB4FDF01A052BF4F1C92F6
:1021A000EF5BFE4F9FEF90834091F207A42FB0E0CA
:1021B000833009F43CC0AE5CBA4FEC912FEF2E0F88
:1021C0002C93E22FF0E0E15EFA4F9091F207980F26
:1021D0009083E82FF0E0E650F04FE491A091F207F1
:1021E000B0E0A058BA4F8C918150E80FEC93F70102
:1021F0002083F8011082E22FF0E0E058FA4FD082FD
:10220000C058DA4F8FEF88838091F20790E68927D4
:102210008093F207DF91CF911F910F91FF90EF9084
:10222000DF90CF90BF90AF909F908F900895FD0169
:10223000EF5CFA4F2081922F9F5F9083E22FF0E0B6
:10224000E15EFA4F9091F2079D5FC2CF93FF2AC0E3
:10225000D316D8F4ECEFE30FF0E0BF01615C7B4FE5
:10226000FB01408112964C9312973150832F90E0DE
:10227000815C9B4FFC014083FB0110821296EC9124
:10228000F0E0E058FA4F3083B2CFE3E0E30FF0E044
:10229000BF01615C7B4FFB01408112964C9312970A
:1022A0003F5FE4CF87FFA3CF4091F2078D2D841BC2
:1022B000805D90E0815C9B4FFC01308112963C93E5
:1022C0001082A32FB0E0A058BA4F8FEF8C9380E616
:1022D000E42FE827F0E0E058FA4F808181508083B6
:1022E00086CF2091380130E020953095409144010F
:1022F00050E02423352390E02823392381E0232B49
:1023000009F480E008959FB19095907F669B986056
:102310001C9B9460209144019227E0E3F1E031E0BE
:1023200060E050E0492F432399F040814F5F481708
:1023300060F44083330F6F5F3196683099F72093D4
:10234000380125272093440108951082532BF2CFA2
:102350001082F0CFCF93DF9388E491E04FE354E015
:10236000DA0130E020E0ED91EE23B9F0F0E0E15E3B
:10237000FA4FEC01C20FD31F608168832F5F3F4F7C
:102380002830310581F70896405F5F4F21E088389B
:10239000920731F7DF91CF910895ECE0F1E0E9CFBA
:1023A000CF93C82F0E941F1081E20E94191080E471
:1023B0000E9419108FE70E9419100E9421108C2F83
:1023C000CF910C949509CF93C82F0E941F1081E2E2
:1023D0000E94191080E00E9419108FE30E941910CA
:1023E0000E9421108C2FCF910C949509DB01FC01E8
:1023F00024912C933196E4911196EC931197FC0162
:102400003296E4911296EC931297FC013396E49184
:102410001396EC931397FC013496E4911496EC9385
:102420001497FC013596E4911596EC931597069652
:10243000FC01849116968C930895CF92DF92EF92CF
:10244000FF920F931F93CF93DF9387E0E82E0FE364
:1024500012E097E0D92ECD2CCE18E801F12C809116
:1024600088018823A1F1ED2DEF198E2D28E0829FA0
:10247000C0011124E80FF92FF11DE85BFE4F208108
:10248000222351F1822F877090E025FF23C001970E
:10249000D89E9001D99E300D1124C901855A9C4FB8
:1024A000BE010E94F6112896F39488E0F812D7CF67
:1024B000005C1F4FEA942FEFE212CDCFDF91CF9156
:1024C0001F910F91FF90EF90DF90CF9008958C2D8A
:1024D000EF2DCCCF0596DCCF8C2D8F0D80FDE3CF7B
:1024E000BE0182E693E0DDCF98E0899FF0011124E0
:1024F000E07CF770E40FF11DE15CFD4F982F9770C1
:102500002FEF30E001C0220F9A95EAF79081922BCD
:102510009083E05CFF4F887F885F70E06F5F7F4F44
:102520009FEF885F8617170609F024F49083E05C1C
:10253000FF4FF7CF6770772781E090E001C0880FE9
:102540006A95EAF781509081892B80830895282F1E
:10255000277091E001C0990F2A95EAF728E0829F41
:10256000F0011124E07CF770E60FF11DE15CFD4FF6
:10257000461738F08191DF011197892B8C936F5F9B
:10258000F7CF089598E0899FF0011124E07CF7705F
:10259000E60FF11DE15CFD4F877021E030E001C0E6
:1025A000220F8A95EAF78081822B80830895CF924B
:1025B000DF92EF92FF920F931F93CF93DF93D82F69
:1025C000062FC42F122FFF24FA94F20EEE24E39468
:1025D000E60E4F2D6E2D0E94A7124F2D6E2D8C2FC3
:1025E0000E94A712DD24DA94DC0ECC24C394CD0E15
:1025F000402F6D2D8C2D0E947412412F6D2D8C2D2E
:102600000E9474120E5F602F8C2D0E94C212125015
:10261000612F8C2D0E94C212602F8D2D0E94C2123C
:10262000612F8D2D0E94C212DE5F6E2D8D2F0E94B4
:10263000C2126F2D8D2F0E94C212C2506E2D8C2F90
:102640000E94C2126F2D8C2FDF91CF911F910F919D
:10265000FF90EF90DF90CF900C94C212FF920F93F7
:102660001F93CF93DF93182F062FF42ED0E0C0E0F6
:10267000FE01EF53FD4F8491810FFE013896EF71FB
:10268000FF27EF53FD4F64918F3360F4600F6F337A
:1026900048F4F11005C09091430196959C0F92FD6E
:1026A0000E94C2122196C032D10511F7DF91CF915D
:1026B0001F910F91FF900895AF92BF92CF92DF923A
:1026C000EF92FF920F931F93CF93DF9338E0439FD6
:1026D000F0011124E07CF7702E0F3F2F311D215C9B
:1026E0003D4F4770042FEFE1F0E0DF01042E01C001
:1026F000AA0F0A94EAF758E0541BC52F02C0F595BB
:10270000E7955A95E2F77C01BA2EB0949E2F9095EA
:10271000662309F43FC0F70141917F01442309F486
:1027200039C089EDC82E81E0D82E4150F60114162B
:1027300034F4A491B0E01196CA0EDB1EF6CF74916A
:10274000A22ED90131968A2F8A19871740F0472F78
:1027500050E04F5F5F4F240F351F6150D9CF449138
:1027600050E08C918B216A01002E01C0CC0C0A94A0
:10277000EAF78C298D93DF968C91DF9789230C2EB5
:1027800002C0559547950A94E2F7482BDF964C9383
:10279000DF97D8CFDF91CF911F910F91FF90EF90EE
:1027A000DF90CF90BF90AF900895CF93DF93CDB7D8
:1027B000DEB760970FB6F894DEBF0FBECDBF6131B4
:1027C00008F060E1FC01CE010196DC0134913D93FB
:1027D00031963A2F381B3617C8F30E945C13609667
:1027E0000FB6F894DEBF0FBECDBFDF91CF91089535
:1027F0002EE34EE060E080E00E94D7128091D1018C
:10280000811107C082EF93E02CE045E069E00C9471
:10281000D51388E193E0F8CFAF92BF92CF92DF92C9
:10282000EF92FF920F931F93CF93DF9300D000D0CE
:10283000CDB7DEB7F62E082F10E046E015950795C8
:102840004A95E1F7D02E4CE0460F2EE360E08F2D45
:102850000E94D712C09045018091D7019091D80174
:10286000459741F10C1126C092E0A92EAF0C23E050
:10287000E22E3AE0B32EBF0C6E2D8A2D0E94C212BA
:102880006E2D8B2D0E94C212E394E3948DE3E81227
:10289000F3CF83E0E82EBE2CBF0C62E08B2D0E94AC
:1028A000C2126CE38B2D0E94C212E394E394EBE01E
:1028B000EE12F1CFF4E0FF0E02571E4FF8018281B5
:1028C000882309F43FC08081845E8C8324E04F2DEF
:1028D00061E0CE0104960E945C138AE289838EE255
:1028E0008A83F8018281825F8B832BE04F2D63E026
:1028F000CE0101960E945C13DC100AC0F8018281AF
:10290000882331F08091D7019091D801089759F030
:102910008CE393E0D11002C082E493E023E24F2DD8
:1029200065E00E94D5130F900F900F900F90DF91EC
:10293000CF911F910F91FF90EF90DF90CF90BF90BC
:10294000AF90089524E04F2D65E081EE92E00E9463
:10295000D513D2CFDC019C91992319F1E9EDF1E077
:10296000915098F41196952F6150D9F08D9188234C
:10297000C1F0E9EDF1E0815080F04491242F30E086
:102980002F5F3F4FE20FF31FF6CF5491252F30E01A
:102990002F5F3F4FE20FF31FE3CF81E0840F980FCB
:1029A000E3CF892F08952F923F924F925F926F92BB
:1029B0007F928F929F92AF92BF92CF92DF92EF92CF
:1029C000FF920F931F93CF93DF93CDB7DEB7289776
:1029D0000FB6F894DEBF0FBECDBF1091880160E046
:1029E000111101C062E380912E010E940C1462E378
:1029F000111101C060E080912D010E940C14A09083
:102A0000F307B090F4073FEFA31AB30A6501D69419
:102A1000C79446E0C416D10408F054C086E090E0A4
:102A20008C199D09982F990F990F891B880F9CE28B
:102A3000592E580E312CBEE02B2E8DE0851508F056
:102A4000BAC0E32CF12C6090F3077090F407E61401
:102A5000F70408F0B0C0F701E257FE4F42A4F701B7
:102A6000EE0FFF1FE950F84F8081918119821A8281
:102A70001B821C821D821E821F821886292F2770AE
:102A800093FF2CC0298298E19A832B82243010F482
:102A90009C832D82E62467E0CE010196E0FE71C0A2
:102AA0000E94AA1486958D3008F08CE02AE1281B3C
:102AB000452D67E0CE0101960E945C13FAEF5F0E90
:102AC0003394BBCF8091D7019091D8010CE2502E66
:102AD000459709F0AFCF16E2512EACCF342D3770A9
:102AE0008E010F5F1F4F332321F039838E010E5F5C
:102AF0001F4F44FE07C0382F37703A5FD8013C9310
:102B00000F5F1F4F45FE0AC0382F377732953F7051
:102B1000B6E1B31BF801B0830F5F1F4F43FE05C042
:102B2000E9E1D801EC930F5F1F4F2A5FD8012C9386
:102B3000292F277722952F70B6E1B21BF801B183B8
:102B4000480197FD09C0F2E08F0E911C46FE13C0AC
:102B50003AE1F40130839ECF33E0830E911C0E9452
:102B60002E108350990BFC01EB5DFC4FE491D801D2
:102B70001296EC93EBCF47FE8DCFEBE1D401EC93B3
:102B800089CF0E94AA14482F50E09A012F5F3F4F2F
:102B90003595279594E3921B292F490F511D4134F8
:102BA000510514F020E4281B452D67E0CE01019665
:102BB0000E945C1385CF8090D7019090D801A5E149
:102BC0008A169104E9F410913901163041F420E09D
:102BD0004CE269E08FE093E00E94D51311C01230FF
:102BE00078F020E04CE265E08AE093E00E94D513A3
:102BF000133009F46CC008F059C0123009F461C0F8
:102C00008091F3079091F407892B09F480C02AE0A2
:102C100030E0C601B9010E94C1375EE0F52EF80E22
:102C2000C50164E170E00E94C137CB01B9010E9487
:102C3000C1370EE0080FC50168EC70E00E94C13793
:102C40007EE0E72EE60EB6E0CB16D10408F04BC0CE
:102C500046E050E04C195D09842F880F880F142F2F
:102C6000181B110F145D45E3D42E1E3008F44FC01D
:102C7000E9820A83FB82FEE0EF1204C0D9820E30A3
:102C800009F4DA8220E0412F63E0CE0101960E9430
:102C90005C133EE0F31233C00E3069F5E31689F1A0
:102CA000EA9437E1F32E07E11650DFCF1430A9F094
:102CB000153009F0A5CF26E14CE269E087EE92E0FD
:102CC0008BCF26E14CE268E082E093E085CF26E1FD
:102CD0004CE26AE088EF92E07FCF26E14CE268E0C8
:102CE00080EF92E079CF1CE2E5E18E16910409F0C5
:102CF000BACF16E2B8CF015027E1F22ED5CFFA9421
:102D0000D3CF87E1F82E07E197E1E92ECDCF2896C2
:102D10000FB6F894DEBF0FBECDBFDF91CF911F91EC
:102D20000F91FF90EF90DF90CF90BF90AF909F906A
:102D30008F907F906F905F904F903F902F9008956D
:102D400028E04FE352E0DA01BC01605C7F4FFC01F8
:102D500034913D933196E617F707D1F7405C5F4F0A
:102D6000215080589F4F2111EECF08950F931F934C
:102D7000CF938C01FC0180819181FC01E255F74FDA
:102D8000C4910196F80191838083C7FF05C0C801F3
:102D90000E94B6168111FBCFC6FBCC27C0F981E09B
:102DA0008C27CF911F910F910895DC012D913C91BB
:102DB00011971296EC91E20FF32FF11DED50FF4F9A
:102DC00080810895AF92BF92CF92DF92EF92FF92EF
:102DD0000F931F93CF93DF9300D01F92CDB7DEB731
:102DE000E0E6C82ECE26AC2DB0E0A058BA4F9C919C
:102DF000911130C08B01E82E282F30E0F901E05806
:102E0000FA4FF080F11018C06091F1078091E4054D
:102E10000E942310F8019183808381E00F900F902E
:102E20000F90DF91CF911F910F91FF90EF90DF9066
:102E3000CF90BF90AF90089592E0980F8AE08E0DEA
:102E4000891751F0E92FF0E0E058FA4F40819F5F79
:102E500047FDF6CF80E0E2CFF3E0FF15A8F694E05F
:102E6000F916C1F32F5C3A4FF9019081D12C9817D4
:102E700049F0E82FF0E0E058FA4F208127FFD39483
:102E80008F5FF5CF8FE394E09A838983EB82CE0145
:102E900001960E94D5169B81905E30E09817E9F06C
:102EA000482F50E0FA01E058FA4F608167FD13C0E7
:102EB000415E5A4FFA0120812770243061F4262F99
:102EC00022952F70262720FBAA24A0F8B12CA5015B
:102ED0004F5F5F4F342B8F5FE1CFF6E0FF1204C0EE
:102EE00082E0D81609F490CFE394EE2DF0E0E0589C
:102EF000FA4F8081C394EC2DF0E0E058FA4F208126
:102F0000422F50E064E0559547956A95E1F72770A8
:102F1000682F62956F70641B062E000C770B77FF8D
:102F200003C07195619571098770821B082E000C92
:102F3000990B97FF03C0919581959109680FF6E071
:102F4000FF1223C081E0D81220C030FD18C08EE0EF
:102F5000821B240F841B281708F4822F94E0F99E0B
:102F600090011124820F932F911D880F991F861BAA
:102F7000910934E0880F991F3A95E1F74BCF842FE0
:102F8000821B295F241B895FE6CF440F87E090E016
:102F9000841B910997FF03C0919581959109220F98
:102FA00047E050E0421B510957FF03C0519541953E
:102FB0005109840FD3CF635070E09B0143E0220F8F
:102FC000331F4A95E1F7287056E0660F771F5A9530
:102FD000E1F76078622BFC0120812777622B608308
:102FE00008950F931F93CF93DF9300D0CDB7DEB733
:102FF000FC017A8369839A81892F877782958F7004
:10300000841759F0CF010296718360830F900F905F
:10301000DF91CF911F910F9108958F0190689A834E
:1030200060912901CE0101960E94DB17FC0180818D
:103030009181F8019183808360912C01CE010196EA
:103040000E94DB17FC0180819181F80193838283C8
:1030500060912A01CE0101960E94DB17FC0180815C
:103060009181F8019583848360912B01CE010196B3
:103070000E94DB17FC01C801089620813181F8010C
:1030800037832683C3CF882329F090E483FF90E21F
:103090008770890F0895DC01EC91F0E0ED58F04F56
:1030A0008491E62F660FFF0BE551F14FE491E82381
:1030B00081E009F480E00895FC018081877084300C
:1030C00018F097E0981B892F0895CF93FC01208179
:1030D00030E044E0359527954A95E1F7C7E0C21BFB
:1030E000611101C0C22FCC0FCC0F0E945C188C0F55
:1030F000CF9108952F923F924F925F926F927F925D
:103100008F929F92AF92BF92CF92DF92EF92FF92F7
:103110000F931F93CF93DF93CDB7DEB764970FB6AE
:10312000F894DEBF0FBECDBFC82E81E06C2C6826A0
:10313000A0E4DA2E80E0CC2019F0F0E2DF2E87E068
:10314000FE0131965E012BE0A20EB11C4F0181936E
:10315000EA15FB05E1F780E65D2C582642E0450DB7
:103160005AE0550DE12C541709F1E42FF0E0E05836
:10317000FA4F808187FD18C0E394282F30E0E4E007
:1031800035952795EA95E1F7877090E00196F4016F
:10319000E80FF91F8081CC2021F0821720F4282F1E
:1031A00002C02817E0F320834F5FDDCF30ED3D0DE7
:1031B000388B62E0762E7D0C7AE0372E3D0C10E0E5
:1031C00000E08EEF482E4D18371409F48AC0E72D21
:1031D000F0E0E058FA4FF080FB86F7FC53C0E39430
:1031E000662DC5010E946518E82FF0E0EE0FFF1F65
:1031F000E65FFF4E85919491080F191FC5010E944B
:103200005C18EF2D6889E61BAFEFAE0FB0E0A15C54
:10321000BB4F9C91940D983048F0EF5FF0E0E15C7B
:10322000FB4F9081940D40E0983058F4E82FF0E087
:10323000EE0FFF1FE657FE4E25913491020F131F2C
:1032400041E09F2D92959F702F2D277030E0F40163
:10325000E20FF31F5081C11017C0951798F0E2E0FC
:10326000F0E0EC0FFD1FE20FF31F5081951750F0B7
:10327000E3E0F0E0EC0FFD1F2E0F3F1FF90120816E
:103280009217B8F47394A0CF5917E0F3E2E0F0E09E
:10329000EC0FFD1FE20FF31F5081591798F363E005
:1032A00070E06C0F7D1F260F371FF9012081291751
:1032B00048F3E82FF0E0E053FF4FCF01880F991F4C
:1032C000FC01E65FFF4E25913491020F131F44234A
:1032D000C9F2FC01EE5EFF4E85919491080F191F13
:1032E000D1CFFEE0FE1510F42FE0E22EED2DF0E040
:1032F000EF5CFA4F20812C8BF12C3CEEE30EF11C9D
:10330000EE0CFF1CB701665F7F4E1B01198A8EEF22
:10331000482E4D1894E0892E92E1992E7C897716DB
:1033200009F448C0E72DF0E0E058FA4FC080CB86A2
:10333000C7FC3EC0662DC5010E946518E82FF0E06D
:10334000EE0FFF1FE65BFF4E85919491080F191F4A
:103350008889C81AEFEFEC0DF0E0E15CFB4F80814B
:10336000840D883048F0C394EC2DF0E0E15CFB4F15
:103370008081840D883068F4C5010E945C18E82FB4
:10338000F0E0EE0FFF1FEE56FE4E85919491080F70
:10339000191FF10185919491080F191F998999239B
:1033A00029F0F40185919491080F191FE1E0E98B50
:1033B0007394B4CFE1E0E50DF0E0E058FA4F4080BF
:1033C0008FE394E09C878B87DD86C5010E94D5162C
:1033D000C82E8D85805E888B97012651304F19014C
:1033E000812C712C76E0A72E72E1B72E38893C151E
:1033F00009F491C08C2D90E0BC01615C7B4F7B0196
:10340000FB01EF5BFE4F90809F8697FC75C0662D99
:10341000CE010F960E946518F701E052FF4FE08140
:10342000E770EE87E450EE2EF12CF70155E0EE0F39
:10343000FF1F5A95E1F7E05CFF4FE80FF11DEE0F1B
:10344000FF1FE65FFF4E85919491080F191F642DB1
:103450006919CE010E960E944B18882349F0F70196
:10346000EE0FFF1FE654FE4E85919491080F191F31
:103470008E85982F937009F441C0853061F4F10175
:1034800085919491080F191F772059F1F5018591C5
:103490009491080F191F892D8F708F8728E0FF24C2
:1034A000F3949F85E92FF0E0E15CFB4F808182502F
:1034B000382F3D19383000F18519883008F4F12C87
:1034C000905F9F87215069F7CE010F960E945C188C
:1034D000E82FF0E0F11008C0EE0FFF1FEE55FE4E92
:1034E00007C077247394D7CFEE0FFF1FE656FE4E2A
:1034F00085919491080F191FC39478CF892D8295D7
:103500008F709826792D71707A8B1B8A8A899B8996
:103510000196882AF1CF83E0881206C0E0ECF1E141
:1035200085919491080F191FE1E0ED0DF0E0E0584E
:10353000FA4FF080FE86662DCE010E960E94651829
:10354000E82FF0E0EE0FFF1FE65BFE4E85919491B1
:10355000080F191FE2E0F0E14AE050E190E03491F9
:103560008F2D830FA82FB0E0A15CBB4F2C912D2194
:1035700011F49F5FF6CF31964E175F0781F79C30AD
:1035800008F09CE0E92FF0E0EE0FFF1FE85FFD4E32
:1035900085919491800F911F64960FB6F894DEBFC9
:1035A0000FBECDBFDF91CF911F910F91FF90EF9094
:1035B000DF90CF90BF90AF909F908F907F906F9053
:1035C0005F904F903F902F9008950F931F93CF934C
:1035D000DF9300D0CDB7DEB78091E6079091E70783
:1035E00001969093E7078093E607BE016F5F7F4FD8
:1035F0008091F2070E94E216811128C09091F20793
:10360000BE016F5F7F4F80E689270E94E21681111D
:1036100016C081E00E947A188C0180E00E947A181E
:103620009801281B390BC901E2E0F2E12091F20771
:1036300025FF15C025913491820F931F05C0898104
:103640009A819195819591099A83898389819A813B
:103650000F900F90DF91CF911F910F9108952591B9
:103660003491281B390B3A832983F0CFDC01EC918C
:103670000E2E000CFF0BEF59FE4F84910895DF9240
:10368000EF92FF920F931F93CF93DF93CDB7DEB7E7
:103690002A970FB6F894DEBF0FBECDBFF82E8091EB
:1036A000F20720E62827E0EDEF0DE20FAFEFAE0FB7
:1036B000B0E0A15CBB4F1C919EEF981B312F390FDE
:1036C000383088F580E2821B8295869587709F2D21
:1036D00092959F70891709F4FDC080E01123A9F02D
:1036E000EF2DF0E0E15CFB4FE081F0E0E15EFA4FAE
:1036F000E081E770F0E0E558F04F0491080F809109
:10370000E4058C3009F0E8C0802F2A960FB6F894B3
:10371000DEBF0FBECDBFDF91CF911F910F91FF9004
:10372000EF90DF900895EF5FF0E0E15CFB4F1081D8
:10373000910F983038F21AE0180FE82FF0E0EF5CA4
:10374000FA4F0081101789F0E12FF0E0E058FA4FAE
:10375000808187FD08C06F2D681B8CE291E00E947C
:103760004B188111BACF1F5FEDCF8091F2072FE385
:1037700034E03A8329838B83CE0101960E94D516CB
:10378000182F8B8130E2E32EE80EE11651F1812FE4
:1037900090E0FC01E058FA4F008107FD20C0815EF7
:1037A0009A4FFC01808187708430C9F4DF2CD01AD5
:1037B0006D2D8BE291E00E944B18882381F0DC8212
:1037C000CE0104960E94361B080FE02FF0E0E15C6A
:1037D000FB4F90819923C1F30F1509F47ECF1F5F32
:1037E000D4CF8091F2072FE334E03D832C838E8386
:1037F000CE0104960E94D516182F8E8120E2E22E6B
:10380000E80EE11651F1812F90E0FC01E058FA4FEB
:10381000008107FD20C0815E9A4FFC018081877086
:103820008530C9F4DF2CD01A6D2D8AE291E00E9418
:103830004B18882381F0DF82CE0107960E94361B49
:10384000080FE02FF0E0E15CFB4F90819923C1F37A
:103850000F1509F442CF1F5FD4CF8091F2072FE3F9
:1038600034E038872F838987CE0107960E94D516CA
:10387000182F898590E2E92EE80EE11609F441C07F
:10388000812F90E0FC01E058FA4F008107FD20C035
:10389000815E9A4FFC01808187708630C9F4DF2CED
:1038A000D01A6D2D89E291E00E944B18882381F097
:1038B000DA86CE010A960E94361B080FE02FF0E050
:1038C000E15CFB4F90819923C1F30F1509F405CFFB
:1038D0001F5FD3CF80E202CFA12FB0E0A058BA4F34
:1038E0001C91812F9F2D0E943C108F2D0E943F1B09
:1038F000E82E812F9F2D0E94210B802F8E1987FF8C
:1039000004CF80E002CFCF93DF930E94E51AEC0151
:10391000E091E40585E0E89FF0011124E852FB4FB7
:103920008281882349F0818187770E943F1B99E13A
:103930008902C00DD11D1124CE01DF91CF910895D0
:103940002F923F924F925F926F927F928F929F92AF
:10395000AF92BF92CF92DF92EF92FF920F931F939D
:10396000CF93DF9300D000D01F92CDB7DEB78C018C
:103970006C01DC01612C412C6616F9F011968C91DA
:10398000119787FD08C0E82FE777F0E0E15CFB4F77
:103990009081992379F0E42DF0E0EE0FFF1FE00F06
:1039A000F11F9C912081318111963C932E9390833D
:1039B0008183439463941296DFCF2EE1241510F493
:1039C0007FE1472E61E8262E65E0362E7801510111
:1039D000712C741409F43CC0D7018D909C90119700
:1039E0001196BC91BB83B7FF23C0F70180810E9471
:1039F0002E10E82FF0E0E558F04FE4915CEF552EE3
:103A00005E0E8091E4058C3059F0C4010E943C1098
:103A10008B8187770E943F1B581AC4010E94210B9B
:103A2000D5015D925D017394B2E0EB0EF11CD1CF34
:103A3000EB81E777F0E0E15CFB4FE081F0E0E15EF5
:103A4000FA4FE081E770F0E0E558F04F5490D9CF9D
:103A5000672DC8010E943C0921E835E0962C90E0D2
:103A600080E0B12C4DEB5EEFFA01EF53F4407F01A3
:103A7000B714D8F5D9014D919D0147FF33C0962C5D
:103A80009718D801A80FB91FF701E20FF31FE90D2E
:103A9000F11DEE0FFF1FAF01400F511F5D834C83DF
:103AA000AB2CBC01615071098C9011965C90119700
:103AB000EC81FD8141915191FD83EC834D935D93A8
:103AC000AF0142505109FA0180824C815D81481B4F
:103AD000590B460F571FFA015082A3947A10E4CF76
:103AE0009B0C7B2CB3940296C3CF711064C0FEE193
:103AF000792CF91510F42FE1722E812C871409F41A
:103B000056C06090F20766FA662460F8D601EC9120
:103B1000E777EA83F0E0E15CFB4FE081F0E0E15E13
:103B2000FA4FA080BA2DB770AB2EAA94AA94E5E004
:103B3000EA1508F4A12CD60111968C918777898318
:103B4000662DCE0101960E946518B0E2AB9E500131
:103B50001124F501E80FF11DEE0FFF1FE65FFF4E88
:103B6000E590F490662DCE0102960E946518F5014D
:103B7000E80FF11DEE0FFF1FE65FFF4E8591949158
:103B8000F701E81BF90BCF018138FFEF9F0714F411
:103B900081E89FEF8038910514F08FE790E0D10124
:103BA0008D931D018394B2E0CB0ED11CA7CF682D5D
:103BB000C8010E943C09892D0F900F900F900F9023
:103BC0000F90DF91CF911F910F91FF90EF90DF90B9
:103BD000CF90BF90AF909F908F907F906F905F90AD
:103BE0004F903F902F9008959F92AF92BF92CF92A7
:103BF000DF92EF92FF920F931F93CF93DF9300D04A
:103C000000D01F92CDB7DEB7A0E3A60FA81B9EEF92
:103C1000981B2FEF2A0FE22FF0E0E15CFB4F208191
:103C2000290F283008F48CC0AF5FB0E0A15CBB4F17
:103C30002C91920F983008F483C0062F182F2AE099
:103C4000E22EE80EE82FF0E0EF5CFA4FD080ED14A2
:103C500089F0EE2DF0E0E058FA4F608167FD08C072
:103C6000601B8CE291E00E944B18F82E811146C037
:103C7000E394EDCF802F90E09C01215C3B4F6901E4
:103C8000F901908080E680838FE394E09A838983B2
:103C90001B83CE0101960E94D516B82E8B8190E22F
:103CA000A92EA80EAB14E1F18B2D90E0FC01E05899
:103CB000FA4FE080E7FE02C0B394F4CF815E9A4FE2
:103CC000FC018081602F6E196D8387708C83CE011B
:103CD00004960E944B18F82E882371F3CE010596A6
:103CE0000E94361BE80EEE2DF0E0E15CFB4F908168
:103CF0009923C1F30E11E0CFF60190828F2D0F9022
:103D00000F900F900F900F90DF91CF911F910F9117
:103D1000FF90EF90DF90CF90BF90AF909F9008956D
:103D2000F60190821F5FE12FF0E0E058FA4F8081AA
:103D3000602F681B86E291E00E944B18F82EDECFC0
:103D4000FF24F394DBCF2F923F924F925F926F92BA
:103D50007F928F929F92AF92BF92CF92DF92EF921B
:103D6000FF920F931F93CF93DF93CDB7DEB7AC973E
:103D70000FB6F894DEBF0FBECDBF1C01F090F20766
:103D800080E65F2C582610ED612E6F0C80E28F19B3
:103D900090E09C0105E0359527950A95E1F73CA355
:103DA0002BA34BA086E028272BA731E03F0D3DA396
:103DB000832F90E0AC0140585A4F5FA34EA3DA0125
:103DC000EC901092E5078FE394E09A8F898F5B8ED9
:103DD000CE0149960E94D516982E8B8D805E8CA7B9
:103DE0008101DD24DA94C12CBCA5B91509F4CEC03B
:103DF000892D90E0FC01E058FA4FA080A7FC2EC06E
:103E0000815E9A4FDC01EC91E7709A2D9E199F8F8D
:103E1000F0E0ED58F04F8491E92F990FFF0BE55139
:103E2000F14FE491E823E370C9F0CE014F960E9470
:103E3000361B782EBE2CB70CEB2DF0E0F9A7E8A7C7
:103E4000E15CFB4F90819923B1F3AB1009C08091E5
:103E5000E5078E5F8093E5077AA6DA2C9394C4CFAA
:103E6000492F50E0FA01E15EFA4F8081282F207639
:103E70002F11F4CFF7E0053D1F0708F0C3C38B2CCB
:103E8000870CE82DF0E0E15CFB4F20812223C1F399
:103E9000A810E4CF2C2D30E0EDE0F0E0EC0FFD1F9A
:103EA000E20FF31FB08240585A4FEFEFDA01EC9364
:103EB000C39441E050E04C0F5D1F240F351FD90122
:103EC0009C938770833008F043C0A62CAB0C872DE1
:103ED000877041F5EA2DF0E0E15CFB4F80818111B4
:103EE000BDCF442D6B2D7A2DC8010E94F1178C0196
:103EF000A60CEA2DF0E0E15CFB4F80818111AECF92
:103F000088A599A5B4E095958795BA95E1F7BBA5E5
:103F1000B813A4CF8B2D8860F8018083A1820E5F37
:103F20001F4F9CCF8FEF8A0D881207C0442D6B2D39
:103F3000782DC8010E94F1178C01A3948A108ECFAE
:103F4000442D6B2D782DC8010E94F1178C0186CF6E
:103F50008C8F6F8DCE014C960E944B18882309F4EC
:103F60007DCFD8019B2D970DFD013296BC92119605
:103F70009C93DF018912F7CF8B2D8F018719E816EB
:103F800009F46CCFB08281833296F7CFE091E405DB
:103F900025E0E29FF0011124E852FB4F81818777F1
:103FA000B82E9E2D981BE82FF0E0E15CFB4FE081DE
:103FB000F0E0E15EFA4FE081E770F0E0ED58F04F9D
:103FC0008491E92F092E000CFF0BE551F14FE4918C
:103FD000E823EC7F69F08091E5078F5F8093E50728
:103FE00091959C8FCE014C960E94361B8AA7DB2CA4
:103FF0008091E507882309F46FC0833008F092C2EE
:10400000E091E40535E0E39FF0011124E852FB4F15
:104010008181877781018D1509F4C7C08091E507FB
:1040200080FF69C1BD2CB6186FEF6B0DE62FF0E075
:10403000E15CFB4FE0818EEFE82EEF188E2F8E0DA6
:10404000883060F4F0E0E058FA4F808187FD06C0C8
:104050004BA17D2DC8010E94F1178C0161E06B0D11
:10406000E62FF0E0E15CFB4FE0818E2F8E0D883073
:1040700060F4F0E0E058FA4F808187FD06C04BA164
:104080007D2DC8010E94F1178C01F7E0053D1F0747
:1040900008F0B8C2EAE0EE2EEF0CEF2DF0E0EF5C96
:1040A000FA4FA080AE1409F4E2C0EE2DF0E0E05823
:1040B000FA4FB080B7FC0EC06D2D6B198CE291E009
:1040C0000E944B18882331F0D801BC921196DC92E3
:1040D0000E5F1F4FE394E6CF47E0053D140708F05D
:1040E00091C2E091E40555E0E59FF0011124E8520A
:1040F000FB4FA3808F2D8295869587708A2171F161
:104100006FEF6E0DE62FF0E0E15CFB4F80818111D7
:1041100025C0AEEFBA2EBE0CEB2DF0E0E15CFB4FFC
:10412000808181111BC0EDEFEE0DF0E0E15CFB4FF3
:104130008081811113C0852D0E94F41D81110EC054
:104140006B2D852D0E94F41D811108C0D801EC92C1
:104150008B2D886011968C930E5F1F4FAF2029F135
:1041600061E06E0DE62FF0E0E15CFB4F8081811194
:104170001CC0F2E0BF2EBE0CEB2DF0E0E15CFB4F6B
:104180008081811112C0852D0E94F41D81110DC006
:104190006B2D852D0E94F41D811107C0F801E0826E
:1041A0008B2D886081830E5F1F4FF7E0053D1F0751
:1041B00008F028C2E091E40525E0E29FF001112417
:1041C000E852FB4F808183FF29CF81818777B82E0A
:1041D0008091E507882311F0DB1020CF88248A9492
:1041E0008B0CE82DF0E0E15CFB4FE0818EEFA82E18
:1041F000AF188E2F8A0D8830B8F4F0E0E058FA4FEF
:10420000808187FD11C04B2D682D8E2D0E945F0D82
:1042100081110AC0882D8068D8018C93862D8B0D62
:1042200011968C930E5F1F4F882483948B0CE82D7E
:10423000F0E0E15CFB4FE0818E2F8A0D883008F0C2
:10424000EDCEF0E0E058FA4F808187FDE7CE482DB3
:104250006B2D8E2D0E945F0D8111E0CE882D806820
:10426000F8018083B60CB1820E5F1F4FD7CEB7E046
:10427000053D1B0708F0C6C18FE394E09D8F8C8F2E
:10428000FE8ECE014C960E94D516E82E8E8D70E2E1
:10429000A72EA80EAE1409F446C18E2D90E0FC01A5
:1042A000E058FA4FB080B7FC24C0815E9A4FFC0101
:1042B00080816D2D6B196AA387708F8FCE014F9609
:1042C0000E944B188823A9F0CE0182960E94361BCB
:1042D0009B2D980FE92FF0E0E15CFB4F208122231A
:1042E000C1F3D91206C0D801BC921196DC920E5FC0
:1042F0001F4FE394CFCFB7E00D3A1B0708F082C100
:1043000052E0A52EAF0C6AE0762E7F0C7A1409F4E9
:104310004FC0EA2DF0E0E058FA4FB080B7FC46C03D
:10432000862C8B0C7FEF780DE72FF0E0E15CFB4FE4
:1043300080818076581206C0442D6B2DC8010E94E2
:10434000F1178C0171E0780DE72FF0E0E15CFB4F95
:1043500080818076581206C0442D6B2DC8010E94C2
:10436000F1178C01E82DF0E0E15CFB4F80818111B9
:104370001DC0442D6B2D782DC8010E94F1178C01B2
:10438000860CE82DF0E0E15CFB4F808181110EC0CE
:104390008B2D82958F70EBA58E1308C08B2D8860B6
:1043A000D8018C9311968C920E5F1F4FA394AECFC1
:1043B000EF2DF0E0EF5CFA4F408123E73FE04A1534
:1043C00019F1EA2DF0E0E058FA4F908197FD1AC0FC
:1043D000B7E0053D1B0708F015C1EBE6FFE084914F
:1043E000890FA82FB0E0A15CBB4F5C915F2131F435
:1043F000D8019C9311968C930E5F1F4F31962E1708
:104400003F0769F7A394DBCF8FE394E098A38F8FE6
:10441000F9A2CE014F960E94D51669A1605E27E6EB
:104420003FE04BE65FE0681709F451C0E82FF0E089
:10443000DF01A058BA4F9C9197FD47C0B7E00D3AF5
:104440001B0708F0DFC0E15EFA4F7081E72FE370D1
:10445000E9F0E7E6FFE0A4903801B92E8301BA0C39
:10446000AB2DB0E0A15CBB4F8C90A82DAF2151F4D7
:10447000A2E06A0E711CD8019C931196BC92882010
:1044800069F3830131964E175F0729F770FD1DC050
:10449000E3E6FFE0B4904801792F84017B0DA72F5C
:1044A000B0E0A15CBB4FAC90AA2DAF2151F4B2E0BB
:1044B0008B0E911CD8019C9311967C93AA2069F3D2
:1044C000840131962E173F0729F78F5FACCF80917B
:1044D000E507882341F15101A016B10620F5F50149
:1044E00081818777882E8E198C8FCE014C960E9401
:1044F000361BFAA58F1779F0F80192918291D501B8
:104500008D939C9395012250310959018F0132E01E
:10451000A30EB11CE1CF9E2D980F8916C1F3D912BD
:10452000FBCFEACF810145ED241647E0340608F0C1
:1045300069C0AEA1BFA1DC90AD2CB12CF501E15C4E
:10454000FB4F108232E0832E30E1932E4AE0642E3E
:1045500040E1742EF401E490ED0CEE2DF0E0E15C0E
:10456000FB4F80818F2161F46E2D852D0E94F41DFB
:10457000811106C0D801DC921196EC920E5F1F4F9C
:10458000BFEF8B1A9B0A6814790421F7F501E15CEF
:10459000FB4F2DA12083CC20B9F0CA948C2D90E044
:1045A000E1E0F0E0EC0FFD1FE80FF91FE081F0E023
:1045B000E058FA4F4DE050E04C0F5D1F840F951FFF
:1045C000DC018C918083E7CFC8018219930995950E
:1045D0008795AC960FB6F894DEBF0FBECDBFDF91C6
:1045E000CF911F910F91FF90EF90DF90CF90BF90F0
:1045F000AF909F908F907F906F905F904F903F9083
:104600002F900895CC20B9F0CA948C2D90E0E1E071
:10461000F0E0EC0FFD1FE80FF91FE081F0E0E0583B
:10462000FA4F2DE030E02C0F3D1F820F931FDC016D
:104630008C918083E7CF8FEFCCCFCF9385EE95E041
:104640000E94A31EC82FE091E40585E0E89FF001D9
:104650001124E852FB4F84818436B8F40E94160B73
:10466000811115C00E94E209823098F49091E5070B
:10467000CC2331F081E0911101C080E0CF91089509
:1046800086E09111FBCF85E0F9CF82E0F7CF84E09F
:10469000F5CF83E0F3CF8091F20790E026E0959587
:1046A00087952A95E1F7809345010E941D23809309
:1046B000390108950E944B2380913901823038F0EE
:1046C00085E190E09093D8018093D701089590916F
:1046D0004501E92FF0E0E257FE4F8281882349F13E
:1046E00021E0911120E0A22FB0E0A257BE4F129618
:1046F0009C91911102C02093880198E09093ED075E
:1047000090E0880F991F079621E030E002C0220F49
:10471000331F8A95E2F73093E9072093E807E48195
:10472000F0E0EE5DFC4FE491E093F10788E090E06B
:10473000C9CF81E0911101C080E08093880184E0BD
:1047400090E0C0CF1F93CF93DF93182FD92F809184
:10475000F3079091F40701969093F4078093F30781
:104760008091F5079091F607892B69F185EE95E028
:104770000E94A31EC82FC1508C2F90E0FC01EE0FA9
:10478000FF1FEB51FA4F20812113F5CF880F991F9E
:10479000FC01EA51FA4F8081D813EDCF8091F507E3
:1047A0009091F607FC01E255F74FE4912E2F2F73FD
:1047B000C2132FC00196E7FD02C090E080E0909305
:1047C000F6078093F507E5EDF8E0929182919383E7
:1047D000828387E0E73FF807C1F71093F707D0938C
:1047E000F807812F9D2F0E943C10E091E40585E0A1
:1047F000E89FF0011124E852FB4F1092E405A8ED68
:10480000B4E001900D928A95E1F7DF91CF911F916D
:10481000089585EF97E00E94B6168111BFCF1092E0
:10482000F6071092F507CFCF0F931F93CF93DF9327
:104830001092F6071092F507C091F307D091F40794
:10484000CD30D10580F40C2F0E94450C10E0CC0F28
:10485000DD1FCB50D84F101730F4888199810E940A
:10486000A2231F5FF8CFDF91CF911F910F91089581
:104870008F929F92AF92BF92CF92DF92EF92FF9270
:104880000F931F93CF93DF938091F3079091F407D9
:10489000892B09F4B4C08091D001882309F4AFC0FA
:1048A0009090F707F090F807292D2777C22ECF2D8B
:1048B000C777E12CF7FC04C0E92CEE1CEE24EE1CBB
:1048C0003F2D3770D32E0C2D10E0F3FEA5C083E0F2
:1048D000E1E0831708F4EFEFEC0FF0E0E15CFB4F51
:1048E0008081D0E0B0909601A09095012091F307CF
:1048F0003091F407215031093093F4072093F307E6
:10490000E7EFF7E0228133812193319328E0E53D01
:10491000F207C1F78093DF0481E08093E405892DDD
:104920009F2D0E94210BA092DB04B092DC04F7FCC7
:1049300012C097FE10C0C80164E0959587956A95EE
:10494000E1F78295807F8D0D8093D9048091D80402
:1049500088608093D8040E9414248091D0018150F3
:104960008093D001E4E9F1E083819481A581819372
:104970009193A19331E0E53BF307B1F7E8EBF1E068
:104980008FEC91E0218121938E179F07D9F7109228
:104990004701C093D601C0928D01F801E15CFB4F45
:1049A000E081F0E0E15EFA4F80818093D1018D2DAE
:1049B00090E0EE2089F0D80144E0B595A7954A959E
:1049C000E1F753E0AA0FBB1F5A95E1F7A80FB91FF3
:1049D000A85BBE4FDC93D0E0EC2FF0E024E0F5952F
:1049E000E7952A95E1F733E0EE0FFF1F3A95E1F7DF
:1049F000E80FF91FE85BFE4FD08310924301DF916F
:104A0000CF911F910F91FF90EF90DF90CF90BF90CB
:104A1000AF909F908F900895D09194016C2FEE20CD
:104A200091F0B801E4E075956795EA95E1F7629534
:104A3000607F630F8091F207D82FD295D695D695D7
:104A4000D3708F5FD80F862F90E0FC01E15CFB4FA5
:104A50005F0180808D2F0E940C0DE82FF0E0E05860
:104A6000FA4F9FEF9083F50180823CCF6F927F9247
:104A70008F929F92AF92BF92CF92DF92EF92FF926E
:104A80000F931F93CF93DF938C016B017A010E94E8
:104A9000A31E782E8FEF781210C0DF91CF911F9157
:104AA0000F91FF90EF90DF90CF90BF90AF909F90CD
:104AB0008F907F906F900C94831C71102BC080910D
:104AC000E4059091E507992399F0C82FD0E0DD57D0
:104AD000CE01DF91CF911F910F91FF90EF90DF906A
:104AE000CF90BF90AF909F908F907F906F900895E0
:104AF0006091F107DF91CF911F910F91FF90EF909F
:104B0000DF90CF90BF90AF909F908F907F906F90ED
:104B10000C9423100E94E51A8E159F050CF07BC0A3
:104B2000EC018C159D050CF4E60180E0E82FF0E027
:104B3000EE0FFF1FE00FF11F9181A92FA777B0E0C3
:104B4000A15CBB4F2C91211111C097FD0FC090812A
:104B500097FD0CC07A948150A72DB0E0AA0FBB1F1F
:104B6000A00FB11F2D913C91318320838F5F87155A
:104B7000E8F2672DC8010E94A01C872C912C880C9C
:104B8000991C800E911E612CC12C93E8D92EAA2469
:104B9000BB24AE18BF08671409F49ACFF8018081CE
:104BA00091810E943C108091E4058C30C9F40E94F0
:104BB000E51A919581959109C816D9060CF46C01F6
:104BC000F801808191810E94210BCC15DD050CF448
:104BD000E6010E5F1F4FCE15DF05ECF46394DBCFCB
:104BE0008091F007811114C02091E6073091E7070A
:104BF0008091E8079091E9078217930748F04427CE
:104C000055274C1B5D0BB501C4010E943625D1CF41
:104C100090E080E0CECFE7015BCF5F926F927F9212
:104C20008F929F92AF92BF92CF92DF92EF92FF92BC
:104C30000F931F93CF93DF938C016B015A01522E78
:104C4000C091E40585E0C89FF0011124E852FB4FB4
:104C500084818436A0F06091F1078C2FDF91CF9191
:104C60001F910F91FF90EF90DF90CF90BF90AF908A
:104C70009F908F907F906F905F900C9423100E9474
:104C8000160B8111E8CF0E94E209823028F0609172
:104C9000F1078091E405E2CF8091F0078111A7C070
:104CA0002091E6073091E7078091E8079091E907A6
:104CB0008217930708F49BC08091E405851538F1AD
:104CC0008C3089F4DF91CF911F910F91FF90EF907D
:104CD000DF90CF90BF90AF909F908F907F906F901C
:104CE0005F900C94E51AA501B601C801DF91CF9140
:104CF0001F910F91FF90EF90DF90CF90BF90AF90FA
:104D00009F908F907F906F905F900C943625C80194
:104D10000E94A31E782EEFEF8E1311C0DF91CF916A
:104D20001F910F91FF90EF90DF90CF90BF90AF90C9
:104D30009F908F907F906F905F900C94831C811157
:104D40001DC08091E4059091E5079923A1F0C82F3B
:104D5000D0E0DD57CE01DF91CF911F910F91FF90F1
:104D6000EF90DF90CF90BF90AF909F908F907F900B
:104D70006F905F9008956091F10770CF682FC80120
:104D80000E94A01CE72CF12CEE0CFF1CE00EF11E83
:104D9000C0E0D3E8612C882499248A189B08F80184
:104DA000808191810E943C10442755274C195D0950
:104DB000252DB401C7010E940D2691958195910979
:104DC000C817D9070CF4EC01F801808191810E9489
:104DD000210BCC16DD060CF46E01CA14DB040CF0BA
:104DE000B9CF63940E5F1F4F7610D9CFB3CFD0E009
:104DF000C0E0B0CF0C94AB370F931F93CF93DF93EA
:104E00000AE110E0CFEFDFEFC8010E94FA269D2FE4
:104E10009827892F82958F708927282F30E09C2F23
:104E2000A901542F44275295507F84279527E901E3
:104E300075E0CC0FDD1F7A95E1F7C827D9270F5F02
:104E40001F4F0E3F83E01807F9F6CE01DF91CF9197
:104E50001F910F9108951F920F920FB60F92112478
:104E60008F939F938091E1009091E100937F9093C5
:104E7000E10083FF0FC01092E90091E09093EB00F6
:104E80001092EC0092E39093ED0010923E0298E0B5
:104E90009093F00082FF22C093E09093E9009091FC
:104EA000F200992319F09AE39093E8009091DF01C2
:104EB000992341F09091DF0191509093DF0191117E
:104EC00001C05D9A90913D02992341F090913D027D
:104ED000915090933D02911101C0289A84FF18C00F
:104EE0008091E2008E7E81608093E2008091E100FB
:104EF0008F7E8093E1008091E0018E7E80618093BF
:104F0000E0019F918F910F900FBE0F901F90189509
:104F100080FFF7CF8091E2008E7E80618093E20077
:104F20008091E1008E7E8093E1008091E0018E7E91
:104F30008160E5CF1F920F920FB60F921124CF928E
:104F4000DF92EF92FF920F931F932F933F934F9314
:104F50005F936F937F938F939F93AF93BF93EF93E1
:104F6000FF93CF93DF93CDB7DEB76C97DEBFCDBF96
:104F70001092E9008091E80083FF25C068E0CE012F
:104F800045960E94290F82EF8093E8008D8987FF64
:104F900039C09091E80090FFFCCF982F907609F0EF
:104FA00034C19E894F89588D2F89F88C911131C059
:104FB000803861F58091DE018093F1001092F1005C
:104FC0008EEF8093E8006C960FB6F894DEBF0FBEAC
:104FD000CDBFDF91CF91FF91EF91BF91AF919F91A5
:104FE0008F917F916F915F914F913F912F911F9181
:104FF0000F91FF90EF90DF90CF900F900FBE0F902A
:105000001F9018959EEF9093E800C7CF1092F10083
:10501000D5CF913059F48111D3CF4130510581F66C
:105020008091DE018D7F8093DE01CACF933049F4F9
:105030008111C6CF4130510519F68091DE018260A1
:10504000F2CF953041F48091E80080FFFCCF2068DA
:105050002093E300B5CF963009F0A9C00B8D1C8DCD
:1050600022E01092E9001092DC011092DB01F212B2
:105070002EC01092DA011092D9010E94F80E1F8200
:1050800099E09983FA8291E09E8390EA98879AEF5B
:1050900099872091DB013091DC01275F3F4F3C83F2
:1050A0002B838D831092E9001092DC011092DB01BA
:1050B0001093DA010093D90149E050E0BE016F5F1F
:1050C0007F4F80E00E94D20E0E94F80E79CF10939D
:1050D000DA010093D9010E94DC0DDC0112960D91DA
:1050E0001C910115110509F451C1D801ED91FC91F4
:1050F0000480F581E02DBE016B5E7F4FC8010995EC
:10510000009709F03EC1F80100851185EACFF3E070
:10511000FF120EC08F89882309F440C0823061F4E9
:1051200040E867E087EA98E00E949F0E811148CF2F
:1051300081E28093EB0047CF813029F440E86BE0B7
:105140008BE998E0F1CF833099F70E94DC0DDC0108
:105150001296ED90FC908E010F5F1F4F6801E114D5
:10516000F10479F0D701ED91FC910680F781E02DF3
:10517000B801C7010995080F111DF701E084F184FA
:10518000EECFD8011C92F60101900020E9F731978B
:10519000BF016C197D0940E0C601C6CF65E878E023
:1051A000FB01449150E080E80E94D20E09CF973075
:1051B00009F4BECF983021F481E08093F10000CF54
:1051C000993009F0FDCE837009F0B2CFEEE0F1E046
:1051D00081E031E096E32191222371F08093E90090
:1051E0003093EB00DF0111972C912093EC0090930A
:1051F000ED008F5F873079F78EE78093EA00109299
:10520000EA008F8980933E02DBCE8B8D9C8D1092BD
:10521000E9001092DC011092DB019093DA01809397
:10522000D901898D811192C08E899D89913A49F465
:10523000813209F07DCF47E050E064E071E080E02A
:10524000B3CF913209F074CF833269F48F89988D8E
:10525000B0E0A0E08093000190930101A0930201CF
:10526000B0930301ADCE803269F48091E80082FFF3
:10527000FCCF67E084E091E00E94290F8BEF8093E0
:10528000E8009ECE823209F09BCE8F8980930B017D
:10529000EEEFFFE7859194918B3F9C4D51F1E0E05B
:1052A000F8E08091040190910501A0910601B09170
:1052B0000701803B9440A105B105F1F480910B01F9
:1052C00080FD1AC0EE3F8AE0F80789F587E797E787
:1052D00091838083809160008093DD0188E19BE071
:1052E0000FB6F894A895809360000FBE909360006D
:1052F00067CEEEEFFAE0D5CF80819181873797476F
:1053000009F05ECEA895809160008861809360006E
:105310008091DD0180936000EE3F2AE0F20789F082
:105320008091FE0A9091FF0A9183808349CE80810B
:1053300091818737980751F29093FF0A8093FE0A74
:10534000C5CF1092FF0A1092FE0A3ACE0E94DC0DE1
:10535000DC0112960D911C910115110509F4E8CE9E
:10536000D801ED91FC910190F081E02DBE016B5EC2
:105370007F4FC8010995811123CEF8010085118561
:10538000EBCF181619060CF41BCED2CEF1E0FF12AB
:10539000BECE69E878E004CF1F920F920FB60F924D
:1053A00011242F933F938F939F93AF93BF9380913B
:1053B0003B0190913C01A0913D01B0913E013091A3
:1053C0003A0123E0230F2D3758F50196A11DB11D99
:1053D00020933A0180933B0190933C01A0933D01BF
:1053E000B0933E0180913F0190914001A091410115
:1053F000B09142010196A11DB11D80933F01909390
:105400004001A0934101B0934201BF91AF919F91A0
:105410008F913F912F910F900FBE0F901F90189575
:1054200026E8230F0296A11DB11DD2CF1F920F9225
:105430000FB60F9211243F924F925F926F927F921C
:105440008F929F92AF92BF92CF92DF92EF92FF9294
:105450000F931F932F933F934F935F936F937F937C
:105460008F939F93AF93BF93EF93FF93CF93DF936C
:10547000CDB7DEB76197DEBFCDBF0091D7011091E8
:10548000D8010631110508F0DAC1F801E65BF54DE7
:105490000C94D537602A6F2A9A2AAC2AC12BCC2BC0
:1054A000CC2B4C2C5C2B6D2BBA2CBA2CBA2CC32DCC
:1054B000D02D0E2E6C2EC02E1F2C1F2CEB2E2F2F1E
:1054C00086E394E00E94A01680E00E94E31110920F
:1054D000D60181E090E09093D8018093D70186E7D0
:1054E00094E00E94A016E091D601F0E0EE0FFF1FBD
:1054F000E65DFC4F05911491CE0101969E012F5E51
:105500003F4FDC01A801481B590BFA01EA0FFB1FB2
:10551000E491ED932A173B07C1F760E10E94AA14BA
:10552000869524E1281B44E16FEFC8010E94D51342
:1055300081E024C10E941D1281E00E94E3111092BB
:10554000D6011092900181E08093910183E090E078
:105550009093D8018093D7012EE34EE060E080E085
:105560000E94D7122FE045E068E082E593E00E94B8
:10557000D51323E042E164E081E194E00E94D51379
:1055800023E04AE16AE088E493E00E94D51323E037
:1055900042E266E082E493E00E94D51323E042E316
:1055A00066E08CE393E00E94D51300E911E02FE35D
:1055B000E22E22E0F22E32E2532E9E012F5F3F4F69
:1055C00069014E0131E1830E911C4CE3442E3801F8
:1055D000D801EC91F0E0EE0FFF1FEC5CFC4F8591E1
:1055E000949122E2452D6FEF0E94D513D8011296B7
:1055F000EC91F0E0EE0FFF1FE25DFC4FA590B49040
:10560000D601C5018C199D09FC01EA0FFB1FE4912D
:10561000ED938A169B06C1F760E1C6010E94AA14A9
:10562000242D281B48E0450D6FEFC5010E94D513BE
:105630000F5F1F4FF301808181110DC0F701E05C06
:10564000FE4F970129593E4F86898575868B319685
:105650002E173F07C9F7F0E15F0E20E8E20EF11CBC
:1056600032E45312B4CF8091D601E82FF0E03296A5
:10567000B6E0EE0FFF1FBA95E1F78823C1F09DE277
:105680008130B1F09DE38330A9F0853099F081E25B
:10569000E80FF11DE15CFD4F3EEF891708F048CFA0
:1056A0002191DF01119723272C938F5FF6CF93E190
:1056B00082E0EECF85E1ECCF0E941D1281E00E94D6
:1056C000E3110E94D31480E00E94D01189E090E0A1
:1056D0009093D8018093D701B2C080E00E948311DB
:1056E00084E00E947111882319F081E08093F00713
:1056F00090914501E92FF0E0E257FE4F82818F5FE4
:10570000880F4091E6075091E70702C056954795EC
:105710008A95E2F781E0911180E09091880117E38A
:10572000891301C015E0F12C09E1040F402F69E154
:10573000812F8F0D0E94A712F39483E0F812F6CF09
:1057400049E369E18FEF810F0E94A71249E369E104
:1057500083E0810F0E94A71202E0010F48E1602F51
:10576000812F0E9474124AE3602F812F0E947412CD
:1057700081E09091F007911101C080E00E94D0116A
:105780005EC00E94D31481E00E94D01185E090E0B9
:105790009093D8018093D7010E941D128091D70168
:1057A0009091D8010697B1F46091D601862F869525
:1057B00088776770660F660F660F9091880199234E
:1057C00031F098E3A92FA81B8A2F961B692F41E07F
:1057D0000E942E1300918B011091890140E0602FEF
:1057E000812F0E942E13602F70E080918C01282F52
:1057F00030E0A9014F5F5F4F6417750739F0620F02
:10580000731F6F5F7F4F75956795862F80938B0110
:10581000812F90E020918A01422F50E0BA016F5F02
:105820007F4F8617970731F0840F951F0196959546
:105830008795282F2093890181E00E94E3118091B0
:1058400043018F5F8093430161960FB6F894DEBFEA
:105850000FBECDBFDF91CF91FF91EF91BF91AF917F
:105860009F918F917F916F915F914F913F912F9178
:105870001F910F91FF90EF90DF90CF90BF90AF906E
:105880009F908F907F906F905F904F903F900F9080
:105890000FBE0F901F9018950E941D12EBECF2E0C6
:1058A00022EF32E080818F7081932E173F07D1F76E
:1058B000EBE0F3E082E393E011928E179F07E1F7AC
:1058C000EBE4F3E022E733E08081887F81932E17B9
:1058D0003F07D1F722E342E26CE084E10E94D71255
:1058E0008091F20785FF44C080E090E0029627E0B7
:1058F000289F8001299F100D11246FE073E0C801DB
:10590000855A9C4F0E94F61167E173E0C8018E59D9
:105910009C4F0E94F6116FE173E0C80187599C4FBC
:105920000E94F61167E273E0C80180599C4F0E9403
:10593000F6116091D1016E5F660F660F660F809160
:105940008B0190E0262F30E0A9014F5F5F4F841755
:10595000950739F0BC01620F731F6F5F7F4F75951C
:10596000679560938B0140E088E10E942E1364CF1D
:1059700086E0BBCFF0904301F110ACC0EFE3F2E062
:105980001192B4E0EF33FB07D9F70E94D31481E002
:105990000E94D0110E941D12FEE1FF1508F46CC098
:1059A0006091D601A62FA770AA0FAA0FAA0F809107
:1059B0008D01282F2770220F220F220F66956877FE
:1059C0008695887790918801992361F098E3392F23
:1059D0003A1BA32FB92FB21B2B2FE92FE61B6E2FDB
:1059E000981B892FEF2DF0E0EA54FC4FE491F0E092
:1059F000861B990B8E9FA0018F9F500D9E9F500D6F
:105A00001124CA01809646E0969587954A95E1F75C
:105A1000680F2A1B330B2E9F40012F9F900C3E9F37
:105A2000900C1124F0E28F0E911C56E0969487940E
:105A30005A95E1F7A80D2091D101822F877090E04F
:105A400025FF4EC0019727E0289FF001299FF00D08
:105A50001124CF01855A9C4F262F277038E0639F71
:105A6000B00111248A2E912C21113CC0680D791DA2
:105A7000615C7D4F0E94F61181E00E94E3118FE18D
:105A8000F812DDCE0A30110509F074C0E09145012D
:105A9000F0E0E257FE4F82818823C9F08091EA0747
:105AA0009091EB078E3AACEF9A070CF45BC086300E
:105AB000BFEF9B070CF458C0833523E092070CF02E
:105AC00055C08B3F91050CF053C082E080830E944B
:105AD0005A23B5CEEFE1FE125DCF0E94AA115ACF34
