:100000000C9409060C9431060C9431060C943106BC
:100010000C9431060C9431060C9431060C94310684
:100020000C9431060C9431060C9440200C94AF20B3
:100030000C9431060C9431060C9431060C94310664
:100040000C9431060C9431060C9431060C94310654
:100050000C9431060C9431060C9431060C94E12278
:100060000C9431060C9431060C9431060C94310634
:100070000C9431060C9431060C9431060C94310624
:100080000C942B230C9431060C9431060C943106FD
:100090000C9431060C9431060C9431060C94310604
:1000A0000C9431060C9431060C9431062A232E232D
:1000B0002A3311002A232E232A3310002A232E2329
:1000C0002A330F0024252C01332423012F002F0174
:1000D000272D33242D2E2300EF000000000000F018
:1000E000000000000000F10000EF0000000000F040
:1000F0000000000000F100000000EF00000000F030
:1001000000000000F1000000000000EF000000F01F
:10011000000000F10000000000000000EF0000F00F
:100120000000F100000000000000000000EFDFF020
:10013000E1F10000000000000000000000EEEFF020
:10014000F1F2000000000000FFFFFFFFFFFFFF00D3
:10015000010101010101010000000000000E0F106B
:10016000111200000000000000000000000F1F102E
:100170002111000000000000000000000F0000102E
:1001800000001100000000000000000F000000103F
:10019000000000110000000000000F00000000102F
:1001A0000000000011000000000F0000000000101F
:1001B00000000000001100000F000000000000100F
:1001C00000000000000011041F02041F031F150A95
:1001D000031F051A030E191E031F041B0308141C1A
:1001E000031F1408030C12120308141F030C1A1423
:1001F000021E050312150F031F0418030E110E0330
:10020000121F10031915120311150A0307041F0307
:10021000171509030E150803011907030A150A0328
:1002200002150E0204040314081403040E04050A44
:100230001F0A1F0A05190D0C0D19051109080911CE
:10024000050111101109050911101109050D1918E1
:10025000190D030E1111031F041F031F1511051F94
:100260000204021F031E051E03011F01031F110EBE
:10027000050F100E100F03121509031F1010031F96
:10028000050203111F11040E11110E0307180704B4
:100290000F10100F040E11151D010A0301150202A3
:1002A00000000404080402222F2425010029262529
:1002B0002A232425262324252623032C252A032329
:1002C0002B23262C262C2D01130E33242D2E2329EF
:1002D00027032528312122232105242526232A2D01
:1002E000252733302524230001020304050303DE00
:1002F00002A702BC00B400AC00022A252105282276
:100300002C262301232833302524230000687C7CFD
:100310007C680000001400140000181C4A7E7E7CDB
:1003200070204C7E377E4C20467C7E7C7E7C464313
:10033000647D7E7D644344687A7F7A6844006854B3
:100340004454680018144A72424C70204C72217256
:100350004C20467C4644467C4643645D465D64438F
:1003600044685A4F5A684400000000010203050720
:100370000A0C1013161A1E22262A2D303436393B49
:100380003D3E3F40404040AD03CE00A303C400309B
:10039000252423332B252F29232730252423332DD0
:1003A0002E230329252E2333302524230002252143
:1003B000050021250121232A2D2E230328032C2685
:1003C000233329252E233200000000000000000006
:1003D000000000000000000000000000000000001D
:1003E000000050F0F080000000000000000000005D
:1003F000000000000000800000C42212CA3C00007F
:10040000806040808040000080402020C03806008E
:10041000008060000080600000C0300804040222F8
:100420002418000080603826C0000000804020A012
:10043000600000008070204080000000807020403C
:10044000800000000000000000000000000000002C
:10045000000000000000000000000000008001001B
:10046000EA711AFF7E87838380808080000000000D
:10047000000000102020908D838181818F90908ECC
:1004800081808C939088848E9190888E91908884BE
:100490008E9190888E9190888798A0A0A0A0A0901F
:1004A0009088948E8180808E91908884878A9190A4
:1004B0009088848A959888949388848A959888945B
:1004C0009388404024180000000000000000000055
:1004D000000000000000000000001005421825D7B1
:1004E00048B77FC9F7FEBFEB7F1F0F030000000076
:1004F00000000C1201010000000040A0F058E8408C
:1005000040E040000000000000000000000000008B
:1005100000000000000000000000000000000000DB
:1005200000000000000000000000000000000000CB
:1005300000000000000040E04040E858F0A040000B
:1005400000000000000000000000000000000000AB
:100550000000000000000000004000809002A1BCEC
:100560004BABBEEFBBFEFF9FF9F0C0C080000000A8
:100570000000000000000000000000000103020075
:1005800000000000000080000080800080008000EB
:10059000000080000080000080800000804000801B
:1005A0000000C00000C00000800000C0000040004B
:1005B0008000008040008000004002034100804035
:1005C0000000400080000000002A00500500B0003C
:1005D0000451200880210890224008801240010A1E
:1005E00069DBBAFDFFFEFFC101158904A2084413AF
:1005F00048A4126C813248A01A6088523144A81174
:1006000068528134688132888016AA0896AB041A31
:10061000C728168BA41A87A80E92AD0A46B94E7247
:10062000D12C52F10876E118D46330CC5132E44930
:1006300030D621E894032E548B158EA51906AE51A1
:100640000E95228D1EA00B00005000140080140097
:10065000088002044002094006010012450080683B
:1006600013EEFD37FFFFBFFFF8E0C318A44118A049
:100670004AA800DA20886A9008E2300CE0110C5099
:1006800000850822870802AB04820906AA01068DAC
:1006900023028D22078C2207C9AE73915864B19052
:1006A0006C51B0D429B0C83AE0115CE01174C810A4
:1006B00075C810F0060D238C0B220C4B02AD0A01FD
:1006C000AE0209A60A1186000009000228000A10DD
:1006D0000204100904002B0008030030C02C92E92A
:1006E0001DF6ABDF7FEBFFDFF77FFFEEFCFCFAA030
:1006F00000628048224008A21008972208952A111B
:100700008658052A114E8932049D22095688132ED7
:10071000900B14926D8A01608A44A01241A4484053
:10072000952248806A00D22448836014C16802D0B0
:1007300025806806398B1416A91517A8132E811861
:100740002F8219244B12140000A00000500000104A
:10075000800000200000801000802200045A001554
:10076000564D15565D9F572DFFAF2BDFAE37CF6F20
:100770001096611188601288708218604298502229
:10078000945040B5006A9020CA30856810A2681461
:1007900082200C83540986290A84258B04A90A86A1
:1007A000218D0AA10D9205288B45140AA10E02295C
:1007B0004608937004897004D122885025D00228FD
:1007C000D002A950049160D5F08D14A1C881CFD971
:1007D000F1AF2000080B0002020200000904000033
:1007E000010202000005240010010524010101049A
:1007F00024020605240600010705810310004009B4
:10080000040100020A000000070502024000000780
:100810000583024000000403090412010002EF02F4
:1008200001404123368000010102030141726475D9
:10083000696E6F204C4C430041726475626F7900A1
:1008400000000000000000000000000000000000A8
:100850000000000000000000000000000000000098
:100860000000020000000000000100000000000085
:100870000200000200000000000100000000000271
:100880000000000002000000000100000000020063
:100890000000000000020000000100000002000053
:1008A0000000000000000200000100000200000043
:1008B000000000000000000204010402000000002B
:1008C00000000000000000042010200400000000D0
:1008D00000000101010101010800080101010101FD
:1008E00001000000000000048040800400000000BF
:1008F00000000000000000020401040200000000EB
:1009000000000000000002000001000002000000E2
:1009100000000000000200000001000000020000D2
:1009200000000000020000000001000000000200C2
:1009300000000002000000000001000000000002B2
:1009400000000200000000000001000000000000A4
:1009500002EFF10F11F010FF01DFE11F21EE0EF2A7
:100960001200208004A259FBF80004040C0D14248A
:10097000FDFFFFFFBDFFFFBFFFFFFFFFFFFFFFFF0B
:10098000FFFFFFFFFFFFFFFFFFFFFFFFFFFFFFFF77
:10099000FFFFFFFFFFFFFFFFFFFFFFFFFFFFFFFF67
:1009A000FFFFFFFFFFFFFFFFFFFFFFFFFFFFFFFF57
:1009B000FFFFFFFFFFFFFFFFFFFFFFFFFFFFFFFF47
:1009C000FFFFFFFFFFFFFFFFFFFFFFFFFFFFFFFF37
:1009D000FFFFFFFFFFFFFFFFFFFFFFFFFFFFFFFF27
:1009E000FEFFFFFFDEFFFFDF00010103030509003B
:1009F000EFF0F1FF010F10110000000000000000F7
:100A0000DC00DB00D000CF0086008F00870085006F
:100A100054005800550056004200470048004F005F
:100A20003E0045004500420041004E004C003A00A7
:100A30000000000000000000BE00EB00F90005010E
:100A4000F5000A0120011D01020123012F013201DD
:100A5000110123013001330108011C012601290184
:100A6000FD0013011A012201FA0001010F01130117
:100A7000EA00FD00FB0000010C0110010C01140153
:100A80001101270124011F011C012A012E012C0143
:100A90001F012601310138011B0126012D013601FC
:100AA0001D0127013001300115012B012401240112
:100AB0000B01170110011701E001E201E901EE014C
:100AC000E101E601EE01EA01D601E001E501E40100
:100AD000D301D601E501E101C901D401DB01DB014C
:100AE000C101CF01D401D401BA01CB01D401D60197
:100AF000C701CB01D901DD016403750389038903B3
:100B0000700371038E038E037C0382038F039703AC
:100B1000760378038903880370037A037F038003D5
:100B20006E0376037E037A03580366037D0377031F
:100B30005F035D0364037703DEFFF8FFF2FFEBFF63
:100B400000000D0011000900030019001800090041
:100B5000F5FF0E0012000E00EBFFFEFF0B000C0075
:100B6000F0FF010007000800F0FFFFFFFFFFFDFF9F
:100B7000E0FFF8FFECFFEDFF0C0011000D000E0090
:100B800007000A000A000A001B0016000E000F00F2
:100B90001E001200090003001A0017000D000700D4
:100BA0000400FFFF040009000F00060007003500E5
:100BB000A0FFD5FFF7FFFBFF070005000D000A00AF
:100BC0000D0009000A0003000000FFFF0100010002
:100BD0005FFFC9FFDFFFEEFFF5FFF9FFFEFFFEFF3E
:100BE000030007000A001000140020001E002B0064
:100BF00011000700E7FF0400190013000D000700B3
:100C000004000300F8FFFAFFF3FFF2FFF2FFEEFF2C
:100C1000582C11241FBECFEFDAE0DEBFCDBF11E0AC
:100C2000A0E0B1E0E6E3F7E602C005900D92A03344
:100C3000B107D9F729E0A0E3B1E001C01D92AF31BF
:100C4000B207E1F716E0C9E0D6E004C02197FE0143
:100C50000E949333C830D107C9F70E946D2C0C94C1
:100C600099330C9400008F929F92BF92CF92DF92A3
:100C7000EF92FF920F931F93CF93DF93EC01DC0170
:100C800001ED15E091E09617D8F51296BC901297F9
:100C900013967C911397F80181918F01292F422F90
:100CA00050E0FA01E153FA4F7F01FA01EE0FFF1F06
:100CB0004F018C0E9D1E40535A4FF701308138175B
:100CC00084F46401F2E0CF1AD108F601C080D1802B
:100CD000F401D182C082F7013081FA0130832150C2
:100CE000F1F630E0F901EE0FFF1FEC0FFD1FB082AF
:100CF000718320533A4FF90180839F5F1296C3CFCF
:100D0000DF91CF911F910F91FF90EF90DF90CF90E7
:100D1000BF909F908F900895EEE8F2E0A0E0B4E0DD
:100D200000800EBC8111012C1197A0FDFDCF019216
:100D3000B9F70DB408956F927F928F929F92AF9200
:100D4000BF92CF92DF92EF92FF920F931F93CF93B8
:100D5000DF93CDB7DEB7C054D1090FB6F894DEBF2C
:100D60000FBECDBFE0912F0645E0E49FF0011124B6
:100D7000E95DFA4FE48054E080E05E1508F0C1C000
:100D8000FE013196DF01BE016F5B7F4F1192E617C6
:100D9000F707E1F730E020E0F12C80E055E0C52EC8
:100DA000922FD22E2E150CF064C040912F062417DE
:100DB0000CF092C050E0421B530BC49EF001C59E44
:100DC000F00D1124E95DFA4FB080E1818E2E8B1871
:100DD000F80CF0E0AF0142575B4F3A01FA01908006
:100DE000492D50E08A01005211090A0F1B1FF8011A
:100DF000A080A80CA0820B2D10E002571B4FF80119
:100E00009082F301108241535A4FFA01B082F110DF
:100E10006DC08D014EE854E0F801B1908F01BB2008
:100E2000B9F0FA01EF59FE4FE081EB0DE7FD5CC030
:100E3000F0E0E257FB4FE081EE2309F455C0F0E00B
:100E4000E259FA4FB080FA01F395E081BE124CC02E
:100E50004F5F5F4F60177107F9F641E090FF46C0A2
:100E6000442309F443C08F5F813009F43FC091E00F
:100E70009D0D915050E040E0692F092E000C770B3A
:100E800035E0F32E97FD3DC020912F0692178CF58B
:100E900030E0FB01E41BF50B2E1B3F0BF29EF00133
:100EA000F39EF00D1124E95DFA4F20813181E22F8C
:100EB000F0E0E257FB4F2081032F10E002571B4F59
:100EC000D8012C931082E22FF0E0E153FA4F3083E7
:100ED0004F5F5F4F9150D6CFE22FE41BF0E0EE0F53
:100EE000FF1FE25CF74F70CF40E0B8CF2F5F3F4F5E
:100EF00057CFE92FE21BF0E0EE0FFF1FE25CF74F48
:100F0000D4CFC05CDF4F0FB6F894DEBF0FBECDBFAD
:100F1000DF91CF911F910F91FF90EF90DF90CF90D5
:100F2000BF90AF909F908F907F906F900895E0E674
:100F3000E827F0E0E153FA4F9081911115C0282F76
:100F400030E0F901E153FA4F4081442331F192E05E
:100F5000980F865F891751F0E92FF0E0E153FA4FBF
:100F600050819F5F57FDF6CF80E008954530A8F08F
:100F70004630D1F720583A4FF901208180E092178E
:100F800099F3E92FF0E0E153FA4F308137FD03C0C8
:100F90008111EBCF81E09F5FF2CF81E008958091D6
:100FA0002E010E949707811104C080912D010C949D
:100FB00097070895DF92EF92FF920F931F93CF93BD
:100FC000DF93E091300830E63E2730933008682FF9
:100FD0006777592F5777A52FB0E0A257BB4F4C9199
:100FE000C0912F062FEF2C0F20932F0605E0C09FF6
:100FF000E0011124C95DDA4F2A81C22FD0E0782F99
:101000007078F92FF8787F2B09F448C097FF62C0F9
:10101000842F90E08C0102591A4FF8017081E72F5C
:10102000E770F0E0E851F64FD490E32EF12CF70191
:10103000E153FA4F70817F5F7D197083F801108250
:1010400081539A4F3FEFFC0130838091300890E04C
:10105000FC01E058FA4F3081FC014317A0F5E0583D
:10106000FA4F832F815080838091300892E0980F4F
:101070003AE0380F391791F0092F0052110B02573F
:101080001A4FF8017081711123C031E0380F829539
:10109000869586958370830F8083492F222389F15B
:1010A000C259DA4FE881E770F0E0E851F64FE49179
:1010B000C091300880E6C827D0E0C153DA4F88815C
:1010C000E80FE8831EC0EF57FA4F80818F5FCBCFC8
:1010D0009F5FD0CF8E0101531A4F93FF3AC056172E
:1010E00040F58CEF860FE82FF0E0E257FB4F2083AE
:1010F000EFEFE60FF0E0E257FB4F1082E801888344
:1011000020E0E62FF0E0E257FB4F4083E42FF0E0D1
:10111000E153FA4F60832C93E22FF0E0E153FA4F52
:101120005083DF91CF911F910F91FF90EF90DF904F
:10113000089583E0860FE82FF0E0E257FB4F20830D
:10114000E1E0E60FF0E0E257FB4F1082F801808308
:10115000D7CF87FFA3CF80E3850F831BC82FD0E0B5
:10116000C257DB4F2883E8018883F0E0E153FA4F50
:1011700080818F5FECCF962F282F22952F70362FEE
:1011800032953F70321337C0242F861708F58F5FD2
:10119000E82FF0E0E257FB4F90819923C1F36813E9
:1011A0002AC02F5FE22FF0E0E257FB4FE081EE23F1
:1011B000C1F3809130088E23F1F4F0E0E259FA4F48
:1011C000E081E770F0E0EF59F64F8081817008957B
:1011D0008150E82FF0E0E257FB4F20812223C1F33A
:1011E000841309C09150E92FF0E0E257FB4FE081F2
:1011F000EE23C1F3DECF80E00895FC0180918D02E3
:10120000882311F13FB7F89482E08093E9002091A0
:10121000F200822F90E01816190614F481E090E095
:10122000882339F0289844E640938C024091F100DD
:101230004083222339F02091F200211103C02BE6D4
:101240002093E8003FBF08958FEF9FEF08952FB7D9
:10125000F89483E08093E9009091E800892F8072F0
:1012600095FF04C09091F20080E4891B2FBF089580
:101270008091840281110DC082E08093800284E01D
:1012800080938102109283021092820281E0809307
:10129000840280E892E00895CF93DF931F92CDB748
:1012A000DEB76983DC01ED91FC910280F381E02DD2
:1012B00041E050E0BE016F5F7F4F09950F90DF91D5
:1012C000CF91089583E08093E9008091F200882314
:1012D00019F08AE38093E80008950E94270990E0BE
:1012E0000895CF93DF931F92CDB7DEB7FC018485BD
:1012F000958597FD08C02FEF3FEF358724870F9026
:10130000DF91CF910895CE0101960E94FD080197CB
:1013100019F4898190E0F3CF8FEF9FEFF0CF0F9317
:101320001F93CF93DF931F92CDB7DEB78C01FC01E3
:101330008485958597FF0BC0CE0101960E94FD081C
:10134000019771F4898190E0F80195878487F8010D
:10135000848595850F90DF91CF911F910F9108950E
:101360008FEF9FEFF1CFFC018485958597FD0BC032
:101370009FB7F89482E08093E9008091F2009FBFCC
:1013800090E0019608959FB7F89482E08093E90079
:101390008091F2009FBF90E0089540912A02509101
:1013A0002B02209128023091290242175307B4F4EE
:1013B0009091E8009570E1F39091E80092FD19C0DA
:1013C0008093F10080912A0290912B0201968F73F5
:1013D0009927892B19F48EEF8093E80080912A02D7
:1013E00090912B02019690932B0280932A0281E028
:1013F000089580E00895EF92FF920F931F93CF938B
:10140000DF93F82E192FE62E042F81E0860F880F28
:101410000E94CD0983E00E94CD09CF2DD12FEC0E83
:10142000FD2EF11CCE15DF05B9F007FF13C0FE013C
:1014300084910E94CD09182F80E00E94CD0981235C
:1014400021968111EFCFDF91CF911F910F91FF90E6
:10145000EF9008958881EDCF81E0F5CFDF92EF9294
:10146000FF920F931F93CF93DF93D82E8A01EB0146
:101470007B01E40EF51ECE15DF0559F0D7FE12C034
:10148000FE0184910E94CD0921968111F4CF0FEFC6
:101490001FEFC801DF91CF911F910F91FF90EF9047
:1014A000DF9008958881EECF0F931F93CF93DF9342
:1014B0001F92CDB7DEB782E0898342E450E064ED4D
:1014C00077E080E80E942E0A0E943809DC0112961B
:1014D0000D911C910115110589F0D801ED91FC9138
:1014E0000280F381E02DBE016F5F7F4FC801099537
:1014F00097FD04C0F80100851185ECCF89810F901C
:10150000DF91CF911F910F910895615030F020919C
:10151000F100FC0120830196F8CF289884E680939F
:101520008C0208953FB7F89480913F01909140015B
:10153000A0914101B091420126B5A89B05C02F3F63
:1015400019F00196A11DB11D3FBFBA2FA92F982FE9
:101550008827BC01CD01620F711D811D911D42E0E4
:10156000660F771F881F991F4A95D1F708958F92AC
:101570009F92AF92BF92CF92DF92EF92FF926B0158
:101580007C010E94920A4B015C01C114D104E10468
:10159000F104B9F00E94920A681979098A099B0935
:1015A000683E73408105910580F321E0C21AD1089D
:1015B000E108F10888EE880E83E0981EA11CB11C9A
:1015C000E4CFFF90EF90DF90CF90BF90AF909F90CF
:1015D0008F90089565E070E080E090E00C94B70A89
:1015E0008F929F92AF92BF92CF92DF92EF92FF9233
:1015F0000F931F93CF93DF936C017B018A0180913E
:101600000B01882309F45CC080918D02882309F4C2
:1016100057C080912F0280FF05C08091E00082605A
:101620008093E000E801B12C8AEFA82E93E0892E88
:101630002AE3922E209711F4BB20D9F10E942709AA
:1016400081110AC0AA94AA20D9F161E070E080E07B
:1016500090E00E94B70AEECF8C171D0611F00CF037
:101660008C2F9FB7F8948092E9002091E80025FD27
:1016700002C09FBFDFCF282F30E0C21BD30BF70182
:10168000815020F041914093F100FACFE20EF31E19
:10169000BB2021F09092E800B12CEBCF8091E800C4
:1016A00085FDE7CF9092E800BB24B394209709F31F
:1016B000F3CF5D9884E680932E02101611063CF05D
:1016C00081E090E0F6019383828310E000E0C8019E
:1016D000DF91CF911F910F91FF90EF90DF90CF900E
:1016E000BF90AF909F908F9008958EBD00000DB475
:1016F00007FEFDCF08955C9808955C9A089590E1E7
:10170000699FB001112480FD03C071956195710935
:10171000CB010895282F30E083FB882780F996E0DD
:10172000359527959A95E1F72270822B8D5F089564
:101730008F929F92AF92BF92CF92DF92EF92FF92E1
:101740000F931F93CF93DF93A0912F0625E0A29FC5
:10175000F0011124E95DFA4FAF5FA0932F06A29F1D
:10176000D0011124A95DBA4F238113962C931397AE
:10177000248114962C9314978C9311969C93119713
:10178000382F392B387899F4E82FF0E0E257FB4FE7
:10179000409130083EEF341B4081340F383038F030
:1017A000E92FF0E0E257FB4F30812F5F311120E04D
:1017B00014962C931497382F3777292F2777D22E0A
:1017C000432F50E08A0102571B4FF80120816D2DF5
:1017D00070E0FB01E257FB4F7F01C080CC2DD0E0D1
:1017E000CC20A1F0FE01E259FA4FE081E770F0E071
:1017F000E851F64F9490A0903008F0E6AF26B12C57
:10180000F501E153FA4F8080891880821296CC92BC
:1018100012974059564FFA014491FB01E059F64F97
:10182000E491E42313964C911397E4231396EC93DD
:101830001397592F5878482F4078452BA1F197FFDF
:1018400061C0A22EB12C0E948A0BF501E257FB4F1A
:10185000DF01A052BF4F1C92EF5BFE4F9FEF9083C2
:1018600040913008A42FB0E0833009F43CC0AF575A
:10187000BA4FEC912FEF2E0F2C93E22FF0E0E259AC
:10188000FA4F90913008980F9083E82FF0E0E851DC
:10189000F64FE491A0913008B0E0A153BA4F8C917B
:1018A0008150E80FEC93F7012083F8011082E22FBA
:1018B000F0E0E153FA4FD082C153DA4F8FEF8883C3
:1018C0008091300890E6892780933008DF91CF918E
:1018D0001F910F91FF90EF90DF90CF90BF90AF904E
:1018E0009F908F900895FD01E058FA4F2081922F2C
:1018F0009F5F9083E22FF0E0E259FA4F9091300819
:101900009D5FC2CF93FF2AC0D316D8F4ECEFE30F4C
:10191000F0E0BF0162577B4FFB01408112964C9370
:1019200012973150832F90E082579B4FFC014083E8
:10193000FB0110821296EC91F0E0E153FA4F3083F4
:10194000B2CFE3E0E30FF0E0BF0162577B4FFB0152
:10195000408112964C9312973F5FE4CF87FFA3CF4D
:10196000409130088D2D841B805D90E082579B4F05
:10197000FC01308112963C931082A32FB0E0A1535A
:10198000BA4F8FEF8C9380E6E42FE827F0E0E15325
:10199000FA4F80818150808386CF8FB18095807F80
:1019A000669B88601C9B8460909143018927E0E3DB
:1019B000F1E021E050E040E0382F322399F030810F
:1019C0003F5F343160F43083220F5F5F31965830CF
:1019D00099F79093380194279093430108951082CA
:1019E000422BF2CF1082F0CFCF93DF938BED91E0BB
:1019F0004EE854E0DA0130E020E0ED91EE23B9F05A
:101A0000F0E0E259FA4FEC01C20FD31F6081688306
:101A10002F5F3F4F2830310581F70896405F5F4FB9
:101A200022E08B31920731F7DF91CF910895ECE0FE
:101A3000F1E0E9CFCF93C82F0E947B0B81E20E9497
:101A4000750B80E40E94750B8FE70E94750B0E9456
:101A50007D0B8C2FCF910C948C06CF93C82F0E94B6
:101A60007B0B81E20E94750B80E00E94750B8FE377
:101A70000E94750B0E947D0B8C2FCF910C948C06CD
:101A800098E0899F90011124260F311D8830E8F0DD
:101A9000683030F0F901E35BFD4F908190689083EE
:101AA000F901E25BFD4F97E04191DF01119740683A
:101AB0004C939150C9F790911C02983330F4F9017E
:101AC000EB5AFD4F908190689083683048F4F9019B
:101AD000EB56FD4F90819F679083883360F00895A7
:101AE000F901E357FD4F90819F679083683378F346
:101AF000883318F00895683030F0F901E357FD4F4E
:101B0000808180688083F901E257FD4F87E09191E1
:101B1000DF01119790689C938150C9F7683350F7A3
:101B2000F901EB56FD4F8081806880830895DB01C9
:101B3000FC0124912C933196E4911196EC9311972A
:101B4000FC013296E4911296EC931297FC013396C5
:101B5000E4911396EC931397FC013496E491149658
:101B6000EC931497FC013596E4911596EC93159738
:101B70000696FC01849116968C930895CF92DF927D
:101B8000EF92FF920F931F93CF93DF9387E0E82E9E
:101B90000EE812E097E0D92ECD2CCE18E801F12CFA
:101BA00080911B028823A1F1ED2DEF198E2D28E0E5
:101BB000829FC0011124E80FF92FF11DE552FE4F5D
:101BC0002081222351F1822F877090E025FF23C0CE
:101BD0000197D89E9001D99E300D1124C901845FD0
:101BE0009C4FBE010E94970D2896F39488E0F8124E
:101BF000D7CF005C1F4FEA942FEFE212CDCFDF91D9
:101C0000CF911F910F91FF90EF90DF90CF900895AB
:101C10008C2DEF2DCCCF0596DCCF8C2D8F0D80FD3C
:101C2000E3CFBE0183E193E0DDCF98E0899FF0012F
:101C30001124E07CF770E40FF11DE257FD4F982F5F
:101C400097702FEF30E001C0220F9A95EAF790814C
:101C5000922B9083E05CFF4F887F885F70E06F5F1E
:101C60007F4F9FEF885F8617170609F024F4908353
:101C7000E05CFF4FF7CF6770772781E090E001C00D
:101C8000880F6A95EAF781509081892B80830895A7
:101C9000282F277091E001C0990F2A95EAF728E0D4
:101CA000829FF0011124E07CF770E60FF11DE257EE
:101CB000FD4F461738F08191DF011197892B8C93E6
:101CC0006F5FF7CF089598E0899FF0011124E07CC1
:101CD000F770E60FF11DE257FD4F877021E030E00D
:101CE00001C0220F8A95EAF78081822B80830895B4
:101CF000CF92DF92EF92FF920F931F93CF93DF93D8
:101D0000D82F062FC42F122FFF24FA94F20EEE24A0
:101D1000E394E60E4F2D6E2D0E94480E4F2D6E2D32
:101D20008C2F0E94480EDD24DA94DC0ECC24C39460
:101D3000CD0E402F6D2D8C2D0E94150E412F6D2D37
:101D40008C2D0E94150E0E5F602F8C2D0E94630E4D
:101D50001250612F8C2D0E94630E602F8D2D0E94DA
:101D6000630E612F8D2D0E94630EDE5F6E2D8D2F11
:101D70000E94630E6F2D8D2F0E94630EC2506E2D38
:101D80008C2F0E94630E6F2D8C2FDF91CF911F91AE
:101D90000F91FF90EF90DF90CF900C94630EAF9275
:101DA000BF92CF92DF92EF92FF920F931F93CF9348
:101DB000DF9338E0439FF0011124E07CF7702E0F91
:101DC0003F2F311D22573D4F4770042FEFE1F0E0C8
:101DD000DF01042E01C0AA0F0A94EAF758E0541B51
:101DE000C52F02C0F595E7955A95E2F77C01BA2E0A
:101DF000B0949E2F9095662309F43FC0F70141915E
:101E00007F01442309F439C087ECC82E81E0D82E25
:101E10004150F601141634F4A491B0E01196CA0EA4
:101E2000DB1EF6CF7491A22ED90131968A2F8A1922
:101E3000871740F0472F50E04F5F5F4F240F351F4B
:101E40006150D9CF449150E08C918B216A01002ED2
:101E500001C0CC0C0A94EAF78C298D93DF968C9103
:101E6000DF9789230C2E02C0559547950A94E2F717
:101E7000482BDF964C93DF97D8CFDF91CF911F91FE
:101E80000F91FF90EF90DF90CF90BF90AF900895AB
:101E9000CF93DF93CDB7DEB760970FB6F894DEBF70
:101EA0000FBECDBF613108F060E1FC01CE010196AB
:101EB000DC0134913D9331963A2F381B3617C8F325
:101EC0000E94CF0E60960FB6F894DEBF0FBECDBF56
:101ED000DF91CF9108952EE34EE060E080E00E9414
:101EE000780E80912402811107C083EA93E02CE0F0
:101EF00045E069E00C94480F8EED92E0F8CFDF9258
:101F0000EF92FF920F931F93CF93DF9300D000D0F7
:101F1000CDB7DEB7F82E162F4CE0460F2EE360E06B
:101F2000812F0E94780E809126029091270242977D
:101F300021F18091DA01F81220C032E0D32ED10EC7
:101F400003E04AE0E42EE10E602F8D2D0E94630E27
:101F5000602F8E2D0E94630E0E5F0D33A9F703E0F4
:101F6000E02EE10E62E08E2D0E94630E6CE38E2D5A
:101F70000E94630E0E5F0B3099F78F2D90E026E0E4
:101F8000959587952A95E1F7FC01EF5DFD4F00815E
:101F90001C5F002361F188529E4FFC018081845EAA
:101FA0008C8324E0412F61E0CE0104960E94CF0E85
:101FB0008AE289838EE28A83025F0B832BE0412FC2
:101FC00063E0CE0101960E94CF0E8091260290918F
:101FD0002702089799F40F900F900F900F90DF91C0
:101FE000CF911F910F91FF90EF90DF90089524E023
:101FF000412F65E087EA92E00E94480F8EEF92E061
:10200000F5FC02C089EF92E023E2412F65E00E94D7
:10201000480FE1CFDC019C91992319F1E7ECF1E045
:10202000915098F41196952F6150D9F08D91882395
:10203000C1F0E7ECF1E0815080F04491242F30E0D2
:102040002F5F3F4FE20FF31FF6CF5491252F30E063
:102050002F5F3F4FE20FF31FE3CF81E0840F980F14
:10206000E3CF892F08956F927F928F929F92AF92C4
:10207000BF92CF92DF92EF92FF920F931F93CF9375
:10208000DF9300D0CDB7DEB710911B0260E01111D5
:1020900001C062E380912E010E947F0F62E3111163
:1020A00001C060E080912D010E947F0FC0909901D6
:1020B000D0909A012FEFC21AD20A7601F694E794D3
:1020C000809126029091270236E0E316F104B8F5DC
:1020D00046E050E04E195F09842F880F880F142FB7
:1020E000181B110F145D0BE027E0922E32E3832EB4
:1020F00040E4742E58E1652E1E3008F43FC0099D5F
:10210000C00111249C012B5B3E4F59018091990124
:1021100090919A01802767E080FD16C0C9010E9456
:102120000A1086958F3008F08EE0262D281B412F4F
:1021300067E0C5010E94CF0E16500150DDCF1CE2B2
:10214000429789F616E2CFCFC9010E940A10482FA4
:1021500050E09A012F5F3F4F35952795982D921BA0
:10216000292F490F511D4134510514F0272D281BEB
:10217000412F67E0C5010E94CF0EDFCFA09026025D
:10218000B090270222E1A216B104E9F410913901BE
:10219000163041F420E04CE269E085ED92E00E94C7
:1021A000480F11C0123078F020E04CE265E080ED7D
:1021B00092E00E94480F133009F464C008F051C047
:1021C000123009F459C0E114F104D1F1C7016AE0F9
:1021D00070E00E947F33825F8A83C60164E170E011
:1021E0000E947F33625F698336E0E316F10408F0F2
:1021F00055C046E050E04E195F09842F880F880FC4
:10220000142F181B110F145D07E189818E3009F01E
:102210004DC08A818E30A1F024E0412F61E0CE01D3
:1022200002960E94CF0E8A818E3009F048C00A8340
:1022300089818E3009F040C0098316501E3028F77E
:102240000F900F90DF91CF911F910F91FF90EF9022
:10225000DF90CF90BF90AF909F908F907F906F90C6
:1022600008951430A9F0153009F0ADCF26E14CE205
:1022700069E08DEA92E093CF26E14CE268E088ECD9
:1022800092E08DCF26E14CE26AE08EEB92E087CFC0
:1022900026E14CE268E086EB92E081CF1CE282E12D
:1022A000A816B10409F0B0CF16E2AECF20E0412F5E
:1022B00062E0CE010196B5CF81508983BECF8150B7
:1022C0008A83BBCF28E04EE852E0DA01BC01605CB3
:1022D0007F4FFC0134913D933196E617F707D1F714
:1022E000405C5F4F215080589F4F2111EECF0895E1
:1022F000DC012D913C9111971296EC91E20FF32F96
:10230000F11DED50FF4F80810895AF92BF92CF92A3
:10231000DF92EF92FF920F931F93CF93DF9300D042
:102320001F92CDB7DEB7E0E6C82ECE26AC2DB0E0CA
:10233000A153BA4F9C91911130C08B01E82E282FE8
:1023400030E0F901E153FA4FF080F11018C06091CC
:102350003D0880912F060E947F0BF80191838083B6
:1023600081E00F900F900F90DF91CF911F910F910F
:10237000FF90EF90DF90CF90BF90AF90089592E0E4
:10238000980F8AE08E0D891751F0E92FF0E0E153A4
:10239000FA4F40819F5F47FDF6CF80E0E2CFF3E048
:1023A000FF15A8F694E0F916C1F320583A4FF90149
:1023B0009081D12C981749F0E82FF0E0E153FA4FC3
:1023C000208127FFD3948F5FF5CF8EE894E09A8326
:1023D0008983EB82CE0101960E9478119B81905EE9
:1023E00030E09817E9F0482F50E0FA01E153FA4F36
:1023F000608167FD13C042595A4FFA01208127704E
:10240000243061F4262F22952F70262720FBAA2442
:10241000A0F8B12CA5014F5F5F4F342B8F5FE1CF48
:10242000F6E0FF1204C082E0D81609F490CFE394DE
:10243000EE2DF0E0E153FA4F8081C394EC2DF0E0F3
:10244000E153FA4F2081422F50E064E055954795C3
:102450006A95E1F72770682F62956F70641B062EEE
:10246000000C770B77FF03C0719561957109877038
:10247000821B082E000C990B97FF03C09195819544
:102480009109680FF6E0FF1223C081E0D81220C046
:1024900030FD18C08EE0821B240F841B281708F41F
:1024A000822F94E0F99E90011124820F932F911DA9
:1024B000880F991F861B910934E0880F991F3A9560
:1024C000E1F74BCF842F821B295F241B895FE6CF66
:1024D000440F87E090E0841B910997FF03C091951A
:1024E00081959109220F47E050E0421B510957FFA7
:1024F00003C0519541955109840FD3CF635070E0CB
:102500009B0143E0220F331F4A95E1F7287056E004
:10251000660F771F5A95E1F76078622BFC012081E6
:102520002777622B608308950F931F93CF93DF93D8
:1025300000D0CDB7DEB7FC017A8369839A81892FF9
:10254000877782958F70841759F0CF010296718337
:1025500060830F900F90DF91CF911F910F9108959D
:102560008F0190689A8360912901CE0101960E94A3
:102570007E12FC0180819181F801918380836091BA
:102580002C01CE0101960E947E12FC018081918176
:10259000F8019383828360912A01CE0101960E9403
:1025A0007E12FC0180819181F80195838483609182
:1025B0002B01CE0101960E947E12FC01C8010896F3
:1025C00020813181F80137832683C3CF882329F006
:1025D00090E483FF90E28770890F0895DC01EC910D
:1025E000F0E0EF59F64F8491E62F660FFF0BE752AC
:1025F000F74FE491E82381E009F480E00895FC01BD
:1026000080818770843018F097E0981B892F089597
:10261000CF93FC01208130E044E0359527954A9521
:10262000E1F7C7E0C21B611101C0C22FCC0FCC0F74
:102630000E94FF128C0FCF9108952F923F924F92DC
:102640005F926F927F928F929F92AF92BF92CF9242
:10265000DF92EF92FF920F931F93CF93DF93CDB74B
:10266000DEB764970FB6F894DEBF0FBECDBFC82E9D
:1026700081E06C2C6826A0E4DA2E80E0CC2019F0F2
:10268000F0E2DF2E87E0FE0131965E012BE0A20E24
:10269000B11C4F018193EA15FB05E1F780E65D2C43
:1026A000582642E0450D5AE0550DE12C541709F12A
:1026B000E42FF0E0E153FA4F808187FD18C0E394E6
:1026C000282F30E0E4E035952795EA95E1F787700B
:1026D00090E00196F401E80FF91F8081CC2021F0F1
:1026E000821720F4282F02C02817E0F320834F5FC1
:1026F000DDCF30ED3D0D388B62E0762E7D0C7AE03B
:10270000372E3D0C10E000E08EEF482E4D183714A8
:1027100009F48AC0E72DF0E0E153FA4FF080FB8620
:10272000F7FC53C0E394662DC5010E940813E82FFF
:10273000F0E0EE0FFF1FE850F64F85919491080FDF
:10274000191FC5010E94FF12EF2D6889E61BAFEF2C
:10275000AE0FB0E0A257BB4F9C91940D983048F05B
:10276000EF5FF0E0E257FB4F9081940D40E098302E
:1027700058F4E82FF0E0EE0FFF1FE858F44F2591D2
:102780003491020F131F41E09F2D92959F702F2DC2
:10279000277030E0F401E20FF31F5081C11017C021
:1027A000951798F0E2E0F0E0EC0FFD1FE20FF31F49
:1027B0005081951750F0E3E0F0E0EC0FFD1F2E0F75
:1027C0003F1FF90120819217B8F47394A0CF5917D5
:1027D000E0F3E2E0F0E0EC0FFD1FE20FF31F5081A9
:1027E000591798F363E070E06C0F7D1F260F371FB9
:1027F000F9012081291748F3E82FF0E0E053FF4F5B
:10280000CF01880F991FFC01E850F64F25913491B4
:10281000020F131F4423C9F2FC01E050F64F8591CB
:102820009491080F191FD1CFFEE0FE1510F42FE090
:10283000E22EED2DF0E0E058FA4F20812C8BF12CA8
:102840003CEEE30EF11CEE0CFF1CB7016850764F16
:102850001B01198A8EEF482E4D1892EF892E9BE0AE
:10286000992E7C89771609F448C0E72DF0E0E153F2
:10287000FA4FC080CB86C7FC3EC0662DC5010E94C2
:102880000813E82FF0E0EE0FFF1FE85CF54F85918D
:102890009491080F191F8889C81AEFEFEC0DF0E02A
:1028A000E257FB4F8081840D883048F0C394EC2DB3
:1028B000F0E0E257FB4F8081840D883068F4C50159
:1028C0000E94FF12E82FF0E0EE0FFF1FE058F44FD8
:1028D00085919491080F191FF10185919491080F2A
:1028E000191F9989992329F0F40185919491080F72
:1028F000191FE1E0E98B7394B4CFE1E0E50DF0E05E
:10290000E153FA4F40808EE894E09C878B87DD8608
:10291000C5010E947811C82E8D85805E888B970135
:102920002852364F1901812C712C74EFA72E7BE0B1
:10293000B72E38893C1509F491C08C2D90E0BC016C
:1029400062577B4F7B01FB01EF5BFE4F90809F86C0
:1029500097FC75C0662DCE010F960E940813F701F3
:10296000E052FF4FE081E770EE87E450EE2EF12C4D
:10297000F70155E0EE0FFF1F5A95E1F7E05CFF4FBE
:10298000E80FF11DEE0FFF1FE850F64F859194916F
:10299000080F191F642D6919CE010E960E94EE12C0
:1029A000882349F0F701EE0FFF1FE855F44F85919A
:1029B0009491080F191F8E85982F937009F441C0C8
:1029C000853061F4F10185919491080F191F7720EA
:1029D00059F1F50185919491080F191F892D8F7078
:1029E0008F8728E0FF24F3949F85E92FF0E0E257DA
:1029F000FB4F80818250382F3D19383000F1851906
:102A0000883008F4F12C905F9F87215069F7CE0140
:102A10000F960E94FF12E82FF0E0F11008C0EE0FB1
:102A2000FF1FE057F44F07C077247394D7CFEE0F02
:102A3000FF1FE857F44F85919491080F191FC39415
:102A400078CF892D82958F709826792D71707A8B29
:102A50001B8A8A899B890196882AF1CF83E0881294
:102A600006C0EEEAFBE085919491080F191FE1E0A2
:102A7000ED0DF0E0E153FA4FF080FE86662DCE01B9
:102A80000E960E940813E82FF0E0EE0FFF1FE85C9F
:102A9000F44F85919491080F191FE0EFF9E048EF8A
:102AA00059E090E034918F2D830FA82FB0E0A2570A
:102AB000BB4F2C912D2111F49F5FF6CF31964E170D
:102AC0005F0781F79C3008F09CE0E92FF0E0EE0F03
:102AD000FF1FEA50F44F85919491800F911F6496E7
:102AE0000FB6F894DEBF0FBECDBFDF91CF911F911F
:102AF0000F91FF90EF90DF90CF90BF90AF909F909D
:102B00008F907F906F905F904F903F902F9008959F
:102B10000F931F93CF93DF9300D0CDB7DEB7809193
:102B200032089091330801969093330880933208CD
:102B3000BE016F5F7F4F809130080E948511811127
:102B400028C090913008BE016F5F7F4F80E68927D3
:102B50000E948511811116C081E00E941D138C0115
:102B600080E00E941D139801281B390BC901E0EF7A
:102B7000FBE02091300825FF15C025913491820F8C
:102B8000931F05C089819A819195819591099A83B6
:102B9000898389819A810F900F90DF91CF911F9146
:102BA0000F91089525913491281B390B3A8329837D
:102BB000F0CFDC01EC910E2E000CFF0BE15BFE4F21
:102BC00084910895DF92EF92FF920F931F93CF931A
:102BD000DF93CDB7DEB72A970FB6F894DEBF0FBEEE
:102BE000CDBFF82E8091300820E62827E0EDEF0DCC
:102BF000E20FAFEFAE0FB0E0A257BB4F1C919EEFBC
:102C0000981B312F390F383088F580E2821B82956E
:102C1000869587709F2D92959F70891709F4FDC046
:102C200080E01123A9F0EF2DF0E0E257FB4FE081A7
:102C3000F0E0E259FA4FE081E770F0E0E759F64F33
:102C40000491080F80912F068C3009F0E8C0802F86
:102C50002A960FB6F894DEBF0FBECDBFDF91CF919D
:102C60001F910F91FF90EF90DF900895EF5FF0E0DC
:102C7000E257FB4F1081910F983038F21AE0180F8D
:102C8000E82FF0E0E058FA4F0081101789F0E12FAB
:102C9000F0E0E153FA4F808187FD08C06F2D681B7B
:102CA0008CE291E00E94EE128111BACF1F5FEDCF4E
:102CB000809130082EE834E03A8329838B83CE015B
:102CC00001960E947811182F8B8130E2E32EE80ED6
:102CD000E11651F1812F90E0FC01E153FA4F0081A0
:102CE00007FD20C082599A4FFC0180818770843093
:102CF000C9F4DF2CD01A6D2D8BE291E00E94EE1208
:102D0000882381F0DC82CE0104960E94D915080F39
:102D1000E02FF0E0E257FB4F90819923C1F30F15AC
:102D200009F47ECF1F5FD4CF809130082EE834E0C5
:102D30003D832C838E83CE0104960E947811182F38
:102D40008E8120E2E22EE80EE11651F1812F90E013
:102D5000FC01E153FA4F008107FD20C082599A4FD0
:102D6000FC01808187708530C9F4DF2CD01A6D2D6D
:102D70008AE291E00E94EE12882381F0DF82CE0188
:102D800007960E94D915080FE02FF0E0E257FB4F9D
:102D900090819923C1F30F1509F442CF1F5FD4CF5F
:102DA000809130082EE834E038872F838987CE0160
:102DB00007960E947811182F898590E2E92EE80E77
:102DC000E11609F441C0812F90E0FC01E153FA4F74
:102DD000008107FD20C082599A4FFC0180818770D5
:102DE0008630C9F4DF2CD01A6D2D89E291E00E9463
:102DF000EE12882381F0DA86CE010A960E94D91558
:102E0000080FE02FF0E0E257FB4F90819923C1F3C8
:102E10000F1509F405CF1F5FD3CF80E202CFA12F9A
:102E2000B0E0A153BA4F1C91812F9F2D0E94980BA7
:102E30008F2D0E94E215E82E812F9F2D0E94DA0728
:102E4000802F8E1987FF04CF80E002CFCF93DF93CE
:102E50000E948815EC01E0912F0685E0E89FF001C3
:102E60001124E95DFA4F8281882349F081818777B7
:102E70000E94E21599E18902C00DD11D1124CE01F5
:102E8000DF91CF9108952F923F924F925F926F9270
:102E90007F928F929F92AF92BF92CF92DF92EF92EA
:102EA000FF920F931F93CF93DF9300D000D01F9218
:102EB000CDB7DEB78C016C01DC01612C412C6616AC
:102EC000F9F011968C91119787FD08C0E82FE777EC
:102ED000F0E0E257FB4F9081992379F0E42DF0E088
:102EE000EE0FFF1FE00FF11F9C91208131811196A1
:102EF0003C932E9390838183439463941296DFCF07
:102F00002EE1241510F47FE1472E60ED262E65E0BA
:102F1000362E78015101712C741409F43CC0D7018C
:102F20008D909C9011971196BC91BB83B7FF23C0E5
:102F3000F70180810E948A0BE82FF0E0E759F64FF5
:102F4000E4915CEF552E5E0E80912F068C3059F087
:102F5000C4010E94980B8B8187770E94E215581A52
:102F6000C4010E94DA07D5015D925D017394B2E05D
:102F7000EB0EF11CD1CFEB81E777F0E0E257FB4F8E
:102F8000E081F0E0E259FA4FE081E770F0E0E759C4
:102F9000F64F5490D9CF672DC8010E94330620ED1B
:102FA00035E0962C90E080E0B12C4DEB5EEFFA011D
:102FB000EE58F4407F01B714D8F5D9014D919D0129
:102FC00047FF33C0962C9718D801A80FB91FF701F7
:102FD000E20FF31FE90DF11DEE0FFF1FAF01400FD0
:102FE000511F5D834C83AB2CBC01615071098C90E7
:102FF00011965C901197EC81FD8141915191FD8377
:10300000EC834D935D93AF0142505109FA018082E8
:103010004C815D81481B590B460F571FFA015082A6
:10302000A3947A10E4CF9B0C7B2CB3940296C3CF6D
:10303000711064C0FEE1792CF91510F42FE1722EA5
:10304000812C871409F456C06090300866FA662413
:1030500060F8D601EC91E777EA83F0E0E257FB4FA6
:10306000E081F0E0E259FA4FA080BA2DB770AB2EA4
:10307000AA94AA94E5E0EA1508F4A12CD6011196C9
:103080008C9187778983662DCE0101960E94081363
:10309000B0E2AB9E50011124F501E80FF11DEE0FD7
:1030A000FF1FE850F64FE590F490662DCE01029692
:1030B0000E940813F501E80FF11DEE0FFF1FE85005
:1030C000F64F85919491F701E81BF90BCF018138F8
:1030D000FFEF9F0714F481E89FEF8038910514F00B
:1030E0008FE790E0D1018D931D018394B2E0CB0E68
:1030F000D11CA7CF682DC8010E943306892D0F90DF
:103100000F900F900F900F90DF91CF911F910F9123
:10311000FF90EF90DF90CF90BF90AF909F908F90F7
:103120007F906F905F904F903F902F9008959F9267
:10313000AF92BF92CF92DF92EF92FF920F931F93C5
:10314000CF93DF9300D000D01F92CDB7DEB7A0E3BE
:10315000A60FA81B9EEF981B2FEF2A0FE22FF0E07F
:10316000E257FB4F2081290F283008F48CC0AF5F55
:10317000B0E0A257BB4F2C91920F983008F483C057
:10318000062F182F2AE0E22EE80EE82FF0E0E05894
:10319000FA4FD080ED1489F0EE2DF0E0E153FA4FB4
:1031A000608167FD08C0601B8CE291E00E94EE1216
:1031B000F82E811146C0E394EDCF802F90E09C0162
:1031C00022573B4F6901F901908080E680838EE8A9
:1031D00094E09A8389831B83CE0101960E94781123
:1031E000B82E8B8190E2A92EA80EAB14E1F18B2DA5
:1031F00090E0FC01E153FA4FE080E7FE02C0B39497
:10320000F4CF82599A4FFC018081602F6E196D8333
:1032100087708C83CE0104960E94EE12F82E8823CC
:1032200071F3CE0105960E94D915E80EEE2DF0E05F
:10323000E257FB4F90819923C1F30E11E0CFF601C5
:1032400090828F2D0F900F900F900F900F90DF9125
:10325000CF911F910F91FF90EF90DF90CF90BF9093
:10326000AF909F900895F60190821F5FE12FF0E0EC
:10327000E153FA4F8081602F681B86E291E00E9443
:10328000EE12F82EDECFFF24F394DBCF2F923F9285
:103290004F925F926F927F928F929F92AF92BF9266
:1032A000CF92DF92EF92FF920F931F93CF93DF9312
:1032B000CDB7DEB7AC970FB6F894DEBF0FBECDBF6B
:1032C0001C01F090300880E65F2C582610ED612E2E
:1032D0006F0C80E28F1990E09C0105E035952795F1
:1032E0000A95E1F73CA32BA34BA086E028272BA748
:1032F00031E03F0D3DA3832F90E0AC0141535A4F85
:103300005FA34EA3DA01EC90109231088EE894E0AE
:103310009A8F898F5B8ECE0149960E947811982EE4
:103320008B8D805E8CA78101DD24DA94C12CBCA535
:10333000B91509F4CEC0892D90E0FC01E153FA4F94
:10334000A080A7FC2EC082599A4FDC01EC91E77057
:103350009A2D9E199F8FF0E0EF59F64F8491E92F37
:10336000990FFF0BE752F74FE491E823E370C9F0A0
:10337000CE014F960E94D915782EBE2CB70CEB2D9E
:10338000F0E0F9A7E8A7E257FB4F90819923B1F34A
:10339000AB1009C0809131088E5F809331087AA606
:1033A000DA2C9394C4CF492F50E0FA01E259FA4F36
:1033B0008081282F20762F11F4CFF8E000321F07EC
:1033C00008F0C3C38B2C870CE82DF0E0E257FB4FCD
:1033D00020812223C1F3A810E4CF2C2D30E0EDE0B2
:1033E000F0E0EC0FFD1FE20FF31FB08241535A4F84
:1033F000EFEFDA01EC93C39441E050E04C0F5D1F16
:10340000240F351FD9019C938770833008F043C087
:10341000A62CAB0C872D877041F5EA2DF0E0E25722
:10342000FB4F80818111BDCF442D6B2D7A2DC801BA
:103430000E9494128C01A60CEA2DF0E0E257FB4F9B
:1034400080818111AECF88A599A5B4E09595879527
:10345000BA95E1F7BBA5B813A4CF8B2D8860F8010E
:103460008083A1820E5F1F4F9CCF8FEF8A0D881241
:1034700007C0442D6B2D782DC8010E9494128C0139
:10348000A3948A108ECF442D6B2D782DC8010E94F5
:1034900094128C0186CF8C8F6F8DCE014C960E943A
:1034A000EE12882309F47DCFD8019B2D970DFD01E5
:1034B0003296BC9211969C93DF018912F7CF8B2D27
:1034C0008F018719E81609F46CCFB0828183329698
:1034D000F7CFE0912F0625E0E29FF0011124E95D8E
:1034E000FA4F81818777B82E9E2D981BE82FF0E048
:1034F000E257FB4FE081F0E0E259FA4FE081E770DC
:10350000F0E0EF59F64F8491E92F092E000CFF0BE4
:10351000E752F74FE491E823EC7F69F0809131089E
:103520008F5F8093310891959C8FCE014C960E94BD
:10353000D9158AA7DB2C80913108882309F46FC044
:10354000833008F092C2E0912F0635E0E39FF0014E
:103550001124E95DFA4F8181877781018D1509F486
:10356000C7C08091310880FF69C1BD2CB6186FEFCC
:103570006B0DE62FF0E0E257FB4FE0818EEFE82E77
:10358000EF188E2F8E0D883060F4F0E0E153FA4F83
:10359000808187FD06C04BA17D2DC8010E94941239
:1035A0008C0161E06B0DE62FF0E0E257FB4FE0810C
:1035B0008E2F8E0D883060F4F0E0E153FA4F808159
:1035C00087FD06C04BA17D2DC8010E9494128C017D
:1035D000F8E000321F0708F0B8C2EAE0EE2EEF0C68
:1035E000EF2DF0E0E058FA4FA080AE1409F4E2C0ED
:1035F000EE2DF0E0E153FA4FB080B7FC0EC06D2D18
:103600006B198CE291E00E94EE12882331F0D80110
:10361000BC921196DC920E5F1F4FE394E6CF48E018
:103620000032140708F091C2E0912F0655E0E59FA3
:10363000F0011124E95DFA4FA3808F2D82958695C4
:1036400087708A2171F16FEF6E0DE62FF0E0E2577F
:10365000FB4F8081811125C0AEEFBA2EBE0CEB2D41
:10366000F0E0E257FB4F808181111BC0EDEFEE0DC2
:10367000F0E0E257FB4F8081811113C0852D0E943D
:10368000971881110EC06B2D852D0E9497188111FE
:1036900008C0D801EC928B2D886011968C930E5F38
:1036A0001F4FAF2029F161E06E0DE62FF0E0E257E9
:1036B000FB4F808181111CC0F2E0BF2EBE0CEB2DB0
:1036C000F0E0E257FB4F8081811112C0852D0E94EE
:1036D000971881110DC06B2D852D0E9497188111AF
:1036E00007C0F801E0828B2D886081830E5F1F4F39
:1036F000F8E000321F0708F028C2E0912F0625E00D
:10370000E29FF0011124E95DFA4F808183FF29CF08
:1037100081818777B82E80913108882311F0DB10E2
:1037200020CF88248A948B0CE82DF0E0E257FB4FE1
:10373000E0818EEFA82EAF188E2F8A0D8830B8F456
:10374000F0E0E153FA4F808187FD11C04B2D682DC9
:103750008E2D0E94BB0881110AC0882D8068D80177
:103760008C93862D8B0D11968C930E5F1F4F8824A2
:1037700083948B0CE82DF0E0E257FB4FE0818E2F15
:103780008A0D883008F0EDCEF0E0E153FA4F8081E9
:1037900087FDE7CE482D6B2D8E2D0E94BB08811131
:1037A000E0CE882D8068F8018083B60CB1820E5F70
:1037B0001F4FD7CEB8E000321B0708F0C6C18EE815
:1037C00094E09D8F8C8FFE8ECE014C960E947811D6
:1037D000E82E8E8D70E2A72EA80EAE1409F446C115
:1037E0008E2D90E0FC01E153FA4FB080B7FC24C06D
:1037F00082599A4FFC0180816D2D6B196AA38770E5
:103800008F8FCE014F960E94EE128823A9F0CE0131
:1038100082960E94D9159B2D980FE92FF0E0E25770
:10382000FB4F20812223C1F3D91206C0D801BC92DC
:103830001196DC920E5F1F4FE394CFCFB7E0083FA5
:103840001B0708F082C152E0A52EAF0C6AE0762E6D
:103850007F0C7A1409F44FC0EA2DF0E0E153FA4FDF
:10386000B080B7FC46C0862C8B0C7FEF780DE72F1D
:10387000F0E0E257FB4F80818076581206C0442D5D
:103880006B2DC8010E9494128C0171E0780DE72F16
:10389000F0E0E257FB4F80818076581206C0442D3D
:1038A0006B2DC8010E9494128C01E82DF0E0E257C4
:1038B000FB4F808181111DC0442D6B2D782DC801D7
:1038C0000E9494128C01860CE82DF0E0E257FB4F29
:1038D000808181110EC08B2D82958F70EBA58E1388
:1038E00008C08B2D8860D8018C9311968C920E5F46
:1038F0001F4FA394AECFEF2DF0E0E058FA4F408178
:1039000021E639E04A1519F1EA2DF0E0E153FA4FCA
:10391000908197FD1AC0B8E000321B0708F015C16E
:10392000E9E5F9E08491890FA82FB0E0A257BB4FD9
:103930005C915F2131F4D8019C9311968C930E5FBA
:103940001F4F31962E173F0769F7A394DBCF8EE800
:1039500094E098A38F8FF9A2CE014F960E94781120
:1039600069A1605E25E539E049E559E0681709F489
:1039700051C0E82FF0E0DF01A153BA4F9C9197FDB1
:1039800047C0B7E0083F1B0708F0DFC0E259FA4F15
:103990007081E72FE370E9F0E5E5F9E0A4903801E4
:1039A000B92E8301BA0CAB2DB0E0A257BB4F8C905F
:1039B000A82DAF2151F4A2E06A0E711CD8019C938E
:1039C0001196BC92882069F3830131964E175F07E8
:1039D00029F770FD1DC0E1E5F9E0B4904801792FA9
:1039E00084017B0DA72FB0E0A257BB4FAC90AA2D4E
:1039F000AF2151F4B2E08B0E911CD8019C9311962B
:103A00007C93AA2069F3840131962E173F0729F78A
:103A10008F5FACCF80913108882341F15101A0160E
:103A2000B10620F5F50181818777882E8E198C8F5C
:103A3000CE014C960E94D915FAA58F1779F0F8019E
:103A400092918291D5018D939C93950122503109D9
:103A500059018F0132E0A30EB11CE1CF9E2D980FCA
:103A60008916C1F3D912FBCFEACF810140E22416B7
:103A700048E0340608F069C0AEA1BFA1DC90AD2CCF
:103A8000B12CF501E257FB4F108230EF832E39E065
:103A9000932E48EF642E49E0742EF401E490ED0C6F
:103AA000EE2DF0E0E257FB4F80818F2161F46E2D07
:103AB000852D0E949718811106C0D801DC921196BD
:103AC000EC920E5F1F4FBFEF8B1A9B0A68147904AC
:103AD00021F7F501E257FB4F2DA12083CC20B9F04F
:103AE000CA948C2D90E0E1E0F0E0EC0FFD1FE80FB0
:103AF000F91FE081F0E0E153FA4F4DE050E04C0F48
:103B00005D1F840F951FDC018C918083E7CFC80176
:103B10008219930995958795AC960FB6F894DEBFF8
:103B20000FBECDBFDF91CF911F910F91FF90EF900E
:103B3000DF90CF90BF90AF909F908F907F906F90CD
:103B40005F904F903F902F900895CC20B9F0CA9489
:103B50008C2D90E0E1E0F0E0EC0FFD1FE80FF91F85
:103B6000E081F0E0E153FA4F2DE030E02C0F3D1FF3
:103B7000820F931FDC018C918083E7CF8FEFCCCF36
:103B8000CF9380E396E00E944619C82FE0912F065C
:103B900085E0E89FF0011124E95DFA4F84818436C5
:103BA000B8F40E94CF07811115C00E949B06823095
:103BB00098F490913108CC2331F081E0911101C04B
:103BC00080E0CF91089586E09111FBCF85E0F9CF99
:103BD00082E0F7CF84E0F5CF83E0F3CFCF93C091BD
:103BE0003008C093DA010E94C01D809339018230F1
:103BF00040F082E190E09093270280932602CF91DB
:103C000008952C2F30E056E0359527955A95E1F729
:103C1000F901EF5DFD4F8081882361F141E050E0C3
:103C2000222311F050E040E04F5D5D4FFA0190819A
:103C3000911105C0C5FBCC27C0F9C0931B0298E0C9
:103C40009093390890E0880F991F079641E050E063
:103C500002C0440F551F8A95E2F7509335084093F0
:103C60003408215E3D4FF901808180933D0888E052
:103C700090E0C1CFC6FBCC27C0F9C0931B0284E003
:103C800090E0B9CF5F926F927F928F929F92AF92A6
:103C9000BF92CF92DF92EF92FF920F931F93CF9339
:103CA000DF938C017B016A01622E0E944619782EF7
:103CB0008FEF781211C0DF91CF911F910F91FF907C
:103CC000EF90DF90CF90BF90AF909F908F907F90BC
:103CD0006F905F900C94261771102DC08091310861
:103CE0008823A1F0C62DD0E0DD57CE01DF91CF9122
:103CF0001F910F91FF90EF90DF90CF90BF90AF900A
:103D00009F908F907F906F905F90089560913D0895
:103D100080912F06DF91CF911F910F91FF90EF902F
:103D2000DF90CF90BF90AF909F908F907F906F90DB
:103D30005F900C947F0B0E9488158C159D050CF0EC
:103D400079C0EC018E159F050CF4E70190E0E92F96
:103D5000F0E0EE0FFF1FE00FF11F8181A82FA77782
:103D6000B0E0A257BB4F2C91211111C087FD0FC0AD
:103D7000808187FD0CC07A949150A72DB0E0AA0FE6
:103D8000BB1FA00FB11F2D913C91318320839F5FFA
:103D90009715E8F2672DC8010E944317E72CF12C14
:103DA000EE0CFF1CE00EF11E512CA12C93E8B92E55
:103DB0006394882499248C189D08571409F495CF8E
:103DC000F801808191810E94980B80912F068C30A0
:103DD000C9F40E948815919581959109A816B90694
:103DE0000CF45C01F801808191810E94DA07CA1508
:103DF000DB050CF4E5010E5F1F4FCC15DD05D4F497
:103E00005394DBCF209132083091330880913408ED
:103E1000909135088217930750F0442755274C1B83
:103E20005D0B262DB401C7010E94421ED4CF90E045
:103E300080E0D1CFE60159CF3F924F925F926F92CF
:103E40007F928F929F92AF92BF92CF92DF92EF922A
:103E5000FF920F931F93CF93DF93EC016B015A01F5
:103E6000422E502E10912F0685E0189FF00111244C
:103E7000E95DFA4F84818436B0F060913D08812F6E
:103E8000DF91CF911F910F91FF90EF90DF90CF9036
:103E9000BF90AF909F908F907F906F905F904F906A
:103EA0003F900C947F0B0E94CF078111E6CF0E94B8
:103EB0009B06823028F060913D0880912F06E0CF6C
:103EC0002091320830913308809134089091350860
:103ED0008217930708F4A0C0401670F180912F0656
:103EE0008C3099F4DF91CF911F910F91FF90EF905B
:103EF000DF90CF90BF90AF909F908F907F906F900A
:103F00005F904F903F900C948815242DA501B60129
:103F1000CE01DF91CF911F910F91FF90EF90DF9035
:103F2000CF90BF90AF909F908F907F906F905F9059
:103F30004F903F900C94421ECE010E944619182FBC
:103F40008F3F99F4DF91CF911F910F91FF90EF90E8
:103F5000DF90CF90BF90AF909F908F907F906F90A9
:103F60005F904F903F900C94261781111CC0809158
:103F70003108882309F49FCF642C712C8DE7781ABF
:103F8000C301DF91CF911F910F91FF90EF90DF90D0
:103F9000CF90BF90AF909F908F907F906F905F90E9
:103FA0004F903F900895682FCE010E944317E12E55
:103FB000F12CEE0CFF1CEC0EFD1E612C93E8792E0B
:103FC000312C4394882499248A189B0888819981EC
:103FD0000E94980B442755274C195D09052D242D67
:103FE000B401C7010E941C1F919581959109681623
:103FF00079060CF43C01888199810E94DA07C61485
:10400000D7040CF46301CA14DB040CF0B9CF339469
:1040100022961311DBCFB4CF712C612CB1CF0C944D
:1040200069330F931F93CF93DF930DE110E0CFEF30
:10403000DFEFC8010E940F209D2F9827892F8295BE
:104040008F708927282F30E09C2FA901542F4427F7
:104050005295507F84279527E90175E0CC0FDD1F2D
:104060007A95E1F7C827D9270F5F1F4F0E3F83E0EE
:104070001807F9F6CE01DF91CF911F910F910895A6
:104080001F920F920FB60F9211248F939F938091DE
:10409000E1009091E100937F9093E10083FF0FC0D6
:1040A0001092E90091E09093EB001092EC0092E303
:1040B0009093ED0010928D0298E09093F00082FFB3
:1040C00022C093E09093E9009091F200992319F0B7
:1040D0009AE39093E80090912E02992341F09091F9
:1040E0002E02915090932E02911101C05D9A9091F1
:1040F0008C02992341F090918C02915090938C0204
:10410000911101C0289A84FF18C08091E2008E7E30
:1041100081608093E2008091E1008F7E8093E100D6
:1041200080912F028E7E806180932F029F918F91CC
:104130000F900FBE0F901F90189580FFF7CF8091C2
:10414000E2008E7E80618093E2008091E1008E7EAD
:104150008093E10080912F028E7E8160E5CF1F92D7
:104160000F920FB60F921124CF92DF92EF92FF922F
:104170000F931F932F933F934F935F936F937F936F
:104180008F939F93AF93BF93EF93FF93CF93DF935F
:10419000CDB7DEB76C97DEBFCDBF1092E90080913E
:1041A000E80083FF25C068E0CE0145960E94850A9D
:1041B00082EF8093E8008D8987FF39C09091E800F5
:1041C00090FFFCCF982F907609F034C19E894F89DB
:1041D000588D2F89F88C911131C0803861F580910C
:1041E0002D028093F1001092F1008EEF8093E80091
:1041F0006C960FB6F894DEBF0FBECDBFDF91CF91A6
:10420000FF91EF91BF91AF919F918F917F916F91AE
:104210005F914F913F912F911F910F91FF90EF90E0
:10422000DF90CF900F900FBE0F901F9018959EEFCC
:104230009093E800C7CF1092F100D5CF913059F498
:104240008111D3CF4130510581F680912D028D7FB0
:1042500080932D02CACF933049F48111C6CF4130EB
:10426000510519F680912D028260F2CF953041F40C
:104270008091E80080FFFCCF20682093E300B5CF59
:10428000963009F0A9C00B8D1C8D22E01092E90038
:1042900010922B0210922A02F2122EC010922902C2
:1042A000109228020E94540A1F8299E09983FA8290
:1042B00091E09E8390EA98879AEF998720912A024D
:1042C00030912B02275F3F4F3C832B838D831092CD
:1042D000E90010922B0210922A02109329020093F7
:1042E000280249E050E0BE016F5F7F4F80E00E94EE
:1042F0002E0A0E94540A79CF1093290200932802B3
:104300000E943809DC0112960D911C9101151105CE
:1043100009F451C1D801ED91FC910480F581E02DA3
:10432000BE016B5E7F4FC8010995009709F03EC141
:10433000F80100851185EACFF3E0FF120EC08F89E6
:10434000882309F440C0823061F440E867E088E3E4
:1043500098E00E94FB09811148CF81E28093EB0035
:1043600047CF813029F440E86BE08CE298E0F1CF50
:10437000833099F70E943809DC011296ED90FC9089
:104380008E010F5F1F4F6801E114F10479F0D7012E
:10439000ED91FC910680F781E02DB801C7010995E8
:1043A000080F111DF701E084F184EECFD8011C92B3
:1043B000F60101900020E9F73197BF016C197D09E2
:1043C00040E0C601C6CF66E178E0FB01449150E0D1
:1043D00080E80E942E0A09CF973009F4BECF9830AA
:1043E00021F481E08093F10000CF993009F0FDCEF7
:1043F000837009F0B2CFEEE0F1E081E031E096E3C6
:104400002191222371F08093E9003093EB00DF01CA
:1044100011972C912093EC009093ED008F5F8730E3
:1044200079F78EE78093EA001092EA008F898093F3
:104430008D02DBCE8B8D9C8D1092E90010922B02A9
:1044400010922A029093290280932802898D81116B
:1044500092C08E899D89913A49F4813209F07DCFCD
:1044600047E050E064E071E080E0B3CF913209F0C2
:1044700074CF833269F48F89988DB0E0A0E0809387
:10448000000190930101A0930201B0930301ADCE0E
:10449000803269F48091E80082FFFCCF67E084E01D
:1044A00091E00E94850A8BEF8093E8009ECE8232D5
:1044B00009F09BCE8F8980930B01EEEFFFE785918A
:1044C00094918B3F9C4D51F1E0E0F8E08091040124
:1044D00090910501A0910601B0910701803B9440A5
:1044E000A105B105F1F480910B0180FD1AC0EE3FEA
:1044F0008AE0F80789F587E797E7918380838091C1
:10450000600080932C0288E19BE00FB6F894A89598
:10451000809360000FBE9093600067CEEEEFFAE0EC
:10452000D5CF808191818737974709F05ECEA895D6
:104530008091600088618093600080912C0280935C
:104540006000EE3F2AE0F20789F08091FE0A909128
:10455000FF0A9183808349CE8081918187379807B4
:1045600051F29093FF0A8093FE0AC5CF1092FF0A82
:104570001092FE0A3ACE0E943809DC0112960D9183
:104580001C910115110509F4E8CED801ED91FC91BB
:104590000190F081E02DBE016B5E7F4FC80109954F
:1045A000811123CEF80100851185EBCF181619066D
:1045B0000CF41BCED2CEF1E0FF12BECE6AE178E061
:1045C00004CF1F920F920FB60F9211242F933F9397
:1045D0008F939F93AF93BF9380913B0190913C0148
:1045E000A0913D01B0913E0130913A0123E0230FAB
:1045F0002D3758F50196A11DB11D20933A018093E6
:104600003B0190933C01A0933D01B0933E0180910A
:104610003F0190914001A0914101B091420101966A
:10462000A11DB11D80933F0190934001A0934101D2
:10463000B0934201BF91AF919F918F913F912F9184
:104640000F900FBE0F901F90189526E8230F02962B
:10465000A11DB11DD2CF1F920F920FB60F92112440
:104660003F924F925F926F927F928F929F92AF9202
:10467000BF92CF92DF92EF92FF920F931F932F93EF
:104680003F934F935F936F937F938F939F93AF93DA
:10469000BF93EF93FF93CF93DF93CDB7DEB76197CF
:1046A000DEBFCDBFE0912602F0912702E331F10594
:1046B00008F0BEC0E25AFC4D0C9493337123802362
:1046C000AB23BD23882493249324BE2408244524AB
:1046D000192540264D268B26E9263C271824182428
:1046E000672787EC93E00E94621180E00E942D0D05
:1046F0001092250281E090E0909327028093260299
:1047000087E094E00E946211E0912502F0E0EE0F54
:10471000FF1FE351FD4F05911491CE0101969E01BB
:104720002F5E3F4FDC01A801481B590BFA01EA0F2D
:10473000FB1FE491ED932A173B07C1F760E10E944C
:104740000A10869524E1281B44E16FEFC8010E94FE
:10475000480F81E0DAC00E94BE0D81E00E942D0D5D
:10476000109225021092230282E08093240283E0BB
:1047700090E090932702809326022EE34EE060E0C3
:1047800080E00E94780E2FE045E068E083E093E04F
:104790000E94480F23E042E165E08EEF92E00E9424
:1047A000480F23E04AE165E089EF92E00E94480F5C
:1047B000E0912302F0E0EE0FFF1FEF50FD4F8591D7
:1047C000949122E242E16FEF0E94480FE0912402AF
:1047D000F0E0EE0FFF1FEF50FD4F8591949122E224
:1047E0004AE16FEF0E94480FE091250220E4E29F2A
:1047F000F0011124E25FFC4F9F01245E3F4F9EEFCA
:1048000081A1892781A331962E173F07C9F7A1CF30
:104810000E94BE0D81E00E942D0D0E94331080E0A9
:104820000E941A0D89E090E090932702809326025F
:1048300080911E028F5F80931E0261960FB6F894DE
:10484000DEBF0FBECDBFDF91CF91FF91EF91BF9142
:10485000AF919F918F917F916F915F914F913F9118
:104860002F911F910F91FF90EF90DF90CF90BF900D
:10487000AF909F908F907F906F905F904F903F9000
:104880000F900FBE0F901F9018959091DA01E92FAD
:10489000F0E0A6E0F595E795AA95E1F7EF5DFD4F0D
:1048A00080818F5F880F409132085091330802C099
:1048B000569547958A95E2F717E395FF15E0F12C99
:1048C00009E1040F402F69E1812F8F0D0E94480EEE
:1048D000F39433E0F312F6CF49E369E18FEF810FF0
:1048E0000E94480E49E369E183E0810F0E94480E6F
:1048F00002E0010F48E1602F812F0E94150E4AE36C
:10490000602F812F0E94150E80E00E941A0D90CF1B
:104910000E94331081E00E941A0D85E090E0909390
:104920002702809326020E94BE0D8091260290915C
:1049300027020697A9F460912502862F869588772D
:104940006770660F660F660F90911B02992331F016
:1049500098E3492F481B842F961B692F0E94400D16
:1049600080911E0283FD06C060911C0280911D0291
:104970000E94400D81E00E942D0D5ACF0E94BE0D75
:10498000EAE1F3E021E433E080818F7081932E1718
:104990003F07D1F7EAE5F3E081E893E011928E1743
:1049A0009F07E1F7EAE9F3E021EC33E08081887FBB
:1049B00081932E173F07D1F722E342E26CE084E1B6
:1049C0000E94780E8091300885FF31C080E090E031
:1049D000029627E0289F8001299F100D11246EE583
:1049E00073E0C801845F9C4F0E94970D66E673E0F8
:1049F000C8018D5E9C4F0E94970D6EE673E0C80162
:104A0000865E9C4F0E94970D66E773E0C8018F5D3C
:104A10009C4F0E94970D80911E0283FDABCF609149
:104A200024026E5F660F660F660F88E1A1CF86E0F5
:104A3000CECF10911E021111D1C0EEE8F2E011921A
:104A400084E0EE38F807D9F70E94331081E00E9425
:104A50001A0D0E94BE0D1F3108F08DC080912502F5
:104A6000B82FB770BB0FBB0FBB0F40912302742F41
:104A70007770770F770F770F8695887750E09A01D8
:104A8000F4E035952795FA95E1F7220F220F220FD2
:104A900090911B02992361F098E3E92FEB1BBE2F45
:104AA000F92FF71B7F2F392F381B832F921B292FAC
:104AB000E12FF0E0E959FC4FE491F0E0281B330BC3
:104AC0002E9F70012F9FF00C3E9FF00C1124970138
:104AD000205E3F4F66E0369527956A95E1F7A82F4F
:104AE000A20F872F8B1B990B8E9FB0018F9F700D8C
:104AF0009E9F700D1124605E7F4FE6E0769567956E
:104B0000EA95E1F76B0F42575B4FFA018081E82F7E
:104B1000F0E0E259FA4F8081E0912F0625E0E29F14
:104B2000F0011124E95DFA4F218127FF05C0809132
:104B3000300885FD59C081E2282F277030E085FFBD
:104B400055C02150310987E0829FF001839FF00D0D
:104B50001124E45FFC4F2A2F277038E0A39FD00177
:104B6000112470E0211145C06A0F7B1F62577D4FF1
:104B7000CF010E94970D81E00E942D0D1F3109F099
:104B800057CE8091DA0190E046E0959587954A9559
:104B9000E1F7FC01EF5DFD4F20812223E1F0209140
:104BA0003608309137082E3AECEF3E070CF460C01F
:104BB0002630FFEF3F070CF45DC0233543E0340798
:104BC0000CF05AC02B3F31050CF058C022E088523F
:104BD0009E4FFC0120830E94EE1D2ACE1F3109F05A
:104BE00038CF0E94F40C35CF82E4A6CF2B5F3F4F25
:104BF000AACF422F8EEF90E05C01022E01C0AA0CDA
:104C00000A94EAF788E0821B282FCC24CA94D12C7E
:104C100002C0D594C7948A95E2F7A07CB770A60F1E
:104C2000B71FA257BD4F7F0187E0E80EF11CA0948B
:104C3000C094849190E06C916A214C01042E01C0D3
:104C4000880C0A94EAF768296D93DF966C91DF97D8
:104C50006C21022E02C0959587950A94E2F7862B67
:104C6000DF968C93DF973196EE16FF0611F783CF10
:104C700020E0ADCF21E0ABCF24E0A9CF23E0A7CF48
:104C80000E94BE0D81E00E942D0D109225028CE045
:104C900090E090932702809326022EE34EE060E09E
:104CA00080E00E94780E80913901823070F12CE012
:104CB00045E069E08AE993E00E94480F37E8E32E77
:104CC00033E0F32E12E1F701859194912BE0412F0F
:104CD0006FEF0E94480F185FF2E0EF0EF11C1233E5
:104CE00091F7E091250220E4E29FF0011124E25FB8
:104CF000FC4F9F01255D3F4F9EEF8285892782876C
:104D000031962E173F07C9F724CD29E045E06BE027
:104D10008FE893E0D1CF80912502882309F4A4C0C5
:104D200090914401992309F49FC081502BE431E014
:104D3000829F3001839F700C1124C3014D960E9405
:104D40000F20853C09F090C0F12CE12C512C3EE164
:104D5000630E711C452C01E010E0C70123E0880FB1
:104D6000991F2A95E1F7FC01E552FE4F6F01C3013F
:104D7000840D911D0E940F20382E5601A00EB11EE9
:104D80004501F1E08F1A910882958F700E94E6121A
:104D9000F4018083832D8F700E94E612F5018083D9
:104DA00043940E5F1F4F0930110509F7F4E05F0EC1
:104DB0002FEFE21AF20A30E25312CCCF0E94BE0D5E
:104DC00081E00E942D0D8EE090E090932702809369
:104DD00026020E946B0F84E3898B24E142E164E0A8
:104DE0008DEA93E00E94480F8DE1E82EF12C0FE050
:104DF0001AE124E1412F64E083EA93E00E94480F26
:104E0000098326E2412F61E0CE0101960E94CF0E78
:104E100080914401882361F0C7010E940F20853CE6
:104E200039F42EE0412F61E0CE0141960E94CF0E71
:104E3000185F0F5F85EBE81A8EEFF80A1233C9F698
:104E4000E091250290E4E99FF0011124E25FFC4F1C
:104E50009F01295E3F4F9EEF83898927838B31967F
:104E60002E173F07C9F775CCEBEDF1E0119242E048
:104E7000EB31F407D9F7A2CF0E946B0F21E042E19A
:104E80006FE088EB93E00E94480F2CE04AE169E074
:104E900088EB93E00E94480F2CE042E266E082EB50
:104EA00093E00E94480FE091230220E4E29FF0018A
:104EB0001124E25BFC4F9F01285D3F4F9EEF8385ED
:104EC000892783873196E217F307C9F742CC0E94FE
:104ED00033103FCC92E0960F4AE0460F4917E9F0B5
:104EE000292F30E0F901E153FA4F508157FF13C0E9
:104EF00022593A4F462F42954695469543706F5F2B
:104F0000640FD9016C938083E82FF0E0E257FB4FE8
:104F10009083892F08959F5FE1CF80E00895E62F69
:104F2000F0E0EF57FA4F908191509083292F30E0B5
:104F3000F901E259FA4F460F408321533A4FF901E4
:104F40008083E82FF0E0E257FB4F9083892F08958C
:104F500010921E0980E0E82FF0E0982F9878A7E2E1
:104F6000B1E011F0A8E2B1E0E257FB4F9C919083D1
:104F70008F3F11F08F5FEFCFEEE8F5E0119285E003
:104F8000EF3CF807D9F7EFECF5E08FEF819396E06F
:104F9000EF32F907D9F780E68093CE059AE2909335
:104FA000A00590E49093A1059AE49093C0058093A6
:104FB000C10510922F0610922A0510922B0510920F
:104FC0002705109228051092290580E28093300869
:104FD0001092EF0510920F060895482F862F642F28
:104FE000607647704330D9F020F4413078F480E0A7
:104FF00008954730B8F14730D1F791E0960F292F47
:1050000030E0F901E259FA4F695F20C0E62FF0E085
:10501000E153FA4F90819F5F90830C946A27262F6B
:1050200030E0F901E153FA4F90819D5F90832E505B
:105030003109F901E257FA4F908141E0490F40836D
:10504000292F30E0F901E259FA4F6D5F6083215357
:105050003A4FF9018083E82FF0E0E257FB4F90834D
:10506000892F0895E42FF0E0E851F64FE491A62F40
:10507000B0E0A153BA4F9C91E90FEC930C948F27A9
:1050800080E280931C0280E380931D0282E0809383
:10509000D9018093D80110929A0110929901E5E408
:1050A000F1E0119281E0E939F807D9F710929B01FC
:1050B00010921B0208952091380130E02095309520
:1050C0004091430150E02423352390E028233923E5
:1050D00081E0232B09F480E00895EF92FF921F9363
:1050E000CF93DF93EC01862F142FFE019E01295FE1
:1050F0003F4F1192E217F307E1F7972F977073FF75
:105100000FC08EE0888328E129838A83943010F4CD
:105110002B838C83DF91CF911F91FF90EF900895A7
:10512000212F2F7011F02883219614FF05C0282FFE
:1051300027702A5F2883219615FF08C0382F3777FC
:1051400032953F7026E1231B2883219613FF03C06D
:1051500029E1288321969A5F9883272F2777229524
:105160002F7096E1921B99837E0177FD0CC082E03F
:10517000E80EF11C8AE116FD03C017FFCBCF8BE1CF
:10518000F7018083C7CF93E0E90EF11C0E948A0BE0
:105190008350990BFC01E851FD4FE491EA83EACF7B
:1051A0002F923F924F925F926F927F928F929F9237
:1051B000AF92BF92CF92DF92EF92FF920F931F9325
:1051C000CF93DF93CDB7DEB72A970FB6F894DEBF43
:1051D0000FBECDBF982E092F282F2777422EC22E23
:1051E000D12C64E0D594C7946A95E1F7C886382F2E
:1051F0003770732EA32EB12C760173E0EE0CFF1CDA
:105200007A95E1F7C7018A0D9B1DBC0165527E4F5F
:105210001B01F701E552FE4FEA0DFB1DE081E7702F
:1052200010E0E33038F0E350FF0BE851FD4FE4911C
:10523000E98311E080E396E00E944619A0E3B6E01E
:1052400040E0812C612C702F7777572E481779F129
:1052500011969C9111979777951126C09C91292FB3
:105260002777241509F130E0F901E257FB4FE0817F
:10527000F0E0BF0162597A4F7A876987F101608156
:10528000E985FA85508165130FC054E0359527955F
:105290005A95E1F7F885F21302C088248394977039
:1052A000791202C0662463944F5F1296CFCF852D8A
:1052B00090E0FC01E257FB4F308022242394311010
:1052C00007C0212C07FD04C0292C221C2224221CEB
:1052D000F701E552FE4FEA0DFB1D208127702330B8
:1052E00010F4211002C0882061F0E1E0F0E0EC0F42
:1052F000FD1FE10FF11D26E0270D20831F5F88248D
:105300008394662051F0E1E0F0E0EC0FFD1FE10F27
:10531000F11D26E12C1920831F5F222049F0E1E0D6
:10532000F0E0EC0FFD1FE10FF11D29E120831F5F6D
:10533000202F2770C22EE1E0F0E0EC0FFD1FE10FFF
:10534000F11D26E02C0D208322E0D22ED10EE1E0CB
:10535000E10F61E070E06C0F7D1F6E0F711DFB01AE
:1053600034E0959587953A95E1F796E1981B9083FF
:1053700007FF12C01D5F892D0E948A0B8350990B75
:1053800088519D4FFC018491E1E0F0E0EC0FFD1F9E
:10539000ED0DF11D8083D12E03FF0CC08EE08983BB
:1053A00098E19A838B83C71408F0D2C09C838D83C5
:1053B00095E0D92E8091990190919A010196909350
:1053C0009A018093990140922502509223029701FD
:1053D00025523E4FA20EB31EF5011082E5EDF1E01D
:1053E000A2919291829183839483A58321E0E43BEF
:1053F000F207B1F7E3EBF1E08291818331E0EC3920
:10540000F307D1F780E0332029F0E32DF0E0E259F3
:10541000FA4F80818093B40180912A058093B50171
:1054200080912B058093B601211095C010929C01AC
:10543000662029F080919C01806280939C018820E5
:1054400029F080919C01806180939C0180919B0157
:105450008F5F8D3008F083C080939B01ECE1F9E011
:10546000929182919383828358E0EE33F507C1F7DE
:1054700090923E0800933F08892D902F0E94980B30
:10548000E0912F0685E0E89FF0011124E95DFA4FD5
:1054900010922F06A7E2B5E001900D928A95E1F7F0
:1054A0000E94C01D863009F05CC0E1E0F0E0EC0F26
:1054B000FD1FED0DF11D8BE1808380919C018068C3
:1054C00080939C01D39466E06D1538F0E1E0F0E044
:1054D000EC0FFD1FED0DF11D1082FE01319685E4EC
:1054E00091E0AE01485F5F4FDC012BE017963C91E5
:1054F00017973C93215017962111F8CF2191DC0189
:10550000A35BBF4F2C930196E417F50769F7109240
:105510001E028AE090E090932702809326022A964A
:105520000FB6F894DEBF0FBECDBFDF91CF911F91B4
:105530000F91FF90EF90DF90CF90BF90AF909F9032
:105540008F907F906F905F904F903F902F90089535
:1055500083E0D82E2FCF88E080939C0169CF8CE028
:105560007BCF813029F080913108882309F4ABCFBB
:10557000E1E0F0E0EC0FFD1FED0DF11D8AE180830D
:1055800080919C0180649CCF1F93CF93DF93EC01AB
:10559000162F0E946933181739F0612FCE01DF9161
:1055A000CF911F910C947133DF91CF911F9108958A
:1055B0009C012D513109233E334008F0FFCF0C945C
:1055C000C42A2F923F924F925F926F927F928F9256
:1055D0009F92AF92BF92CF92DF92EF92FF920F9382
:1055E0001F93CF93DF9300D01F92CDB7DEB7182F54
:1055F0008091440181110AC011114CC160E088E61C
:1056000091E00E94D82A123009F04CC18BE491E05D
:10561000189F9001199F300D11243B832A83190193
:105620003DE1230E311C0A811B81025E1F4F409019
:105630002F0685E0489E20011124D201A95DBA4FB2
:105640002D01580166246394712CF12CE12C450145
:10565000F701E257FB4F6F01F4E0F983D601EC91BB
:1056600060E0EE2359F0F0E0E259FA4F8081682FB4
:1056700066956695669568708770682B6295607F01
:10568000F601EE19FF09E60DF71DE081EE2361F04A
:10569000F0E0E259FA4F9081892F8695869586959C
:1056A00088709770892B682BC4010E94C42AB98125
:1056B000B150B983EFEF8E1A9E0AF2E0CF0ED11CE3
:1056C000B111CCCF24E0A20EB11C30E1E30EF11CED
:1056D00080E1680E711C90E8E916F10409F0B7CF7B
:1056E000D2016C91C80180960E94C42AF2016181A6
:1056F000C80181960E94C42AD20114966C91C801F7
:1057000082960E94C42A7801B4E2EB0EF11C6091EB
:105710001E09C80183960E94C42A5EE3C52E58E084
:10572000D52E0C5F1E4FF6016081C7010E94C42A6E
:10573000C701F2E0EF0EF11CD60111966C910196B3
:105740000E94C42AB2E0CB0ED11CE016F10659F734
:1057500060913008C7010E94C42A28EDA22E21E0E2
:10576000B22E0A811B810D5D1E4F31E2C32E32E045
:10577000D32E4FE1E42E42E0F42E8A809B80EBEDA5
:105780008E1AEEEF9E0AD5016D915D01C8010E944F
:10579000D82AF60161916F01C80102960E94D82AA9
:1057A000D7016D917D01C80104960E94D82A0F5F30
:1057B0001F4F8016910639F798EDE92E91E0F92EEA
:1057C00004EB11E0EA81FB81EC58F0406F01D80155
:1057D0006D918D01C6018A0F9B1F0E94D82AE01689
:1057E000F106A9F784EBE82E81E0F82E0CE911E030
:1057F000EA81FB81E055F0406F01D8016D918D0188
:10580000C6018A0F9B1F0E94D82AE016F106A9F74D
:1058100060919B018A819B818B599E4F0E94D82A5F
:10582000609199018A819B818A599E4F0E94D82A52
:1058300060919A018A819B8189599E4F0E94D82A42
:1058400065ECC1010E94D82A0E9411209983682F1B
:105850008EEF93E00E94C42A69818FEF93E00E944B
:10586000C42A81E0809344010F900F900F90DF9144
:10587000CF911F910F91FF90EF90DF90CF90BF904D
:10588000AF909F908F907F906F905F904F903F90E0
:105890002F90089560E08DE190E00E94D82A1130A9
:1058A00009F0ACCE60E083EB92E00E94D82AAECE45
:1058B000E0E3F2E01382128288EE93E0A0E0B0E031
:1058C00084839583A683B78388E191E09183808365
:1058D0008FEF9FEF958784870895CF93DF93CDB7A0
:1058E000DEB728970FB6F894DEBF0FBECDBF789411
:1058F00084B5826084BD84B5816084BD85B58260D5
:1059000085BD85B5816085BD80916E008160809385
:105910006E001092810080918100826080938100EE
:1059200080918100816080938100809180008160FE
:10593000809380008091910082608093910080919B
:1059400091008160809391008091900081608093AC
:1059500090008091C10084608093C1008091C1005B
:1059600082608093C1008091C10081608093C100FA
:105970008091C30081608093C3008091C0008260E9
:105980008093C0008091C20081608093C2008091AA
:105990007A00846080937A0080917A00826080939C
:1059A0007A0080917A00816080937A0080917A00F9
:1059B000806880937A0010928D0210922D021092CE
:1059C0002F028091D70081608093D70080EA809376
:1059D000D80089B5806189BD89B5826089BD09B467
:1059E00000FEFDCF61E070E080E090E00E94B70A29
:1059F0008091D8008F7C80618093D8008091E000F6
:105A0000807F8093E0008091E1008E7E8093E100B2
:105A10008DE08093E200559A209A81EC80937C007F
:105A200085B1806F85B984B1877E84B984B1876E72
:105A300084B95E9A5F988AB1806D8AB9769A6E98B9
:105A400081B3806F81BB899880B38D7080BB80E506
:105A50008CBD81E08DBD0E94EA0A5F9A0E94EA0A2D
:105A60005E980E947B0B07EC17E0F80184910E947E
:105A7000750B0F5F1F4FF7E0043D1F07B1F70E9442
:105A80007D0B81E880936400809165008160809344
:105A900065000E94CD0C8091430187FF0CC00E94DD
:105AA0007B0B85EA0E94750B0E947D0B2E982F9828
:105AB0002D982E98FFCF0E9411208C018EEF93E03D
:105AC0000E940F2089838FEF93E00E940F208A832A
:105AD00029813A8181E00217130709F080E0809361
