:100000000C94C5050C94ED050C94ED050C94ED05D0
:100010000C94ED050C94ED050C94ED050C94ED0598
:100020000C94ED050C94ED050C94E21F0C945120FA
:100030000C94ED050C94ED050C94ED050C94ED0578
:100040000C94ED050C94ED050C94ED050C94ED0568
:100050000C94ED050C94ED050C94ED050C948322A5
:100060000C94ED050C94ED050C94ED050C94ED0548
:100070000C94ED050C94ED050C94ED050C94ED0538
:100080000C94CD220C94ED050C94ED050C94ED052B
:100090000C94ED050C94ED050C94ED050C94ED0518
:1000A0000C94ED050C94ED050C94ED05EF000000AB
:1000B000000000F0000000000000F10000EF000070
:1000C000000000F00000000000F100000000EF0060
:1000D000000000F000000000F1000000000000EF50
:1000E000000000F0000000F100000000000000002F
:1000F000EF0000F00000F100000000000000000030
:1001000000EFDFF0E1F1000000000000000000005F
:1001100000EEEFF0F1F2000000000000FFFFFFFF33
:10012000FFFFFF00010101010101010000000000CB
:10013000000E0F101112000000000000000000006F
:10014000000F1F102111000000000000000000003F
:100150000F00001000001100000000000000000F60
:1001600000000010000000110000000000000F005F
:10017000000000100000000011000000000F00004F
:100180000000001000000000001100000F0000003F
:10019000000000100000000000001101020304052F
:1001A000022A25210528222C2623222F242501304E
:1001B0002926252A232425262324252623032C2506
:1001C0002A03232B23262C262C2D01130E31242D1C
:1001D0002E23292703252830212223210524252603
:1001E0002300687C7C7C6800000014001400001868
:1001F0001C4A7E7E7C70204C7E377E4C20467C7E66
:100200007C7E7C4643647D7E7D644344687A7F7A4D
:1002100068440068544454680018144A72424C7090
:10022000204C7221724C20467C4644467C464364F6
:100230005D465D644344685A4F5A684400000000BC
:1002400001020305070A0C1013161A1E22262A2D76
:10025000303436393B3D3E3F4040404000000000D6
:10026000000000000000000000000000000000008E
:100270000000000000000050F0F0800000000000CE
:100280000000000000000000000000800000C42208
:1002900012CA3C0000806040808040000080402006
:1002A00020C0380600008060000080600000C03080
:1002B00008040402222418000080603826C00000D0
:1002C00000804020A060000000807020408000007E
:1002D000008070204080000000000000000000004E
:1002E000000000000000000000000000000000000E
:1002F0000000800100EA711AFF7E8783838080807E
:100300008000000000000000102020908D8381817B
:10031000818F90908E81808C939088848E9190882C
:100320008E919088848E9190888E9190888798A0E5
:10033000A0A0A0A0909088948E8180808E919088BB
:1003400084878A91909088848A95988894938884E9
:100350008A959888949388404024180000000000F3
:10036000000000000000000000000000000000107D
:1003700005421825D748B77FC9F7FEBFEB7F1F0F8F
:10038000030000000000000C12010100000000400A
:10039000A0F058E84040E0400000000000000000ED
:1003A000000000000000000000000000000000004D
:1003B000000000000000000000000000000000003D
:1003C000000000000000000000000040E04040E8A5
:1003D00058F0A040000000000000000000000000F5
:1003E00000000000000000000000000000004000CD
:1003F000809002A1BC4BABBEEFBBFEFF9FF9F0C0EB
:10040000C0800000000000000000000000000000AC
:100410000001030200000000000000800000808056
:1004200000800080000000800000800000808000CC
:1004300000804000800000C00000C000008000007C
:10044000C0000040008000008040008000004002AA
:1004500003410080400000400080000000002A00AE
:10046000500500B000045120088021089022400867
:10047000801240010A69DBBAFDFFFEFFC101158948
:1004800004A208441348A4126C813248A01A608860
:10049000523144A81168528134688132888016AA8A
:1004A0000896AB041AC728168BA41A87A80E92AD1B
:1004B0000A46B94E72D12C52F10876E118D4633055
:1004C000CC5132E44930D621E894032E548B158E5A
:1004D000A51906AE510E95228D1EA00B00005000EE
:1004E0001400801400088002044002094006010044
:1004F000124500806813EEFD37FFFFBFFFF8E0C331
:1005000018A44118A04AA800DA20886A9008E230AE
:100510000CE0110C5000850822870802AB04820908
:1005200006AA01068D23028D22078C2207C9AE730D
:10053000915864B1906C51B0D429B0C83AE0115CC4
:10054000E01174C81075C810F0060D238C0B220C36
:100550004B02AD0A01AE0209A60A1186000009008D
:100560000228000A100204100904002B00080300EE
:1005700030C02C92E91DF6ABDF7FEBFFDFF77FFF8A
:10058000EEFCFCFAA000628048224008A210089706
:100590002208952A118658052A114E8932049D2277
:1005A000095688132E900B14926D8A01608A44A01C
:1005B0001241A44840952248806A00D224488360B2
:1005C00014C16802D025806806398B1416A9151746
:1005D000A8132E81182F8219244B12140000A0009A
:1005E00000500000108000002000008010008022D9
:1005F00000045A0015564D15565D9F572DFFAF2B21
:10060000DFAE37CF6F109661118860128870821844
:100610006042985022945040B5006A9020CA3085BC
:100620006810A2681482200C83540986290A842544
:100630008B04A90A86218D0AA10D9205288B4514E9
:100640000AA10E02294608937004897004D12288F9
:100650005025D00228D002A950049160D5F08D1405
:10066000A1C881CFD9F1AF20009BCEFCB9AAAAAA1C
:10067000AA000000000000000000000000000000D0
:10068000002222222213467431080B0002020200CB
:100690000009040000010202000005240010010509
:1006A0002401010104240206052406000107058136
:1006B0000310004009040100020A000000070502BF
:1006C00002400000070583024000000403090412F1
:1006D000010002EF020140412336800001010203C4
:1006E0000141726475696E6F204C4C430041726425
:1006F00075626F790000000000000000000000003B
:1007000000000000000000000000000000000000E9
:1007100000000000000000020000000000000100D6
:1007200000000000000200000200000000000100C4
:1007300000000000020000000002000000000100B4
:1007400000000002000000000000020000000100A4
:100750000000020000000000000000020000010094
:10076000000200000000000000000000020401047C
:100770000200000000000000000000000420102023
:10078000040000000000000101010101010800084F
:10079000010101010101000000000000048040800F
:1007A000040000000000000000000000020401043A
:1007B0000200000000000000000000020000010034
:1007C0000002000000000000000002000000010024
:1007D0000000020000000000000200000000010014
:1007E0000000000200000000020000000000010004
:1007F00000000000020000020000000000000100F4
:10080000000000000002DFE11F21EE0EF2120020C6
:100810008004A259FBF80004040C0D1424FDFFFF12
:10082000FFBDFFFFBFFFFFFFFFFFFFFFFFFFFFFF5A
:10083000FFFFFFFFFFFFFFFFFFFFFFFFFFFFFFFFC8
:10084000FFFFFFFFFFFFFFFFFFFFFFFFFFFFFFFFB8
:10085000FFFFFFFFFFFFFFFFFFFFFFFFFFFFFFFFA8
:10086000FFFFFFFFFFFFFFFFFFFFFFFFFFFFFFFF98
:10087000FFFFFFFFFFFFFFFFFFFFFFFFFFFFFFFF88
:10088000FFFFFFFFFFFFFFFFFFFFFFFFFFFEFFFF79
:10089000FFDEFFFFDF0000000000000000DC00DBE7
:1008A00000D000CF0086008F0087008500540058DC
:1008B00000550056004200470048004F003E0045EA
:1008C000004500420041004E004C003A000000008C
:1008D0000000000000BE00EB00F9000501F5000A71
:1008E0000120011D01020123012F01320111012309
:1008F000013001330108011C0126012901FD00130B
:10090000011A012201FA0001010F011301EA00FDA1
:1009100000FB0000010C0110010C01140111012762
:100920000124011F011C012A012E012C011F012697
:1009300001310138011B0126012D0136011D01275E
:10094000013001300115012B01240124010B011795
:100950000110011701E001E201E901EE01E101E608
:1009600001EE01EA01D601E001E501E401D301D67F
:1009700001E501E101C901D401DB01DB01C101CFC6
:1009800001D401D401BA01CB01D401D601C701CBF6
:1009900001D901DD016403750389038903700371C3
:1009A000038E038E037C0382038F03970376037801
:1009B000038903880370037A037F0380036E037641
:1009C000037E037A03580366037D0377035F035DA9
:1009D0000364037703DEFFF8FFF2FFEBFF00000D77
:1009E00000110009000300190018000900F5FF0EAE
:1009F0000012000E00EBFFFEFF0B000C00F0FF01E9
:100A00000007000800F0FFFFFFFFFFFDFFE0FFF819
:100A1000FFECFFEDFF0C0011000D000E0007000AB7
:100A2000000A000A001B0016000E000F001E001234
:100A300000090003001A0017000D0007000400FF62
:100A4000FF040009000F00060007003500A0FFD5D5
:100A5000FFF7FFFBFF070005000D000A000D00096E
:100A6000000A0003000000FFFF010001005FFFC952
:100A7000FFDFFFEEFFF5FFF9FFFEFFFEFF030007BC
:100A8000000A001000140020001E002B00110007B7
:100A900000E7FF0400190013000D00070004000325
:100AA00000F8FFFAFFF3FFF2FFF2FFEEFF00010193
:100AB0000303050900041F02041F031F150A031F77
:100AC000051A030E191E031F041B0308141C031F21
:100AD0001408030C12120308141F030C1A14021E2C
:100AE000050312150F031F0418030E110E03121F26
:100AF00010031915120311150A0307041F03171514
:100B000009030E150803011907030A150A03021544
:100B10000E0204040314081403040E04050A1F0A39
:100B20001F0A05190D0C0D190511090809110501F8
:100B300011101109050911101109050D1918190DC8
:100B4000030E1111031F041F031F1511051F0204BB
:100B5000021F031E051E03011F01031F110E050FB7
:100B6000100E100F03121509031F1010031F0502AA
:100B700003111F11040E11110E03071807040F10A3
:100B8000100F010A02000000F72611241FBECFEF4C
:100B9000DAE0DEBFCDBF11E0A0E0B1E0EAEBF5E5C1
:100BA00002C005900D92AE33B107D9F728E0AEE34D
:100BB000B1E001C01D92AB3CB207E1F715E0C5EC16
:100BC000D5E004C02197FE010E94D52AC43CD1077C
:100BD000C9F70E940C270C94DB2A0C9400008F921A
:100BE0009F92BF92CF92DF92EF92FF920F931F934B
:100BF000CF93DF93EC01DC0106E915E091E0961755
:100C0000D8F51296BC90129713967C911397F80121
:100C100081918F01292F422F50E0FA01EC56FA4FB3
:100C20007F01FA01EE0FFF1F4F018C0E9D1E4B56E8
:100C30005A4FF7013081381784F46401F2E0CF1A7B
:100C4000D108F601C080D180F401D182C082F701C1
:100C50003081FA0130832150F1F630E0F901EE0FD6
:100C6000FF1FEC0FFD1FB08271832B563A4FF90125
:100C700080839F5F1296C3CFDF91CF911F910F9119
:100C8000FF90EF90DF90CF90BF909F908F9008954E
:100C9000CF93DF93DC019C91992331F1E5EBFAE0EE
:100CA0009150B0F4ED0121961796952FCA17DB07E6
:100CB000D9F089918823C1F0E5EBFAE0815080F00A
:100CC0004491242F30E02F5F3F4FE20FF31FF6CF08
:100CD0005491252F30E02F5F3F4FE20FF31FE0CFFD
:100CE00081E0840F980FE2CF892FDF91CF91089593
:100CF000E3E5F2E0A0E0B4E000800EBC8111012C3D
:100D00001197A0FDFDCF0192B9F70DB40895CF93CF
:100D1000DF9390E463FF90E26770633009F455C09D
:100D200068F4613009F473C0623009F1E82FF0E033
:100D3000ED5AFB4F1082DF91CF910895282F30E0BC
:100D4000673008F499C0673089F761E0690F462F72
:100D500050E0FA01ED5CFA4F995F90834C565A4F80
:100D6000FA0180832D5A3B4FF9016083E4CF492F6C
:100D700050E0FA01EC56FA4F20812F5F208322E0E9
:100D8000290F3AE0390F3217B1F2622F70E0FB0100
:100D9000B097DF01AD5ABA4FAC91A11114C0ED5A12
:100DA000FA4F9F5FA6E055954795AA95E1F7490F41
:100DB00040836C567A4FFB018083E82FF0E0ED5AB8
:100DC000FB4F2083B8CF2F5FDECF292F30E0F90112
:100DD000EC56FA4F40814D5F40832E503109F901A6
:100DE000ED5AFA4F408151E0540F5083242F30E0E8
:100DF000F901ED5CFA4F9D5F90832C563A4FF90153
:100E00008083E82FF0E0ED5AFB4F408394CFE091D0
:100E1000F40525E0E29FF0011124E451FB4F23810A
:100E2000492F50E0382F377029F5BA0135E0759514
:100E300067953A95E1F7262B2383FA01EA5BFA4F8F
:100E4000208121502083622F70E0FB01ED5CFA4F7E
:100E50009B5F90836C567A4FFB018083E82FF0E014
:100E6000ED5AFB4F2083FA01EC56FA4F80818B5FDD
:100E7000808361CF292BE0CFA92FB0E0FD01EA5B91
:100E8000FA4F408141504083E42FF0E0EF01CD5C08
:100E9000DA4F960F9883EC56FA4F80832D5A3B4FCA
:100EA000F9014083E62FF0E0E355F54FE491AC56AD
:100EB000BA4F6C91E60FEC933ECF6F927F928F9278
:100EC0009F92AF92BF92CF92DF92EF92FF920F93D9
:100ED0001F93CF93DF93CDB7DEB7C054D1090FB6C0
:100EE000F894DEBF0FBECDBFE091F40545E0E49F6E
:100EF000F0011124E451FB4FE48054E080E05E15E2
:100F000008F0D3C0FE013196DF01BE016F5B7F4F59
:100F10001192E617F707E1F730E020E0F12C80E0CE
:100F200005E0C02E922FD22E2E150CF064C04091F9
:100F3000F40524170CF092C050E0421B530BC49EE2
:100F4000F001C59EF00D1124E451FB4FB080E1810A
:100F50008E2E8B18F80CF0E0AF014D5A5B4F3A0122
:100F6000FA019080492D50E08A01005211090A0FC0
:100F70001B1FF801A080A80CA0820B2D10E00D5AB9
:100F80001B4FF8019082F30110824C565A4FFA0120
:100F9000B082F11076C08D0143E554E0F801B190C4
:100FA0008F01BB20B9F0FA01EF59FE4FE081EB0D44
:100FB000E7FD65C0F0E0ED5AFB4FE081EE2309F458
:100FC0005EC0F0E0ED5CFA4FB080FA01F395E0818D
:100FD000BE1255C04F5F5F4F60177107F9F641E0D1
:100FE00090FF4FC0442309F44CC08F5F813009F457
:100FF00048C091E09D0D915030E020E0492F092E2E
:10100000000C550B75E0F72E97FD4FC06091F4056D
:101010009617D4F570E0FA01E21BF30B6E1B7F0B01
:10102000F69EF001F79EF00D1124E451FB4F608114
:101030007181E62FF0E0ED5AFB4F6081072F10E041
:101040000D5A1B4FD8016C931082E62FF0E0EC563E
:10105000FA4F70832F5F3F4F9150D6CFE22FE41BA2
:101060004E2FE091CA084E1740F0ED59E41BF0E016
:10107000EE0FFF1FEE5FF74F69CFE150F7CF40E073
:10108000AFCF2F5F3F4F4ECFF92FF61B6F2FE09161
:10109000CA08FE1740F0ED59E61BF0E0EE0FFF1F07
:1010A000EE5FF74FC4CFE150F7CFC05CDF4F0FB614
:1010B000F894DEBF0FBECDBFDF91CF911F910F918E
:1010C000FF90EF90DF90CF90BF90AF909F908F9068
:1010D0007F906F900895E0E6E827F0E0EC56FA4F35
:1010E0009081911115C0282F30E0F901EC56FA4F8C
:1010F0004081442331F192E0980F865F891751F0C7
:10110000E92FF0E0EC56FA4F50819F5F57FDF6CF84
:1011100080E008954530A8F04630D1F72B5B3A4F78
:10112000F901208180E0921799F3E92FF0E0EC5665
:10113000FA4F308137FD03C08111EBCF81E09F5F13
:10114000F2CF81E0089580913B010E946B088111EC
:1011500004C080913C010C946B080895DF92EF92DB
:10116000FF920F931F93CF93DF93E091F50730E643
:101170003E273093F507682F6777592F5777A52FAC
:10118000B0E0AD5ABB4F4C91C091F4052FEF2C0F3E
:101190002093F40505E0C09FE0011124C451DB4F0A
:1011A0002A81C22FD0E0782F7078F92FF8787F2B22
:1011B00009F448C097FF62C0842F90E08C010D5C59
:1011C0001A4FF8017081E72FE770F0E0E355F54F13
:1011D000D490E32EF12CF701EC56FA4F70817F5F2B
:1011E0007D197083F80110828C569A4F3FEFFC01F5
:1011F00030838091F50790E0FC01EB5BFA4F308182
:10120000FC014317A0F5EB5BFA4F832F81508083DD
:101210008091F50792E0980F3AE0380F391791F076
:10122000092F0052110B0D5A1A4FF80170817111DC
:1012300023C031E0380F8295869586958370830FA1
:101240008083492F222389F1CD5CDA4FE881E77052
:10125000F0E0E355F54FE491C091F50780E6C8272B
:10126000D0E0CC56DA4F8881E80FE8831EC0EA5BF5
:10127000FA4F80818F5FCBCF9F5FD0CF8E010C560E
:101280001A4F93FF3AC0561740F58CEF860FE82FA0
:10129000F0E0ED5AFB4F2083EFEFE60FF0E0ED5A60
:1012A000FB4F1082E801888320E0E62FF0E0ED5A42
:1012B000FB4F4083E42FF0E0EC56FA4F60832C9311
:1012C000E22FF0E0EC56FA4F5083DF91CF911F915F
:1012D0000F91FF90EF90DF90089583E0860FE82F45
:1012E000F0E0ED5AFB4F2083E1E0E60FF0E0ED5A2D
:1012F000FB4F1082F8018083D7CF87FFA3CF80E315
:10130000850F831BC82FD0E0CD5ADB4F2883E8011F
:101310008883F0E0EC56FA4F80818F5FECCF962FF8
:10132000282F22952F70362F32953F70321337C0F9
:10133000242F861708F58F5FE82FF0E0ED5AFB4F5A
:1013400090819923C1F368132AC02F5FE22FF0E048
:10135000ED5AFB4FE081EE23C1F38091F5078E2318
:10136000F1F4F0E0ED5CFA4FE081E770F0E0E25F6D
:10137000F74F8081817008958150E82FF0E0ED5A99
:10138000FB4F20812223C1F3841309C09150E92F20
:10139000F0E0ED5AFB4FE081EE23C1F3DECF80E0B9
:1013A0000895FC0180915202882311F13FB7F8940F
:1013B00082E08093E9002091F200822F90E01816DD
:1013C000190614F481E090E0882339F0289844E667
:1013D000409351024091F1004083222339F0209143
:1013E000F200211103C02BE62093E8003FBF0895CF
:1013F0008FEF9FEF08952FB7F89483E08093E90073
:101400009091E800892F807295FF04C09091F200BE
:1014100080E4891B2FBF08958091490281110DC07E
:1014200082E08093450284E0809346021092480255
:101430001092470281E08093490285E492E008958A
:10144000CF93DF931F92CDB7DEB76983DC01ED91B7
:10145000FC910280F381E02D41E050E0BE016F5F1E
:101460007F4F09950F90DF91CF91089583E080938E
:10147000E9008091F200882319F08AE38093E80064
:1014800008950E94FB0990E00895CF93DF931F9287
:10149000CDB7DEB7FC018485958597FD08C02FEF99
:1014A0003FEF358724870F90DF91CF910895CE01CC
:1014B00001960E94D109019719F4898190E0F3CF38
:1014C0008FEF9FEFF0CF0F931F93CF93DF931F9278
:1014D000CDB7DEB78C01FC018485958597FF0BC0E5
:1014E000CE0101960E94D109019771F4898190E0A3
:1014F000F80195878487F801848595850F90DF91A1
:10150000CF911F910F9108958FEF9FEFF1CFFC01C5
:101510008485958597FD0BC09FB7F89482E08093F2
:10152000E9008091F2009FBF90E0019608959FB777
:10153000F89482E08093E9008091F2009FBF90E0F0
:1015400008954091EF015091F0012091ED0130910B
:10155000EE0142175307B4F49091E8009570E1F35F
:101560009091E80092FD19C08093F1008091EF0105
:101570009091F00101968F739927892B19F48EEFC2
:101580008093E8008091EF019091F0010196909393
:10159000F0018093EF0181E0089580E00895EF92DB
:1015A000FF920F931F93CF93DF93F82E192FE62E00
:1015B000042F81E0860F880F0E94A10A83E00E9419
:1015C000A10ACF2DD12FEC0EFD2EF11CCE15DF057B
:1015D000B9F007FF13C0FE0184910E94A10A182FE1
:1015E00080E00E94A10A812321968111EFCFDF9133
:1015F000CF911F910F91FF90EF9008958881EDCFCB
:1016000081E0F5CFDF92EF92FF920F931F93CF937C
:10161000DF93D82E8A01EB017B01E40EF51ECE1577
:10162000DF0559F0D7FE12C0FE0184910E94A10A85
:1016300021968111F4CF0FEF1FEFC801DF91CF91F9
:101640001F910F91FF90EF90DF9008958881EECF6A
:101650000F931F93CF93DF931F92CDB7DEB782E036
:10166000898342E450E069E876E080E80E94020B5A
:101670000E940C0ADC0112960D911C9101151105B6
:1016800089F0D801ED91FC910280F381E02DBE013B
:101690006F5F7F4FC801099597FD04C0F801008571
:1016A0001185ECCF89810F90DF91CF911F910F9120
:1016B0000895615030F02091F100FC0120830196E3
:1016C000F8CF289884E68093510208953FB7F894A4
:1016D0008091850190918601A0918701B091880148
:1016E00026B5A89B05C02F3F19F00196A11DB11D7D
:1016F0003FBFBA2FA92F982F8827BC01CD01620FB9
:10170000711D811D911D42E0660F771F881F991F73
:101710004A95D1F708958F929F92AF92BF92CF9240
:10172000DF92EF92FF926B017C010E94660B4B01EE
:101730005C01C114D104E104F104B9F00E94660B0C
:10174000681979098A099B09683E734081059105EA
:1017500080F321E0C21AD108E108F10888EE880E72
:1017600083E0981EA11CB11CE4CFFF90EF90DF90A6
:10177000CF90BF90AF909F908F90089565E070E0FC
:1017800080E090E00C948B0B8F929F92AF92BF926F
:10179000CF92DF92EF92FF920F931F93CF93DF933D
:1017A0006C017B018A0180910B01882309F45CC0E4
:1017B00080915202882309F457C08091F40180FF80
:1017C00005C08091E00082608093E000E801B12CC8
:1017D0008AEFA82E93E0892E2AE3922E209711F407
:1017E000BB20D9F10E94FB0981110AC0AA94AA204A
:1017F000D9F161E070E080E090E00E948B0BEECFC9
:101800008C171D0611F00CF08C2F9FB7F894809266
:10181000E9002091E80025FD02C09FBFDFCF282FFF
:1018200030E0C21BD30BF701815020F0419140936F
:10183000F100FACFE20EF31EBB2021F09092E800F7
:10184000B12CEBCF8091E80085FDE7CF9092E800C6
:10185000BB24B394209709F3F3CF5D9884E680937B
:10186000F301101611063CF081E090E0F60193833D
:10187000828310E000E0C801DF91CF911F910F91AA
:10188000FF90EF90DF90CF90BF90AF909F908F90A0
:1018900008958FB18095807F669B88601C9B8460D3
:1018A00008958EBD00000DB407FEFDCF08955C982D
:1018B00008955C9A0895282F30E083FB882780F9EB
:1018C00096E0359527959A95E1F72270822B8D5FEA
:1018D00008958F929F92AF92BF92CF92DF92EF9234
:1018E000FF920F931F93CF93DF93A091F40525E010
:1018F000A29FF0011124E451FB4FAF5FA093F405C8
:10190000A29FD0011124A451BB4F238113962C9385
:101910001397248114962C9314978C9311969C936F
:101920001197382F392B387899F4E82FF0E0ED5AD9
:10193000FB4F4091F5073EEF341B4081340F3830A8
:1019400038F0E92FF0E0ED5AFB4F30812F5F311175
:1019500020E014962C931497382F3777292F277768
:10196000D22E432F50E08A010D5A1B4FF8012081DF
:101970006D2D70E0FB01ED5AFB4F7F01C080CC2D37
:10198000D0E0CC20A1F0FE01ED5CFA4FE081E770E1
:10199000F0E0E355F54F9490A090F507F0E6AF2600
:1019A000B12CF501EC56FA4F80808918808212968E
:1019B000CC921297435E574FFA014491FB01E35ECC
:1019C000F74FE491E42313964C911397E423139675
:1019D000EC931397592F5878482F4078452BA1F155
:1019E00097FF61C0A22EB12C0E945B0CF501ED5A4D
:1019F000FB4FDF01A052BF4F1C92EF5BFE4F9FEFEA
:101A000090834091F507A42FB0E0833009F43CC0E7
:101A1000AA5BBA4FEC912FEF2E0F2C93E22FF0E040
:101A2000ED5CFA4F9091F507980F9083E82FF0E066
:101A3000E355F54FE491A091F507B0E0AC56BA4FED
:101A40008C918150E80FEC93F7012083F80110820C
:101A5000E22FF0E0EC56FA4FD082CC56DA4F8FEFFF
:101A600088838091F50790E689278093F507DF91B9
:101A7000CF911F910F91FF90EF90DF90CF90BF908B
:101A8000AF909F908F900895FD01EB5BFA4F2081FE
:101A9000922F9F5F9083E22FF0E0ED5CFA4F9091E0
:101AA000F5079D5FC2CF93FF2AC0D316D8F4ECEFA1
:101AB000E30FF0E0BF016D5A7B4FFB0140811296AE
:101AC0004C9312973150832F90E08D5A9B4FFC011D
:101AD0004083FB0110821296EC91F0E0EC56FA4F35
:101AE0003083B2CFE3E0E30FF0E0BF016D5A7B4FEC
:101AF000FB01408112964C9312973F5FE4CF87FF22
:101B0000A3CF4091F5078D2D841B805D90E08D5A09
:101B10009B4FFC01308112963C931082A32FB0E0C2
:101B2000AC56BA4F8FEF8C9380E6E42FE827F0E0B5
:101B3000EC56FA4F80818150808386CF98E0899F50
:101B400090011124260F311D8830E8F0683030F004
:101B5000F901EE5EFD4F908190689083F901ED5E92
:101B6000FD4F97E04191DF01119740684C939150F0
:101B7000C9F79091E501983330F4F901E65EFD4F25
:101B8000908190689083683048F4F901E65AFD4FDF
:101B900090819F679083883360F00895F901EE5A31
:101BA000FD4F90819F679083683378F3883318F0F6
:101BB0000895683030F0F901EE5AFD4F8081806859
:101BC0008083F901ED5AFD4F87E09191DF01119774
:101BD00090689C938150C9F7683350F7F901E65A31
:101BE000FD4F8081806880830895CF93DF938EE3DB
:101BF00091E043E554E0DA0130E020E0ED91EE239E
:101C0000B9F0F0E0ED5CFA4FEC01C20FD31F608138
:101C100068832F5F3F4F2830310581F70896405F7A
:101C20005F4F21E08E37920731F7DF91CF91089512
:101C3000ECE0F1E0E9CFDB01FC0124912C9331963B
:101C4000E4911196EC931197FC013296E49112966F
:101C5000EC931297FC013396E4911396EC9313974F
:101C6000FC013496E4911496EC931497FC0135969C
:101C7000E4911596EC9315970696FC0184911696BF
:101C80008C9308959F92AF92BF92CF92DF92EF9282
:101C9000FF920F931F93CF93DF930EE311E0B12CCC
:101CA00083E5E82E82E0F82E97E0992E6801E7019F
:101CB000A12CF60121916F01222361F1822F8770FF
:101CC00090E025FF25C00197989E9001999E300DC8
:101CD0001124C9018F519E4FBE010E941B0E2896F0
:101CE000A394F8E0AF12E5CF80E4E80EF11CB394C2
:101CF000085F1F4FBF12DACFDF91CF911F910F9175
:101D0000FF90EF90DF90CF90BF90AF909F9008959D
:101D10000596DACF8B2D8A0D80FDE1CFBE0188EECE
:101D200091E0DBCF98E0899FF0011124E07CF7700F
:101D3000E40FF11DED5AFD4F982F97702FEF30E013
:101D400001C0220F9A95EAF79081922B9083E05C74
:101D5000FF4F887F885F70E06F5F7F4F9FEF885FE6
:101D60008617170609F024F49083E05CFF4FF7CF45
:101D70006770772781E090E001C0880F6A95EAF7E5
:101D800081509081892B80830895282F277091E0BE
:101D900001C0990F2A95EAF728E0829FF0011124EB
:101DA000E07CF770E60FF11DED5AFD4F461738F055
:101DB0008191DF011197892B8C936F5FF7CF089585
:101DC00098E0899FF0011124E07CF770E60FF11D87
:101DD000ED5AFD4F877021E030E001C0220F8A9557
:101DE000EAF78081822B80830895CF93C82F0E94C9
:101DF000570C81E20E94510C80E40E94510C8FE745
:101E00000E94510C0E94590C8C2FCF910C94780693
:101E1000CF93C82F0E94570C81E20E94510C80E0A2
:101E20000E94510C8FE30E94510C0E94590C8C2F80
:101E3000CF910C947806AF92BF92CF92DF92EF923F
:101E4000FF920F931F93CF93DF9338E0439FF001EE
:101E50001124E07CF7702E0F3F2F311D2D5A3D4F7E
:101E60004770042FEFE1F0E0DF01042E01C0AA0F5C
:101E70000A94EAF758E0541BC52F02C0F595E79580
:101E80005A95E2F77C01BA2EB0949E2F9095662366
:101E900009F43FC0F70141917F01442309F439C09F
:101EA00085EBC82E8AE0D82E4150F601141634F482
:101EB000A491B0E01196CA0EDB1EF6CF7491A22E4B
:101EC000D90131968A2F8A19871740F0472F50E0A1
:101ED0004F5F5F4F240F351F6150D9CF449150E0C1
:101EE0008C918B216A01002E01C0CC0C0A94EAF778
:101EF0008C298D93DF968C91DF9789230C2E02C05D
:101F0000559547950A94E2F7482BDF964C93DF9757
:101F1000D8CFDF91CF911F910F91FF90EF90DF907D
:101F2000CF90BF90AF900895CF93DF93CDB7DEB73A
:101F300060970FB6F894DEBF0FBECDBFFC01CE0197
:101F40000196DC0134913D9331963A2F381B3617B8
:101F5000C8F30E941B0F60960FB6F894DEBF0FBE49
:101F6000CDBFDF91CF910895DF92EF92FF920F9353
:101F70001F93CF93DF9300D000D0CDB7DEB7D82E1C
:101F8000162F4DE361E0812F0E94C50E4DE361E005
:101F90008CE0810F0E94C50E0BE0010FFF24F3942B
:101FA000F10E40E0602F8F2D0E94920E4EE3602FC5
:101FB0008F2D0E94920E62E08F2D0E94E00E6CE346
:101FC0008F2D0E94E00E92E0E92EE10E61E08E2D51
:101FD0000E94E00E6DE38E2D0E94E00E2AE0F22EAC
:101FE000F10E61E08F2D0E94E00E6DE38F2D0E94B7
:101FF000E00E62E0802F0E94E00E6CE3802F0E94D2
:10200000E00E8091EB019091EC010897F1F0809146
:102010007F01D8121AC003E0602F8E2D0E94E00EBF
:10202000602F8F2D0E94E00E0E5F0D33A9F703E0A5
:10203000F02EF10E62E08F2D0E94E00E6CE38F2DEA
:102040000E94E00E0E5F0B3099F71C5F8091E20159
:102050008D21B9F1ED2CF12C86E0F594E7948A9569
:10206000E1F7F701E052FE4F8081845E8C8324E02B
:10207000412F61E0CE0104960E941B0F8AE2898302
:102080008EE28A83F701E252FE4F8081815F8B836B
:102090002BE0412F63E0CE0101960E941B0F80913F
:1020A000EB019091EC01059799F40F900F900F9030
:1020B0000F90DF91CF911F910F91FF90EF90DF90E4
:1020C000089524E0412F66E08AEA91E00E94940F8F
:1020D00085EA91E0D5FC02C080EA91E023E2412F3D
:1020E00065E00E94940FE1CF5F926F927F928F9292
:1020F0009F92AF92BF92CF92DF92EF92FF920F9397
:102100001F93CF93DF9300D0CDB7DEB762E380910A
:102110003B010E94B40F60E080913C010E94B40F2B
:102120000091DD01E090EB01F090EC01063008F049
:102130004AC046E050E0401B5109842F880F880FA9
:10214000142F181B110F145D25E0D22E3EE0C32E74
:1021500048E1742E52E3652E60E4562E1E30D8F10D
:10216000DC9C50011124C50187579E4F4C010E94F1
:10217000480686958F3008F08EE0272D281B412FCA
:1021800067E0C4010E941B0FC50180579E4F5C0190
:102190000E944806482F50E09A012F5F3F4F359527
:1021A0002795962D921B292F490F511D413451051A
:1021B00014F0252D281B412F67E0C5010E941B0F3D
:1021C0001650DA94CBCF16E288E0E816F10409F451
:1021D000BBCF1CE2B9CF88E0E816F104E9F4109116
:1021E0007E01163041F420E04CE269E088ED91E098
:1021F0000E94940F11C0123078F020E04CE265E0AC
:1022000083ED91E00E94940F133009F45CC008F054
:1022100049C0123009F451C0002391F1802F6AE0C7
:102220000E94C92A925F9A83825F8983063008F0F0
:1022300056C046E050E0401B5109842F880F880F9C
:10224000142F181B110F145D07E189818E3009F0DE
:102250004EC08A818E30A1F024E0412F61E0CE0192
:1022600002960E941B0F8A818E3009F049C00A83B2
:1022700089818E3009F041C0098316501E3028F73D
:102280000F900F90DF91CF911F910F91FF90EF90E2
:10229000DF90CF90BF90AF909F908F907F906F9086
:1022A0005F9008951430A9F0153009F0B5CF26E1FC
:1022B0004CE269E080EB91E09BCF26E14CE268E0E4
:1022C0008BEC91E095CF26E14CE26AE081EC91E065
:1022D0008FCF26E14CE268E089EB91E089CF1CE2E8
:1022E00098E0E916F10409F0AFCF16E2ADCF20E097
:1022F000412F62E0CE010196B4CF81508983BDCFDA
:1023000081508A83BACF28E043E552E0DA01BC016C
:10231000605C7F4FFC0134913D933196E617F707DF
:10232000D1F7405C5F4F215080589F4F2111EECF75
:102330000895DC012D913C9111971296EC91E20FDA
:10234000F32FF11DED50FF4F80810895AF92BF92A2
:10235000CF92DF92EF92FF920F931F93CF93DF9371
:1023600000D01F92CDB7DEB7E0E6C82ECE26AC2D4A
:10237000B0E0AC56BA4F9C9191112AC08B01E82E67
:10238000282F30E0F901EC56FA4FF080F11012C01E
:10239000F8011182108281E00F900F900F90DF9171
:1023A000CF911F910F91FF90EF90DF90CF90BF9052
:1023B000AF90089582E08E0D4AE04E0D481751F01F
:1023C000E82FF0E0EC56FA4F90818F5F97FDF6CF43
:1023D00080E0E2CFF3E0FF15D8F694E0F916C1F300
:1023E0002B5B3A4FF9019081D12C891749F0E82FE6
:1023F000F0E0EC56FA4F208127FFD3948F5FF5CFA2
:1024000083E594E09A838983EB82CE0101960E9452
:1024100099119B81905EA0E09817E9F0282F30E099
:10242000F901EC56FA4F408147FD13C02D5C3A4F3D
:10243000F90120812770243061F4242F22952F7018
:10244000242720FBAA24A0F8B12C95012F5F3F4F31
:10245000A22B8F5FE1CFF6E0FF1204C082E0D81616
:1024600009F496CFE394EE2DF0E0EC56FA4F90810C
:10247000C394EC2DF0E0EC56FA4F2081622F70E00F
:1024800044E0759567954A95E1F72770492F50E02C
:10249000E4E055954795EA95E1F7461B570B57FF42
:1024A00003C05195419551099770E92FE21BFF0B2D
:1024B000CF01F7FF03C0919581959109480FF6E090
:1024C000FF1226C081E0D81223C0A0FD1BC08EE001
:1024D000821B260F861B281708F4822F94E0F99E92
:1024E00090011124820F932F911D880F991F841B37
:1024F000910934E0880F991F3A95E1F7F80191832B
:10250000808349CF862F821B295F261B895FE3CFFB
:10251000362F330F87E090E0831B910997FF03C0AC
:10252000919581959109220F67E070E0621B710916
:1025300077FF03C0719561957109860FCFCF635006
:1025400070E09B0143E0220F331F4A95E1F72870AA
:1025500056E0660F771F5A95E1F76078622BFC0111
:1025600020812777622B608308950F931F93CF9369
:10257000DF9300D0CDB7DEB7FC017A8369839A81FF
:10258000892F877782958F70841759F0CF01029633
:10259000718360830F900F90DF91CF911F910F9106
:1025A00008958F0190689A8360912F01CE01019662
:1025B0000E949F12FC0180819181F80191838083A8
:1025C00060913101CE0101960E949F12FC01808131
:1025D0009181F8019383828360913A01CE01019643
:1025E0000E949F12FC0180819181F8019583848370
:1025F00060913001CE0101960E949F12FC01C8013A
:10260000089620813181F80137832683C3CFDC010E
:10261000EC91F0E0E25FF74F8491E62F660FFF0B3D
:10262000E257F84FE491E82381E009F480E008954F
:10263000FC0180818770843018F097E0981B892F07
:102640000895CF93FC01208130E044E03595279533
:102650004A95E1F7C7E0C21B611101C0C22FCC0F40
:10266000CC0F0E9418138C0FCF9108952F923F9298
:102670004F925F926F927F928F929F92AF92BF9292
:10268000CF92DF92EF92FF920F931F93CF93DF933E
:10269000CDB7DEB764970FB6F894DEBF0FBECDBFDF
:1026A000C82E81E06C2C6826A0E4DA2E80E0CC20D5
:1026B00019F0F0E2DF2E87E0FE0131965E012BE09B
:1026C000A20EB11C4F018193AE16BF06E1F780E662
:1026D0005D2C582642E0450D5AE0550DE12C54176B
:1026E00009F1E42FF0E0EC56FA4F808187FD18C025
:1026F000E394282F30E0E4E035952795EA95E1F75B
:10270000877090E00196F401E80FF91F8081CC20DA
:1027100021F0821720F4282F02C02817E0F320832D
:102720004F5FDDCF30ED3D0D388B62E0762E7D0CB6
:102730007AE0372E3D0C10E000E08EEF482E4D1869
:10274000371409F48AC0E72DF0E0EC56FA4FF08018
:10275000FB86F7FC53C0E394662DC5010E9421134C
:10276000E82FF0E0EE0FFF1FEB56F74F85919491A5
:10277000080F191FC5010E941813EF2D6889E61B69
:10278000AFEFAE0FB0E0AD5ABB4F9C91940D9830B7
:1027900048F0EF5FF0E0ED5AFB4F9081940D40E080
:1027A000983058F4E82FF0E0EE0FFF1FEB5EF54F86
:1027B00025913491020F131F41E09F2D92959F7038
:1027C0002F2D277030E0F401E20FF31F5081C1106C
:1027D00017C0951798F0E2E0F0E0EC0FFD1FE20F54
:1027E000F31F5081951750F0E3E0F0E0EC0FFD1F70
:1027F0002E0F3F1FF90120819217B8F47394A0CFD8
:102800005917E0F3E2E0F0E0EC0FFD1FE20FF31FD9
:102810005081591798F363E070E06C0F7D1F260F0D
:10282000371FF9012081291748F3E82FF0E0E05322
:10283000FF4FCF01880F991FFC01EB56F74F2591F1
:102840003491020F131F4423C9F2FC01E356F74FE2
:1028500085919491080F191FD1CFFEE0FE1510F459
:102860002FE0E22EED2DF0E0EB5BFA4F20812C8B78
:10287000F12C3CEEE30EF11CEE0CFF1CB7016B5685
:10288000774F1B01198A8EEF482E4D189FE8892E2D
:102890009AE0992E7C89771509F448C0E72DF0E07D
:1028A000EC56FA4FC080CB86C7FC3EC0662DC501F2
:1028B0000E942113E82FF0E0EE0FFF1FEB52F74FBD
:1028C00085919491080F191F8889C81AEFEFEC0DB4
:1028D000F0E0ED5AFB4F8081840D883048F0C394BE
:1028E000EC2DF0E0ED5AFB4F8081840D883068F4C8
:1028F000C5010E941813E82FF0E0EE0FFF1FE35E02
:10290000F54F85919491080F191FF10185919491CC
:10291000080F191F9989992329F0F4018591949141
:10292000080F191FE1E0E98B7394B4CFE1E0E50DE6
:10293000F0E0EC56FA4F408083E594E09C878B876B
:10294000DD86C5010E949911C82E8D85805E888B19
:1029500097012B58374F1901812C712C71E9A72E43
:102960007AE0B72E38893C1509F491C08C2D90E09F
:10297000BC016D5A7B4F7B01FB01EF5BFE4F9080EA
:102980009F8697FC75C0662DCE010F960E9421137D
:10299000F701E052FF4FE081E770EE87E450EE2E42
:1029A000F12CF70155E0EE0FFF1F5A95E1F7E05CBF
:1029B000FF4FE80FF11DEE0FFF1FEB56F74F85910C
:1029C0009491080F191F642D6919CE010E960E946B
:1029D0000713882349F0F701EE0FFF1FEB5BF54F5C
:1029E00085919491080F191F8E85982F937009F483
:1029F00041C0853061F4F10185919491080F191F50
:102A0000772059F1F50185919491080F191F892DAF
:102A10008F708F8728E0FF24F3949F85E92FF0E0E3
:102A2000ED5AFB4F80818250382F3D19383000F12C
:102A30008519883008F4F12C905F9F87215069F741
:102A4000CE010F960E941813E82FF0E0F11008C095
:102A5000EE0FFF1FE35DF54F07C077247394D7CFC8
:102A6000EE0FFF1FEB5DF54F85919491080F191F35
:102A7000C39478CF892D82958F709826792D7170A7
:102A80007A8B1B8A8A899B890196882AF1CF83E0F9
:102A9000881206C0EBE4FAE085919491080F191FA3
:102AA000E1E0ED0DF0E0EC56FA4FF080FE86662D89
:102AB000CE010E960E942113E82FF0E0EE0FFF1FCB
:102AC000EB52F64F85919491080F191FA2E3B1E0E4
:102AD0004AE351E070E06D918F2D860F282F30E092
:102AE0002D5A3B4FF90190819D2111F47F5FF5CF65
:102AF0004A175B0781F77C3008F07CE0E72FF0E0B5
:102B0000EE0FFF1FED56F54F85919491800F911FA9
:102B100064960FB6F894DEBF0FBECDBFDF91CF91A4
:102B20001F910F91FF90EF90DF90CF90BF90AF90EB
:102B30009F908F907F906F905F904F903F902F90DD
:102B400008950F931F93CF93DF9300D0CDB7DEB7D7
:102B50008091F7079091F80701969093F80780937A
:102B6000F707BE016F5F7F4F8091F5070E94A611A6
:102B7000811128C09091F507BE016F5F7F4F80E6FD
:102B800089270E94A611811116C081E00E94361388
:102B90008C0180E00E9436139801281B390BC90173
:102BA000EDE8FAE02091F50725FF15C02591349155
:102BB000820F931F05C089819A8191958195910912
:102BC0009A83898389819A810F900F90DF91CF91A9
:102BD0001F910F91089525913491281B390B3A8349
:102BE0002983F0CFDC01EC910E2E000CFF0BED5D84
:102BF000FE4F84910895DF92EF92FF920F931F93FF
:102C0000CF93DF93CDB7DEB72A970FB6F894DEBF28
:102C10000FBECDBFF82E8091F50720E62827E0ED06
:102C2000EF0DE20FAFEFAE0FB0E0AD5ABB4F1C910E
:102C30009EEF981B312F390F383088F580E2821BC8
:102C40008295869587709F2D92959F70891709F4BC
:102C5000FDC080E01123A9F0EF2DF0E0ED5AFB4F0D
:102C6000E081F0E0ED5CFA4FE081E770F0E0EA5ED1
:102C7000F74F0491080F8091F4058C3009F0E8C0FB
:102C8000802F2A960FB6F894DEBF0FBECDBFDF911E
:102C9000CF911F910F91FF90EF90DF900895EF5F1C
:102CA000F0E0ED5AFB4F1081910F983038F21AE0A6
:102CB000180FE82FF0E0EB5BFA4F0081101789F056
:102CC000E12FF0E0EC56FA4F808187FD08C06F2DB0
:102CD000681B81E391E00E9407138111BACF1F5F47
:102CE000EDCF8091F50723E534E03A8329838B8388
:102CF000CE0101960E949911182F8B8130E2E32EAC
:102D0000E80EE11651F1812F90E0FC01EC56FA4FEC
:102D1000008107FD20C08D5C9A4FFC018081877087
:102D20008430C9F4DF2CD01A6D2D80E391E00E942D
:102D30000713882381F0DC82CE0104960E94F215ED
:102D4000080FE02FF0E0ED5AFB4F90819923C1F37B
:102D50000F1509F47ECF1F5FD4CF8091F50723E5CF
:102D600034E03D832C838E83CE0104960E9499111A
:102D7000182F8E8120E2E22EE80EE11651F1812F0C
:102D800090E0FC01EC56FA4F008107FD20C08D5CFD
:102D90009A4FFC01808187708530C9F4DF2CD01AEE
:102DA0006D2D8AE391E00E940713882381F0DF8272
:102DB000CE0107960E94F215080FE02FF0E0ED5AC1
:102DC000FB4F90819923C1F30F1509F442CF1F5F88
:102DD000D4CF8091F50723E534E038872F838987A6
:102DE000CE0107960E949911182F898590E2E92E4D
:102DF000E80EE11609F441C0812F90E0FC01EC5689
:102E0000FA4F008107FD20C08D5C9A4FFC01808144
:102E100087708630C9F4DF2CD01A6D2D8FE291E0D7
:102E20000E940713882381F0DA86CE010A960E9459
:102E3000F215080FE02FF0E0ED5AFB4F9081992337
:102E4000C1F30F1509F405CF1F5FD3CF80E202CF86
:102E5000A12FB0E0AC56BA4F1C91812F9F2D0E943C
:102E6000690C8F2D0E94FB15E82E812F9F2D0E944B
:102E7000AE08802F8E1987FF04CF80E002CFCF935A
:102E8000DF930E94A115EC01E091F40585E0E89F35
:102E9000F0011124E451FB4F8281882349F08181A4
:102EA00087770E94FB1599E18902C00DD11D11247D
:102EB000CE01DF91CF9108952F923F924F925F9272
:102EC0006F927F928F929F92AF92BF92CF92DF923A
:102ED000EF92FF920F931F93CF93DF9300D000D018
:102EE0001F92CDB7DEB78C016C01DC01612C412C47
:102EF0006616F9F011968C91119787FD08C0E82F9E
:102F0000E777F0E0ED5AFB4F9081992379F0E42DBB
:102F1000F0E0EE0FFF1FE00FF11F9C912081318147
:102F200011963C932E9390838183439463941296DD
:102F3000DFCF2EE1241510F47FE1472E65E9262E20
:102F400065E0362E78015101712C741409F43CC0EF
:102F5000D7018D909C9011971196BC91BB83B7FFC0
:102F600023C0F70180810E945B0CE82FF0E0EA5E4D
:102F7000F74FE4915CEF552E5E0E8091F4058C3096
:102F800059F0C4010E94690C8B8187770E94FB1560
:102F9000581AC4010E94AE08D5015D925D01739478
:102FA000B2E0EB0EF11CD1CFEB81E777F0E0ED5A08
:102FB000FB4FE081F0E0ED5CFA4FE081E770F0E07C
:102FC000EA5EF74F5490D9CF672DC8010E94EF05F4
:102FD00025E935E0962C90E080E0B12C4DEB5EEFDA
:102FE000FA01E355F4407F01B714D8F5D9014D91AA
:102FF0009D0147FF33C0962C9718D801A80FB91F21
:10300000F701E20FF31FE90DF11DEE0FFF1FAF01F6
:10301000400F511F5D834C83AB2CBC016150710983
:103020008C9011965C901197EC81FD8141915191AA
:10303000FD83EC834D935D93AF0142505109FA013A
:1030400080824C815D81481B590B460F571FFA0146
:103050005082A3947A10E4CF9B0C7B2CB3940296FD
:10306000C3CF711064C0FEE1792CF91510F42FE183
:10307000722E812C871409F456C06090F50766FA09
:10308000662460F8D601EC91E777EA83F0E0ED5A28
:10309000FB4FE081F0E0ED5CFA4FA080BA2DB770F5
:1030A000AB2EAA94AA94E5E0EA1508F4A12CD60167
:1030B00011968C9187778983662DCE0101960E94A7
:1030C0002113B0E2AB9E50011124F501E80FF11D70
:1030D000EE0FFF1FEB56F74FE590F490662DCE01F3
:1030E00002960E942113F501E80FF11DEE0FFF1F5C
:1030F000EB56F74F85919491F701E81BF90BCF013F
:103100008138FFEF9F0714F481E89FEF8038910525
:1031100014F08FE790E0D1018D931D018394B2E00C
:10312000CB0ED11CA7CF682DC8010E94EF05892DB9
:103130000F900F900F900F900F90DF91CF911F91F4
:103140000F91FF90EF90DF90CF90BF90AF909F9046
:103150008F907F906F905F904F903F902F90089549
:103160009F92AF92BF92CF92DF92EF92FF920F9316
:103170001F93CF93DF9300D000D01F92CDB7DEB75F
:10318000A0E3A60FA81B9EEF981B2FEF2A0FE22F9C
:10319000F0E0ED5AFB4F2081290F283008F48CC055
:1031A000AF5FB0E0AD5ABB4F2C91920F983008F44E
:1031B00083C0062F182F2AE0E22EE80EE82FF0E059
:1031C000EB5BFA4FD080ED1489F0EE2DF0E0EC5679
:1031D000FA4F608167FD08C0601B81E391E00E94A7
:1031E0000713F82E811146C0E394EDCF802F90E0B5
:1031F0009C012D5A3B4F6901F901908080E6808344
:1032000083E594E09A8389831B83CE0101960E9413
:103210009911B82E8B8190E2A92EA80EAB14E1F182
:103220008B2D90E0FC01EC56FA4FE080E7FE02C0E7
:10323000B394F4CF8D5C9A4FFC018081602F6E199E
:103240006D8387708C83CE0104960E940713F82E3D
:10325000882371F3CE0105960E94F215E80EEE2D3B
:10326000F0E0ED5AFB4F90819923C1F30E11E0CFAE
:10327000F60190828F2D0F900F900F900F900F906E
:10328000DF91CF911F910F91FF90EF90DF90CF9042
:10329000BF90AF909F900895F60190821F5FE12F3D
:1032A000F0E0EC56FA4F8081602F681B8EE291E0CF
:1032B0000E940713F82EDECFFF24F394DBCF2F926A
:1032C0003F924F925F926F927F928F929F92AF92B6
:1032D000BF92CF92DF92EF92FF920F931F93CF9303
:1032E000DF93CDB7DEB7AC970FB6F894DEBF0FBE55
:1032F000CDBF1C01F090F50780E65F2C582630ED1D
:10330000632E6F0C80E28F1990E09C0145E03595AB
:1033100027954A95E1F73CA32BA34BA086E02827ED
:103320002BA731E03F0D3DA3832F90E0AC014C561D
:103330005A4F5FA34EA3DA01EC901092F60783E593
:1033400094E09A8F898F5B8ECE0149960E949911E5
:10335000982E8B8D805E8CA78101DD24DA94C12CA0
:10336000BCA5B91509F4CEC0892D90E0FC01EC563E
:10337000FA4FA080A7FC2EC08D5C9A4FDC01EC9127
:10338000E7709A2D9E199F8FF0E0E25FF74F8491CE
:10339000E92F990FFF0BE257F84FE491E823E37010
:1033A000C9F0CE014F960E94F215782EBE2CB70CB4
:1033B000EB2DF0E0F9A7E8A7ED5AFB4F9081992398
:1033C000B1F3AB1009C08091F6078E5F8093F607CA
:1033D0007AA6DA2C9394C4CF492F50E0FA01ED5C21
:1033E000FA4F8081282F20762F11F4CFF7E0053E89
:1033F0001F0708F0C5C38B2C870CE82DF0E0ED5AB1
:10340000FB4F20812223C1F3A810E4CF2C2D30E004
:10341000EDE0F0E0EC0FFD1FE20FF31FB0824C5621
:103420005A4FEFEFDA01EC93C39441E050E04C0FB8
:103430005D1F240F351FD9019C938770833008F0DE
:1034400043C0A62CAB0C872D877041F5EA2DF0E028
:10345000ED5AFB4F80818111BDCF442D6B2D7A2D0C
:10346000C8010E94B5128C01A60CEA2DF0E0ED5ABD
:10347000FB4F80818111AECF88A599A524E0959559
:1034800087952A95E1F7BBA5B813A4CF8B2D88604B
:10349000F8018083A1820E5F1F4F9CCF8FEF8A0DB2
:1034A000881207C0442D6B2D782DC8010E94B512DB
:1034B0008C01A3948A108ECF442D6B2D782DC801DA
:1034C0000E94B5128C0186CF8C8F6F8DCE014C96E9
:1034D0000E940713882309F47DCFD8019B2D970DF7
:1034E000FD013296BC9211969C93DF018912F7CFB1
:1034F0008B2D8F018719E81609F46CCFB082818378
:103500003296F7CFE091F40525E0E29FF001112417
:10351000E451FB4F81818777B82E9E2D981BE82FB1
:10352000F0E0ED5AFB4FE081F0E0ED5CFA4FE08116
:10353000E770F0E0E25FF74F8491E92F092E000C6D
:10354000FF0BE257F84FE491E823EC7F69F080919C
:10355000F6078F5F8093F60791959C8FCE014C966E
:103560000E94F2158AA7DB2C8091F607882309F4C4
:103570006FC0833008F096C2E091F40535E0E39F18
:10358000F0011124E451FB4F8181877781018D1572
:1035900009F4C7C08091F60780FF69C1BD2CB61839
:1035A0006FEF6B0DE62FF0E0ED5AFB4FE0818EEFF1
:1035B000E82EEF188E2F8E0D883060F4F0E0EC5678
:1035C000FA4F808187FD06C04BA17D2DC8010E9466
:1035D000B5128C0161E06B0DE62FF0E0ED5AFB4F68
:1035E000E0818E2F8E0D883060F4F0E0EC56FA4FBB
:1035F000808187FD06C04BA17D2DC8010E94B512B8
:103600008C01F7E0053E1F0708F0BAC2FAE0EF2E82
:10361000EF0CEF2DF0E0EB5BFA4FA080AE1409F455
:10362000E2C0EE2DF0E0EC56FA4FB080B7FC0EC0D1
:103630006D2D6B1981E391E00E940713882331F00F
:10364000D801BC921196DC920E5F1F4FE394E6CF37
:1036500047E0053E140708F093C2E091F40555E0F9
:10366000E59FF0011124E451FB4FA3808F2D82953B
:10367000869587708A2171F16FEF6E0DE62FF0E06D
:10368000ED5AFB4F8081811125C0BEEFBB2EBE0CD1
:10369000EB2DF0E0ED5AFB4F808181111BC0EDEF67
:1036A000EE0DF0E0ED5AFB4F8081811113C0852DA6
:1036B0000E94B01881110EC06B2D852D0E94B0188C
:1036C000811108C0D801EC928B2D886011968C93E3
:1036D0000E5F1F4FAF2029F161E06E0DE62FF0E085
:1036E000ED5AFB4F808181111CC0A2E0BA2EBE0CA6
:1036F000EB2DF0E0ED5AFB4F8081811112C0852D3A
:103700000E94B01881110DC06B2D852D0E94B0183C
:10371000811107C0F801E0828B2D886081830E5FE4
:103720001F4FF7E0053E1F0708F02AC2E091F4059D
:1037300025E0E29FF0011124E451FB4F808183FFDB
:1037400029CF81818777B82E8091F607882311F0E1
:10375000DB1020CF88248A948B0CE82DF0E0ED5A02
:10376000FB4FE0818EEFA82EAF188E2F8A0D883088
:10377000B8F4F0E0EC56FA4F808187FD11C04B2D74
:10378000682D8E2D0E948F0981110AC0882D8068B6
:10379000D8018C93862D8B0D11968C930E5F1F4F45
:1037A000882483948B0CE82DF0E0ED5AFB4FE081E8
:1037B0008E2F8A0D883008F0EDCEF0E0EC56FA4FEF
:1037C000808187FDE7CE482D6B2D8E2D0E948F09BD
:1037D0008111E0CE882D8068F8018083B60CB1821B
:1037E0000E5F1F4FD7CEB7E0053E1B0708F0C8C1DC
:1037F00083E594E09D8F8C8FFE8ECE014C960E94C7
:103800009911E82E8E8DE0E2AE2EA80EAE1409F4CA
:103810004AC18E2D90E0FC01EC56FA4FB080B7FC07
:1038200024C08D5C9A4FFC0180816D2D6B196AA3B9
:1038300087708F8FCE014F960E9407138823A9F0BF
:10384000CE0182960E94F2159B2D980FE92FF0E091
:10385000ED5AFB4F20812223C1F3D91206C0D801B3
:10386000BC921196DC920E5F1F4FE394CFCFB7E06E
:103870000D3B1B0708F084C162E0A62EAF0C7AE076
:10388000772E7F0C7A1409F44FC0EA2DF0E0EC5645
:10389000FA4FB080B7FC46C0862C8B0C7FEF780DBA
:1038A000E72FF0E0ED5AFB4F80818076581206C07A
:1038B000442D6B2DC8010E94B5128C0171E0780D6A
:1038C000E72FF0E0ED5AFB4F80818076581206C05A
:1038D000442D6B2DC8010E94B5128C01E82DF0E03B
:1038E000ED5AFB4F808181111DC0442D6B2D782D29
:1038F000C8010E94B5128C01860CE82DF0E0ED5A4B
:10390000FB4F808181110EC08B2D82958F70EBA5AE
:103910008E1308C08B2D8860D8018C9311968C92E1
:103920000E5F1F4FA394AECFEF2DF0E0EB5BFA4F8D
:1039300040812EE038E04A1521F1EA2DF0E0EC5606
:10394000FA4F808187FD1BC0B7E0053E1B0708F0DA
:1039500017C1E6E0F8E09491582F5E0FA52FB0E074
:10396000AD5ABB4F9C919F2131F4D8018C93119695
:103970005C930E5F1F4F31962E173F0761F7A3949C
:10398000DACF83E594E098A38F8FF9A2CE014F960A
:103990000E94991129A1205E6AE271E05EE2652E23
:1039A00051E0752E281709F452C0482F50E0FA0153
:1039B000EC56FA4F908197FD48C0B7E00D3B1B07CE
:1039C00008F0DEC04D5C5A4FFA01B0803B2D3370D9
:1039D000E9F0EAE2F1E0A190A801392F8A013A0D5D
:1039E000432F50E04D5A5B4FDA018C90482D4F2108
:1039F00051F4A8014E5F5F4FD8019C9311963C9300
:103A0000882061F38A016E167F0629F7B0FC1DC07D
:103A1000E6E2F1E0B190A801392F8A013B0D432F76
:103A200050E04D5A5B4FDA01AC904A2D4F2151F4D2
:103A3000A8014E5F5F4FD8019C9311963C93AA203A
:103A400061F38A016E177F0729F78F5FABCF8091F3
:103A5000F607882341F15101A016B10620F5F501C2
:103A600081818777882E8E198C8FCE014C960E948B
:103A7000F215FAA58F1779F0F80192918291D5018C
:103A80008D939C9395012250310959018F0132E0A9
:103A9000A30EB11CE1CF9E2D980F8916C1F3D91248
:103AA000FBCFEACF810145EE241647E0340608F04B
:103AB00067C0AEA1BFA1DC90AD2CB12CF501ED5AD1
:103AC000FB4F108232E3832E31E0932E4AE3642EC3
:103AD00041E0742EF401E1904F01ED0CEE2DF0E089
:103AE000ED5AFB4F80818F2161F46E2D852D0E9450
:103AF000B018811106C0D801DC921196EC920E5FCD
:103B00001F4F6814790431F7F501ED5AFB4FBDA141
:103B1000B083CC20B9F0CA948C2D90E0E1E0F0E0C5
:103B2000EC0FFD1FE80FF91FE081F0E0EC56FA4FB3
:103B30002DE030E02C0F3D1F820F931FDC018C9194
:103B40008083E7CFC8018219930995958795AC9634
:103B50000FB6F894DEBF0FBECDBFDF91CF911F919E
:103B60000F91FF90EF90DF90CF90BF90AF909F901C
:103B70008F907F906F905F904F903F902F9008951F
:103B8000CC20B9F0CA948C2D90E0E1E0F0E0EC0F8D
:103B9000FD1FE80FF91FE081F0E0EC56FA4F2DE031
:103BA00030E02C0F3D1F820F931FDC018C9180832E
:103BB000E7CF8FEFCCCFCF9385EF95E00E945F19D1
:103BC000C82FE091F40585E0E89FF0011124E4514D
:103BD000FB4F84818436B8F40E94A308811115C07C
:103BE0000E945D07823098F49091F607CC2331F063
:103BF00081E0911101C080E0CF91089586E091119C
:103C0000FBCF85E0F9CF82E0F7CF84E0F5CF83E00A
:103C1000F3CF8091F50780937F010E94DB1D809395
:103C20007E01823038F088E090E09093EC01809340
:103C3000EB010895E0917F018091E2018E23F1F084
:103C400088E08093FE07F0E086E0F595E7958A9599
:103C5000E1F7E252FE4F808190E0880F991F0996AC
:103C600021E030E002C0220F331F8A95E2F7309343
:103C7000FA072093F90785E090E0D7CF81E090E044
:103C8000D4CF5F926F927F928F929F92AF92BF92AA
:103C9000CF92DF92EF92FF920F931F93CF93DF9318
:103CA0008C017B015A01622E0E945F19782E8FEFE2
:103CB000781211C0DF91CF911F910F91FF90EF907B
:103CC000DF90CF90BF90AF909F908F907F906F903C
:103CD0005F900C943F1771101AC08091F607D0E0E6
:103CE000C0E0882319F0C62DD0E0DD57CE01DF916A
:103CF000CF911F910F91FF90EF90DF90CF90BF90E9
:103D0000AF909F908F907F906F905F9008950E94EA
:103D1000A1158A159B0514F0E501E8CFEC018E157D
:103D20009F050CF4E70190E0E92FF0E0EE0FFF1F94
:103D3000E00FF11F8181A82FA777B0E0AD5ABB4FEC
:103D40002C91211111C087FD0FC0808187FD0CC00F
:103D50007A949150A72DB0E0AA0FBB1FA00FB11FFE
:103D60002D913C91318320839F5F9715E8F2672D59
:103D7000C8010E945C17E72CF12CEE0CFF1CE00E32
:103D8000F11E512CC12C93E8D92E639488249924D8
:103D90008A189B08571409F4A9CFF80180819181F2
:103DA0000E94690C8091F4058C30D1F40E94A11519
:103DB000919581959109C816D9060CF46C01F8010A
:103DC000808191810E94AE08CC15DD050CF4E601DE
:103DD0000E5F1F4FCA15DB050CF09ECF5394DACF50
:103DE0002091F7073091F8078091F9079091FA0731
:103DF0008217930750F0442755274C1B5D0B262D47
:103E0000B401C7010E94411ED3CF90E080E0D0CF23
:103E10003F924F925F926F927F928F929F92AF925A
:103E2000BF92CF92DF92EF92FF920F931F93CF93A7
:103E3000DF93EC016B015A01322E502EE091F40514
:103E400085E0E89FF0011124E451FB4F8481843622
:103E500008F0B5C00E94A3088111B1C00E945D079F
:103E6000823008F0ACC02091F7073091F8078091BC
:103E7000F9079091FA078217930708F4A0C030164B
:103E800070F18091F4058C3099F4DF91CF911F91FE
:103E90000F91FF90EF90DF90CF90BF90AF909F90E9
:103EA0008F907F906F905F904F903F900C94A115F2
:103EB000232DA501B601CE01DF91CF911F910F9166
:103EC000FF90EF90DF90CF90BF90AF909F908F903A
:103ED0007F906F905F904F903F900C94411ECE0169
:103EE0000E945F19182F8F3F99F4DF91CF911F9196
:103EF0000F91FF90EF90DF90CF90BF90AF909F9089
:103F00008F907F906F905F904F903F900C943F17F1
:103F100081111CC08091F607882309F450C0632CDE
:103F2000712C8DE7781AC301DF91CF911F910F910A
:103F3000FF90EF90DF90CF90BF90AF909F908F90C9
:103F40007F906F905F904F903F900895682FCE01C3
:103F50000E945C17E12EF12CEE0CFF1CEC0EFD1EF6
:103F6000612C93E8792E412C3394882499248A1863
:103F70009B08888199810E94690C442755274C1918
:103F80005D09052D232DB401C7010E94081F9195DD
:103F900081959109681679060CF43C018881998114
:103FA0000E94AE08C614D7040CF46301CA14DB04E3
:103FB0000CF0B9CF439422961411DBCFB4CF712CFF
:103FC000612CB1CF1F920F920FB60F9211248F93D5
:103FD0009F938091E1009091E100937F9093E100A5
:103FE00083FF0FC01092E90091E09093EB001092D4
:103FF000EC0092E39093ED001092520298E09093BF
:10400000F00082FF22C093E09093E9009091F200CB
:10401000992319F09AE39093E8009091F301992382
:1040200041F09091F30191509093F301911101C0EF
:104030005D9A90915102992341F0909151029150D3
:1040400090935102911101C0289A84FF18C0809169
:10405000E2008E7E81608093E2008091E1008F7E9D
:104060008093E1008091F4018E7E80618093F40161
:104070009F918F910F900FBE0F901F90189580FF0A
:10408000F7CF8091E2008E7E80618093E200809184
:10409000E1008E7E8093E1008091F4018E7E81604C
:1040A000E5CF1F920F920FB60F921124CF92DF929D
:1040B000EF92FF920F931F932F933F934F935F9332
:1040C0006F937F938F939F93AF93BF93EF93FF93E0
:1040D000CF93DF93CDB7DEB76C97DEBFCDBF109225
:1040E000E9008091E80083FF25C068E0CE01459695
:1040F0000E94590B82EF8093E8008D8987FF39C0B9
:104100009091E80090FFFCCF982F907609F034C191
:104110009E894F89588D2F89F88C911131C0803834
:1041200061F58091F2018093F1001092F1008EEF21
:104130008093E8006C960FB6F894DEBF0FBECDBF3B
:10414000DF91CF91FF91EF91BF91AF919F918F91AF
:104150007F916F915F914F913F912F911F910F919F
:10416000FF90EF90DF90CF900F900FBE0F901F90B9
:1041700018959EEF9093E800C7CF1092F100D5CF2D
:10418000913059F48111D3CF4130510581F680919E
:10419000F2018D7F8093F201CACF933049F48111EF
:1041A000C6CF4130510519F68091F2018260F2CFFD
:1041B000953041F48091E80080FFFCCF2068209387
:1041C000E300B5CF963009F0A9C00B8D1C8D22E01D
:1041D0001092E9001092F0011092EF01F2122EC03D
:1041E0001092EE011092ED010E94280B1F8299E0BF
:1041F0009983FA8291E09E8390EA98879AEF998753
:104200002091EF013091F001275F3F4F3C832B83DA
:104210008D831092E9001092F0011092EF0110933B
:10422000EE010093ED0149E050E0BE016F5F7F4F6A
:1042300080E00E94020B0E94280B79CF1093EE01C0
:104240000093ED010E940C0ADC0112960D911C9165
:104250000115110509F451C1D801ED91FC910480BB
:10426000F581E02DBE016B5E7F4FC8010995009777
:1042700009F03EC1F80100851185EACFF3E0FF1295
:104280000EC08F89882309F440C0823061F440E871
:1042900067E08DEE96E00E94CF0A811148CF81E25F
:1042A0008093EB0047CF813029F440E86BE081EE4A
:1042B00096E0F1CF833099F70E940C0ADC01129648
:1042C000ED90FC908E010F5F1F4F6801E114F10427
:1042D00079F0D701ED91FC910680F781E02DB801CE
:1042E000C7010995080F111DF701E084F184EECF95
:1042F000D8011C92F60101900020E9F73197BF0127
:104300006C197D0940E0C601C6CF6BEC76E0FB017D
:10431000449150E080E80E94020B09CF973009F4E5
:10432000BECF983021F481E08093F10000CF993026
:1043300009F0FDCE837009F0B2CFEEE0F1E081E04C
:1043400031E096E32191222371F08093E9003093CC
:10435000EB00DF0111972C912093EC009093ED007E
:104360008F5F873079F78EE78093EA001092EA003A
:104370008F8980935202DBCE8B8D9C8D1092E90049
:104380001092F0011092EF019093EE018093ED01F5
:10439000898D811192C08E899D89913A49F481322B
:1043A00009F07DCF47E050E064E071E080E0B3CFFA
:1043B000913209F074CF833269F48F89988DB0E01F
:1043C000A0E08093000190930101A0930201B093BB
:1043D0000301ADCE803269F48091E80082FFFCCF0A
:1043E00067E084E091E00E94590B8BEF8093E80036
:1043F0009ECE823209F09BCE8F8980930B01EEEF27
:10440000FFE7859194918B3F9C4D51F1E0E0F8E0FE
:104410008091040190910501A0910601B0910701DE
:10442000803B9440A105B105F1F480910B0180FD22
:104430001AC0EE3F8AE0F80789F587E797E791838E
:104440008083809160008093F10188E19BE00FB64A
:10445000F894A895809360000FBE9093600067CE9B
:10446000EEEFFAE0D5CF808191818737974709F049
:104470005ECEA895809160008861809360008091F5
:10448000F10180936000EE3F2AE0F20789F080910D
:10449000FE0A9091FF0A9183808349CE80819181A9
:1044A0008737980751F29093FF0A8093FE0AC5CF91
:1044B0001092FF0A1092FE0A3ACE0E940C0ADC010A
:1044C00012960D911C910115110509F4E8CED80141
:1044D000ED91FC910190F081E02DBE016B5E7F4F6C
:1044E000C8010995811123CEF80100851185EBCF14
:1044F000181619060CF41BCED2CEF1E0FF12BECE78
:104500006FEC76E004CF1F920F920FB60F9211243A
:104510002F933F938F939F93AF93BF93809181018C
:1045200090918201A0918301B0918401309180012A
:1045300023E0230F2D3758F50196A11DB11D2093BF
:1045400080018093810190938201A0938301B093B5
:1045500084018091850190918601A0918701B0919D
:1045600088010196A11DB11D80938501909386015C
:10457000A0938701B0938801BF91AF919F918F91D4
:104580003F912F910F900FBE0F901F90189526E826
:10459000230F0296A11DB11DD2CF1F920F920FB60D
:1045A0000F9211248F929F92AF92BF92CF92DF927F
:1045B000EF92FF920F931F932F933F934F935F932D
:1045C0006F937F938F939F93AF93BF93CF93DF931B
:1045D000EF93FF93C091EA01E091EB01F091EC01C0
:1045E000E930F10550F5E950FD4D0C94D52A002332
:1045F00081238C238C23AB230D233F2312242025DE
:104600008CE592E00E94831180E00E94080F8CE903
:1046100092E00E94831181E071C00E94420E81E00D
:104620000E94080F0E94741080E00E94F50E86E040
:1046300090E09093EC018093EB018091EA018F5F11
:104640008093EA01FF91EF91DF91CF91BF91AF91FC
:104650009F918F917F916F915F914F913F912F919A
:104660001F910F91FF90EF90DF90CF90BF90AF9090
:104670009F908F900F900FBE0F901F901895909164
:104680007F01E92FF0E0A6E0F595E795AA95E1F71F
:10469000E252FE4F80818E5F880F4091F707509164
:1046A000F80702C0569547958A95E2F7C7E395FF4C
:1046B000C5E010E0D9E1D40F4D2F69E18C2F810FB7
:1046C0000E94C50E1F5F1330B9F749E369E18FEF10
:1046D0008C0F0E94C50E49E369E183E08C0F0E94B4
:1046E000C50ED2E0DC0F48E16D2F8C2F0E94920E98
:1046F0004AE36D2F8C2F0E94920E80E00E94F50EEF
:104700009CCF0E94741081E00E94F50E82E090E040
:104710009093EC018093EB010E94420E8091EB019B
:104720009091EC01039759F48091E801682F67702C
:10473000660F660F660F869588770E949E0DC3FDF3
:1047400006C06091E5018091E6010E949E0D81E026
:104750000E94080F72CF0E94420EEFEDF2E026E0B9
:1047600033E080818F7081932E173F07D1F7EFE1FF
:10477000F3E086E493E011928E179F07E1F7EFE5EF
:10478000F3E026E833E08081887F81932E173F078E
:10479000D1F741E36DE084E10E94C50E41E36DE095
:1047A00082E20E94C50E4CE061E285E10E94920E19
:1047B00042E361E285E10E94920E8091F50785FF58
:1047C0002FC080E090E0029627E0289F8001299F7B
:1047D000100D112463E273E0C8018F519E4F0E94B7
:1047E0001B0E6BE273E0C80188519E4F0E941B0EA6
:1047F00063E373E0C80181519E4F0E941B0E6BE37F
:1048000073E0C8018A509E4F0E941B0EC3FD9FCFCC
:104810006091E9016E5F660F660F660F88E195CFC4
:1048200086E0D0CFC111BBC0E3E5F2E0119224E0F5
:10483000E335F207D9F70E94741081E00E94F50E6B
:104840000E94420ECF3108F07AC09091E801A92F62
:10485000A770AA0FAA0FAA0F8091E70196959877E3
:10486000EC2FF0E0E45CFD4FE491F0E0482F50E0E5
:10487000BA0124E0759567952A95E1F7660F660FF2
:10488000660F691B770B6E9F90016F9F300D7E9FA7
:10489000300D1124205E3F4F66E0369527956A95CE
:1048A000E1F7290F8770880F880F880F8A1B990BF3
:1048B0008E9FB0018F9F700D9E9F700D1124605EC2
:1048C0007F4FE6E076956795EA95E1F73A2F360F48
:1048D0004D5A5B4FDA01EC91F0E0ED5CFA4F40810C
:1048E000E091F405B5E0EB9FF0011124E451FB4F9A
:1048F000818187FF05C08091F50741E285FD42E493
:10490000842F877090E045FF50C0019747E0489F93
:10491000F001499FF00D1124CF018F519E4F422F7E
:10492000477058E0259F80011124632F70E04111EA
:104930003EC0600F711F6D5A7D4F0E941B0E81E0BB
:104940000E94080FCF3109F078CEE0917F0180916D
:10495000E2018E2309F18091FB079091FC078E3ACA
:10496000ACEF9A070CF464C08630BFEF9B070CF4E1
:1049700061C0833523E092070CF05EC08B3F910548
:104980000CF05CC082E0F0E096E0F595E7959A9532
:10499000E1F7E052FE4F80830E94091E4ECECF31D8
:1049A00009F04ECF0E94F50D4BCF0596AFCF842E68
:1049B0002EEF30E06901042E01C0CC0C0A94EAF716
:1049C00028E0241B422FEFEFF0E07F0102C0F594B6
:1049D000E7942A95E2F7FC01007C1770600F711FC5
:1049E000DB01AD5ABD4F8C01095F1F4FC0949E2D56
:1049F0009095E490F12C2C912C215701082C01C0AA
:104A0000AA0C0A94EAF72A292D93DF968C91DF9756
:104A10008923042E02C0F594E7940A94E2F78E29C4
:104A2000DF968C93DF9731960E171F0711F787CF0C
:104A300080E0A9CF81E0A7CF84E0A5CF83E0A3CF1A
:104A40000E947410E8CD2091E30130E0209530956C
:104A50004091E40150E02423352390E028233923BA
:104A600081E0232B09F480E008952F923F924F922A
:104A70005F926F927F928F929F92AF92BF92CF92EE
:104A8000DF92EF92FF920F931F93CF93DF93CDB7F7
:104A9000DEB72A970FB6F894DEBF0FBECDBF782ED3
:104AA000092F282F2777522EC22ED12CE4E0D5943F
:104AB000C794EA95E1F7C886382F3770632EA32E86
:104AC000B12C7601F3E0EE0CFF1CFA95E1F7C7017B
:104AD0008A0D9B1DFC01E25CFE4F1F01F701E25CA9
:104AE000FE4FEA0DFB1DE081E77010E0E33038F087
:104AF000E350FF0BE556FE4FE491E98311E085EFAB
:104B000095E00E945F19A5EFB5E040E060E090E01D
:104B1000F02FF7774F2E481769F111962C911197C6
:104B20002777241124C05C91252F27772515F9F0CC
:104B300030E0F901ED5AFB4F7081E72FF0E0ED5CBA
:104B4000FA4FFA87E987F1017081E985FA85F081EA
:104B50007F130DC074E0359527957A95E1F7788538
:104B6000721301C061E05770651201C091E04F5FA0
:104B70001296D1CF242D30E0F901ED5AFB4F808100
:104B800081111EC180E007FD04C0872D881F882782
:104B9000881F61110CC0F701E25CFE4FEA0DFB1D9E
:104BA00040814770433068F4882309F41DC1E1E077
:104BB000F0E0EC0FFD1FE10FF11D46E0460D4083D4
:104BC0001F5F992351F0E1E0F0E0EC0FFD1FE10FD2
:104BD000F11D96E19C1990831F5F882349F0E1E065
:104BE000F0E0EC0FFD1FE10FF11D89E180831F5FF5
:104BF000802F8770C82EE1E0F0E0EC0FFD1FE10F81
:104C0000F11D86E08C0D808342E0D42ED10EE1E0D0
:104C1000E10F81E090E08C0F9D1F8E0F911DFC0134
:104C200054E0359527955A95E1F786E1821B8083FC
:104C300007FF12C01D5F872D0E945B0C8350990BEC
:104C400085569E4FFC018491E1E0F0E0EC0FFD1FE2
:104C5000ED0DF11D8083D12E03FF0DC08EE0898301
:104C600098E19A838B8323E0D22EC61420F49C8390
:104C70008D8335E0D32E8091F50785FF05C08091A7
:104C8000DD018F5F8093DD015092E8014092E701E2
:104C90009701225C3E4FA20EB31EF5011082809157
:104CA000CA08E82FF0E0EE0FFF1FEE5FF74F7082AB
:104CB00001838F5F843608F085C08093CA08872DF2
:104CC000902F0E94690CE091F40585E0E89FF001C7
:104CD0001124E451FB4F1092F405ACEEB4E00190C6
:104CE0000D928A95E1F71092EA0187E090E09093A7
:104CF000EC018093EB010E94DB1D863009F065C05A
:104D0000E1E0F0E0EC0FFD1FED0DF11D8BE1808384
:104D1000D394F6E0FD1538F0E1E0F0E0EC0FFD1F74
:104D2000ED0DF11D10828091F507382F3074FE01D2
:104D3000319685FB882480F8912C87E0889DA0011E
:104D4000899D500D112490E080E0332391F0DC0127
:104D5000A757BE4F20E01E966C911E976C935596F8
:104D60006C91559717966C9317972F5F1E96253069
:104D700091F72191DA01A80FB91FA153BE4F2C93CF
:104D800001968730910509F731111092D6012A96C4
:104D90000FB6F894DEBF0FBECDBFDF91CF911F914C
:104DA0000F91FF90EF90DF90CF90BF90AF909F90CA
:104DB0008F907F906F905F904F903F902F900895CD
:104DC00081E0E7CE1092CA087ACF813029F0809135
:104DD000F607882309F49DCFE1E0F0E0EC0FFD1F1A
:104DE000ED0DF11D8AE193CF9111EDCE01CFE5EFED
:104DF000F1E01382128288EE93E0A0E0B0E08483B9
:104E00009583A683B78388E191E0918380838FEFB8
:104E10009FEF958784870895789484B5826084BDD8
:104E200084B5816084BD85B5826085BD85B58160AE
:104E300085BD80916E00816080936E00109281002C
:104E400080918100826080938100809181008160E7
:104E500080938100809180008160809380008091A8
:104E60009100826080939100809191008160809395
:104E70009100809190008160809390008091C100AA
:104E800084608093C1008091C10082608093C100E2
:104E90008091C10081608093C1008091C3008160D6
:104EA0008093C3008091C00082608093C000809195
:104EB000C20081608093C20080917A0084608093F8
:104EC0007A0080917A00826080937A0080917A00E3
:104ED000816080937A0080917A00806880937A0064
:104EE000109252021092F2011092F4018091D700B8
:104EF00081608093D70080EA8093D80089B5806173
:104F000089BD89B5826089BD09B400FEFDCF61E02D
:104F100070E080E090E00E948B0B8091D8008F7C45
:104F200080618093D8008091E000807F8093E000D2
:104F30008091E1008E7E8093E1008DE08093E2001D
:104F4000559A209A81EC80937C0085B1806F85B959
:104F500084B1877E84B984B1876E84B95E9A5F9884
:104F60008AB1806D8AB9769A6E9881B3806F81BB61
:104F7000899880B38D7080BB80E58CBD81E08DBD4C
:104F80000E94BE0B5F9A0E94BE0B5E980E94570C57
:104F9000CCE5D6E0FE0184910E94510C2196F6E00A
:104FA000C936DF07B9F70E94590C81E88093640085
:104FB000809165008160809365008091E401809319
:104FC000E3010E94490C8093E40187FF0CC00E941A
:104FD000570C85EA0E94510C0E94590C2E982F986C
:104FE0002D982E98FFCF1092CA08E3E5F4E080E6F2
:104FF000819325E0E335F207D9F7E3E5F5E0119277
:1050000085E0E439F807D9F7E4E9F5E08FEF81931B
:1050100095E0E43FF907D9F780E6809393059AE29B
:105020009093650590E4909366059AE490938505C6
:10503000809386051092F4051092EF041092F0040C
:1050400080E28093F5071092B4051092D405D0E069
:10505000C0E01C2F1370110FCE0195958795959583
:1050600087958295807F180FFE01E759F94F0491CB
:10507000602F70E084E0759567958A95E1F7812F40
:105080000E948706602F6F7081E0810F0E94870663
:105090002196C032D105E9F68091F507E0E6E827D0
:1050A000EF5FF0E0EC56FA4F9081E091F40525E0D7
:1050B000E29FF0011124E451FB4F108291838F5F36
:1050C000E82FF0E0EC56FA4F4081A2E3B1E02AE38A
:1050D00031E065E09D91542F591BE52FF0E0ED5A2A
:1050E000FB4FE081EE2301F17091F5078E2F807662
:1050F0007817D1F0F0E0ED5CFA4FE081E770F0E076
:10510000E25FF74F8491E92F990FFF0BE257F84FB9
:10511000E491E823EC7F41F0E091F405E69FF00193
:105120001124E451FB4F51832A173B0799F6E6E01F
:10513000F8E025E08491942F9E1BA92FB0E0AD5A92
:10514000BB4FAC91AA23B1F03091F5078A2F80763E
:10515000381781F0B0E0AD5CBA4F8C918770833026
:1051600049F4A091F405A29FD0011124A451BB4F92
:1051700011969C93319688E0EE30F807D9F610929C
:10518000EA0180E28093E50180E38093E6011092DA
:10519000EC011092EB0180E48093E20182E08093C5
:1051A000E1018093E00181E08093DF018093DE01E3
:1051B0001092DD01E9E8F1E08DED91E017821082B7
:1051C0003E968E179F07D1F70E94F50D1092900022
:1051D0008CE08093910088EE93E090939900809307
:1051E000980080917100826080937100D0E02D2E34
:1051F000D0E03D2E8091600083FF08C0F89487E7DF
:1052000097E79093010880930008FFCF8091E40115
:105210008093E3010E94490C8093E401C091EB016B
:10522000D091EC01C430D10588F4C230D10508F02A
:10523000B7C0CD2B09F46BC091E093BF889513BE26
:1052400021143104B9F20E940000D4CFC430D1053A
:1052500009F466C0269781F71092FC071092FB07AD
:105260001092F8071092F7071092FD071092FF07AF
:10527000109200086090FE0711E04090FF07611651
:1052800008F475C12091F7073091F8078091F9076C
:105290009091FA072817390708F069C15090000863
:1052A0001093FE0785EF95E00E945F19782E10920B
:1052B000FF07109200088111FFC08091F607D0E02F
:1052C000C0E0882311F0C0E0D3E88091F707909107
:1052D000F8074091F9075091FA078417950708F0ED
:1052E0003EC11093FD07D093FC07C093FB0721E05C
:1052F000210F261550F49695982F88279795879516
:105300004817590710F022E0210F122FB6CF88E07E
:105310000E942325882309F48FCF0E94091E8CCF79
:1053200080E20E9423259091E901882329F01092C0
:10533000EA0191509093E90180E40E942325909125
:10534000E901882329F01092EA019F5F9093E90117
:10535000C091E901C370C093E90188E00E94232550
:10536000882309F469CF83E08C0F8093E901809151
:10537000E8019091E7012C2F30E0A901B3E0440F40
:10538000551FBA95E1F74870C6E0220F331FCA9542
:10539000E1F72078242B822B90680E9435254CCF92
:1053A00080E80E9423259091E601882329F010923D
:1053B000EA0198509093E60180E10E9423259091A4
:1053C000E601882329F01092EA01985F9093E601A4
:1053D00080E20E9423259091E501882329F0109214
:1053E000EA0198509093E50180E40E942325909172
:1053F000E501882329F01092EA01985F9093E50176
:105400000091E60108730093E6011091E50118731D
:105410001093E50188E00E942325882309F40CCF2E
:10542000000F169516951695100F9091F507E12F20
:10543000F0E0ED5AFB4F80818076229759F4891372
:10544000FBCEE3E0F0E0F093EC01E093EB0110938E
:10545000E801F2CE8917D9F31093E701C091E80172
:1054600085EF95E00E945F192FEF280F2F3F09F479
:10547000E3CEE22FF0E0EE0FFF1FEB50FA4F8081FA
:10548000982F9777C91311C09181392F377731132E
:105490000CC097FF0CC0F3E0F093E90184E090E0CA
:1054A0009093EC018093EB01C7CE2150DFCF8111A7
:1054B00074CF911172CFC0CE682F85EF95E00E9416
:1054C0005C17A72CB12CAA0CBB1CF501EB50FA4FB2
:1054D0005F01D12CC12CC0E0D3E8812CE3E89E2EE3
:1054E000C71408F0F2CE7601F1EDEF0EF11CF701D2
:1054F000EE0FFF1FED5AFB4F808191810E94690CD6
:1055000044275527481959090091FE0721E060E01A
:1055100073E8C5010E94081F919581959109C817EC
:10552000D9070CF4EC01F701EE0FFF1FED5AFB4F0A
:10553000808191810E94AE088C169D0664F4F6016C
:10554000EE0FFF1FEB50FA4F80819181909300087E
:105550008093FF074E012FEFC21AD20AC1CF242D2C
:10556000252929F04092FF0750920008C0CE609292
:10557000FE078091FF07811107C08091000881110B
:1055800003C088E090E08CCF8091FF0790910008E5
:1055900004CF991B79E004C0991F961708F0961B59
:1055A000881F7A95C9F780950895EE0FFF1F059023
:0A55B000F491E02D0994F894FFCF68
:1055BA00FFFFFFFF00E10000000000000000C180C3
:1055CA008100000000000000200AC40B410A360ACC
:1055DA00870A450A630AEFF10F11F010FF01070667
:0E55EA000403EFF0F1FF010F10110520400047
:00000001FF
