:100000000C943C080C9464080C9464080C946408E8
:100010000C9464080C9464080C9464080C946408B0
:100020000C9464080C9464080C9485260C94F426B3
:100030000C9464080C9464080C9464080C94640890
:100040000C9464080C9464080C9464080C94640880
:100050000C9464080C9464080C9464080C9426298D
:100060000C9464080C9464080C9464080C94640860
:100070000C9464080C9464080C9464080C94640850
:100080000C9470290C9464080C9464080C94640813
:100090000C9464080C9464080C9464080C94640830
:1000A0000C9464080C9464080C94640815133700CD
:1000B000130E3700101337000F0E3700012D0123E8
:1000C000002A232E232A3411002A232E232A341017
:1000D000002A232E232A340F002F01272D34242D0C
:1000E0002E2300EF000000000000F00000000000E0
:1000F00000F10000EF0000000000F0000000000030
:10010000F100000000EF00000000F000000000F12E
:10011000000000000000EF000000F0000000F1000F
:1001200000000000000000EF0000F00000F10000FF
:100130000000000000000000EFDFF0E1F10000002F
:100140000000000000000000EEEFF0F1F2000000FF
:10015000000000FFFFFFFFFFFFFF000101010101A1
:1001600001010000000000000E0F1011120000003D
:1001700000000000000000000F1F1021110000000F
:10018000000000000000000F00001000001100003F
:100190000000000000000F0000001000000011002F
:1001A00000000000000F000000001000000000111F
:1001B000000000000F000000000010000000000020
:1001C0001100000F000000000000100000000000FF
:1001D0000011041F02041F031F150A031F051A0341
:1001E0000E191E031F041B0308141C031F1408030D
:1001F0000C12120308141F030C1A14021E0503121A
:10020000150F031F0418030E110E03121F100319FC
:1002100015120311150A0307041F03171509030E0E
:10022000150803011907030A150A0302150E020433
:10023000040314081403040E04050A1F0A1F0A0508
:10024000190D0C0D190511090809110501111011DD
:1002500009050911101109050D1918190D030E11C1
:1002600011031F041F031F1511051F0204021F03A2
:100270001E051E03011F01031F110E050F100E1096
:100280000F03121509031F1010031F050203111F8E
:1002900011040E11110E03071807040F10100F049C
:1002A0000E11151D031F0501010A030115020200AD
:1002B0000003000000040408040203190413FFFFF4
:1002C000FFFFFFFFFFFFFF00010203040506070712
:1002D0000707070707070706050403020100222F87
:1002E000242501002926252A232425262324252602
:1002F00023032C252A03232B23262C262C2D011304
:100300000E34242D2E2329270325283221222321B0
:1003100005242526232A2D252734302524230001D2
:100320000203040558031503BC00B800B400B00074
:10033000AC00022A2F0127230332DE02D100C900BC
:10034000C100022A2521053228222C262332292603
:100350002503263430252423012328343025242363
:100360000000687C7C7C6800000014001400001809
:100370001C4A7E7E7C70204C7E377A4C20467C7EE8
:100380007C7E7C4643647D7E7D644344687A7F7ACC
:1003900068440068544454680018144A72424C700F
:1003A000204C7221724C20467C4644467C46436475
:1003B0005D465D644344685A4F5A68440000010337
:1003C000070C131A222A30363B3E40400704D9005E
:1003D000E8031A0430252423342B252F2923273022
:1003E000252423342D2E230329252E2334302524A0
:1003F000230021250121232A2D2E230328032C2627
:10040000233429252E2333022521050029252E2CCE
:10041000013033282C26222D2F2624252C0134248C
:1004200023012F002A23252E2334262D000000002F
:1004300000000000000000000000000000000000BC
:100440000000000000000050F0F0800000000000FC
:100450000000000000000000000000800000C42236
:1004600012CA3C0000806040808040000080402034
:1004700020C0380600008060000080600000C030AE
:1004800008040402222418000080603826C00000FE
:1004900000804020A06000000080702040800000AC
:1004A000008070204080000000000000000000007C
:1004B000000000000000000000000000000000003C
:1004C0000000800100EA711AFF7E878383808080AC
:1004D0008000000000000000102020908D838181AA
:1004E000818F90908E81808C939088848E9190885B
:1004F0008E919088848E9190888E9190888798A014
:10050000A0A0A0A0909088948E8180808E919088E9
:1005100084878A91909088848A9598889493888417
:100520008A95988894938840402418000000000021
:1005300000000000000000000000000000000010AB
:1005400005421825D748B77FC9F7FEBFEB7F1F0FBD
:10055000030000000000000C120101000000004038
:10056000A0F058E84040E04000000000000000001B
:10057000000000000000000000000000000000007B
:10058000000000000000000000000000000000006B
:10059000000000000000000000000040E04040E8D3
:1005A00058F0A04000000000000000000000000023
:1005B00000000000000000000000000000004000FB
:1005C000809002A1BC4BABBEEFBBFEFF9FF9F0C019
:1005D000C0800000000000000000000000000000DB
:1005E0000001030200000000000000800000808085
:1005F00000800080000000800000800000808000FB
:1006000000804000800000C00000C00000800000AA
:10061000C0000040008000008040008000004002D8
:1006200003410080400000400080000000002A00DC
:10063000500500B000045120088021089022400895
:10064000801240010A69DBBAFDFFFEFFC101158976
:1006500004A208441348A4126C813248A01A60888E
:10066000523144A81168528134688132888016AAB8
:100670000896AB041AC728168BA41A87A80E92AD49
:100680000A46B94E72D12C52F10876E118D4633083
:10069000CC5132E44930D621E894032E548B158E88
:1006A000A51906AE510E95228D1EA00B000050001C
:1006B0001400801400088002044002094006010072
:1006C000124500806813EEFD37FFFFBFFFF8E0C35F
:1006D00018A44118A04AA800DA20886A9008E230DD
:1006E0000CE0110C5000850822870802AB04820937
:1006F00006AA01068D23028D22078C2207C9AE733C
:10070000915864B1906C51B0D429B0C83AE0115CF2
:10071000E01174C81075C810F0060D238C0B220C64
:100720004B02AD0A01AE0209A60A118600000900BB
:100730000228000A100204100904002B000803001C
:1007400030C02C92E91DF6ABDF7FEBFFDFF77FFFB8
:10075000EEFCFCFAA000628048224008A210089734
:100760002208952A118658052A114E8932049D22A5
:10077000095688132E900B14926D8A01608A44A04A
:100780001241A44840952248806A00D224488360E0
:1007900014C16802D025806806398B1416A9151774
:1007A000A8132E81182F8219244B12140000A000C8
:1007B0000050000010800000200000801000802207
:1007C00000045A0015564D15565D9F572DFFAF2B4F
:1007D000DFAE37CF6F109661118860128870821873
:1007E0006042985022945040B5006A9020CA3085EB
:1007F0006810A2681482200C83540986290A842573
:100800008B04A90A86218D0AA10D9205288B451417
:100810000AA10E02294608937004897004D1228827
:100820005025D00228D002A9500491608D14A1C88F
:1008300081CFD9F102AF001A4080C0080B0002023C
:10084000020000090400000102020000052400105B
:100850000105240101010424020605240600010704
:1008600005810310004009040100020A000000078E
:10087000050202400000070583024000000403094E
:100880000412010002EF0201404123368000010101
:1008900002030141726475696E6F204C4C43004144
:1008A000424131313036009105C78551479211924E
:1008B0000285828E55864749858D0D454804888E70
:1008C000184706C9000247CA8E1547C95587084A06
:1008D00088C745CA83D55582D55587D5040749CAE7
:1008E000C25582CAD355850204858F0DC544D04DAB
:1008F00009CA90554B84C54687829954D255858440
:1009000002C85187C349C8CA5206879119C504470E
:1009100005C44588D245CA99D411044792D5448567
:100920005584951A5045CBD55386C7D8488885023B
:100930004787D15B4A8BC751CC8553074982925375
:100940000587D39909CC5B12C54786D348C9D3D054
:10095000C7528307C9D3D7D4508511929085538746
:10096000C45389944ECB58889418478658C8054775
:10097000CACB559104C8498648CB04C9528290D34A
:1009800048C653858F8FCA4A90474A908F4DD0CD25
:100990000546CACAD1518491C688514A86C6518833
:1009A000464B86468990978F164113CA5A909412E7
:1009B0004807CB4991944ECB1857C65491D04E0559
:1009C000CB905291D24744889017C7C7519111C715
:1009D0004A86C74FCBC7D312460BCC90934B11C559
:1009E000CA511186D34F8893C646860FC648C9C6DA
:1009F00050CBD3D24587914592984A999099054713
:100A00001D4D85D84B8796469045C64586D747C825
:100A1000914A4890C7589282498505870346C8473E
:100A20008785044706488649889A429B054A851867
:100A3000024507C943CA9A559B548555C955858FA8
:100A4000D14682D147859144C503054784D1468765
:100A5000CF49868F0F485189C50F50888F1847910D
:100A60001802050447CA180547CA8F1547915588CB
:100A700048CA15054488C64FCB4585C7C7C94584B4
:100A800092C69A4A45854648879791C645C5479874
:100A90009056044B8F51919199458544C64585C721
:100AA000518459C6458598D14790D15992D14485F2
:100AB00044848F1005469110468444C65086901297
:100AC000408545C61012054888C647C78F171411C0
:100AD00000054491110446C446C6D1C54486929887
:100AE0004592C5494B85C89047D248C8D2CF49885E
:100AF000921105074A85978041834A4291CF5882D7
:100B00004F874FCACA5088C78F571007C6464B8BAE
:100B1000990B4C9091D9474792D14985D10FCA483A
:100B200088CACE51CBD1D306084BCC9213518593B2
:100B30004F51C8D34F899110519290878752C65315
:100B40000649C8D21085528746CB4682C7D3558501
:100B50000F90909850121408C94B0085925148C7C5
:100B6000124893905091D045459190981304064AAD
:100B70008E0508074B0406C74491CE4580448598EE
:100B800000034297508E1140845187124449878E4A
:100B90000F4082428446854E864F8744C94FCBC75B
:100BA000530082D05C8491C75182C65486C754C713
:100BB0000FC647865087C4C4448AC5504B8490C62C
:100BC000D31B4593C64991C6CF5B85C64886C6D11F
:100BD000084BC7868F4590458717448644C8464BC7
:100BE000879104C750C89147D58F1B135550861065
:100BF00011C79295488F040849C848CBCF538995AF
:100C000095CF4E0FD00EC50D448F8FC856D0874755
:100C1000C856908F97150D1012000306479616516F
:100C20008D171148841145C746908D174D8E46C7C4
:100C3000508616C7474987C8109A4F44C996D04571
:100C400090509CC06187C846C8941147CF131210BA
:100C500007064B8890C74591471986C7D152C702EE
:100C600005C78F170F114690140F11000546870214
:100C700045C646CC1105C7938F0446914644C68F9E
:100C800040911351C8518B92518551875189CAC6E1
:100C9000D246CC91C7CB4449CC1287935251891389
:100CA000C5C4C6484C000000000000000000000061
:100CB0000000000000000000000000000000000034
:100CC0000000000000000002000000000000010021
:100CD000000000000002000002000000000001000F
:100CE00000000000020000000002000000000100FF
:100CF00000000002000000000000020000000100EF
:100D000000000200000000000000000200000100DE
:100D100000020000000000000000000002040104C6
:100D2000020000000000000000000000042010206D
:100D30000400000000000001010101010108000899
:100D40000101010101010000000000000480408059
:100D50000400000000000000000000000204010484
:100D6000020000000000000000000002000001007E
:100D7000000200000000000000000200000001006E
:100D8000000002000000000000020000000001005E
:100D9000000000020000000002000000000001004E
:100DA000000000000200000200000000000001003E
:100DB000000000000002EFF10F11F010FF01DFE171
:100DC0001F21EE0EF21200208004A259FBF800044D
:100DD000040C0D1424FDFFFFFFBDFFFFBFFFFFFF4D
:100DE000FFFFFFFFFFFFFFFFFFFFFFFFFFFFFFFF13
:100DF000FFFFFFFFFFFFFFFFFFFFFFFFFFFFFFFF03
:100E0000FFFFFFFFFFFFFFFFFFFFFFFFFFFFFFFFF2
:100E1000FFFFFFFFFFFFFFFFFFFFFFFFFFFFFFFFE2
:100E2000FFFFFFFFFFFFFFFFFFFFFFFFFFFFFFFFD2
:100E3000FFFFFFFFFFFFFFFFFFFFFFFFFFFFFFFFC2
:100E4000FFFFFFFFFFFEFFFFFFDEFFFFDF000101EF
:100E50000303050900EFF0F1FF010F10110000007E
:100E60000000000000DC00DB00D000CF0086008F17
:100E70000087008500540058005500560042004786
:100E80000048004F003E0045004500420041004E32
:100E9000004C003A000000000000000000BE00EB23
:100EA00000F9000501F5000A0120011D01020123DE
:100EB000012F013201110123013001330108011C0E
:100EC0000126012901FD0013011A012201FA000186
:100ED000010F011301EA00FD00FB0000010C0110ED
:100EE000010C0114011101270124011F011C012A19
:100EF000012E012C011F012601310138011B0126A1
:100F0000012D0136011D0127013001300115012B92
:100F100001240124010B01170110011701E001E276
:100F200001E901EE01E101E601EE01EA01D601E08D
:100F300001E501E401D301D601E501E101C901D4D4
:100F400001DB01DB01C101CF01D401D401BA01CB26
:100F500001D401D601C701CB01D901DD01640375BC
:100F60000389038903700371038E038E037C03825C
:100F7000038F039703760378038903880370037A4A
:100F8000037F0380036E0376037E037A03580366B0
:100F9000037D0377035F035D0364037703DEFFF8DC
:100FA000FFF2FFEBFF00000D001100090003001924
:100FB0000018000900F5FF0E0012000E00EBFFFE06
:100FC000FF0B000C00F0FF010007000800F0FFFF1E
:100FD000FFFFFFFDFFE0FFF8FFECFFEDFF0C00114E
:100FE000000D000E0007000A000A000A001B001690
:100FF000000E000F001E001200090003001A001767
:10100000000D0007000400FFFF040009000F0006A8
:101010000007003500A0FFD5FFF7FFFBFF07000525
:10102000000D000A000D0009000A0003000000FF87
:10103000FF010001005FFFC9FFDFFFEEFFF5FFF9D1
:10104000FFFEFFFEFF030007000A0010001400204F
:10105000001E002B0011000700E7FF040019001319
:10106000000D00070004000300F8FFFAFFF3FFF291
:10107000FFF2FFEEFF00083111241FBECFEFDAE0D0
:10108000DEBFCDBF11E0A0E0B1E0EEE5FEE602C0BC
:1010900005900D92A033B107D9F728E0A0E3B1E0A5
:1010A00001C01D92A83EB207E1F718E0CCE3D8E0FA
:1010B00004C02197FE010E942737CB33D107C9F71F
:1010C0000E941D310C942D370C9400008F929F923A
:1010D000BF92CF92DF92EF92FF920F931F93CF9325
:1010E000DF93EC01DC0103E915E091E09617D8F5F8
:1010F0001296BC90129713967C911397F8018191E8
:101100008F01292F422F50E0FA01EF56FA4F7F014D
:10111000FA01EE0FFF1F4F018C0E9D1E4E565A4FC7
:10112000F7013081381784F46401F2E0CF1AD10856
:10113000F601C080D180F401D182C082F7013081F4
:10114000FA0130832150F1F630E0F901EE0FFF1F74
:10115000EC0FFD1FB08271832E563A4FF901808348
:101160009F5F1296C3CFDF91CF911F910F91FF9098
:10117000EF90DF90CF90BF909F908F90089592E076
:10118000960F4AE0460F4917E9F0292F30E0F901A0
:10119000EF56FA4F508157FF13C0205D3A4F462F4C
:1011A00042954695469543706F5F640FD9016C93E5
:1011B0008083E82FF0E0E05BFB4F9083892F089558
:1011C0009F5FE1CF80E00895E62FF0E0ED5BFA4FFE
:1011D000908191509083292F30E0F901E05DFA4F22
:1011E000460F40832F563A4FF9018083E82FF0E0F5
:1011F000E05BFB4F9083892F08956F927F928F92CF
:101200009F92AF92BF92CF92DF92EF92FF920F9395
:101210001F93CF93DF93CDB7DEB7C054D1090FB67C
:10122000F894DEBF0FBECDBFE091F50545E0E49F29
:10123000F0011124E751FB4FE48054E080E05E159B
:1012400008F0C1C0FE013196DF01BE016F5B7F4F28
:101250001192E617F707E1F730E020E0F12C80E08B
:1012600055E0C52E922FD22E2E150CF064C0409161
:10127000F50524170CF092C050E0421B530BC49E9E
:10128000F001C59EF00D1124E751FB4FB080E181C4
:101290008E2E8B18F80CF0E0AF01405B5B4F3A01EB
:1012A000FA019080492D50E08A01005211090A0F7D
:1012B0001B1FF801A080A80CA0820B2D10E0005B82
:1012C0001B4FF8019082F30110824F565A4FFA01DA
:1012D000B082F1106DC08D0140E554E0F801B1908D
:1012E0008F01BB20B9F0FA01EF59FE4FE081EB0D01
:1012F000E7FD5CC0F0E0E05BFB4FE081EE2309F42A
:1013000055C0F0E0E05DFA4FB080FA01F395E0815E
:10131000BE124CC04F5F5F4F60177107F9F641E096
:1013200090FF46C0442309F443C08F5F813009F425
:101330003FC091E09D0D915050E040E0692F092E93
:10134000000C770B35E0F32E97FD3DC02091F5059D
:1013500092178CF530E0FB01E41BF50B2E1B3F0BC5
:10136000F29EF001F39EF00D1124E751FB4F208116
:101370003181E22FF0E0E05BFB4F2081032F10E092
:10138000005B1B4FD8012C931082E22FF0E0EF5648
:10139000FA4F30834F5F5F4F9150D6CFE22FE41B5F
:1013A000F0E0EE0FFF1FE85FF74F70CF40E0B8CFDF
:1013B0002F5F3F4F57CFE92FE21BF0E0EE0FFF1FEB
:1013C000E85FF74FD4CFC05CDF4F0FB6F894DEBFB5
:1013D0000FBECDBFDF91CF911F910F91FF90EF9086
:1013E000DF90CF90BF90AF909F908F907F906F9045
:1013F0000895DF92EF92FF920F931F93CF93DF93A5
:10140000E091030830E63E2730930308682F6777A2
:10141000592F5777A52FB0E0A05BBB4F4C91C091DF
:10142000F5052FEF2C0F2093F50505E0C09FE00197
:101430001124C751DB4F2A81C22FD0E0782F70785A
:10144000F92FF8787F2B09F448C097FF62C0842FEA
:1014500090E08C01005D1A4FF8017081E72FE77072
:10146000F0E0E35BF14FD490E32EF12CF701EF565F
:10147000FA4F70817F5F7D197083F80110828F565B
:101480009A4F3FEFFC0130838091030890E0FC010C
:10149000EE5BFA4F3081FC014317A0F5EE5BFA4F8B
:1014A000832F815080838091030892E0980F3AE067
:1014B000380F391791F0092F0052110B005B1A4FAA
:1014C000F8017081711123C031E0380F8295869543
:1014D00086958370830F8083492F222389F1C05D15
:1014E000DA4FE881E770F0E0E35BF14FE491C091FF
:1014F000030880E6C827D0E0CF56DA4F8881E80F8E
:10150000E8831EC0ED5BFA4F80818F5FCBCF9F5F7A
:10151000D0CF8E010F561A4F93FF3AC0561740F5A1
:101520008CEF860FE82FF0E0E05BFB4F2083EFEFBE
:10153000E60FF0E0E05BFB4F1082E801888320E0DB
:10154000E62FF0E0E05BFB4F4083E42FF0E0EF5646
:10155000FA4F60832C93E22FF0E0EF56FA4F50835E
:10156000DF91CF911F910F91FF90EF90DF90089541
:1015700083E0860FE82FF0E0E05BFB4F2083E1E0A3
:10158000E60FF0E0E05BFB4F1082F8018083D7CFDD
:1015900087FFA3CF80E3850F831BC82FD0E0C05BFC
:1015A000DB4F2883E8018883F0E0EF56FA4F808113
:1015B0008F5FECCF80E0E82FF0E0982F9878A7E2DB
:1015C000B1E011F0A8E2B1E0E05BFB4F9C919083A9
:1015D0008F3F11F08F5FEFCFE0E5F5E0119285E0EE
:1015E000E139F807D9F7E1E9F5E08FEF819395E06C
:1015F000E13FF907D9F780E6809390059AE290934E
:10160000620590E4909363059AE490938205809339
:1016100083051092F5051092EC041092ED041092DF
:10162000E9041092EA041092EB0480E2809303082C
:101630001092B1051092D10508954F925F926F926A
:101640007F928F929F92AF92BF92CF92DF92EF9252
:10165000FF920F931F93CF93DF930E94DA0A81E0EA
:1016600090E0909307088093060810920508109266
:101670000408C0E610912E01D0912D01612F8C2F0E
:101680000E94BF086D2F80EB8C0F0E94BF08CF5FB8
:10169000C836A1F700E514E0C0E0D12C50902E012F
:1016A00090902A01C0902B01609029017C2C892CFC
:1016B000D0912D01492D6D2F8C2F0E94E4088D2F84
:1016C00090E09C012E5B3A4F5901F901208181E0A5
:1016D000820F808383E0482E4D0E822F90E0FC0124
:1016E000E05DFA4F40828F569A4F31E03C0FFC018B
:1016F0003083F80121834C2D6D2F82E08C0F0E94E6
:10170000E408462D6D2F83E08C0F0E94E40821E051
:101710002D0F822F90E0FC01E05DFA4F37E03D0F86
:1017200030838F569A4F34E03C0FFC013083F80130
:101730002483472D6D2F85E08C0F0E94E408F5016E
:10174000208181E0820F8083822F90E0FC01E05DA8
:10175000FA4F40828F569A4F36E03C0FFC0130839F
:10176000F8012683482D6D2F87E08C0F0E94E40836
:10177000C05900591F4FF1E0DF1222C087E2809369
:10178000D1058093B105E091F50525E0E29FF001D8
:101790001124E751FB4F83E6838384E08183DF914B
:1017A000CF911F910F91FF90EF90DF90CF90BF905E
:1017B000AF909F908F907F906F905F904F90089523
:1017C000DD24D394D52D76CF482F862F642F6076D5
:1017D00047704330D9F020F4413078F480E0089528
:1017E0004730B8F14730D1F791E0960F292F30E01C
:1017F000F901E05DFA4F695F20C0E62FF0E0EF5697
:10180000FA4F90819F5F90830C94BF08262F30E0A1
:10181000F901EF56FA4F90819D5F90832E50310968
:10182000F901E05BFA4F908141E0490F4083292F95
:1018300030E0F901E05DFA4F6D5F60832F563A4F5B
:10184000F9018083E82FF0E0E05BFB4F9083892F64
:101850000895E42FF0E0E35BF14FE491A62FB0E0B0
:10186000AF56BA4F9C91E90FEC930C94E408962F75
:10187000282F22952F70362F32953F70321337C0A4
:10188000242F861708F58F5FE82FF0E0E05BFB4F11
:1018900090819923C1F368132AC02F5FE22FF0E0F3
:1018A000E05BFB4FE081EE23C1F3809103088E23C0
:1018B000F1F4F0E0E05DFA4FE081E770F0E0EA5328
:1018C000F24F8081817008958150E82FF0E0E05B55
:1018D000FB4F20812223C1F3841309C09150E92FCB
:1018E000F0E0E05BFB4FE081EE23C1F3DECF80E070
:1018F0000895FC0180914F04882311F13FB7F894BB
:1019000082E08093E9002091F200822F90E0181687
:10191000190614F481E090E0882339F0289844E611
:1019200040934E044091F1004083222339F02091EE
:10193000F200211103C02BE62093E8003FBF089579
:101940008FEF9FEF08952FB7F89483E08093E9001D
:101950009091E800892F807295FF04C09091F20069
:1019600080E4891B2FBF08958091460481110DC02A
:1019700082E08093420484E0809343041092450403
:101980001092440481E08093460482E494E0089538
:10199000CF93DF931F92CDB7DEB76983DC01ED9162
:1019A000FC910280F381E02D41E050E0BE016F5FC9
:1019B0007F4F09950F90DF91CF91089583E0809339
:1019C000E9008091F200882319F08AE38093E8000F
:1019D00008950E94A30C90E00895CF93DF931F9287
:1019E000CDB7DEB7FC018485958597FD08C02FEF44
:1019F0003FEF358724870F90DF91CF910895CE0177
:101A000001960E94790C019719F4898190E0F3CF37
:101A10008FEF9FEFF0CF0F931F93CF93DF931F9222
:101A2000CDB7DEB78C01FC018485958597FF0BC08F
:101A3000CE0101960E94790C019771F4898190E0A2
:101A4000F80195878487F801848595850F90DF914B
:101A5000CF911F910F9108958FEF9FEFF1CFFC0170
:101A60008485958597FD0BC09FB7F89482E080939D
:101A7000E9008091F2009FBF90E0019608959FB722
:101A8000F89482E08093E9008091F2009FBF90E09B
:101A900008954091EC035091ED032091EA033091B9
:101AA000EB0342175307B4F49091E8009570E1F30B
:101AB0009091E80092FD19C08093F1008091EC03B1
:101AC0009091ED0301968F739927892B19F48EEF6E
:101AD0008093E8008091EC039091ED030196909340
:101AE000ED038093EC0381E0089580E00895EF9288
:101AF000FF920F931F93CF93DF93F82E192FE62EAB
:101B0000042F81E0860F880F0E94490D83E00E9418
:101B1000490DCF2DD12FEC0EFD2EF11CCE15DF057A
:101B2000B9F007FF13C0FE0184910E94490D182FE0
:101B300080E00E94490D812321968111EFCFDF9132
:101B4000CF911F910F91FF90EF9008958881EDCF75
:101B500081E0F5CFDF92EF92FF920F931F93CF9327
:101B6000DF93D82E8A01EB017B01E40EF51ECE1522
:101B7000DF0559F0D7FE12C0FE0184910E94490D85
:101B800021968111F4CF0FEF1FEFC801DF91CF91A4
:101B90001F910F91FF90EF90DF9008958881EECF15
:101BA0000F931F93CF93DF931F92CDB7DEB782E0E1
:101BB000898342E450E06BE378E080E80E94AA0D5C
:101BC0000E94B40CDC0112960D911C9101151105B7
:101BD00089F0D801ED91FC910280F381E02DBE01E6
:101BE0006F5F7F4FC801099597FD04C0F80100851C
:101BF0001185ECCF89810F90DF91CF911F910F91CB
:101C00000895615030F02091F100FC01208301968D
:101C1000F8CF289884E680934E040895FC010E9432
:101C2000A90E319728F068517C4F8F4F9F4FF9CF05
:101C3000AB01FC010E94A90E641775078E079F0770
:101C4000C8F3089585E090E00C940E0E8F929F9259
:101C5000AF92BF92CF92DF92EF92FF920F931F93BA
:101C6000CF93DF936C017B018A0180910B01882364
:101C700009F45AC080914F04882309F455C080911B
:101C8000F10380FF05C08091E00082608093E00056
:101C9000E801B12C8AEFA82E93E0892E2AE3922E38
:101CA000209711F4BB20C9F10E94A30C811108C038
:101CB000AA94AA20C9F181E090E00E940E0EF0CF14
:101CC0008C171D0611F00CF08C2F9FB7F8948092A2
:101CD000E9002091E80025FD02C09FBFE1CF282F39
:101CE00030E0C21BD30BF701815020F041914093AB
:101CF000F100FACFE20EF31EBB2021F09092E80033
:101D0000B12CEBCF8091E80085FDE7CF9092E80001
:101D1000BB24B394209709F3F3CF5D9884E68093B6
:101D2000F003101611063CF081E090E0F601938379
:101D3000828310E000E0C801DF91CF911F910F91E5
:101D4000FF90EF90DF90CF90BF90AF909F908F90DB
:101D50000895ACE4B3E02FB7F8947D918D919C91F8
:101D600066B52FBFA89B05C06F3F18F47F5F8F4FEC
:101D70009F4F22E0660F771F881F991F2A95D1F782
:101D800008958FB18095807F669B88601C9B8460DE
:101D9000089590E1699FB001112480FD03C0719501
:101DA00061957109CB010895282F30E083FB8827C6
:101DB00080F996E0359527959A95E1F72270822B68
:101DC0008D5F08958F929F92AF92BF92CF92DF92D4
:101DD000EF92FF920F931F93CF93DF93A091F5059E
:101DE00025E0A29FF0011124E751FB4FAF5FA093C4
:101DF000F505A29FD0011124A751BB4F2381139653
:101E00002C931397248114962C9314978C931196EA
:101E10009C931197382F392B387899F4E82FF0E0FC
:101E2000E05BFB4F409103083EEF341B4081340FD1
:101E3000383038F0E92FF0E0E05BFB4F30812F5F66
:101E4000311120E014962C931497382F3777292FCF
:101E50002777D22E432F50E08A01005B1B4FF801F9
:101E600020816D2D70E0FB01E05BFB4F7F01C080A6
:101E7000CC2DD0E0CC20A1F0FE01E05DFA4FE08156
:101E8000E770F0E0E35BF14F9490A0900308F0E678
:101E9000AF26B12CF501EF56FA4F80808918808269
:101EA0001296CC9212974B52524FFA014491FB0179
:101EB000EB52F24FE491E42313964C911397E423F1
:101EC0001396EC931397592F5878482F4078452B49
:101ED000A1F197FF61C0A22EB12C0E94D40EF50192
:101EE000E05BFB4FDF01A052BF4F1C92EF5BFE4F48
:101EF0009FEF908340910308A42FB0E0833009F452
:101F00003CC0AD5BBA4FEC912FEF2E0F2C93E22F1C
:101F1000F0E0E05DFA4F90910308980F9083E82F6E
:101F2000F0E0E35BF14FE491A0910308B0E0AF561D
:101F3000BA4F8C918150E80FEC93F7012083F801A0
:101F40001082E22FF0E0EF56FA4FD082CF56DA4FF0
:101F50008FEF88838091030890E689278093030898
:101F6000DF91CF911F910F91FF90EF90DF90CF9075
:101F7000BF90AF909F908F900895FD01EE5BFA4F58
:101F80002081922F9F5F9083E22FF0E0E05DFA4F77
:101F9000909103089D5FC2CF93FF2AC0D316D8F457
:101FA000ECEFE30FF0E0BF01605B7B4FFB01408192
:101FB00012964C9312973150832F90E0805B9B4F89
:101FC000FC014083FB0110821296EC91F0E0EF5689
:101FD000FA4F3083B2CFE3E0E30FF0E0BF01605B84
:101FE0007B4FFB01408112964C9312973F5FE4CFE9
:101FF00087FFA3CF409103088D2D841B805D90E067
:10200000805B9B4FFC01308112963C931082A32F82
:10201000B0E0AF56BA4F8FEF8C9380E6E42FE827FD
:10202000F0E0EF56FA4F80818150808386CF209177
:10203000460130E0209530954091470150E024233F
:10204000352390E02823392381E0232B09F480E015
:102050000895CF93C82F0E94C10E20914701822777
:10206000EEE3F1E050E040E031E090E070E5682F11
:10207000632359F160816F5F6C1700F56083330F44
:102080004F5F5F4F31964830510589F79227909303
:102090004701E6E3F1E081E048E2392F382321F0FF
:1020A00030813150A1F03083880F319631E0EE332A
:1020B000F30799F720934601CF9108951082932B4F
:1020C000DA01AA5CBE4F7C93DACF1082D8CF40836E
:1020D000382F30953F602323E7CFCF93DF9387E5F9
:1020E00093E040E554E0DA0130E020E0ED91EE23AA
:1020F000B9F0F0E0E05DFA4FEC01C20FD31F608150
:1021000068832F5F3F4F2830310581F70896405F85
:102110005F4F23E08739920731F7DF91CF91089520
:10212000ECE0F1E0E9CFE9E4F1E030EB24E146E076
:102130005C983EBD4A95F1F72EBD20E4239507C07B
:10214000449140815C9A4EBD8111412D419344914F
:102150002A95B1F73395383B49F70DB40895E9E472
:10216000F1E030EB20E146E05C983EBD4A95F1F7A6
:102170002EBD20E4239507C0449140815C9A4EBD5A
:102180008111412D419344912A95B1F73395383B04
:1021900049F70DB40895DB01FC0124912C9331968D
:1021A000E4911196EC931197FC013296E49112960A
:1021B000EC931297FC013396E4911396EC931397EA
:1021C000FC013496E4911496EC931497FC01359637
:1021D000E4911596EC9315970696FC01849116965A
:1021E0008C930895CF92DF92EF92FF920F931F93FB
:1021F000CF93DF9387E0E82E09E411E097E0D92E32
:10220000CD2CCE18E801F12C809197038823A1F101
:10221000ED2DEF198E2D28E0829FC0011124E80FCB
:10222000F92FF11DE95AFC4F2081222351F1822F11
:10223000877090E025FF23C00197D89E9001D99E1A
:10224000300D1124C9018F599C4FBE010E94CB1043
:102250002896F39488E0F812D7CF005C1F4FEA94D9
:102260002FEFE212CDCFDF91CF911F910F91FF9011
:10227000EF90DF90CF9008958C2DEF2DCCCF059669
:10228000DCCF8C2D8F0D80FDE3CFBE0188E693E07F
:10229000DDCF98E0899FF0011124E07CF770E40F16
:1022A000F11DE75BFE4F982F97702FEF30E001C0D4
:1022B000220F9A95EAF79081922B9083E05CFF4F72
:1022C000887F885F70E06F5F7F4F9FEF885F861722
:1022D000170609F024F49083E05CFF4FF7CF677096
:1022E000772781E090E001C0880F6A95EAF7815076
:1022F0009081892B80830895282F277091E001C059
:10230000990F2A95EAF728E0829FF0011124E07CDA
:10231000F770E60FF11DE75BFE4F461738F081912D
:10232000DF011197892B8C936F5FF7CF089598E0A9
:10233000899FF0011124E07CF770E60FF11DE75B47
:10234000FE4F877021E030E001C0220F8A95EAF746
:102350008081822B80830895CF92DF92EF92FF924B
:102360000F931F93CF93DF93D82F062FC42F122FD5
:10237000FF24FA94F20EEE24E394E60E4F2D6E2D18
:102380000E947C114F2D6E2D8C2F0E947C11DD241C
:10239000DA94DC0ECC24C394CD0E402F6D2D8C2D01
:1023A0000E944911412F6D2D8C2D0E9449110E5F05
:1023B000602F8C2D0E9497111250612F8C2D0E943E
:1023C0009711602F8D2D0E949711612F8D2D0E94E6
:1023D0009711DE5F6E2D8D2F0E9497116F2D8D2F1F
:1023E0000E949711C2506E2D8C2F0E9497116F2D55
:1023F0008C2FDF91CF911F910F91FF90EF90DF9085
:10240000CF900C949711FF920F931F93CF93DF936C
:10241000182F062FF42ED0E0C0E09C2FFE01E254CE
:10242000FD4F8491810FFE013896EF71FF27E25432
:10243000FD4F64918F3358F4600F6F3340F4F11007
:1024400004C020914903920F92FD0E94971121969A
:10245000C032D10511F7DF91CF911F910F91FF90FD
:1024600008954F925F927F928F929F92AF92BF9208
:10247000CF92DF92EF92FF920F931F93CF93DF9350
:1024800038E0439FF0011124E07CF7702E0F3F2FBE
:10249000311D275B3E4F4770442EEFE1F0E0DF0136
:1024A000042E01C0AA0F0A94EAF758E0541B052F26
:1024B00002C0F595E7955A95E2F77C019A2E909423
:1024C0009E2F9095662309F445C0E70149917E014E
:1024D000442309F43FC082EDC82E81E0D82E41503C
:1024E000F601141634F4A491B0E01196CA0EDB1E66
:1024F000F6CF7491822ED90131968A2F88198717C9
:1025000040F0472F50E04F5F5F4F240F351F615061
:10251000D9CF449150E0AD906D01D1E0CD1AD108F2
:10252000892D8A215A01042C01C0AA0C0A94EAF7C9
:10253000A82AE601A882DF968C91DF978923002ED6
:1025400002C0559547950A94E2F7482BDF964C93C5
:10255000DF97D2CFDF91CF911F910F91FF90EF9036
:10256000DF90CF90BF90AF909F908F907F905F90C3
:102570004F900895CF93DF93CDB7DEB760970FB636
:10258000F894DEBF0FBECDBF613108F060E1FC0101
:10259000CE010196DC0134913D9331963A2F381BE0
:1025A0003617C8F30E94311260960FB6F894DEBF5A
:1025B0000FBECDBFDF91CF9108952EE34EE060E0D6
:1025C00080E00E94AC118091E003811107C088EE89
:1025D00093E02CE045E069E00C94BA1285E193E0C9
:1025E000F8CFAF92BF92CF92DF92EF92FF920F930C
:1025F0001F93CF93DF9300D000D0CDB7DEB7F62E78
:10260000082F10E046E0159507954A95E1F7D02E82
:102610004CE0460F2EE360E08F2D0E94AC11C0907D
:1026200056038091E6039091E703459741F10C1121
:1026300026C092E0A92EAF0C23E0E22E3AE0B32EA2
:10264000BF0C6E2D8A2D0E9497116E2D8B2D0E942E
:102650009711E394E3948DE3E812F3CF83E0E82E3F
:10266000BE2CBF0C62E08B2D0E9497116CE38B2D6A
:102670000E949711E394E394EBE0EE12F1CFF4E0C3
:10268000FF0E03561C4FF8018281882309F43FC0D6
:102690008081845E8C8324E04F2D61E0CE0104961E
:1026A0000E9431128AE289838EE28A83F801828154
:1026B000825F8B832BE04F2D63E0CE0101960E9459
:1026C0003112DC100AC0F8018281882331F0809138
:1026D000E6039091E703089759F082E493E0D11064
:1026E00002C088E493E023E24F2D65E00E94BA1215
:1026F0000F900F900F900F90DF91CF911F910F913E
:10270000FF90EF90DF90CF90BF90AF90089524E0BE
:102710004F2D65E08EED92E00E94BA12D2CFDC011F
:102720009C91992319F1E2EDF1E0915098F4119602
:10273000952F6150D9F08D918823C1F0E2EDF1E041
:10274000815080F04491242F30E02F5F3F4FE20F03
:10275000F31FF6CF5491252F30E02F5F3F4FE20F4C
:10276000F31FE3CF81E0840F980FE3CF892F089503
:102770002F923F924F925F926F927F928F929F9291
:10278000AF92BF92CF92DF92EF92FF920F931F937F
:10279000CF93DF93CDB7DEB728970FB6F894DEBF9F
:1027A0000FBECDBF1091970360E0111101C062E32D
:1027B00080912E010E94F11262E3111101C060E0CC
:1027C00080912D010E94F112A0900408B09005089C
:1027D0003FEFA31AB30A6501D694C79446E0C41626
:1027E000D10408F054C086E090E08C199D09982F20
:1027F000990F990F891B880F9CE2592E580E312C86
:10280000BEE02B2E8DE0851508F0BAC0E32CF12C2C
:102810006090040870900508E614F70408F0B0C052
:10282000F701E356FC4F42A4F701EE0FFF1FE85FEC
:10283000F74F8081918119821A821B821C821D822E
:102840001E821F821886292F277093FF2CC0298291
:1028500098E19A832B82243010F49C832D82E62405
:1028600067E0CE010196E0FE71C00E948F1386954D
:102870008D3008F08CE02AE1281B452D67E0CE0161
:1028800001960E943112FAEF5F0E3394BBCF809114
:10289000E6039091E7030CE2502E459709F0AFCF85
:1028A00016E2512EACCF342D37708E010F5F1F4FC3
:1028B000332321F039838E010E5F1F4F44FE07C082
:1028C000382F37703A5FD8013C930F5F1F4F45FE9A
:1028D0000AC0382F377732953F70B6E1B31BF80145
:1028E000B0830F5F1F4F43FE05C0E9E1D801EC93B1
:1028F0000F5F1F4F2A5FD8012C93292F277722952E
:102900002F70B6E1B21BF801B183480197FD09C0F1
:10291000F2E08F0E911C46FE13C03AE1F4013083C1
:102920009ECF33E0830E911C0E94D40E8350990BEE
:10293000FC01E15EFC4FE491D8011296EC93EBCFE1
:1029400047FE8DCFEBE1D401EC9389CF0E948F132A
:10295000482F50E09A012F5F3F4F3595279594E31C
:10296000921B292F490F511D4134510514F020E4C9
:10297000281B452D67E0CE0101960E94311285CFBC
:102980008090E6039090E703A5E18A169104E9F4AC
:1029900010914801163041F420E04CE269E08CE0EF
:1029A00093E00E94BA1211C0123078F020E04CE29D
:1029B00065E087E093E00E94BA12133009F46CC01E
:1029C00008F059C0123009F461C080910408909158
:1029D0000508892B09F480C02AE030E0C601B9015E
:1029E0000E9413375EE0F52EF80EC50164E170E039
:1029F0000E941337CB01B9010E9413370EE0080F74
:102A0000C50168EC70E00E9413377EE0E72EE60E09
:102A1000B6E0CB16D10408F04BC046E050E04C19AC
:102A20005D09842F880F880F142F181B110F145D58
:102A300045E3D42E1E3008F44FC0E9820A83FB829E
:102A4000FEE0EF1204C0D9820E3009F4DA8220E0F1
:102A5000412F63E0CE0101960E9431123EE0F31255
:102A600033C00E3069F5E31689F1EA9437E1F32EAD
:102A700007E11650DFCF1430A9F0153009F0A5CFCB
:102A800026E14CE269E084EE92E08BCF26E14CE255
:102A900068E08FEF92E085CF26E14CE26AE085EFB7
:102AA00092E07FCF26E14CE268E08DEE92E079CFB4
:102AB0001CE2E5E18E16910409F0BACF16E2B8CF18
:102AC000015027E1F22ED5CFFA94D3CF87E1F82E2B
:102AD00007E197E1E92ECDCF28960FB6F894DEBF37
:102AE0000FBECDBFDF91CF911F910F91FF90EF905F
:102AF000DF90CF90BF90AF909F908F907F906F901E
:102B00005F904F903F902F90089528E049E451E066
:102B1000DA01BC01605C7F4FFC0134913D9331963A
:102B2000E617F707D1F7405C5F4F215080589F4F61
:102B30002111EECF08950F931F93CF938C01FC01C9
:102B400080819181FC01EA55F74FC4910196F8010B
:102B500091838083C7FF05C0C8010E949B15811126
:102B6000FBCFC6FBCC27C0F981E08C27CF911F910A
:102B70000F910895DC012D913C9111971296EC91E3
:102B8000E20FF32FF11DED50FF4F80810895CF9399
:102B9000DF9300D01F92CDB7DEB7E0E6E827F0E084
:102BA000EF56FA4F9081911140C0E82FF0E0EF56B8
:102BB000FA4F2081211107C081E00F900F900F90F4
:102BC000DF91CF91089592E0980F3AE0380F3917CE
:102BD00049F0E92FF0E0EF56FA4F408147FF25C05A
:102BE0009F5FF5CF253040F32630F9F420E534E03F
:102BF0003A8329838B83CE0101960E94BA152B81DB
:102C0000205E4FEF281789F0E82FF0E0EF56FA4FDB
:102C1000308137FD08C0932F92959F709327917054
:102C2000491751F2492F8F5FEDCF80E0C6CF0F9348
:102C30001F93CF93DF9300D000D000D0CDB7DEB785
:102C400000E514E08091B105833001F58091D10554
:102C50008330E1F41A83098380E28B83CE010196ED
:102C60000E94BA151D830C8380E48E83CE010496E6
:102C70000E94BA1581E026960FB6F894DEBF0FBE0B
:102C8000CDBFDF91CF911F910F91089580912E01BB
:102C90000E94C7158111EFCF80912D010E94C715A9
:102CA000EACFAF92BF92CF92DF92EF92FF920F9353
:102CB0001F93CF93DF9300D01F92CDB7DEB7E0E62E
:102CC000C82ECE26AC2DB0E0AF56BA4F9C919111D4
:102CD00030C08B01E82E282F30E0F901EF56FA4F73
:102CE000F080F11018C0609102088091F5050E94F3
:102CF000C90EF8019183808381E00F900F900F90AF
:102D0000DF91CF911F910F91FF90EF90DF90CF90C7
:102D1000BF90AF90089592E0980F8AE08E0D8917CA
:102D200051F0E92FF0E0EF56FA4F40819F5F47FDE9
:102D3000F6CF80E0E2CFF3E0FF15A8F694E0F916B5
:102D4000C1F32E5B3A4FF9019081D12C981749F0CD
:102D5000E82FF0E0EF56FA4F208127FFD3948F5FE2
:102D6000F5CF80E594E09A838983EB82CE010196CA
:102D70000E94BA159B81905E30E09817E9F0482FC9
:102D800050E0FA01EF56FA4F608167FD13C0405DD5
:102D90005A4FFA0120812770243061F4262F2295A2
:102DA0002F70262720FBAA24A0F8B12CA5014F5F85
:102DB0005F4F342B8F5FE1CFF6E0FF1204C082E05B
:102DC000D81609F490CFE394EE2DF0E0EF56FA4FC9
:102DD0008081C394EC2DF0E0EF56FA4F2081422F12
:102DE00050E064E0559547956A95E1F72770682FA4
:102DF00062956F70641B062E000C770B77FF03C083
:102E00007195619571098770821B082E000C990BD2
:102E100097FF03C0919581959109680FF6E0FF1225
:102E200023C081E0D81220C030FD18C08EE0821B84
:102E3000240F841B281708F4822F94E0F99E900138
:102E40001124820F932F911D880F991F861B9109C2
:102E500034E0880F991F3A95E1F74BCF842F821BFE
:102E6000295F241B895FE6CF440F87E090E0841B35
:102E7000910997FF03C0919581959109220F47E031
:102E800050E0421B510957FF03C05195419551092C
:102E9000840FD3CF635070E09B0143E0220F331FB8
:102EA0004A95E1F7287056E0660F771F5A95E1F7CB
:102EB0006078622BFC0120812777622B6083089564
:102EC0000F931F93CF93DF9300D0CDB7DEB7FC01F4
:102ED0007A8369839A81892F877782958F70841787
:102EE00059F0CF010296718360830F900F90DF91AC
:102EF000CF911F910F9108958F0190689A836091EF
:102F00002901CE0101960E944A17FC01808191811E
:102F1000F8019183808360912C01CE0101960E947B
:102F20004A17FC0180819181F8019383828360912B
:102F30002A01CE0101960E944A17FC0180819181ED
:102F4000F8019583848360912B01CE0101960E9444
:102F50004A17FC01C801089620813181F8013783A6
:102F60002683C3CF882329F090E483FF90E2877003
:102F7000890F0895DC01EC91F0E0EA53F24F84915F
:102F8000E62F660FFF0BE25CF24FE491E82381E04D
:102F900009F480E00895FC0180818770843018F086
:102FA00097E0981B892F0895CF93FC01208130E092
:102FB00044E0359527954A95E1F7C7E0C21B6111BA
:102FC00001C0C22FCC0FCC0F0E94CB178C0FCF911A
:102FD00008952F923F924F925F926F927F928F92BD
:102FE0009F92AF92BF92CF92DF92EF92FF920F9398
:102FF0001F93CF93DF93CDB7DEB764970FB6F894E6
:10300000DEBF0FBECDBFC82E81E06C2C6826A0E4C9
:10301000DA2E80E0CC2019F0F0E2DF2E87E0FE010E
:1030200031965E012BE0A20EB11C4F018193EA158F
:10303000FB05E1F780E65D2C582642E0450D5AE09D
:10304000550DE12C541709F1E42FF0E0EF56FA4F3B
:10305000808187FD18C0E394282F30E0E4E03595A7
:103060002795EA95E1F7877090E00196F401E80F63
:10307000F91F8081CC2021F0821720F4282F02C074
:103080002817E0F320834F5FDDCF30ED3D0D388B07
:1030900062E0762E7D0C7AE0372E3D0C10E000E0E9
:1030A0008EEF482E4D18371409F48AC0E72DF0E052
:1030B000EF56FA4FF080FB86F7FC53C0E394662D81
:1030C000C5010E94D417E82FF0E0EE0FFF1FE35A6E
:1030D000F14F85919491080F191FC5010E94CB17DC
:1030E000EF2D6889E61BAFEFAE0FB0E0A05BBB4FE2
:1030F0009C91940D983048F0EF5FF0E0E05BFB4F5F
:103100009081940D40E0983058F4E82FF0E0EE0FF5
:10311000FF1FE352F04F25913491020F131F41E03E
:103120009F2D92959F702F2D277030E0F401E20FB4
:10313000F31F5081C11017C0951798F0E2E0F0E03E
:10314000EC0FFD1FE20FF31F5081951750F0E3E0E5
:10315000F0E0EC0FFD1F2E0F3F1FF90120819217A9
:10316000B8F47394A0CF5917E0F3E2E0F0E0EC0F6D
:10317000FD1FE20FF31F5081591798F363E070E0D1
:103180006C0F7D1F260F371FF9012081291748F387
:10319000E82FF0E0E053FF4FCF01880F991FFC01AB
:1031A000E35AF14F25913491020F131F4423C9F2C2
:1031B000FC01EB59F14F85919491080F191FD1CF64
:1031C000FEE0FE1510F42FE0E22EED2DF0E0EE5BB8
:1031D000FA4F20812C8BF12C3CEEE30EF11CEE0C0F
:1031E000FF1CB701635A714F1B01198A8EEF482EDD
:1031F0004D1897E5892E90E1992E7C89771609F470
:1032000048C0E72DF0E0EF56FA4FC080CB86C7FCF0
:103210003EC0662DC5010E94D417E82FF0E0EE0FE6
:10322000FF1FE356F14F85919491080F191F88896C
:10323000C81AEFEFEC0DF0E0E05BFB4F8081840DEE
:10324000883048F0C394EC2DF0E0E05BFB4F8081C8
:10325000840D883068F4C5010E94CB17E82FF0E098
:10326000EE0FFF1FEB51F04F85919491080F191F3E
:10327000F10185919491080F191F9989992329F0DB
:10328000F40185919491080F191FE1E0E98B739483
:10329000B4CFE1E0E50DF0E0EF56FA4F408080E575
:1032A00094E09C878B87DD86C5010E94BA15C82EE5
:1032B0008D85805E888B9701235C314F1901812CAD
:1032C000712C79E5A72E70E1B72E38893C1509F4E9
:1032D00091C08C2D90E0BC01605B7B4F7B01FB01BA
:1032E000EF5BFE4F90809F8697FC75C0662DCE01E8
:1032F0000F960E94D417F701E052FF4FE081E7706C
:10330000EE87E450EE2EF12CF70155E0EE0FFF1F93
:103310005A95E1F7E05CFF4FE80FF11DEE0FFF1F3C
:10332000E35AF14F85919491080F191F642D691983
:10333000CE010E960E94BA17882349F0F701EE0FCE
:10334000FF1FE35FFF4E85919491080F191F8E8533
:10335000982F937009F441C0853061F4F101859193
:103360009491080F191F772059F1F50185919491D7
:10337000080F191F892D8F708F8728E0FF24F39481
:103380009F85E92FF0E0E05BFB4F80818250382F72
:103390003D19383000F18519883008F4F12C905F20
:1033A0009F87215069F7CE010F960E94CB17E82F17
:1033B000F0E0F11008C0EE0FFF1FEB50F04F07C018
:1033C00077247394D7CFEE0FFF1FE351F04F859111
:1033D0009491080F191FC39478CF892D82958F700F
:1033E0009826792D71707A8B1B8A8A899B89019620
:1033F000882AF1CF83E0881206C0E3E1F0E18591ED
:103400009491080F191FE1E0ED0DF0E0EF56FA4F2F
:10341000F080FE86662DCE010E960E94D417E82F0E
:10342000F0E0EE0FFF1FE356F04F85919491080FE7
:10343000191FE5E5FEE04DE55EE090E034918F2D4B
:10344000830FA82FB0E0A05BBB4F2C912D2111F46E
:103450009F5FF6CF31964E175F0781F79C3008F0DB
:103460009CE0E92FF0E0EE0FFF1FE55AFF4E85913B
:103470009491800F911F64960FB6F894DEBF0FBE33
:10348000CDBFDF91CF911F910F91FF90EF90DF9013
:10349000CF90BF90AF909F908F907F906F905F90F4
:1034A0004F903F902F9008950F931F93CF93DF93EA
:1034B00000D0CDB7DEB78091F7079091F80701965D
:1034C0009093F8078093F707BE016F5F7F4F80915D
:1034D00003080E945116811128C090910308BE0173
:1034E0006F5F7F4F80E689270E945116811116C0B9
:1034F00081E00E94E9178C0180E00E94E9179801A1
:10350000281B390BC901E5E5F0E12091030825FFEF
:1035100015C025913491820F931F05C089819A812E
:103520009195819591099A83898389819A810F90D8
:103530000F90DF91CF911F910F91089525913491B4
:10354000281B390B3A832983F0CFDC01EC910E2E36
:10355000000CFF0BE65AFE4F84910895DF92EF9224
:10356000FF920F931F93CF93DF93CDB7DEB72A97C8
:103570000FB6F894DEBF0FBECDBFF82E80910308C2
:1035800020E62827E0EDEF0DE20FAFEFAE0FB0E041
:10359000A05BBB4F1C919EEF981B312F390F383029
:1035A00088F580E2821B8295869587709F2D929583
:1035B0009F70891709F4FDC080E01123A9F0EF2D59
:1035C000F0E0E05BFB4FE081F0E0E05DFA4FE0818E
:1035D000E770F0E0E253F24F0491080F8091F50597
:1035E0008C3009F0E8C0802F2A960FB6F894DEBF21
:1035F0000FBECDBFDF91CF911F910F91FF90EF9044
:10360000DF900895EF5FF0E0E05BFB4F1081910FDA
:10361000983038F21AE0180FE82FF0E0EE5BFA4F1E
:103620000081101789F0E12FF0E0EF56FA4F80810A
:1036300087FD08C06F2D681B8CE291E00E94BA17CD
:103640008111BACF1F5FEDCF8091030820E534E0F0
:103650003A8329838B83CE0101960E94BA15182FD5
:103660008B8130E2E32EE80EE11651F1812F90E0DC
:10367000FC01EF56FA4F008107FD20C0805D9A4F94
:10368000FC01808187708430C9F4DF2CD01A6D2D45
:103690008BE291E00E94BA17882381F0DC82CE0190
:1036A00004960E94A51A080FE02FF0E0E05BFB4FA4
:1036B00090819923C1F30F1509F47ECF1F5FD4CFFA
:1036C0008091030820E534E03D832C838E83CE0176
:1036D00004960E94BA15182F8E8120E2E22EE80E81
:1036E000E11651F1812F90E0FC01EF56FA4F008175
:1036F00007FD20C0805D9A4FFC0180818770853076
:10370000C9F4DF2CD01A6D2D8AE291E00E94BA171D
:10371000882381F0DF82CE0107960E94A51A080F48
:10372000E02FF0E0E05BFB4F90819923C1F30F1590
:1037300009F442CF1F5FD4CF8091030820E534E025
:1037400038872F838987CE0107960E94BA15182FD4
:10375000898590E2E92EE80EE11609F441C0812F37
:1037600090E0FC01EF56FA4F008107FD20C0805D1C
:103770009A4FFC01808187708630C9F4DF2CD01A03
:103780006D2D89E291E00E94BA17882381F0DA86D4
:10379000CE010A960E94A51A080FE02FF0E0E05B28
:1037A000FB4F90819923C1F30F1509F405CF1F5FDB
:1037B000D3CF80E202CFA12FB0E0AF56BA4F1C9119
:1037C000812F9F2D0E94E20E8F2D0E94AE1AE82EAF
:1037D000812F9F2D0E94F909802F8E1987FF04CF1A
:1037E00080E002CFCF93DF930E94541AEC01E09166
:1037F000F50585E0E89FF0011124E751FB4F828138
:10380000882349F0818187770E94AE1A99E1890265
:10381000C00DD11D1124CE01DF91CF9108952F92BB
:103820003F924F925F926F927F928F929F92AF9250
:10383000BF92CF92DF92EF92FF920F931F93CF939D
:10384000DF9300D000D0CDB7DEB78C016C01DC0176
:10385000612C412C6616F9F011968C91119787FD19
:1038600008C0E82FE777F0E0E05BFB4F90819923F9
:1038700079F0E42DF0E0EE0FFF1FE00FF11F9C91B7
:103880002081318111963C932E93908381834394C0
:1038900063941296DFCF2EE1241510F49FE1492E98
:1038A00082E995E09C838B8378015C01712C741410
:1038B00009F43BC0D7018D909C90119711963C90D4
:1038C000119737FE22C08C910E94D40EE82FF0E0B1
:1038D000E253F24FE4918CEF582E5E0E8091F50585
:1038E0008C3059F0C4010E94E20E832D87770E942C
:1038F000AE1A581AC4010E94F909F50151925F01EC
:103900007394F2E0EF0EF11CD2CFE32DE777F0E0F5
:10391000E05BFB4FE081F0E0E05DFA4FE081E770B3
:10392000F0E0E253F24F5490D9CF672DC8010E94C6
:10393000660862E975E0562C30E020E090E080E017
:10394000282E982E9194971488F5DB014D91BD0196
:1039500047FF27C0562C5718F801E20FF31FA52C7C
:10396000B12CA501480F591F440F551FAA0CBB1CB1
:10397000892C40803180DF01A40FB51FA20FB31F37
:10398000ED90FC901197F182E0824C92DF01AA0D3C
:10399000BB1D11963C92839432967810EACF521850
:1039A000792C815090482E5F3F4FCACF711066C06E
:1039B000BEE1852CB51510F42FE1822E912C9814C0
:1039C00009F458C07090030876FA772470F8D6018D
:1039D000EC91E777EA83F0E0E05BFB4FE081F0E019
:1039E000E05DFA4FA080BA2DB770AB2EAA94AA94CE
:1039F000E5E0EA1508F4A12CD60111968C918777A1
:103A00008983672DCE0101960E94D417B0E2AB9E48
:103A100050011124F501E80FF11DEE0FFF1FE35ACD
:103A2000F14FE590F490672DCE0102960E94D417D5
:103A3000F501E80FF11DEE0FFF1FE35AF14F8591DD
:103A40009491F701E81BF90BCF018138FFEF9F0735
:103A500014F481E89FEF8038910514F08FE790E02F
:103A6000AB81BC818D93BC83AB839394B2E0CB0ECE
:103A7000D11CA5CF692DC8010E946608852D0F9025
:103A80000F900F900F90DF91CF911F910F91FF90AA
:103A9000EF90DF90CF90BF90AF909F908F907F90EE
:103AA0006F905F904F903F902F9008959F92AF92AC
:103AB000BF92CF92DF92EF92FF920F931F93CF931B
:103AC000DF9300D000D01F92CDB7DEB7A0E3A60FE2
:103AD000A81B9EEF981B2FEF2A0FE22FF0E0E05B70
:103AE000FB4F2081290F283008F48CC0AF5FB0E075
:103AF000A05BBB4F2C91920F983008F483C0062F27
:103B0000182F2AE0E22EE80EE82FF0E0EE5BFA4FE5
:103B1000D080ED1489F0EE2DF0E0EF56FA4F608181
:103B200067FD08C0601B8CE291E00E94BA17F82E76
:103B3000811146C0E394EDCF802F90E09C01205B83
:103B40003B4F6901F901908080E6808380E594E035
:103B50009A8389831B83CE0101960E94BA15B82EE1
:103B60008B8190E2A92EA80EAB14E1F18B2D90E091
:103B7000FC01EF56FA4FE080E7FE02C0B394F4CFA9
:103B8000805D9A4FFC018081602F6E196D83877074
:103B90008C83CE0104960E94BA17F82E882371F305
:103BA000CE0105960E94A51AE80EEE2DF0E0E05B2E
:103BB000FB4F90819923C1F30E11E0CFF601908263
:103BC0008F2D0F900F900F900F900F90DF91CF914E
:103BD0001F910F91FF90EF90DF90CF90BF90AF902B
:103BE0009F900895F60190821F5FE12FF0E0EF565D
:103BF000FA4F8081602F681B86E291E00E94BA171D
:103C0000F82EDECFFF24F394DBCF2F923F924F921A
:103C10005F926F927F928F929F92AF92BF92CF925C
:103C2000DF92EF92FF920F931F93CF93DF93CDB765
:103C3000DEB7AC970FB6F894DEBF0FBECDBF1C0148
:103C4000F090030880E65F2C582610ED612E6F0C73
:103C500080E28F1990E09C0105E0359527950A9543
:103C6000E1F73CA32BA34BA086E028272BA731E04C
:103C70003F0D3DA3832F90E0AC014F565A4F5FA3F9
:103C80004EA3DA01EC901092F60780E594E09A8F4B
:103C9000898F5B8ECE0149960E94BA15982E8B8D26
:103CA000805E8CA78101DD24DA94C12CBCA5B915F6
:103CB00009F4CEC0892D90E0FC01EF56FA4FA080A8
:103CC000A7FC2EC0805D9A4FDC01EC91E7709A2D25
:103CD0009E199F8FF0E0EA53F24F8491E92F990FDC
:103CE000FF0BE25CF24FE491E823E370C9F0CE01F0
:103CF0004F960E94A51A782EBE2CB70CEB2DF0E043
:103D0000F9A7E8A7E05BFB4F90819923B1F3AB10D3
:103D100009C08091F6078E5F8093F6077AA6DA2CA9
:103D20009394C4CF492F50E0FA01E05DFA4F8081AF
:103D3000282F20762F11F4CFF7E0063E1F0708F05A
:103D4000C3C38B2C870CE82DF0E0E05BFB4F208198
:103D50002223C1F3A810E4CF2C2D30E0EDE0F0E0F9
:103D6000EC0FFD1FE20FF31FB0824F565A4FEFEFDB
:103D7000DA01EC93C39441E050E04C0F5D1F240F37
:103D8000351FD9019C938770833008F043C0A62C5F
:103D9000AB0C872D877041F5EA2DF0E0E05BFB4F1F
:103DA00080818111BDCF442D6B2D7A2DC8010E94D9
:103DB00060178C01A60CEA2DF0E0E05BFB4F8081E0
:103DC0008111AECF88A599A5B4E095958795BA9550
:103DD000E1F7BBA5B813A4CF8B2D8860F8018083D1
:103DE000A1820E5F1F4F9CCF8FEF8A0D881207C0F4
:103DF000442D6B2D782DC8010E9460178C01A3946F
:103E00008A108ECF442D6B2D782DC8010E9460172B
:103E10008C0186CF8C8F6F8DCE014C960E94BA1785
:103E2000882309F47DCFD8019B2D970DFD01329693
:103E3000BC9211969C93DF018912F7CF8B2D8F01D5
:103E40008719E81609F46CCFB08281833296F7CFD8
:103E5000E091F50525E0E29FF0011124E751FB4FC9
:103E600081818777B82E9E2D981BE82FF0E0E05BCC
:103E7000FB4FE081F0E0E05DFA4FE081E770F0E0B9
:103E8000EA53F24F8491E92F092E000CFF0BE25CFC
:103E9000F24FE491E823EC7F69F08091F6078F5FA1
:103EA0008093F60791959C8FCE014C960E94A51A9F
:103EB0008AA7DB2C8091F607882309F46FC0833032
:103EC00008F092C2E091F50535E0E39FF00111247E
:103ED000E751FB4F8181877781018D1509F4C7C0B8
:103EE0008091F60780FF69C1BD2CB6186FEF6B0D8E
:103EF000E62FF0E0E05BFB4FE0818EEFE82EEF185D
:103F00008E2F8E0D883060F4F0E0EF56FA4F8081EE
:103F100087FD06C04BA17D2DC8010E9460178C0152
:103F200061E06B0DE62FF0E0E05BFB4FE0818E2F50
:103F30008E0D883060F4F0E0EF56FA4F808187FDF7
:103F400006C04BA17D2DC8010E9460178C01F7E0CF
:103F5000063E1F0708F0B8C2EAE0EE2EEF0CEF2D88
:103F6000F0E0EE5BFA4FA080AE1409F4E2C0EE2D53
:103F7000F0E0EF56FA4FB080B7FC0EC06D2D6B1914
:103F80008CE291E00E94BA17882331F0D801BC92EC
:103F90001196DC920E5F1F4FE394E6CF47E0063E9A
:103FA000140708F091C2E091F50555E0E59FF00196
:103FB0001124E751FB4FA3808F2D82958695877042
:103FC0008A2171F16FEF6E0DE62FF0E0E05BFB4FA1
:103FD0008081811125C0AEEFBA2EBE0CEB2DF0E032
:103FE000E05BFB4F808181111BC0EDEFEE0DF0E037
:103FF000E05BFB4F8081811113C0852D0E94561D0F
:1040000081110EC06B2D852D0E94561D811108C097
:10401000D801EC928B2D886011968C930E5F1F4F08
:10402000AF2029F161E06E0DE62FF0E0E05BFB4F81
:10403000808181111CC0F2E0BF2EBE0CEB2DF0E0A0
:10404000E05BFB4F8081811112C0852D0E94561DBF
:1040500081110DC06B2D852D0E94561D811107C049
:10406000F801E0828B2D886081830E5F1F4FF7E09F
:10407000063E1F0708F028C2E091F50525E0E29F03
:10408000F0011124E751FB4F808183FF29CF81810B
:104090008777B82E8091F607882311F0DB1020CFA8
:1040A00088248A948B0CE82DF0E0E05BFB4FE081E4
:1040B0008EEFA82EAF188E2F8A0D8830B8F4F0E05E
:1040C000EF56FA4F808187FD11C04B2D682D8E2D44
:1040D0000E94370C81110AC0882D8068D8018C930A
:1040E000862D8B0D11968C930E5F1F4F8824839421
:1040F0008B0CE82DF0E0E05BFB4FE0818E2F8A0D0A
:10410000883008F0EDCEF0E0EF56FA4F808187FD61
:10411000E7CE482D6B2D8E2D0E94370C8111E0CEFD
:10412000882D8068F8018083B60CB1820E5F1F4F26
:10413000D7CEB7E0063E1B0708F0C6C180E594E085
:104140009D8F8C8FFE8ECE014C960E94BA15E82E64
:104150008E8D70E2A72EA80EAE1409F446C18E2DE6
:1041600090E0FC01EF56FA4FB080B7FC24C0805DB0
:104170009A4FFC0180816D2D6B196AA387708F8F18
:10418000CE014F960E94BA178823A9F0CE018296DD
:104190000E94A51A9B2D980FE92FF0E0E05BFB4FE2
:1041A00020812223C1F3D91206C0D801BC921196F6
:1041B000DC920E5F1F4FE394CFCFB7E00E3B1B079F
:1041C00008F082C152E0A52EAF0C6AE0762E7F0C7B
:1041D0007A1409F44FC0EA2DF0E0EF56FA4FB080A0
:1041E000B7FC46C0862C8B0C7FEF780DE72FF0E0F4
:1041F000E05BFB4F80818076581206C0442D6B2D0A
:10420000C8010E9460178C0171E0780DE72FF0E083
:10421000E05BFB4F80818076581206C0442D6B2DE9
:10422000C8010E9460178C01E82DF0E0E05BFB4FB5
:10423000808181111DC0442D6B2D782DC8010E94F5
:1042400060178C01860CE82DF0E0E05BFB4F80816D
:1042500081110EC08B2D82958F70EBA58E1308C037
:104260008B2D8860D8018C9311968C920E5F1F4F16
:10427000A394AECFEF2DF0E0EE5BFA4F408126EC39
:104280003DE04A1519F1EA2DF0E0EF56FA4F908122
:1042900097FD1AC0B7E0063E1B0708F015C1EEEB0C
:1042A000FDE08491890FA82FB0E0A05BBB4F5C912B
:1042B0005F2131F4D8019C9311968C930E5F1F4FB0
:1042C00031962E173F0769F7A394DBCF80E594E082
:1042D00098A38F8FF9A2CE014F960E94BA1569A1BB
:1042E000605E2AEB3DE04EEB5DE0681709F451C0DB
:1042F000E82FF0E0DF01AF56BA4F9C9197FD47C021
:10430000B7E00E3B1B0708F0DFC0E05DFA4F70819D
:10431000E72FE370E9F0EAEBFDE0A4903801B92E55
:104320008301BA0CAB2DB0E0A05BBB4F8C90A82DE5
:10433000AF2151F4A2E06A0E711CD8019C93119632
:10434000BC92882069F3830131964E175F0729F7E5
:1043500070FD1DC0E6EBFDE0B4904801792F8401AB
:104360007B0DA72FB0E0A05BBB4FAC90AA2DAF2177
:1043700051F4B2E08B0E911CD8019C9311967C9362
:10438000AA2069F3840131962E173F0729F78F5F22
:10439000ACCF8091F607882341F15101A016B106F8
:1043A00020F5F50181818777882E8E198C8FCE01BB
:1043B0004C960E94A51AFAA58F1779F0F8019291F0
:1043C0008291D5018D939C93950122503109590119
:1043D0008F0132E0A30EB11CE1CF9E2D980F8916FC
:1043E000C1F3D912FBCFEACF810146EE241647E094
:1043F000340608F069C0AEA1BFA1DC90AD2CB12C91
:10440000F501E05BFB4F108235E5832E3EE0932EF5
:104410004DE5642E4EE0742EF401E490ED0CEE2D8B
:10442000F0E0E05BFB4F80818F2161F46E2D852DE4
:104430000E94561D811106C0D801DC921196EC92A3
:104440000E5F1F4FBFEF8B1A9B0A6814790421F788
:10445000F501E05BFB4F2DA12083CC20B9F0CA947D
:104460008C2D90E0E1E0F0E0EC0FFD1FE80FF91F6C
:10447000E081F0E0EF56FA4F4DE050E04C0F5D1F49
:10448000840F951FDC018C918083E7CFC8018219CE
:10449000930995958795AC960FB6F894DEBF0FBE3D
:1044A000CDBFDF91CF911F910F91FF90EF90DF90E3
:1044B000CF90BF90AF909F908F907F906F905F90C4
:1044C0004F903F902F900895CC20B9F0CA948C2D36
:1044D00090E0E1E0F0E0EC0FFD1FE80FF91FE08154
:1044E000F0E0EF56FA4F2DE030E02C0F3D1F820F29
:1044F000931FDC018C918083E7CF8FEFCCCFCF93DC
:1045000086EF95E00E94051EC82FE091F50585E035
:10451000E89FF0011124E751FB4F84818436B8F401
:104520000E941716811115C00E94FD08823098F470
:104530009091F607CC2331F081E0911101C080E029
:10454000CF91089586E09111FBCF85E0F9CF82E00D
:10455000F7CF84E0F5CF83E0F3CF8091030890E0BC
:1045600026E0959587952A95E1F7809356030E945A
:104570007F228093480108950E94AD2280914801D6
:10458000823038F085E190E09093E7038093E60372
:10459000089590915603E92FF0E0E356FC4F828195
:1045A000882309F121E0911120E0E22FF0E0E356A9
:1045B000FC4F9281911102C02093970398E0909351
:1045C000FE0790E0880F991F079621E030E002C0B7
:1045D000220F331F8A95E2F73093FA072093F907E9
:1045E00088E090E0D1CF81E0911101C080E080931C
:1045F000970384E090E0C8CF1F93CF93DF93182FE9
:10460000D92F809104089091050801969093050890
:10461000809304088091060890910708892B69F11E
:1046200086EF95E00E94051EC82FC1508C2F90E0A8
:10463000FC01EE0FFF1FEA50FA4F20812113F5CF46
:10464000880F991FFC01E950FA4F8081D813EDCFF4
:104650008091060890910708FC01EA55F74FE49114
:104660002E2F2F73C2132FC00196E7FD02C090E0DA
:1046700080E09093070880930608E6EEF8E09291B8
:1046800082919383828388E0E830F807C1F7109322
:104690000808D0930908812F9D2F0E94E20EE09117
:1046A000F50585E0E89FF0011124E751FB4F1092DA
:1046B000F505A9EEB4E001900D928A95E1F7DF913E
:1046C000CF911F91089586E098E00E949B1581117B
:1046D000BFCF1092070810920608CFCF0F931F93F9
:1046E000CF93DF931092070810920608C091040838
:1046F000D0910508C730D10580F40C2F0E941D0B06
:1047000010E0CC0FDD1FCA5FD74F101730F488813F
:1047100099810E94FC221F5FF8CFDF91CF911F91FA
:104720000F9108958F929F92AF92BF92CF92DF9296
:10473000EF92FF920F931F93CF93DF938091040822
:1047400090910508892B09F4ECC08091DF03882340
:1047500009F4E7C090900808F0900908292D277700
:10476000C22ECF2DC777E12CF7FC04C0E92CEE1C3C
:10477000EE24EE1C3F2D3770D32E0C2D10E0F3FEEF
:10478000A6C083E0E1E0831708F4EFEFEC0FF0E060
:10479000E05BFB4F8081D0E0B090A503A090A40324
:1047A0002091040830910508215031093093050803
:1047B00020930408E8E0F8E02281338121933193CB
:1047C00028E0E63EF207C1F78093F00481E0809391
:1047D000F505892D9F2D0E94F909A092EC04B09255
:1047E000ED04F7FC12C097FE10C0C80164E0959577
:1047F00087956A95E1F78295807F8D0D8093EA0415
:104800008091E90488608093E9040E946E2380917E
:10481000DF0381508093DF03E3EAF3E08381948137
:10482000A58181939193A19333E0E43CF307B1F721
:10483000E7ECF3E08EED93E0218121938E179F0743
:10484000D9F710925503C093E503C0929C03F80179
:10485000E05BFB4FE081F0E0E05DFA4F8081809308
:10486000E0038D2D90E0EE2089F0D80144E0B5956D
:10487000A7954A95E1F753E0AA0FBB1F5A95E1F7B8
:10488000A80FB91FA95ABC4FDC93D0E0EC2FF0E081
:1048900024E0F595E7952A95E1F733E0EE0FFF1F49
:1048A0003A95E1F7E80FF91FE95AFC4FD0831092CF
:1048B000490381E0DF91CF911F910F91FF90EF901D
:1048C000DF90CF90BF90AF909F908F900895D09140
:1048D000A3036C2FEE2091F0B801E4E07595679585
:1048E000EA95E1F76295607F630F80910308D82F06
:1048F000D295D695D695D3708F5FD80F862F90E03E
:10490000FC01E05BFB4F5F0180808D2F0E94E40B78
:10491000E82FF0E0EF56FA4F9FEF9083F501808289
:104920003BCF80E0C7CF6F927F928F929F92AF92E2
:10493000BF92CF92DF92EF92FF920F931F93CF938C
:10494000DF938C016B017A010E94051E782E8FEF98
:10495000781210C0DF91CF911F910F91FF90EF90CF
:10496000DF90CF90BF90AF909F908F907F906F908F
:104970000C94F21B71102BC08091F5059091F607F5
:10498000992399F0C82FD0E0DD57CE01DF91CF9168
:104990001F910F91FF90EF90DF90CF90BF90AF905D
:1049A0009F908F907F906F90089560910208DF91A3
:1049B000CF911F910F91FF90EF90DF90CF90BF901C
:1049C000AF909F908F907F906F900C94C90E0E9433
:1049D000541A8E159F050CF07BC0EC018C159D05BB
:1049E0000CF4E60180E0E82FF0E0EE0FFF1FE00F8F
:1049F000F11F9181A92FA777B0E0A05BBB4F2C914D
:104A0000211111C097FD0FC0908197FD0CC07A94C1
:104A10008150A72DB0E0AA0FBB1FA00FB11F2D9191
:104A20003C91318320838F5F8715E8F2672DC801A1
:104A30000E940F1C872C912C880C991C800E911EB3
:104A4000612CC12C93E8D92EAA24BB24AE18BF0830
:104A5000671409F49ACFF801808191810E94E20ED7
:104A60008091F5058C30C9F40E94541A9195819576
:104A70009109C816D9060CF46C01F8018081918166
:104A80000E94F909CC15DD050CF4E6010E5F1F4FFD
:104A9000CE15DF05ECF46394DBCF80910108811122
:104AA00014C02091F7073091F8078091F907909191
:104AB000FA078217930748F0442755274C1B5D0BD4
:104AC000B501C4010E949324D1CF90E080E0CECF05
:104AD000E7015BCF5F926F927F928F929F92AF922E
:104AE000BF92CF92DF92EF92FF920F931F93CF93DB
:104AF000DF938C016B015A01522E8091F50595E0F0
:104B0000899FF0011124E751FB4F9481943618F0EE
:104B10006091020808C00E9417168823A9F06091CE
:104B200002088091F505DF91CF911F910F91FF90C1
:104B3000EF90DF90CF90BF90AF909F908F907F903D
:104B40006F905F900C94C90E0E94FD08823038F778
:104B5000809101088111A5C02091F7073091F807D5
:104B60008091F9079091FA078217930708F499C08A
:104B70008091F505851538F18C3089F4DF91CF915E
:104B80001F910F91FF90EF90DF90CF90BF90AF906B
:104B90009F908F907F906F905F900C94541AA50116
:104BA000B601C801DF91CF911F910F91FF90EF9057
:104BB000DF90CF90BF90AF909F908F907F906F903D
:104BC0005F900C949324C8010E94051E782EEFEF8D
:104BD0008E1311C0DF91CF911F910F91FF90EF9035
:104BE000DF90CF90BF90AF909F908F907F906F900D
:104BF0005F900C94F21B81111BC08091F505909180
:104C0000F607992309F484CFC82FD0E0DD57CE01F1
:104C1000DF91CF911F910F91FF90EF90DF90CF9098
:104C2000BF90AF909F908F907F906F905F9008950E
:104C3000682FC8010E940F1CE72CF12CEE0CFF1C02
:104C4000E00EF11EC0E0D3E8612C882499248A1874
:104C50009B08F801808191810E94E20E442755272C
:104C60004C195D09252DB401C7010E946A25919553
:104C700081959109C817D9070CF4EC01F8018081DE
:104C800091810E94F909CC16DD060CF46E01CA145C
:104C9000DB040CF0BCCF63940E5F1F4F7610D9CFAE
:104CA000B6CFD0E0C0E0B3CF0C94FD360F931F9386
:104CB000CF93DF930AE110E0CFEFDFEFC8010E944E
:104CC00054269D2F9827892F82958F708927282F0A
:104CD00030E09C2FA901542F44275295507F842700
:104CE0009527E90175E0CC0FDD1F7A95E1F7C8271C
:104CF000D9270F5F1F4F0E3F83E01807F9F6CE014B
:104D0000DF91CF911F910F9108951F920F920FB6CF
:104D10000F9211248F939F938091E1009091E10075
:104D2000937F9093E10083FF0FC01092E90091E020
:104D30009093EB001092EC0092E39093ED001092B0
:104D40004F0498E09093F00082FF22C093E090938C
:104D5000E9009091F200992319F09AE39093E8000A
:104D60009091F003992341F09091F003915090932A
:104D7000F003911101C05D9A90914E04992341F086
:104D800090914E04915090934E04911101C0289A35
:104D900084FF18C08091E2008E7E81608093E200E3
:104DA0008091E1008F7E8093E1008091F1038E7EFF
:104DB00080618093F1039F918F910F900FBE0F90B0
:104DC0001F90189580FFF7CF8091E2008E7E806162
:104DD0008093E2008091E1008E7E8093E1008091DB
:104DE000F1038E7E8160E5CF1F920F920FB60F9276
:104DF0001124CF92DF92EF92FF920F931F932F9384
:104E00003F934F935F936F937F938F939F93AF9352
:104E1000BF93EF93FF93CF93DF93CDB7DEB76C973C
:104E2000DEBFCDBF1092E9008091E80083FF25C06E
:104E300068E0CE0145960E94010E82EF8093E80063
:104E40008D8987FF39C09091E80090FFFCCF982FA3
:104E5000907609F034C19E894F89588D2F89F88C3E
:104E6000911131C0803861F58091EF038093F1009A
:104E70001092F1008EEF8093E8006C960FB6F894D4
:104E8000DEBF0FBECDBFDF91CF91FF91EF91BF91FC
:104E9000AF919F918F917F916F915F914F913F91D2
:104EA0002F911F910F91FF90EF90DF90CF900F9077
:104EB0000FBE0F901F9018959EEF9093E800C7CFFC
:104EC0001092F100D5CF913059F48111D3CF4130F8
:104ED000510581F68091EF038D7F8093EF03CACF58
:104EE000933049F48111C6CF4130510519F68091B4
:104EF000EF038260F2CF953041F48091E80080FFAB
:104F0000FCCF20682093E300B5CF963009F0A9C00C
:104F10000B8D1C8D22E01092E9001092ED0310928F
:104F2000EC03F2122EC01092EB031092EA030E94DF
:104F3000D00D1F8299E09983FA8291E09E8390EAD6
:104F400098879AEF99872091EC033091ED03275FC2
:104F50003F4F3C832B838D831092E9001092ED0329
:104F60001092EC031093EB030093EA0349E050E046
:104F7000BE016F5F7F4F80E00E94AA0D0E94D00D9E
:104F800079CF1093EB030093EA030E94B40CDC0189
:104F900012960D911C910115110509F451C1D8010A
:104FA000ED91FC910480F581E02DBE016B5E7F4F99
:104FB000C8010995009709F03EC1F80100851185E7
:104FC000EACFF3E0FF120EC08F89882309F440C0B6
:104FD000823061F440E867E08FE998E00E94770D45
:104FE000811148CF81E28093EB0047CF813029F4D3
:104FF00040E86BE083E998E0F1CF833099F70E94B5
:10500000B40CDC011296ED90FC908E010F5F1F4FE7
:105010006801E114F10479F0D701ED91FC9106806B
:10502000F781E02DB801C7010995080F111DF7019F
:10503000E084F184EECFD8011C92F60101900020AB
:10504000E9F73197BF016C197D0940E0C601C6CF71
:105050006DE778E0FB01449150E080E80E94AA0DE2
:1050600009CF973009F4BECF983021F481E08093C6
:10507000F10000CF993009F0FDCE837009F0B2CF76
:10508000EEE0F1E081E031E096E32191222371F03E
:105090008093E9003093EB00DF0111972C9120936E
:1050A000EC009093ED008F5F873079F78EE7809367
:1050B000EA001092EA008F8980934F04DBCE8B8D3B
:1050C0009C8D1092E9001092ED031092EC039093E6
:1050D000EB038093EA03898D811192C08E899D89AB
:1050E000913A49F4813209F07DCF47E050E064E025
:1050F00071E080E0B3CF913209F074CF833269F46C
:105100008F89988DB0E0A0E0809300019093010119
:10511000A0930201B0930301ADCE803269F4809177
:10512000E80082FFFCCF67E084E091E00E94010E7E
:105130008BEF8093E8009ECE823209F09BCE8F8960
:1051400080930B01EEEFFFE7859194918B3F9C4D8F
:1051500051F1E0E0F8E08091040190910501A09107
:105160000601B0910701803B9440A105B105F1F41F
:1051700080910B0180FD1AC0EE3F8AE0F80789F5A7
:1051800087E797E791838083809160008093EE03A7
:1051900088E19BE00FB6F894A895809360000FBE5D
:1051A0009093600067CEEEEFFAE0D5CF80819181D9
:1051B0008737974709F05ECEA89580916000886197
:1051C000809360008091EE0380936000EE3F2AE0C0
:1051D000F20789F08091FE0A9091FF0A9183808303
:1051E00049CE808191818737980751F29093FF0AC9
:1051F0008093FE0AC5CF1092FF0A1092FE0A3ACEA3
:105200000E94B40CDC0112960D911C910115110540
:1052100009F4E8CED801ED91FC910190F081E02DE8
:10522000BE016B5E7F4FC8010995811123CEF80145
:1052300000851185EBCF181619060CF41BCED2CEC3
:10524000F1E0FF12BECE61E878E004CF0F920FB616
:105250008F939F93EF93FF9380914B038D5F8D37D7
:1052600008F08D5780934B03E1E5F3E080818E4F8A
:10527000808391819F4F918382818F4F828383812D
:105280008F4F8383ECE4F3E080818F5F80838181A3
:105290008F4F818382818F4F828383818F4F83835E
:1052A0008FB18F6066991C9B88278F3681F480911F
:1052B0004A03981B963068F0E0E0F8E087E78083C7
:1052C000818388E180936000F0936000FFCF90932A
:1052D0004A03FF91EF919F918F910FBE0F90189508
:1052E0001F920F920FB60F9211243F924F925F922E
:1052F0006F927F928F929F92AF92BF92CF92DF92E6
:10530000EF92FF920F931F932F933F934F935F93CF
:105310006F937F938F939F93AF93BF93EF93FF937D
:10532000CF93DF93CDB7DEB76197DEBFCDBF0091DE
:10533000E6031091E7030631110508F0E0C1F8011A
:10534000EC55F64D0C942737BA29C929F429062AB9
:10535000212B2C2B2C2BAC2BBC2ACD2A192C192C15
:10536000192C242D312D6F2DCD2D202E7F2B7F2B11
:105370004B2E8F2E8CE294E00E94851580E00E94D7
:10538000AF101092E50381E090E09093E7038093E3
:10539000E6038CE694E00E948515E091E503F0E0D9
:1053A000EE0FFF1FEC5DFC4F05911491CE010196AD
:1053B0009E012F5E3F4FDC01A801481B590BFA01EB
:1053C000EA0FFB1FE491ED932A173B07C1F760E159
:1053D0000E948F13869525E1281B44E16FEFC801D9
:1053E0000E94BA1281E02AC10E94F21081E00E945C
:1053F000AF101092E50310929F0381E08093A00309
:1054000083E090E09093E7038093E6032EE34EE081
:1054100060E080E00E94AC112FE045E068E088E5A4
:1054200093E00E94BA1223E042E164E087E094E056
:105430000E94BA1223E04AE16AE08EE493E00E94FF
:10544000BA1223E042E266E088E493E00E94BA12D6
:1054500023E042E366E082E493E00E94BA12E09126
:105460009F03F0E0EE0FFF1FE65CFC4F85919491E7
:1054700022E242E26FEF0E94BA1227E04AE268E0BD
:1054800082E393E00E94BA12E091A103F0E0EE0FF4
:10549000FF1FE85DFC4F859194912AE24AE26FEF8D
:1054A0000E94BA1280919F0381110BC0E9E8F2E0DB
:1054B0002FEB32E087818575878331962E173F0762
:1054C000C9F7E091A003F0E0EE0FFF1FE65CFC4F90
:1054D0008591949122E242E36FEF0E94BA1227E095
:1054E0004AE368E082E393E00E94BA12E091A203EB
:1054F000F0E0EE0FFF1FE85DFC4F859194912AE2EA
:105500004AE36FEF0E94BA128091A00381110BC091
:10551000E9E0F3E02FE333E08781857587833196F7
:105520002E173F07C9F78091E503E82FF0E0329688
:10553000B6E0EE0FFF1FBA95E1F78823C1F09DE2B8
:105540008130B1F09DE38330A9F0853099F081E29C
:10555000E80FF11DE75BFE4F3EEF891708F042CFE1
:105560002191DF01119723272C938F5FF6CF93E1D1
:1055700082E0EECF89E2ECCF0E94F21081E00E943F
:10558000AF100E94B81380E00E94931089E090E071
:105590009093E7038093E603B2C080E00E94291055
:1055A00084E00E941710882319F081E0809301089D
:1055B00090915603E92FF0E0E356FC4F82818F5F14
:1055C000880F4091F7075091F80702C0569547950C
:1055D0008A95E2F781E0911180E09091970317E3BB
:1055E000891301C015E0F12C09E1040F402F69E196
:1055F000812F8F0D0E947C11F39423E0F212F6CFDD
:1056000049E369E18FEF810F0E947C1149E369E171
:1056100083E0810F0E947C1102E0010F48E1602FBE
:10562000812F0E9449114AE3602F812F0E94491166
:1056300081E090910108911101C080E00E949310D7
:105640005EC00E94B81381E00E94931085E090E054
:105650009093E7038093E6030E94F2108091E603A3
:105660009091E7030697B1F46091E503862F869544
:1056700088776770660F660F660F9091970399237E
:1056800031F098E3392F381B832F961B692F41E0A7
:105690000E94031200919A031091980340E0602F3A
:1056A000812F0E940312602F70E080919B03282FAE
:1056B00030E0A9014F5F5F4F6417750739F0620F43
:1056C000731F6F5F7F4F75956795862F80939A0341
:1056D000812F90E020919903422F50E0BA016F5F33
:1056E0007F4F8617970731F0840F951F0196959588
:1056F0008795282F2093980381E00E94AF10809116
:1057000049038F5F8093490361960FB6F894DEBF1B
:105710000FBECDBFDF91CF91FF91EF91BF91AF91C0
:105720009F918F917F916F915F914F913F912F91B9
:105730001F910F91FF90EF90DF90CF90BF90AF90AF
:105740009F908F907F906F905F904F903F900F90C1
:105750000FBE0F901F9018950E94F210E5EDF1E03A
:105760002CEF31E080818F7081932E173F07D1F7A6
:10577000E5E1F2E08CE392E011928E179F07E1F7EA
:10578000E5E5F2E08081887F819362E0EC37F607FF
:10579000C9F722E342E26CE084E10E94AC118091FF
:1057A000030885FF44C080E090E0029627E0289F30
:1057B0008001299F100D112469E172E0C8018F5901
:1057C0009C4F0E94CB1061E272E0C80188599C4F47
:1057D0000E94CB1069E272E0C80181599C4F0E947F
:1057E000CB1061E372E0C8018A589C4F0E94CB1035
:1057F0006091E0036E5F660F660F660F80919A03FB
:1058000090E0262F30E0A9014F5F5F4F8417950786
:1058100039F0BC01620F731F6F5F7F4F75956795FD
:1058200060939A0340E088E10E94031265CF86E00E
:10583000BBCFF0904903F110ACC0E9E4F1E0119264
:1058400083E0E934F807D9F70E94B81381E00E9499
:1058500093100E94F210FEE0FF1508F46CC06091F6
:10586000E503A62FA770AA0FAA0FAA0F80919C0389
:10587000282F2770220F220F220F669568778695B2
:10588000887790919703992361F098E3392F3A1B19
:10589000A32FE92FE21B2E2FF92FF61B6F2F981B3A
:1058A000892FEF2DF0E0E454FC4FE491F0E0861BEB
:1058B000990B8E9FA0018F9F500D9E9F500D11241C
:1058C000CA01809646E0969587954A95E1F7680F5C
:1058D0002A1B330B2E9F50012F9FB00C3E9FB00C04
:1058E000112420E2A20EB11C56E0B694A7945A955A
:1058F000E1F7AA0D2091E003822F877090E025FF49
:105900004EC0019727E0289FF001299FF00D112438
:10591000CF018F599C4F462F477038E0639FB001ED
:105920001124AA2EB12C41113CC06A0D7B1D675B6E
:105930007E4F0E94CB1081E00E94AF10FFE0FF126B
:10594000DECE0A30110509F076C0E0915603F0E092
:10595000E356FC4F82818823C9F08091FB07909128
:10596000FC078E3A2CEF92070CF45DC086303FEFB7
:1059700093070CF45AC0833563E096070CF057C0C8
:105980008B3F91050CF055C082E080830E94BC22C1
:10599000B6CEEFE0FE125DCF0E946D105ACF059695
:1059A000B1CFC42E2EEF30E0042E01C0220F0A9496
:1059B000EAF738E0341B432FEFEFF0E002C0F59533
:1059C000E7953A95E2F7DB01A07CB770AA0DBB1D05
:1059D000A75BBE4F5D0167E0A60EB11C2095EE2EC1
:1059E000E094FC01649170E03D91FD013197322318
:1059F0004B010C2C01C0880C0A94EAF7382930833B
:105A0000DF963C91DF973E21042E02C07595679585
:105A10000A94E2F7632BDF966C93DF970196AA1640
:105A2000BB06F9F688CF80E0B0CF81E0AECF84E04E
:105A3000ACCF83E0AACF0C30110509F0A7CF0E94AC
:105A400092238BE090E0A4CD0E94F21081E00E94AE
:105A5000AF101092E5038EE090E09093E7038093FF
:105A6000E6032EE34EE060E080E00E94AC118091FE
:105A70004801823070F12CE045E069E08FED93E061
:105A80000E94BA123CECE32E33E0F32E12E1F70150
:105A9000859194912BE0412F6FEF0E94BA12185F0D
:105AA00082E0E80EF11C123391F7E091E50320E467
:105AB000E29FF0011124E753FE4F9F01255D3F4F08
:105AC0009EEF8285892782873196E217F307C9F70F
:105AD00089CC29E045E06BE084ED93E0D1CF809163
