:100000000C94F4080C941C090C941C090C941C0905
:100010000C941C090C941C090C941C090C941C09CC
:100020000C941C090C941C090C9432270C94A127E5
:100030000C941C090C941C090C941C090C941C09AC
:100040000C941C090C941C090C941C090C941C099C
:100050000C941C090C941C090C941C090C94D329B5
:100060000C941C090C941C090C941C090C941C097C
:100070000C941C090C941C090C941C090C941C096C
:100080000C941D2A0C941C090C941C090C941C093A
:100090000C941C090C941C090C941C090C941C094C
:1000A0000C941C090C941C090C941C092503032DA9
:1000B0003025012600212D01312C2723012600297E
:1000C00026250127250327002A232E232A34110061
:1000D0002A232E232A3410002A232E232A340F0009
:1000E0002F01272D34242D2E2300EF0000000000C7
:1000F00000F0000000000000F10000EF0000000030
:1001000000F00000000000F100000000EF0000001F
:1001100000F000000000F1000000000000EF00000F
:1001200000F0000000F10000000000000000EF00FF
:1001300000F00000F100000000000000000000EFEF
:10014000DFF0E1F10000000000000000000000EE20
:10015000EFF0F1F2000000000000FFFFFFFFFFFFE3
:10016000FF00010101010101010000000000000E7B
:100170000F10111200000000000000000000000F2E
:100180001F102111000000000000000000000F00FF
:10019000001000001100000000000000000F00002F
:1001A0000010000000110000000000000F0000001F
:1001B00000100000000011000000000F000000000F
:1001C000001000000000001100000F0000000000FF
:1001D000001000000000000011041F02041F031F94
:1001E000150A031F051A030E191E031F041B03081B
:1001F000141C031F1408030C12120308141F030C11
:100200001A14021E050312150F031F0418030E1102
:100210000E03121F10031915120311150A03070408
:100220001F03171509030E150803011907030A1503
:100230000A0302150E0204040314081403040E0436
:10024000050A1F0A1F0A05190D0C0D1905110908C9
:100250000911050111101109050911101109050DE8
:100260001918190D030E1111031F041F031F151177
:10027000051F0204021F031E051E03011F01031FA9
:10028000110E050F100E100F03121509031F101089
:10029000031F050203111F11040E11110E0307188D
:1002A00007040F10100F040E11151D031F05010187
:1002B0000A03011502020000030000000404080400
:1002C00002FFFFFFFFFFFFFFFFFF00010203040526
:1002D00006070707070707070707060504030201C4
:1002E00000222F242501002926252A232425262320
:1002F00024252623032C252A03232B23262C262CD6
:100300002D01130E34242D2E2329270325283221D5
:1003100022232105242526232A2D25273430252490
:100320002300001040010203040552031803BF001C
:10033000B500AC00E102D800D000C800022A252197
:10034000053228222C26233229262503263430255F
:10035000242301232834302524230000687C7C7C5E
:10036000680000001400140000181C4A7E7E7C7097
:10037000204C7E377A4C20467C7E7C7E7C464364D3
:100380007D7E7D644344687A7F7A68440068544483
:1003900054680018144A72424C70204C7221724CFE
:1003A00020467C4644467C4643645D465D64434447
:1003B000685A4F5A68440000000001020305070A0A
:1003C0000C1013161A1E22262A2D303436393B3DC6
:1003D0003E3F404040401104E000F2032404302539
:1003E0002423342B252F29232730252423342D2E75
:1003F000230329252E233430252423002125012100
:10040000232A2D2E230328032C26233429252E23AB
:1004100033022521050029252E2C013033282C26D6
:10042000222D2F2624252C01342423012F002A23BA
:10043000252E2334262D00000000000000000000BF
:1004400000000000000000000000000000000000AC
:100450000050F0F0800000000000000000000000EC
:100460000000000000800000C42212CA3C0000808E
:100470006040808040000080402020C0380600009E
:100480008060000080600000C03008040402222464
:1004900018000080603826C0000000804020A06066
:1004A00000000080702040800000008070204080AC
:1004B000000000000000000000000000000000003C
:1004C000000000000000000000000000800100EAC1
:1004D000711AFF7E87838380808080000000000087
:1004E0000000102020908D838181818F90908E81DB
:1004F000808C939088848E9190888E919088848E41
:100500009190888E9190888798A0A0A0A0A09090AC
:1005100088948E8180808E91908884878A91909033
:1005200088848A959888949388848A9598889493E7
:100530008840402418000000000000000000000077
:100540000000000000000000001005421825D748F8
:10055000B77FC9F7FEBFEB7F1F0F0300000000004D
:10056000000C1201010000000040A0F058E84040DB
:10057000E04000000000000000000000000000005B
:10058000000000000000000000000000000000006B
:10059000000000000000000000000000000000005B
:1005A000000000000040E04040E858F0A04000009B
:1005B000000000000000000000000000000000003B
:1005C00000000000000000004000809002A1BC4B31
:1005D000ABBEEFBBFEFF9FF9F0C0C0800000000083
:1005E0000000000000000000000000010302000005
:1005F000000000000080000080800080008000007B
:1006000000800000800000808000008040008000AA
:1006100000C00000C00000800000C000004000805A
:100620000000804000800000400203410080400044
:1006300000400080000000002A00500500B00004C7
:1006400051200880210890224008801240010A6948
:10065000DBBAFDFFFEFFC101158904A2084413485F
:10066000A4126C813248A01A6088523144A81168E3
:10067000528134688132888016AA0896AB041AC762
:1006800028168BA41A87A80E92AD0A46B94E72D1CD
:100690002C52F10876E118D46330CC5132E4493061
:1006A000D621E894032E548B158EA51906AE510E53
:1006B00095228D1EA00B000050001400801400082D
:1006C00080020440020940060100124500806813C0
:1006D000EEFD37FFFFBFFFF8E0C318A44118A04AA2
:1006E000A800DA20886A9008E2300CE0110C500073
:1006F000850822870802AB04820906AA01068D2319
:10070000028D22078C2207C9AE73915864B1906C98
:1007100051B0D429B0C83AE0115CE01174C810752A
:10072000C810F0060D238C0B220C4B02AD0A01AE53
:100730000209A60A1186000009000228000A100218
:1007400004100904002B0008030030C02C92E91D9E
:10075000F6ABDF7FEBFFDFF77FFFEEFCFCFAA000DC
:10076000628048224008A21008972208952A118624
:1007700058052A114E8932049D22095688132E905D
:100780000B14926D8A01608A44A01241A4484095DE
:100790002248806A00D22448836014C16802D025B0
:1007A000806806398B1416A91517A8132E81182FE7
:1007B0008219244B12140000A00000500000108089
:1007C0000000200000801000802200045A0015560E
:1007D0004D15565D9F572DFFAF2BDFAE37CF6F10F6
:1007E0009661118860128870821860429850229435
:1007F0005040B5006A9020CA30856810A268148203
:10080000200C83540986290A84258B04A90A862191
:100810008D0AA10D9205288B45140AA10E022946C6
:1008200008937004897004D122885025D00228D002
:1008300002A950049160D5F08D14A1C881CFD9F1DF
:10084000AF2000080B0002020200000904000001B2
:100850000202000005240010010524010101042406
:100860000206052406000107058103100040090463
:100870000100020A0000000705020240000007050F
:1008800083024000000403090412010002EF020188
:100890004041233680000101020301417264756901
:1008A0006E6F204C4C430041726475626F79009109
:1008B000C7054792119285828ED5C6C7C0C69F5381
:1008C000C352C6C780DACB46C8D7C0DDC25885CD73
:1008D0000DC5C45204888ED857C90082D4DA40C7E7
:1008E00055CA8EC7C452C9D55487084A08CA83D589
:1008F0005582D55587D50447CAC2D5D6C05402857E
:1009000002858F4DD04D09CA5084C5468782195241
:100910008584C8D14E8743C84A068791C5844DC790
:100920004D448852CA99D49146C74692D5C4C0DB7B
:100930004684D5DAC04FCBD5D34086C758880587C3
:10094000514A8B47CC054982925387D31912C54728
:1009500006C9D3D0C7D2568307C9538511929005D3
:1009600087C4538994CE494B8894C74706C885C627
:100970004CC749CACBD5D54091488648CB0449825B
:100980009053C653858F8FCACAD45450908F4DD080
:100990004DCACAD1D1CECE408491C688514A86462E
:1009A0004B068990970F134A909412C8C6C7D1512D
:1009B000CBC9D5D95E9194CE87D95949CBD8D440EB
:1009C00046915005CB9052915244889017C7C75119
:1009D0009111478647CBC7D39251C6DAC2DC450B8B
:1009E000CC90934B4586538886C64849CBD35287D3
:1009F0001192984A99909905475D058796C64610C9
:100A00004686D747C85190C7589202858743488782
:100A1000850447064806881A9B85484A8518420778
:100A2000C943CA9A559BD44F8555C9D5D5C0408571
:100A30008FD14682518591C451C58311C4C044C52C
:100A4000CFC54484D14607868F485189C50FD05001
:100A5000888F9897C6448D0386474892C642918FE7
:100A60004D800DC0DAC342C64380DDC1468580900B
:100A700005C74C4E834EC6104E874649C71D53913D
:100A8000988042834044828D175A801BDACB4606F9
:100A9000C89B0DC2D4C05617DAD454854504C71D6F
:100AA0008D1895DE40844646C8C653CA984085C511
:100AB000C544C7924650CA8F951D138700C79540FD
:100AC00092C0D64894C05287C05C4B4AC79A559C86
:100AD000551D93D54B98C6D9D5C64084D218C5D0DC
:100AE00042C65591D58D48C8C05408CA9552C4D243
:100AF0004688464B85C7C7C9C54D8492C69ACA5E0B
:100B000045C546879791C64545989056448F519163
:100B10009199C5478544C6C542050446851092D1C2
:100B20004405848F909340C680D342464691908D71
:100B3000804185C15DC61FC6CC5B1817C69BCC46DD
:100B40001C0046C64684C4D84DC65086909245C007
:100B50004505C61012C84F88C6C7D14EC78F179417
:100B6000C446919DD446D3154405C446D1919DD722
:100B7000C4CAD75D4D0446468692984592454B853A
:100B8000C890C75652C8D2CF49889211054A859756
:100B900080C151C34A914F0207CACAD052C8C74F39
:100BA0008B994B9091D9C7C4C65147925185D1CAF0
:100BB000C85288CACE51CBD1D308CBD1D6C040CCF5
:100BC0009253851351C853899151929087C75249C6
:100BD000C8D21085D2C450C7C6915CC553859090C9
:100BE00098501208C9CBD9D5C445008592514847C1
:100BF00093905091D045459190981304869843C0A6
:100C0000D554CA98C047C0D414448E85C5C451C8B1
:100C1000D754C7C4D193CE84E645478752C64E9178
:100C20004E80448598809900C1464603C200C8C3DF
:100C3000610E84D153C792CEC451C491D0CE8CE6FC
:100C400045809845A4054426054905C746DC8E57CE
:100C500040878E4F028446854E864F87C4D18ECE04
:100C60001B408FCE44C019CE5549CBC75302849147
:100C7000C75182C65486C7D4C6D1CE67C7C6478679
:100C800050074A8490C6D3DBC9DE5993C64991C642
:100C90004F0586C6D14BC7C68FC5CF9AD35B0ECF43
:100CA0004E90C5CE4E87978E4590C5D28B404ECC88
:100CB00049C44686C493CD44C5D04D488711C891D8
:100CC00047D58F9BC5D04BD3C55150861011C792C5
:100CD000158F0488D14EC9209156C7D6D0C0574829
:100CE000CB4F899595CF4E0FD00EC50DC4CFC65AA8
:100CF0008F0FD087C7C7D05148908F979500458DEB
:100D0000D1C5409080CF93D04EC7D1D640C79698DA
:100D100040C5C0C043C340924080989440918095A4
:100D200092434590C642C2D45AC682574313C380E9
:100D30005344D7C04083480647969680D1C5458422
:100D4000D8C3D344C591C5455DD18FC548C697C5A5
:100D500045558D974A91985746C8D75884D146C76C
:100D6000C6D197A4DD44D05B52908D17CDD8578E55
:100D7000C6D3CF8DD4C551C7C654C7D096C7CF4EA2
:100D8000C6C74E8616C7C7D1D04E4987C8109ACF5E
:100D90006844C996D0C544109CC06187C8C64FC876
:100DA0009411C747CF935787C84F4B8890471986F0
:100DB000C7D152C7C78F97C41102C5C0D4C15191C2
:100DC000A2C6CF94634CC5D0C5C5D04DC6CFCFD435
:100DD000529094C7450F91C75000C513C7C652879C
:100DE000C5C4CD4EC646CCC7938F0446914644C673
:100DF0000F91D1D656C8D1C5568B12875189CAC614
:100E0000D2C649CC91C7CBC4D65149CC1287135115
:100E10008913C5C4464C000000000000000000001B
:100E200000000000000000000000000000000000C2
:100E300000000000000000000200000000000001AF
:100E4000000000000000020000020000000000019D
:100E5000000000000002000000000200000000018D
:100E6000000000000200000000000002000000017D
:100E7000000000020000000000000000020000016D
:100E80000000020000000000000000000002040159
:100E90000402000000000000000000000004201018
:100EA0002004000000000000010101010101080010
:100EB0000801010101010100000000000004804060
:100EC0008004000000000000000000000002040197
:100ED0000402000000000000000000000200000109
:100EE00000000200000000000000000200000001FD
:100EF00000000002000000000000020000000001ED
:100F000000000000020000000002000000000001DC
:100F100000000000000200000200000000000001CC
:100F200000000000000002EFF10F11F010FF01DFE0
:100F3000E11F21EE0EF21200208004A259FBF800FE
:100F400004040C0D1424FDFFFFFFBDFFFFBFFFFFD6
:100F5000FFFFFFFFFFFFFFFFFFFFFFFFFFFFFFFFA1
:100F6000FFFFFFFFFFFFFFFFFFFFFFFFFFFFFFFF91
:100F7000FFFFFFFFFFFFFFFFFFFFFFFFFFFFFFFF81
:100F8000FFFFFFFFFFFFFFFFFFFFFFFFFFFFFFFF71
:100F9000FFFFFFFFFFFFFFFFFFFFFFFFFFFFFFFF61
:100FA000FFFFFFFFFFFFFFFFFFFFFFFFFFFFFFFF51
:100FB000FFFFFFFFFFFFFEFFFFFFDEFFFFDF000180
:100FC000010303050900EFF0F1FF010F101100000C
:100FD000000000000000DC00DB00D000CF00860035
:100FE0008F008700850054005800550056004200CD
:100FF000470048004F003E004500450042004100C8
:101000004E004C003A000000000000000000BE004E
:10101000EB00F9000501F5000A0120011D010201A4
:1010200023012F0132011101230130013301080195
:101030001C0126012901FD0013011A012201FA00F9
:1010400001010F011301EA00FD00FB0000010C018A
:1010500010010C0114011101270124011F011C01C1
:101060002A012E012C011F012601310138011B012B
:1010700026012D0136011D01270130013001150126
:101080002B01240124010B01170110011701E001BC
:10109000E201E901EE01E101E601EE01EA01D6011A
:1010A000E001E501E401D301D601E501E101C90157
:1010B000D401DB01DB01C101CF01D401D401BA01AC
:1010C000CB01D401D601C701CB01D901DD016403F5
:1010D000750389038903700371038E038E037C03F8
:1010E00082038F03970376037803890388037003D1
:1010F0007A037F0380036E0376037E037A0358032B
:1011000066037D0377035F035D0364037703DEFFFC
:10111000F8FFF2FFEBFF00000D00110009000300D3
:10112000190018000900F5FF0E0012000E00EBFF79
:10113000FEFF0B000C00F0FF010007000800F0FFAD
:10114000FFFFFFFFFDFFE0FFF8FFECFFEDFF0C00EE
:1011500011000D000E0007000A000A000A001B0023
:1011600016000E000F001E001200090003001A00F6
:1011700017000D0007000400FFFF040009000F0026
:10118000060007003500A0FFD5FFF7FFFBFF0700B3
:1011900005000D000A000D0009000A000300000010
:1011A000FFFF010001005FFFC9FFDFFFEEFFF5FF5A
:1011B000F9FFFEFFFEFF030007000A001000140005
:1011C00020001E002B0011000700E7FF040019009B
:1011D00013000D00070004000300F8FFFAFFF3FFFF
:1011E000F2FFF2FFEEFF883111241FBECFEFDAE0ED
:1011F000DEBFCDBF11E0A0E0B1E0EEEBFFE602C044
:1012000005900D92A033B107D9F728E0A0E3B1E033
:1012100001C01D92AF3DB207E1F718E0C4EFD8E07E
:1012200004C02197FE010E94D737C33FD107C9F7F9
:101230000E949D310C94DD370C9400008F929F9298
:10124000BF92CF92DF92EF92FF920F931F93CF93B3
:10125000DF93EC01DC010AE815E091E09617D8F580
:101260001296BC90129713967C911397F801819176
:101270008F01292F422F50E0FA01E857FA4F7F01E2
:10128000FA01EE0FFF1F4F018C0E9D1E47575A4F5C
:10129000F7013081381784F46401F2E0CF1AD108E5
:1012A000F601C080D180F401D182C082F701308183
:1012B000FA0130832150F1F630E0F901EE0FFF1F03
:1012C000EC0FFD1FB082718327573A4FF9018083DD
:1012D0009F5F1296C3CFDF91CF911F910F91FF9027
:1012E000EF90DF90CF90BF909F908F900895E7E4AC
:1012F000F2E0A0E0B4E000800EBC8111012C119757
:10130000A0FDFDCF0192B9F70DB4089592E0960FBC
:101310004AE0460F4917E9F0292F30E0F901E85774
:10132000FA4F508157FF13C0295D3A4F462F42951F
:101330004695469543706F5F640FD9016C93808327
:10134000E82FF0E0E95BFB4F9083892F08959F5FC2
:10135000E1CF80E00895E62FF0E0E65CFA4F90815F
:1013600091509083292F30E0F901E95DFA4F460F43
:10137000408328573A4FF9018083E82FF0E0E95B7A
:10138000FB4F9083892F08956F927F928F929F9247
:10139000AF92BF92CF92DF92EF92FF920F931F9383
:1013A000CF93DF93CDB7DEB7C054D1090FB6F89411
:1013B000DEBF0FBECDBFE091EC0545E0E49FF0013C
:1013C0001124E052FB4FE48054E080E05E1508F009
:1013D000C1C0FE013196DF01BE016F5B7F4F1192EC
:1013E000E617F707E1F730E020E0F12C80E055E068
:1013F000C52E922FD22E2E150CF064C04091EC0514
:1014000024170CF092C050E0421B530BC49EF00115
:10141000C59EF00D1124E052FB4FB080E1818E2E6D
:101420008B18F80CF0E0AF01495B5B4F3A01FA0111
:101430009080492D50E08A01005211090A0F1B1FAC
:10144000F801A080A80CA0820B2D10E0095B1B4FB7
:10145000F8019082F301108248575A4FFA01B08286
:10146000F1106DC08D0147E454E0F801B1908F0197
:10147000BB20B9F0FA01EF59FE4FE081EB0DE7FD1B
:101480005CC0F0E0E95BFB4FE081EE2309F455C05E
:10149000F0E0E95DFA4FB080FA01F395E081BE1209
:1014A0004CC04F5F5F4F60177107F9F641E090FF46
:1014B00046C0442309F443C08F5F813009F43FC024
:1014C00091E09D0D915050E040E0692F092E000CF5
:1014D000770B35E0F32E97FD3DC02091EC05921778
:1014E0008CF530E0FB01E41BF50B2E1B3F0BF29E4D
:1014F000F001F39EF00D1124E052FB4F2081318169
:10150000E22FF0E0E95BFB4F2081032F10E0095B45
:101510001B4FD8012C931082E22FF0E0E857FA4FCE
:1015200030834F5F5F4F9150D6CFE22FE41BF0E046
:10153000EE0FFF1FE150F84F70CF40E0B8CF2F5FA4
:101540003F4F57CFE92FE21BF0E0EE0FFF1FE150B6
:10155000F84FD4CFC05CDF4F0FB6F894DEBF0FBE9C
:10156000CDBFDF91CF911F910F91FF90EF90DF9052
:10157000CF90BF90AF909F908F907F906F90089585
:10158000E0E6E827F0E0E857FA4F9081911115C0A6
:10159000282F30E0F901E857FA4F4081442331F118
:1015A00092E0980F865F891751F0E92FF0E0E85735
:1015B000FA4F50819F5F57FDF6CF80E00895453088
:1015C000A8F04630D1F7275C3A4FF901208180E03E
:1015D000921799F3E92FF0E0E857FA4F308137FD81
:1015E00003C08111EBCF81E09F5FF2CF81E00895CE
:1015F00080912E010E94C00A811104C080912D01AA
:101600000C94C00A0895DF92EF92FF920F931F93FC
:10161000CF93DF93E091FA0730E63E273093FA0745
:10162000682F6777592F5777A52FB0E0A95BBB4F7D
:101630004C91C091EC052FEF2C0F2093EC0505E0A9
:10164000C09FE0011124C052DB4F2A81C22FD0E09D
:10165000782F7078F92FF8787F2B09F448C097FF1E
:1016600062C0842F90E08C01095D1A4FF8017081EF
:10167000E72FE770F0E0E254F04FD490E32EF12C26
:10168000F701E857FA4F70817F5F7D197083F80189
:10169000108288579A4F3FEFFC0130838091FA0700
:1016A00090E0FC01E75CFA4F3081FC014317A0F5A4
:1016B000E75CFA4F832F815080838091FA0792E094
:1016C000980F3AE0380F391791F0092F0052110B9B
:1016D000095B1A4FF8017081711123C031E0380F96
:1016E0008295869586958370830F8083492F222368
:1016F00089F1C95DDA4FE881E770F0E0E254F04F1C
:10170000E491C091FA0780E6C827D0E0C857DA4FC5
:101710008881E80FE8831EC0E65CFA4F80818F5F06
:10172000CBCF9F5FD0CF8E0108571A4F93FF3AC09F
:10173000561740F58CEF860FE82FF0E0E95BFB4F82
:101740002083EFEFE60FF0E0E95BFB4F1082E8014A
:10175000888320E0E62FF0E0E95BFB4F4083E42F35
:10176000F0E0E857FA4F60832C93E22FF0E0E8575F
:10177000FA4F5083DF91CF911F910F91FF90EF901F
:10178000DF90089583E0860FE82FF0E0E95BFB4FE0
:101790002083E1E0E60FF0E0E95BFB4F1082F80107
:1017A0008083D7CF87FFA3CF80E3850F831BC82F0C
:1017B000D0E0C95BDB4F2883E8018883F0E0E8577D
:1017C000FA4F80818F5FECCF80E0E82FF0E0982F18
:1017D0009878A7E2B1E011F0A8E2B1E0E95BFB4F35
:1017E0009C9190838F3F11F08F5FEFCFE7E4F5E09E
:1017F000119285E0E838F807D9F7E8E8F5E08FEFCF
:10180000819395E0E83EF907D9F780E68093870554
:101810009AE29093590590E490935A059AE4909334
:10182000790580937A051092EC051092E3041092EA
:10183000E4041092E0041092E1041092E20480E2C9
:101840008093FA071092A8051092C80508954F9248
:101850005F926F927F928F929F92AF92BF92CF9240
:10186000DF92EF92FF920F931F93CF93DF930E942B
:10187000E40B81E090E09093FE078093FD071092C7
:10188000FC071092FB07C0E610912E01D0912D01AC
:10189000612F8C2F0E9486096D2F80EB8C0F0E9488
:1018A0008609CF5FC836A1F707E414E0C0E0D12C69
:1018B00050902E0190902A01C0902B016090290138
:1018C0007C2C892CD0912D01492D6D2F8C2F0E94BD
:1018D000AB098D2F90E09C01275C3A4F5901F9012B
:1018E000208181E0820F808383E0482E4D0E822F7D
:1018F00090E0FC01E95DFA4F408288579A4F31E051
:101900003C0FFC013083F80121834C2D6D2F82E0C8
:101910008C0F0E94AB09462D6D2F83E08C0F0E9427
:10192000AB0921E02D0F822F90E0FC01E95DFA4F19
:1019300037E03D0F308388579A4F34E03C0FFC016D
:101940003083F8012483472D6D2F85E08C0F0E9492
:10195000AB09F501208181E0820F8083822F90E026
:10196000FC01E95DFA4F408288579A4F36E03C0F00
:10197000FC013083F8012683482D6D2F87E08C0F02
:101980000E94AB09C05900591F4FF1E0DF1222C07D
:1019900087E28093C8058093A805E091EC0525E0D7
:1019A000E29FF0011124E052FB4F83E6838384E041
:1019B0008183DF91CF911F910F91FF90EF90DF9086
:1019C000CF90BF90AF909F908F907F906F905F90DF
:1019D0004F900895DD24D394D52D76CF482F862FB0
:1019E000642F607647704330D9F020F4413078F4AA
:1019F00080E008954730B8F14730D1F791E0960F75
:101A0000292F30E0F901E95DFA4F695F20C0E62F28
:101A1000F0E0E857FA4F90819F5F90830C9486091D
:101A2000262F30E0F901E857FA4F90819D5F9083AF
:101A30002E503109F901E95BFA4F908141E0490FDD
:101A40004083292F30E0F901E95DFA4F6D5F608333
:101A500028573A4FF9018083E82FF0E0E95BFB4F0C
:101A60009083892F0895E42FF0E0E254F04FE49141
:101A7000A62FB0E0A857BA4F9C91E90FEC930C94B5
:101A8000AB09962F282F22952F70362F32953F7055
:101A9000321337C0242F861708F58F5FE82FF0E048
:101AA000E95BFB4F90819923C1F368132AC02F5F34
:101AB000E22FF0E0E95BFB4FE081EE23C1F3809180
:101AC000FA078E23F1F4F0E0E95DFA4FE081E77068
:101AD000F0E0E95CF04F8081817008958150E82F3B
:101AE000F0E0E95BFB4F20812223C1F3841309C09E
:101AF0009150E92FF0E0E95BFB4FE081EE23C1F369
:101B0000DECF80E00895FC0180914602882311F128
:101B10003FB7F89482E08093E9002091F200822F91
:101B200090E01816190614F481E090E0882339F04B
:101B3000289844E6409345024091F10040832223D7
:101B400039F02091F200211103C02BE62093E80028
:101B50003FBF08958FEF9FEF08952FB7F89483E06C
:101B60008093E9009091E800892F807295FF04C06E
:101B70009091F20080E4891B2FBF089580913D026F
:101B800081110DC082E08093390284E080933A0293
:101B900010923C0210923B0281E080933D0289E367
:101BA00092E00895CF93DF931F92CDB7DEB769839C
:101BB000DC01ED91FC910280F381E02D41E050E0E9
:101BC000BE016F5F7F4F09950F90DF91CF91089510
:101BD00083E08093E9008091F200882319F08AE382
:101BE0008093E80008950E94AD0D90E00895CF9392
:101BF000DF931F92CDB7DEB7FC018485958597FDF5
:101C000008C02FEF3FEF358724870F90DF91CF91EA
:101C10000895CE0101960E94830D019719F48981E0
:101C200090E0F3CF8FEF9FEFF0CF0F931F93CF9301
:101C3000DF931F92CDB7DEB78C01FC0184859585BB
:101C400097FF0BC0CE0101960E94830D019771F49E
:101C5000898190E0F80195878487F80184859585CE
:101C60000F90DF91CF911F910F9108958FEF9FEF0C
:101C7000F1CFFC018485958597FD0BC09FB7F89443
:101C800082E08093E9008091F2009FBF90E001968E
:101C900008959FB7F89482E08093E9008091F20064
:101CA0009FBF90E008954091E3015091E40120919D
:101CB000E1013091E20142175307B4F49091E8003A
:101CC0009570E1F39091E80092FD19C08093F100C6
:101CD0008091E3019091E40101968F739927892BFC
:101CE00019F48EEF8093E8008091E3019091E40174
:101CF00001969093E4018093E30181E0089580E0F0
:101D00000895EF92FF920F931F93CF93DF93F82ED6
:101D1000192FE62E042F81E0860F880F0E94530EA4
:101D200083E00E94530ECF2DD12FEC0EFD2EF11C1F
:101D3000CE15DF05B9F007FF13C0FE0184910E94A4
:101D4000530E182F80E00E94530E8123219681119B
:101D5000EFCFDF91CF911F910F91FF90EF900895FA
:101D60008881EDCF81E0F5CFDF92EF92FF920F9364
:101D70001F93CF93DF93D82E8A01EB017B01E40EF2
:101D8000F51ECE15DF0559F0D7FE12C0FE01849175
:101D90000E94530E21968111F4CF0FEF1FEFC8015F
:101DA000DF91CF911F910F91FF90EF90DF900895F9
:101DB0008881EECF0F931F93CF93DF931F92CDB700
:101DC000DEB782E0898342E450E063E478E080E8B3
:101DD0000E94B40E0E94BE0DDC0112960D911C9162
:101DE0000115110589F0D801ED91FC910280F38174
:101DF000E02DBE016F5F7F4FC801099597FD04C0BC
:101E0000F80100851185ECCF89810F90DF91CF918A
:101E10001F910F910895615030F02091F100FC0165
:101E200020830196F8CF289884E680934502089590
:101E30003FB7F8948091490190914A01A0914B01DC
:101E4000B0914C0126B5A89B05C02F3F19F0019613
:101E5000A11DB11D3FBFBA2FA92F982F8827BC0104
:101E6000CD01620F711D811D911D42E0660F771F2C
:101E7000881F991F4A95D1F708958F929F92AF922C
:101E8000BF92CF92DF92EF92FF926B017C010E9492
:101E9000180F4B015C01C114D104E104F104B9F045
:101EA0000E94180F681979098A099B09683E7340D6
:101EB0008105910580F321E0C21AD108E108F108FB
:101EC00088EE880E83E0981EA11CB11CE4CFFF9021
:101ED000EF90DF90CF90BF90AF909F908F9008953C
:101EE00065E070E080E090E00C943D0F8F929F924F
:101EF000AF92BF92CF92DF92EF92FF920F931F9318
:101F0000CF93DF936C017B018A0180910B018823C1
:101F100009F45CC080914602882309F457C080917F
:101F2000E80180FF05C08091E00082608093E000BE
:101F3000E801B12C8AEFA82E93E0892E2AE3922E95
:101F4000209711F4BB20D9F10E94AD0D81110AC078
:101F5000AA94AA20D9F161E070E080E090E00E94AC
:101F60003D0FEECF8C171D0611F00CF08C2F9FB794
:101F7000F8948092E9002091E80025FD02C09FBFFF
:101F8000DFCF282F30E0C21BD30BF701815020F0A8
:101F900041914093F100FACFE20EF31EBB2021F0F5
:101FA0009092E800B12CEBCF8091E80085FDE7CF5F
:101FB0009092E800BB24B394209709F3F3CF5D9887
:101FC00084E68093E701101611063CF081E090E072
:101FD000F6019383828310E000E0C801DF91CF9186
:101FE0001F910F91FF90EF90DF90CF90BF90AF9037
:101FF0009F908F9008958FB18095807F669B8860B9
:102000001C9B846008958EBD00000DB407FEFDCFBB
:1020100008955C9808955C9A089590E1699FB001D5
:10202000112480FD03C0719561957109CB0108955C
:10203000282F30E083FB882780F996E03595279597
:102040009A95E1F72270822B8D5F08958F929F926F
:10205000AF92BF92CF92DF92EF92FF920F931F93B6
:10206000CF93DF93A091EC0525E0A29FF00111240E
:10207000E052FB4FAF5FA093EC05A29FD00111246B
:10208000A052BB4F238113962C931397248114964F
:102090002C9314978C9311969C931197382F392B6E
:1020A000387899F4E82FF0E0E95BFB4F4091FA07AC
:1020B0003EEF341B4081340F383038F0E92FF0E028
:1020C000E95BFB4F30812F5F311120E014962C9398
:1020D0001497382F3777292F2777D22E432F50E0A8
:1020E0008A01095B1B4FF80120816D2D70E0FB0117
:1020F000E95BFB4F7F01C080CC2DD0E0CC20A1F06C
:10210000FE01E95DFA4FE081E770F0E0E254F04F44
:102110009490A090FA07F0E6AF26B12CF501E857AD
:10212000FA4F8080891880821296CC9212974A5B6F
:10213000504FFA014491FB01EA5BF04FE491E42334
:1021400013964C911397E4231396EC931397592FFE
:102150005878482F4078452BA1F197FF61C0A22EF7
:10216000B12C0E941810F501E95BFB4FDF01A05272
:10217000BF4F1C92EF5BFE4F9FEF90834091FA0799
:10218000A42FB0E0833009F43CC0A65CBA4FEC91B8
:102190002FEF2E0F2C93E22FF0E0E95DFA4F909194
:1021A000FA07980F9083E82FF0E0E254F04FE491A3
:1021B000A091FA07B0E0A857BA4F8C918150E80F70
:1021C000EC93F7012083F8011082E22FF0E0E8574A
:1021D000FA4FD082C857DA4F8FEF88838091FA0781
:1021E00090E689278093FA07DF91CF911F910F9195
:1021F000FF90EF90DF90CF90BF90AF909F908F9027
:102200000895FD01E75CFA4F2081922F9F5F908334
:10221000E22FF0E0E95DFA4F9091FA079D5FC2CF9F
:1022200093FF2AC0D316D8F4ECEFE30FF0E0BF0120
:10223000695B7B4FFB01408112964C9312973150A2
:10224000832F90E0895B9B4FFC014083FB01108250
:102250001296EC91F0E0E857FA4F3083B2CFE3E00A
:10226000E30FF0E0BF01695B7B4FFB0140811296F9
:102270004C9312973F5FE4CF87FFA3CF4091FA07BB
:102280008D2D841B805D90E0895B9B4FFC0130812C
:1022900012963C931082A32FB0E0A857BA4F8FEF4D
:1022A0008C9380E6E42FE827F0E0E857FA4F80812E
:1022B0008150808386CF2091400130E02095309579
:1022C0004091410150E02423352390E02823392315
:1022D00081E0232B09F480E00895CF93C82F0E945A
:1022E000FB0F209141018227E8E3F1E050E040E05C
:1022F00031E090E07AEF682F632359F160816F5FDE
:102300006C1700F56083330F4F5F5F4F3196483095
:10231000510589F7922790934101E0E3F1E081E0D4
:1023200046E9392F382321F030813150A1F0308334
:10233000880F319631E0E833F30799F72093400195
:10234000CF9108951082932BDA01A05DBE4F7C934C
:10235000DACF1082D8CF4083382F30953F602323C7
:10236000E7CFCF93DF9380E591E047E454E0DA01D3
:1023700030E020E0ED91EE23B9F0F0E0E95DFA4FB6
:10238000EC01C20FD31F608168832F5F3F4F28305D
:10239000310581F70896405F5F4F21E08039920751
:1023A00031F7DF91CF910895ECE0F1E0E9CFCF93E1
:1023B000C82F0E94091081E20E94031080E40E944D
:1023C00003108FE70E9403100E940B108C2FCF91F7
:1023D0000C947709CF93C82F0E94091081E20E94C4
:1023E000031080E00E9403108FE30E9403100E94FC
:1023F0000B108C2FCF910C947709DB01FC012491F9
:102400002C933196E4911196EC931197FC0132963E
:10241000E4911296EC931297FC013396E491139693
:10242000EC931397FC013496E4911496EC93149773
:10243000FC013596E4911596EC9315970696FC01F0
:10244000849116968C930895CF92DF92EF92FF922B
:102450000F931F93CF93DF9387E0E82E07E412E0FA
:1024600097E0D92ECD2CCE18E801F12C8091900167
:102470008823A1F1ED2DEF198E2D28E0829FC00158
:102480001124E80FF92FF11DE05BFE4F208122237C
:1024900051F1822F877090E025FF23C00197D89ECD
:1024A0009001D99E300D1124C901855A9C4FBE015F
:1024B0000E94FD112896F39488E0F812D7CF005CB3
:1024C0001F4FEA942FEFE212CDCFDF91CF911F91F2
:1024D0000F91FF90EF90DF90CF9008958C2DEF2D0E
:1024E000CCCF0596DCCF8C2D8F0D80FDE3CFBE01C8
:1024F00082E693E0DDCF98E0899FF0011124E07C33
:10250000F770E40FF11DE95BFD4F982F97702FEFE7
:1025100030E001C0220F9A95EAF79081922B9083C8
:10252000E05CFF4F887F885F70E06F5F7F4F9FEFB9
:10253000885F8617170609F024F49083E05CFF4F4C
:10254000F7CF6770772781E090E001C0880F6A9528
:10255000EAF781509081892B80830895282F277076
:1025600091E001C0990F2A95EAF728E0829FF001D7
:102570001124E07CF770E60FF11DE95BFD4F461773
:1025800038F08191DF011197892B8C936F5FF7CF22
:10259000089598E0899FF0011124E07CF770E60F20
:1025A000F11DE95BFD4F877021E030E001C0220F93
:1025B0008A95EAF78081822B80830895CF92DF92FB
:1025C000EF92FF920F931F93CF93DF93D82F062F95
:1025D000C42F122FFF24FA94F20EEE24E394E60E99
:1025E0004F2D6E2D0E94AE124F2D6E2D8C2F0E94FE
:1025F000AE12DD24DA94DC0ECC24C394CD0E402F31
:102600006D2D8C2D0E947B12412F6D2D8C2D0E94E3
:102610007B120E5F602F8C2D0E94C9121250612F09
:102620008C2D0E94C912602F8D2D0E94C912612F1E
:102630008D2D0E94C912DE5F6E2D8D2F0E94C91252
:102640006F2D8D2F0E94C912C2506E2D8C2F0E94AB
:10265000C9126F2D8C2FDF91CF911F910F91FF9099
:10266000EF90DF90CF900C94C912FF920F931F93BD
:10267000CF93DF93182F062FF42ED0E0C0E0FE0199
:10268000EF53FD4F8491810FFE013896EF71FF27C4
:10269000EF53FD4F64918F3360F4600F6F3348F454
:1026A000F11005C09091430196959C0F92FD0E94F8
:1026B000C9122196C032D10511F7DF91CF911F9138
:1026C0000F91FF900895AF92BF92CF92DF92EF9259
:1026D000FF920F931F93CF93DF9338E0439FF00156
:1026E0001124E07CF7702E0F3F2F311D295B3D4FE9
:1026F0004770042FEFE1F0E0DF01042E01C0AA0FC4
:102700000A94EAF758E0541BC52F02C0F595E795E7
:102710005A95E2F77C01BA2EB0949E2F90956623CD
:1027200009F43FC0F70141917F01442309F439C006
:1027300089EDC82E81E0D82E4150F601141634F4EC
:10274000A491B0E01196CA0EDB1EF6CF7491A22EB2
:10275000D90131968A2F8A19871740F0472F50E008
:102760004F5F5F4F240F351F6150D9CF449150E028
:102770008C918B216A01002E01C0CC0C0A94EAF7DF
:102780008C298D93DF968C91DF9789230C2E02C0C4
:10279000559547950A94E2F7482BDF964C93DF97BF
:1027A000D8CFDF91CF911F910F91FF90EF90DF90E5
:1027B000CF90BF90AF900895CF93DF93CDB7DEB7A2
:1027C00060970FB6F894DEBF0FBECDBF613108F041
:1027D00060E1FC01CE010196DC0134913D9331961C
:1027E0003A2F381B3617C8F30E94631360960FB652
:1027F000F894DEBF0FBECDBFDF91CF9108952EE3D9
:102800004EE060E080E00E94DE128091D9018111EB
:1028100007C082EF93E02CE045E069E00C94DC1304
:1028200088E193E0F8CFAF92BF92CF92DF92EF9220
:10283000FF920F931F93CF93DF9300D000D0CDB7BB
:10284000DEB7F62E082F10E046E0159507954A955D
:10285000E1F7D02E4CE0460F2EE360E08F2D0E9472
:10286000DE12C0904D018091DF019091E00145970B
:1028700041F10C1126C092E0A92EAF0C23E0E22E0C
:102880003AE0B32EBF0C6E2D8A2D0E94C9126E2D18
:102890008B2D0E94C912E394E3948DE3E812F3CFE9
:1028A00083E0E82EBE2CBF0C62E08B2D0E94C91283
:1028B0006CE38B2D0E94C912E394E394EBE0EE12DB
:1028C000F1CFF4E0FF0E0A561E4FF80182818823F3
:1028D00009F43FC08081845E8C8324E04F2D61E049
:1028E000CE0104960E9463138AE289838EE28A8372
:1028F000F8018281825F8B832BE04F2D63E0CE0154
:1029000001960E946313DC100AC0F80182818823BB
:1029100031F08091DF019091E001089759F08CE34C
:1029200093E0D11002C082E493E023E24F2D65E0F2
:102930000E94DC130F900F900F900F90DF91CF91BA
:102940001F910F91FF90EF90DF90CF90BF90AF90CD
:10295000089524E04F2D65E081EE92E00E94DC13A3
:10296000D2CFDC019C91992319F1E9EDF1E091506E
:1029700098F41196952F6150D9F08D918823C1F06C
:10298000E9EDF1E0815080F04491242F30E02F5F99
:102990003F4FE20FF31FF6CF5491252F30E02F5F0A
:1029A0003F4FE20FF31FE3CF81E0840F980FE3CF97
:1029B000892F08952F923F924F925F926F927F924C
:1029C0008F929F92AF92BF92CF92DF92EF92FF923F
:1029D0000F931F93CF93DF93CDB7DEB728970FB632
:1029E000F894DEBF0FBECDBF1091900160E01111D1
:1029F00001C062E380912E010E94131462E3111161
:102A000001C060E080912D010E941314A090FB078B
:102A1000B090FC073FEFA31AB30A6501D694C794A0
:102A200046E0C416D10408F054C086E090E08C194A
:102A30009D09982F990F990F891B880F9CE2592E99
:102A4000580E312CBEE02B2E8DE0851508F0BAC053
:102A5000E32CF12C6090FB077090FC07E614F70460
:102A600008F0B0C0F701EA56FE4F42A4F701EE0F9E
:102A7000FF1FE150F84F8081918119821A821B82D9
:102A80001C821D821E821F821886292F277093FFA9
:102A90002CC0298298E19A832B82243010F49C83E5
:102AA0002D82E62467E0CE010196E0FE71C00E940F
:102AB000B11486958D3008F08CE02AE1281B452D55
:102AC00067E0CE0101960E946313FAEF5F0E339424
:102AD000BBCF8091DF019091E0010CE2502E459731
:102AE00009F0AFCF16E2512EACCF342D37708E01E6
:102AF0000F5F1F4F332321F039838E010E5F1F4F6D
:102B000044FE07C0382F37703A5FD8013C930F5FFF
:102B10001F4F45FE0AC0382F377732953F70B6E118
:102B2000B31BF801B0830F5F1F4F43FE05C0E9E1FF
:102B3000D801EC930F5F1F4F2A5FD8012C93292FE8
:102B4000277722952F70B6E1B21BF801B1834801B7
:102B500097FD09C0F2E08F0E911C46FE13C03AE1CA
:102B6000F40130839ECF33E0830E911C0E94181035
:102B70008350990BFC01EB5DFC4FE491D801129658
:102B8000EC93EBCF47FE8DCFEBE1D401EC9389CFF3
:102B90000E94B114482F50E09A012F5F3F4F3595A6
:102BA000279594E3921B292F490F511D413451055C
:102BB00014F020E4281B452D67E0CE0101960E9409
:102BC000631385CF8090DF019090E001A5E18A1624
:102BD0009104E9F410914201163041F420E04CE2F6
:102BE00069E08FE093E00E94DC1311C0123078F0AE
:102BF00020E04CE265E08AE093E00E94DC131330B1
:102C000009F46CC008F059C0123009F461C0809119
:102C1000FB079091FC07892B09F480C02AE030E083
:102C2000C601B9010E94C3375EE0F52EF80EC5015A
:102C300064E170E00E94C337CB01B9010E94C33741
:102C40000EE0080FC50168EC70E00E94C3377EE01B
:102C5000E72EE60EB6E0CB16D10408F04BC046E0F6
:102C600050E04C195D09842F880F880F142F181B12
:102C7000110F145D45E3D42E1E3008F44FC0E982D5
:102C80000A83FB82FEE0EF1204C0D9820E3009F401
:102C9000DA8220E0412F63E0CE0101960E946313A7
:102CA0003EE0F31233C00E3069F5E31689F1EA9481
:102CB00037E1F32E07E11650DFCF1430A9F01530BD
:102CC00009F0A5CF26E14CE269E087EE92E08BCFD8
:102CD00026E14CE268E082E093E085CF26E14CE219
:102CE0006AE088EF92E07FCF26E14CE268E080EF77
:102CF00092E079CF1CE2E5E18E16910409F0BACF9B
:102D000016E2B8CF015027E1F22ED5CFFA94D3CFF7
:102D100087E1F82E07E197E1E92ECDCF28960FB68F
:102D2000F894DEBF0FBECDBFDF91CF911F910F9101
:102D3000FF90EF90DF90CF90BF90AF909F908F90DB
:102D40007F906F905F904F903F902F90089528E074
:102D500047E452E0DA01BC01605C7F4FFC01349132
:102D60003D933196E617F707D1F7405C5F4F21504E
:102D700080589F4F2111EECF08950F931F93CF934B
:102D80008C01FC0180819181FC01E255F74FC491D7
:102D90000196F80191838083C7FF05C0C8010E9496
:102DA000BD168111FBCFC6FBCC27C0F981E08C2773
:102DB000CF911F910F910895DC012D913C911197B6
:102DC0001296EC91E20FF32FF11DED50FF4F808131
:102DD0000895AF92BF92CF92DF92EF92FF920F933E
:102DE0001F93CF93DF9300D01F92CDB7DEB7E0E6FD
:102DF000C82ECE26AC2DB0E0A857BA4F9C919111A9
:102E000030C08B01E82E282F30E0F901E857FA4F47
:102E1000F080F11018C06091F9078091EC050E94D4
:102E20000D10F8019183808381E00F900F900F9037
:102E3000DF91CF911F910F91FF90EF90DF90CF9096
:102E4000BF90AF90089592E0980F8AE08E0D891799
:102E500051F0E92FF0E0E857FA4F40819F5F47FDBE
:102E6000F6CF80E0E2CFF3E0FF15A8F694E0F91684
:102E7000C1F3275C3A4FF9019081D12C981749F0A2
:102E8000E82FF0E0E857FA4F208127FFD3948F5FB7
:102E9000F5CF87E494E09A838983EB82CE01019693
:102EA0000E94DC169B81905E30E09817E9F0482F75
:102EB00050E0FA01E857FA4F608167FD13C0495DA1
:102EC0005A4FFA0120812770243061F4262F229571
:102ED0002F70262720FBAA24A0F8B12CA5014F5F54
:102EE0005F4F342B8F5FE1CFF6E0FF1204C082E02A
:102EF000D81609F490CFE394EE2DF0E0E857FA4F9E
:102F00008081C394EC2DF0E0E857FA4F2081422FE6
:102F100050E064E0559547956A95E1F72770682F72
:102F200062956F70641B062E000C770B77FF03C051
:102F30007195619571098770821B082E000C990BA1
:102F400097FF03C0919581959109680FF6E0FF12F4
:102F500023C081E0D81220C030FD18C08EE0821B53
:102F6000240F841B281708F4822F94E0F99E900107
:102F70001124820F932F911D880F991F861B910991
:102F800034E0880F991F3A95E1F74BCF842F821BCD
:102F9000295F241B895FE6CF440F87E090E0841B04
:102FA000910997FF03C0919581959109220F47E000
:102FB00050E0421B510957FF03C0519541955109FB
:102FC000840FD3CF635070E09B0143E0220F331F87
:102FD0004A95E1F7287056E0660F771F5A95E1F79A
:102FE0006078622BFC0120812777622B6083089533
:102FF0000F931F93CF93DF9300D0CDB7DEB7FC01C3
:103000007A8369839A81892F877782958F70841755
:1030100059F0CF010296718360830F900F90DF917A
:10302000CF911F910F9108958F0190689A836091BD
:103030002901CE0101960E94E217FC018081918155
:10304000F8019183808360912C01CE0101960E944A
:10305000E217FC0180819181F80193838283609162
:103060002A01CE0101960E94E217FC018081918124
:10307000F8019583848360912B01CE0101960E9413
:10308000E217FC01C801089620813181F8013783DD
:103090002683C3CF882329F090E483FF90E28770D2
:1030A000890F0895DC01EC91F0E0E95CF04F849128
:1030B000E62F660FFF0BE155F14FE491E82381E025
:1030C00009F480E00895FC0180818770843018F055
:1030D00097E0981B892F0895CF93FC01208130E061
:1030E00044E0359527954A95E1F7C7E0C21B611189
:1030F00001C0C22FCC0FCC0F0E9463188C0FCF9150
:1031000008952F923F924F925F926F927F928F928B
:103110009F92AF92BF92CF92DF92EF92FF920F9366
:103120001F93CF93DF93CDB7DEB764970FB6F894B4
:10313000DEBF0FBECDBFC82E81E06C2C6826A0E498
:10314000DA2E80E0CC2019F0F0E2DF2E87E0FE01DD
:1031500031965E012BE0A20EB11C4F018193EA155E
:10316000FB05E1F780E65D2C582642E0450D5AE06C
:10317000550DE12C541709F1E42FF0E0E857FA4F10
:10318000808187FD18C0E394282F30E0E4E0359576
:103190002795EA95E1F7877090E00196F401E80F32
:1031A000F91F8081CC2021F0821720F4282F02C043
:1031B0002817E0F320834F5FDDCF30ED3D0D388BD6
:1031C00062E0762E7D0C7AE0372E3D0C10E000E0B8
:1031D0008EEF482E4D18371409F48AC0E72DF0E021
:1031E000E857FA4FF080FB86F7FC53C0E394662D56
:1031F000C5010E946C18E82FF0E0EE0FFF1FE253AC
:10320000F04F85919491080F191FC5010E94631812
:10321000EF2D6889E61BAFEFAE0FB0E0A95BBB4FA7
:103220009C91940D983048F0EF5FF0E0E95BFB4F24
:103230009081940D40E0983058F4E82FF0E0EE0FC4
:10324000FF1FE25BFE4E25913491020F131F41E0F8
:103250009F2D92959F702F2D277030E0F401E20F83
:10326000F31F5081C11017C0951798F0E2E0F0E00D
:10327000EC0FFD1FE20FF31F5081951750F0E3E0B4
:10328000F0E0EC0FFD1F2E0F3F1FF9012081921778
:10329000B8F47394A0CF5917E0F3E2E0F0E0EC0F3C
:1032A000FD1FE20FF31F5081591798F363E070E0A0
:1032B0006C0F7D1F260F371FF9012081291748F356
:1032C000E82FF0E0E053FF4FCF01880F991FFC017A
:1032D000E253F04F25913491020F131F4423C9F29A
:1032E000FC01EA52F04F85919491080F191FD1CF3C
:1032F000FEE0FE1510F42FE0E22EED2DF0E0E75C8D
:10330000FA4F20812C8BF12C3CEEE30EF11CEE0CDD
:10331000FF1CB7016253704F1B01198A8EEF482EB4
:103320004D1898EC892E91E1992E7C89771609F435
:1033300048C0E72DF0E0E857FA4FC080CB86C7FCC5
:103340003EC0662DC5010E946C18E82FF0E0EE0F1C
:10335000FF1FE25FFF4E85919491080F191F888926
:10336000C81AEFEFEC0DF0E0E95BFB4F8081840DB4
:10337000883048F0C394EC2DF0E0E95BFB4F80818E
:10338000840D883068F4C5010E946318E82FF0E0CE
:10339000EE0FFF1FEA5AFE4E85919491080F191FF8
:1033A000F10185919491080F191F9989992329F0AA
:1033B000F40185919491080F191FE1E0E98B739452
:1033C000B4CFE1E0E50DF0E0E857FA4F408087E444
:1033D00094E09C878B87DD86C5010E94DC16C82E91
:1033E0008D85805E888B97012255304F1901812C85
:1033F000712C7AECA72E71E1B72E38893C1509F4AF
:1034000091C08C2D90E0BC01695B7B4F7B01FB017F
:10341000EF5BFE4F90809F8697FC75C0662DCE01B6
:103420000F960E946C18F701E052FF4FE081E770A1
:10343000EE87E450EE2EF12CF70155E0EE0FFF1F62
:103440005A95E1F7E05CFF4FE80FF11DEE0FFF1F0B
:10345000E253F04F85919491080F191F642D69195B
:10346000CE010E960E945218882349F0F701EE0F04
:10347000FF1FE258FE4E85919491080F191F8E850B
:10348000982F937009F441C0853061F4F101859162
:103490009491080F191F772059F1F50185919491A6
:1034A000080F191F892D8F708F8728E0FF24F39450
:1034B0009F85E92FF0E0E95BFB4F80818250382F38
:1034C0003D19383000F18519883008F4F12C905FEF
:1034D0009F87215069F7CE010F960E946318E82F4D
:1034E000F0E0F11008C0EE0FFF1FEA59FE4E07C0D2
:1034F00077247394D7CFEE0FFF1FE25AFE4E8591CB
:103500009491080F191FC39478CF892D82958F70DD
:103510009826792D71707A8B1B8A8A899B890196EE
:10352000882AF1CF83E0881206C0E4E8F1E18591B2
:103530009491080F191FE1E0ED0DF0E0E857FA4F04
:10354000F080FE86662DCE010E960E946C18E82F44
:10355000F0E0EE0FFF1FE25FFE4E85919491080FA1
:10356000191FE6ECFFE04EEC5FE090E034918F2D08
:10357000830FA82FB0E0A95BBB4F2C912D2111F434
:103580009F5FF6CF31964E175F0781F79C3008F0AA
:103590009CE0E92FF0E0EE0FFF1FE453FE4E859113
:1035A0009491800F911F64960FB6F894DEBF0FBE02
:1035B000CDBFDF91CF911F910F91FF90EF90DF90E2
:1035C000CF90BF90AF909F908F907F906F905F90C3
:1035D0004F903F902F9008950F931F93CF93DF93B9
:1035E00000D0CDB7DEB78091EE079091EF0701963E
:1035F0009093EF078093EE07BE016F5F7F4F80913E
:10360000FA070E94E916811128C09091FA07BE01BD
:103610006F5F7F4F80E689270E94E916811116C0EF
:1036200081E00E9481188C0180E00E94811898013D
:10363000281B390BC901E6ECF1E12091FA0725FFBF
:1036400015C025913491820F931F05C089819A81FD
:103650009195819591099A83898389819A810F90A7
:103660000F90DF91CF911F910F9108952591349183
:10367000281B390B3A832983F0CFDC01EC910E2E05
:10368000000CFF0BEF59FE4F84910895DF92EF92EB
:10369000FF920F931F93CF93DF93CDB7DEB72A9797
:1036A0000FB6F894DEBF0FBECDBFF82E8091FA079B
:1036B00020E62827E0EDEF0DE20FAFEFAE0FB0E010
:1036C000A95BBB4F1C919EEF981B312F390F3830EF
:1036D00088F580E2821B8295869587709F2D929552
:1036E0009F70891709F4FDC080E01123A9F0EF2D28
:1036F000F0E0E95BFB4FE081F0E0E95DFA4FE0814B
:10370000E770F0E0E15CF04F0491080F8091EC0568
:103710008C3009F0E8C0802F2A960FB6F894DEBFEF
:103720000FBECDBFDF91CF911F910F91FF90EF9012
:10373000DF900895EF5FF0E0E95BFB4F1081910FA0
:10374000983038F21AE0180FE82FF0E0E75CFA4FF3
:103750000081101789F0E12FF0E0E857FA4F8081DF
:1037600087FD08C06F2D681B8CE291E00E94521803
:103770008111BACF1F5FEDCF8091FA0727E434E0C3
:103780003A8329838B83CE0101960E94DC16182F81
:103790008B8130E2E32EE80EE11651F1812F90E0AB
:1037A000FC01E857FA4F008107FD20C0895D9A4F60
:1037B000FC01808187708430C9F4DF2CD01A6D2D14
:1037C0008BE291E00E945218882381F0DC82CE01C6
:1037D00004960E943D1B080FE02FF0E0E95BFB4FD1
:1037E00090819923C1F30F1509F47ECF1F5FD4CFC9
:1037F0008091FA0727E434E03D832C838E83CE0149
:1038000004960E94DC16182F8E8120E2E22EE80E2C
:10381000E11651F1812F90E0FC01E857FA4F008149
:1038200007FD20C0895D9A4FFC018081877085303B
:10383000C9F4DF2CD01A6D2D8AE291E00E94521853
:10384000882381F0DF82CE0107960E943D1B080F7E
:10385000E02FF0E0E95BFB4F90819923C1F30F1556
:1038600009F442CF1F5FD4CF8091FA0727E434E0F8
:1038700038872F838987CE0107960E94DC16182F80
:10388000898590E2E92EE80EE11609F441C0812F06
:1038900090E0FC01E857FA4F008107FD20C0895DE8
:1038A0009A4FFC01808187708630C9F4DF2CD01AD2
:1038B0006D2D89E291E00E945218882381F0DA860A
:1038C000CE010A960E943D1B080FE02FF0E0E95B55
:1038D000FB4F90819923C1F30F1509F405CF1F5FAA
:1038E000D3CF80E202CFA12FB0E0A857BA4F1C91EE
:1038F000812F9F2D0E9426108F2D0E94461BE82E9F
:10390000812F9F2D0E94030B802F8E1987FF04CFDC
:1039100080E002CFCF93DF930E94EC1AEC01E0919C
:10392000EC0585E0E89FF0011124E052FB4F828115
:10393000882349F0818187770E94461B99E189029B
:10394000C00DD11D1124CE01DF91CF9108952F928A
:103950003F924F925F926F927F928F929F92AF921F
:10396000BF92CF92DF92EF92FF920F931F93CF936C
:10397000DF9300D000D01F92CDB7DEB78C016C0171
:10398000DC01612C412C6616F9F011968C9111978F
:1039900087FD08C0E82FE777F0E0E95BFB4F9081F7
:1039A000992379F0E42DF0E0EE0FFF1FE00FF11FF7
:1039B0009C912081318111963C932E939083818339
:1039C000439463941296DFCF2EE1241510F47FE127
:1039D000472E69E8262E65E0362E78015101712CBC
:1039E000741409F43CC0D7018D909C9011971196E6
:1039F000BC91BB83B7FF23C0F70180810E941810E0
:103A0000E82FF0E0E15CF04FE4915CEF552E5E0EA4
:103A10008091EC058C3059F0C4010E9426108B81F6
:103A200087770E94461B581AC4010E94030BD501D8
:103A30005D925D017394B2E0EB0EF11CD1CFEB818E
:103A4000E777F0E0E95BFB4FE081F0E0E95DFA4FFA
:103A5000E081E770F0E0E15CF04F5490D9CF672D42
:103A6000C8010E941E0929E835E0962C90E080E00C
:103A7000B12C4DEB5EEFFA01E754F4407F01B7142F
:103A8000D8F5D9014D919D0147FF33C0962C971869
:103A9000D801A80FB91FF701E20FF31FE90DF11DBF
:103AA000EE0FFF1FAF01400F511F5D834C83AB2C06
:103AB000BC01615071098C9011965C901197EC815A
:103AC000FD8141915191FD83EC834D935D93AF0155
:103AD00042505109FA0180824C815D81481B590B8B
:103AE000460F571FFA015082A3947A10E4CF9B0C23
:103AF0007B2CB3940296C3CF711064C0FEE1792C85
:103B0000F91510F42FE1722E812C871409F456C098
:103B10006090FA0766FA662460F8D601EC91E777C0
:103B2000EA83F0E0E95BFB4FE081F0E0E95DFA4F0A
:103B3000A080BA2DB770AB2EAA94AA94E5E0EA153E
:103B400008F4A12CD60111968C9187778983662D74
:103B5000CE0101960E946C18B0E2AB9E5001112478
:103B6000F501E80FF11DEE0FFF1FE253F04FE59056
:103B7000F490662DCE0102960E946C18F501E80FB4
:103B8000F11DEE0FFF1FE253F04F85919491F70165
:103B9000E81BF90BCF018138FFEF9F0714F481E890
:103BA0009FEF8038910514F08FE790E0D1018D935D
:103BB0001D018394B2E0CB0ED11CA7CF682DC801A4
:103BC0000E941E09892D0F900F900F900F900F905B
:103BD000DF91CF911F910F91FF90EF90DF90CF90E9
:103BE000BF90AF909F908F907F906F905F904F901D
:103BF0003F902F9008959F92AF92BF92CF92DF9205
:103C0000EF92FF920F931F93CF93DF9300D000D0DA
:103C10001F92CDB7DEB7A0E3A60FA81B9EEF981B9F
:103C20002FEF2A0FE22FF0E0E95BFB4F2081290FF5
:103C3000283008F48CC0AF5FB0E0A95BBB4F2C917B
:103C4000920F983008F483C0062F182F2AE0E22E36
:103C5000E80EE82FF0E0E75CFA4FD080ED1489F031
:103C6000EE2DF0E0E857FA4F608167FD08C0601B59
:103C70008CE291E00E945218F82E811146C0E39424
:103C8000EDCF802F90E09C01295B3B4F6901F9014A
:103C9000908080E6808387E494E09A8389831B8305
:103CA000CE0101960E94DC16B82E8B8190E2A92EDF
:103CB000A80EAB14E1F18B2D90E0FC01E857FA4F10
:103CC000E080E7FE02C0B394F4CF895D9A4FFC0117
:103CD0008081602F6E196D8387708C83CE0104966E
:103CE0000E945218F82E882371F3CE0105960E9487
:103CF0003D1BE80EEE2DF0E0E95BFB4F9081992330
:103D0000C1F30E11E0CFF60190828F2D0F900F902E
:103D10000F900F900F90DF91CF911F910F91FF9017
:103D2000EF90DF90CF90BF90AF909F900895F601F5
:103D300090821F5FE12FF0E0E857FA4F8081602FFB
:103D4000681B86E291E00E945218F82EDECFFF2415
:103D5000F394DBCF2F923F924F925F926F927F92BC
:103D60008F929F92AF92BF92CF92DF92EF92FF928B
:103D70000F931F93CF93DF93CDB7DEB7AC970FB6FA
:103D8000F894DEBF0FBECDBF1C01F090FA0780E6AD
:103D90005F2C582610ED612E6F0C80E28F1990E099
:103DA0009C0105E0359527950A95E1F73CA32BA3E7
:103DB0004BA086E028272BA731E03F0D3DA3832FA2
:103DC00090E0AC0148575A4F5FA34EA3DA01EC9044
:103DD0001092ED0787E494E09A8F898F5B8ECE0175
:103DE00049960E94DC16982E8B8D805E8CA78101EF
:103DF000DD24DA94C12CBCA5B91509F4CEC0892DF7
:103E000090E0FC01E857FA4FA080A7FC2EC0895D26
:103E10009A4FDC01EC91E7709A2D9E199F8FF0E08C
:103E2000E95CF04F8491E92F990FFF0BE155F14FB9
:103E3000E491E823E370C9F0CE014F960E943D1B48
:103E4000782EBE2CB70CEB2DF0E0F9A7E8A7E95BC4
:103E5000FB4F90819923B1F3AB1009C08091ED071E
:103E60008E5F8093ED077AA6DA2C9394C4CF492F06
:103E700050E0FA01E95DFA4F8081282F20762F115A
:103E8000F4CFF7E00D3D1F0708F0C3C38B2C870C60
:103E9000E82DF0E0E95BFB4F20812223C1F3A8105D
:103EA000E4CF2C2D30E0EDE0F0E0EC0FFD1FE20F51
:103EB000F31FB08248575A4FEFEFDA01EC93C394E7
:103EC00041E050E04C0F5D1F240F351FD9019C933A
:103ED0008770833008F043C0A62CAB0C872D877009
:103EE00041F5EA2DF0E0E95BFB4F80818111BDCF08
:103EF000442D6B2D7A2DC8010E94F8178C01A60C59
:103F0000EA2DF0E0E95BFB4F80818111AECF88A5FF
:103F100099A5B4E095958795BA95E1F7BBA5B81337
:103F2000A4CF8B2D8860F8018083A1820E5F1F4F84
:103F30009CCF8FEF8A0D881207C0442D6B2D782DF2
:103F4000C8010E94F8178C01A3948A108ECF442DCB
:103F50006B2D782DC8010E94F8178C0186CF8C8FAD
:103F60006F8DCE014C960E945218882309F47DCFA4
:103F7000D8019B2D970DFD013296BC9211969C9312
:103F8000DF018912F7CF8B2D8F018719E81609F40D
:103F90006CCFB08281833296F7CFE091EC0525E0BB
:103FA000E29FF0011124E052FB4F81818777B82E08
:103FB0009E2D981BE82FF0E0E95BFB4FE081F0E0DD
:103FC000E95DFA4FE081E770F0E0E95CF04F849141
:103FD000E92F092E000CFF0BE155F14FE491E82386
:103FE000EC7F69F08091ED078F5F8093ED079195ED
:103FF0009C8FCE014C960E943D1B8AA7DB2C8091A2
:10400000ED07882309F46FC0833008F092C2E09175
:10401000EC0535E0E39FF0011124E052FB4F818174
:10402000877781018D1509F4C7C08091ED0780FF66
:1040300069C1BD2CB6186FEF6B0DE62FF0E0E95BA0
:10404000FB4FE0818EEFE82EEF188E2F8E0D88301B
:1040500060F4F0E0E857FA4F808187FD06C04BA17D
:104060007D2DC8010E94F8178C0161E06B0DE62FD1
:10407000F0E0E95BFB4FE0818E2F8E0D883060F41D
:10408000F0E0E857FA4F808187FD06C04BA17D2DF7
:10409000C8010E94F8178C01F7E00D3D1F0708F0DA
:1040A000B8C2EAE0EE2EEF0CEF2DF0E0E75CFA4F3D
:1040B000A080AE1409F4E2C0EE2DF0E0E857FA4F0C
:1040C000B080B7FC0EC06D2D6B198CE291E00E94A0
:1040D0005218882331F0D801BC921196DC920E5F01
:1040E0001F4FE394E6CF47E00D3D140708F091C25F
:1040F000E091EC0555E0E59FF0011124E052FB4F03
:10410000A3808F2D8295869587708A2171F16FEF3C
:104110006E0DE62FF0E0E95BFB4F8081811125C039
:10412000AEEFBA2EBE0CEB2DF0E0E95BFB4F8081C9
:1041300081111BC0EDEFEE0DF0E0E95BFB4F8081DC
:10414000811113C0852D0E94FB1D81110EC06B2DA6
:10415000852D0E94FB1D811108C0D801EC928B2D8A
:10416000886011968C930E5F1F4FAF2029F161E09C
:104170006E0DE62FF0E0E95BFB4F808181111CC0E2
:10418000F2E0BF2EBE0CEB2DF0E0E95BFB4F80812F
:10419000811112C0852D0E94FB1D81110DC06B2D58
:1041A000852D0E94FB1D811107C0F801E0828B2D37
:1041B000886081830E5F1F4FF7E00D3D1F0708F0F9
:1041C00028C2E091EC0525E0E29FF0011124E052C5
:1041D000FB4F808183FF29CF81818777B82E809123
:1041E000ED07882311F0DB1020CF88248A948B0CF4
:1041F000E82DF0E0E95BFB4FE0818EEFA82EAF18D1
:104200008E2F8A0D8830B8F4F0E0E857FA4F80819D
:1042100087FD11C04B2D682D8E2D0E94410D8111FF
:104220000AC0882D8068D8018C93862D8B0D11963D
:104230008C930E5F1F4F882483948B0CE82DF0E045
:10424000E95BFB4FE0818E2F8A0D883008F0EDCEC0
:10425000F0E0E857FA4F808187FDE7CE482D6B2DBF
:104260008E2D0E94410D8111E0CE882D8068F801CD
:104270008083B60CB1820E5F1F4FD7CEB7E00D3DE5
:104280001B0708F0C6C187E494E09D8F8C8FFE8EDB
:10429000CE014C960E94DC16E82E8E8D70E2A72E81
:1042A000A80EAE1409F446C18E2D90E0FC01E8572B
:1042B000FA4FB080B7FC24C0895D9A4FFC01808121
:1042C0006D2D6B196AA387708F8FCE014F960E9458
:1042D00052188823A9F0CE0182960E943D1B9B2D87
:1042E000980FE92FF0E0E95BFB4F20812223C1F317
:1042F000D91206C0D801BC921196DC920E5F1F4FF6
:10430000E394CFCFB7E0053B1B0708F082C152E032
:10431000A52EAF0C6AE0762E7F0C7A1409F44FC0FC
:10432000EA2DF0E0E857FA4FB080B7FC46C0862C83
:104330008B0C7FEF780DE72FF0E0E95BFB4F80817E
:104340008076581206C0442D6B2DC8010E94F817C4
:104350008C0171E0780DE72FF0E0E95BFB4F808185
:104360008076581206C0442D6B2DC8010E94F817A4
:104370008C01E82DF0E0E95BFB4F808181111DC0CD
:10438000442D6B2D782DC8010E94F8178C01860CE6
:10439000E82DF0E0E95BFB4F808181110EC08B2D91
:1043A00082958F70EBA58E1308C08B2D8860D80185
:1043B0008C9311968C920E5F1F4FA394AECFEF2D6E
:1043C000F0E0E75CFA4F408127E33FE04A1519F13E
:1043D000EA2DF0E0E857FA4F908197FD1AC0B7E058
:1043E0000D3D1B0708F015C1EFE2FFE08491890F36
:1043F000A82FB0E0A95BBB4F5C915F2131F4D801DD
:104400009C9311968C930E5F1F4F31962E173F078A
:1044100069F7A394DBCF87E494E098A38F8FF9A288
:10442000CE014F960E94DC1669A1605E2BE23FE050
:104430004FE25FE0681709F451C0E82FF0E0DF01B8
:10444000A857BA4F9C9197FD47C0B7E0053B1B07A3
:1044500008F0DFC0E95DFA4F7081E72FE370E9F003
:10446000EBE2FFE0A4903801B92E8301BA0CAB2D2A
:10447000B0E0A95BBB4F8C90A82DAF2151F4A2E016
:104480006A0E711CD8019C931196BC92882069F326
:10449000830131964E175F0729F770FD1DC0E7E2D3
:1044A000FFE0B4904801792F84017B0DA72FB0E085
:1044B000A95BBB4FAC90AA2DAF2151F4B2E08B0E9B
:1044C000911CD8019C9311967C93AA2069F38401D6
:1044D00031962E173F0729F78F5FACCF8091ED07FC
:1044E000882341F15101A016B10620F5F501818123
:1044F0008777882E8E198C8FCE014C960E943D1B9B
:10450000FAA58F1779F0F80192918291D5018D93D8
:104510009C9395012250310959018F0132E0A30E7D
:10452000B11CE1CF9E2D980F8916C1F3D912FBCF94
:10453000EACF81014DED241647E0340608F069C04A
:10454000AEA1BFA1DC90AD2CB12CF501E95BFB4F16
:10455000108236EC832E3FE0932E4EEC642E4FE01B
:10456000742EF401E490ED0CEE2DF0E0E95BFB4FCE
:1045700080818F2161F46E2D852D0E94FB1D81119C
:1045800006C0D801DC921196EC920E5F1F4FBFEF70
:104590008B1A9B0A6814790421F7F501E95BFB4F3C
:1045A0002DA12083CC20B9F0CA948C2D90E0E1E0BD
:1045B000F0E0EC0FFD1FE80FF91FE081F0E0E85795
:1045C000FA4F4DE050E04C0F5D1F840F951FDC014A
:1045D0008C918083E7CFC8018219930995958795BF
:1045E000AC960FB6F894DEBF0FBECDBFDF91CF9172
:1045F0001F910F91FF90EF90DF90CF90BF90AF9001
:104600009F908F907F906F905F904F903F902F90F2
:104610000895CC20B9F0CA948C2D90E0E1E0F0E050
:10462000EC0FFD1FE80FF91FE081F0E0E857FA4FAB
:104630002DE030E02C0F3D1F820F931FDC018C9189
:104640008083E7CF8FEFCCCFCF938DEE95E00E94A4
:10465000AA1EC82FE091EC0585E0E89FF001112427
:10466000E052FB4F84818436B8F40E94F80A81112D
:1046700015C00E94C409823098F49091ED07CC23B4
:1046800031F081E0911101C080E0CF91089586E082
:104690009111FBCF85E0F9CF82E0F7CF84E0F5CF31
:1046A00083E0F3CF8091FA0790E026E09595879517
:1046B0002A95E1F780934D010E94242380934201C3
:1046C00008950E94522380914201823038F085E1A2
:1046D00090E09093E0018093DF01089590914D0167
:1046E000E92FF0E0EA56FE4F8281882349F121E06C
:1046F000911120E0A22FB0E0AA56BE4F12969C91D5
:10470000911102C02093900198E09093F50790E0FA
:10471000880F991F079621E030E002C0220F331F57
:104720008A95E2F73093F1072093F007E481F0E0F7
:10473000EE5DFC4FE491E093F90788E090E0C9CF8B
:1047400081E0911101C080E08093900184E090E0CD
:10475000C0CF1F93CF93DF93182FD92F8091FB07E2
:104760009091FC0701969093FC078093FB07809142
:10477000FD079091FE07892B69F18DEE95E00E946F
:10478000AA1EC82FC1508C2F90E0FC01EE0FFF1F16
:10479000E351FA4F20812113F5CF880F991FFC01B7
:1047A000E251FA4F8081D813EDCF8091FD079091AF
:1047B000FE07FC01E255F74FE4912E2F2F73C21331
:1047C0002FC00196E7FD02C090E080E09093FE07C5
:1047D0008093FD07EDEDF8E09291829193838283BF
:1047E00087E0EF3FF807C1F71093FF07D093000869
:1047F000812F9D2F0E942610E091EC0585E0E89F17
:10480000F0011124E052FB4F1092EC05A0EEB4E051
:1048100001900D928A95E1F7DF91CF911F91089554
:104820008DEF97E00E94BD168111BFCF1092FE0759
:104830001092FD07CFCF0F931F93CF93DF9310926A
:10484000FE071092FD07C091FB07D091FC07CD3009
:10485000D10580F40C2F0E94270C10E0CC0FDD1F37
:10486000C350D84F101730F4888199810E94A92332
:104870001F5FF8CFDF91CF911F910F9108958F9215
:104880009F92AF92BF92CF92DF92EF92FF920F93DF
:104890001F93CF93DF938091FB079091FC07892BA7
:1048A00009F4B4C08091D801882309F4AFC0909076
:1048B000FF07F0900008292D2777C22ECF2DC7774C
:1048C000E12CF7FC04C0E92CEE1CEE24EE1C3F2D7D
:1048D0003770D32E0C2D10E0F3FEA5C083E0E1E08D
:1048E000831708F4EFEFEC0FF0E0E95BFB4F8081FA
:1048F000D0E0B0909E01A0909D012091FB073091E7
:10490000FC07215031093093FC072093FB07EFEFA0
:10491000F7E0228133812193319328E0ED3DF207C6
:10492000C1F78093E70481E08093EC05892D9F2DEA
:104930000E94030BA092E304B092E404F7FC12C0BF
:1049400097FE10C0C80164E0959587956A95E1F7D8
:104950008295807F8D0D8093E1048091E0048860D2
:104960008093E0040E941B248091D80181508093A1
:10497000D801ECE9F1E083819481A5818193919341
:10498000A19331E0ED3BF307B1F7E0ECF1E087ED07
:1049900091E0218121938E179F07D9F710924F0143
:1049A000C093DE01C0929501F801E95BFB4FE08105
:1049B000F0E0E95DFA4F80818093D9018D2D90E080
:1049C000EE2089F0D80144E0B595A7954A95E1F726
:1049D00053E0AA0FBB1F5A95E1F7A80FB91FA05BC0
:1049E000BE4FDC93D0E0EC2FF0E024E0F595E795A6
:1049F0002A95E1F733E0EE0FFF1F3A95E1F7E80F54
:104A0000F91FE05BFE4FD08310924301DF91CF91FD
:104A10001F910F91FF90EF90DF90CF90BF90AF90DC
:104A20009F908F900895D0919C016C2FEE2091F073
:104A3000B801E4E075956795EA95E1F76295607FC6
:104A4000630F8091FA07D82FD295D695D695D3705B
:104A50008F5FD80F862F90E0FC01E95BFB4F5F0171
:104A600080808D2F0E94EE0CE82FF0E0E857FA4F7F
:104A70009FEF9083F50180823CCF6F927F928F925F
:104A80009F92AF92BF92CF92DF92EF92FF920F93DD
:104A90001F93CF93DF938C016B017A010E94AA1EB2
:104AA000782E8FEF781210C0DF91CF911F910F9168
:104AB000FF90EF90DF90CF90BF90AF909F908F903E
:104AC0007F906F900C948A1C71102BC08091EC0524
:104AD0009091ED07992399F0C82FD0E0DD57CE01D2
:104AE000DF91CF911F910F91FF90EF90DF90CF90CA
:104AF000BF90AF909F908F907F906F90089560913E
:104B0000F907DF91CF911F910F91FF90EF90DF9008
:104B1000CF90BF90AF909F908F907F906F900C94AC
:104B20000D100E94EC1A8E159F050CF07BC0EC0155
:104B30008C159D050CF4E60180E0E82FF0E0EE0F07
:104B4000FF1FE00FF11F9181A92FA777B0E0A95BAC
:104B5000BB4F2C91211111C097FD0FC0908197FD83
:104B60000CC07A948150A72DB0E0AA0FBB1FA00FF4
:104B7000B11F2D913C91318320838F5F8715E8F21F
:104B8000672DC8010E94A71C872C912C880C991CAA
:104B9000800E911E612CC12C93E8D92EAA24BB242F
:104BA000AE18BF08671409F49ACFF801808191818B
:104BB0000E9426108091EC058C30C9F40E94EC1AFA
:104BC000919581959109C816D9060CF46C01F801EC
:104BD000808191810E94030BCC15DD050CF4E60168
:104BE0000E5F1F4FCE15DF05ECF46394DBCF809191
:104BF000F807811114C02091EE073091EF078091E2
:104C0000F0079091F1078217930748F04427552742
:104C10004C1B5D0BB501C4010E943D25D1CF90E036
:104C200080E0CECFE7015BCF5F926F927F928F9251
:104C30009F92AF92BF92CF92DF92EF92FF920F932B
:104C40001F93CF93DF938C016B015A01522EC091B9
:104C5000EC0585E0C89FF0011124E052FB4F8481F0
:104C60008436A0F06091F9078C2FDF91CF911F91CE
:104C70000F91FF90EF90DF90CF90BF90AF909F90FB
:104C80008F907F906F905F900C940D100E94F80AA7
:104C90008111E8CF0E94C409823028F06091F907A1
:104CA0008091EC05E2CF8091F8078111A7C0209197
:104CB000EE073091EF078091F0079091F10782178E
:104CC000930708F49BC08091EC05851538F18C3072
:104CD00089F4DF91CF911F910F91FF90EF90DF90BA
:104CE000CF90BF90AF909F908F907F906F905F908C
:104CF0000C94EC1AA501B601C801DF91CF911F9168
:104D00000F91FF90EF90DF90CF90BF90AF909F906A
:104D10008F907F906F905F900C943D25C8010E940A
:104D2000AA1E782EEFEF8E1311C0DF91CF911F9145
:104D30000F91FF90EF90DF90CF90BF90AF909F903A
:104D40008F907F906F905F900C948A1C81111DC092
:104D50008091EC059091ED079923A1F0C82FD0E048
:104D6000DD57CE01DF91CF911F910F91FF90EF9012
:104D7000DF90CF90BF90AF909F908F907F906F907B
:104D80005F9008956091F90770CF682FC8010E9465
:104D9000A71CE72CF12CEE0CFF1CE00EF11EC0E06E
:104DA000D3E8612C882499248A189B08F801808113
:104DB00091810E942610442755274C195D09252D05
:104DC000B401C7010E941426919581959109C817D5
:104DD000D9070CF4EC01F801808191810E94030B4A
:104DE000CC16DD060CF46E01CA14DB040CF0B9CF4E
:104DF00063940E5F1F4F7610D9CFB3CFD0E0C0E0E1
:104E0000B0CF0C94AD370F931F93CF93DF930AE18C
:104E100010E0CFEFDFEFC8010E9401279D2F9827F8
:104E2000892F82958F708927282F30E09C2FA90128
:104E3000542F44275295507F84279527E90175E028
:104E4000CC0FDD1F7A95E1F7C827D9270F5F1F4FD9
:104E50000E3F83E01807F9F6CE01DF91CF911F9145
:104E60000F9108951F920F920FB60F9211248F93F6
:104E70009F938091E1009091E100937F9093E100F6
:104E800083FF0FC01092E90091E09093EB00109225
:104E9000EC0092E39093ED001092460298E090931C
:104EA000F00082FF22C093E09093E9009091F2001D
:104EB000992319F09AE39093E8009091E7019923E0
:104EC00041F09091E70191509093E701911101C059
:104ED0005D9A90914502992341F09091450291503D
:104EE00090934502911101C0289A84FF18C08091C7
:104EF000E2008E7E81608093E2008091E1008F7EEF
:104F00008093E1008091E8018E7E80618093E801CA
:104F10009F918F910F900FBE0F901F90189580FF5B
:104F2000F7CF8091E2008E7E80618093E2008091D5
:104F3000E1008E7E8093E1008091E8018E7E8160A9
:104F4000E5CF1F920F920FB60F921124CF92DF92EE
:104F5000EF92FF920F931F932F933F934F935F9383
:104F60006F937F938F939F93AF93BF93EF93FF9331
:104F7000CF93DF93CDB7DEB76C97DEBFCDBF109276
:104F8000E9008091E80083FF25C068E0CE014596E6
:104F90000E940B0F82EF8093E8008D8987FF39C054
:104FA0009091E80090FFFCCF982F907609F034C1E3
:104FB0009E894F89588D2F89F88C911131C0803886
:104FC00061F58091E6018093F1001092F1008EEF7F
:104FD0008093E8006C960FB6F894DEBF0FBECDBF8D
:104FE000DF91CF91FF91EF91BF91AF919F918F9101
:104FF0007F916F915F914F913F912F911F910F91F1
:10500000FF90EF90DF90CF900F900FBE0F901F900A
:1050100018959EEF9093E800C7CF1092F100D5CF7E
:10502000913059F48111D3CF4130510581F68091EF
:10503000E6018D7F8093E601CACF933049F4811158
:10504000C6CF4130510519F68091E6018260F2CF5A
:10505000953041F48091E80080FFFCCF20682093D8
:10506000E300B5CF963009F0A9C00B8D1C8D22E06E
:105070001092E9001092E4011092E301F2122EC0A6
:105080001092E2011092E1010E94DA0E1F8299E073
:105090009983FA8291E09E8390EA98879AEF9987A4
:1050A0002091E3013091E401275F3F4F3C832B8344
:1050B0008D831092E9001092E4011092E3011093A5
:1050C000E2010093E10149E050E0BE016F5F7F4FD4
:1050D00080E00E94B40E0E94DA0E79CF1093E201B4
:1050E0000093E1010E94BE0DDC0112960D911C910E
:1050F0000115110509F451C1D801ED91FC9104800D
:10510000F581E02DBE016B5E7F4FC80109950097C8
:1051100009F03EC1F80100851185EACFF3E0FF12E6
:105120000EC08F89882309F440C0823061F440E8C2
:1051300067E087EA98E00E94810E811148CF81E202
:105140008093EB0047CF813029F440E86BE08BE996
:1051500098E0F1CF833099F70E94BE0DDC011296E2
:10516000ED90FC908E010F5F1F4F6801E114F10478
:1051700079F0D701ED91FC910680F781E02DB8011F
:10518000C7010995080F111DF701E084F184EECFE6
:10519000D8011C92F60101900020E9F73197BF0178
:1051A0006C197D0940E0C601C6CF65E878E0FB01D7
:1051B000449150E080E80E94B40E09CF973009F482
:1051C000BECF983021F481E08093F10000CF993078
:1051D00009F0FDCE837009F0B2CFEEE0F1E081E09E
:1051E00031E096E32191222371F08093E90030931E
:1051F000EB00DF0111972C912093EC009093ED00D0
:105200008F5F873079F78EE78093EA001092EA008B
:105210008F8980934602DBCE8B8D9C8D1092E900A6
:105220001092E4011092E3019093E2018093E10176
:10523000898D811192C08E899D89913A49F481327C
:1052400009F07DCF47E050E064E071E080E0B3CF4B
:10525000913209F074CF833269F48F89988DB0E070
:10526000A0E08093000190930101A0930201B0930C
:105270000301ADCE803269F48091E80082FFFCCF5B
:1052800067E084E091E00E940B0F8BEF8093E800D1
:105290009ECE823209F09BCE8F8980930B01EEEF78
:1052A000FFE7859194918B3F9C4D51F1E0E0F8E050
:1052B0008091040190910501A0910601B091070130
:1052C000803B9440A105B105F1F480910B0180FD74
:1052D0001AC0EE3F8AE0F80789F587E797E79183E0
:1052E0008083809160008093E50188E19BE00FB6A8
:1052F000F894A895809360000FBE9093600067CEED
:10530000EEEFFAE0D5CF808191818737974709F09A
:105310005ECEA89580916000886180936000809146
:10532000E50180936000EE3F2AE0F20789F080916A
:10533000FE0A9091FF0A9183808349CE80819181FA
:105340008737980751F29093FF0A8093FE0AC5CFE2
:105350001092FF0A1092FE0A3ACE0E94BE0DDC01A6
:1053600012960D911C910115110509F4E8CED80192
:10537000ED91FC910190F081E02DBE016B5E7F4FBD
:10538000C8010995811123CEF80100851185EBCF65
:10539000181619060CF41BCED2CEF1E0FF12BECEC9
:1053A00069E878E004CF1F920F920FB60F92112494
:1053B0002F933F938F939F93AF93BF93809145011A
:1053C00090914601A0914701B0914801309144016C
:1053D00023E0230F2D3758F50196A11DB11D209311
:1053E00044018093450190934601A0934701B093F7
:1053F00048018091490190914A01A0914B01B091DF
:105400004C010196A11DB11D8093490190934A0161
:10541000A0934B01B0934C01BF91AF919F918F919D
:105420003F912F910F900FBE0F901F90189526E877
:10543000230F0296A11DB11DD2CF1F920F920FB65E
:105440000F9211243F924F925F926F927F928F92B0
:105450009F92AF92BF92CF92DF92EF92FF920F9303
:105460001F932F933F934F935F936F937F938F93EC
:105470009F93AF93BF93EF93FF93CF93DF93CDB7FA
:10548000DEB76197DEBFCDBF0091DF011091E00173
:105490000631110508F0DAC1F801EF5AF54D0C9408
:1054A000D737672A762AA12AB32AC82BD32BD32B26
:1054B000532C632B742BC12CC12CC12CCA2DD72D7E
:1054C000152E732EC72E262C262CF22E362F86E371
:1054D00094E00E94A71680E00E94EA111092DE017B
:1054E00081E090E09093E0018093DF0186E794E013
:1054F0000E94A716E091DE01F0E0EE0FFF1FE65DCF
:10550000FC4F05911491CE0101969E012F5E3F4FF5
:10551000DC01A801481B590BFA01EA0FFB1FE491BB
:10552000ED932A173B07C1F760E10E94B1148695FD
:1055300024E1281B44E16FEFC8010E94DC1381E0E5
:1055400024C10E94241281E00E94EA111092DE011F
:105550001092980181E08093990183E090E090930C
:10556000E0018093DF012EE34EE060E080E00E94E6
:10557000DE122FE045E068E082E593E00E94DC1354
:1055800023E042E164E081E194E00E94DC1323E047
:105590004AE16AE088E493E00E94DC1323E042E2FF
:1055A00066E082E493E00E94DC1323E042E366E0DD
:1055B0008CE393E00E94DC1308E911E027E4E22E7B
:1055C00022E0F22E32E2532E9E012F5F3F4F6901FF
:1055D0004E0131E1830E911C4CE3442E3801D80179
:1055E000EC91F0E0EE0FFF1FEC5CFC4F8591949185
:1055F00022E2452D6FEF0E94DC13D8011296EC9148
:10560000F0E0EE0FFF1FE25DFC4FA590B490D601D5
:10561000C5018C199D09FC01EA0FFB1FE491ED9374
:105620008A169B06C1F760E1C6010E94B114242DC1
:10563000281B48E0450D6FEFC5010E94DC130F5F8A
:105640001F4FF301808181110DC0F701E05CFE4F17
:10565000970129593E4F86898575868B31962E177D
:105660003F07C9F7F0E15F0E20E8E20EF11C32E4DB
:105670005312B4CF8091DE01E82FF0E03296B6E00D
:10568000EE0FFF1FBA95E1F78823C1F09DE281304C
:10569000B1F09DE38330A9F0853099F081E2E80F05
:1056A000F11DE95BFD4F3EEF891708F048CF2191CE
:1056B000DF01119723272C938F5FF6CF93E182E0D0
:1056C000EECF85E1ECCF0E94241281E00E94EA1126
:1056D0000E94DA1480E00E94D71189E090E0909354
:1056E000E0018093DF01B2C080E00E946D1184E090
:1056F0000E945B11882319F081E08093F807909154
:105700004D01E92FF0E0EA56FE4F82818F5F880F4E
:105710004091EE075091EF0702C0569547958A9544
:10572000E2F781E0911180E09091900117E38913F5
:1057300001C015E0F12C09E1040F402F69E1812F30
:105740008F0D0E94AE12F39483E0F812F6CF49E376
:1057500069E18FEF810F0E94AE1249E369E183E0B6
:10576000810F0E94AE1202E0010F48E1602F812FED
:105770000E947B124AE3602F812F0E947B1281E0FE
:105780009091F807911101C080E00E94D7115EC08E
:105790000E94DA1481E00E94D71185E090E0909396
:1057A000E0018093DF010E9424128091DF0190913B
:1057B000E0010697B1F46091DE01862F8695887727
:1057C0006770660F660F660F90919001992331F014
:1057D00098E3A92FA81B8A2F961B692F41E00E94EE
:1057E0003513009193011091910140E0602F812FBA
:1057F0000E943513602F70E080919401282F30E0D3
:10580000A9014F5F5F4F6417750739F0620F731F6F
:105810006F5F7F4F75956795862F80939301812FDA
:1058200090E020919201422F50E0BA016F5F7F4FCC
:105830008617970731F0840F951F019695958795E8
:10584000282F2093910181E00E94EA118091430169
:105850008F5F8093430161960FB6F894DEBF0FBE51
:10586000CDBFDF91CF91FF91EF91BF91AF919F910C
:105870008F917F916F915F914F913F912F911F91E8
:105880000F91FF90EF90DF90CF90BF90AF909F90DF
:105890008F907F906F905F904F903F900F900FBED2
:1058A0000F901F9018950E942412E3EDF2E02AEF6A
:1058B00032E080818F7081932E173F07D1F7E3E1AB
:1058C000F3E08AE393E011928E179F07E1F7E3E597
:1058D000F3E02AE733E08081887F81932E173F072A
:1058E000D1F722E342E26CE084E10E94DE12809173
:1058F000FA0785FF44C080E090E0029627E0289FE9
:105900008001299F100D112467E173E0C801855AB9
:105910009C4F0E94FD116FE173E0C8018E599C4FAE
:105920000E94FD1167E273E0C80187599C4F0E94F5
:10593000FD116FE273E0C80180599C4F0E94FD1178
:105940006091D9016E5F660F660F660F80919301BB
:1059500090E0262F30E0A9014F5F5F4F8417950735
:1059600039F0BC01620F731F6F5F7F4F75956795AC
:105970006093930140E088E10E94351364CF86E094
:10598000BBCFF0904301F110ACC0E7E4F2E011921C
:10599000B4E0E734FB07D9F70E94DA1481E00E94F3
:1059A000D7110E942412FEE1FF1508F46CC060912B
:1059B000DE01A62FA770AA0FAA0FAA0F809195014A
:1059C000282F2770220F220F220F66956877869561
:1059D000887790919001992361F098E3392F3A1BD1
:1059E000A32FB92FB21B2B2FE92FE61B6E2F981B6D
:1059F000892FEF2DF0E0EA54FC4FE491F0E0861B94
:105A0000990B8E9FA0018F9F500D9E9F500D1124CA
:105A1000CA01809646E0969587954A95E1F7680F0A
:105A20002A1B330B2E9F40012F9F900C3E9F900C02
:105A30001124F0E28F0E911C56E0969487945A95AB
:105A4000E1F7A80D2091D901822F877090E025FF02
:105A50004EC0019727E0289FF001299FF00D1124E7
:105A6000CF01855A9C4F262F277038E0639FB001E5
:105A700011248A2E912C21113CC0680D791D695B7F
:105A80007D4F0E94FD1181E00E94EA118FE1F81222
:105A9000DDCE0A30110509F074C0E0914D01F0E04F
:105AA000EA56FE4F82818823C9F08091F2079091D7
:105AB000F3078E3AACEF9A070CF45BC08630BFEF69
:105AC0009B070CF458C0833523E092070CF055C0B7
:105AD0008B3F91050CF053C082E080830E946123CC
