:100000000C9430080C9458080C9458080C94580818
:100010000C9458080C9458080C9458080C945808E0
:100020000C9458080C9458080C946F260C94DE26F7
:100030000C9458080C9458080C9458080C945808C0
:100040000C9458080C9458080C9458080C945808B0
:100050000C9458080C9458080C9458080C941029C7
:100060000C9458080C9458080C9458080C94580890
:100070000C9458080C9458080C9458080C94580880
:100080000C945A290C9458080C9458080C9458084D
:100090000C9458080C9458080C9458080C94580860
:1000A0000C9458080C9458080C9458082503032DF8
:1000B0003025012600212D01312C2723012600297E
:1000C00026250127250327002A232E232A34110061
:1000D0002A232E232A3410002A232E232A340F0009
:1000E0002F01272D34242D2E2300EF0000000000C7
:1000F00000F0000000000000F10000EF0000000030
:1001000000F00000000000F100000000EF0000001F
:1001100000F000000000F1000000000000EF00000F
:1001200000F0000000F10000000000000000EF00FF
:1001300000F00000F100000000000000000000EFEF
:10014000DFF0E1F10000000000000000000000EE20
:10015000EFF0F1F2000000000000FFFFFFFFFFFFE3
:10016000FF00010101010101010000000000000E7B
:100170000F10111200000000000000000000000F2E
:100180001F102111000000000000000000000F00FF
:10019000001000001100000000000000000F00002F
:1001A0000010000000110000000000000F0000001F
:1001B00000100000000011000000000F000000000F
:1001C000001000000000001100000F0000000000FF
:1001D000001000000000000011041F02041F031F94
:1001E000150A031F051A030E191E031F041B03081B
:1001F000141C031F1408030C12120308141F030C11
:100200001A14021E050312150F031F0418030E1102
:100210000E03121F10031915120311150A03070408
:100220001F03171509030E150803011907030A1503
:100230000A0302150E0204040314081403040E0436
:10024000050A1F0A1F0A05190D0C0D1905110908C9
:100250000911050111101109050911101109050DE8
:100260001918190D030E1111031F041F031F151177
:10027000051F0204021F031E051E03011F01031FA9
:10028000110E050F100E100F03121509031F101089
:10029000031F050203111F11040E11110E0307188D
:1002A00007040F10100F040E11151D031F05010187
:1002B0000A03011502020000030000000404080400
:1002C00002222F242501002926252A23242526233E
:1002D00024252623032C252A03232B23262C262CF6
:1002E0002D01130E34242D2E2329270325283221F6
:1002F00022232105242526232A2D252734302524B1
:10030000230000104001020304053203F802BF007D
:10031000B500AC00C102D800D000C800022A2521D7
:10032000053228222C26233229262503263430257F
:10033000242301232834302524230000687C7C7C7E
:10034000680000001400140000181C4A7E7E7C70B7
:10035000204C7E377A4C20467C7E7C7E7C464364F3
:100360007D7E7D644344687A7F7A684400685444A3
:1003700054680018144A72424C70204C7221724C1E
:1003800020467C4644467C4643645D465D64434467
:10039000685A4F5A68440000000001020305070A2A
:1003A0000C1013161A1E22262A2D303436393B3DE6
:1003B0003E3F40404040F103E000D20304043025BA
:1003C0002423342B252F29232730252423342D2E95
:1003D000230329252E233430252423002125012120
:1003E000232A2D2E230328032C26233429252E23CC
:1003F00033022521050029252E2C013033282C26F7
:10040000222D2F2624252C01342423012F002A23DA
:10041000252E2334262D00000000000000000000DF
:1004200000000000000000000000000000000000CC
:100430000050F0F08000000000000000000000000C
:100440000000000000800000C42212CA3C000080AE
:100450006040808040000080402020C038060000BE
:100460008060000080600000C03008040402222484
:1004700018000080603826C0000000804020A06086
:1004800000000080702040800000008070204080CC
:10049000000000000000000000000000000000005C
:1004A000000000000000000000000000800100EAE1
:1004B000711AFF7E878383808080800000000000A7
:1004C0000000102020908D838181818F90908E81FB
:1004D000808C939088848E9190888E919088848E61
:1004E0009190888E9190888798A0A0A0A0A09090CD
:1004F00088948E8180808E91908884878A91909054
:1005000088848A959888949388848A959888949307
:100510008840402418000000000000000000000097
:100520000000000000000000001005421825D74818
:10053000B77FC9F7FEBFEB7F1F0F0300000000006D
:10054000000C1201010000000040A0F058E84040FB
:10055000E04000000000000000000000000000007B
:10056000000000000000000000000000000000008B
:10057000000000000000000000000000000000007B
:10058000000000000040E04040E858F0A0400000BB
:10059000000000000000000000000000000000005B
:1005A00000000000000000004000809002A1BC4B51
:1005B000ABBEEFBBFEFF9FF9F0C0C08000000000A3
:1005C0000000000000000000000000010302000025
:1005D000000000000080000080800080008000009B
:1005E00000800000800000808000008040008000CB
:1005F00000C00000C00000800000C000004000807B
:100600000000804000800000400203410080400064
:1006100000400080000000002A00500500B00004E7
:1006200051200880210890224008801240010A6968
:10063000DBBAFDFFFEFFC101158904A2084413487F
:10064000A4126C813248A01A6088523144A8116803
:10065000528134688132888016AA0896AB041AC782
:1006600028168BA41A87A80E92AD0A46B94E72D1ED
:100670002C52F10876E118D46330CC5132E4493081
:10068000D621E894032E548B158EA51906AE510E73
:1006900095228D1EA00B000050001400801400084D
:1006A00080020440020940060100124500806813E0
:1006B000EEFD37FFFFBFFFF8E0C318A44118A04AC2
:1006C000A800DA20886A9008E2300CE0110C500093
:1006D000850822870802AB04820906AA01068D2339
:1006E000028D22078C2207C9AE73915864B1906CB9
:1006F00051B0D429B0C83AE0115CE01174C810754B
:10070000C810F0060D238C0B220C4B02AD0A01AE73
:100710000209A60A1186000009000228000A100238
:1007200004100904002B0008030030C02C92E91DBE
:10073000F6ABDF7FEBFFDFF77FFFEEFCFCFAA000FC
:10074000628048224008A21008972208952A118644
:1007500058052A114E8932049D22095688132E907D
:100760000B14926D8A01608A44A01241A4484095FE
:100770002248806A00D22448836014C16802D025D0
:10078000806806398B1416A91517A8132E81182F07
:100790008219244B12140000A000005000001080A9
:1007A0000000200000801000802200045A0015562E
:1007B0004D15565D9F572DFFAF2BDFAE37CF6F1016
:1007C0009661118860128870821860429850229455
:1007D0005040B5006A9020CA30856810A268148223
:1007E000200C83540986290A84258B04A90A8621B2
:1007F0008D0AA10D9205288B45140AA10E022946E7
:1008000008937004897004D122885025D00228D022
:1008100002A950049160D5F08D14A1C881CFD9F1FF
:10082000AF2000080B0002020200000904000001D2
:100830000202000005240010010524010101042426
:100840000206052406000107058103100040090483
:100850000100020A0000000705020240000007052F
:1008600083024000000403090412010002EF0201A8
:100870004041233680000101020301417264756921
:100880006E6F204C4C430041726475626F79009129
:1008900005C78551479211920285828E5586474938
:1008A000858D0D454804888E184706C9000247CA41
:1008B0008E1547C95587084A88C745CA83D55582CA
:1008C000D55587D5040749CAC25582CAD355850272
:1008D00004858F0DC544D04D09CA90554B84C5463B
:1008E00087829954D255858402C85187C349C8CAA2
:1008F0005206879119C5044705C44588D245CA994F
:10090000D411044792D544855584951A5045CBD5CA
:100910005386C7D8488885024787D15B4A8BC75121
:10092000CC855307498292530587D39909CC5B1232
:10093000C54786D348C9D3D0C7528307C9D3D7D4B4
:100940005085119290855387C45389944ECB588813
:100950009418478658C80547CACB559104C849869C
:1009600048CB04C9528290D348C653858F8FCA4A58
:1009700090474A908F4DD0CD0546CACAD151849137
:10098000C688514A86C65188464B86468990978FBD
:10099000164113CA5A9094124807CB4991944ECBF2
:1009A0001857C65491D04E05CB905291D2474488E7
:1009B0009017C7C7519111C74A86C74FCBC7D312EB
:1009C000460BCC90934B11C5CA511186D34F8893D7
:1009D000C646860FC648C9C650CBD3D24587914577
:1009E00092984A99909905471D4D85D84B87964610
:1009F0009045C64586D747C8914A4890C7589282C5
:100A0000498505870346C8478785044706488649C0
:100A1000889A429B054A8518024507C943CA9A55D8
:100A20009B548555C955858FD14682D147859144C0
:100A3000C503054784D14687CF49868F0F48518922
:100A4000C50F50888F1847911802050447CA18052A
:100A500047CA8F154791558848CA15054488C64F1F
:100A6000CB4585C7C7C9458492C69A4A458546483D
:100A7000879791C645C547989056044B8F519191E1
:100A800099458544C64585C7518459C6458598D141
:100A90004790D15992D1448544848F1005469110D6
:100AA000468444C650869012408545C610120548BB
:100AB00088C647C78F17141100054491110446C416
:100AC00046C6D1C5448692984592C5494B85C89083
:100AD00047D248C8D2CF4988921105074A859780E6
:100AE00041834A4291CF58824F874FCACA5088C724
:100AF0008F571007C6464B8B990B4C9091D947479F
:100B000092D14985D10FCA4888CACE51CBD1D306DC
:100B1000084BCC92135185934F51C8D34F899110F4
:100B2000519290878752C6530649C8D21085528782
:100B300046CB4682C7D355850F9090985012140823
:100B4000C94B0085925148C7124893905091D045A7
:100B5000459190981304064A8E0508074B0406C772
:100B60004491CE458044859800034297508E1140B1
:100B7000845187124449878E0F4082428446854EB5
:100B8000864F8744C94FCBC7530082D05C8491C73E
:100B90005182C65486C754C70FC647865087C4C4FF
:100BA000448AC5504B8490C6D31B4593C64991C611
:100BB000CF5B85C64886C6D1084BC7868F45904512
:100BC0008717448644C8464B879104C750C891474D
:100BD000D58F1B135550861011C79295488F040866
:100BE00049C848CBCF53899595CF4E0FD00EC50D30
:100BF000448F8FC856D08747C856908F97150D10D1
:100C000012000306479616518D171148841145C7E7
:100C100046908D174D8E46C7508616C7474987C8E0
:100C2000109A4F44C996D04590509CC06187C846E1
:100C3000C8941147CF13121007064B8890C74591EF
:100C4000471986C7D152C70205C78F170F114690A3
:100C5000140F11000546870245C646CC1105C793FF
:100C60008F0446914644C68F40911351C8518B92D0
:100C7000518551875189CAC6D246CC91C7CB4449C8
:100C8000CC12879352518913C5C4C6484C0000004A
:100C90000000000000000000000000000000000054
:100CA0000000000000000000000000000000000242
:100CB0000000000000000100000000000002000031
:100CC000020000000000010000000000020000001F
:100CD000000200000000010000000002000000000F
:100CE00000000200000001000000020000000000FF
:100CF00000000002000001000002000000000000EF
:100D000000000000020401040200000000000000D6
:100D1000000000000420102004000000000000017A
:100D200001010101010800080101010101010000A8
:100D3000000000000480408004000000000000006B
:100D40000000000002040104020000000000000096
:100D5000000000020000010000020000000000008E
:100D6000000002000000010000000200000000007E
:100D7000000200000000010000000002000000006E
:100D8000020000000000010000000000020000025C
:100D90000000000000000100000000000002EFF170
:100DA0000F11F010FF01DFE11F21EE0EF212002003
:100DB0008004A259FBF80004040C0D1424FDFFFF6D
:100DC000FFBDFFFFBFFFFFFFFFFFFFFFFFFFFFFFB5
:100DD000FFFFFFFFFFFFFFFFFFFFFFFFFFFFFFFF23
:100DE000FFFFFFFFFFFFFFFFFFFFFFFFFFFFFFFF13
:100DF000FFFFFFFFFFFFFFFFFFFFFFFFFFFFFFFF03
:100E0000FFFFFFFFFFFFFFFFFFFFFFFFFFFFFFFFF2
:100E1000FFFFFFFFFFFFFFFFFFFFFFFFFFFFFFFFE2
:100E2000FFFFFFFFFFFFFFFFFFFFFFFFFFFEFFFFD3
:100E3000FFDEFFFFDF0001010303050900EFF0F112
:100E4000FF010F10110000000000000000DC00DBBB
:100E500000D000CF0086008F008700850054005826
:100E600000550056004200470048004F003E004534
:100E7000004500420041004E004C003A00000000D6
:100E80000000000000BE00EB00F9000501F5000ABB
:100E90000120011D01020123012F01320111012353
:100EA000013001330108011C0126012901FD001355
:100EB000011A012201FA0001010F011301EA00FDEC
:100EC00000FB0000010C0110010C011401110127AD
:100ED0000124011F011C012A012E012C011F0126E2
:100EE00001310138011B0126012D0136011D0127A9
:100EF000013001300115012B01240124010B0117E0
:100F00000110011701E001E201E901EE01E101E652
:100F100001EE01EA01D601E001E501E401D301D6C9
:100F200001E501E101C901D401DB01DB01C101CF10
:100F300001D401D401BA01CB01D401D601C701CB40
:100F400001D901DD0164037503890389037003710D
:100F5000038E038E037C0382038F0397037603784B
:100F6000038903880370037A037F0380036E03768B
:100F7000037E037A03580366037D0377035F035DF3
:100F80000364037703DEFFF8FFF2FFEBFF00000DC1
:100F900000110009000300190018000900F5FF0EF8
:100FA0000012000E00EBFFFEFF0B000C00F0FF0133
:100FB0000007000800F0FFFFFFFFFFFDFFE0FFF864
:100FC000FFECFFEDFF0C0011000D000E0007000A02
:100FD000000A000A001B0016000E000F001E00127F
:100FE00000090003001A0017000D0007000400FFAD
:100FF000FF040009000F00060007003500A0FFD520
:10100000FFF7FFFBFF070005000D000A000D0009B8
:10101000000A0003000000FFFF010001005FFFC99C
:10102000FFDFFFEEFFF5FFF9FFFEFFFEFF03000706
:10103000000A001000140020001E002B0011000701
:1010400000E7FF0400190013000D0007000400036F
:1010500000F8FFFAFFF3FFF2FFF2FFEEFF0085302A
:1010600011241FBECFEFDAE0DEBFCDBF11E0A0E05C
:10107000B1E0E6ECFDE602C005900D92A033B107A9
:10108000D9F728E0A0E3B1E001C01D92A53DB20769
:10109000E1F718E0C0E3D8E004C02197FE010E9408
:1010A000DB36CF32D107C9F70E949A300C94E13673
:1010B0000C9400008F929F92BF92CF92DF92EF929A
:1010C000FF920F931F93CF93DF93EC01DC0100E8B5
:1010D00015E091E09617D8F51296BC9012971396EA
:1010E0007C911397F80181918F01292F422F50E0B5
:1010F000FA01E258FA4F7F01FA01EE0FFF1F4F018C
:101100008C0E9D1E41585A4FF7013081381784F4D8
:101110006401F2E0CF1AD108F601C080D180F40159
:10112000D182C082F7013081FA0130832150F1F67B
:1011300030E0F901EE0FFF1FEC0FFD1FB08271834D
:1011400021583A4FF90180839F5F1296C3CFDF91F8
:10115000CF911F910F91FF90EF90DF90CF90BF90B4
:101160009F908F900895EDE3F2E0A0E0B4E000805E
:101170000EBC8111012C1197A0FDFDCF0192B9F792
:101180000DB4089592E0960F4AE0460F4917E9F032
:10119000292F30E0F901E258FA4F508157FF13C070
:1011A000235E3A4F462F42954695469543706F5FB2
:1011B000640FD9016C938083E82FF0E0E35CFB4F70
:1011C0009083892F08959F5FE1CF80E00895E62FF7
:1011D000F0E0E05DFA4F908191509083292F30E04C
:1011E000F901E35EFA4F460F408322583A4FF90166
:1011F0008083E82FF0E0E35CFB4F9083892F089514
:101200006F927F928F929F92AF92BF92CF92DF9216
:10121000EF92FF920F931F93CF93DF93CDB7DEB77B
:10122000C054D1090FB6F894DEBF0FBECDBFE09118
:10123000E20545E0E49FF0011124EA52FB4FE4800F
:1012400054E080E05E1508F0C1C0FE013196DF0178
:10125000BE016F5B7F4F1192E617F707E1F730E0B1
:1012600020E0F12C80E055E0C52E922FD22E2E15D5
:101270000CF064C04091E20524170CF092C050E0DD
:10128000421B530BC49EF001C59EF00D1124EA527F
:10129000FB4FB080E1818E2E8B18F80CF0E0AF018F
:1012A000435C5B4F3A01FA019080492D50E08A017E
:1012B000005211090A0F1B1FF801A080A80CA08280
:1012C0000B2D10E0035C1B4FF8019082F30110829C
:1012D00042585A4FFA01B082F1106DC08D014DE3B2
:1012E00054E0F801B1908F01BB20B9F0FA01EF5939
:1012F000FE4FE081EB0DE7FD5CC0F0E0E35CFB4FEF
:10130000E081EE2309F455C0F0E0E35EFA4FB080CF
:10131000FA01F395E081BE124CC04F5F5F4F60173A
:101320007107F9F641E090FF46C0442309F443C039
:101330008F5F813009F43FC091E09D0D915050E0E6
:1013400040E0692F092E000C770B35E0F32E97FD56
:101350003DC02091E20592178CF530E0FB01E41BC3
:10136000F50B2E1B3F0BF29EF001F39EF00D1124A6
:10137000EA52FB4F20813181E22FF0E0E35CFB4F2A
:101380002081032F10E0035C1B4FD8012C931082A7
:10139000E22FF0E0E258FA4F30834F5F5F4F9150F9
:1013A000D6CFE22FE41BF0E0EE0FFF1FEB50F84F1B
:1013B00070CF40E0B8CF2F5F3F4F57CFE92FE21BF0
:1013C000F0E0EE0FFF1FEB50F84FD4CFC05CDF4FC3
:1013D0000FB6F894DEBF0FBECDBFDF91CF911F9146
:1013E0000F91FF90EF90DF90CF90BF90AF909F90C4
:1013F0008F907F906F900895E0E6E827F0E0E25844
:10140000FA4F9081911115C0282F30E0F901E25870
:10141000FA4F4081442331F192E0980F865F89179B
:1014200051F0E92FF0E0E258FA4F50819F5F57FDED
:10143000F6CF80E008954530A8F04630D1F7215D21
:101440003A4FF901208180E0921799F3E92FF0E0FB
:10145000E258FA4F308137FD03C08111EBCF81E0B4
:101460009F5FF2CF81E0089580912E010E94FC09D8
:10147000811104C080912D010C94FC090895DF9224
:10148000EF92FF920F931F93CF93DF93E091F007BA
:1014900030E63E273093F007682F6777592F57774C
:1014A000A52FB0E0A35CBB4F4C91C091E2052FEF9C
:1014B0002C0F2093E20505E0C09FE0011124CA52E1
:1014C000DB4F2A81C22FD0E0782F7078F92FF8787F
:1014D0007F2B09F448C097FF62C0842F90E08C01F5
:1014E000035E1A4FF8017081E72FE770F0E0EB5CC4
:1014F000F14FD490E32EF12CF701E258FA4F7081AE
:101500007F5F7D197083F801108282589A4F3FEFF8
:10151000FC0130838091F00790E0FC01E15DFA4F1F
:101520003081FC014317A0F5E15DFA4F832F815014
:1015300080838091F00792E0980F3AE0380F3917D6
:1015400091F0092F0052110B035C1A4FF8017081C2
:10155000711123C031E0380F82958695869583708E
:10156000830F8083492F222389F1C35EDA4FE881FC
:10157000E770F0E0EB5CF14FE491C091F00780E69A
:10158000C827D0E0C258DA4F8881E80FE8831EC030
:10159000E05DFA4F80818F5FCBCF9F5FD0CF8E0110
:1015A00002581A4F93FF3AC0561740F58CEF860F3A
:1015B000E82FF0E0E35CFB4F2083EFEFE60FF0E075
:1015C000E35CFB4F1082E801888320E0E62FF0E027
:1015D000E35CFB4F4083E42FF0E0E258FA4F608376
:1015E0002C93E22FF0E0E258FA4F5083DF91CF9135
:1015F0001F910F91FF90EF90DF90089583E0860F89
:10160000E82FF0E0E35CFB4F2083E1E0E60FF0E041
:10161000E35CFB4F1082F8018083D7CF87FFA3CF15
:1016200080E3850F831BC82FD0E0C35CDB4F28838A
:10163000E8018883F0E0E258FA4F80818F5FECCFB9
:1016400080E0E82FF0E0982F9878A7E2B1E011F061
:10165000A8E2B1E0E35CFB4F9C9190838F3F11F0D7
:101660008F5FEFCFEDE3F5E0119285E0EE37F807FD
:10167000D9F7EEE7F5E08FEF819395E0EE3DF907BE
:10168000D9F780E680937D059AE290934F0590E428
:10169000909350059AE490936F0580937005109293
:1016A000E2051092D9041092DA041092D604109236
:1016B000D7041092D80480E28093F00710929E0520
:1016C0001092BE0508954F925F926F927F928F9213
:1016D0009F92AF92BF92CF92DF92EF92FF920F93C1
:1016E0001F93CF93DF930E94200B81E090E09093B3
:1016F000F4078093F3071092F2071092F107C0E607
:1017000010912E01D0912D01612F8C2F0E94C208C3
:101710006D2F80EB8C0F0E94C208CF5FC836A1F7F7
:101720000DE314E0C0E0D12C50902E0190902A01DE
:10173000C0902B01609029017C2C892CD0912D0127
:10174000492D6D2F8C2F0E94E7088D2F90E09C0172
:10175000215D3A4F5901F901208181E0820F808398
:1017600083E0482E4D0E822F90E0FC01E35EFA4F9D
:10177000408282589A4F31E03C0FFC013083F801DF
:1017800021834C2D6D2F82E08C0F0E94E708462D9F
:101790006D2F83E08C0F0E94E70821E02D0F822F30
:1017A00090E0FC01E35EFA4F37E03D0F3083825852
:1017B0009A4F34E03C0FFC013083F8012483472D1D
:1017C0006D2F85E08C0F0E94E708F501208181E0F4
:1017D000820F8083822F90E0FC01E35EFA4F40820B
:1017E00082589A4F36E03C0FFC013083F801268383
:1017F000482D6D2F87E08C0F0E94E708C0590059D3
:101800001F4FF1E0DF1222C087E28093BE05809374
:101810009E05E091E20525E0E29FF0011124EA52E5
:10182000FB4F83E6838384E08183DF91CF911F9117
:101830000F91FF90EF90DF90CF90BF90AF909F906F
:101840008F907F906F905F904F900895DD24D39498
:10185000D52D76CF482F862F642F60764770433082
:10186000D9F020F4413078F480E008954730B8F1A1
:101870004730D1F791E0960F292F30E0F901E35E70
:10188000FA4F695F20C0E62FF0E0E258FA4F9081EE
:101890009F5F90830C94C208262F30E0F901E25834
:1018A000FA4F90819D5F90832E503109F901E35CDE
:1018B000FA4F908141E0490F4083292F30E0F90130
:1018C000E35EFA4F6D5F608322583A4FF9018083DF
:1018D000E82FF0E0E35CFB4F9083892F0895E42F1D
:1018E000F0E0EB5CF14FE491A62FB0E0A258BA4FC4
:1018F0009C91E90FEC930C94E708962F282F2295E2
:101900002F70362F32953F70321337C0242F861731
:1019100008F58F5FE82FF0E0E35CFB4F908199239F
:10192000C1F368132AC02F5FE22FF0E0E35CFB4FA6
:10193000E081EE23C1F38091F0078E23F1F4F0E013
:10194000E35EFA4FE081E770F0E0E255F24F80810C
:10195000817008958150E82FF0E0E35CFB4F208117
:101960002223C1F3841309C09150E92FF0E0E35C16
:10197000FB4FE081EE23C1F3DECF80E00895FC0150
:1019800080913C02882311F13FB7F89482E0809364
:10199000E9002091F200822F90E01816190614F445
:1019A00081E090E0882339F0289844E640933B0298
:1019B0004091F1004083222339F02091F20021115F
:1019C00003C02BE62093E8003FBF08958FEF9FEF01
:1019D00008952FB7F89483E08093E9009091E80090
:1019E000892F807295FF04C09091F20080E4891BDA
:1019F0002FBF08958091330281110DC082E0809342
:101A00002F0284E080933002109232021092310251
:101A100081E0809333028FE292E00895CF93DF93C9
:101A20001F92CDB7DEB76983DC01ED91FC91028096
:101A3000F381E02D41E050E0BE016F5F7F4F0995DB
:101A40000F90DF91CF91089583E08093E90080911A
:101A5000F200882319F08AE38093E80008950E9439
:101A6000E90C90E00895CF93DF931F92CDB7DEB7D6
:101A7000FC018485958597FD08C02FEF3FEF3587E2
:101A800024870F90DF91CF910895CE0101960E9497
:101A9000BF0C019719F4898190E0F3CF8FEF9FEF8E
:101AA000F0CF0F931F93CF93DF931F92CDB7DEB785
:101AB0008C01FC018485958597FF0BC0CE010196B2
:101AC0000E94BF0C019771F4898190E0F80195871D
:101AD0008487F801848595850F90DF91CF911F91C0
:101AE0000F9108958FEF9FEFF1CFFC0184859585CD
:101AF00097FD0BC09FB7F89482E08093E900809136
:101B0000F2009FBF90E0019608959FB7F89482E09D
:101B10008093E9008091F2009FBF90E0089540918A
:101B2000D9015091DA012091D7013091D8014217A3
:101B30005307B4F49091E8009570E1F39091E800B8
:101B400092FD19C08093F1008091D9019091DA0142
:101B500001968F739927892B19F48EEF8093E800F3
:101B60008091D9019091DA0101969093DA018093E6
:101B7000D90181E0089580E00895EF92FF920F93DC
:101B80001F93CF93DF93F82E192FE62E042F81E0B9
:101B9000860F880F0E948F0D83E00E948F0DCF2D3E
:101BA000D12FEC0EFD2EF11CCE15DF05B9F007FF8D
:101BB00013C0FE0184910E948F0D182F80E00E94B7
:101BC0008F0D812321968111EFCFDF91CF911F914E
:101BD0000F91FF90EF9008958881EDCF81E0F5CFD0
:101BE000DF92EF92FF920F931F93CF93DF93D82E44
:101BF0008A01EB017B01E40EF51ECE15DF0559F0DD
:101C0000D7FE12C0FE0184910E948F0D2196811192
:101C1000F4CF0FEF1FEFC801DF91CF911F910F910C
:101C2000FF90EF90DF9008958881EECF0F931F9380
:101C3000CF93DF931F92CDB7DEB782E0898342E472
:101C400050E063E278E080E80E94F00D0E94FA0C18
:101C5000DC0112960D911C910115110589F0D80136
:101C6000ED91FC910280F381E02DBE016F5F7F4F0B
:101C7000C801099597FD04C0F80100851185ECCFD6
:101C800089810F90DF91CF911F910F91089561503D
:101C900030F02091F100FC0120830196F8CF2898C4
:101CA00084E680933B0208953FB7F89480913F010A
:101CB00090914001A0914101B091420126B5A89BAD
:101CC00005C02F3F19F00196A11DB11D3FBFBA2FCE
:101CD000A92F982F8827BC01CD01620F711D811D8E
:101CE000911D42E0660F771F881F991F4A95D1F713
:101CF00008958F929F92AF92BF92CF92DF92EF9210
:101D0000FF926B017C010E94540E4B015C01C114D7
:101D1000D104E104F104B9F00E94540E6819790964
:101D20008A099B09683E73408105910580F321E093
:101D3000C21AD108E108F10888EE880E83E0981EE7
:101D4000A11CB11CE4CFFF90EF90DF90CF90BF902B
:101D5000AF909F908F90089565E070E080E090E0F4
:101D60000C94790E8F929F92AF92BF92CF92DF9296
:101D7000EF92FF920F931F93CF93DF936C017B0140
:101D80008A0180910B01882309F45CC080913C0298
:101D9000882309F457C08091DE0180FF05C080913F
:101DA000E00082608093E000E801B12C8AEFA82E69
:101DB00093E0892E2AE3922E209711F4BB20D9F1CB
:101DC0000E94E90C81110AC0AA94AA20D9F161E00D
:101DD00070E080E090E00E94790EEECF8C171D0637
:101DE00011F00CF08C2F9FB7F8948092E9002091AD
:101DF000E80025FD02C09FBFDFCF282F30E0C21BC7
:101E0000D30BF701815020F041914093F100FACFBC
:101E1000E20EF31EBB2021F09092E800B12CEBCF34
:101E20008091E80085FDE7CF9092E800BB24B39451
:101E3000209709F3F3CF5D9884E68093DD011016B7
:101E400011063CF081E090E0F6019383828310E07C
:101E500000E0C801DF91CF911F910F91FF90EF90AB
:101E6000DF90CF90BF90AF909F908F9008958EBDE0
:101E700000000DB407FEFDCF08955C9808955C9AAC
:101E8000089590E1699FB001112480FD03C0719510
:101E900061957109CB010895282F30E083FB8827D5
:101EA00080F996E0359527959A95E1F72270822B77
:101EB0008D5F08958F929F92AF92BF92CF92DF92E3
:101EC000EF92FF920F931F93CF93DF93A091E205C0
:101ED00025E0A29FF0011124EA52FB4FAF5FA093CF
:101EE000E205A29FD0011124AA52BB4F2381139671
:101EF0002C931397248114962C9314978C931196FA
:101F00009C931197382F392B387899F4E82FF0E00B
:101F1000E35CFB4F4091F0073EEF341B4081340FF0
:101F2000383038F0E92FF0E0E35CFB4F30812F5F71
:101F3000311120E014962C931497382F3777292FDE
:101F40002777D22E432F50E08A01035C1B4FF80104
:101F500020816D2D70E0FB01E35CFB4F7F01C080B1
:101F6000CC2DD0E0CC20A1F0FE01E35EFA4FE08161
:101F7000E770F0E0EB5CF14F9490A090F007F0E692
:101F8000AF26B12CF501E258FA4F80808918808283
:101F90001296CC9212974354524FFA014491FB018E
:101FA000E354F24FE491E42313964C911397E42306
:101FB0001396EC931397592F5878482F4078452B58
:101FC000A1F197FF61C0A22EB12C0E944C0FF50128
:101FD000E35CFB4FDF01A052BF4F1C92EF5BFE4F53
:101FE0009FEF90834091F007A42FB0E0833009F475
:101FF0003CC0A05DBA4FEC912FEF2E0F2C93E22F37
:10200000F0E0E35EFA4F9091F007980F9083E82F8D
:10201000F0E0EB5CF14FE491A091F007B0E0A25842
:10202000BA4F8C918150E80FEC93F7012083F801AF
:102030001082E22FF0E0E258FA4FD082C258DA4F15
:102040008FEF88838091F00790E689278093F007CF
:10205000DF91CF911F910F91FF90EF90DF90CF9084
:10206000BF90AF909F908F900895FD01E15DFA4F72
:102070002081922F9F5F9083E22FF0E0E35EFA4F82
:102080009091F0079D5FC2CF93FF2AC0D316D8F47A
:10209000ECEFE30FF0E0BF01635C7B4FFB0140819D
:1020A00012964C9312973150832F90E0835C9B4F94
:1020B000FC014083FB0110821296EC91F0E0E258A3
:1020C000FA4F3083B2CFE3E0E30FF0E0BF01635C8F
:1020D0007B4FFB01408112964C9312973F5FE4CFF8
:1020E00087FFA3CF4091F0078D2D841B805D90E08A
:1020F000835C9B4FFC01308112963C931082A32F8E
:10210000B0E0A258BA4F8FEF8C9380E6E42FE82717
:10211000F0E0E258FA4F80818150808386CF209191
:10212000380130E0209530954091430150E0242360
:10213000352390E02823392381E0232B09F480E024
:1021400008959FB19095907F669B98601C9B9460CA
:10215000209143019227E0E3F1E031E060E050E0BC
:10216000492F432399F040814F5F481760F4408323
:10217000330F6F5F3196683099F720933801252728
:102180002093430108951082532BF2CF1082F0CF99
:10219000CF93DF9387E491E04DE354E0DA0130E040
:1021A00020E0ED91EE23B9F0F0E0E35EFA4FEC01B0
:1021B000C20FD31F608168832F5F3F4F28303105E6
:1021C00081F70896405F5F4F21E08738920731F72B
:1021D000DF91CF910895ECE0F1E0E9CFCF93C82FE4
:1021E0000E943D0F81E20E94370F80E40E94370F6A
:1021F0008FE70E94370F0E943F0F8C2FCF910C94D6
:10220000B308CF93C82F0E943D0F81E20E94370F81
:1022100080E00E94370F8FE30E94370F0E943F0F2C
:102220008C2FCF910C94B30898E0899F90011124D2
:10223000260F311D8830E8F0683030F0F901E450A5
:10224000FE4F908190689083F901E350FE4F97E034
:102250004191DF01119740684C939150C9F79091DB
:102260008801983330F4F901EC5FFD4F908190685C
:102270009083683048F4F901EC5BFD4F90819F67D3
:102280009083883360F00895F901E45CFD4F9081FC
:102290009F679083683378F3883318F00895683027
:1022A00030F0F901E45CFD4F808180688083F901A2
:1022B000E35CFD4F87E09191DF01119790689C935B
:1022C0008150C9F7683350F7F901EC5BFD4F80810D
:1022D000806880830895DB01FC0124912C93319662
:1022E000E4911196EC931197FC013296E4911296C9
:1022F000EC931297FC013396E4911396EC931397A9
:10230000FC013496E4911496EC931497FC013596F5
:10231000E4911596EC9315970696FC018491169618
:102320008C930895CF92DF92EF92FF920F931F93B9
:10233000CF93DF9387E0E82E0DE312E097E0D92EEC
:10234000CD2CCE18E801F12C809187018823A1F1D2
:10235000ED2DEF198E2D28E0829FC0011124E80F8A
:10236000F92FF11DE95BFE4F2081222351F1822FCD
:10237000877090E025FF23C00197D89E9001D99ED9
:10238000300D1124C901855C9C4FBE010E946B1168
:102390002896F39488E0F812D7CF005C1F4FEA9498
:1023A0002FEFE212CDCFDF91CF911F910F91FF90D0
:1023B000EF90DF90CF9008958C2DEF2DCCCF059628
:1023C000DCCF8C2D8F0D80FDE3CFBE0182E493E046
:1023D000DDCF98E0899FF0011124E07CF770E40FD5
:1023E000F11DE35CFD4F982F97702FEF30E001C097
:1023F000220F9A95EAF79081922B9083E05CFF4F31
:10240000887F885F70E06F5F7F4F9FEF885F8617E0
:10241000170609F024F49083E05CFF4FF7CF677054
:10242000772781E090E001C0880F6A95EAF7815034
:102430009081892B80830895282F277091E001C017
:10244000990F2A95EAF728E0829FF0011124E07C99
:10245000F770E60FF11DE35CFD4F461738F08191F0
:10246000DF011197892B8C936F5FF7CF089598E068
:10247000899FF0011124E07CF770E60FF11DE35C09
:10248000FD4F877021E030E001C0220F8A95EAF706
:102490008081822B80830895CF92DF92EF92FF920A
:1024A0000F931F93CF93DF93D82F062FC42F122F94
:1024B000FF24FA94F20EEE24E394E60E4F2D6E2DD7
:1024C0000E941C124F2D6E2D8C2F0E941C12DD2499
:1024D000DA94DC0ECC24C394CD0E402F6D2D8C2DC0
:1024E0000E94E911412F6D2D8C2D0E94E9110E5F84
:1024F000602F8C2D0E9437121250612F8C2D0E945C
:102500003712602F8D2D0E943712612F8D2D0E9462
:102510003712DE5F6E2D8D2F0E9437126F2D8D2F9B
:102520000E943712C2506E2D8C2F0E9437126F2DD1
:102530008C2FDF91CF911F910F91FF90EF90DF9043
:10254000CF900C943712AF92BF92CF92DF92EF925E
:10255000FF920F931F93CF93DF9338E0439FF001D7
:102560001124E07CF7702E0F3F2F311D235C3D4F6F
:102570004770042FEFE1F0E0DF01042E01C0AA0F45
:102580000A94EAF758E0541BC52F02C0F595E79569
:102590005A95E2F77C01BA2EB0949E2F909566234F
:1025A00009F43FC0F70141917F01442309F439C088
:1025B00089EDC82E81E0D82E4150F601141634F46E
:1025C000A491B0E01196CA0EDB1EF6CF7491A22E34
:1025D000D90131968A2F8A19871740F0472F50E08A
:1025E0004F5F5F4F240F351F6150D9CF449150E0AA
:1025F0008C918B216A01002E01C0CC0C0A94EAF761
:102600008C298D93DF968C91DF9789230C2E02C045
:10261000559547950A94E2F7482BDF964C93DF9740
:10262000D8CFDF91CF911F910F91FF90EF90DF9066
:10263000CF90BF90AF900895CF93DF93CDB7DEB723
:1026400060970FB6F894DEBF0FBECDBF613108F0C2
:1026500060E1FC01CE010196DC0134913D9331969D
:102660003A2F381B3617C8F30E94A31260960FB694
:10267000F894DEBF0FBECDBFDF91CF9108952EE35A
:102680004EE060E080E00E944C128091CF01811109
:1026900007C082ED93E02CE045E069E00C941C1348
:1026A00088EF92E0F8CFAF92BF92CF92DF92EF9295
:1026B000FF920F931F93CF93DF9300D000D0CDB73D
:1026C000DEB7F62E082F10E046E0159507954A95DF
:1026D000E1F7D02E4CE0460F2EE360E08F2D0E94F4
:1026E0004C12C09044018091D5019091D60145973C
:1026F00041F10C1126C092E0A92EAF0C23E0E22E8E
:102700003AE0B32EBF0C6E2D8A2D0E9437126E2D2B
:102710008B2D0E943712E394E3948DE3E812F3CFFC
:1027200083E0E82EBE2CBF0C62E08B2D0E94371296
:102730006CE38B2D0E943712E394E394EBE0EE12EE
:10274000F1CFF4E0FF0E04571E4FF8018281882379
:1027500009F43FC08081845E8C8324E04F2D61E0CA
:10276000CE0104960E94A3128AE289838EE28A83B4
:10277000F8018281825F8B832BE04F2D63E0CE01D5
:1027800001960E94A312DC100AC0F80182818823FE
:1027900031F08091D5019091D601089759F08CE1E4
:1027A00093E0D11002C082E293E023E24F2D65E076
:1027B0000E941C130F900F900F900F90DF91CF91FC
:1027C0001F910F91FF90EF90DF90CF90BF90AF904F
:1027D000089524E04F2D65E081EC92E00E941C13E7
:1027E000D2CFDC019C91992319F1E9EDF1E09150F0
:1027F00098F41196952F6150D9F08D918823C1F0EE
:10280000E9EDF1E0815080F04491242F30E02F5F1A
:102810003F4FE20FF31FF6CF5491252F30E02F5F8B
:102820003F4FE20FF31FE3CF81E0840F980FE3CF18
:10283000892F08952F923F924F925F926F927F92CD
:102840008F929F92AF92BF92CF92DF92EF92FF92C0
:102850000F931F93CF93DF93CDB7DEB728970FB6B3
:10286000F894DEBF0FBECDBF1091870160E011115B
:1028700001C062E380912E010E94531362E31111A3
:1028800001C060E080912D010E945313A090F107D8
:10289000B090F2073FEFA31AB30A6501D694C7942C
:1028A00046E0C416D10408F054C086E090E08C19CC
:1028B0009D09982F990F990F891B880F9CE2592E1B
:1028C000580E312CBEE02B2E8DE0851508F0BAC0D5
:1028D000E32CF12C6090F1077090F207E614F704F6
:1028E00008F0B0C0F701E457FE4F42A4F701EE0F25
:1028F000FF1FEB50F84F8081918119821A821B8251
:102900001C821D821E821F821886292F277093FF2A
:102910002CC0298298E19A832B82243010F49C8366
:102920002D82E62467E0CE010196E0FE71C00E9490
:10293000F11386958D3008F08CE02AE1281B452D97
:1029400067E0CE0101960E94A312FAEF5F0E339466
:10295000BBCF8091D5019091D6010CE2502E4597C6
:1029600009F0AFCF16E2512EACCF342D37708E0167
:102970000F5F1F4F332321F039838E010E5F1F4FEE
:1029800044FE07C0382F37703A5FD8013C930F5F81
:102990001F4F45FE0AC0382F377732953F70B6E19A
:1029A000B31BF801B0830F5F1F4F43FE05C0E9E181
:1029B000D801EC930F5F1F4F2A5FD8012C93292F6A
:1029C000277722952F70B6E1B21BF801B183480139
:1029D00097FD09C0F2E08F0E911C46FE13C03AE14C
:1029E000F40130839ECF33E0830E911C0E944C0F84
:1029F0008350990BFC01EB5FFC4FE491D8011296D8
:102A0000EC93EBCF47FE8DCFEBE1D401EC9389CF74
:102A10000E94F113482F50E09A012F5F3F4F3595E8
:102A2000279594E3921B292F490F511D41345105DD
:102A300014F020E4281B452D67E0CE0101960E948A
:102A4000A31285CF8090D5019090D601A5E18A167A
:102A50009104E9F410913901163041F420E04CE280
:102A600069E08FEE92E00E941C1311C0123078F0E2
:102A700020E04CE265E08AEE92E00E941C131330E5
:102A800009F46CC008F059C0123009F461C080919B
:102A9000F1079091F207892B09F480C02AE030E019
:102AA000C601B9010E94C7365EE0F52EF80EC501D9
:102AB00064E170E00E94C736CB01B9010E94C736BD
:102AC0000EE0080FC50168EC70E00E94C7367EE09A
:102AD000E72EE60EB6E0CB16D10408F04BC046E078
:102AE00050E04C195D09842F880F880F142F181B94
:102AF000110F145D45E3D42E1E3008F44FC0E98257
:102B00000A83FB82FEE0EF1204C0D9820E3009F482
:102B1000DA8220E0412F63E0CE0101960E94A312E9
:102B20003EE0F31233C00E3069F5E31689F1EA9402
:102B300037E1F32E07E11650DFCF1430A9F015303E
:102B400009F0A5CF26E14CE269E087EC92E08BCF5B
:102B500026E14CE268E082EE92E085CF26E14CE28D
:102B60006AE088ED92E07FCF26E14CE268E080EDFC
:102B700092E079CF1CE2E5E18E16910409F0BACF1C
:102B800016E2B8CF015027E1F22ED5CFFA94D3CF79
:102B900087E1F82E07E197E1E92ECDCF28960FB611
:102BA000F894DEBF0FBECDBFDF91CF911F910F9183
:102BB000FF90EF90DF90CF90BF90AF909F908F905D
:102BC0007F906F905F904F903F902F90089528E0F6
:102BD0004DE352E0DA01BC01605C7F4FFC013491AF
:102BE0003D933196E617F707D1F7405C5F4F2150D0
:102BF00080589F4F2111EECF08950F931F93CF93CD
:102C00008C01FC0180819181FC01E257F74FC49156
:102C10000196F80191838083C7FF05C0C8010E9417
:102C2000FD158111FBCFC6FBCC27C0F981E08C27B5
:102C3000CF911F910F910895DC012D913C91119737
:102C40001296EC91E20FF32FF11DED50FF4F8081B2
:102C50000895AF92BF92CF92DF92EF92FF920F93BF
:102C60001F93CF93DF9300D01F92CDB7DEB7E0E67E
:102C7000C82ECE26AC2DB0E0A258BA4F9C9191112F
:102C800030C08B01E82E282F30E0F901E258FA4FCE
:102C9000F080F11018C06091EF078091E2050E946A
:102CA000410FF8019183808381E00F900F900F9086
:102CB000DF91CF911F910F91FF90EF90DF90CF9018
:102CC000BF90AF90089592E0980F8AE08E0D89171B
:102CD00051F0E92FF0E0E258FA4F40819F5F47FD45
:102CE000F6CF80E0E2CFF3E0FF15A8F694E0F91606
:102CF000C1F3215D3A4FF9019081D12C981749F029
:102D0000E82FF0E0E258FA4F208127FFD3948F5F3D
:102D1000F5CF8DE394E09A838983EB82CE0101960F
:102D20000E941C169B81905E30E09817E9F0482FB6
:102D300050E0FA01E258FA4F608167FD13C0435E2C
:102D40005A4FFA0120812770243061F4262F2295F2
:102D50002F70262720FBAA24A0F8B12CA5014F5FD5
:102D60005F4F342B8F5FE1CFF6E0FF1204C082E0AB
:102D7000D81609F490CFE394EE2DF0E0E258FA4F24
:102D80008081C394EC2DF0E0E258FA4F2081422F6D
:102D900050E064E0559547956A95E1F72770682FF4
:102DA00062956F70641B062E000C770B77FF03C0D3
:102DB0007195619571098770821B082E000C990B23
:102DC00097FF03C0919581959109680FF6E0FF1276
:102DD00023C081E0D81220C030FD18C08EE0821BD5
:102DE000240F841B281708F4822F94E0F99E900189
:102DF0001124820F932F911D880F991F861B910913
:102E000034E0880F991F3A95E1F74BCF842F821B4E
:102E1000295F241B895FE6CF440F87E090E0841B85
:102E2000910997FF03C0919581959109220F47E081
:102E300050E0421B510957FF03C05195419551097C
:102E4000840FD3CF635070E09B0143E0220F331F08
:102E50004A95E1F7287056E0660F771F5A95E1F71B
:102E60006078622BFC0120812777622B60830895B4
:102E70000F931F93CF93DF9300D0CDB7DEB7FC0144
:102E80007A8369839A81892F877782958F708417D7
:102E900059F0CF010296718360830F900F90DF91FC
:102EA000CF911F910F9108958F0190689A8360913F
:102EB0002901CE0101960E942217FC018081918197
:102EC000F8019183808360912C01CE0101960E94CC
:102ED0002217FC0180819181F801938382836091A4
:102EE0002A01CE0101960E942217FC018081918166
:102EF000F8019583848360912B01CE0101960E9495
:102F00002217FC01C801089620813181F80137831E
:102F10002683C3CF882329F090E483FF90E2877053
:102F2000890F0895DC01EC91F0E0E255F24F8491B5
:102F3000E62F660FFF0BEA5DF24FE491E82381E094
:102F400009F480E00895FC0180818770843018F0D6
:102F500097E0981B892F0895CF93FC01208130E0E2
:102F600044E0359527954A95E1F7C7E0C21B61110A
:102F700001C0C22FCC0FCC0F0E94A3178C0FCF9192
:102F800008952F923F924F925F926F927F928F920D
:102F90009F92AF92BF92CF92DF92EF92FF920F93E8
:102FA0001F93CF93DF93CDB7DEB764970FB6F89436
:102FB000DEBF0FBECDBFC82E81E06C2C6826A0E41A
:102FC000DA2E80E0CC2019F0F0E2DF2E87E0FE015F
:102FD00031965E012BE0A20EB11C4F018193EA15E0
:102FE000FB05E1F780E65D2C582642E0450D5AE0EE
:102FF000550DE12C541709F1E42FF0E0E258FA4F97
:10300000808187FD18C0E394282F30E0E4E03595F7
:103010002795EA95E1F7877090E00196F401E80FB3
:10302000F91F8081CC2021F0821720F4282F02C0C4
:103030002817E0F320834F5FDDCF30ED3D0D388B57
:1030400062E0762E7D0C7AE0372E3D0C10E000E039
:103050008EEF482E4D18371409F48AC0E72DF0E0A2
:10306000E258FA4FF080FB86F7FC53C0E394662DDC
:10307000C5010E94AC17E82FF0E0EE0FFF1FEB5BDD
:10308000F14F85919491080F191FC5010E94A31754
:10309000EF2D6889E61BAFEFAE0FB0E0A35CBB4F2E
:1030A0009C91940D983048F0EF5FF0E0E35CFB4FAB
:1030B0009081940D40E0983058F4E82FF0E0EE0F46
:1030C000FF1FEB53F04F25913491020F131F41E086
:1030D0009F2D92959F702F2D277030E0F401E20F05
:1030E000F31F5081C11017C0951798F0E2E0F0E08F
:1030F000EC0FFD1FE20FF31F5081951750F0E3E036
:10310000F0E0EC0FFD1F2E0F3F1FF90120819217F9
:10311000B8F47394A0CF5917E0F3E2E0F0E0EC0FBD
:10312000FD1FE20FF31F5081591798F363E070E021
:103130006C0F7D1F260F371FF9012081291748F3D7
:10314000E82FF0E0E053FF4FCF01880F991FFC01FB
:10315000EB5BF14F25913491020F131F4423C9F209
:10316000FC01E35BF14F85919491080F191FD1CFBA
:10317000FEE0FE1510F42FE0E22EED2DF0E0E15D13
:10318000FA4F20812C8BF12C3CEEE30EF11CEE0C5F
:10319000FF1CB7016B5B714F1B01198A8EEF482E24
:1031A0004D189FE3892E90E1992E7C89771609F4BA
:1031B00048C0E72DF0E0E258FA4FC080CB86C7FC4C
:1031C0003EC0662DC5010E94AC17E82FF0E0EE0F5F
:1031D000FF1FEB57F14F85919491080F191F8889B4
:1031E000C81AEFEFEC0DF0E0E35CFB4F8081840D3B
:1031F000883048F0C394EC2DF0E0E35CFB4F808115
:10320000840D883068F4C5010E94A317E82FF0E010
:10321000EE0FFF1FE353F04F85919491080F191F94
:10322000F10185919491080F191F9989992329F02B
:10323000F40185919491080F191FE1E0E98B7394D3
:10324000B4CFE1E0E50DF0E0E258FA4F40808DE3C5
:1032500094E09C878B87DD86C5010E941C16C82ED2
:103260008D85805E888B97012B5D314F1901812CF4
:10327000712C71E4A72E70E1B72E38893C1509F442
:1032800091C08C2D90E0BC01635C7B4F7B01FB0106
:10329000EF5BFE4F90809F8697FC75C0662DCE0138
:1032A0000F960E94AC17F701E052FF4FE081E770E4
:1032B000EE87E450EE2EF12CF70155E0EE0FFF1FE4
:1032C0005A95E1F7E05CFF4FE80FF11DEE0FFF1F8D
:1032D000EB5BF14F85919491080F191F642D6919CB
:1032E000CE010E960E949217882349F0F701EE0F47
:1032F000FF1FEB50F04F85919491080F191F8E8599
:10330000982F937009F441C0853061F4F1018591E3
:103310009491080F191F772059F1F5018591949127
:10332000080F191F892D8F708F8728E0FF24F394D1
:103330009F85E92FF0E0E35CFB4F80818250382FBE
:103340003D19383000F18519883008F4F12C905F70
:103350009F87215069F7CE010F960E94A317E82F8F
:10336000F0E0F11008C0EE0FFF1FE352F04F07C06E
:1033700077247394D7CFEE0FFF1FEB52F04F859158
:103380009491080F191FC39478CF892D82958F705F
:103390009826792D71707A8B1B8A8A899B89019670
:1033A000882AF1CF83E0881206C0EBEFFFE0859119
:1033B0009491080F191FE1E0ED0DF0E0E258FA4F8B
:1033C000F080FE86662DCE010E960E94AC17E82F87
:1033D000F0E0EE0FFF1FEB57F04F85919491080F2F
:1033E000191FEDE3FEE045E45EE090E034918F2D9F
:1033F000830FA82FB0E0A35CBB4F2C912D2111F4BB
:103400009F5FF6CF31964E175F0781F79C3008F02B
:103410009CE0E92FF0E0EE0FFF1FED5BFF4E859182
:103420009491800F911F64960FB6F894DEBF0FBE83
:10343000CDBFDF91CF911F910F91FF90EF90DF9063
:10344000CF90BF90AF909F908F907F906F905F9044
:103450004F903F902F9008950F931F93CF93DF933A
:1034600000D0CDB7DEB78091E4079091E5070196D3
:103470009093E5078093E407BE016F5F7F4F8091D3
:10348000F0070E942916811128C09091F007BE0113
:103490006F5F7F4F80E689270E942916811116C031
:1034A00081E00E94C1178C0180E00E94C117980141
:1034B000281B390BC901EDE3F0E12091F00725FF4E
:1034C00015C025913491820F931F05C089819A817F
:1034D0009195819591099A83898389819A810F9029
:1034E0000F90DF91CF911F910F9108952591349105
:1034F000281B390B3A832983F0CFDC01EC910E2E87
:10350000000CFF0BEF59FE4F84910895DF92EF926C
:10351000FF920F931F93CF93DF93CDB7DEB72A9718
:103520000FB6F894DEBF0FBECDBFF82E8091F00726
:1035300020E62827E0EDEF0DE20FAFEFAE0FB0E091
:10354000A35CBB4F1C919EEF981B312F390F383075
:1035500088F580E2821B8295869587709F2D9295D3
:103560009F70891709F4FDC080E01123A9F0EF2DA9
:10357000F0E0E35CFB4FE081F0E0E35EFA4FE081D6
:10358000E770F0E0EA54F24F0491080F8091E205F1
:103590008C3009F0E8C0802F2A960FB6F894DEBF71
:1035A0000FBECDBFDF91CF911F910F91FF90EF9094
:1035B000DF900895EF5FF0E0E35CFB4F1081910F27
:1035C000983038F21AE0180FE82FF0E0E15DFA4F7A
:1035D0000081101789F0E12FF0E0E258FA4F808166
:1035E00087FD08C06F2D681B8CE291E00E94921746
:1035F0008111BACF1F5FEDCF8091F0072DE334E04A
:103600003A8329838B83CE0101960E941C16182FC2
:103610008B8130E2E32EE80EE11651F1812F90E02C
:10362000FC01E258FA4F008107FD20C0835E9A4FEB
:10363000FC01808187708430C9F4DF2CD01A6D2D95
:103640008BE291E00E949217882381F0DC82CE0108
:1036500004960E947D1A080FE02FF0E0E35CFB4F18
:1036600090819923C1F30F1509F47ECF1F5FD4CF4A
:103670008091F0072DE334E03D832C838E83CE01CF
:1036800004960E941C16182F8E8120E2E22EE80E6E
:10369000E11651F1812F90E0FC01E258FA4F0081D0
:1036A00007FD20C0835E9A4FFC01808187708530C2
:1036B000C9F4DF2CD01A6D2D8AE291E00E94921796
:1036C000882381F0DF82CE0107960E947D1A080FC1
:1036D000E02FF0E0E35CFB4F90819923C1F30F15DD
:1036E00009F442CF1F5FD4CF8091F0072DE334E07F
:1036F00038872F838987CE0107960E941C16182FC2
:10370000898590E2E92EE80EE11609F441C0812F87
:1037100090E0FC01E258FA4F008107FD20C0835E73
:103720009A4FFC01808187708630C9F4DF2CD01A53
:103730006D2D89E291E00E949217882381F0DA864C
:10374000CE010A960E947D1A080FE02FF0E0E35C9C
:10375000FB4F90819923C1F30F1509F405CF1F5F2B
:10376000D3CF80E202CFA12FB0E0A258BA4F1C9174
:10377000812F9F2D0E945A0F8F2D0E94861AE82EAE
:10378000812F9F2D0E943F0A802F8E1987FF04CF23
:1037900080E002CFCF93DF930E942C1AEC01E091DE
:1037A000E20585E0E89FF0011124EA52FB4F828197
:1037B000882349F0818187770E94861A99E18902DE
:1037C000C00DD11D1124CE01DF91CF9108952F920C
:1037D0003F924F925F926F927F928F929F92AF92A1
:1037E000BF92CF92DF92EF92FF920F931F93CF93EE
:1037F000DF9300D000D01F92CDB7DEB78C016C01F3
:10380000DC01612C412C6616F9F011968C91119710
:1038100087FD08C0E82FE777F0E0E35CFB4F90817D
:10382000992379F0E42DF0E0EE0FFF1FE00FF11F78
:103830009C912081318111963C932E9390838183BA
:10384000439463941296DFCF2EE1241510F47FE1A8
:10385000472E6FE7262E65E0362E78015101712C38
:10386000741409F43CC0D7018D909C901197119667
:10387000BC91BB83B7FF23C0F70180810E944C0F2E
:10388000E82FF0E0EA54F24FE4915CEF552E5E0E23
:103890008091E2058C3059F0C4010E945A0F8B814F
:1038A00087770E94861A581AC4010E943F0AD501E0
:1038B0005D925D017394B2E0EB0EF11CD1CFEB8110
:1038C000E777F0E0E35CFB4FE081F0E0E35EFA4F86
:1038D000E081E770F0E0EA54F24F5490D9CF672DC1
:1038E000C8010E945A082FE735E0962C90E080E04E
:1038F000B12C4DEB5EEFFA01ED53F4407F01B714AC
:10390000D8F5D9014D919D0147FF33C0962C9718EA
:10391000D801A80FB91FF701E20FF31FE90DF11D40
:10392000EE0FFF1FAF01400F511F5D834C83AB2C87
:10393000BC01615071098C9011965C901197EC81DB
:10394000FD8141915191FD83EC834D935D93AF01D6
:1039500042505109FA0180824C815D81481B590B0C
:10396000460F571FFA015082A3947A10E4CF9B0CA4
:103970007B2CB3940296C3CF711064C0FEE1792C06
:10398000F91510F42FE1722E812C871409F456C01A
:103990006090F00766FA662460F8D601EC91E7774C
:1039A000EA83F0E0E35CFB4FE081F0E0E35EFA4F96
:1039B000A080BA2DB770AB2EAA94AA94E5E0EA15C0
:1039C00008F4A12CD60111968C9187778983662DF6
:1039D000CE0101960E94AC17B0E2AB9E50011124BB
:1039E000F501E80FF11DEE0FFF1FEB5BF14FE590C6
:1039F000F490662DCE0102960E94AC17F501E80FF7
:103A0000F11DEE0FFF1FEB5BF14F85919491F701D4
:103A1000E81BF90BCF018138FFEF9F0714F481E811
:103A20009FEF8038910514F08FE790E0D1018D93DE
:103A30001D018394B2E0CB0ED11CA7CF682DC80125
:103A40000E945A08892D0F900F900F900F900F90A1
:103A5000DF91CF911F910F91FF90EF90DF90CF906A
:103A6000BF90AF909F908F907F906F905F904F909E
:103A70003F902F9008959F92AF92BF92CF92DF9286
:103A8000EF92FF920F931F93CF93DF9300D000D05C
:103A90001F92CDB7DEB7A0E3A60FA81B9EEF981B21
:103AA0002FEF2A0FE22FF0E0E35CFB4F2081290F7C
:103AB000283008F48CC0AF5FB0E0A35CBB4F2C9102
:103AC000920F983008F483C0062F182F2AE0E22EB8
:103AD000E80EE82FF0E0E15DFA4FD080ED1489F0B8
:103AE000EE2DF0E0E258FA4F608167FD08C0601BE0
:103AF0008CE291E00E949217F82E811146C0E39467
:103B0000EDCF802F90E09C01235C3B4F6901F901D0
:103B1000908080E680838DE394E09A8389831B8381
:103B2000CE0101960E941C16B82E8B8190E2A92E20
:103B3000A80EAB14E1F18B2D90E0FC01E258FA4F96
:103B4000E080E7FE02C0B394F4CF835E9A4FFC019D
:103B50008081602F6E196D8387708C83CE010496EF
:103B60000E949217F82E882371F3CE0105960E94C9
:103B70007D1AE80EEE2DF0E0E35CFB4F9081992377
:103B8000C1F30E11E0CFF60190828F2D0F900F90B0
:103B90000F900F900F90DF91CF911F910F91FF9099
:103BA000EF90DF90CF90BF90AF909F900895F60177
:103BB00090821F5FE12FF0E0E258FA4F8081602F82
:103BC000681B86E291E00E949217F82EDECFFF2458
:103BD000F394DBCF2F923F924F925F926F927F923E
:103BE0008F929F92AF92BF92CF92DF92EF92FF920D
:103BF0000F931F93CF93DF93CDB7DEB7AC970FB67C
:103C0000F894DEBF0FBECDBF1C01F090F00780E638
:103C10005F2C582610ED612E6F0C80E28F1990E01A
:103C20009C0105E0359527950A95E1F73CA32BA368
:103C30004BA086E028272BA731E03F0D3DA3832F23
:103C400090E0AC0142585A4F5FA34EA3DA01EC90CA
:103C50001092E3078DE394E09A8F898F5B8ECE01FB
:103C600049960E941C16982E8B8D805E8CA7810130
:103C7000DD24DA94C12CBCA5B91509F4CEC0892D78
:103C800090E0FC01E258FA4FA080A7FC2EC0835EB2
:103C90009A4FDC01EC91E7709A2D9E199F8FF0E00E
:103CA000E255F24F8491E92F990FFF0BEA5DF24F35
:103CB000E491E823E370C9F0CE014F960E947D1A8B
:103CC000782EBE2CB70CEB2DF0E0F9A7E8A7E35C4B
:103CD000FB4F90819923B1F3AB1009C08091E307AA
:103CE0008E5F8093E3077AA6DA2C9394C4CF492F92
:103CF00050E0FA01E35EFA4F8081282F20762F11E1
:103D0000F4CFF7E0033D1F0708F0C3C38B2C870CEB
:103D1000E82DF0E0E35CFB4F20812223C1F3A810E3
:103D2000E4CF2C2D30E0EDE0F0E0EC0FFD1FE20FD2
:103D3000F31FB08242585A4FEFEFDA01EC93C3946D
:103D400041E050E04C0F5D1F240F351FD9019C93BB
:103D50008770833008F043C0A62CAB0C872D87708A
:103D600041F5EA2DF0E0E35CFB4F80818111BDCF8E
:103D7000442D6B2D7A2DC8010E9438178C01A60C9A
:103D8000EA2DF0E0E35CFB4F80818111AECF88A586
:103D900099A5B4E095958795BA95E1F7BBA5B813B9
:103DA000A4CF8B2D8860F8018083A1820E5F1F4F06
:103DB0009CCF8FEF8A0D881207C0442D6B2D782D74
:103DC000C8010E9438178C01A3948A108ECF442D0D
:103DD0006B2D782DC8010E9438178C0186CF8C8FEF
:103DE0006F8DCE014C960E949217882309F47DCFE7
:103DF000D8019B2D970DFD013296BC9211969C9394
:103E0000DF018912F7CF8B2D8F018719E81609F48E
:103E10006CCFB08281833296F7CFE091E20525E046
:103E2000E29FF0011124EA52FB4F81818777B82E7F
:103E30009E2D981BE82FF0E0E35CFB4FE081F0E063
:103E4000E35EFA4FE081E770F0E0E255F24F8491D3
:103E5000E92F092E000CFF0BEA5DF24FE491E823F5
:103E6000EC7F69F08091E3078F5F8093E307919582
:103E70009C8FCE014C960E947D1A8AA7DB2C8091E4
:103E8000E307882309F46FC0833008F092C2E09101
:103E9000E20535E0E39FF0011124EA52FB4F8181F6
:103EA000877781018D1509F4C7C08091E30780FFF2
:103EB00069C1BD2CB6186FEF6B0DE62FF0E0E35C27
:103EC000FB4FE0818EEFE82EEF188E2F8E0D88309D
:103ED00060F4F0E0E258FA4F808187FD06C04BA104
:103EE0007D2DC8010E9438178C0161E06B0DE62F13
:103EF000F0E0E35CFB4FE0818E2F8E0D883060F4A4
:103F0000F0E0E258FA4F808187FD06C04BA17D2D7D
:103F1000C8010E9438178C01F7E0033D1F0708F025
:103F2000B8C2EAE0EE2EEF0CEF2DF0E0E15DFA4FC3
:103F3000A080AE1409F4E2C0EE2DF0E0E258FA4F92
:103F4000B080B7FC0EC06D2D6B198CE291E00E9421
:103F50009217882331F0D801BC921196DC920E5F43
:103F60001F4FE394E6CF47E0033D140708F091C2EA
:103F7000E091E20555E0E59FF0011124EA52FB4F84
:103F8000A3808F2D8295869587708A2171F16FEFBE
:103F90006E0DE62FF0E0E35CFB4F8081811125C0C0
:103FA000AEEFBA2EBE0CEB2DF0E0E35CFB4F808150
:103FB00081111BC0EDEFEE0DF0E0E35CFB4F808163
:103FC000811113C0852D0E943B1D81110EC06B2DE8
:103FD000852D0E943B1D811108C0D801EC928B2DCC
:103FE000886011968C930E5F1F4FAF2029F161E01E
:103FF0006E0DE62FF0E0E35CFB4F808181111CC069
:10400000F2E0BF2EBE0CEB2DF0E0E35CFB4F8081B5
:10401000811112C0852D0E943B1D81110DC06B2D99
:10402000852D0E943B1D811107C0F801E0828B2D78
:10403000886081830E5F1F4FF7E0033D1F0708F084
:1040400028C2E091E20525E0E29FF0011124EA5246
:10405000FB4F808183FF29CF81818777B82E8091A4
:10406000E307882311F0DB1020CF88248A948B0C7F
:10407000E82DF0E0E35CFB4FE0818EEFA82EAF1857
:104080008E2F8A0D8830B8F4F0E0E258FA4F808124
:1040900087FD11C04B2D682D8E2D0E947D0C811146
:1040A0000AC0882D8068D8018C93862D8B0D1196BF
:1040B0008C930E5F1F4F882483948B0CE82DF0E0C7
:1040C000E35CFB4FE0818E2F8A0D883008F0EDCE47
:1040D000F0E0E258FA4F808187FDE7CE482D6B2D46
:1040E0008E2D0E947D0C8111E0CE882D8068F80114
:1040F0008083B60CB1820E5F1F4FD7CEB7E0033D71
:104100001B0708F0C6C18DE394E09D8F8C8FFE8E57
:10411000CE014C960E941C16E82E8E8D70E2A72EC2
:10412000A80EAE1409F446C18E2D90E0FC01E258B1
:10413000FA4FB080B7FC24C0835E9A4FFC018081A7
:104140006D2D6B196AA387708F8FCE014F960E94D9
:1041500092178823A9F0CE0182960E947D1A9B2D8A
:10416000980FE92FF0E0E35CFB4F20812223C1F39D
:10417000D91206C0D801BC921196DC920E5F1F4F77
:10418000E394CFCFB7E00B3A1B0708F082C152E0AF
:10419000A52EAF0C6AE0762E7F0C7A1409F44FC07E
:1041A000EA2DF0E0E258FA4FB080B7FC46C0862C0A
:1041B0008B0C7FEF780DE72FF0E0E35CFB4F808105
:1041C0008076581206C0442D6B2DC8010E94381706
:1041D0008C0171E0780DE72FF0E0E35CFB4F80810C
:1041E0008076581206C0442D6B2DC8010E943817E6
:1041F0008C01E82DF0E0E35CFB4F808181111DC054
:10420000442D6B2D782DC8010E9438178C01860C27
:10421000E82DF0E0E35CFB4F808181110EC08B2D17
:1042200082958F70EBA58E1308C08B2D8860D80106
:104230008C9311968C920E5F1F4FA394AECFEF2DEF
:10424000F0E0E15DFA4F40812EEA3DE04A1519F1B8
:10425000EA2DF0E0E258FA4F908197FD1AC0B7E0DE
:10426000033D1B0708F015C1E6EAFDE08491890FC4
:10427000A82FB0E0A35CBB4F5C915F2131F4D80163
:104280009C9311968C930E5F1F4F31962E173F070C
:1042900069F7A394DBCF8DE394E098A38F8FF9A205
:1042A000CE014F960E941C1669A1605E22EA3DE095
:1042B00046EA5DE0681709F451C0E82FF0E0DF013D
:1042C000A258BA4F9C9197FD47C0B7E00B3A1B0725
:1042D00008F0DFC0E35EFA4F7081E72FE370E9F08A
:1042E000E2EAFDE0A4903801B92E8301BA0CAB2DAF
:1042F000B0E0A35CBB4F8C90A82DAF2151F4A2E09D
:104300006A0E711CD8019C931196BC92882069F3A7
:10431000830131964E175F0729F770FD1DC0EEE946
:10432000FDE0B4904801792F84017B0DA72FB0E008
:10433000A35CBB4FAC90AA2DAF2151F4B2E08B0E21
:10434000911CD8019C9311967C93AA2069F3840157
:1043500031962E173F0729F78F5FACCF8091E30787
:10436000882341F15101A016B10620F5F5018181A4
:104370008777882E8E198C8FCE014C960E947D1ADD
:10438000FAA58F1779F0F80192918291D5018D935A
:104390009C9395012250310959018F0132E0A30EFF
:1043A000B11CE1CF9E2D980F8916C1F3D912FBCF16
:1043B000EACF810143ED241647E0340608F069C0D6
:1043C000AEA1BFA1DC90AD2CB12CF501E35CFB4F9D
:1043D00010823DE3832E3EE0932E45E4642E4EE0B2
:1043E000742EF401E490ED0CEE2DF0E0E35CFB4F55
:1043F00080818F2161F46E2D852D0E943B1D8111DE
:1044000006C0D801DC921196EC920E5F1F4FBFEFF1
:104410008B1A9B0A6814790421F7F501E35CFB4FC2
:104420002DA12083CC20B9F0CA948C2D90E0E1E03E
:10443000F0E0EC0FFD1FE80FF91FE081F0E0E2581B
:10444000FA4F4DE050E04C0F5D1F840F951FDC01CB
:104450008C918083E7CFC801821993099595879540
:10446000AC960FB6F894DEBF0FBECDBFDF91CF91F3
:104470001F910F91FF90EF90DF90CF90BF90AF9082
:104480009F908F907F906F905F904F903F902F9074
:104490000895CC20B9F0CA948C2D90E0E1E0F0E0D2
:1044A000EC0FFD1FE80FF91FE081F0E0E258FA4F32
:1044B0002DE030E02C0F3D1F820F931FDC018C910B
:1044C0008083E7CF8FEFCCCFCF9383EE95E00E9430
:1044D000EA1DC82FE091E20585E0E89FF001112474
:1044E000EA52FB4F84818436B8F40E94340A811169
:1044F00015C00E940009823098F49091E307CC2304
:1045000031F081E0911101C080E0CF91089586E003
:104510009111FBCF85E0F9CF82E0F7CF84E0F5CFB2
:1045200083E0F3CF1F93CF93DF93C091F007D0E0E8
:1045300036E0D595C7953A95E1F71C2FC093440115
:104540000E94642280933901823050F085E190E02E
:104550009093D6018093D501DF91CF911F9108955B
:10456000C457DE4F8A81882341F191E0111190E018
:10457000E92FF0E0E457FE4F2281211102C0909311
:10458000870198E09093EB0790E0880F991F0796BA
:1045900021E030E002C0220F331F8A95E2F730930A
:1045A000E7072093E607EC81F0E0EE5FFC4FE49133
:1045B000E093EF0788E090E0CBCF81E0111101C0DC
:1045C00080E08093870184E090E0C2CF1F93CF9377
:1045D000DF93182FD92F8091F1079091F207019660
:1045E0009093F2078093F1078091F3079091F4077D
:1045F000892B69F183EE95E00E94EA1DC82FC15016
:104600008C2F90E0FC01EE0FFF1FED51FA4F20813F
:104610002113F5CF880F991FFC01EC51FA4F8081CF
:10462000D813EDCF8091F3079091F407FC01E25786
:10463000F74FE4912E2F2F73C2132FC00196E7FD81
:1046400002C090E080E09093F4078093F307E3EDDD
:10465000F8E0929182919383828387E0E53FF807A7
:10466000C1F71093F507D093F607812F9D2F0E9475
:104670005A0FE091E20585E0E89FF0011124EA522B
:10468000FB4F1092E205A6EDB4E001900D928A95E1
:10469000E1F7DF91CF911F91089583EF97E00E949A
:1046A000FD158111BFCF1092F4071092F307CFCF01
:1046B0000F931F93CF93DF931092F4071092F30799
:1046C000C091F107D091F207C730D10580F40C2FCB
:1046D0000E94630B10E0CC0FDD1FCD50D84F101798
:1046E00030F4888199810E94E6221F5FF8CFDF9124
:1046F000CF911F910F9108958F929F92AF92BF9289
:10470000CF92DF92EF92FF920F931F93CF93DF939D
:104710008091F1079091F207892B09F4B4C0809140
:10472000CE01882309F4AFC09090F507F090F6070A
:10473000292D2777C22ECF2DC777E12CF7FC04C097
:10474000E92CEE1CEE24EE1C3F2D3770D32E0C2DE1
:1047500010E0F3FEA5C083E0E1E0831708F4EFEF7B
:10476000EC0FF0E0E35CFB4F8081D0E0B09094016F
:10477000A09093012091F1073091F2072150310967
:104780003093F2072093F107E5EFF7E022813381C0
:104790002193319328E0E33DF207C1F78093DD04D4
:1047A00081E08093E205892D9F2D0E943F0AA0920F
:1047B000D904B092DA04F7FC12C097FE10C0C80109
:1047C00064E0959587956A95E1F78295807F8D0DD8
:1047D0008093D7048091D60488608093D6040E9489
:1047E00058238091CE0181508093CE01E2E9F1E01F
:1047F00083819481A58181939193A19331E0E33BDF
:10480000F307B1F7E6EBF1E08DEC91E02181219324
:104810008E179F07D9F710924601C093D401C0921A
:104820008A01F801E35CFB4FE081F0E0E35EFA4FC0
:1048300080818093CF018D2D90E0EE2089F0D8010A
:1048400044E0B595A7954A95E1F753E0AA0FBB1F41
:104850005A95E1F7A80FB91FA95BBE4FDC93D0E0D2
:10486000EC2FF0E024E0F595E7952A95E1F733E0A9
:10487000EE0FFF1F3A95E1F7E80FF91FE95BFE4FD6
:10488000D08310928B01DF91CF911F910F91FF90F8
:10489000EF90DF90CF90BF90AF909F908F90089552
:1048A000D09192016C2FEE2091F0B801E4E0759563
:1048B0006795EA95E1F76295607F630F8091F00755
:1048C000D82FD295D695D695D3708F5FD80F862FD7
:1048D00090E0FC01E35CFB4F5F0180808D2F0E9424
:1048E0002A0CE82FF0E0E258FA4F9FEF9083F50191
:1048F00080823CCF6F927F928F929F92AF92BF92B5
:10490000CF92DF92EF92FF920F931F93CF93DF939B
:104910008C016B017A010E94EA1D782E8FEF7812CC
:1049200010C0DF91CF911F910F91FF90EF90DF901A
:10493000CF90BF90AF909F908F907F906F900C948E
:10494000CA1B71102BC08091E2059091E307992357
:1049500099F0C82FD0E0DD57CE01DF91CF911F91A4
:104960000F91FF90EF90DF90CF90BF90AF909F900E
:104970008F907F906F9008956091EF07DF91CF91B6
:104980001F910F91FF90EF90DF90CF90BF90AF906D
:104990009F908F907F906F900C94410F0E942C1AE3
:1049A0008E159F050CF07BC0EC018C159D050CF459
:1049B000E60180E0E82FF0E0EE0FFF1FE00FF11FAF
:1049C0009181A92FA777B0E0A35CBB4F2C91211157
:1049D00011C097FD0FC0908197FD0CC07A94815053
:1049E000A72DB0E0AA0FBB1FA00FB11F2D913C91C6
:1049F000318320838F5F8715E8F2672DC8010E94FD
:104A0000E71B872C912C880C991C800E911E612C21
:104A1000C12C93E8D92EAA24BB24AE18BF08671472
:104A200009F49ACFF801808191810E945A0F8091F8
:104A3000E2058C30C9F40E942C1A91958195910958
:104A4000C816D9060CF46C01F801808191810E948E
:104A50003F0ACC15DD050CF4E6010E5F1F4FCE15A5
:104A6000DF05ECF46394DBCF8091EE07811114C075
:104A70002091E4073091E5078091E6079091E707E0
:104A80008217930748F0442755274C1B5D0BB5014F
:104A9000C4010E947A24D1CF90E080E0CECFE7011C
:104AA0005BCF5F926F927F928F929F92AF92BF92F5
:104AB000CF92DF92EF92FF920F931F93CF93DF93EA
:104AC0008C016B015A01522EC091E20585E0C89F0E
:104AD000F0011124EA52FB4F84818436A0F06091EA
:104AE000EF078C2FDF91CF911F910F91FF90EF90E7
:104AF000DF90CF90BF90AF909F908F907F906F90FE
:104B00005F900C94410F0E94340A8111E8CF0E94FB
:104B10000009823028F06091EF078091E205E2CF32
:104B20008091EE078111A7C02091E4073091E5073D
:104B30008091E6079091E7078217930708F49BC0DE
:104B40008091E205851538F18C3089F4DF91CF91A1
:104B50001F910F91FF90EF90DF90CF90BF90AF909B
:104B60009F908F907F906F905F900C942C1AA5016E
:104B7000B601C801DF91CF911F910F91FF90EF9087
:104B8000DF90CF90BF90AF909F908F907F906F906D
:104B90005F900C947A24C8010E94EA1D782EEFEFF2
:104BA0008E1311C0DF91CF911F910F91FF90EF9065
:104BB000DF90CF90BF90AF909F908F907F906F903D
:104BC0005F900C94CA1B81111DC08091E2059091E9
:104BD000E3079923A1F0C82FD0E0DD57CE01DF9184
:104BE000CF911F910F91FF90EF90DF90CF90BF90EA
:104BF000AF909F908F907F906F905F90089560919D
:104C0000EF0770CF682FC8010E94E71BE72CF12C3B
:104C1000EE0CFF1CE00EF11EC0E0D3E8612C8824EE
:104C200099248A189B08F801808191810E945A0F6B
:104C3000442755274C195D09252DB401C7010E9451
:104C40005125919581959109C817D9070CF4EC016C
:104C5000F801808191810E943F0ACC16DD060CF498
:104C60006E01CA14DB040CF0B9CF63940E5F1F4FC2
:104C70007610D9CFB3CFD0E0C0E0B0CF0C94B1362E
:104C80000F931F93CF93DF930AE110E0CFEFDFEF95
:104C9000C8010E943E269D2F9827892F82958F70EC
:104CA0008927282F30E09C2FA901542F44275295A3
:104CB000507F84279527E90175E0CC0FDD1F7A9599
:104CC000E1F7C827D9270F5F1F4F0E3F83E0180772
:104CD000F9F6CE01DF91CF911F910F9108951F92A8
:104CE0000F920FB60F9211248F939F938091E10042
:104CF0009091E100937F9093E10083FF0FC01092A9
:104D0000E90091E09093EB001092EC0092E3909315
:104D1000ED0010923C0298E09093F00082FF22C0D8
:104D200093E09093E9009091F200992319F09AE3AF
:104D30009093E8009091DD01992341F09091DD017D
:104D400091509093DD01911101C05D9A90913B02C9
:104D5000992341F090913B02915090933B02911125
:104D600001C0289A84FF18C08091E2008E7E816085
:104D70008093E2008091E1008F7E8093E10080913A
:104D8000DE018E7E80618093DE019F918F910F9076
:104D90000FBE0F901F90189580FFF7CF8091E20013
:104DA0008E7E80618093E2008091E1008E7E809310
:104DB000E1008091DE018E7E8160E5CF1F920F922F
:104DC0000FB60F921124CF92DF92EF92FF920F93C2
:104DD0001F932F933F934F935F936F937F938F9383
:104DE0009F93AF93BF93EF93FF93CF93DF93CDB791
:104DF000DEB76C97DEBFCDBF1092E9008091E8006E
:104E000083FF25C068E0CE0145960E94470E82EFE1
:104E10008093E8008D8987FF39C09091E80090FF6A
:104E2000FCCF982F907609F034C19E894F89588D18
:104E30002F89F88C911131C0803861F58091DC01A7
:104E40008093F1001092F1008EEF8093E8006C9651
:104E50000FB6F894DEBF0FBECDBFDF91CF91FF91AB
:104E6000EF91BF91AF919F918F917F916F915F91E2
:104E70004F913F912F911F910F91FF90EF90DF90F5
:104E8000CF900F900FBE0F901F9018959EEF9093AC
:104E9000E800C7CF1092F100D5CF913059F48111BD
:104EA000D3CF4130510581F68091DC018D7F809315
:104EB000DC01CACF933049F48111C6CF413051058E
:104EC00019F68091DC018260F2CF953041F4809137
:104ED000E80080FFFCCF20682093E300B5CF963038
:104EE00009F0A9C00B8D1C8D22E01092E9001092F0
:104EF000DA011092D901F2122EC01092D80110924C
:104F0000D7010E94160E1F8299E09983FA8291E0E0
:104F10009E8390EA98879AEF99872091D9013091E2
:104F2000DA01275F3F4F3C832B838D831092E9008A
:104F30001092DA011092D9011093D8010093D70191
:104F400049E050E0BE016F5F7F4F80E00E94F00DAE
:104F50000E94160E79CF1093D8010093D7010E94BA
:104F6000FA0CDC0112960D911C910115110509F442
:104F700051C1D801ED91FC910480F581E02DBE0175
:104F80006B5E7F4FC8010995009709F03EC1F8019B
:104F900000851185EACFF3E0FF120EC08F898823C8
:104FA00009F440C0823061F440E867E087E898E0A7
:104FB0000E94BD0D811148CF81E28093EB0047CF65
:104FC000813029F440E86BE08BE798E0F1CF833043
:104FD00099F70E94FA0CDC011296ED90FC908E017C
:104FE0000F5F1F4F6801E114F10479F0D701ED91D3
:104FF000FC910680F781E02DB801C7010995080FE3
:10500000111DF701E084F184EECFD8011C92F60166
:1050100001900020E9F73197BF016C197D0940E04C
:10502000C601C6CF65E678E0FB01449150E080E818
:105030000E94F00D09CF973009F4BECF983021F4CB
:1050400081E08093F10000CF993009F0FDCE8370AC
:1050500009F0B2CFEEE0F1E081E031E096E321919A
:10506000222371F08093E9003093EB00DF01119768
:105070002C912093EC009093ED008F5F873079F7AF
:105080008EE78093EA001092EA008F8980933C02B9
:10509000DBCE8B8D9C8D1092E9001092DA0110927C
:1050A000D9019093D8018093D701898D811192C045
:1050B0008E899D89913A49F4813209F07DCF47E08C
:1050C00050E064E071E080E0B3CF913209F074CF3A
:1050D000833269F48F89988DB0E0A0E0809300015D
:1050E00090930101A0930201B0930301ADCE8032F1
:1050F00069F48091E80082FFFCCF67E084E091E0F2
:105100000E94470E8BEF8093E8009ECE823209F01A
:105110009BCE8F8980930B01EEEFFFE785919491F1
:105120008B3F9C4D51F1E0E0F8E0809104019091BB
:105130000501A0910601B0910701803B9440A105B3
:10514000B105F1F480910B0180FD1AC0EE3F8AE0B9
:10515000F80789F587E797E791838083809160005E
:105160008093DB0188E19BE00FB6F894A8958093CB
:1051700060000FBE9093600067CEEEEFFAE0D5CFEF
:10518000808191818737974709F05ECEA8958091FD
:1051900060008861809360008091DB0180936000F3
:1051A000EE3F2AE0F20789F08091FE0A9091FF0A13
:1051B0009183808349CE808191818737980751F20E
:1051C0009093FF0A8093FE0AC5CF1092FF0A1092B7
:1051D000FE0A3ACE0E94FA0CDC0112960D911C9147
:1051E0000115110509F4E8CED801ED91FC9101906B
:1051F000F081E02DBE016B5E7F4FC80109958111E2
:1052000023CEF80100851185EBCF181619060CF492
:105210001BCED2CEF1E0FF12BECE69E678E004CF1D
:105220001F920F920FB60F9211242F933F938F93DB
:105230009F93AF93BF9380913B0190913C01A091CC
:105240003D01B0913E0130913A0123E0230F2D370B
:1052500058F50196A11DB11D20933A0180933B01A1
:1052600090933C01A0933D01B0933E0180913F019A
:1052700090914001A0914101B09142010196A11D80
:10528000B11D80933F0190934001A0934101B093E1
:105290004201BF91AF919F918F913F912F910F90BC
:1052A0000FBE0F901F90189526E8230F0296A11DA0
:1052B000B11DD2CF1F920F920FB60F9211243F92C1
:1052C0004F925F926F927F928F929F92AF92BF9216
:1052D000CF92DF92EF92FF920F931F932F933F9302
:1052E0004F935F936F937F938F939F93AF93BF93EE
:1052F000EF93FF93CF93DF93CDB7DEB76197DEBF18
:10530000CDBF0091D5011091D6010631110508F0ED
:10531000B1C1F801E257F64D0C94DB36A429B3294C
:10532000DE29F029052B102B102B672BA02AB12A80
:10533000C22BC22BC22BCB2CD82C162D742DC82DD2
:105340003A2B3A2BF32D372E86E194E00E94E71595
:1053500080E00E9401111092D40181E090E09093CE
:10536000D6018093D50186E594E00E94E715E0918F
:10537000D401F0E0EE0FFF1FE65FFC4F05911491A2
:10538000CE0101969E012F5E3F4FDC01A801481B14
:10539000590BFA01EA0FFB1FE491ED932A173B0723
:1053A000C1F760E10E94F113869524E1281B44E1D6
:1053B0006FEFC8010E941C1381E024C10E9492116A
:1053C00081E00E9401111092D40110928E0181E0BF
:1053D00080938F0183E090E09093D6018093D50174
:1053E0002EE34EE060E080E00E944C122FE045E0AA
:1053F00068E082E393E00E941C1323E042E164E052
:1054000081EF93E00E941C1323E04AE16AE088E206
:1054100093E00E941C1323E042E266E082E293E004
:105420000E941C1323E042E366E08CE193E00E94BB
:105430001C130EE811E0BDE3EB2EB2E0FB2E82E27E
:10544000582E9E012F5F3F4F69014E0131E1830EBF
:10545000911C9CE3492E3801D801EC91F0E0EE0F4D
:10546000FF1FEC5EFC4F8591949122E2452D6FEF7A
:105470000E941C13D8011296EC91F0E0EE0FFF1F72
:10548000E25FFC4FA590B490D601C5018C199D092F
:10549000FC01EA0FFB1FE491ED938A169B06C1F70E
:1054A00060E1C6010E94F113242D281B48E0450D40
:1054B0006FEFC5010E941C130F5F1F4FF301808126
:1054C00081110DC0F701E05CFE4F970129593E4F55
:1054D00086898575868B31962E173F07C9F7F0E1CF
:1054E0005F0E20E8E20EF11C32E45312B4CF80913B
:1054F000D401E82FF0E0329666E0EE0FFF1F6A95C8
:10550000E1F78823C1F09DE28130B1F09DE3833063
:10551000A9F0853099F081E2E80FF11DE35CFD4FC1
:105520003EEF891708F048CF2191DF01119723271B
:105530002C938F5FF6CF93E182E0EECF85E1ECCF45
:105540000E94921181E00E9401110E941A1480E0D1
:105550000E94EE1089E090E09093D6018093D501EF
:1055600089C080E00E94A11084E00E948F108823EF
:1055700019F081E08093EE0790914401E92FF0E06B
:10558000E457FE4F82818F5F880F4091E40750916E
:10559000E50702C0569547958A95E2F781E091119B
:1055A00080E09091870117E3891301C015E0F12C89
:1055B00009E1040F402F69E1812F8F0D0E941C1219
:1055C000F39483E0F812F6CF49E369E18FEF810F9E
:1055D0000E941C1249E369E183E0810F0E941C12C2
:1055E00002E0010F48E1602F812F0E94E9114AE398
:1055F000602F812F0E94E91181E09091EE079111B7
:1056000001C080E00E94EE1035C00E941A1481E0B3
:105610000E94EE1085E090E09093D6018093D50132
:105620000E9492118091D5019091D6010697A9F41C
:105630006091D401862F869588776770660F660F14
:10564000660F90918701992331F098E3A92FA81B49
:105650008A2F961B692F0E94141180918B0183FD64
:1056600006C060918801809189010E94141181E037
:105670000E94011180918B018F5F80938B01619655
:105680000FB6F894DEBF0FBECDBFDF91CF91FF9173
:10569000EF91BF91AF919F918F917F916F915F91AA
:1056A0004F913F912F911F910F91FF90EF90DF90BD
:1056B000CF90BF90AF909F908F907F906F905F90B2
:1056C0004F903F900F900FBE0F901F9018950E9423
:1056D0009211E9ECF2E020EF32E080818F7081934B
:1056E0002E173F07D1F7E9E0F3E080E393E0119252
:1056F0008E179F07E1F7E9E4F3E020E733E08081CC
:10570000887F81932E173F07D1F722E342E26CE0B6
:1057100084E10E944C128091F00785FF31C080E047
:1057200090E0029627E0289F8001299F100D112408
:105730006DE073E0C801855C9C4F0E946B1165E1D0
:1057400073E0C8018E5B9C4F0E946B116DE173E0AA
:10575000C801875B9C4F0E946B1165E273E0C80132
:10576000805B9C4F0E946B1180918B0183FD7FCFEA
:105770006091CF016E5F660F660F660F88E175CF8F
:1057800086E0CECFF0908B01F110ACC0EDE3F2E0FB
:105790001192B4E0ED33FB07D9F70E941A1481E0AF
:1057A0000E94EE100E949211FEE1FF1508F46CC0F9
:1057B0006091D401A62FA770AA0FAA0FAA0F8091FB
:1057C0008A01282F2770220F220F220F66956877F3
:1057D0008695887790918701992361F098E3392F16
:1057E0003A1BA32FB92FB21B2B2FE92FE61B6E2FCD
:1057F000981B892FEF2DF0E0EA56FC4FE491F0E082
:10580000861B990B8E9FA0018F9F500D9E9F500D60
:105810001124CA01809646E0969587954A95E1F74E
:10582000680F2A1B330B2E9F40012F9F900C3E9F29
:10583000900C1124F0E28F0E911C56E09694879400
:105840005A95E1F7A80D2091CF01822F877090E043
:1058500025FF4EC0019727E0289FF001299FF00DFA
:105860001124CF01855C9C4F262F277038E0639F61
:10587000B00111248A2E912C21113CC0680D791D94
:10588000635C7D4F0E946B1181E00E9401118FE1EA
:10589000F812F0CE0A30110509F074C0E09144010D
:1058A000F0E0E457FE4F82818823C9F08091E80739
:1058B0009091E9078E3AACEF9A070CF45BC0863002
:1058C000BFEF9B070CF458C0833523E092070CF020
:1058D00055C08B3F91050CF053C082E080830E943D
:1058E0009222C8CEEFE1FE125DCF0E94C8105ACFBF
:1058F0000596B1CF422FEEEFF0E05F01022E01C01E
:10590000AA0C0A94EAF7E8E0E21B2E2FAFEFB0E012
:105910006D0102C0D594C794EA95E2F7FC01DB0162
:10592000A07CB770A80DB91DA35CBD4FBC01695F19
:105930007F4FA094C094849190E0EC90EA204C01B9
:10594000042E01C0880C0A94EAF7E828ED92DF964D
:10595000EC90DF97EC20022E02C0959587950A9473
:10596000E2F78E29DF968C93DF973196E617F707DB
:1059700011F78ACF80E0B2CF81E0B0CF84E0AECF24
:1059800083E0ACCF0C30110509F0A9CF0E947C2335
:105990008BE090E0E1CD0E94921181E00E94011124
:1059A0001092D4018EE090E09093D6018093D501BF
:1059B0002EE34EE060E080E00E944C1280913901BD
:1059C000823070F12CE045E069E089EC93E00E94C0
:1059D0001C1336EBE32E33E0F32E12E1F701859131
:1059E00094912BE0412F6FEF0E941C13185F32E05F
:1059F000E30EF11C123391F7E091D40180E4E89FAB
:105A0000F0011124E354FD4F9F01255D3F4F9EEFB0
:105A100082858927828731962E173F07C9F7CCCC1C
:105A200029E045E06BE08EEB93E0D1CF8091D4018B
:105A3000882309F4A4C090914501992309F49FC0DB
:105A400081502CE431E0829F3001839F700C11243F
:105A5000C3014A960E943E26853C09F090C0F12C75
:105A6000E12C512C9EE5690E711C452C01E010E0E3
:105A7000C70123E0880F991F2A95E1F7DC01A95B94
:105A8000BE4F6D01C301840D911D0E943E26382E2C
:105A90005601A00EB11E4501B1E08B1A9108829506
:105AA0008F700E948A17F4018083832D8F700E946B
:105AB0008A17D5018C9343940E5F1F4F093011054F
:105AC00009F7B4E05B0EEFEFEE1AFE0AF0E25F12A8
:105AD000CCCF0E94921181E00E94011180E190E000
